{
  "address": "0xad173991Ee17efB1789920d3816E7842265a1966",
  "abi": [
    {
      "inputs": [
        {
          "internalType": "address[]",
          "name": "_routers",
          "type": "address[]"
        },
        {
          "internalType": "address[]",
          "name": "_approvedTargetTokens",
          "type": "address[]"
        },
        {
          "internalType": "address",
          "name": "_roles",
          "type": "address"
        }
      ],
      "stateMutability": "nonpayable",
      "type": "constructor"
    },
    {
      "inputs": [
        {
          "internalType": "uint256",
          "name": "",
          "type": "uint256"
        }
      ],
      "name": "_charactersPlayed",
      "outputs": [
        {
          "internalType": "uint256",
          "name": "",
          "type": "uint256"
        }
      ],
      "stateMutability": "view",
      "type": "function"
    },
    {
      "inputs": [
        {
          "internalType": "uint256",
          "name": "",
          "type": "uint256"
        }
      ],
      "name": "_dependsOnCharacters",
      "outputs": [
        {
          "internalType": "uint256",
          "name": "",
          "type": "uint256"
        }
      ],
      "stateMutability": "view",
      "type": "function"
    },
    {
      "inputs": [
        {
          "internalType": "uint256",
          "name": "",
          "type": "uint256"
        }
      ],
      "name": "_dependsOnRoles",
      "outputs": [
        {
          "internalType": "uint256",
          "name": "",
          "type": "uint256"
        }
      ],
      "stateMutability": "view",
      "type": "function"
    },
    {
      "inputs": [
        {
          "internalType": "address",
          "name": "",
          "type": "address"
        },
        {
          "internalType": "address",
          "name": "",
          "type": "address"
        }
      ],
      "name": "_oracleCache",
      "outputs": [
        {
          "internalType": "address",
          "name": "",
          "type": "address"
        }
      ],
      "stateMutability": "view",
      "type": "function"
    },
    {
      "inputs": [
        {
          "internalType": "uint256",
          "name": "",
          "type": "uint256"
        }
      ],
      "name": "_rolesPlayed",
      "outputs": [
        {
          "internalType": "uint256",
          "name": "",
          "type": "uint256"
        }
      ],
      "stateMutability": "view",
      "type": "function"
    },
    {
      "inputs": [
        {
          "internalType": "address",
          "name": "router",
          "type": "address"
        }
      ],
      "name": "addRouter",
      "outputs": [],
      "stateMutability": "nonpayable",
      "type": "function"
    },
    {
      "inputs": [
        {
          "internalType": "address",
          "name": "token",
          "type": "address"
        }
      ],
      "name": "approveTargetToken",
      "outputs": [],
      "stateMutability": "nonpayable",
      "type": "function"
    },
    {
      "inputs": [],
      "name": "charactersPlayed",
      "outputs": [
        {
          "internalType": "uint256[]",
          "name": "",
          "type": "uint256[]"
        }
      ],
      "stateMutability": "view",
      "type": "function"
    },
    {
      "inputs": [],
      "name": "dependsOnCharacters",
      "outputs": [
        {
          "internalType": "uint256[]",
          "name": "",
          "type": "uint256[]"
        }
      ],
      "stateMutability": "view",
      "type": "function"
    },
    {
      "inputs": [],
      "name": "dependsOnRoles",
      "outputs": [
        {
          "internalType": "uint256[]",
          "name": "",
          "type": "uint256[]"
        }
      ],
      "stateMutability": "view",
      "type": "function"
    },
    {
      "inputs": [
        {
          "internalType": "address payable",
          "name": "strategyAddress",
          "type": "address"
        },
        {
          "internalType": "address",
          "name": "yieldBearingToken",
          "type": "address"
        },
        {
          "internalType": "address",
          "name": "router",
          "type": "address"
        },
        {
          "internalType": "address[]",
          "name": "path",
          "type": "address[]"
        }
      ],
      "name": "harvest",
      "outputs": [],
      "stateMutability": "nonpayable",
      "type": "function"
    },
    {
      "inputs": [
        {
          "internalType": "uint256",
          "name": "",
          "type": "uint256"
        }
      ],
      "name": "mainCharacterCache",
      "outputs": [
        {
          "internalType": "address",
          "name": "",
          "type": "address"
        }
      ],
      "stateMutability": "view",
      "type": "function"
    },
    {
      "inputs": [
        {
          "internalType": "address",
          "name": "token",
          "type": "address"
        },
        {
          "internalType": "address",
          "name": "pegCurrency",
          "type": "address"
        }
      ],
      "name": "newCurrentOracle",
      "outputs": [],
      "stateMutability": "nonpayable",
      "type": "function"
    },
    {
      "inputs": [
        {
          "internalType": "address",
          "name": "router",
          "type": "address"
        }
      ],
      "name": "removeRouter",
      "outputs": [],
      "stateMutability": "nonpayable",
      "type": "function"
    },
    {
      "inputs": [
        {
          "internalType": "address",
          "name": "token",
          "type": "address"
        }
      ],
      "name": "removeTargetToken",
      "outputs": [],
      "stateMutability": "nonpayable",
      "type": "function"
    },
    {
      "inputs": [
        {
          "internalType": "address",
          "name": "token",
          "type": "address"
        },
        {
          "internalType": "uint256",
          "name": "amount",
          "type": "uint256"
        },
        {
          "internalType": "address",
          "name": "recipient",
          "type": "address"
        }
      ],
      "name": "rescueStrandedTokens",
      "outputs": [],
      "stateMutability": "nonpayable",
      "type": "function"
    },
    {
      "inputs": [
        {
          "internalType": "address",
          "name": "",
          "type": "address"
        },
        {
          "internalType": "uint256",
          "name": "",
          "type": "uint256"
        }
      ],
      "name": "roleCache",
      "outputs": [
        {
          "internalType": "bool",
          "name": "",
          "type": "bool"
        }
      ],
      "stateMutability": "view",
      "type": "function"
    },
    {
      "inputs": [],
      "name": "roles",
      "outputs": [
        {
          "internalType": "contract Roles",
          "name": "",
          "type": "address"
        }
      ],
      "stateMutability": "view",
      "type": "function"
    },
    {
      "inputs": [],
      "name": "rolesPlayed",
      "outputs": [
        {
          "internalType": "uint256[]",
          "name": "",
          "type": "uint256[]"
        }
      ],
      "stateMutability": "view",
      "type": "function"
    },
    {
      "inputs": [
        {
          "internalType": "uint256",
          "name": "role",
          "type": "uint256"
        }
      ],
      "name": "updateMainCharacterCache",
      "outputs": [],
      "stateMutability": "nonpayable",
      "type": "function"
    },
    {
      "inputs": [
        {
          "internalType": "uint256",
          "name": "role",
          "type": "uint256"
        },
        {
          "internalType": "address",
          "name": "contr",
          "type": "address"
        }
      ],
      "name": "updateRoleCache",
      "outputs": [],
      "stateMutability": "nonpayable",
      "type": "function"
    },
    {
      "inputs": [],
      "name": "viewApprovedTargetTokens",
      "outputs": [
        {
          "internalType": "address[]",
          "name": "",
          "type": "address[]"
        }
      ],
      "stateMutability": "view",
      "type": "function"
    },
    {
      "inputs": [],
      "name": "viewRouters",
      "outputs": [
        {
          "internalType": "address[]",
          "name": "",
          "type": "address[]"
        }
      ],
      "stateMutability": "view",
      "type": "function"
    }
  ],
  "transactionHash": "0x1d5075921dd7882e49892add6e2e949be46307ec708dea330518a630464f2fad",
  "args": [
    [
      "0xE54Ca86531e17Ef3616d22Ca28b0D458b6C89106",
      "0x60aE616a2155Ee3d9A68541Ba4544862310933d4"
    ],
    [
      "0xA7D7079b0FEaD91F3e65f86E8915Cb59c1a4C664"
    ],
    "0x8f1ca3288764F0BC18eefeCA6D821D8bC93c99bf"
  ],
  "solcInputHash": "163ba458e1cc09a1aa9a8b1a4fbc03b2",
  "bytecode": "0x60a06040523480156200001157600080fd5b506040516200256e3803806200256e83398101604081905262000034916200037a565b6002805460018101825560009190915260686000805160206200254e83398151915290910155806001600160a01b038116620000c15760405162461bcd60e51b815260206004820152602260248201527f506c656173652070726f766964652076616c696420726f6c6573206164647265604482015261737360f01b606482015260840160405180910390fd5b60601b6001600160601b0319166080526002805460018082018355606a6000805160206200254e833981519152928301556005805480830190915560046000805160206200252e833981519152909101558254808201845560008481526066918401919091558354808301909455606793909201929092556007919091555b8084511115620001a3576200018d8482815181106200016f57634e487b7160e01b600052603260045260246000fd5b602002602001015160086200023b60201b620012a41790919060201c565b50806200019a81620003f3565b91505062000140565b5060005b80835111156200020a57620001f4838281518110620001d657634e487b7160e01b600052603260045260246000fd5b6020026020010151600a6200023b60201b620012a41790919060201c565b50806200020181620003f3565b915050620001a7565b50506005805460018101825560009190915260026000805160206200252e8339815191529091015550620004319050565b600062000252836001600160a01b0384166200025b565b90505b92915050565b6000818152600183016020526040812054620002a45750815460018181018455600084815260208082209093018490558454848252828601909352604090209190915562000255565b50600062000255565b80516001600160a01b0381168114620002c557600080fd5b919050565b600082601f830112620002db578081fd5b815160206001600160401b0380831115620002fa57620002fa6200041b565b8260051b604051601f19603f830116810181811084821117156200032257620003226200041b565b6040528481528381019250868401828801850189101562000341578687fd5b8692505b858310156200036e576200035981620002ad565b84529284019260019290920191840162000345565b50979650505050505050565b6000806000606084860312156200038f578283fd5b83516001600160401b0380821115620003a6578485fd5b620003b487838801620002ca565b94506020860151915080821115620003ca578384fd5b50620003d986828701620002ca565b925050620003ea60408501620002ad565b90509250925092565b60006000198214156200041457634e487b7160e01b81526011600452602481fd5b5060010190565b634e487b7160e01b600052604160045260246000fd5b60805160601c6120bb620004736000396000818161021d01528181610c1f01528181610ec1015281816113ed01528181611480015261150701526120bb6000f3fe608060405234801561001057600080fd5b506004361061014c5760003560e01c80636ae0b154116100c3578063aeb38d8b1161007c578063aeb38d8b1461030f578063bf184ea414610322578063c082fe5614610335578063dc94cb7d14610348578063e8ea4fae14610350578063e9c3f77d146103585761014c565b80636ae0b1541461027a5780636caa9c111461028d5780637a1a04df146102ae5780637dad209b146102ec578063a9ec9fdc146102f4578063abcbc4fc146102fc5761014c565b806328f3fc731161011557806328f3fc73146101f05780632cb535a314610203578063392f5f6414610218578063447d52ba1461023f57806349d4f22e146102525780634a7a7f41146102655761014c565b80629b6a3914610151578063071060a61461016657806324ca984e1461017957806324f0d7841461018c5780632642b6061461019f575b600080fd5b61016461015f366004611b01565b610381565b005b610164610174366004611d2b565b610c09565b610164610187366004611ac9565b610ccf565b61016461019a366004611ac9565b610d27565b6101d36101ad366004611ba7565b60066020908152600092835260408084209091529082529020546001600160a01b031681565b6040516001600160a01b0390911681526020015b60405180910390f35b6101646101fe366004611ba7565b610d95565b61020b610e8a565b6040516101e79190611de3565b6101d37f000000000000000000000000000000000000000000000000000000000000000081565b61016461024d366004611d5b565b610e9b565b610164610260366004611c0a565b610f73565b61026d61102b565b6040516101e79190611e30565b610164610288366004611ac9565b611083565b6102a061029b366004611d2b565b6110f1565b6040519081526020016101e7565b6102dc6102bc366004611bdf565b600160209081526000928352604080842090915290825290205460ff1681565b60405190151581526020016101e7565b61026d611112565b61020b611168565b6102a061030a366004611d2b565b611174565b6102a061031d366004611d2b565b611184565b6102a0610330366004611d2b565b611194565b610164610343366004611ac9565b6111a4565b61026d6111f8565b61026d61124e565b6101d3610366366004611d2b565b6000602081905290815260409020546001600160a01b031681565b600260075414156103d95760405162461bcd60e51b815260206004820152601f60248201527f5265656e7472616e637947756172643a207265656e7472616e742063616c6c0060448201526064015b60405180910390fd5b6002600755606860009081526020527faa071f48f62aaaa1f6320aaa7bd2ad2d552d05160892c14d699d38c9920d5f99546001600160a01b031660405163b4d6975760e01b81526001600160a01b038781166004830152919091169063b4d697579060240160206040518083038186803b15801561045657600080fd5b505afa15801561046a573d6000803e3d6000fd5b505050506040513d601f19601f8201168201806040525081019061048e9190611d0b565b6104da5760405162461bcd60e51b815260206004820152601860248201527f4e6f7420616e20617070726f766564207374726174656779000000000000000060448201526064016103d0565b6104e56008846112c2565b61052a5760405162461bcd60e51b81526020600482015260166024820152752737ba1030b71030b8383937bb32b2103937baba32b960511b60448201526064016103d0565b6040516389f117b360e01b81526001600160a01b0385811660048301528691908216906389f117b390602401600060405180830381600087803b15801561057057600080fd5b505af1158015610584573d6000803e3d6000fd5b505050506000816001600160a01b0316631ef380eb6040518163ffffffff1660e01b815260040160206040518083038186803b1580156105c357600080fd5b505afa1580156105d7573d6000803e3d6000fd5b505050506040513d601f19601f820116820180604052508101906105fb9190611d43565b905060006106076112e4565b90506000610686846001600160a01b031663f7c618c16040518163ffffffff1660e01b815260040160206040518083038186803b15801561064757600080fd5b505afa15801561065b573d6000803e3d6000fd5b505050506040513d601f19601f8201168201806040525081019061067f9190611ae5565b848461131c565b90506000612710856001600160a01b031663d7fb7b316040518163ffffffff1660e01b815260040160206040518083038186803b1580156106c657600080fd5b505afa1580156106da573d6000803e3d6000fd5b505050506040513d601f19601f820116820180604052508101906106fe9190611d43565b6107089084611fdb565b6107129190611fbb565b905060008787610723600182611ffa565b81811061074057634e487b7160e01b600052603260045260246000fd5b90506020020160208101906107559190611ac9565b9050836001600160a01b0316816001600160a01b0316148061077d575061077d600a826112c2565b6107c95760405162461bcd60e51b815260206004820152601c60248201527f4e6f7420616e20617070726f7665642074617267657420746f6b656e0000000060448201526064016103d0565b816001600160a01b03828116908616146108155760006107f283670de0b6b3a76400008861131c565b90508061080785670de0b6b3a7640000611fdb565b6108119190611fbb565b9150505b60405163d06ca61f60e01b81526000906001600160a01b038c169063d06ca61f90610848908a908e908e90600401611f42565b60006040518083038186803b15801561086057600080fd5b505afa158015610874573d6000803e3d6000fd5b505050506040513d6000823e601f3d908101601f1916820160405261089c9190810190611c4b565b90508181600183516108ae9190611ffa565b815181106108cc57634e487b7160e01b600052603260045260246000fd5b602002602001015110156109225760405162461bcd60e51b815260206004820152601d60248201527f496e73756666696369656e74206f75747075742066726f6d207377617000000060448201526064016103d0565b61092a6112e4565b6040516340c10f1960e01b8152306004820152602481018690526001600160a01b0391909116906340c10f1990604401600060405180830381600087803b15801561097457600080fd5b505af1158015610988573d6000803e3d6000fd5b5050604051631f6fc2df60e21b8152600481018a9052602481018790526001600160a01b038b169250637dbf0b7c9150604401600060405180830381600087803b1580156109d557600080fd5b505af11580156109e9573d6000803e3d6000fd5b5050604051638a31b98f60e01b81526001600160a01b038f811660048301528b169250638a31b98f9150602401602060405180830381600087803b158015610a3057600080fd5b505af1158015610a44573d6000803e3d6000fd5b505050506040513d601f19601f82011682018060405250810190610a689190611d43565b5089896000818110610a8a57634e487b7160e01b600052603260045260246000fd5b9050602002016020810190610a9f9190611ac9565b60405163095ea7b360e01b81526001600160a01b038d81166004830152602482018a9052919091169063095ea7b390604401602060405180830381600087803b158015610aeb57600080fd5b505af1158015610aff573d6000803e3d6000fd5b505050506040513d601f19601f82011682018060405250810190610b239190611d0b565b508a6001600160a01b03166338ed173988848d8d610b72606760009081526020527f682158d08466d11c566d5712d4396197fdd67e65be71d83c97ef719ec468867b546001600160a01b031690565b610b7d426001611fa3565b6040518763ffffffff1660e01b8152600401610b9e96959493929190611f65565b600060405180830381600087803b158015610bb857600080fd5b505af1158015610bcc573d6000803e3d6000fd5b505050506040513d6000823e601f3d908101601f19168201604052610bf49190810190611c4b565b50506001600755505050505050505050505050565b60405163b4ed0b6d60e01b8152600481018290527f00000000000000000000000000000000000000000000000000000000000000006001600160a01b03169063b4ed0b6d9060240160206040518083038186803b158015610c6957600080fd5b505afa158015610c7d573d6000803e3d6000fd5b505050506040513d601f19601f82011682018060405250810190610ca19190611ae5565b60009182526020829052604090912080546001600160a01b0319166001600160a01b03909216919091179055565b33610cd86113e9565b6001600160a01b03161480610cfc575033610cf161147c565b6001600160a01b0316145b610d185760405162461bcd60e51b81526004016103d090611e9b565b610d236008826112a4565b5050565b33610d306113e9565b6001600160a01b03161480610d54575033610d4961147c565b6001600160a01b0316145b80610d6e575033610d636114ed565b6001600160a01b0316145b610d8a5760405162461bcd60e51b81526004016103d090611ee5565b610d23600a82611551565b6001600160a01b03828116600090815260066020908152604080832085851684529091529020541615610d2357610dca611566565b60405163179ce80d60e21b81526001600160a01b03848116600483015283811660248301529190911690635e73a0349060440160206040518083038186803b158015610e1557600080fd5b505afa158015610e29573d6000803e3d6000fd5b505050506040513d601f19601f82011682018060405250810190610e4d9190611ae5565b6001600160a01b03928316600090815260066020908152604080832094861683529390529190912080546001600160a01b03191691909216179055565b6060610e96600a61159e565b905090565b60405163f0723d9760e01b81526001600160a01b038281166004830152602482018490527f0000000000000000000000000000000000000000000000000000000000000000169063f0723d979060440160206040518083038186803b158015610f0357600080fd5b505afa158015610f17573d6000803e3d6000fd5b505050506040513d601f19601f82011682018060405250810190610f3b9190611d0b565b6001600160a01b0391909116600090815260016020908152604080832094835293905291909120805460ff1916911515919091179055565b33610f7c6113e9565b6001600160a01b03161480610fa0575033610f9561147c565b6001600160a01b0316145b610fbc5760405162461bcd60e51b81526004016103d090611e9b565b6001600160a01b0381166110125760405162461bcd60e51b815260206004820152601a60248201527f446f6e27742073656e6420746f207a65726f206164647265737300000000000060448201526064016103d0565b6110266001600160a01b03841682846115ab565b505050565b6060600380548060200260200160405190810160405280929190818152602001828054801561107957602002820191906000526020600020905b815481526020019060010190808311611065575b5050505050905090565b3361108c6113e9565b6001600160a01b031614806110b05750336110a561147c565b6001600160a01b0316145b806110ca5750336110bf6114ed565b6001600160a01b0316145b6110e65760405162461bcd60e51b81526004016103d090611ee5565b610d23600882611551565b6005818154811061110157600080fd5b600091825260209091200154905081565b606060048054806020026020016040519081016040528092919081815260200182805480156110795760200282019190600052602060002090815481526020019060010190808311611065575050505050905090565b6060610e96600861159e565b6002818154811061110157600080fd5b6004818154811061110157600080fd5b6003818154811061110157600080fd5b336111ad6113e9565b6001600160a01b031614806111d15750336111c661147c565b6001600160a01b0316145b6111ed5760405162461bcd60e51b81526004016103d090611e9b565b610d23600a826112a4565b606060028054806020026020016040519081016040528092919081815260200182805480156110795760200282019190600052602060002090815481526020019060010190808311611065575050505050905090565b606060058054806020026020016040519081016040528092919081815260200182805480156110795760200282019190600052602060002090815481526020019060010190808311611065575050505050905090565b60006112b9836001600160a01b0384166115fd565b90505b92915050565b6001600160a01b038116600090815260018301602052604081205415156112b9565b606660009081526020527f422cccb7cea5c0e46f340bb7b21b81debac329f72e31669c20ff0f3a05cc2b5b546001600160a01b031690565b6001600160a01b0380841660009081526006602090815260408083208585168452909152812054909116611350858461164c565b604051630576cbc360e41b81526001600160a01b0387811660048301526024820187905285811660448301529192509082169063576cbc3090606401602060405180830381600087803b1580156113a657600080fd5b505af11580156113ba573d6000803e3d6000fd5b505050506040513d601f19601f820116820180604052508101906113de9190611d43565b9150505b9392505050565b60007f00000000000000000000000000000000000000000000000000000000000000006001600160a01b0316638da5cb5b6040518163ffffffff1660e01b815260040160206040518083038186803b15801561144457600080fd5b505afa158015611458573d6000803e3d6000fd5b505050506040513d601f19601f82011682018060405250810190610e969190611ae5565b60007f00000000000000000000000000000000000000000000000000000000000000006001600160a01b031663c34c08e56040518163ffffffff1660e01b8152600401602060405180830381600087803b1580156114d957600080fd5b505af1158015611458573d6000803e3d6000fd5b60405163b4ed0b6d60e01b81526103e960048201526000907f00000000000000000000000000000000000000000000000000000000000000006001600160a01b03169063b4ed0b6d9060240160206040518083038186803b15801561144457600080fd5b60006112b9836001600160a01b038416611706565b606a60009081526020527ff3261457f4fd0b7c00a1511877ab27b74183ac470be8db3a7ecdc64335f6f979546001600160a01b031690565b606060006113e283611823565b604080516001600160a01b038416602482015260448082018490528251808303909101815260649091019091526020810180516001600160e01b031663a9059cbb60e01b17905261102690849061187f565b6000818152600183016020526040812054611644575081546001818101845560008481526020808220909301849055845484825282860190935260409020919091556112bc565b5060006112bc565b6001600160a01b038083166000908152600660209081526040808320858516845290915290205416806112bc57611681611566565b6040516302eaec2d60e31b81526001600160a01b03858116600483015284811660248301529190911690631757616890604401602060405180830381600087803b1580156116ce57600080fd5b505af11580156116e2573d6000803e3d6000fd5b505050506040513d601f19601f820116820180604052508101906112b99190611ae5565b6000818152600183016020526040812054801561181957600061172a600183611ffa565b855490915060009061173e90600190611ffa565b90508181146117bf57600086600001828154811061176c57634e487b7160e01b600052603260045260246000fd5b906000526020600020015490508087600001848154811061179d57634e487b7160e01b600052603260045260246000fd5b6000918252602080832090910192909255918252600188019052604090208390555b85548690806117de57634e487b7160e01b600052603160045260246000fd5b6001900381819060005260206000200160009055905585600101600086815260200190815260200160002060009055600193505050506112bc565b60009150506112bc565b60608160000180548060200260200160405190810160405280929190818152602001828054801561187357602002820191906000526020600020905b81548152602001906001019080831161185f575b50505050509050919050565b60006118d4826040518060400160405280602081526020017f5361666545524332303a206c6f772d6c6576656c2063616c6c206661696c6564815250856001600160a01b03166119519092919063ffffffff16565b80519091501561102657808060200190518101906118f29190611d0b565b6110265760405162461bcd60e51b815260206004820152602a60248201527f5361666545524332303a204552433230206f7065726174696f6e20646964206e6044820152691bdd081cdd58d8d9595960b21b60648201526084016103d0565b60606119608484600085611968565b949350505050565b6060824710156119c95760405162461bcd60e51b815260206004820152602660248201527f416464726573733a20696e73756666696369656e742062616c616e636520666f6044820152651c8818d85b1b60d21b60648201526084016103d0565b843b611a175760405162461bcd60e51b815260206004820152601d60248201527f416464726573733a2063616c6c20746f206e6f6e2d636f6e747261637400000060448201526064016103d0565b600080866001600160a01b03168587604051611a339190611dc7565b60006040518083038185875af1925050503d8060008114611a70576040519150601f19603f3d011682016040523d82523d6000602084013e611a75565b606091505b5091509150611a85828286611a90565b979650505050505050565b60608315611a9f5750816113e2565b825115611aaf5782518084602001fd5b8160405162461bcd60e51b81526004016103d09190611e68565b600060208284031215611ada578081fd5b81356113e28161206d565b600060208284031215611af6578081fd5b81516113e28161206d565b600080600080600060808688031215611b18578081fd5b8535611b238161206d565b94506020860135611b338161206d565b93506040860135611b438161206d565b9250606086013567ffffffffffffffff80821115611b5f578283fd5b818801915088601f830112611b72578283fd5b813581811115611b80578384fd5b8960208260051b8501011115611b94578384fd5b9699959850939650602001949392505050565b60008060408385031215611bb9578182fd5b8235611bc48161206d565b91506020830135611bd48161206d565b809150509250929050565b60008060408385031215611bf1578182fd5b8235611bfc8161206d565b946020939093013593505050565b600080600060608486031215611c1e578283fd5b8335611c298161206d565b9250602084013591506040840135611c408161206d565b809150509250925092565b60006020808385031215611c5d578182fd5b825167ffffffffffffffff80821115611c74578384fd5b818501915085601f830112611c87578384fd5b815181811115611c9957611c99612057565b8060051b604051601f19603f83011681018181108582111715611cbe57611cbe612057565b604052828152858101935084860182860187018a1015611cdc578788fd5b8795505b83861015611cfe578051855260019590950194938601938601611ce0565b5098975050505050505050565b600060208284031215611d1c578081fd5b815180151581146113e2578182fd5b600060208284031215611d3c578081fd5b5035919050565b600060208284031215611d54578081fd5b5051919050565b60008060408385031215611d6d578182fd5b823591506020830135611bd48161206d565b60008284526020808501945082825b85811015611dbc578135611da18161206d565b6001600160a01b031687529582019590820190600101611d8e565b509495945050505050565b60008251611dd9818460208701612011565b9190910192915050565b6020808252825182820181905260009190848201906040850190845b81811015611e245783516001600160a01b031683529284019291840191600101611dff565b50909695505050505050565b6020808252825182820181905260009190848201906040850190845b81811015611e2457835183529284019291840191600101611e4c565b6000602082528251806020840152611e87816040850160208701612011565b601f01601f19169190910160400192915050565b6020808252602a908201527f526f6c65733a2063616c6c6572206973206e6f7420746865206f776e6572206f604082015269391032bc32b1baba37b960b11b606082015260800190565b60208082526038908201527f43616c6c6572206973206e6f7420746865206f776e65722c206578656375746f60408201527f72206f7220617574686f72697a65642064697361626c65720000000000000000606082015260800190565b600084825260406020830152611f5c604083018486611d7f565b95945050505050565b600087825286602083015260a06040830152611f8560a083018688611d7f565b6001600160a01b039490941660608301525060800152949350505050565b60008219821115611fb657611fb6612041565b500190565b600082611fd657634e487b7160e01b81526012600452602481fd5b500490565b6000816000190483118215151615611ff557611ff5612041565b500290565b60008282101561200c5761200c612041565b500390565b60005b8381101561202c578181015183820152602001612014565b8381111561203b576000848401525b50505050565b634e487b7160e01b600052601160045260246000fd5b634e487b7160e01b600052604160045260246000fd5b6001600160a01b038116811461208257600080fd5b5056fea2646970667358221220272552cd914e4164c0a39f323dd0ce9fccd6f0b569d981020137dec192bed5c764736f6c63430008030033036b6384b5eca791c62761152d0c79bb0604c104a5fb6f4eb0703f3154bb3db0405787fa12a823e0f2b7631cc41b3ba8828b3321ca811111fa75cd3aa3bb5ace",
  "devdoc": {
    "kind": "dev",
    "methods": {
      "charactersPlayed()": {
        "details": "returns all characters played by this contract (e.g. stable coin, oracle registry)"
      },
      "dependsOnCharacters()": {
        "details": "returns all the character dependencies like FEE_RECIPIENT"
      },
      "dependsOnRoles()": {
        "details": "returns all the roles dependencies of this contract like FUND_TRANSFERER"
      },
      "rolesPlayed()": {
        "details": "returns all roles played by this contract"
      },
      "updateMainCharacterCache(uint256)": {
        "details": "Updates the main character cache for a speciic character"
      },
      "updateRoleCache(uint256,address)": {
        "details": "Updates the role cache for a specific role and address"
      }
    },
    "version": 1
  },
  "userdoc": {
    "kind": "user",
    "methods": {
      "harvest(address,address,address,address[])": {
        "notice": "Perform a complet harvest, from retrieving the reward token to swapping it on AMM for a stablecoin and then converting the yield with minted stable"
      },
      "newCurrentOracle(address,address)": {
        "notice": "Notify contract to update oracle cache"
      },
      "rescueStrandedTokens(address,uint256,address)": {
        "notice": "In an emergency, withdraw any tokens stranded in this contract's balance"
      }
    },
    "version": 1
  },
  "storageLayout": {
    "storage": [
      {
        "astId": 16622,
        "contract": "contracts/strategies/AMMYieldConverter.sol:AMMYieldConverter",
        "label": "mainCharacterCache",
        "offset": 0,
        "slot": "0",
        "type": "t_mapping(t_uint256,t_address)"
      },
      {
        "astId": 16628,
        "contract": "contracts/strategies/AMMYieldConverter.sol:AMMYieldConverter",
        "label": "roleCache",
        "offset": 0,
        "slot": "1",
        "type": "t_mapping(t_address,t_mapping(t_uint256,t_bool))"
      },
      {
        "astId": 16631,
        "contract": "contracts/strategies/AMMYieldConverter.sol:AMMYieldConverter",
        "label": "_dependsOnCharacters",
        "offset": 0,
        "slot": "2",
        "type": "t_array(t_uint256)dyn_storage"
      },
      {
        "astId": 16634,
        "contract": "contracts/strategies/AMMYieldConverter.sol:AMMYieldConverter",
        "label": "_dependsOnRoles",
        "offset": 0,
        "slot": "3",
        "type": "t_array(t_uint256)dyn_storage"
      },
      {
        "astId": 16637,
        "contract": "contracts/strategies/AMMYieldConverter.sol:AMMYieldConverter",
        "label": "_charactersPlayed",
        "offset": 0,
        "slot": "4",
        "type": "t_array(t_uint256)dyn_storage"
      },
      {
        "astId": 16640,
        "contract": "contracts/strategies/AMMYieldConverter.sol:AMMYieldConverter",
        "label": "_rolesPlayed",
        "offset": 0,
        "slot": "5",
        "type": "t_array(t_uint256)dyn_storage"
      },
      {
        "astId": 14592,
        "contract": "contracts/strategies/AMMYieldConverter.sol:AMMYieldConverter",
        "label": "_oracleCache",
        "offset": 0,
        "slot": "6",
        "type": "t_mapping(t_address,t_mapping(t_address,t_address))"
      },
      {
        "astId": 222,
        "contract": "contracts/strategies/AMMYieldConverter.sol:AMMYieldConverter",
        "label": "_status",
        "offset": 0,
        "slot": "7",
        "type": "t_uint256"
      },
      {
        "astId": 17535,
        "contract": "contracts/strategies/AMMYieldConverter.sol:AMMYieldConverter",
        "label": "routers",
        "offset": 0,
        "slot": "8",
        "type": "t_struct(AddressSet)4290_storage"
      },
      {
        "astId": 17538,
        "contract": "contracts/strategies/AMMYieldConverter.sol:AMMYieldConverter",
        "label": "approvedTargetTokens",
        "offset": 0,
        "slot": "10",
        "type": "t_struct(AddressSet)4290_storage"
      }
    ],
    "types": {
      "t_address": {
        "encoding": "inplace",
        "label": "address",
        "numberOfBytes": "20"
      },
      "t_array(t_bytes32)dyn_storage": {
        "base": "t_bytes32",
        "encoding": "dynamic_array",
        "label": "bytes32[]",
        "numberOfBytes": "32"
      },
      "t_array(t_uint256)dyn_storage": {
        "base": "t_uint256",
        "encoding": "dynamic_array",
        "label": "uint256[]",
        "numberOfBytes": "32"
      },
      "t_bool": {
        "encoding": "inplace",
        "label": "bool",
        "numberOfBytes": "1"
      },
      "t_bytes32": {
        "encoding": "inplace",
        "label": "bytes32",
        "numberOfBytes": "32"
      },
      "t_mapping(t_address,t_address)": {
        "encoding": "mapping",
        "key": "t_address",
        "label": "mapping(address => address)",
        "numberOfBytes": "32",
        "value": "t_address"
      },
      "t_mapping(t_address,t_mapping(t_address,t_address))": {
        "encoding": "mapping",
        "key": "t_address",
        "label": "mapping(address => mapping(address => address))",
        "numberOfBytes": "32",
        "value": "t_mapping(t_address,t_address)"
      },
      "t_mapping(t_address,t_mapping(t_uint256,t_bool))": {
        "encoding": "mapping",
        "key": "t_address",
        "label": "mapping(address => mapping(uint256 => bool))",
        "numberOfBytes": "32",
        "value": "t_mapping(t_uint256,t_bool)"
      },
      "t_mapping(t_bytes32,t_uint256)": {
        "encoding": "mapping",
        "key": "t_bytes32",
        "label": "mapping(bytes32 => uint256)",
        "numberOfBytes": "32",
        "value": "t_uint256"
      },
      "t_mapping(t_uint256,t_address)": {
        "encoding": "mapping",
        "key": "t_uint256",
        "label": "mapping(uint256 => address)",
        "numberOfBytes": "32",
        "value": "t_address"
      },
      "t_mapping(t_uint256,t_bool)": {
        "encoding": "mapping",
        "key": "t_uint256",
        "label": "mapping(uint256 => bool)",
        "numberOfBytes": "32",
        "value": "t_bool"
      },
      "t_struct(AddressSet)4290_storage": {
        "encoding": "inplace",
        "label": "struct EnumerableSet.AddressSet",
        "members": [
          {
            "astId": 4289,
            "contract": "contracts/strategies/AMMYieldConverter.sol:AMMYieldConverter",
            "label": "_inner",
            "offset": 0,
            "slot": "0",
            "type": "t_struct(Set)3989_storage"
          }
        ],
        "numberOfBytes": "64"
      },
      "t_struct(Set)3989_storage": {
        "encoding": "inplace",
        "label": "struct EnumerableSet.Set",
        "members": [
          {
            "astId": 3984,
            "contract": "contracts/strategies/AMMYieldConverter.sol:AMMYieldConverter",
            "label": "_values",
            "offset": 0,
            "slot": "0",
            "type": "t_array(t_bytes32)dyn_storage"
          },
          {
            "astId": 3988,
            "contract": "contracts/strategies/AMMYieldConverter.sol:AMMYieldConverter",
            "label": "_indexes",
            "offset": 0,
            "slot": "1",
            "type": "t_mapping(t_bytes32,t_uint256)"
          }
        ],
        "numberOfBytes": "64"
      },
      "t_uint256": {
        "encoding": "inplace",
        "label": "uint256",
        "numberOfBytes": "32"
      }
    }
  }
}