{
  "address": "0x3Dc65b58ad56309349f9494eD8d920870aaa8c5B",
  "abi": [
    {
      "inputs": [
        {
          "internalType": "address",
          "name": "_twapStandin",
          "type": "address"
        },
        {
          "internalType": "uint256",
          "name": "standinDecimals",
          "type": "uint256"
        },
        {
          "internalType": "address",
          "name": "_roles",
          "type": "address"
        }
      ],
      "stateMutability": "nonpayable",
      "type": "constructor"
    },
    {
      "anonymous": false,
      "inputs": [
        {
          "indexed": false,
          "internalType": "string",
          "name": "param",
          "type": "string"
        },
        {
          "indexed": false,
          "internalType": "uint256",
          "name": "value",
          "type": "uint256"
        }
      ],
      "name": "ParameterUpdated",
      "type": "event"
    },
    {
      "anonymous": false,
      "inputs": [
        {
          "indexed": false,
          "internalType": "string",
          "name": "param",
          "type": "string"
        },
        {
          "indexed": false,
          "internalType": "address",
          "name": "subject",
          "type": "address"
        },
        {
          "indexed": false,
          "internalType": "uint256",
          "name": "value",
          "type": "uint256"
        }
      ],
      "name": "SubjectParameterUpdated",
      "type": "event"
    },
    {
      "anonymous": false,
      "inputs": [
        {
          "indexed": false,
          "internalType": "string",
          "name": "param",
          "type": "string"
        },
        {
          "indexed": false,
          "internalType": "address",
          "name": "subject",
          "type": "address"
        }
      ],
      "name": "SubjectUpdated",
      "type": "event"
    },
    {
      "inputs": [
        {
          "internalType": "uint256",
          "name": "",
          "type": "uint256"
        }
      ],
      "name": "_charactersPlayed",
      "outputs": [
        {
          "internalType": "uint256",
          "name": "",
          "type": "uint256"
        }
      ],
      "stateMutability": "view",
      "type": "function"
    },
    {
      "inputs": [
        {
          "internalType": "uint256",
          "name": "",
          "type": "uint256"
        }
      ],
      "name": "_dependsOnCharacters",
      "outputs": [
        {
          "internalType": "uint256",
          "name": "",
          "type": "uint256"
        }
      ],
      "stateMutability": "view",
      "type": "function"
    },
    {
      "inputs": [
        {
          "internalType": "uint256",
          "name": "",
          "type": "uint256"
        }
      ],
      "name": "_dependsOnRoles",
      "outputs": [
        {
          "internalType": "uint256",
          "name": "",
          "type": "uint256"
        }
      ],
      "stateMutability": "view",
      "type": "function"
    },
    {
      "inputs": [
        {
          "internalType": "address",
          "name": "",
          "type": "address"
        },
        {
          "internalType": "address",
          "name": "",
          "type": "address"
        }
      ],
      "name": "_oracleCache",
      "outputs": [
        {
          "internalType": "address",
          "name": "",
          "type": "address"
        }
      ],
      "stateMutability": "view",
      "type": "function"
    },
    {
      "inputs": [
        {
          "internalType": "uint256",
          "name": "",
          "type": "uint256"
        }
      ],
      "name": "_rolesPlayed",
      "outputs": [
        {
          "internalType": "uint256",
          "name": "",
          "type": "uint256"
        }
      ],
      "stateMutability": "view",
      "type": "function"
    },
    {
      "inputs": [],
      "name": "charactersPlayed",
      "outputs": [
        {
          "internalType": "uint256[]",
          "name": "",
          "type": "uint256[]"
        }
      ],
      "stateMutability": "view",
      "type": "function"
    },
    {
      "inputs": [
        {
          "internalType": "address",
          "name": "",
          "type": "address"
        }
      ],
      "name": "clOracleParams",
      "outputs": [
        {
          "internalType": "contract AggregatorV3Interface",
          "name": "oracle",
          "type": "address"
        },
        {
          "internalType": "uint256",
          "name": "oracleDecimalFactor",
          "type": "uint256"
        },
        {
          "internalType": "uint256",
          "name": "tokenDecimalFactor",
          "type": "uint256"
        }
      ],
      "stateMutability": "view",
      "type": "function"
    },
    {
      "inputs": [],
      "name": "dependsOnCharacters",
      "outputs": [
        {
          "internalType": "uint256[]",
          "name": "",
          "type": "uint256[]"
        }
      ],
      "stateMutability": "view",
      "type": "function"
    },
    {
      "inputs": [],
      "name": "dependsOnRoles",
      "outputs": [
        {
          "internalType": "uint256[]",
          "name": "",
          "type": "uint256[]"
        }
      ],
      "stateMutability": "view",
      "type": "function"
    },
    {
      "inputs": [
        {
          "internalType": "address",
          "name": "token",
          "type": "address"
        },
        {
          "internalType": "address",
          "name": "pegCurrency",
          "type": "address"
        },
        {
          "internalType": "address",
          "name": "oracle",
          "type": "address"
        },
        {
          "internalType": "uint256",
          "name": "tokenDecimals",
          "type": "uint256"
        }
      ],
      "name": "encodeAndCheckOracleParams",
      "outputs": [
        {
          "internalType": "bool",
          "name": "",
          "type": "bool"
        },
        {
          "internalType": "bytes",
          "name": "",
          "type": "bytes"
        }
      ],
      "stateMutability": "view",
      "type": "function"
    },
    {
      "inputs": [
        {
          "internalType": "address",
          "name": "token",
          "type": "address"
        },
        {
          "internalType": "uint256",
          "name": "inAmount",
          "type": "uint256"
        },
        {
          "internalType": "address",
          "name": "pegCurrency",
          "type": "address"
        }
      ],
      "name": "getAmountInPeg",
      "outputs": [
        {
          "internalType": "uint256",
          "name": "",
          "type": "uint256"
        }
      ],
      "stateMutability": "nonpayable",
      "type": "function"
    },
    {
      "inputs": [
        {
          "internalType": "contract AggregatorV3Interface",
          "name": "oracle",
          "type": "address"
        }
      ],
      "name": "getChainlinkPrice",
      "outputs": [
        {
          "internalType": "uint256",
          "name": "",
          "type": "uint256"
        },
        {
          "internalType": "uint256",
          "name": "",
          "type": "uint256"
        }
      ],
      "stateMutability": "view",
      "type": "function"
    },
    {
      "inputs": [
        {
          "internalType": "address",
          "name": "token",
          "type": "address"
        },
        {
          "internalType": "uint256",
          "name": "inAmount",
          "type": "uint256"
        },
        {
          "internalType": "address",
          "name": "pegCurrency",
          "type": "address"
        }
      ],
      "name": "getPegAmountAndBorrowable",
      "outputs": [
        {
          "internalType": "uint256",
          "name": "",
          "type": "uint256"
        },
        {
          "internalType": "uint256",
          "name": "",
          "type": "uint256"
        }
      ],
      "stateMutability": "nonpayable",
      "type": "function"
    },
    {
      "inputs": [
        {
          "internalType": "uint256",
          "name": "",
          "type": "uint256"
        }
      ],
      "name": "mainCharacterCache",
      "outputs": [
        {
          "internalType": "address",
          "name": "",
          "type": "address"
        }
      ],
      "stateMutability": "view",
      "type": "function"
    },
    {
      "inputs": [
        {
          "internalType": "address",
          "name": "token",
          "type": "address"
        },
        {
          "internalType": "address",
          "name": "pegCurrency",
          "type": "address"
        }
      ],
      "name": "newCurrentOracle",
      "outputs": [],
      "stateMutability": "nonpayable",
      "type": "function"
    },
    {
      "inputs": [
        {
          "internalType": "address",
          "name": "",
          "type": "address"
        },
        {
          "internalType": "uint256",
          "name": "",
          "type": "uint256"
        }
      ],
      "name": "roleCache",
      "outputs": [
        {
          "internalType": "bool",
          "name": "",
          "type": "bool"
        }
      ],
      "stateMutability": "view",
      "type": "function"
    },
    {
      "inputs": [],
      "name": "roles",
      "outputs": [
        {
          "internalType": "contract Roles",
          "name": "",
          "type": "address"
        }
      ],
      "stateMutability": "view",
      "type": "function"
    },
    {
      "inputs": [],
      "name": "rolesPlayed",
      "outputs": [
        {
          "internalType": "uint256[]",
          "name": "",
          "type": "uint256[]"
        }
      ],
      "stateMutability": "view",
      "type": "function"
    },
    {
      "inputs": [
        {
          "internalType": "address",
          "name": "token",
          "type": "address"
        },
        {
          "internalType": "address",
          "name": "pegCurrency",
          "type": "address"
        },
        {
          "internalType": "bytes",
          "name": "data",
          "type": "bytes"
        }
      ],
      "name": "setOracleParams",
      "outputs": [],
      "stateMutability": "nonpayable",
      "type": "function"
    },
    {
      "inputs": [
        {
          "internalType": "address",
          "name": "token",
          "type": "address"
        },
        {
          "internalType": "address",
          "name": "pegCurrency",
          "type": "address"
        },
        {
          "internalType": "address",
          "name": "oracle",
          "type": "address"
        },
        {
          "internalType": "uint256",
          "name": "tokenDecimals",
          "type": "uint256"
        }
      ],
      "name": "setOracleSpecificParams",
      "outputs": [],
      "stateMutability": "nonpayable",
      "type": "function"
    },
    {
      "inputs": [
        {
          "internalType": "uint256",
          "name": "staleness",
          "type": "uint256"
        }
      ],
      "name": "setStalenessWindow",
      "outputs": [],
      "stateMutability": "nonpayable",
      "type": "function"
    },
    {
      "inputs": [],
      "name": "stalenessWindow",
      "outputs": [
        {
          "internalType": "uint256",
          "name": "",
          "type": "uint256"
        }
      ],
      "stateMutability": "view",
      "type": "function"
    },
    {
      "inputs": [
        {
          "internalType": "uint256",
          "name": "role",
          "type": "uint256"
        }
      ],
      "name": "updateMainCharacterCache",
      "outputs": [],
      "stateMutability": "nonpayable",
      "type": "function"
    },
    {
      "inputs": [
        {
          "internalType": "uint256",
          "name": "role",
          "type": "uint256"
        },
        {
          "internalType": "address",
          "name": "contr",
          "type": "address"
        }
      ],
      "name": "updateRoleCache",
      "outputs": [],
      "stateMutability": "nonpayable",
      "type": "function"
    },
    {
      "inputs": [
        {
          "internalType": "address",
          "name": "token",
          "type": "address"
        },
        {
          "internalType": "uint256",
          "name": "inAmount",
          "type": "uint256"
        },
        {
          "internalType": "address",
          "name": "pegCurrency",
          "type": "address"
        }
      ],
      "name": "viewAmountInPeg",
      "outputs": [
        {
          "internalType": "uint256",
          "name": "",
          "type": "uint256"
        }
      ],
      "stateMutability": "view",
      "type": "function"
    },
    {
      "inputs": [
        {
          "internalType": "address",
          "name": "token",
          "type": "address"
        },
        {
          "internalType": "uint256",
          "name": "inAmount",
          "type": "uint256"
        },
        {
          "internalType": "address",
          "name": "pegCurrency",
          "type": "address"
        }
      ],
      "name": "viewPegAmountAndBorrowable",
      "outputs": [
        {
          "internalType": "uint256",
          "name": "",
          "type": "uint256"
        },
        {
          "internalType": "uint256",
          "name": "",
          "type": "uint256"
        }
      ],
      "stateMutability": "view",
      "type": "function"
    }
  ],
  "transactionHash": "0x701dfaedd60e7f218d2f26d8f251744b1cf1722d5168783690111f1f55e5a004",
  "args": [
    "0xA7D7079b0FEaD91F3e65f86E8915Cb59c1a4C664",
    6,
    "0x9e1EE00d45252aA58623F7d771FB414aA38f0878"
  ],
  "solcInputHash": "c08fcdf1bf8a33e9484a221e6792b02a",
  "bytecode": "0x6101006040526107086008553480156200001857600080fd5b5060405162001f0738038062001f078339810160408190526200003b9162000189565b806001600160a01b038116620000a25760405162461bcd60e51b815260206004820152602260248201527f506c656173652070726f766964652076616c696420726f6c6573206164647265604482015261737360f01b606482015260840160405180910390fd5b6001600160601b0319606091821b81166080526002805460018181018355606a7f405787fa12a823e0f2b7631cc41b3ba8828b3321ca811111fa75cd3aa3bb5ace928301556005805480830190915560047f036b6384b5eca791c62761152d0c79bb0604c104a5fb6f4eb0703f3154bb3db090910155825490810183556000929092526066910155670de0b6b3a764000060a0529084901b1660c0526200014b82600a62000237565b6200015f90670de0b6b3a7640000620001c9565b60e0525062000342915050565b80516001600160a01b03811681146200018457600080fd5b919050565b6000806000606084860312156200019e578283fd5b620001a9846200016c565b925060208401519150620001c0604085016200016c565b90509250925092565b600082620001e557634e487b7160e01b81526012600452602481fd5b500490565b80825b6001808611620001fe57506200022e565b8187048211156200021357620002136200032c565b808616156200022157918102915b9490941c938002620001ed565b94509492505050565b60006200024860001984846200024f565b9392505050565b600082620002605750600162000248565b816200026f5750600062000248565b81600181146200028857600281146200029357620002c7565b600191505062000248565b60ff841115620002a757620002a76200032c565b6001841b915084821115620002c057620002c06200032c565b5062000248565b5060208310610133831016604e8410600b8410161715620002ff575081810a83811115620002f957620002f96200032c565b62000248565b6200030e8484846001620001ea565b8086048211156200032357620003236200032c565b02949350505050565b634e487b7160e01b600052601160045260246000fd5b60805160601c60a05160c05160601c60e051611b4d620003ba6000396000818161095b0152610b2801526000818161093101528181610afe01526113980152600081816109a50152610b670152600081816101cd01528181610428015281816106de0152818161115e01526111f60152611b4d6000f3fe608060405234801561001057600080fd5b506004361061013e5760003560e01c8063071060a6146101435780632642b6061461015857806328f3fc73146101a257806332f42fe6146101b5578063392f5f64146101c8578063447d52ba146101ef57806348162c07146102025780634a7a7f41146102605780634fcd54a414610275578063576cbc301461029d5780636caa9c11146102be57806370b69acb146102d15780637a1a04df146102da5780637dad209b14610318578063885fa056146103205780638eaab58c14610333578063abcbc4fc14610346578063aeb38d8b14610359578063afb0aaf71461036c578063bd58fe561461037f578063bf184ea414610392578063ce4b3736146103a5578063dc94cb7d146103c6578063e8ea4fae146103ce578063e9c3f77d146103d6578063ffdf5bf5146103ff575b600080fd5b6101566101513660046116ed565b610412565b005b61018c61016636600461154d565b60066020908152600092835260408084209091529082529020546001600160a01b031681565b60405161019991906117b1565b60405180910390f35b6101566101b036600461154d565b6104d8565b6101566101c33660046115d5565b6105cb565b61018c7f000000000000000000000000000000000000000000000000000000000000000081565b6101566101fd36600461171d565b6106c7565b61023b6102103660046114e8565b6007602052600090815260409020805460018201546002909201546001600160a01b03909116919083565b604080516001600160a01b039094168452602084019290925290820152606001610199565b61026861079d565b604051610199919061181b565b61028861028336600461168c565b6107f5565b60408051928352602083019190915201610199565b6102b06102ab36600461168c565b610892565b604051908152602001610199565b6102b06102cc3660046116ed565b6109f6565b6102b060085481565b6103086102e8366004611661565b600160209081526000928352604080842090915290825290205460ff1681565b6040519015158152602001610199565b610268610a17565b61028861032e36600461168c565b610a6d565b6102b061034136600461168c565b610a7b565b6102b06103543660046116ed565b610ba9565b6102b06103673660046116ed565b610bb9565b61015661037a366004611585565b610bc9565b61028861038d3660046114e8565b610c74565b6102b06103a03660046116ed565b610cfb565b6103b86103b3366004611585565b610d0b565b60405161019992919061185f565b610268610db8565b610268610e0e565b61018c6103e43660046116ed565b6000602081905290815260409020546001600160a01b031681565b61015661040d3660046116ed565b610e64565b60405163b4ed0b6d60e01b8152600481018290527f00000000000000000000000000000000000000000000000000000000000000006001600160a01b03169063b4ed0b6d9060240160206040518083038186803b15801561047257600080fd5b505afa158015610486573d6000803e3d6000fd5b505050506040513d601f19601f820116820180604052508101906104aa9190611504565b60009182526020829052604090912080546001600160a01b0319166001600160a01b03909216919091179055565b6001600160a01b038281166000908152600660209081526040808320858516845290915290205416156105c75761050d610f0e565b6001600160a01b0316635e73a03483836040518363ffffffff1660e01b815260040161053a9291906117c5565b60206040518083038186803b15801561055257600080fd5b505afa158015610566573d6000803e3d6000fd5b505050506040513d601f19601f8201168201806040525081019061058a9190611504565b6001600160a01b0383811660009081526006602090815260408083208685168452909152902080546001600160a01b031916929091169190911790555b5050565b336105d4610f0e565b6001600160a01b03161461062f5760405162461bcd60e51b815260206004820152601d60248201527f4e6f7420617574686f72697a656420746f20696e6974206f7261636c6500000060448201526064015b60405180910390fd5b610670848484848080601f016020809104026020016040519081016040528093929190818152602001838380828437600092019190915250610f4692505050565b60408051818152600d918101919091526c6f7261636c6520706172616d7360981b60608201526001600160a01b0385166020820152600080516020611af8833981519152906080015b60405180910390a150505050565b60405163f0723d9760e01b81526001600160a01b037f0000000000000000000000000000000000000000000000000000000000000000169063f0723d979061071590849086906004016117df565b60206040518083038186803b15801561072d57600080fd5b505afa158015610741573d6000803e3d6000fd5b505050506040513d601f19601f8201168201806040525081019061076591906116cd565b6001600160a01b0391909116600090815260016020908152604080832094835293905291909120805460ff1916911515919091179055565b606060038054806020026020016040519081016040528092919081815260200182805480156107eb57602002820191906000526020600020905b8154815260200190600101908083116107d7575b5050505050905090565b600080610803858585610a7b565b61080b610f0e565b6001600160a01b03166315c2ba50876040518263ffffffff1660e01b815260040161083691906117b1565b60206040518083038186803b15801561084e57600080fd5b505afa158015610862573d6000803e3d6000fd5b505050506040513d601f19601f820116820180604052508101906108869190611705565b91509150935093915050565b600061089c610f74565b6001600160a01b0316826001600160a01b0316146108cc5760405162461bcd60e51b8152600401610626906118bc565b6001600160a01b0380851660009081526007602052604081208054909282916108f59116610c74565b91509150600060085482610909919061193d565b421190506000818061092557506008546109238442611ab2565b115b156109825761095589897f0000000000000000000000000000000000000000000000000000000000000000610fac565b61097f907f0000000000000000000000000000000000000000000000000000000000000000611a93565b90505b81156109945794506109ef9350505050565b60028501546001860154856109c98b7f0000000000000000000000000000000000000000000000000000000000000000611a93565b6109d39190611a93565b6109dd9190611955565b6109e79190611955565b955050505050505b9392505050565b60058181548110610a0657600080fd5b600091825260209091200154905081565b606060048054806020026020016040519081016040528092919081815260200182805480156107eb57602002820191906000526020600020908154815260200190600101908083116107d7575050505050905090565b600080610803858585610892565b6000610a85610f74565b6001600160a01b0316826001600160a01b031614610ab55760405162461bcd60e51b8152600401610626906118bc565b6001600160a01b038085166000908152600760205260408120805490928291610ade9116610c74565b9150915060085481610af0919061193d565b421115610b5657610b2287877f0000000000000000000000000000000000000000000000000000000000000000611047565b610b4c907f0000000000000000000000000000000000000000000000000000000000000000611a93565b93505050506109ef565b6002830154600184015483610b8b897f0000000000000000000000000000000000000000000000000000000000000000611a93565b610b959190611a93565b610b9f9190611955565b610b4c9190611955565b60028181548110610a0657600080fd5b60048181548110610a0657600080fd5b33610bd261115a565b6001600160a01b03161480610bf6575033610beb6111f2565b6001600160a01b0316145b610c125760405162461bcd60e51b8152600401610626906118f3565b610c1e84848484611263565b60408051818152601691810191909152756f7261636c6520737065636966696320706172616d7360501b60608201526001600160a01b0385166020820152600080516020611af8833981519152906080016106b9565b600080600080846001600160a01b031663feaf968c6040518163ffffffff1660e01b815260040160a06040518083038186803b158015610cb357600080fd5b505afa158015610cc7573d6000803e3d6000fd5b505050506040513d601f19601f82011682018060405250810190610ceb9190611741565b5091965090945050505050915091565b60038181548110610a0657600080fd5b60006060610d17610f74565b6001600160a01b0316856001600160a01b031614610d475760405162461bcd60e51b8152600401610626906118bc565b6001600160a01b038681166000908152600760205260408120805490928781169116148015610d835750610d7c85600a6119b2565b8260020154145b9050808686604051602001610d999291906117df565b6040516020818303038152906040529350935050505b94509492505050565b606060028054806020026020016040519081016040528092919081815260200182805480156107eb57602002820191906000526020600020908154815260200190600101908083116107d7575050505050905090565b606060058054806020026020016040519081016040528092919081815260200182805480156107eb57602002820191906000526020600020908154815260200190600101908083116107d7575050505050905090565b33610e6d61115a565b6001600160a01b03161480610e91575033610e866111f2565b6001600160a01b0316145b610ead5760405162461bcd60e51b8152600401610626906118f3565b6008819055604080518181526010818301526f7374616c656e6573732077696e646f7760801b60608201526020810183905290517f3a64504f0bc0c335e2aecb78638a257e0351a3fe0370861fd54ee4190b9209339181900360800190a150565b606a60009081526020527ff3261457f4fd0b7c00a1511877ab27b74183ac470be8db3a7ecdc64335f6f979546001600160a01b031690565b60008082806020019051810190610f5d9190611520565b91509150610f6d85858484611263565b5050505050565b606660009081526020527f422cccb7cea5c0e46f340bb7b21b81debac329f72e31669c20ff0f3a05cc2b5b546001600160a01b031690565b600080610fb9858461140f565b604051630576cbc360e41b81529091506001600160a01b0382169063576cbc3090610fec908890889088906004016117f8565b602060405180830381600087803b15801561100657600080fd5b505af115801561101a573d6000803e3d6000fd5b505050506040513d601f19601f8201168201806040525081019061103e9190611705565b95945050505050565b6001600160a01b0380841660009081526006602090815260408083208585168452909152812054909116806110fe5761107e610f0e565b6001600160a01b0316635e73a03486856040518363ffffffff1660e01b81526004016110ab9291906117c5565b60206040518083038186803b1580156110c357600080fd5b505afa1580156110d7573d6000803e3d6000fd5b505050506040513d601f19601f820116820180604052508101906110fb9190611504565b90505b6040516323aaad6360e21b81526001600160a01b03821690638eaab58c9061112e908890889088906004016117f8565b60206040518083038186803b15801561114657600080fd5b505afa15801561101a573d6000803e3d6000fd5b60007f00000000000000000000000000000000000000000000000000000000000000006001600160a01b0316638da5cb5b6040518163ffffffff1660e01b815260040160206040518083038186803b1580156111b557600080fd5b505afa1580156111c9573d6000803e3d6000fd5b505050506040513d601f19601f820116820180604052508101906111ed9190611504565b905090565b60007f00000000000000000000000000000000000000000000000000000000000000006001600160a01b031663c34c08e56040518163ffffffff1660e01b8152600401602060405180830381600087803b15801561124f57600080fd5b505af11580156111c9573d6000803e3d6000fd5b61126b610f74565b6001600160a01b0316836001600160a01b03161461129b5760405162461bcd60e51b8152600401610626906118bc565b6040518060600160405280836001600160a01b03168152602001836001600160a01b031663313ce5676040518163ffffffff1660e01b815260040160206040518083038186803b1580156112ee57600080fd5b505afa158015611302573d6000803e3d6000fd5b505050506040513d601f19601f820116820180604052508101906113269190611790565b61133190600a6119c1565b815260200161134183600a6119b2565b90526001600160a01b038581166000908152600760209081526040808320855181546001600160a01b031916951694909417845590840151600184015592909201516002909101556113bc85670de0b6b3a76400007f0000000000000000000000000000000000000000000000000000000000000000610fac565b116114095760405162461bcd60e51b815260206004820152601e60248201527f54776170207374616e64696e206f7261636c65206e6f742073657420757000006044820152606401610626565b50505050565b6001600160a01b038083166000908152600660209081526040808320858516845290915290205416806114c657611444610f0e565b6001600160a01b0316631757616884846040518363ffffffff1660e01b81526004016114719291906117c5565b602060405180830381600087803b15801561148b57600080fd5b505af115801561149f573d6000803e3d6000fd5b505050506040513d601f19601f820116820180604052508101906114c39190611504565b90505b92915050565b80516001600160501b03811681146114e357600080fd5b919050565b6000602082840312156114f9578081fd5b81356109ef81611adf565b600060208284031215611515578081fd5b81516109ef81611adf565b60008060408385031215611532578081fd5b825161153d81611adf565b6020939093015192949293505050565b6000806040838503121561155f578182fd5b823561156a81611adf565b9150602083013561157a81611adf565b809150509250929050565b6000806000806080858703121561159a578182fd5b84356115a581611adf565b935060208501356115b581611adf565b925060408501356115c581611adf565b9396929550929360600135925050565b600080600080606085870312156115ea578384fd5b84356115f581611adf565b9350602085013561160581611adf565b925060408501356001600160401b0380821115611620578384fd5b818701915087601f830112611633578384fd5b813581811115611641578485fd5b886020828501011115611652578485fd5b95989497505060200194505050565b60008060408385031215611673578182fd5b823561167e81611adf565b946020939093013593505050565b6000806000606084860312156116a0578283fd5b83356116ab81611adf565b92506020840135915060408401356116c281611adf565b809150509250925092565b6000602082840312156116de578081fd5b815180151581146109ef578182fd5b6000602082840312156116fe578081fd5b5035919050565b600060208284031215611716578081fd5b5051919050565b6000806040838503121561172f578182fd5b82359150602083013561157a81611adf565b600080600080600060a08688031215611758578283fd5b611761866114cc565b9450602086015193506040860151925060608601519150611784608087016114cc565b90509295509295909350565b6000602082840312156117a1578081fd5b815160ff811681146109ef578182fd5b6001600160a01b0391909116815260200190565b6001600160a01b0392831681529116602082015260400190565b6001600160a01b03929092168252602082015260400190565b6001600160a01b0393841681526020810192909252909116604082015260600190565b6020808252825182820181905260009190848201906040850190845b8181101561185357835183529284019291840191600101611837565b50909695505050505050565b6000831515825260206040818401528351806040850152825b8181101561189457858101830151858201606001528201611878565b818111156118a55783606083870101525b50601f01601f191692909201606001949350505050565b6020808252601f908201527f436861696e6c696e6b206a757374207573656420666f72205553442076616c00604082015260600190565b6020808252602a908201527f526f6c65733a2063616c6c6572206973206e6f7420746865206f776e6572206f604082015269391032bc32b1baba37b960b11b606082015260800190565b6000821982111561195057611950611ac9565b500190565b60008261197057634e487b7160e01b81526012600452602481fd5b500490565b80825b60018086116119875750610daf565b81870482111561199957611999611ac9565b808616156119a657918102915b9490941c938002611978565b60006114c360001984846119cf565b60006114c360001960ff8516845b6000826119de575060016109ef565b816119eb575060006109ef565b8160018114611a015760028114611a0b57611a38565b60019150506109ef565b60ff841115611a1c57611a1c611ac9565b6001841b915084821115611a3257611a32611ac9565b506109ef565b5060208310610133831016604e8410600b8410161715611a6b575081810a83811115611a6657611a66611ac9565b6109ef565b611a788484846001611975565b808604821115611a8a57611a8a611ac9565b02949350505050565b6000816000190483118215151615611aad57611aad611ac9565b500290565b600082821015611ac457611ac4611ac9565b500390565b634e487b7160e01b600052601160045260246000fd5b6001600160a01b0381168114611af457600080fd5b5056febd64fae90eab1019a6c354538cfa598ad3d642c5b1bc8a8613bcb716723fa2d7a2646970667358221220d7ee9ecec95eafba0392c6e6f67748b0072bc7222a7c1a536707c46a8c67be0064736f6c63430008030033",
  "devdoc": {
    "kind": "dev",
    "methods": {
      "charactersPlayed()": {
        "details": "returns all characters played by this contract (e.g. stable coin, oracle registry)"
      },
      "dependsOnCharacters()": {
        "details": "returns all the character dependencies like FEE_RECIPIENT"
      },
      "dependsOnRoles()": {
        "details": "returns all the roles dependencies of this contract like FUND_TRANSFERER"
      },
      "rolesPlayed()": {
        "details": "returns all roles played by this contract"
      },
      "updateMainCharacterCache(uint256)": {
        "details": "Updates the main character cache for a speciic character"
      },
      "updateRoleCache(uint256,address)": {
        "details": "Updates the role cache for a specific role and address"
      }
    },
    "version": 1
  },
  "userdoc": {
    "kind": "user",
    "methods": {
      "encodeAndCheckOracleParams(address,address,address,uint256)": {
        "notice": "View encoded params for initialization"
      },
      "getAmountInPeg(address,uint256,address)": {
        "notice": "Get converted amount in peg currency, updating fallback twap"
      },
      "getChainlinkPrice(address)": {
        "notice": "Retrieve data from chainlink price feed"
      },
      "newCurrentOracle(address,address)": {
        "notice": "Notify contract to update oracle cache"
      },
      "setOracleSpecificParams(address,address,address,uint256)": {
        "notice": "Set oracle specific parameters: pricefeed and decimals"
      },
      "setStalenessWindow(uint256)": {
        "notice": "When to declare chainlink stale"
      },
      "viewAmountInPeg(address,uint256,address)": {
        "notice": "View converted amount in peg currency"
      }
    },
    "notice": "Use chainlink to get dollar values for tokens Fallback goes to twap",
    "version": 1
  },
  "storageLayout": {
    "storage": [
      {
        "astId": 19540,
        "contract": "contracts/oracles/ChainlinkOracle.sol:ChainlinkOracle",
        "label": "mainCharacterCache",
        "offset": 0,
        "slot": "0",
        "type": "t_mapping(t_uint256,t_address)"
      },
      {
        "astId": 19546,
        "contract": "contracts/oracles/ChainlinkOracle.sol:ChainlinkOracle",
        "label": "roleCache",
        "offset": 0,
        "slot": "1",
        "type": "t_mapping(t_address,t_mapping(t_uint256,t_bool))"
      },
      {
        "astId": 19549,
        "contract": "contracts/oracles/ChainlinkOracle.sol:ChainlinkOracle",
        "label": "_dependsOnCharacters",
        "offset": 0,
        "slot": "2",
        "type": "t_array(t_uint256)dyn_storage"
      },
      {
        "astId": 19552,
        "contract": "contracts/oracles/ChainlinkOracle.sol:ChainlinkOracle",
        "label": "_dependsOnRoles",
        "offset": 0,
        "slot": "3",
        "type": "t_array(t_uint256)dyn_storage"
      },
      {
        "astId": 19555,
        "contract": "contracts/oracles/ChainlinkOracle.sol:ChainlinkOracle",
        "label": "_charactersPlayed",
        "offset": 0,
        "slot": "4",
        "type": "t_array(t_uint256)dyn_storage"
      },
      {
        "astId": 19558,
        "contract": "contracts/oracles/ChainlinkOracle.sol:ChainlinkOracle",
        "label": "_rolesPlayed",
        "offset": 0,
        "slot": "5",
        "type": "t_array(t_uint256)dyn_storage"
      },
      {
        "astId": 16444,
        "contract": "contracts/oracles/ChainlinkOracle.sol:ChainlinkOracle",
        "label": "_oracleCache",
        "offset": 0,
        "slot": "6",
        "type": "t_mapping(t_address,t_mapping(t_address,t_address))"
      },
      {
        "astId": 15438,
        "contract": "contracts/oracles/ChainlinkOracle.sol:ChainlinkOracle",
        "label": "clOracleParams",
        "offset": 0,
        "slot": "7",
        "type": "t_mapping(t_address,t_struct(ChainlinkOracleParams)15433_storage)"
      },
      {
        "astId": 15441,
        "contract": "contracts/oracles/ChainlinkOracle.sol:ChainlinkOracle",
        "label": "stalenessWindow",
        "offset": 0,
        "slot": "8",
        "type": "t_uint256"
      }
    ],
    "types": {
      "t_address": {
        "encoding": "inplace",
        "label": "address",
        "numberOfBytes": "20"
      },
      "t_array(t_uint256)dyn_storage": {
        "base": "t_uint256",
        "encoding": "dynamic_array",
        "label": "uint256[]",
        "numberOfBytes": "32"
      },
      "t_bool": {
        "encoding": "inplace",
        "label": "bool",
        "numberOfBytes": "1"
      },
      "t_contract(AggregatorV3Interface)45": {
        "encoding": "inplace",
        "label": "contract AggregatorV3Interface",
        "numberOfBytes": "20"
      },
      "t_mapping(t_address,t_address)": {
        "encoding": "mapping",
        "key": "t_address",
        "label": "mapping(address => address)",
        "numberOfBytes": "32",
        "value": "t_address"
      },
      "t_mapping(t_address,t_mapping(t_address,t_address))": {
        "encoding": "mapping",
        "key": "t_address",
        "label": "mapping(address => mapping(address => address))",
        "numberOfBytes": "32",
        "value": "t_mapping(t_address,t_address)"
      },
      "t_mapping(t_address,t_mapping(t_uint256,t_bool))": {
        "encoding": "mapping",
        "key": "t_address",
        "label": "mapping(address => mapping(uint256 => bool))",
        "numberOfBytes": "32",
        "value": "t_mapping(t_uint256,t_bool)"
      },
      "t_mapping(t_address,t_struct(ChainlinkOracleParams)15433_storage)": {
        "encoding": "mapping",
        "key": "t_address",
        "label": "mapping(address => struct ChainlinkOracle.ChainlinkOracleParams)",
        "numberOfBytes": "32",
        "value": "t_struct(ChainlinkOracleParams)15433_storage"
      },
      "t_mapping(t_uint256,t_address)": {
        "encoding": "mapping",
        "key": "t_uint256",
        "label": "mapping(uint256 => address)",
        "numberOfBytes": "32",
        "value": "t_address"
      },
      "t_mapping(t_uint256,t_bool)": {
        "encoding": "mapping",
        "key": "t_uint256",
        "label": "mapping(uint256 => bool)",
        "numberOfBytes": "32",
        "value": "t_bool"
      },
      "t_struct(ChainlinkOracleParams)15433_storage": {
        "encoding": "inplace",
        "label": "struct ChainlinkOracle.ChainlinkOracleParams",
        "members": [
          {
            "astId": 15428,
            "contract": "contracts/oracles/ChainlinkOracle.sol:ChainlinkOracle",
            "label": "oracle",
            "offset": 0,
            "slot": "0",
            "type": "t_contract(AggregatorV3Interface)45"
          },
          {
            "astId": 15430,
            "contract": "contracts/oracles/ChainlinkOracle.sol:ChainlinkOracle",
            "label": "oracleDecimalFactor",
            "offset": 0,
            "slot": "1",
            "type": "t_uint256"
          },
          {
            "astId": 15432,
            "contract": "contracts/oracles/ChainlinkOracle.sol:ChainlinkOracle",
            "label": "tokenDecimalFactor",
            "offset": 0,
            "slot": "2",
            "type": "t_uint256"
          }
        ],
        "numberOfBytes": "96"
      },
      "t_uint256": {
        "encoding": "inplace",
        "label": "uint256",
        "numberOfBytes": "32"
      }
    }
  }
}