{
  "address": "0xcDDaEe15bD62F88a4b8014a1E858820FC33592d3",
  "abi": [
    {
      "inputs": [
        {
          "internalType": "address",
          "name": "_twapStandin",
          "type": "address"
        },
        {
          "internalType": "uint256",
          "name": "standinDecimals",
          "type": "uint256"
        },
        {
          "internalType": "address",
          "name": "_roles",
          "type": "address"
        }
      ],
      "stateMutability": "nonpayable",
      "type": "constructor"
    },
    {
      "inputs": [
        {
          "internalType": "uint256",
          "name": "",
          "type": "uint256"
        }
      ],
      "name": "_charactersPlayed",
      "outputs": [
        {
          "internalType": "uint256",
          "name": "",
          "type": "uint256"
        }
      ],
      "stateMutability": "view",
      "type": "function"
    },
    {
      "inputs": [
        {
          "internalType": "uint256",
          "name": "",
          "type": "uint256"
        }
      ],
      "name": "_dependsOnCharacters",
      "outputs": [
        {
          "internalType": "uint256",
          "name": "",
          "type": "uint256"
        }
      ],
      "stateMutability": "view",
      "type": "function"
    },
    {
      "inputs": [
        {
          "internalType": "uint256",
          "name": "",
          "type": "uint256"
        }
      ],
      "name": "_dependsOnRoles",
      "outputs": [
        {
          "internalType": "uint256",
          "name": "",
          "type": "uint256"
        }
      ],
      "stateMutability": "view",
      "type": "function"
    },
    {
      "inputs": [
        {
          "internalType": "address",
          "name": "",
          "type": "address"
        },
        {
          "internalType": "address",
          "name": "",
          "type": "address"
        }
      ],
      "name": "_oracleCache",
      "outputs": [
        {
          "internalType": "address",
          "name": "",
          "type": "address"
        }
      ],
      "stateMutability": "view",
      "type": "function"
    },
    {
      "inputs": [
        {
          "internalType": "uint256",
          "name": "",
          "type": "uint256"
        }
      ],
      "name": "_rolesPlayed",
      "outputs": [
        {
          "internalType": "uint256",
          "name": "",
          "type": "uint256"
        }
      ],
      "stateMutability": "view",
      "type": "function"
    },
    {
      "inputs": [
        {
          "internalType": "address",
          "name": "",
          "type": "address"
        }
      ],
      "name": "borrowablePer10ks",
      "outputs": [
        {
          "internalType": "uint256",
          "name": "",
          "type": "uint256"
        }
      ],
      "stateMutability": "view",
      "type": "function"
    },
    {
      "inputs": [],
      "name": "charactersPlayed",
      "outputs": [
        {
          "internalType": "uint256[]",
          "name": "",
          "type": "uint256[]"
        }
      ],
      "stateMutability": "view",
      "type": "function"
    },
    {
      "inputs": [
        {
          "internalType": "address",
          "name": "",
          "type": "address"
        }
      ],
      "name": "clOracleParams",
      "outputs": [
        {
          "internalType": "contract AggregatorV3Interface",
          "name": "oracle",
          "type": "address"
        },
        {
          "internalType": "uint256",
          "name": "oracleDecimalFactor",
          "type": "uint256"
        },
        {
          "internalType": "uint256",
          "name": "tokenDecimalFactor",
          "type": "uint256"
        }
      ],
      "stateMutability": "view",
      "type": "function"
    },
    {
      "inputs": [],
      "name": "dependsOnCharacters",
      "outputs": [
        {
          "internalType": "uint256[]",
          "name": "",
          "type": "uint256[]"
        }
      ],
      "stateMutability": "view",
      "type": "function"
    },
    {
      "inputs": [],
      "name": "dependsOnRoles",
      "outputs": [
        {
          "internalType": "uint256[]",
          "name": "",
          "type": "uint256[]"
        }
      ],
      "stateMutability": "view",
      "type": "function"
    },
    {
      "inputs": [
        {
          "internalType": "address",
          "name": "token",
          "type": "address"
        },
        {
          "internalType": "address",
          "name": "pegCurrency",
          "type": "address"
        },
        {
          "internalType": "address",
          "name": "oracle",
          "type": "address"
        },
        {
          "internalType": "uint256",
          "name": "tokenDecimals",
          "type": "uint256"
        }
      ],
      "name": "encodeAndCheckOracleParams",
      "outputs": [
        {
          "internalType": "bool",
          "name": "",
          "type": "bool"
        },
        {
          "internalType": "bytes",
          "name": "",
          "type": "bytes"
        }
      ],
      "stateMutability": "view",
      "type": "function"
    },
    {
      "inputs": [
        {
          "internalType": "address",
          "name": "token",
          "type": "address"
        },
        {
          "internalType": "uint256",
          "name": "inAmount",
          "type": "uint256"
        },
        {
          "internalType": "address",
          "name": "pegCurrency",
          "type": "address"
        }
      ],
      "name": "getAmountInPeg",
      "outputs": [
        {
          "internalType": "uint256",
          "name": "",
          "type": "uint256"
        }
      ],
      "stateMutability": "nonpayable",
      "type": "function"
    },
    {
      "inputs": [
        {
          "internalType": "contract AggregatorV3Interface",
          "name": "oracle",
          "type": "address"
        }
      ],
      "name": "getChainlinkPrice",
      "outputs": [
        {
          "internalType": "uint256",
          "name": "",
          "type": "uint256"
        },
        {
          "internalType": "uint256",
          "name": "",
          "type": "uint256"
        }
      ],
      "stateMutability": "view",
      "type": "function"
    },
    {
      "inputs": [
        {
          "internalType": "address",
          "name": "token",
          "type": "address"
        },
        {
          "internalType": "uint256",
          "name": "inAmount",
          "type": "uint256"
        },
        {
          "internalType": "address",
          "name": "pegCurrency",
          "type": "address"
        }
      ],
      "name": "getPegAmountAndBorrowable",
      "outputs": [
        {
          "internalType": "uint256",
          "name": "",
          "type": "uint256"
        },
        {
          "internalType": "uint256",
          "name": "",
          "type": "uint256"
        }
      ],
      "stateMutability": "nonpayable",
      "type": "function"
    },
    {
      "inputs": [
        {
          "internalType": "uint256",
          "name": "",
          "type": "uint256"
        }
      ],
      "name": "mainCharacterCache",
      "outputs": [
        {
          "internalType": "address",
          "name": "",
          "type": "address"
        }
      ],
      "stateMutability": "view",
      "type": "function"
    },
    {
      "inputs": [
        {
          "internalType": "address",
          "name": "token",
          "type": "address"
        },
        {
          "internalType": "address",
          "name": "pegCurrency",
          "type": "address"
        }
      ],
      "name": "newCurrentOracle",
      "outputs": [],
      "stateMutability": "nonpayable",
      "type": "function"
    },
    {
      "inputs": [
        {
          "internalType": "address",
          "name": "",
          "type": "address"
        },
        {
          "internalType": "uint256",
          "name": "",
          "type": "uint256"
        }
      ],
      "name": "roleCache",
      "outputs": [
        {
          "internalType": "bool",
          "name": "",
          "type": "bool"
        }
      ],
      "stateMutability": "view",
      "type": "function"
    },
    {
      "inputs": [],
      "name": "roles",
      "outputs": [
        {
          "internalType": "contract Roles",
          "name": "",
          "type": "address"
        }
      ],
      "stateMutability": "view",
      "type": "function"
    },
    {
      "inputs": [],
      "name": "rolesPlayed",
      "outputs": [
        {
          "internalType": "uint256[]",
          "name": "",
          "type": "uint256[]"
        }
      ],
      "stateMutability": "view",
      "type": "function"
    },
    {
      "inputs": [
        {
          "internalType": "address",
          "name": "lpt",
          "type": "address"
        },
        {
          "internalType": "uint256",
          "name": "borrowablePer10k",
          "type": "uint256"
        }
      ],
      "name": "setBorrowable",
      "outputs": [],
      "stateMutability": "nonpayable",
      "type": "function"
    },
    {
      "inputs": [
        {
          "internalType": "address",
          "name": "token",
          "type": "address"
        },
        {
          "internalType": "address",
          "name": "pegCurrency",
          "type": "address"
        },
        {
          "internalType": "uint256",
          "name": "borrowablePer10k",
          "type": "uint256"
        },
        {
          "internalType": "bytes",
          "name": "data",
          "type": "bytes"
        }
      ],
      "name": "setOracleParams",
      "outputs": [],
      "stateMutability": "nonpayable",
      "type": "function"
    },
    {
      "inputs": [
        {
          "internalType": "address",
          "name": "token",
          "type": "address"
        },
        {
          "internalType": "address",
          "name": "pegCurrency",
          "type": "address"
        },
        {
          "internalType": "address",
          "name": "oracle",
          "type": "address"
        },
        {
          "internalType": "uint256",
          "name": "tokenDecimals",
          "type": "uint256"
        }
      ],
      "name": "setOracleSpecificParams",
      "outputs": [],
      "stateMutability": "nonpayable",
      "type": "function"
    },
    {
      "inputs": [
        {
          "internalType": "uint256",
          "name": "staleness",
          "type": "uint256"
        }
      ],
      "name": "setStalenessWindow",
      "outputs": [],
      "stateMutability": "nonpayable",
      "type": "function"
    },
    {
      "inputs": [],
      "name": "stalenessWindow",
      "outputs": [
        {
          "internalType": "uint256",
          "name": "",
          "type": "uint256"
        }
      ],
      "stateMutability": "view",
      "type": "function"
    },
    {
      "inputs": [
        {
          "internalType": "uint256",
          "name": "role",
          "type": "uint256"
        }
      ],
      "name": "updateMainCharacterCache",
      "outputs": [],
      "stateMutability": "nonpayable",
      "type": "function"
    },
    {
      "inputs": [
        {
          "internalType": "uint256",
          "name": "role",
          "type": "uint256"
        },
        {
          "internalType": "address",
          "name": "contr",
          "type": "address"
        }
      ],
      "name": "updateRoleCache",
      "outputs": [],
      "stateMutability": "nonpayable",
      "type": "function"
    },
    {
      "inputs": [
        {
          "internalType": "address",
          "name": "token",
          "type": "address"
        },
        {
          "internalType": "uint256",
          "name": "inAmount",
          "type": "uint256"
        },
        {
          "internalType": "address",
          "name": "pegCurrency",
          "type": "address"
        }
      ],
      "name": "viewAmountInPeg",
      "outputs": [
        {
          "internalType": "uint256",
          "name": "",
          "type": "uint256"
        }
      ],
      "stateMutability": "view",
      "type": "function"
    },
    {
      "inputs": [
        {
          "internalType": "address",
          "name": "token",
          "type": "address"
        },
        {
          "internalType": "uint256",
          "name": "inAmount",
          "type": "uint256"
        },
        {
          "internalType": "address",
          "name": "pegCurrency",
          "type": "address"
        }
      ],
      "name": "viewPegAmountAndBorrowable",
      "outputs": [
        {
          "internalType": "uint256",
          "name": "",
          "type": "uint256"
        },
        {
          "internalType": "uint256",
          "name": "",
          "type": "uint256"
        }
      ],
      "stateMutability": "view",
      "type": "function"
    }
  ],
  "transactionHash": "0x195e5d8f1e372674b4acd0484898c2857d626a8db98bd349051d4fa9c4d3eac9",
  "args": [
    "0xA7D7079b0FEaD91F3e65f86E8915Cb59c1a4C664",
    6,
    "0x4F6ed22C558B462BA35Bb0F6FeB99600964310D7"
  ],
  "solcInputHash": "49de3c0ae1b6f2c0098f9389f4b75969",
  "bytecode": "0x6101006040526107086009553480156200001857600080fd5b5060405162001e5538038062001e558339810160408190526200003b9162000189565b806001600160a01b038116620000a25760405162461bcd60e51b815260206004820152602260248201527f506c656173652070726f766964652076616c696420726f6c6573206164647265604482015261737360f01b606482015260840160405180910390fd5b6001600160601b0319606091821b81166080526002805460018181018355606a7f405787fa12a823e0f2b7631cc41b3ba8828b3321ca811111fa75cd3aa3bb5ace928301556005805480830190915560047f036b6384b5eca791c62761152d0c79bb0604c104a5fb6f4eb0703f3154bb3db090910155825490810183556000929092526066910155670de0b6b3a764000060a0529084901b1660c0526200014b82600a62000237565b6200015f90670de0b6b3a7640000620001c9565b60e0525062000342915050565b80516001600160a01b03811681146200018457600080fd5b919050565b6000806000606084860312156200019e578283fd5b620001a9846200016c565b925060208401519150620001c0604085016200016c565b90509250925092565b600082620001e557634e487b7160e01b81526012600452602481fd5b500490565b80825b6001808611620001fe57506200022e565b8187048211156200021357620002136200032c565b808616156200022157918102915b9490941c938002620001ed565b94509492505050565b60006200024860001984846200024f565b9392505050565b600082620002605750600162000248565b816200026f5750600062000248565b81600181146200028857600281146200029357620002c7565b600191505062000248565b60ff841115620002a757620002a76200032c565b6001841b915084821115620002c057620002c06200032c565b5062000248565b5060208310610133831016604e8410600b8410161715620002ff575081810a83811115620002f957620002f96200032c565b62000248565b6200030e8484846001620001ea565b8086048211156200032357620003236200032c565b02949350505050565b634e487b7160e01b600052601160045260246000fd5b60805160601c60a05160c05160601c60e051611a9b620003ba6000396000818161092b0152610b8501526000818161090101528181610b5b01526113860152600081816109750152610bc4015260008181610275015281816104e80152818161072501528181610f010152610f990152611a9b6000f3fe608060405234801561001057600080fd5b50600436106101c45760003560e01c80637dad209b116100f9578063bd58fe5611610097578063dc94cb7d11610071578063dc94cb7d14610486578063e8ea4fae1461048e578063e9c3f77d14610496578063ffdf5bf5146104bf576101c4565b8063bd58fe561461043f578063bf184ea414610452578063ce4b373614610465576101c4565b80638eaab58c116100d35780638eaab58c146103f3578063abcbc4fc14610406578063aeb38d8b14610419578063afb0aaf71461042c576101c4565b80637dad209b146103c5578063885fa056146103cd578063891ea1aa146103e0576101c4565b806348162c0711610166578063576cbc3011610140578063576cbc30146103585780636caa9c111461036b57806370b69acb1461037e5780637a1a04df14610387576101c4565b806348162c07146102bd5780634a7a7f411461031b5780634fcd54a414610330576101c4565b806328f3fc73116101a257806328f3fc731461025d578063392f5f64146102705780633cf685d614610297578063447d52ba146102aa576101c4565b8063071060a6146101c957806315c2ba50146101de5780632642b60614610211575b600080fd5b6101dc6101d73660046116d1565b6104d2565b005b6101fe6101ec3660046114d9565b60066020526000908152604090205481565b6040519081526020015b60405180910390f35b61024561021f36600461153c565b60076020908152600092835260408084209091529082529020546001600160a01b031681565b6040516001600160a01b039091168152602001610208565b6101dc61026b36600461153c565b610598565b6102457f000000000000000000000000000000000000000000000000000000000000000081565b6101dc6102a536600461165e565b610691565b6101dc6102b8366004611701565b6106ff565b6102f66102cb3660046114d9565b6008602052600090815260409020805460018201546002909201546001600160a01b03909116919083565b604080516001600160a01b039094168452602084019290925290820152606001610208565b6103236107d7565b6040516102089190611795565b61034361033e366004611670565b61082f565b60408051928352602083019190915201610208565b6101fe610366366004611670565b610861565b6101fe6103793660046116d1565b6109c6565b6101fe60095481565b6103b561039536600461165e565b600160209081526000928352604080842090915290825290205460ff1681565b6040519015158152602001610208565b6103236109e7565b6103436103db366004611670565b610a3d565b6101dc6103ee3660046115c4565b610a4b565b6101fe610401366004611670565b610ad8565b6101fe6104143660046116d1565b610c06565b6101fe6104273660046116d1565b610c16565b6101dc61043a366004611574565b610c26565b61034361044d3660046114d9565b610c81565b6101fe6104603660046116d1565b610d08565b610478610473366004611574565b610d18565b6040516102089291906117d9565b610323610dcb565b610323610e21565b6102456104a43660046116d1565b6000602081905290815260409020546001600160a01b031681565b6101dc6104cd3660046116d1565b610e77565b60405163b4ed0b6d60e01b8152600481018290527f00000000000000000000000000000000000000000000000000000000000000006001600160a01b03169063b4ed0b6d9060240160206040518083038186803b15801561053257600080fd5b505afa158015610546573d6000803e3d6000fd5b505050506040513d601f19601f8201168201806040525081019061056a91906114f5565b60009182526020829052604090912080546001600160a01b0319166001600160a01b03909216919091179055565b6001600160a01b0382811660009081526007602090815260408083208585168452909152902054161561068d576105cd610ec5565b60405163179ce80d60e21b81526001600160a01b03848116600483015283811660248301529190911690635e73a0349060440160206040518083038186803b15801561061857600080fd5b505afa15801561062c573d6000803e3d6000fd5b505050506040513d601f19601f8201168201806040525081019061065091906114f5565b6001600160a01b0383811660009081526007602090815260408083208685168452909152902080546001600160a01b031916929091169190911790555b5050565b3361069a610efd565b6001600160a01b031614806106be5750336106b3610f95565b6001600160a01b0316145b6106e35760405162461bcd60e51b81526004016106da9061186d565b60405180910390fd5b6001600160a01b03909116600090815260066020526040902055565b6040516393552a3d60e01b8152600481018390526001600160a01b0382811660248301527f000000000000000000000000000000000000000000000000000000000000000016906393552a3d9060440160206040518083038186803b15801561076757600080fd5b505afa15801561077b573d6000803e3d6000fd5b505050506040513d601f19601f8201168201806040525081019061079f91906116b1565b6001600160a01b0391909116600090815260016020908152604080832094835293905291909120805460ff1916911515919091179055565b6060600380548060200260200160405190810160405280929190818152602001828054801561082557602002820191906000526020600020905b815481526020019060010190808311610811575b5050505050905090565b60008061083d858585610ad8565b6001600160a01b039590951660009081526006602052604090205494959350505050565b600061086b611006565b6001600160a01b0316826001600160a01b03161461089b5760405162461bcd60e51b81526004016106da90611836565b6001600160a01b0380851660009081526008602052604081208054909282916108c49116610c81565b915091506000600954826108d891906118a4565b42119050600081806108f5575060b46108f361012c42611a0d565b115b156109525761092589897f000000000000000000000000000000000000000000000000000000000000000061103e565b61094f907f00000000000000000000000000000000000000000000000000000000000000006119ee565b90505b81156109645794506109bf9350505050565b60028501546001860154856109998b7f00000000000000000000000000000000000000000000000000000000000000006119ee565b6109a391906119ee565b6109ad91906118bc565b6109b791906118bc565b955050505050505b9392505050565b600581815481106109d657600080fd5b600091825260209091200154905081565b606060048054806020026020016040519081016040528092919081815260200182805480156108255760200282019190600052602060002090815481526020019060010190808311610811575050505050905090565b60008061083d858585610861565b33610a54610ec5565b6001600160a01b031614610aaa5760405162461bcd60e51b815260206004820152601d60248201527f4e6f7420617574686f72697a656420746f20696e6974206f7261636c6500000060448201526064016106da565b6001600160a01b0385166000908152600660205260409020839055610ad185858484611109565b5050505050565b6000610ae2611006565b6001600160a01b0316826001600160a01b031614610b125760405162461bcd60e51b81526004016106da90611836565b6001600160a01b038085166000908152600860205260408120805490928291610b3b9116610c81565b9150915060095481610b4d91906118a4565b421115610bb357610b7f87877f0000000000000000000000000000000000000000000000000000000000000000611130565b610ba9907f00000000000000000000000000000000000000000000000000000000000000006119ee565b93505050506109bf565b6002830154600184015483610be8897f00000000000000000000000000000000000000000000000000000000000000006119ee565b610bf291906119ee565b610bfc91906118bc565b610ba991906118bc565b600281815481106109d657600080fd5b600481815481106109d657600080fd5b33610c2f610efd565b6001600160a01b03161480610c53575033610c48610f95565b6001600160a01b0316145b610c6f5760405162461bcd60e51b81526004016106da9061186d565b610c7b84848484611251565b50505050565b600080600080846001600160a01b031663feaf968c6040518163ffffffff1660e01b815260040160a06040518083038186803b158015610cc057600080fd5b505afa158015610cd4573d6000803e3d6000fd5b505050506040513d601f19601f82011682018060405250810190610cf89190611725565b5091965090945050505050915091565b600381815481106109d657600080fd5b60006060610d24611006565b6001600160a01b0316856001600160a01b031614610d545760405162461bcd60e51b81526004016106da90611836565b6001600160a01b038681166000908152600860205260408120805490928781169116148015610d905750610d8985600a61190d565b8260020154145b604080516001600160a01b03891660208201528082018890528151808203830181526060909101909152909450925050505b94509492505050565b606060028054806020026020016040519081016040528092919081815260200182805480156108255760200282019190600052602060002090815481526020019060010190808311610811575050505050905090565b606060058054806020026020016040519081016040528092919081815260200182805480156108255760200282019190600052602060002090815481526020019060010190808311610811575050505050905090565b33610e80610efd565b6001600160a01b03161480610ea4575033610e99610f95565b6001600160a01b0316145b610ec05760405162461bcd60e51b81526004016106da9061186d565b600955565b606a60009081526020527ff3261457f4fd0b7c00a1511877ab27b74183ac470be8db3a7ecdc64335f6f979546001600160a01b031690565b60007f00000000000000000000000000000000000000000000000000000000000000006001600160a01b0316638da5cb5b6040518163ffffffff1660e01b815260040160206040518083038186803b158015610f5857600080fd5b505afa158015610f6c573d6000803e3d6000fd5b505050506040513d601f19601f82011682018060405250810190610f9091906114f5565b905090565b60007f00000000000000000000000000000000000000000000000000000000000000006001600160a01b031663c34c08e56040518163ffffffff1660e01b8152600401602060405180830381600087803b158015610ff257600080fd5b505af1158015610f6c573d6000803e3d6000fd5b606660009081526020527f422cccb7cea5c0e46f340bb7b21b81debac329f72e31669c20ff0f3a05cc2b5b546001600160a01b031690565b6001600160a01b038084166000908152600760209081526040808320858516845290915281205490911661107285846113f7565b604051630576cbc360e41b81526001600160a01b0387811660048301526024820187905285811660448301529192509082169063576cbc3090606401602060405180830381600087803b1580156110c857600080fd5b505af11580156110dc573d6000803e3d6000fd5b505050506040513d601f19601f8201168201806040525081019061110091906116e9565b95945050505050565b60008061111883850185611511565b9150915061112886868484611251565b505050505050565b6001600160a01b0380841660009081526007602090815260408083208585168452909152812054909116806111ed57611167610ec5565b60405163179ce80d60e21b81526001600160a01b03878116600483015285811660248301529190911690635e73a0349060440160206040518083038186803b1580156111b257600080fd5b505afa1580156111c6573d6000803e3d6000fd5b505050506040513d601f19601f820116820180604052508101906111ea91906114f5565b90505b6040516323aaad6360e21b81526001600160a01b038681166004830152602482018690528481166044830152821690638eaab58c9060640160206040518083038186803b15801561123d57600080fd5b505afa1580156110dc573d6000803e3d6000fd5b611259611006565b6001600160a01b0316836001600160a01b0316146112895760405162461bcd60e51b81526004016106da90611836565b6040518060600160405280836001600160a01b03168152602001836001600160a01b031663313ce5676040518163ffffffff1660e01b815260040160206040518083038186803b1580156112dc57600080fd5b505afa1580156112f0573d6000803e3d6000fd5b505050506040513d601f19601f820116820180604052508101906113149190611774565b61131f90600a61191c565b815260200161132f83600a61190d565b90526001600160a01b038581166000908152600860209081526040808320855181546001600160a01b031916951694909417845590840151600184015592909201516002909101556113aa85670de0b6b3a76400007f000000000000000000000000000000000000000000000000000000000000000061103e565b11610c7b5760405162461bcd60e51b815260206004820152601e60248201527f54776170207374616e64696e206f7261636c65206e6f7420736574207570000060448201526064016106da565b6001600160a01b038083166000908152600760209081526040808320858516845290915290205416806114b45761142c610ec5565b6040516302eaec2d60e31b81526001600160a01b03858116600483015284811660248301529190911690631757616890604401602060405180830381600087803b15801561147957600080fd5b505af115801561148d573d6000803e3d6000fd5b505050506040513d601f19601f820116820180604052508101906114b191906114f5565b90505b92915050565b805169ffffffffffffffffffff811681146114d457600080fd5b919050565b6000602082840312156114ea578081fd5b81356109bf81611a4d565b600060208284031215611506578081fd5b81516109bf81611a4d565b60008060408385031215611523578081fd5b823561152e81611a4d565b946020939093013593505050565b6000806040838503121561154e578182fd5b823561155981611a4d565b9150602083013561156981611a4d565b809150509250929050565b60008060008060808587031215611589578182fd5b843561159481611a4d565b935060208501356115a481611a4d565b925060408501356115b481611a4d565b9396929550929360600135925050565b6000806000806000608086880312156115db578081fd5b85356115e681611a4d565b945060208601356115f681611a4d565b935060408601359250606086013567ffffffffffffffff80821115611619578283fd5b818801915088601f83011261162c578283fd5b81358181111561163a578384fd5b89602082850101111561164b578384fd5b9699959850939650602001949392505050565b60008060408385031215611523578182fd5b600080600060608486031215611684578283fd5b833561168f81611a4d565b92506020840135915060408401356116a681611a4d565b809150509250925092565b6000602082840312156116c2578081fd5b815180151581146109bf578182fd5b6000602082840312156116e2578081fd5b5035919050565b6000602082840312156116fa578081fd5b5051919050565b60008060408385031215611713578182fd5b82359150602083013561156981611a4d565b600080600080600060a0868803121561173c578283fd5b611745866114ba565b9450602086015193506040860151925060608601519150611768608087016114ba565b90509295509295909350565b600060208284031215611785578081fd5b815160ff811681146109bf578182fd5b6020808252825182820181905260009190848201906040850190845b818110156117cd578351835292840192918401916001016117b1565b50909695505050505050565b6000831515825260206040818401528351806040850152825b8181101561180e578581018301518582016060015282016117f2565b8181111561181f5783606083870101525b50601f01601f191692909201606001949350505050565b6020808252601f908201527f436861696e6c696e6b206a757374207573656420666f72205553442076616c00604082015260600190565b6020808252601e908201527f526f6c65733a2063616c6c6572206973206e6f7420746865206f776e65720000604082015260600190565b600082198211156118b7576118b7611a21565b500190565b6000826118cb576118cb611a37565b500490565b80825b60018086116118e25750610dc2565b8187048211156118f4576118f4611a21565b8086161561190157918102915b9490941c9380026118d3565b60006114b1600019848461192a565b60006114b160001960ff8516845b600082611939575060016109bf565b81611946575060006109bf565b816001811461195c576002811461196657611993565b60019150506109bf565b60ff84111561197757611977611a21565b6001841b91508482111561198d5761198d611a21565b506109bf565b5060208310610133831016604e8410600b84101617156119c6575081810a838111156119c1576119c1611a21565b6109bf565b6119d384848460016118d0565b8086048211156119e5576119e5611a21565b02949350505050565b6000816000190483118215151615611a0857611a08611a21565b500290565b600082611a1c57611a1c611a37565b500690565b634e487b7160e01b600052601160045260246000fd5b634e487b7160e01b600052601260045260246000fd5b6001600160a01b0381168114611a6257600080fd5b5056fea2646970667358221220724dcd848ba718189b69695a8c15c4342f609d049b48f6977572d5b8f5bfe2ef64736f6c63430008030033",
  "devdoc": {
    "kind": "dev",
    "methods": {
      "charactersPlayed()": {
        "details": "returns all characters played by this contract (e.g. stable coin, oracle registry)"
      },
      "dependsOnCharacters()": {
        "details": "returns all the character dependencies like FEE_RECIPIENT"
      },
      "dependsOnRoles()": {
        "details": "returns all the roles dependencies of this contract like FUND_TRANSFERER"
      },
      "rolesPlayed()": {
        "details": "returns all roles played by this contract"
      },
      "updateMainCharacterCache(uint256)": {
        "details": "Updates the main character cache for a speciic character"
      },
      "updateRoleCache(uint256,address)": {
        "details": "Updates the role cache for a specific role and address"
      }
    },
    "version": 1
  },
  "userdoc": {
    "kind": "user",
    "methods": {
      "encodeAndCheckOracleParams(address,address,address,uint256)": {
        "notice": "View encoded params for initialization"
      },
      "getAmountInPeg(address,uint256,address)": {
        "notice": "Get converted amount in peg currency, updating fallback twap"
      },
      "getChainlinkPrice(address)": {
        "notice": "Retrieve data from chainlink price feed"
      },
      "newCurrentOracle(address,address)": {
        "notice": "Notify contract to update oracle cache"
      },
      "setOracleSpecificParams(address,address,address,uint256)": {
        "notice": "Set oracle specific parameters: pricefeed and decimals"
      },
      "setStalenessWindow(uint256)": {
        "notice": "When to declare chainlink stale"
      },
      "viewAmountInPeg(address,uint256,address)": {
        "notice": "View converted amount in peg currency"
      }
    },
    "notice": "Use chainlink to get dollar values for tokens Fallback goes to twap",
    "version": 1
  },
  "storageLayout": {
    "storage": [
      {
        "astId": 14088,
        "contract": "contracts/oracles/ChainlinkOracle.sol:ChainlinkOracle",
        "label": "mainCharacterCache",
        "offset": 0,
        "slot": "0",
        "type": "t_mapping(t_uint256,t_address)"
      },
      {
        "astId": 14094,
        "contract": "contracts/oracles/ChainlinkOracle.sol:ChainlinkOracle",
        "label": "roleCache",
        "offset": 0,
        "slot": "1",
        "type": "t_mapping(t_address,t_mapping(t_uint256,t_bool))"
      },
      {
        "astId": 14097,
        "contract": "contracts/oracles/ChainlinkOracle.sol:ChainlinkOracle",
        "label": "_dependsOnCharacters",
        "offset": 0,
        "slot": "2",
        "type": "t_array(t_uint256)dyn_storage"
      },
      {
        "astId": 14100,
        "contract": "contracts/oracles/ChainlinkOracle.sol:ChainlinkOracle",
        "label": "_dependsOnRoles",
        "offset": 0,
        "slot": "3",
        "type": "t_array(t_uint256)dyn_storage"
      },
      {
        "astId": 14103,
        "contract": "contracts/oracles/ChainlinkOracle.sol:ChainlinkOracle",
        "label": "_charactersPlayed",
        "offset": 0,
        "slot": "4",
        "type": "t_array(t_uint256)dyn_storage"
      },
      {
        "astId": 14106,
        "contract": "contracts/oracles/ChainlinkOracle.sol:ChainlinkOracle",
        "label": "_rolesPlayed",
        "offset": 0,
        "slot": "5",
        "type": "t_array(t_uint256)dyn_storage"
      },
      {
        "astId": 12032,
        "contract": "contracts/oracles/ChainlinkOracle.sol:ChainlinkOracle",
        "label": "borrowablePer10ks",
        "offset": 0,
        "slot": "6",
        "type": "t_mapping(t_address,t_uint256)"
      },
      {
        "astId": 12186,
        "contract": "contracts/oracles/ChainlinkOracle.sol:ChainlinkOracle",
        "label": "_oracleCache",
        "offset": 0,
        "slot": "7",
        "type": "t_mapping(t_address,t_mapping(t_address,t_address))"
      },
      {
        "astId": 11420,
        "contract": "contracts/oracles/ChainlinkOracle.sol:ChainlinkOracle",
        "label": "clOracleParams",
        "offset": 0,
        "slot": "8",
        "type": "t_mapping(t_address,t_struct(ChainlinkOracleParams)11415_storage)"
      },
      {
        "astId": 11423,
        "contract": "contracts/oracles/ChainlinkOracle.sol:ChainlinkOracle",
        "label": "stalenessWindow",
        "offset": 0,
        "slot": "9",
        "type": "t_uint256"
      }
    ],
    "types": {
      "t_address": {
        "encoding": "inplace",
        "label": "address",
        "numberOfBytes": "20"
      },
      "t_array(t_uint256)dyn_storage": {
        "base": "t_uint256",
        "encoding": "dynamic_array",
        "label": "uint256[]",
        "numberOfBytes": "32"
      },
      "t_bool": {
        "encoding": "inplace",
        "label": "bool",
        "numberOfBytes": "1"
      },
      "t_contract(AggregatorV3Interface)45": {
        "encoding": "inplace",
        "label": "contract AggregatorV3Interface",
        "numberOfBytes": "20"
      },
      "t_mapping(t_address,t_address)": {
        "encoding": "mapping",
        "key": "t_address",
        "label": "mapping(address => address)",
        "numberOfBytes": "32",
        "value": "t_address"
      },
      "t_mapping(t_address,t_mapping(t_address,t_address))": {
        "encoding": "mapping",
        "key": "t_address",
        "label": "mapping(address => mapping(address => address))",
        "numberOfBytes": "32",
        "value": "t_mapping(t_address,t_address)"
      },
      "t_mapping(t_address,t_mapping(t_uint256,t_bool))": {
        "encoding": "mapping",
        "key": "t_address",
        "label": "mapping(address => mapping(uint256 => bool))",
        "numberOfBytes": "32",
        "value": "t_mapping(t_uint256,t_bool)"
      },
      "t_mapping(t_address,t_struct(ChainlinkOracleParams)11415_storage)": {
        "encoding": "mapping",
        "key": "t_address",
        "label": "mapping(address => struct ChainlinkOracle.ChainlinkOracleParams)",
        "numberOfBytes": "32",
        "value": "t_struct(ChainlinkOracleParams)11415_storage"
      },
      "t_mapping(t_address,t_uint256)": {
        "encoding": "mapping",
        "key": "t_address",
        "label": "mapping(address => uint256)",
        "numberOfBytes": "32",
        "value": "t_uint256"
      },
      "t_mapping(t_uint256,t_address)": {
        "encoding": "mapping",
        "key": "t_uint256",
        "label": "mapping(uint256 => address)",
        "numberOfBytes": "32",
        "value": "t_address"
      },
      "t_mapping(t_uint256,t_bool)": {
        "encoding": "mapping",
        "key": "t_uint256",
        "label": "mapping(uint256 => bool)",
        "numberOfBytes": "32",
        "value": "t_bool"
      },
      "t_struct(ChainlinkOracleParams)11415_storage": {
        "encoding": "inplace",
        "label": "struct ChainlinkOracle.ChainlinkOracleParams",
        "members": [
          {
            "astId": 11410,
            "contract": "contracts/oracles/ChainlinkOracle.sol:ChainlinkOracle",
            "label": "oracle",
            "offset": 0,
            "slot": "0",
            "type": "t_contract(AggregatorV3Interface)45"
          },
          {
            "astId": 11412,
            "contract": "contracts/oracles/ChainlinkOracle.sol:ChainlinkOracle",
            "label": "oracleDecimalFactor",
            "offset": 0,
            "slot": "1",
            "type": "t_uint256"
          },
          {
            "astId": 11414,
            "contract": "contracts/oracles/ChainlinkOracle.sol:ChainlinkOracle",
            "label": "tokenDecimalFactor",
            "offset": 0,
            "slot": "2",
            "type": "t_uint256"
          }
        ],
        "numberOfBytes": "96"
      },
      "t_uint256": {
        "encoding": "inplace",
        "label": "uint256",
        "numberOfBytes": "32"
      }
    }
  }
}