{
  "address": "0xbAfE9A255F0Fa22B0cD12703242D362eeDA68cb7",
  "abi": [
    {
      "inputs": [
        {
          "internalType": "address[]",
          "name": "_toManage",
          "type": "address[]"
        },
        {
          "internalType": "address[]",
          "name": "_toDisable",
          "type": "address[]"
        },
        {
          "internalType": "address[]",
          "name": "_strategies",
          "type": "address[]"
        },
        {
          "internalType": "address",
          "name": "_roles",
          "type": "address"
        }
      ],
      "stateMutability": "nonpayable",
      "type": "constructor"
    },
    {
      "anonymous": false,
      "inputs": [
        {
          "indexed": false,
          "internalType": "string",
          "name": "param",
          "type": "string"
        },
        {
          "indexed": false,
          "internalType": "uint256",
          "name": "value",
          "type": "uint256"
        }
      ],
      "name": "ParameterUpdated",
      "type": "event"
    },
    {
      "anonymous": false,
      "inputs": [
        {
          "indexed": false,
          "internalType": "string",
          "name": "param",
          "type": "string"
        },
        {
          "indexed": false,
          "internalType": "address",
          "name": "subject",
          "type": "address"
        },
        {
          "indexed": false,
          "internalType": "uint256",
          "name": "value",
          "type": "uint256"
        }
      ],
      "name": "SubjectParameterUpdated",
      "type": "event"
    },
    {
      "anonymous": false,
      "inputs": [
        {
          "indexed": false,
          "internalType": "string",
          "name": "param",
          "type": "string"
        },
        {
          "indexed": false,
          "internalType": "address",
          "name": "subject",
          "type": "address"
        }
      ],
      "name": "SubjectUpdated",
      "type": "event"
    },
    {
      "inputs": [
        {
          "internalType": "uint256",
          "name": "",
          "type": "uint256"
        }
      ],
      "name": "_charactersPlayed",
      "outputs": [
        {
          "internalType": "uint256",
          "name": "",
          "type": "uint256"
        }
      ],
      "stateMutability": "view",
      "type": "function"
    },
    {
      "inputs": [
        {
          "internalType": "uint256",
          "name": "",
          "type": "uint256"
        }
      ],
      "name": "_dependsOnCharacters",
      "outputs": [
        {
          "internalType": "uint256",
          "name": "",
          "type": "uint256"
        }
      ],
      "stateMutability": "view",
      "type": "function"
    },
    {
      "inputs": [
        {
          "internalType": "uint256",
          "name": "",
          "type": "uint256"
        }
      ],
      "name": "_dependsOnRoles",
      "outputs": [
        {
          "internalType": "uint256",
          "name": "",
          "type": "uint256"
        }
      ],
      "stateMutability": "view",
      "type": "function"
    },
    {
      "inputs": [
        {
          "internalType": "uint256",
          "name": "",
          "type": "uint256"
        }
      ],
      "name": "_rolesPlayed",
      "outputs": [
        {
          "internalType": "uint256",
          "name": "",
          "type": "uint256"
        }
      ],
      "stateMutability": "view",
      "type": "function"
    },
    {
      "inputs": [],
      "name": "charactersPlayed",
      "outputs": [
        {
          "internalType": "uint256[]",
          "name": "",
          "type": "uint256[]"
        }
      ],
      "stateMutability": "view",
      "type": "function"
    },
    {
      "inputs": [],
      "name": "dependsOnCharacters",
      "outputs": [
        {
          "internalType": "uint256[]",
          "name": "",
          "type": "uint256[]"
        }
      ],
      "stateMutability": "view",
      "type": "function"
    },
    {
      "inputs": [],
      "name": "dependsOnRoles",
      "outputs": [
        {
          "internalType": "uint256[]",
          "name": "",
          "type": "uint256[]"
        }
      ],
      "stateMutability": "view",
      "type": "function"
    },
    {
      "inputs": [],
      "name": "execute",
      "outputs": [],
      "stateMutability": "nonpayable",
      "type": "function"
    },
    {
      "inputs": [
        {
          "internalType": "uint256",
          "name": "",
          "type": "uint256"
        }
      ],
      "name": "mainCharacterCache",
      "outputs": [
        {
          "internalType": "address",
          "name": "",
          "type": "address"
        }
      ],
      "stateMutability": "view",
      "type": "function"
    },
    {
      "inputs": [
        {
          "internalType": "address",
          "name": "",
          "type": "address"
        },
        {
          "internalType": "uint256",
          "name": "",
          "type": "uint256"
        }
      ],
      "name": "roleCache",
      "outputs": [
        {
          "internalType": "bool",
          "name": "",
          "type": "bool"
        }
      ],
      "stateMutability": "view",
      "type": "function"
    },
    {
      "inputs": [],
      "name": "roles",
      "outputs": [
        {
          "internalType": "contract Roles",
          "name": "",
          "type": "address"
        }
      ],
      "stateMutability": "view",
      "type": "function"
    },
    {
      "inputs": [],
      "name": "rolesPlayed",
      "outputs": [
        {
          "internalType": "uint256[]",
          "name": "",
          "type": "uint256[]"
        }
      ],
      "stateMutability": "view",
      "type": "function"
    },
    {
      "inputs": [
        {
          "internalType": "uint256",
          "name": "role",
          "type": "uint256"
        }
      ],
      "name": "updateMainCharacterCache",
      "outputs": [],
      "stateMutability": "nonpayable",
      "type": "function"
    },
    {
      "inputs": [
        {
          "internalType": "uint256",
          "name": "role",
          "type": "uint256"
        },
        {
          "internalType": "address",
          "name": "contr",
          "type": "address"
        }
      ],
      "name": "updateRoleCache",
      "outputs": [],
      "stateMutability": "nonpayable",
      "type": "function"
    }
  ],
  "transactionHash": "0x7069dc35cec5ca534f8b35f05ca7b150d1e39b68d7c8a0cb858f4fdb8876d417",
  "args": [
    [
      "0x2EEb97CF1F0613b5d3B5799E584253D8e5E3B68C"
    ],
    [
      "0x43f63Ce6EAE7D2fc84eAE6C1313DA07fDC2C625e"
    ],
    [],
    "0x9e1EE00d45252aA58623F7d771FB414aA38f0878"
  ],
  "numDeployments": 13,
  "solcInputHash": "c2e53b0fe4e3704a2e907c8196abbab4",
  "bytecode": "0x60a06040523480156200001157600080fd5b5060405162000d0c38038062000d0c83398101604081905262000034916200027c565b806001600160a01b0381166200009b5760405162461bcd60e51b815260206004820152602260248201527f506c656173652070726f766964652076616c696420726f6c6573206164647265604482015261737360f01b606482015260840160405180910390fd5b60601b6001600160601b0319166080526002805460018101825560009190915260687f405787fa12a823e0f2b7631cc41b3ba8828b3321ca811111fa75cd3aa3bb5ace909101558351620000f79060069060208701906200012e565b5082516200010d9060079060208601906200012e565b508151620001239060089060208501906200012e565b505050505062000332565b82805482825590600052602060002090810192821562000186579160200282015b828111156200018657825182546001600160a01b0319166001600160a01b039091161782556020909201916001909101906200014f565b506200019492915062000198565b5090565b5b8082111562000194576000815560010162000199565b80516001600160a01b0381168114620001c757600080fd5b919050565b600082601f830112620001dd578081fd5b815160206001600160401b0380831115620001fc57620001fc6200031c565b8260051b604051601f19603f830116810181811084821117156200022457620002246200031c565b6040528481528381019250868401828801850189101562000243578687fd5b8692505b8583101562000270576200025b81620001af565b84529284019260019290920191840162000247565b50979650505050505050565b6000806000806080858703121562000292578384fd5b84516001600160401b0380821115620002a9578586fd5b620002b788838901620001cc565b95506020870151915080821115620002cd578485fd5b620002db88838901620001cc565b94506040870151915080821115620002f1578384fd5b506200030087828801620001cc565b9250506200031160608601620001af565b905092959194509250565b634e487b7160e01b600052604160045260246000fd5b60805160601c6109ae6200035e6000396000818160d901528181610230015261030601526109ae6000f3fe608060405234801561001057600080fd5b50600436106100ba5760003560e01c8063071060a6146100bf578063392f5f64146100d4578063447d52ba146101115780634a7a7f411461012457806361461954146101395780636caa9c11146101415780637a1a04df146101625780637dad209b146101a0578063abcbc4fc146101a8578063aeb38d8b146101bb578063bf184ea4146101ce578063dc94cb7d146101e1578063e8ea4fae146101e9578063e9c3f77d146101f1575b600080fd5b6100d26100cd36600461089d565b61021a565b005b6100fb7f000000000000000000000000000000000000000000000000000000000000000081565b60405161010891906108e4565b60405180910390f35b6100d261011f3660046108b5565b6102e0565b61012c6103b8565b60405161010891906108f8565b6100d2610410565b61015461014f36600461089d565b6106a2565b604051908152602001610108565b610190610170366004610852565b600160209081526000928352604080842090915290825290205460ff1681565b6040519015158152602001610108565b61012c6106c3565b6101546101b636600461089d565b610719565b6101546101c936600461089d565b610729565b6101546101dc36600461089d565b610739565b61012c610749565b61012c61079f565b6100fb6101ff36600461089d565b6000602081905290815260409020546001600160a01b031681565b60405163b4ed0b6d60e01b8152600481018290527f00000000000000000000000000000000000000000000000000000000000000006001600160a01b03169063b4ed0b6d9060240160206040518083038186803b15801561027a57600080fd5b505afa15801561028e573d6000803e3d6000fd5b505050506040513d601f19601f820116820180604052508101906102b2919061082f565b60009182526020829052604090912080546001600160a01b0319166001600160a01b03909216919091179055565b60405163f0723d9760e01b81526001600160a01b038281166004830152602482018490527f0000000000000000000000000000000000000000000000000000000000000000169063f0723d979060440160206040518083038186803b15801561034857600080fd5b505afa15801561035c573d6000803e3d6000fd5b505050506040513d601f19601f82011682018060405250810190610380919061087d565b6001600160a01b0391909116600090815260016020908152604080832094835293905291909120805460ff1916911515919091179055565b6060600380548060200260200160405190810160405280929190818152602001828054801561040657602002820191906000526020600020905b8154815260200190600101908083116103f2575b5050505050905090565b3360005b6007548110156104c957816001600160a01b031663a154ce826007838154811061044e57634e487b7160e01b600052603260045260246000fd5b6000918252602090912001546040516001600160e01b031960e084901b168152610484916001600160a01b0316906004016108e4565b600060405180830381600087803b15801561049e57600080fd5b505af11580156104b2573d6000803e3d6000fd5b5050505080806104c19061093c565b915050610414565b5060005b60065481101561058257816001600160a01b031663c133923c6006838154811061050757634e487b7160e01b600052603260045260246000fd5b6000918252602090912001546040516001600160e01b031960e084901b16815261053d916001600160a01b0316906004016108e4565b600060405180830381600087803b15801561055757600080fd5b505af115801561056b573d6000803e3d6000fd5b50505050808061057a9061093c565b9150506104cd565b5060006105c0606860009081526020527faa071f48f62aaaa1f6320aaa7bd2ad2d552d05160892c14d699d38c9920d5f99546001600160a01b031690565b905060005b60085481101561067a57816001600160a01b0316633742fcc9600883815481106105ff57634e487b7160e01b600052603260045260246000fd5b6000918252602090912001546040516001600160e01b031960e084901b168152610635916001600160a01b0316906004016108e4565b600060405180830381600087803b15801561064f57600080fd5b505af1158015610663573d6000803e3d6000fd5b5050505080806106729061093c565b9150506105c5565b50610687600660006107f5565b610693600760006107f5565b61069f600860006107f5565b32ff5b600581815481106106b257600080fd5b600091825260209091200154905081565b6060600480548060200260200160405190810160405280929190818152602001828054801561040657602002820191906000526020600020908154815260200190600101908083116103f2575050505050905090565b600281815481106106b257600080fd5b600481815481106106b257600080fd5b600381815481106106b257600080fd5b6060600280548060200260200160405190810160405280929190818152602001828054801561040657602002820191906000526020600020908154815260200190600101908083116103f2575050505050905090565b6060600580548060200260200160405190810160405280929190818152602001828054801561040657602002820191906000526020600020908154815260200190600101908083116103f2575050505050905090565b50805460008255906000526020600020908101906108139190610816565b50565b5b8082111561082b5760008155600101610817565b5090565b600060208284031215610840578081fd5b815161084b81610963565b9392505050565b60008060408385031215610864578081fd5b823561086f81610963565b946020939093013593505050565b60006020828403121561088e578081fd5b8151801515811461084b578182fd5b6000602082840312156108ae578081fd5b5035919050565b600080604083850312156108c7578182fd5b8235915060208301356108d981610963565b809150509250929050565b6001600160a01b0391909116815260200190565b6020808252825182820181905260009190848201906040850190845b8181101561093057835183529284019291840191600101610914565b50909695505050505050565b600060001982141561095c57634e487b7160e01b81526011600452602481fd5b5060010190565b6001600160a01b038116811461081357600080fdfea26469706673582212207a8510580e74fabe31cb7dcdfafe9b84666261a2fd472e0e181688724558e59364736f6c63430008030033",
  "devdoc": {
    "kind": "dev",
    "methods": {
      "charactersPlayed()": {
        "details": "returns all characters played by this contract (e.g. stable coin, oracle registry)"
      },
      "dependsOnCharacters()": {
        "details": "returns all the character dependencies like FEE_RECIPIENT"
      },
      "dependsOnRoles()": {
        "details": "returns all the roles dependencies of this contract like FUND_TRANSFERER"
      },
      "rolesPlayed()": {
        "details": "returns all roles played by this contract"
      },
      "updateMainCharacterCache(uint256)": {
        "details": "Updates the main character cache for a speciic character"
      },
      "updateRoleCache(uint256,address)": {
        "details": "Updates the role cache for a specific role and address"
      }
    },
    "version": 1
  },
  "userdoc": {
    "kind": "user",
    "methods": {},
    "version": 1
  },
  "storageLayout": {
    "storage": [
      {
        "astId": 29522,
        "contract": "contracts/controller-actions/ContractManagement.sol:ContractManagement",
        "label": "mainCharacterCache",
        "offset": 0,
        "slot": "0",
        "type": "t_mapping(t_uint256,t_address)"
      },
      {
        "astId": 29528,
        "contract": "contracts/controller-actions/ContractManagement.sol:ContractManagement",
        "label": "roleCache",
        "offset": 0,
        "slot": "1",
        "type": "t_mapping(t_address,t_mapping(t_uint256,t_bool))"
      },
      {
        "astId": 29531,
        "contract": "contracts/controller-actions/ContractManagement.sol:ContractManagement",
        "label": "_dependsOnCharacters",
        "offset": 0,
        "slot": "2",
        "type": "t_array(t_uint256)dyn_storage"
      },
      {
        "astId": 29534,
        "contract": "contracts/controller-actions/ContractManagement.sol:ContractManagement",
        "label": "_dependsOnRoles",
        "offset": 0,
        "slot": "3",
        "type": "t_array(t_uint256)dyn_storage"
      },
      {
        "astId": 29537,
        "contract": "contracts/controller-actions/ContractManagement.sol:ContractManagement",
        "label": "_charactersPlayed",
        "offset": 0,
        "slot": "4",
        "type": "t_array(t_uint256)dyn_storage"
      },
      {
        "astId": 29540,
        "contract": "contracts/controller-actions/ContractManagement.sol:ContractManagement",
        "label": "_rolesPlayed",
        "offset": 0,
        "slot": "5",
        "type": "t_array(t_uint256)dyn_storage"
      },
      {
        "astId": 17044,
        "contract": "contracts/controller-actions/ContractManagement.sol:ContractManagement",
        "label": "toManage",
        "offset": 0,
        "slot": "6",
        "type": "t_array(t_address)dyn_storage"
      },
      {
        "astId": 17047,
        "contract": "contracts/controller-actions/ContractManagement.sol:ContractManagement",
        "label": "toDisable",
        "offset": 0,
        "slot": "7",
        "type": "t_array(t_address)dyn_storage"
      },
      {
        "astId": 17050,
        "contract": "contracts/controller-actions/ContractManagement.sol:ContractManagement",
        "label": "strategies",
        "offset": 0,
        "slot": "8",
        "type": "t_array(t_address)dyn_storage"
      }
    ],
    "types": {
      "t_address": {
        "encoding": "inplace",
        "label": "address",
        "numberOfBytes": "20"
      },
      "t_array(t_address)dyn_storage": {
        "base": "t_address",
        "encoding": "dynamic_array",
        "label": "address[]",
        "numberOfBytes": "32"
      },
      "t_array(t_uint256)dyn_storage": {
        "base": "t_uint256",
        "encoding": "dynamic_array",
        "label": "uint256[]",
        "numberOfBytes": "32"
      },
      "t_bool": {
        "encoding": "inplace",
        "label": "bool",
        "numberOfBytes": "1"
      },
      "t_mapping(t_address,t_mapping(t_uint256,t_bool))": {
        "encoding": "mapping",
        "key": "t_address",
        "label": "mapping(address => mapping(uint256 => bool))",
        "numberOfBytes": "32",
        "value": "t_mapping(t_uint256,t_bool)"
      },
      "t_mapping(t_uint256,t_address)": {
        "encoding": "mapping",
        "key": "t_uint256",
        "label": "mapping(uint256 => address)",
        "numberOfBytes": "32",
        "value": "t_address"
      },
      "t_mapping(t_uint256,t_bool)": {
        "encoding": "mapping",
        "key": "t_uint256",
        "label": "mapping(uint256 => bool)",
        "numberOfBytes": "32",
        "value": "t_bool"
      },
      "t_uint256": {
        "encoding": "inplace",
        "label": "uint256",
        "numberOfBytes": "32"
      }
    }
  }
}