{
  "address": "0xC1397F94587c6fE5946a20F3D74DBb02bb175e14",
  "abi": [
    {
      "inputs": [
        {
          "internalType": "address",
          "name": "_roles",
          "type": "address"
        }
      ],
      "stateMutability": "nonpayable",
      "type": "constructor"
    },
    {
      "anonymous": false,
      "inputs": [
        {
          "indexed": false,
          "internalType": "string",
          "name": "param",
          "type": "string"
        },
        {
          "indexed": false,
          "internalType": "uint256",
          "name": "value",
          "type": "uint256"
        }
      ],
      "name": "ParameterUpdated",
      "type": "event"
    },
    {
      "anonymous": false,
      "inputs": [
        {
          "indexed": false,
          "internalType": "string",
          "name": "param",
          "type": "string"
        },
        {
          "indexed": false,
          "internalType": "address",
          "name": "subject",
          "type": "address"
        },
        {
          "indexed": false,
          "internalType": "uint256",
          "name": "value",
          "type": "uint256"
        }
      ],
      "name": "SubjectParameterUpdated",
      "type": "event"
    },
    {
      "anonymous": false,
      "inputs": [
        {
          "indexed": false,
          "internalType": "string",
          "name": "param",
          "type": "string"
        },
        {
          "indexed": false,
          "internalType": "address",
          "name": "subject",
          "type": "address"
        }
      ],
      "name": "SubjectUpdated",
      "type": "event"
    },
    {
      "inputs": [
        {
          "internalType": "uint256",
          "name": "",
          "type": "uint256"
        }
      ],
      "name": "_charactersPlayed",
      "outputs": [
        {
          "internalType": "uint256",
          "name": "",
          "type": "uint256"
        }
      ],
      "stateMutability": "view",
      "type": "function"
    },
    {
      "inputs": [
        {
          "internalType": "uint256",
          "name": "",
          "type": "uint256"
        }
      ],
      "name": "_dependsOnCharacters",
      "outputs": [
        {
          "internalType": "uint256",
          "name": "",
          "type": "uint256"
        }
      ],
      "stateMutability": "view",
      "type": "function"
    },
    {
      "inputs": [
        {
          "internalType": "uint256",
          "name": "",
          "type": "uint256"
        }
      ],
      "name": "_dependsOnRoles",
      "outputs": [
        {
          "internalType": "uint256",
          "name": "",
          "type": "uint256"
        }
      ],
      "stateMutability": "view",
      "type": "function"
    },
    {
      "inputs": [
        {
          "internalType": "uint256",
          "name": "",
          "type": "uint256"
        }
      ],
      "name": "_rolesPlayed",
      "outputs": [
        {
          "internalType": "uint256",
          "name": "",
          "type": "uint256"
        }
      ],
      "stateMutability": "view",
      "type": "function"
    },
    {
      "inputs": [],
      "name": "charactersPlayed",
      "outputs": [
        {
          "internalType": "uint256[]",
          "name": "",
          "type": "uint256[]"
        }
      ],
      "stateMutability": "view",
      "type": "function"
    },
    {
      "inputs": [],
      "name": "dependsOnCharacters",
      "outputs": [
        {
          "internalType": "uint256[]",
          "name": "",
          "type": "uint256[]"
        }
      ],
      "stateMutability": "view",
      "type": "function"
    },
    {
      "inputs": [],
      "name": "dependsOnRoles",
      "outputs": [
        {
          "internalType": "uint256[]",
          "name": "",
          "type": "uint256[]"
        }
      ],
      "stateMutability": "view",
      "type": "function"
    },
    {
      "inputs": [
        {
          "internalType": "address",
          "name": "tokenFrom",
          "type": "address"
        },
        {
          "internalType": "address",
          "name": "tokenTo",
          "type": "address"
        }
      ],
      "name": "encodeAndCheckOracleParams",
      "outputs": [
        {
          "internalType": "bool",
          "name": "",
          "type": "bool"
        },
        {
          "internalType": "bytes",
          "name": "",
          "type": "bytes"
        }
      ],
      "stateMutability": "view",
      "type": "function"
    },
    {
      "inputs": [
        {
          "internalType": "address",
          "name": "token",
          "type": "address"
        },
        {
          "internalType": "uint256",
          "name": "inAmount",
          "type": "uint256"
        },
        {
          "internalType": "address",
          "name": "pegCurrency",
          "type": "address"
        }
      ],
      "name": "getAmountInPeg",
      "outputs": [
        {
          "internalType": "uint256",
          "name": "",
          "type": "uint256"
        }
      ],
      "stateMutability": "nonpayable",
      "type": "function"
    },
    {
      "inputs": [
        {
          "internalType": "address",
          "name": "token",
          "type": "address"
        },
        {
          "internalType": "uint256",
          "name": "inAmount",
          "type": "uint256"
        },
        {
          "internalType": "address",
          "name": "pegCurrency",
          "type": "address"
        }
      ],
      "name": "getPegAmountAndBorrowable",
      "outputs": [
        {
          "internalType": "uint256",
          "name": "",
          "type": "uint256"
        },
        {
          "internalType": "uint256",
          "name": "",
          "type": "uint256"
        }
      ],
      "stateMutability": "nonpayable",
      "type": "function"
    },
    {
      "inputs": [
        {
          "internalType": "uint256",
          "name": "",
          "type": "uint256"
        }
      ],
      "name": "mainCharacterCache",
      "outputs": [
        {
          "internalType": "address",
          "name": "",
          "type": "address"
        }
      ],
      "stateMutability": "view",
      "type": "function"
    },
    {
      "inputs": [
        {
          "internalType": "address",
          "name": "",
          "type": "address"
        },
        {
          "internalType": "uint256",
          "name": "",
          "type": "uint256"
        }
      ],
      "name": "roleCache",
      "outputs": [
        {
          "internalType": "bool",
          "name": "",
          "type": "bool"
        }
      ],
      "stateMutability": "view",
      "type": "function"
    },
    {
      "inputs": [],
      "name": "roles",
      "outputs": [
        {
          "internalType": "contract Roles",
          "name": "",
          "type": "address"
        }
      ],
      "stateMutability": "view",
      "type": "function"
    },
    {
      "inputs": [],
      "name": "rolesPlayed",
      "outputs": [
        {
          "internalType": "uint256[]",
          "name": "",
          "type": "uint256[]"
        }
      ],
      "stateMutability": "view",
      "type": "function"
    },
    {
      "inputs": [
        {
          "internalType": "address",
          "name": "token",
          "type": "address"
        },
        {
          "internalType": "address",
          "name": "pegCurrency",
          "type": "address"
        },
        {
          "internalType": "bytes",
          "name": "data",
          "type": "bytes"
        }
      ],
      "name": "setOracleParams",
      "outputs": [],
      "stateMutability": "nonpayable",
      "type": "function"
    },
    {
      "inputs": [
        {
          "internalType": "address",
          "name": "fromToken",
          "type": "address"
        },
        {
          "internalType": "address",
          "name": "toToken",
          "type": "address"
        }
      ],
      "name": "setOracleSpecificParams",
      "outputs": [],
      "stateMutability": "nonpayable",
      "type": "function"
    },
    {
      "inputs": [
        {
          "internalType": "uint256",
          "name": "smoothingPer10k",
          "type": "uint256"
        }
      ],
      "name": "setValueSmoothingPer10k",
      "outputs": [],
      "stateMutability": "nonpayable",
      "type": "function"
    },
    {
      "inputs": [
        {
          "internalType": "uint256",
          "name": "role",
          "type": "uint256"
        }
      ],
      "name": "updateMainCharacterCache",
      "outputs": [],
      "stateMutability": "nonpayable",
      "type": "function"
    },
    {
      "inputs": [
        {
          "internalType": "uint256",
          "name": "role",
          "type": "uint256"
        },
        {
          "internalType": "address",
          "name": "contr",
          "type": "address"
        }
      ],
      "name": "updateRoleCache",
      "outputs": [],
      "stateMutability": "nonpayable",
      "type": "function"
    },
    {
      "inputs": [
        {
          "internalType": "address",
          "name": "",
          "type": "address"
        }
      ],
      "name": "valuePer1e18",
      "outputs": [
        {
          "internalType": "uint256",
          "name": "",
          "type": "uint256"
        }
      ],
      "stateMutability": "view",
      "type": "function"
    },
    {
      "inputs": [],
      "name": "valueSmoothingPer10k",
      "outputs": [
        {
          "internalType": "uint256",
          "name": "",
          "type": "uint256"
        }
      ],
      "stateMutability": "view",
      "type": "function"
    },
    {
      "inputs": [
        {
          "internalType": "address",
          "name": "token",
          "type": "address"
        },
        {
          "internalType": "uint256",
          "name": "inAmount",
          "type": "uint256"
        },
        {
          "internalType": "address",
          "name": "pegCurrency",
          "type": "address"
        }
      ],
      "name": "viewAmountInPeg",
      "outputs": [
        {
          "internalType": "uint256",
          "name": "",
          "type": "uint256"
        }
      ],
      "stateMutability": "view",
      "type": "function"
    },
    {
      "inputs": [
        {
          "internalType": "address",
          "name": "token",
          "type": "address"
        },
        {
          "internalType": "uint256",
          "name": "inAmount",
          "type": "uint256"
        },
        {
          "internalType": "address",
          "name": "pegCurrency",
          "type": "address"
        }
      ],
      "name": "viewPegAmountAndBorrowable",
      "outputs": [
        {
          "internalType": "uint256",
          "name": "",
          "type": "uint256"
        },
        {
          "internalType": "uint256",
          "name": "",
          "type": "uint256"
        }
      ],
      "stateMutability": "view",
      "type": "function"
    }
  ],
  "transactionHash": "0xf14a38d3dd7eb246da4283cb1b79691426b2378b8bcc4512bf5ea6ee62d3a7fd",
  "args": [
    "0x9e1EE00d45252aA58623F7d771FB414aA38f0878"
  ],
  "solcInputHash": "2b7500ff017fd48a24959198658cd455",
  "bytecode": "0x60a0604052611d4c60065534801561001657600080fd5b5060405161146b38038061146b833981016040819052610035916100e8565b806001600160a01b03811661009b5760405162461bcd60e51b815260206004820152602260248201527f506c656173652070726f766964652076616c696420726f6c6573206164647265604482015261737360f01b606482015260840160405180910390fd5b60601b6001600160601b0319166080525060028054600181018255600091909152606a7f405787fa12a823e0f2b7631cc41b3ba8828b3321ca811111fa75cd3aa3bb5ace90910155610116565b6000602082840312156100f9578081fd5b81516001600160a01b038116811461010f578182fd5b9392505050565b60805160601c61131b610150600039600081816101750152818161036f015281816106b101528181610d4f0152610de7015261131b6000f3fe608060405234801561001057600080fd5b506004361061011d5760003560e01c8063071060a6146101225780630db8fd42146101375780632eb1504b1461014a57806332f42fe61461015d578063392f5f6414610170578063447d52ba146101ad5780634a7a7f41146101c05780634fcd54a4146101d5578063576cbc30146101fd5780636caa9c111461021e5780637a1a04df146102315780637dad209b1461026f578063885fa056146102775780638eaab58c1461028a578063abcbc4fc1461029d578063aeb38d8b146102b0578063b5317c5d146102c3578063bf184ea4146102cc578063d239f469146102df578063dc94cb7d14610300578063e8ea4fae14610308578063e9c3f77d14610310578063eadca63914610339575b600080fd5b6101356101303660046110c4565b610359565b005b610135610145366004610f74565b61041f565b6101356101583660046110c4565b610490565b61013561016b366004610fac565b610587565b6101977f000000000000000000000000000000000000000000000000000000000000000081565b6040516101a49190611118565b60405180910390f35b6101356101bb3660046110f4565b61068b565b6101c8610763565b6040516101a4919061112c565b6101e86101e3366004611063565b6107bb565b604080519283526020830191909152016101a4565b61021061020b366004611063565b610858565b6040519081526020016101a4565b61021061022c3660046110c4565b6108a8565b61025f61023f366004611038565b600160209081526000928352604080842090915290825290205460ff1681565b60405190151581526020016101a4565b6101c86108c9565b6101e8610285366004611063565b61091f565b610210610298366004611063565b61092d565b6102106102ab3660046110c4565b610b8f565b6102106102be3660046110c4565b610b9f565b61021060065481565b6102106102da3660046110c4565b610baf565b6102f26102ed366004610f74565b610bbf565b6040516101a4929190611170565b6101c8610c9f565b6101c8610cf5565b61019761031e3660046110c4565b6000602081905290815260409020546001600160a01b031681565b610210610347366004610f3c565b60076020526000908152604090205481565b60405163b4ed0b6d60e01b8152600481018290527f00000000000000000000000000000000000000000000000000000000000000006001600160a01b03169063b4ed0b6d9060240160206040518083038186803b1580156103b957600080fd5b505afa1580156103cd573d6000803e3d6000fd5b505050506040513d601f19601f820116820180604052508101906103f19190610f58565b60009182526020829052604090912080546001600160a01b0319166001600160a01b03909216919091179055565b33610428610d4b565b6001600160a01b0316148061044c575033610441610de3565b6001600160a01b0316145b6104715760405162461bcd60e51b8152600401610468906111cd565b60405180910390fd5b60408051602081019091526000815261048b838383610e54565b505050565b33610499610d4b565b6001600160a01b031614806104bd5750336104b2610de3565b6001600160a01b0316145b6104d95760405162461bcd60e51b8152600401610468906111cd565b8061271010156105275760405162461bcd60e51b81526020600482015260196024820152784e6565647320746f206265206c657373207468616e2031306b60381b6044820152606401610468565b600681905560408051818152600f818301526e76616c756520736d6f6f7468696e6760881b60608201526020810183905290517f3a64504f0bc0c335e2aecb78638a257e0351a3fe0370861fd54ee4190b9209339181900360800190a150565b33610590610f04565b6001600160a01b0316146105e65760405162461bcd60e51b815260206004820152601d60248201527f4e6f7420617574686f72697a656420746f20696e6974206f7261636c650000006044820152606401610468565b610627848484848080601f016020809104026020016040519081016040528093929190818152602001838380828437600092019190915250610e5492505050565b60408051818152600d818301526c6f7261636c6520706172616d7360981b60608201526001600160a01b038616602082015290517fbd64fae90eab1019a6c354538cfa598ad3d642c5b1bc8a8613bcb716723fa2d79181900360800190a150505050565b60405163f0723d9760e01b81526001600160a01b038281166004830152602482018490527f0000000000000000000000000000000000000000000000000000000000000000169063f0723d979060440160206040518083038186803b1580156106f357600080fd5b505afa158015610707573d6000803e3d6000fd5b505050506040513d601f19601f8201168201806040525081019061072b91906110a4565b6001600160a01b0391909116600090815260016020908152604080832094835293905291909120805460ff1916911515919091179055565b606060038054806020026020016040519081016040528092919081815260200182805480156107b157602002820191906000526020600020905b81548152602001906001019080831161079d575b5050505050905090565b6000806107c985858561092d565b6107d1610f04565b6001600160a01b03166315c2ba50876040518263ffffffff1660e01b81526004016107fc9190611118565b60206040518083038186803b15801561081457600080fd5b505afa158015610828573d6000803e3d6000fd5b505050506040513d601f19601f8201168201806040525081019061084c91906110dc565b91509150935093915050565b60008061086685858561092d565b90508361087b82670de0b6b3a7640000611281565b6108859190611261565b6001600160a01b03861660009081526007602052604090205590505b9392505050565b600581815481106108b857600080fd5b600091825260209091200154905081565b606060048054806020026020016040519081016040528092919081815260200182805480156107b1576020028201919060005260206000209081548152602001906001019080831161079d575050505050905090565b6000806107c9858585610858565b60405163c661065760e01b81526000600482018190529084906001600160a01b0382169063c66106579060240160206040518083038186803b15801561097257600080fd5b505afa158015610986573d6000803e3d6000fd5b505050506040513d601f19601f820116820180604052508101906109aa9190610f58565b6001600160a01b0316836001600160a01b0316146109da5760405162461bcd60e51b815260040161046890611217565b6001600160a01b03851660009081526007602052604090205480610aaa5760405163cc2b27d760e01b8152670de0b6b3a76400006004820152600060248201819052906001600160a01b0384169063cc2b27d79060440160206040518083038186803b158015610a4957600080fd5b505afa158015610a5d573d6000803e3d6000fd5b505050506040513d601f19601f82011682018060405250810190610a8191906110dc565b9050670de0b6b3a7640000610a968288611281565b610aa09190611261565b93505050506108a1565b60405163cc2b27d760e01b8152670de0b6b3a7640000600482018190526000602483015290612710906001600160a01b0385169063cc2b27d79060440160206040518083038186803b158015610aff57600080fd5b505afa158015610b13573d6000803e3d6000fd5b505050506040513d601f19601f82011682018060405250810190610b3791906110dc565b600654610b46906127106112a0565b610b509190611281565b83600654610b5e9190611281565b610b689190611249565b610b729088611281565b610b7c9190611261565b610b869190611261565b925050506108a1565b600281815481106108b857600080fd5b600481815481106108b857600080fd5b600381815481106108b857600080fd5b60405163c661065760e01b81526000600482018190529060609084906001600160a01b0382169063c66106579060240160206040518083038186803b158015610c0757600080fd5b505afa158015610c1b573d6000803e3d6000fd5b505050506040513d601f19601f82011682018060405250810190610c3f9190610f58565b6001600160a01b0316846001600160a01b031614610c6f5760405162461bcd60e51b815260040161046890611217565b505050506001600160a01b0316600090815260076020908152604080832054815192830190915291815290151591565b606060028054806020026020016040519081016040528092919081815260200182805480156107b1576020028201919060005260206000209081548152602001906001019080831161079d575050505050905090565b606060058054806020026020016040519081016040528092919081815260200182805480156107b1576020028201919060005260206000209081548152602001906001019080831161079d575050505050905090565b60007f00000000000000000000000000000000000000000000000000000000000000006001600160a01b0316638da5cb5b6040518163ffffffff1660e01b815260040160206040518083038186803b158015610da657600080fd5b505afa158015610dba573d6000803e3d6000fd5b505050506040513d601f19601f82011682018060405250810190610dde9190610f58565b905090565b60007f00000000000000000000000000000000000000000000000000000000000000006001600160a01b031663c34c08e56040518163ffffffff1660e01b8152600401602060405180830381600087803b158015610e4057600080fd5b505af1158015610dba573d6000803e3d6000fd5b60405163c661065760e01b81526000600482015283906001600160a01b0382169063c66106579060240160206040518083038186803b158015610e9657600080fd5b505afa158015610eaa573d6000803e3d6000fd5b505050506040513d601f19601f82011682018060405250810190610ece9190610f58565b6001600160a01b0316836001600160a01b031614610efe5760405162461bcd60e51b815260040161046890611217565b50505050565b606a60009081526020527ff3261457f4fd0b7c00a1511877ab27b74183ac470be8db3a7ecdc64335f6f979546001600160a01b031690565b600060208284031215610f4d578081fd5b81356108a1816112cd565b600060208284031215610f69578081fd5b81516108a1816112cd565b60008060408385031215610f86578081fd5b8235610f91816112cd565b91506020830135610fa1816112cd565b809150509250929050565b60008060008060608587031215610fc1578182fd5b8435610fcc816112cd565b93506020850135610fdc816112cd565b925060408501356001600160401b0380821115610ff7578384fd5b818701915087601f83011261100a578384fd5b813581811115611018578485fd5b886020828501011115611029578485fd5b95989497505060200194505050565b6000806040838503121561104a578182fd5b8235611055816112cd565b946020939093013593505050565b600080600060608486031215611077578283fd5b8335611082816112cd565b9250602084013591506040840135611099816112cd565b809150509250925092565b6000602082840312156110b5578081fd5b815180151581146108a1578182fd5b6000602082840312156110d5578081fd5b5035919050565b6000602082840312156110ed578081fd5b5051919050565b60008060408385031215611106578182fd5b823591506020830135610fa1816112cd565b6001600160a01b0391909116815260200190565b6020808252825182820181905260009190848201906040850190845b8181101561116457835183529284019291840191600101611148565b50909695505050505050565b6000831515825260206040818401528351806040850152825b818110156111a557858101830151858201606001528201611189565b818111156111b65783606083870101525b50601f01601f191692909201606001949350505050565b6020808252602a908201527f526f6c65733a2063616c6c6572206973206e6f7420746865206f776e6572206f604082015269391032bc32b1baba37b960b11b606082015260800190565b60208082526018908201527704f6e6c79206d61702070726963657320746f20636f696e360441b604082015260600190565b6000821982111561125c5761125c6112b7565b500190565b60008261127c57634e487b7160e01b81526012600452602481fd5b500490565b600081600019048311821515161561129b5761129b6112b7565b500290565b6000828210156112b2576112b26112b7565b500390565b634e487b7160e01b600052601160045260246000fd5b6001600160a01b03811681146112e257600080fd5b5056fea2646970667358221220e9a1073f497d60a346cc5f98341529ac5ae85c966d912e3e7b730d1742c9d9dc64736f6c63430008030033",
  "devdoc": {
    "kind": "dev",
    "methods": {
      "charactersPlayed()": {
        "details": "returns all characters played by this contract (e.g. stable coin, oracle registry)"
      },
      "dependsOnCharacters()": {
        "details": "returns all the character dependencies like FEE_RECIPIENT"
      },
      "dependsOnRoles()": {
        "details": "returns all the roles dependencies of this contract like FUND_TRANSFERER"
      },
      "rolesPlayed()": {
        "details": "returns all roles played by this contract"
      },
      "updateMainCharacterCache(uint256)": {
        "details": "Updates the main character cache for a speciic character"
      },
      "updateRoleCache(uint256,address)": {
        "details": "Updates the role cache for a specific role and address"
      }
    },
    "version": 1
  },
  "userdoc": {
    "kind": "user",
    "methods": {
      "encodeAndCheckOracleParams(address,address)": {
        "notice": "Encode params for initialization"
      },
      "getAmountInPeg(address,uint256,address)": {
        "notice": "Convert inAmount to peg (updating)"
      },
      "setOracleSpecificParams(address,address)": {
        "notice": "Set params"
      },
      "viewAmountInPeg(address,uint256,address)": {
        "notice": "Convert inAmount to peg (view)"
      }
    },
    "version": 1
  },
  "storageLayout": {
    "storage": [
      {
        "astId": 19581,
        "contract": "contracts/oracles/CurveLPTOracle.sol:CurveLPTOracle",
        "label": "mainCharacterCache",
        "offset": 0,
        "slot": "0",
        "type": "t_mapping(t_uint256,t_address)"
      },
      {
        "astId": 19587,
        "contract": "contracts/oracles/CurveLPTOracle.sol:CurveLPTOracle",
        "label": "roleCache",
        "offset": 0,
        "slot": "1",
        "type": "t_mapping(t_address,t_mapping(t_uint256,t_bool))"
      },
      {
        "astId": 19590,
        "contract": "contracts/oracles/CurveLPTOracle.sol:CurveLPTOracle",
        "label": "_dependsOnCharacters",
        "offset": 0,
        "slot": "2",
        "type": "t_array(t_uint256)dyn_storage"
      },
      {
        "astId": 19593,
        "contract": "contracts/oracles/CurveLPTOracle.sol:CurveLPTOracle",
        "label": "_dependsOnRoles",
        "offset": 0,
        "slot": "3",
        "type": "t_array(t_uint256)dyn_storage"
      },
      {
        "astId": 19596,
        "contract": "contracts/oracles/CurveLPTOracle.sol:CurveLPTOracle",
        "label": "_charactersPlayed",
        "offset": 0,
        "slot": "4",
        "type": "t_array(t_uint256)dyn_storage"
      },
      {
        "astId": 19599,
        "contract": "contracts/oracles/CurveLPTOracle.sol:CurveLPTOracle",
        "label": "_rolesPlayed",
        "offset": 0,
        "slot": "5",
        "type": "t_array(t_uint256)dyn_storage"
      },
      {
        "astId": 15903,
        "contract": "contracts/oracles/CurveLPTOracle.sol:CurveLPTOracle",
        "label": "valueSmoothingPer10k",
        "offset": 0,
        "slot": "6",
        "type": "t_uint256"
      },
      {
        "astId": 15907,
        "contract": "contracts/oracles/CurveLPTOracle.sol:CurveLPTOracle",
        "label": "valuePer1e18",
        "offset": 0,
        "slot": "7",
        "type": "t_mapping(t_address,t_uint256)"
      }
    ],
    "types": {
      "t_address": {
        "encoding": "inplace",
        "label": "address",
        "numberOfBytes": "20"
      },
      "t_array(t_uint256)dyn_storage": {
        "base": "t_uint256",
        "encoding": "dynamic_array",
        "label": "uint256[]",
        "numberOfBytes": "32"
      },
      "t_bool": {
        "encoding": "inplace",
        "label": "bool",
        "numberOfBytes": "1"
      },
      "t_mapping(t_address,t_mapping(t_uint256,t_bool))": {
        "encoding": "mapping",
        "key": "t_address",
        "label": "mapping(address => mapping(uint256 => bool))",
        "numberOfBytes": "32",
        "value": "t_mapping(t_uint256,t_bool)"
      },
      "t_mapping(t_address,t_uint256)": {
        "encoding": "mapping",
        "key": "t_address",
        "label": "mapping(address => uint256)",
        "numberOfBytes": "32",
        "value": "t_uint256"
      },
      "t_mapping(t_uint256,t_address)": {
        "encoding": "mapping",
        "key": "t_uint256",
        "label": "mapping(uint256 => address)",
        "numberOfBytes": "32",
        "value": "t_address"
      },
      "t_mapping(t_uint256,t_bool)": {
        "encoding": "mapping",
        "key": "t_uint256",
        "label": "mapping(uint256 => bool)",
        "numberOfBytes": "32",
        "value": "t_bool"
      },
      "t_uint256": {
        "encoding": "inplace",
        "label": "uint256",
        "numberOfBytes": "32"
      }
    }
  }
}