{
  "address": "0xf07EC2edA3cbbc617f6381d071683b896454AF25",
  "abi": [
    {
      "inputs": [
        {
          "internalType": "address",
          "name": "_roles",
          "type": "address"
        }
      ],
      "stateMutability": "nonpayable",
      "type": "constructor"
    },
    {
      "inputs": [
        {
          "internalType": "uint256",
          "name": "",
          "type": "uint256"
        }
      ],
      "name": "_charactersPlayed",
      "outputs": [
        {
          "internalType": "uint256",
          "name": "",
          "type": "uint256"
        }
      ],
      "stateMutability": "view",
      "type": "function"
    },
    {
      "inputs": [
        {
          "internalType": "uint256",
          "name": "",
          "type": "uint256"
        }
      ],
      "name": "_dependsOnCharacters",
      "outputs": [
        {
          "internalType": "uint256",
          "name": "",
          "type": "uint256"
        }
      ],
      "stateMutability": "view",
      "type": "function"
    },
    {
      "inputs": [
        {
          "internalType": "uint256",
          "name": "",
          "type": "uint256"
        }
      ],
      "name": "_dependsOnRoles",
      "outputs": [
        {
          "internalType": "uint256",
          "name": "",
          "type": "uint256"
        }
      ],
      "stateMutability": "view",
      "type": "function"
    },
    {
      "inputs": [
        {
          "internalType": "uint256",
          "name": "",
          "type": "uint256"
        }
      ],
      "name": "_rolesPlayed",
      "outputs": [
        {
          "internalType": "uint256",
          "name": "",
          "type": "uint256"
        }
      ],
      "stateMutability": "view",
      "type": "function"
    },
    {
      "inputs": [],
      "name": "allManagedContracts",
      "outputs": [
        {
          "internalType": "address[]",
          "name": "",
          "type": "address[]"
        }
      ],
      "stateMutability": "view",
      "type": "function"
    },
    {
      "inputs": [
        {
          "internalType": "address",
          "name": "",
          "type": "address"
        },
        {
          "internalType": "uint256",
          "name": "",
          "type": "uint256"
        }
      ],
      "name": "characterDependenciesByContr",
      "outputs": [
        {
          "internalType": "uint256",
          "name": "",
          "type": "uint256"
        }
      ],
      "stateMutability": "view",
      "type": "function"
    },
    {
      "inputs": [],
      "name": "charactersPlayed",
      "outputs": [
        {
          "internalType": "uint256[]",
          "name": "",
          "type": "uint256[]"
        }
      ],
      "stateMutability": "view",
      "type": "function"
    },
    {
      "inputs": [],
      "name": "currentExecutor",
      "outputs": [
        {
          "internalType": "address",
          "name": "",
          "type": "address"
        }
      ],
      "stateMutability": "view",
      "type": "function"
    },
    {
      "inputs": [],
      "name": "dependsOnCharacters",
      "outputs": [
        {
          "internalType": "uint256[]",
          "name": "",
          "type": "uint256[]"
        }
      ],
      "stateMutability": "view",
      "type": "function"
    },
    {
      "inputs": [],
      "name": "dependsOnRoles",
      "outputs": [
        {
          "internalType": "uint256[]",
          "name": "",
          "type": "uint256[]"
        }
      ],
      "stateMutability": "view",
      "type": "function"
    },
    {
      "inputs": [
        {
          "internalType": "address",
          "name": "contr",
          "type": "address"
        }
      ],
      "name": "disableContract",
      "outputs": [],
      "stateMutability": "nonpayable",
      "type": "function"
    },
    {
      "inputs": [
        {
          "internalType": "address",
          "name": "executor",
          "type": "address"
        }
      ],
      "name": "executeAsOwner",
      "outputs": [],
      "stateMutability": "nonpayable",
      "type": "function"
    },
    {
      "inputs": [
        {
          "internalType": "uint256",
          "name": "role",
          "type": "uint256"
        },
        {
          "internalType": "address",
          "name": "actor",
          "type": "address"
        }
      ],
      "name": "giveRole",
      "outputs": [],
      "stateMutability": "nonpayable",
      "type": "function"
    },
    {
      "inputs": [
        {
          "internalType": "uint256",
          "name": "",
          "type": "uint256"
        }
      ],
      "name": "mainCharacterCache",
      "outputs": [
        {
          "internalType": "address",
          "name": "",
          "type": "address"
        }
      ],
      "stateMutability": "view",
      "type": "function"
    },
    {
      "inputs": [
        {
          "internalType": "address",
          "name": "contr",
          "type": "address"
        }
      ],
      "name": "manageContract",
      "outputs": [],
      "stateMutability": "nonpayable",
      "type": "function"
    },
    {
      "inputs": [
        {
          "internalType": "uint256",
          "name": "role",
          "type": "uint256"
        },
        {
          "internalType": "address",
          "name": "actor",
          "type": "address"
        }
      ],
      "name": "removeRole",
      "outputs": [],
      "stateMutability": "nonpayable",
      "type": "function"
    },
    {
      "inputs": [
        {
          "internalType": "address",
          "name": "contract2Disable",
          "type": "address"
        },
        {
          "internalType": "address",
          "name": "contract2Enable",
          "type": "address"
        }
      ],
      "name": "replaceContract",
      "outputs": [],
      "stateMutability": "nonpayable",
      "type": "function"
    },
    {
      "inputs": [
        {
          "internalType": "address",
          "name": "",
          "type": "address"
        },
        {
          "internalType": "uint256",
          "name": "",
          "type": "uint256"
        }
      ],
      "name": "roleCache",
      "outputs": [
        {
          "internalType": "bool",
          "name": "",
          "type": "bool"
        }
      ],
      "stateMutability": "view",
      "type": "function"
    },
    {
      "inputs": [
        {
          "internalType": "address",
          "name": "",
          "type": "address"
        },
        {
          "internalType": "uint256",
          "name": "",
          "type": "uint256"
        }
      ],
      "name": "roleDependenciesByContr",
      "outputs": [
        {
          "internalType": "uint256",
          "name": "",
          "type": "uint256"
        }
      ],
      "stateMutability": "view",
      "type": "function"
    },
    {
      "inputs": [],
      "name": "roles",
      "outputs": [
        {
          "internalType": "contract Roles",
          "name": "",
          "type": "address"
        }
      ],
      "stateMutability": "view",
      "type": "function"
    },
    {
      "inputs": [],
      "name": "rolesPlayed",
      "outputs": [
        {
          "internalType": "uint256[]",
          "name": "",
          "type": "uint256[]"
        }
      ],
      "stateMutability": "view",
      "type": "function"
    },
    {
      "inputs": [
        {
          "internalType": "uint256",
          "name": "role",
          "type": "uint256"
        },
        {
          "internalType": "address",
          "name": "actor",
          "type": "address"
        }
      ],
      "name": "setMainCharacter",
      "outputs": [],
      "stateMutability": "nonpayable",
      "type": "function"
    },
    {
      "inputs": [
        {
          "internalType": "address",
          "name": "contr",
          "type": "address"
        }
      ],
      "name": "updateCaches",
      "outputs": [],
      "stateMutability": "nonpayable",
      "type": "function"
    },
    {
      "inputs": [
        {
          "internalType": "uint256",
          "name": "character",
          "type": "uint256"
        }
      ],
      "name": "updateMainCharacterCache",
      "outputs": [],
      "stateMutability": "nonpayable",
      "type": "function"
    },
    {
      "inputs": [
        {
          "internalType": "uint256",
          "name": "role",
          "type": "uint256"
        },
        {
          "internalType": "address",
          "name": "contr",
          "type": "address"
        }
      ],
      "name": "updateRoleCache",
      "outputs": [],
      "stateMutability": "nonpayable",
      "type": "function"
    }
  ],
  "transactionHash": "0x9ae55bdaeb2ce0b1e3aee71b30a0e6fb105617c031a3e08d21354d2e51af7cfc",
  "args": [
    "0x4F6ed22C558B462BA35Bb0F6FeB99600964310D7"
  ],
  "solcInputHash": "49de3c0ae1b6f2c0098f9389f4b75969",
  "bytecode": "0x60a06040523480156200001157600080fd5b506040516200238b3803806200238b8339810160408190526200003491620000b2565b806001600160a01b0381166200009b5760405162461bcd60e51b815260206004820152602260248201527f506c656173652070726f766964652076616c696420726f6c6573206164647265604482015261737360f01b606482015260840160405180910390fd5b60601b6001600160601b03191660805250620000e2565b600060208284031215620000c4578081fd5b81516001600160a01b0381168114620000db578182fd5b9392505050565b60805160601c61224b62000140600039600081816101e901528181610bf10152818161113a015281816111cd015281816113480152818161148001528181611a8401528181611b0501528181611b8e0152611be3015261224b6000f3fe608060405234801561001057600080fd5b50600436106101735760003560e01c8063713dade2116100de578063abcbc4fc11610097578063c133923c11610071578063c133923c14610370578063dc94cb7d14610383578063e8ea4fae1461038b578063e9c3f77d1461039357610173565b8063abcbc4fc14610337578063aeb38d8b1461034a578063bf184ea41461035d57610173565b8063713dade2146102a55780637a1a04df146102b85780637dad209b146102f65780638dbede6c146102fe578063a154ce8214610311578063a1fdc4581461032457610173565b8063421b705c11610130578063421b705c14610223578063447d52ba146102445780634a7a7f41146102575780634d5377691461026c5780636b60a09b1461027f5780636caa9c111461029257610173565b8063071060a6146101785780631023d3e01461018d5780631ea9e5a1146101ab57806325398f83146101be5780633238405b146101d1578063392f5f64146101e4575b600080fd5b61018b61018636600461204d565b6103bc565b005b610195610463565b6040516101a29190612089565b60405180910390f35b61018b6101b9366004611f0a565b610474565b61018b6101cc366004612065565b6104dc565b61018b6101df366004612065565b61052f565b61020b7f000000000000000000000000000000000000000000000000000000000000000081565b6040516001600160a01b0390911681526020016101a2565b610236610231366004611f42565b61059c565b6040519081526020016101a2565b61018b610252366004612065565b6105cd565b61025f61067a565b6040516101a291906120d6565b61018b61027a366004612065565b6106d2565b60065461020b906001600160a01b031681565b6102366102a036600461204d565b610725565b61018b6102b3366004611ed2565b610746565b6102e66102c6366004611f42565b600160209081526000928352604080842090915290825290205460ff1681565b60405190151581526020016101a2565b61025f610921565b61023661030c366004611f42565b610977565b61018b61031f366004611ed2565b610993565b61018b610332366004611ed2565b610a02565b61023661034536600461204d565b610fd8565b61023661035836600461204d565b610fe8565b61023661036b36600461204d565b610ff8565b61018b61037e366004611ed2565b611008565b61025f61105a565b61025f6110b0565b61020b6103a136600461204d565b6000602081905290815260409020546001600160a01b031681565b6000818152600c60205260408120906103d482611106565b905060005b8082111561045d576103eb8382611116565b6001600160a01b031663071060a6856040518263ffffffff1660e01b815260040161041891815260200190565b600060405180830381600087803b15801561043257600080fd5b505af1158015610446573d6000803e3d6000fd5b505050508080610455906121b9565b9150506103d9565b50505050565b606061046f6007611129565b905090565b3361047d611136565b6001600160a01b031614806104a15750336104966111c9565b6001600160a01b0316145b6104c65760405162461bcd60e51b81526004016104bd9061210e565b60405180910390fd5b6104cf8261123a565b6104d881611689565b5050565b336104e5611136565b6001600160a01b031614806105095750336104fe6111c9565b6001600160a01b0316145b6105255760405162461bcd60e51b81526004016104bd9061210e565b6104d88282611a45565b33610538611136565b6001600160a01b0316148061055c5750336105516111c9565b6001600160a01b0316145b8061057657503361056b611aeb565b6001600160a01b0316145b6105925760405162461bcd60e51b81526004016104bd90612145565b6104d88282611b4f565b600a60205281600052604060002081815481106105b857600080fd5b90600052602060002001600091509150505481565b6000828152600b60205260408120906105e582611106565b905060005b80821115610673576105fc8382611116565b60405163223ea95d60e11b8152600481018790526001600160a01b038681166024830152919091169063447d52ba90604401600060405180830381600087803b15801561064857600080fd5b505af115801561065c573d6000803e3d6000fd5b50505050808061066b906121b9565b9150506105ea565b5050505050565b606060038054806020026020016040519081016040528092919081815260200182805480156106c857602002820191906000526020600020905b8154815260200190600101908083116106b4575b5050505050905090565b336106db611136565b6001600160a01b031614806106ff5750336106f46111c9565b6001600160a01b0316145b61071b5760405162461bcd60e51b81526004016104bd9061210e565b6104d88282611bbd565b6005818154811061073557600080fd5b600091825260209091200154905081565b6001600160a01b0381166000908152600a60205260408120805490915b8082111561080857836001600160a01b031663071060a684838154811061079a57634e487b7160e01b600052603260045260246000fd5b90600052602060002001546040518263ffffffff1660e01b81526004016107c391815260200190565b600060405180830381600087803b1580156107dd57600080fd5b505af11580156107f1573d6000803e3d6000fd5b505050508080610800906121b9565b915050610763565b50506001600160a01b03821660009081526009602052604081208054915b8083111561067357600082828154811061085057634e487b7160e01b600052603260045260246000fd5b6000918252602080832090910154808352600d90915260408220909250905b8061087983611106565b111561090b576001600160a01b03881663447d52ba846108998585611116565b6040516001600160e01b031960e085901b16815260048101929092526001600160a01b03166024820152604401600060405180830381600087803b1580156108e057600080fd5b505af11580156108f4573d6000803e3d6000fd5b505050508080610903906121b9565b91505061086f565b5050508080610919906121b9565b915050610826565b606060048054806020026020016040519081016040528092919081815260200182805480156106c857602002820191906000526020600020908154815260200190600101908083116106b4575050505050905090565b600960205281600052604060002081815481106105b857600080fd5b3361099c611136565b6001600160a01b031614806109c05750336109b56111c9565b6001600160a01b0316145b806109da5750336109cf611aeb565b6001600160a01b0316145b6109f65760405162461bcd60e51b81526004016104bd90612145565b6109ff8161123a565b50565b33610a0b611136565b6001600160a01b03161480610a2f575033610a246111c9565b6001600160a01b0316145b610a4b5760405162461bcd60e51b81526004016104bd9061210e565b6000816001600160a01b031663e8ea4fae6040518163ffffffff1660e01b815260040160006040518083038186803b158015610a8657600080fd5b505afa158015610a9a573d6000803e3d6000fd5b505050506040513d6000823e601f3d908101601f19168201604052610ac29190810190611f6d565b90506000826001600160a01b0316637dad209b6040518163ffffffff1660e01b815260040160006040518083038186803b158015610aff57600080fd5b505afa158015610b13573d6000803e3d6000fd5b505050506040513d6000823e601f3d908101601f19168201604052610b3b9190810190611f6d565b90506000815167ffffffffffffffff811115610b6757634e487b7160e01b600052604160045260246000fd5b604051908082528060200260200182016040528015610b90578160200160208202803683370190505b50905060005b8084511115610be257610bd0848281518110610bc257634e487b7160e01b600052603260045260246000fd5b602002602001015186611a45565b80610bda816121b9565b915050610b96565b5060005b8083511115610d37577f00000000000000000000000000000000000000000000000000000000000000006001600160a01b031663b4ed0b6d848381518110610c3e57634e487b7160e01b600052603260045260246000fd5b60200260200101516040518263ffffffff1660e01b8152600401610c6491815260200190565b60206040518083038186803b158015610c7c57600080fd5b505afa158015610c90573d6000803e3d6000fd5b505050506040513d601f19601f82011682018060405250810190610cb49190611eee565b828281518110610cd457634e487b7160e01b600052603260045260246000fd5b60200260200101906001600160a01b031690816001600160a01b031681525050610d25838281518110610d1757634e487b7160e01b600052603260045260246000fd5b602002602001015186611bbd565b80610d2f816121b9565b915050610be6565b506000846001600160a01b031663dc94cb7d6040518163ffffffff1660e01b815260040160006040518083038186803b158015610d7357600080fd5b505afa158015610d87573d6000803e3d6000fd5b505050506040513d6000823e601f3d908101601f19168201604052610daf9190810190611f6d565b90506000856001600160a01b0316634a7a7f416040518163ffffffff1660e01b815260040160006040518083038186803b158015610dec57600080fd5b505afa158015610e00573d6000803e3d6000fd5b505050506040513d6000823e601f3d908101601f19168201604052610e289190810190611f6d565b6001600160a01b0387166000908152600a602090815260409091208451929350610e56929091850190611e72565b506001600160a01b03861660009081526009602090815260409091208251610e8092840190611e72565b50610e8a86610746565b600680546001600160a01b0319166001600160a01b03881690811790915560408051631851865560e21b8152905163614619549160048082019260009290919082900301818387803b158015610edf57600080fd5b505af1158015610ef3573d6000803e3d6000fd5b5050600680546001600160a01b03191690555050845160005b80821115610f5757610f45878281518110610f3757634e487b7160e01b600052603260045260246000fd5b602002602001015189611b4f565b80610f4f816121b9565b915050610f0c565b5060005b8086511115610fce57610fbc868281518110610f8757634e487b7160e01b600052603260045260246000fd5b6020026020010151868381518110610faf57634e487b7160e01b600052603260045260246000fd5b6020026020010151611bbd565b80610fc6816121b9565b915050610f5b565b5050505050505050565b6002818154811061073557600080fd5b6004818154811061073557600080fd5b6003818154811061073557600080fd5b33611011611136565b6001600160a01b0316148061103557503361102a6111c9565b6001600160a01b0316145b6110515760405162461bcd60e51b81526004016104bd9061210e565b6109ff81611689565b606060028054806020026020016040519081016040528092919081815260200182805480156106c857602002820191906000526020600020908154815260200190600101908083116106b4575050505050905090565b606060058054806020026020016040519081016040528092919081815260200182805480156106c857602002820191906000526020600020908154815260200190600101908083116106b4575050505050905090565b6000611110825490565b92915050565b60006111228383611c48565b9392505050565b6060600061112283611c80565b60007f00000000000000000000000000000000000000000000000000000000000000006001600160a01b0316638da5cb5b6040518163ffffffff1660e01b815260040160206040518083038186803b15801561119157600080fd5b505afa1580156111a5573d6000803e3d6000fd5b505050506040513d601f19601f8201168201806040525081019061046f9190611eee565b60007f00000000000000000000000000000000000000000000000000000000000000006001600160a01b031663c34c08e56040518163ffffffff1660e01b8152600401602060405180830381600087803b15801561122657600080fd5b505af11580156111a5573d6000803e3d6000fd5b611245600782611cdc565b506000816001600160a01b0316637dad209b6040518163ffffffff1660e01b815260040160006040518083038186803b15801561128157600080fd5b505afa158015611295573d6000803e3d6000fd5b505050506040513d6000823e601f3d908101601f191682016040526112bd9190810190611f6d565b90506000826001600160a01b031663e8ea4fae6040518163ffffffff1660e01b815260040160006040518083038186803b1580156112fa57600080fd5b505afa15801561130e573d6000803e3d6000fd5b505050506040513d6000823e601f3d908101601f191682016040526113369190810190611f6d565b805190915060005b80821115611465577f00000000000000000000000000000000000000000000000000000000000000006001600160a01b03166393552a3d84838151811061139557634e487b7160e01b600052603260045260246000fd5b6020026020010151876040518363ffffffff1660e01b81526004016113cd9291909182526001600160a01b0316602082015260400190565b60206040518083038186803b1580156113e557600080fd5b505afa1580156113f9573d6000803e3d6000fd5b505050506040513d601f19601f8201168201806040525081019061141d919061202d565b156114535761145383828151811061144557634e487b7160e01b600052603260045260246000fd5b602002602001015186611b4f565b8061145d816121b9565b91505061133e565b5050815160005b8082111561159657846001600160a01b03167f00000000000000000000000000000000000000000000000000000000000000006001600160a01b031663b4ed0b6d8684815181106114cd57634e487b7160e01b600052603260045260246000fd5b60200260200101516040518263ffffffff1660e01b81526004016114f391815260200190565b60206040518083038186803b15801561150b57600080fd5b505afa15801561151f573d6000803e3d6000fd5b505050506040513d601f19601f820116820180604052508101906115439190611eee565b6001600160a01b031614156115845761158484828151811061157557634e487b7160e01b600052603260045260246000fd5b60200260200101516000611bbd565b8061158e816121b9565b91505061146c565b50506001600160a01b0383166000908152600a602052604081208054915b8083111561161e5761160b86600c60008585815481106115e457634e487b7160e01b600052603260045260246000fd5b90600052602060002001548152602001908152602001600020611cdc90919063ffffffff16565b5080611616816121b9565b9150506115b4565b506001600160a01b038516600090815260096020526040812080549350905b808411156116805761166d87600b60008585815481106115e457634e487b7160e01b600052603260045260246000fd5b5080611678816121b9565b91505061163d565b50505050505050565b611694600782611cf1565b506000816001600160a01b0316637dad209b6040518163ffffffff1660e01b815260040160006040518083038186803b1580156116d057600080fd5b505afa1580156116e4573d6000803e3d6000fd5b505050506040513d6000823e601f3d908101601f1916820160405261170c9190810190611f6d565b90506000826001600160a01b031663e8ea4fae6040518163ffffffff1660e01b815260040160006040518083038186803b15801561174957600080fd5b505afa15801561175d573d6000803e3d6000fd5b505050506040513d6000823e601f3d908101601f191682016040526117859190810190611f6d565b825190915060005b808211156117de5760008482815181106117b757634e487b7160e01b600052603260045260246000fd5b602002602001015190506117cb8187611bbd565b50806117d6816121b9565b91505061178d565b5050805160005b8082111561183657600083828151811061180f57634e487b7160e01b600052603260045260246000fd5b602002602001015190506118238187611a45565b508061182e816121b9565b9150506117e5565b506000846001600160a01b031663dc94cb7d6040518163ffffffff1660e01b815260040160006040518083038186803b15801561187257600080fd5b505afa158015611886573d6000803e3d6000fd5b505050506040513d6000823e601f3d908101601f191682016040526118ae9190810190611f6d565b90506000856001600160a01b0316634a7a7f416040518163ffffffff1660e01b815260040160006040518083038186803b1580156118eb57600080fd5b505afa1580156118ff573d6000803e3d6000fd5b505050506040513d6000823e601f3d908101601f191682016040526119279190810190611f6d565b6001600160a01b0387166000908152600a602090815260409091208451929350611955929091850190611e72565b506001600160a01b0386166000908152600960209081526040909120825161197f92840190611e72565b5060005b80835111156119eb576119d887600c60008685815181106119b457634e487b7160e01b600052603260045260246000fd5b60200260200101518152602001908152602001600020611cf190919063ffffffff16565b50806119e3816121b9565b915050611983565b5060005b8082511115611a3357611a2087600b60008585815181106119b457634e487b7160e01b600052603260045260246000fd5b5080611a2b816121b9565b9150506119ef565b50611a3d86610746565b505050505050565b6000828152600d60205260409020611a5d9082611cf1565b506040516325398f8360e01b8152600481018390526001600160a01b0382811660248301527f000000000000000000000000000000000000000000000000000000000000000016906325398f83906044015b600060405180830381600087803b158015611ac957600080fd5b505af1158015611add573d6000803e3d6000fd5b505050506104d882826105cd565b60405163b4ed0b6d60e01b81526103e960048201526000907f00000000000000000000000000000000000000000000000000000000000000006001600160a01b03169063b4ed0b6d9060240160206040518083038186803b15801561119157600080fd5b6000828152600d60205260409020611b679082611cdc565b50604051633238405b60e01b8152600481018390526001600160a01b0382811660248301527f00000000000000000000000000000000000000000000000000000000000000001690633238405b90604401611aaf565b604051634d53776960e01b8152600481018390526001600160a01b0382811660248301527f00000000000000000000000000000000000000000000000000000000000000001690634d53776990604401600060405180830381600087803b158015611c2757600080fd5b505af1158015611c3b573d6000803e3d6000fd5b505050506104d8826103bc565b6000826000018281548110611c6d57634e487b7160e01b600052603260045260246000fd5b9060005260206000200154905092915050565b606081600001805480602002602001604051908101604052809291908181526020018280548015611cd057602002820191906000526020600020905b815481526020019060010190808311611cbc575b50505050509050919050565b6000611122836001600160a01b038416611d06565b6000611122836001600160a01b038416611e23565b60008181526001830160205260408120548015611e19576000611d2a6001836121a2565b8554909150600090611d3e906001906121a2565b9050818114611dbf576000866000018281548110611d6c57634e487b7160e01b600052603260045260246000fd5b9060005260206000200154905080876000018481548110611d9d57634e487b7160e01b600052603260045260246000fd5b6000918252602080832090910192909255918252600188019052604090208390555b8554869080611dde57634e487b7160e01b600052603160045260246000fd5b600190038181906000526020600020016000905590558560010160008681526020019081526020016000206000905560019350505050611110565b6000915050611110565b6000818152600183016020526040812054611e6a57508154600181810184556000848152602080822090930184905584548482528286019093526040902091909155611110565b506000611110565b828054828255906000526020600020908101928215611ead579160200282015b82811115611ead578251825591602001919060010190611e92565b50611eb9929150611ebd565b5090565b5b80821115611eb95760008155600101611ebe565b600060208284031215611ee3578081fd5b813561112281612200565b600060208284031215611eff578081fd5b815161112281612200565b60008060408385031215611f1c578081fd5b8235611f2781612200565b91506020830135611f3781612200565b809150509250929050565b60008060408385031215611f54578182fd5b8235611f5f81612200565b946020939093013593505050565b60006020808385031215611f7f578182fd5b825167ffffffffffffffff80821115611f96578384fd5b818501915085601f830112611fa9578384fd5b815181811115611fbb57611fbb6121ea565b8060051b604051601f19603f83011681018181108582111715611fe057611fe06121ea565b604052828152858101935084860182860187018a1015611ffe578788fd5b8795505b83861015612020578051855260019590950194938601938601612002565b5098975050505050505050565b60006020828403121561203e578081fd5b81518015158114611122578182fd5b60006020828403121561205e578081fd5b5035919050565b60008060408385031215612077578182fd5b823591506020830135611f3781612200565b6020808252825182820181905260009190848201906040850190845b818110156120ca5783516001600160a01b0316835292840192918401916001016120a5565b50909695505050505050565b6020808252825182820181905260009190848201906040850190845b818110156120ca578351835292840192918401916001016120f2565b6020808252601e908201527f526f6c65733a2063616c6c6572206973206e6f7420746865206f776e65720000604082015260600190565b60208082526038908201527f43616c6c6572206973206e6f7420746865206f776e65722c206578656375746f60408201527f72206f7220617574686f72697a65642064697361626c65720000000000000000606082015260800190565b6000828210156121b4576121b46121d4565b500390565b60006000198214156121cd576121cd6121d4565b5060010190565b634e487b7160e01b600052601160045260246000fd5b634e487b7160e01b600052604160045260246000fd5b6001600160a01b03811681146109ff57600080fdfea26469706673582212206a86261aaebcfdfd4608200470c4c078a1ef0e813179aa6978f34a7d4f03d0c764736f6c63430008030033",
  "devdoc": {
    "kind": "dev",
    "methods": {
      "charactersPlayed()": {
        "details": "returns all characters played by this contract (e.g. stable coin, oracle registry)"
      },
      "dependsOnCharacters()": {
        "details": "returns all the character dependencies like FEE_RECIPIENT"
      },
      "dependsOnRoles()": {
        "details": "returns all the roles dependencies of this contract like FUND_TRANSFERER"
      },
      "rolesPlayed()": {
        "details": "returns all roles played by this contract"
      }
    },
    "title": "Provides a single point of reference to verify integrity of the roles structure and facilitate governance actions within our system as well as performing cache invalidation for roles and inter-contract relationships",
    "version": 1
  },
  "userdoc": {
    "kind": "user",
    "methods": {
      "allManagedContracts()": {
        "notice": "All the contracts managed by this controller"
      },
      "disableContract(address)": {
        "notice": "Remove roles and permissions for contract"
      },
      "executeAsOwner(address)": {
        "notice": "Run an executor contract in the executor role (which has ownership privileges throughout)"
      },
      "giveRole(uint256,address)": {
        "notice": "Activate role"
      },
      "manageContract(address)": {
        "notice": "Orchestrate roles and permission for contract"
      },
      "removeRole(uint256,address)": {
        "notice": "Disable role"
      },
      "replaceContract(address,address)": {
        "notice": "Completely replace and disable old while enabling new contract Caution: no checks made that replacement contract is semantically aligned or hitherto unmanaged"
      },
      "setMainCharacter(uint256,address)": {
        "notice": "Assign main character"
      },
      "updateCaches(address)": {
        "notice": "Update cached value for all the dependencies of a contract"
      },
      "updateMainCharacterCache(uint256)": {
        "notice": "Notify all dependent contracts after main character change"
      },
      "updateRoleCache(uint256,address)": {
        "notice": "Notify all dependent contracts after role change"
      }
    },
    "version": 1
  },
  "storageLayout": {
    "storage": [
      {
        "astId": 14088,
        "contract": "contracts/DependencyController.sol:DependencyController",
        "label": "mainCharacterCache",
        "offset": 0,
        "slot": "0",
        "type": "t_mapping(t_uint256,t_address)"
      },
      {
        "astId": 14094,
        "contract": "contracts/DependencyController.sol:DependencyController",
        "label": "roleCache",
        "offset": 0,
        "slot": "1",
        "type": "t_mapping(t_address,t_mapping(t_uint256,t_bool))"
      },
      {
        "astId": 14097,
        "contract": "contracts/DependencyController.sol:DependencyController",
        "label": "_dependsOnCharacters",
        "offset": 0,
        "slot": "2",
        "type": "t_array(t_uint256)dyn_storage"
      },
      {
        "astId": 14100,
        "contract": "contracts/DependencyController.sol:DependencyController",
        "label": "_dependsOnRoles",
        "offset": 0,
        "slot": "3",
        "type": "t_array(t_uint256)dyn_storage"
      },
      {
        "astId": 14103,
        "contract": "contracts/DependencyController.sol:DependencyController",
        "label": "_charactersPlayed",
        "offset": 0,
        "slot": "4",
        "type": "t_array(t_uint256)dyn_storage"
      },
      {
        "astId": 14106,
        "contract": "contracts/DependencyController.sol:DependencyController",
        "label": "_rolesPlayed",
        "offset": 0,
        "slot": "5",
        "type": "t_array(t_uint256)dyn_storage"
      },
      {
        "astId": 3835,
        "contract": "contracts/DependencyController.sol:DependencyController",
        "label": "currentExecutor",
        "offset": 0,
        "slot": "6",
        "type": "t_address"
      },
      {
        "astId": 3838,
        "contract": "contracts/DependencyController.sol:DependencyController",
        "label": "managedContracts",
        "offset": 0,
        "slot": "7",
        "type": "t_struct(AddressSet)3278_storage"
      },
      {
        "astId": 3843,
        "contract": "contracts/DependencyController.sol:DependencyController",
        "label": "roleDependenciesByContr",
        "offset": 0,
        "slot": "9",
        "type": "t_mapping(t_address,t_array(t_uint256)dyn_storage)"
      },
      {
        "astId": 3848,
        "contract": "contracts/DependencyController.sol:DependencyController",
        "label": "characterDependenciesByContr",
        "offset": 0,
        "slot": "10",
        "type": "t_mapping(t_address,t_array(t_uint256)dyn_storage)"
      },
      {
        "astId": 3853,
        "contract": "contracts/DependencyController.sol:DependencyController",
        "label": "dependentsByRole",
        "offset": 0,
        "slot": "11",
        "type": "t_mapping(t_uint256,t_struct(AddressSet)3278_storage)"
      },
      {
        "astId": 3858,
        "contract": "contracts/DependencyController.sol:DependencyController",
        "label": "dependentsByCharacter",
        "offset": 0,
        "slot": "12",
        "type": "t_mapping(t_uint256,t_struct(AddressSet)3278_storage)"
      },
      {
        "astId": 3863,
        "contract": "contracts/DependencyController.sol:DependencyController",
        "label": "knownRoleHolders",
        "offset": 0,
        "slot": "13",
        "type": "t_mapping(t_uint256,t_struct(AddressSet)3278_storage)"
      }
    ],
    "types": {
      "t_address": {
        "encoding": "inplace",
        "label": "address",
        "numberOfBytes": "20"
      },
      "t_array(t_bytes32)dyn_storage": {
        "base": "t_bytes32",
        "encoding": "dynamic_array",
        "label": "bytes32[]",
        "numberOfBytes": "32"
      },
      "t_array(t_uint256)dyn_storage": {
        "base": "t_uint256",
        "encoding": "dynamic_array",
        "label": "uint256[]",
        "numberOfBytes": "32"
      },
      "t_bool": {
        "encoding": "inplace",
        "label": "bool",
        "numberOfBytes": "1"
      },
      "t_bytes32": {
        "encoding": "inplace",
        "label": "bytes32",
        "numberOfBytes": "32"
      },
      "t_mapping(t_address,t_array(t_uint256)dyn_storage)": {
        "encoding": "mapping",
        "key": "t_address",
        "label": "mapping(address => uint256[])",
        "numberOfBytes": "32",
        "value": "t_array(t_uint256)dyn_storage"
      },
      "t_mapping(t_address,t_mapping(t_uint256,t_bool))": {
        "encoding": "mapping",
        "key": "t_address",
        "label": "mapping(address => mapping(uint256 => bool))",
        "numberOfBytes": "32",
        "value": "t_mapping(t_uint256,t_bool)"
      },
      "t_mapping(t_bytes32,t_uint256)": {
        "encoding": "mapping",
        "key": "t_bytes32",
        "label": "mapping(bytes32 => uint256)",
        "numberOfBytes": "32",
        "value": "t_uint256"
      },
      "t_mapping(t_uint256,t_address)": {
        "encoding": "mapping",
        "key": "t_uint256",
        "label": "mapping(uint256 => address)",
        "numberOfBytes": "32",
        "value": "t_address"
      },
      "t_mapping(t_uint256,t_bool)": {
        "encoding": "mapping",
        "key": "t_uint256",
        "label": "mapping(uint256 => bool)",
        "numberOfBytes": "32",
        "value": "t_bool"
      },
      "t_mapping(t_uint256,t_struct(AddressSet)3278_storage)": {
        "encoding": "mapping",
        "key": "t_uint256",
        "label": "mapping(uint256 => struct EnumerableSet.AddressSet)",
        "numberOfBytes": "32",
        "value": "t_struct(AddressSet)3278_storage"
      },
      "t_struct(AddressSet)3278_storage": {
        "encoding": "inplace",
        "label": "struct EnumerableSet.AddressSet",
        "members": [
          {
            "astId": 3277,
            "contract": "contracts/DependencyController.sol:DependencyController",
            "label": "_inner",
            "offset": 0,
            "slot": "0",
            "type": "t_struct(Set)2977_storage"
          }
        ],
        "numberOfBytes": "64"
      },
      "t_struct(Set)2977_storage": {
        "encoding": "inplace",
        "label": "struct EnumerableSet.Set",
        "members": [
          {
            "astId": 2972,
            "contract": "contracts/DependencyController.sol:DependencyController",
            "label": "_values",
            "offset": 0,
            "slot": "0",
            "type": "t_array(t_bytes32)dyn_storage"
          },
          {
            "astId": 2976,
            "contract": "contracts/DependencyController.sol:DependencyController",
            "label": "_indexes",
            "offset": 0,
            "slot": "1",
            "type": "t_mapping(t_bytes32,t_uint256)"
          }
        ],
        "numberOfBytes": "64"
      },
      "t_uint256": {
        "encoding": "inplace",
        "label": "uint256",
        "numberOfBytes": "32"
      }
    }
  }
}