{
  "address": "0x1080A167411c89Ad6bCeb89b77de32e3546aa8d7",
  "abi": [
    {
      "inputs": [
        {
          "internalType": "address",
          "name": "_roles",
          "type": "address"
        }
      ],
      "stateMutability": "nonpayable",
      "type": "constructor"
    },
    {
      "inputs": [
        {
          "internalType": "uint256",
          "name": "",
          "type": "uint256"
        }
      ],
      "name": "_charactersPlayed",
      "outputs": [
        {
          "internalType": "uint256",
          "name": "",
          "type": "uint256"
        }
      ],
      "stateMutability": "view",
      "type": "function"
    },
    {
      "inputs": [
        {
          "internalType": "uint256",
          "name": "",
          "type": "uint256"
        }
      ],
      "name": "_dependsOnCharacters",
      "outputs": [
        {
          "internalType": "uint256",
          "name": "",
          "type": "uint256"
        }
      ],
      "stateMutability": "view",
      "type": "function"
    },
    {
      "inputs": [
        {
          "internalType": "uint256",
          "name": "",
          "type": "uint256"
        }
      ],
      "name": "_dependsOnRoles",
      "outputs": [
        {
          "internalType": "uint256",
          "name": "",
          "type": "uint256"
        }
      ],
      "stateMutability": "view",
      "type": "function"
    },
    {
      "inputs": [
        {
          "internalType": "uint256",
          "name": "",
          "type": "uint256"
        }
      ],
      "name": "_rolesPlayed",
      "outputs": [
        {
          "internalType": "uint256",
          "name": "",
          "type": "uint256"
        }
      ],
      "stateMutability": "view",
      "type": "function"
    },
    {
      "inputs": [
        {
          "internalType": "address",
          "name": "",
          "type": "address"
        }
      ],
      "name": "borrowablePer10ks",
      "outputs": [
        {
          "internalType": "uint256",
          "name": "",
          "type": "uint256"
        }
      ],
      "stateMutability": "view",
      "type": "function"
    },
    {
      "inputs": [],
      "name": "charactersPlayed",
      "outputs": [
        {
          "internalType": "uint256[]",
          "name": "",
          "type": "uint256[]"
        }
      ],
      "stateMutability": "view",
      "type": "function"
    },
    {
      "inputs": [],
      "name": "dependsOnCharacters",
      "outputs": [
        {
          "internalType": "uint256[]",
          "name": "",
          "type": "uint256[]"
        }
      ],
      "stateMutability": "view",
      "type": "function"
    },
    {
      "inputs": [],
      "name": "dependsOnRoles",
      "outputs": [
        {
          "internalType": "uint256[]",
          "name": "",
          "type": "uint256[]"
        }
      ],
      "stateMutability": "view",
      "type": "function"
    },
    {
      "inputs": [
        {
          "internalType": "address",
          "name": "tokenFrom",
          "type": "address"
        },
        {
          "internalType": "address",
          "name": "tokenTo",
          "type": "address"
        },
        {
          "internalType": "uint256",
          "name": "tokenFromAmount",
          "type": "uint256"
        },
        {
          "internalType": "uint256",
          "name": "tokenToAmount",
          "type": "uint256"
        }
      ],
      "name": "encodeAndCheckOracleParams",
      "outputs": [
        {
          "internalType": "bool",
          "name": "",
          "type": "bool"
        },
        {
          "internalType": "bytes",
          "name": "",
          "type": "bytes"
        }
      ],
      "stateMutability": "view",
      "type": "function"
    },
    {
      "inputs": [
        {
          "internalType": "address",
          "name": "token",
          "type": "address"
        },
        {
          "internalType": "uint256",
          "name": "inAmount",
          "type": "uint256"
        },
        {
          "internalType": "address",
          "name": "pegCurrency",
          "type": "address"
        }
      ],
      "name": "getAmountInPeg",
      "outputs": [
        {
          "internalType": "uint256",
          "name": "",
          "type": "uint256"
        }
      ],
      "stateMutability": "view",
      "type": "function"
    },
    {
      "inputs": [
        {
          "internalType": "address",
          "name": "token",
          "type": "address"
        },
        {
          "internalType": "uint256",
          "name": "inAmount",
          "type": "uint256"
        },
        {
          "internalType": "address",
          "name": "pegCurrency",
          "type": "address"
        }
      ],
      "name": "getPegAmountAndBorrowable",
      "outputs": [
        {
          "internalType": "uint256",
          "name": "",
          "type": "uint256"
        },
        {
          "internalType": "uint256",
          "name": "",
          "type": "uint256"
        }
      ],
      "stateMutability": "nonpayable",
      "type": "function"
    },
    {
      "inputs": [
        {
          "internalType": "uint256",
          "name": "",
          "type": "uint256"
        }
      ],
      "name": "mainCharacterCache",
      "outputs": [
        {
          "internalType": "address",
          "name": "",
          "type": "address"
        }
      ],
      "stateMutability": "view",
      "type": "function"
    },
    {
      "inputs": [
        {
          "internalType": "address",
          "name": "",
          "type": "address"
        },
        {
          "internalType": "uint256",
          "name": "",
          "type": "uint256"
        }
      ],
      "name": "roleCache",
      "outputs": [
        {
          "internalType": "bool",
          "name": "",
          "type": "bool"
        }
      ],
      "stateMutability": "view",
      "type": "function"
    },
    {
      "inputs": [],
      "name": "roles",
      "outputs": [
        {
          "internalType": "contract Roles",
          "name": "",
          "type": "address"
        }
      ],
      "stateMutability": "view",
      "type": "function"
    },
    {
      "inputs": [],
      "name": "rolesPlayed",
      "outputs": [
        {
          "internalType": "uint256[]",
          "name": "",
          "type": "uint256[]"
        }
      ],
      "stateMutability": "view",
      "type": "function"
    },
    {
      "inputs": [
        {
          "internalType": "address",
          "name": "",
          "type": "address"
        },
        {
          "internalType": "address",
          "name": "",
          "type": "address"
        }
      ],
      "name": "scaleConversionFP",
      "outputs": [
        {
          "internalType": "uint256",
          "name": "",
          "type": "uint256"
        }
      ],
      "stateMutability": "view",
      "type": "function"
    },
    {
      "inputs": [
        {
          "internalType": "address",
          "name": "lpt",
          "type": "address"
        },
        {
          "internalType": "uint256",
          "name": "borrowablePer10k",
          "type": "uint256"
        }
      ],
      "name": "setBorrowable",
      "outputs": [],
      "stateMutability": "nonpayable",
      "type": "function"
    },
    {
      "inputs": [
        {
          "internalType": "address",
          "name": "token",
          "type": "address"
        },
        {
          "internalType": "address",
          "name": "pegCurrency",
          "type": "address"
        },
        {
          "internalType": "uint256",
          "name": "borrowablePer10k",
          "type": "uint256"
        },
        {
          "internalType": "bytes",
          "name": "data",
          "type": "bytes"
        }
      ],
      "name": "setOracleParams",
      "outputs": [],
      "stateMutability": "nonpayable",
      "type": "function"
    },
    {
      "inputs": [
        {
          "internalType": "address",
          "name": "tokenFrom",
          "type": "address"
        },
        {
          "internalType": "address",
          "name": "tokenTo",
          "type": "address"
        },
        {
          "internalType": "uint256",
          "name": "tokenFromAmount",
          "type": "uint256"
        },
        {
          "internalType": "uint256",
          "name": "tokenToAmount",
          "type": "uint256"
        }
      ],
      "name": "setOracleSpecificParams",
      "outputs": [],
      "stateMutability": "nonpayable",
      "type": "function"
    },
    {
      "inputs": [
        {
          "internalType": "uint256",
          "name": "role",
          "type": "uint256"
        }
      ],
      "name": "updateMainCharacterCache",
      "outputs": [],
      "stateMutability": "nonpayable",
      "type": "function"
    },
    {
      "inputs": [
        {
          "internalType": "uint256",
          "name": "role",
          "type": "uint256"
        },
        {
          "internalType": "address",
          "name": "contr",
          "type": "address"
        }
      ],
      "name": "updateRoleCache",
      "outputs": [],
      "stateMutability": "nonpayable",
      "type": "function"
    },
    {
      "inputs": [
        {
          "internalType": "address",
          "name": "token",
          "type": "address"
        },
        {
          "internalType": "uint256",
          "name": "inAmount",
          "type": "uint256"
        },
        {
          "internalType": "address",
          "name": "pegCurrency",
          "type": "address"
        }
      ],
      "name": "viewAmountInPeg",
      "outputs": [
        {
          "internalType": "uint256",
          "name": "",
          "type": "uint256"
        }
      ],
      "stateMutability": "view",
      "type": "function"
    },
    {
      "inputs": [
        {
          "internalType": "address",
          "name": "token",
          "type": "address"
        },
        {
          "internalType": "uint256",
          "name": "inAmount",
          "type": "uint256"
        },
        {
          "internalType": "address",
          "name": "pegCurrency",
          "type": "address"
        }
      ],
      "name": "viewPegAmountAndBorrowable",
      "outputs": [
        {
          "internalType": "uint256",
          "name": "",
          "type": "uint256"
        },
        {
          "internalType": "uint256",
          "name": "",
          "type": "uint256"
        }
      ],
      "stateMutability": "view",
      "type": "function"
    }
  ],
  "transactionHash": "0x8a1238ccf170e354fabaab3f2580ee9fe64c126bdf0439fbbd93fe6b9430ed30",
  "args": [
    "0x4F6ed22C558B462BA35Bb0F6FeB99600964310D7"
  ],
  "solcInputHash": "49de3c0ae1b6f2c0098f9389f4b75969",
  "bytecode": "0x60a060405234801561001057600080fd5b5060405161102b38038061102b83398101604081905261002f916100e2565b806001600160a01b0381166100955760405162461bcd60e51b815260206004820152602260248201527f506c656173652070726f766964652076616c696420726f6c6573206164647265604482015261737360f01b606482015260840160405180910390fd5b60601b6001600160601b0319166080525060028054600181018255600091909152606a7f405787fa12a823e0f2b7631cc41b3ba8828b3321ca811111fa75cd3aa3bb5ace90910155610110565b6000602082840312156100f3578081fd5b81516001600160a01b0381168114610109578182fd5b9392505050565b60805160601c610ee161014a600039600081816101c4015281816103cc015281816105ad015281816109f10152610a890152610ee16000f3fe608060405234801561001057600080fd5b506004361061014d5760003560e01c80637dad209b116100c3578063aeb38d8b1161007c578063aeb38d8b14610344578063bf184ea414610357578063d52237601461036a578063dc94cb7d1461037d578063e8ea4fae14610385578063e9c3f77d1461038d5761014d565b80637dad209b146102c5578063885fa056146102cd578063891ea1aa146102e05780638b595919146102f35780638eaab58c1461031e578063abcbc4fc146103315761014d565b8063447d52ba11610115578063447d52ba146102115780634a7a7f41146102245780634fcd54a414610239578063576cbc30146102615780636caa9c11146102745780637a1a04df146102875761014d565b8063071060a61461015257806313304f421461016757806315c2ba5014610191578063392f5f64146101bf5780633cf685d6146101fe575b600080fd5b610165610160366004610d4a565b6103b6565b005b61017a610175366004610c79565b61047c565b604051610188929190610deb565b60405180910390f35b6101b161019f366004610b68565b60066020526000908152604090205481565b604051908152602001610188565b6101e67f000000000000000000000000000000000000000000000000000000000000000081565b6040516001600160a01b039091168152602001610188565b61016561020c366004610cbe565b6104ed565b61016561021f366004610d62565b610587565b61022c61065f565b6040516101889190610da7565b61024c610247366004610ce9565b6106b7565b60408051928352602083019190915201610188565b6101b161026f366004610ce9565b6106e9565b6101b1610282366004610d4a565b6106fe565b6102b5610295366004610cbe565b600160209081526000928352604080842090915290825290205460ff1681565b6040519015158152602001610188565b61022c61071f565b61024c6102db366004610ce9565b610775565b6101656102ee366004610bdf565b610783565b6101b1610301366004610ba7565b600760209081526000928352604080842090915290825290205481565b6101b161032c366004610ce9565b610843565b6101b161033f366004610d4a565b610886565b6101b1610352366004610d4a565b610896565b6101b1610365366004610d4a565b6108a6565b610165610378366004610c79565b6108b6565b61022c610941565b61022c610997565b6101e661039b366004610d4a565b6000602081905290815260409020546001600160a01b031681565b60405163b4ed0b6d60e01b8152600481018290527f00000000000000000000000000000000000000000000000000000000000000006001600160a01b03169063b4ed0b6d9060240160206040518083038186803b15801561041657600080fd5b505afa15801561042a573d6000803e3d6000fd5b505050506040513d601f19601f8201168201806040525081019061044e9190610b8b565b60009182526020829052604090912080546001600160a01b0319166001600160a01b03909216919091179055565b60006060818461049085600160701b610e68565b61049a9190610e48565b6001600160a01b03978816600090815260076020908152604080832099909a1682529788528890205488519788019690965286880194909452505084518085038601815260609094019094521492909150565b336104f66109ed565b6001600160a01b0316148061051a57503361050f610a85565b6001600160a01b0316145b61056b5760405162461bcd60e51b815260206004820152601e60248201527f526f6c65733a2063616c6c6572206973206e6f7420746865206f776e6572000060448201526064015b60405180910390fd5b6001600160a01b03909116600090815260066020526040902055565b6040516393552a3d60e01b8152600481018390526001600160a01b0382811660248301527f000000000000000000000000000000000000000000000000000000000000000016906393552a3d9060440160206040518083038186803b1580156105ef57600080fd5b505afa158015610603573d6000803e3d6000fd5b505050506040513d601f19601f820116820180604052508101906106279190610d2a565b6001600160a01b0391909116600090815260016020908152604080832094835293905291909120805460ff1916911515919091179055565b606060038054806020026020016040519081016040528092919081815260200182805480156106ad57602002820191906000526020600020905b815481526020019060010190808311610699575b5050505050905090565b6000806106c5858585610843565b6001600160a01b039590951660009081526006602052604090205494959350505050565b60006106f6848484610843565b949350505050565b6005818154811061070e57600080fd5b600091825260209091200154905081565b606060048054806020026020016040519081016040528092919081815260200182805480156106ad5760200282019190600052602060002090815481526020019060010190808311610699575050505050905090565b6000806106c58585856106e9565b336107bf606a60009081526020527ff3261457f4fd0b7c00a1511877ab27b74183ac470be8db3a7ecdc64335f6f979546001600160a01b031690565b6001600160a01b0316146108155760405162461bcd60e51b815260206004820152601d60248201527f4e6f7420617574686f72697a656420746f20696e6974206f7261636c650000006044820152606401610562565b6001600160a01b038516600090815260066020526040902083905561083c85858484610af6565b5050505050565b6001600160a01b038084166000908152600760209081526040808320938516835292905290812054600160701b9061087c908590610e68565b6106f69190610e48565b6002818154811061070e57600080fd5b6004818154811061070e57600080fd5b6003818154811061070e57600080fd5b336108bf6109ed565b6001600160a01b031614806108e35750336108d8610a85565b6001600160a01b0316145b61092f5760405162461bcd60e51b815260206004820152601e60248201527f526f6c65733a2063616c6c6572206973206e6f7420746865206f776e657200006044820152606401610562565b61093b84848484610b1d565b50505050565b606060028054806020026020016040519081016040528092919081815260200182805480156106ad5760200282019190600052602060002090815481526020019060010190808311610699575050505050905090565b606060058054806020026020016040519081016040528092919081815260200182805480156106ad5760200282019190600052602060002090815481526020019060010190808311610699575050505050905090565b60007f00000000000000000000000000000000000000000000000000000000000000006001600160a01b0316638da5cb5b6040518163ffffffff1660e01b815260040160206040518083038186803b158015610a4857600080fd5b505afa158015610a5c573d6000803e3d6000fd5b505050506040513d601f19601f82011682018060405250810190610a809190610b8b565b905090565b60007f00000000000000000000000000000000000000000000000000000000000000006001600160a01b031663c34c08e56040518163ffffffff1660e01b8152600401602060405180830381600087803b158015610ae257600080fd5b505af1158015610a5c573d6000803e3d6000fd5b600080610b0583850185610d86565b91509150610b1586868484610b1d565b505050505050565b81610b2c82600160701b610e68565b610b369190610e48565b6001600160a01b0394851660009081526007602090815260408083209690971682529490945293909220929092555050565b600060208284031215610b79578081fd5b8135610b8481610e93565b9392505050565b600060208284031215610b9c578081fd5b8151610b8481610e93565b60008060408385031215610bb9578081fd5b8235610bc481610e93565b91506020830135610bd481610e93565b809150509250929050565b600080600080600060808688031215610bf6578081fd5b8535610c0181610e93565b94506020860135610c1181610e93565b935060408601359250606086013567ffffffffffffffff80821115610c34578283fd5b818801915088601f830112610c47578283fd5b813581811115610c55578384fd5b896020828501011115610c66578384fd5b9699959850939650602001949392505050565b60008060008060808587031215610c8e578384fd5b8435610c9981610e93565b93506020850135610ca981610e93565b93969395505050506040820135916060013590565b60008060408385031215610cd0578182fd5b8235610cdb81610e93565b946020939093013593505050565b600080600060608486031215610cfd578283fd5b8335610d0881610e93565b9250602084013591506040840135610d1f81610e93565b809150509250925092565b600060208284031215610d3b578081fd5b81518015158114610b84578182fd5b600060208284031215610d5b578081fd5b5035919050565b60008060408385031215610d74578182fd5b823591506020830135610bd481610e93565b60008060408385031215610d98578182fd5b50508035926020909101359150565b6020808252825182820181905260009190848201906040850190845b81811015610ddf57835183529284019291840191600101610dc3565b50909695505050505050565b6000831515825260206040818401528351806040850152825b81811015610e2057858101830151858201606001528201610e04565b81811115610e315783606083870101525b50601f01601f191692909201606001949350505050565b600082610e6357634e487b7160e01b81526012600452602481fd5b500490565b6000816000190483118215151615610e8e57634e487b7160e01b81526011600452602481fd5b500290565b6001600160a01b0381168114610ea857600080fd5b5056fea26469706673582212200a00a8f11054552d03bae4a6643ae996ce26e602bab06a7e33cad5df704039da64736f6c63430008030033",
  "devdoc": {
    "kind": "dev",
    "methods": {
      "charactersPlayed()": {
        "details": "returns all characters played by this contract (e.g. stable coin, oracle registry)"
      },
      "dependsOnCharacters()": {
        "details": "returns all the character dependencies like FEE_RECIPIENT"
      },
      "dependsOnRoles()": {
        "details": "returns all the roles dependencies of this contract like FUND_TRANSFERER"
      },
      "rolesPlayed()": {
        "details": "returns all roles played by this contract"
      },
      "updateMainCharacterCache(uint256)": {
        "details": "Updates the main character cache for a speciic character"
      },
      "updateRoleCache(uint256,address)": {
        "details": "Updates the role cache for a specific role and address"
      }
    },
    "version": 1
  },
  "userdoc": {
    "kind": "user",
    "methods": {
      "encodeAndCheckOracleParams(address,address,uint256,uint256)": {
        "notice": "Set conversion factor by presenting one token amount and corresponding converted amount"
      }
    },
    "notice": "Converts from one currency to another by a static factor",
    "version": 1
  },
  "storageLayout": {
    "storage": [
      {
        "astId": 14088,
        "contract": "contracts/oracles/EquivalentScaledOracle.sol:EquivalentScaledOracle",
        "label": "mainCharacterCache",
        "offset": 0,
        "slot": "0",
        "type": "t_mapping(t_uint256,t_address)"
      },
      {
        "astId": 14094,
        "contract": "contracts/oracles/EquivalentScaledOracle.sol:EquivalentScaledOracle",
        "label": "roleCache",
        "offset": 0,
        "slot": "1",
        "type": "t_mapping(t_address,t_mapping(t_uint256,t_bool))"
      },
      {
        "astId": 14097,
        "contract": "contracts/oracles/EquivalentScaledOracle.sol:EquivalentScaledOracle",
        "label": "_dependsOnCharacters",
        "offset": 0,
        "slot": "2",
        "type": "t_array(t_uint256)dyn_storage"
      },
      {
        "astId": 14100,
        "contract": "contracts/oracles/EquivalentScaledOracle.sol:EquivalentScaledOracle",
        "label": "_dependsOnRoles",
        "offset": 0,
        "slot": "3",
        "type": "t_array(t_uint256)dyn_storage"
      },
      {
        "astId": 14103,
        "contract": "contracts/oracles/EquivalentScaledOracle.sol:EquivalentScaledOracle",
        "label": "_charactersPlayed",
        "offset": 0,
        "slot": "4",
        "type": "t_array(t_uint256)dyn_storage"
      },
      {
        "astId": 14106,
        "contract": "contracts/oracles/EquivalentScaledOracle.sol:EquivalentScaledOracle",
        "label": "_rolesPlayed",
        "offset": 0,
        "slot": "5",
        "type": "t_array(t_uint256)dyn_storage"
      },
      {
        "astId": 12032,
        "contract": "contracts/oracles/EquivalentScaledOracle.sol:EquivalentScaledOracle",
        "label": "borrowablePer10ks",
        "offset": 0,
        "slot": "6",
        "type": "t_mapping(t_address,t_uint256)"
      },
      {
        "astId": 11854,
        "contract": "contracts/oracles/EquivalentScaledOracle.sol:EquivalentScaledOracle",
        "label": "scaleConversionFP",
        "offset": 0,
        "slot": "7",
        "type": "t_mapping(t_address,t_mapping(t_address,t_uint256))"
      }
    ],
    "types": {
      "t_address": {
        "encoding": "inplace",
        "label": "address",
        "numberOfBytes": "20"
      },
      "t_array(t_uint256)dyn_storage": {
        "base": "t_uint256",
        "encoding": "dynamic_array",
        "label": "uint256[]",
        "numberOfBytes": "32"
      },
      "t_bool": {
        "encoding": "inplace",
        "label": "bool",
        "numberOfBytes": "1"
      },
      "t_mapping(t_address,t_mapping(t_address,t_uint256))": {
        "encoding": "mapping",
        "key": "t_address",
        "label": "mapping(address => mapping(address => uint256))",
        "numberOfBytes": "32",
        "value": "t_mapping(t_address,t_uint256)"
      },
      "t_mapping(t_address,t_mapping(t_uint256,t_bool))": {
        "encoding": "mapping",
        "key": "t_address",
        "label": "mapping(address => mapping(uint256 => bool))",
        "numberOfBytes": "32",
        "value": "t_mapping(t_uint256,t_bool)"
      },
      "t_mapping(t_address,t_uint256)": {
        "encoding": "mapping",
        "key": "t_address",
        "label": "mapping(address => uint256)",
        "numberOfBytes": "32",
        "value": "t_uint256"
      },
      "t_mapping(t_uint256,t_address)": {
        "encoding": "mapping",
        "key": "t_uint256",
        "label": "mapping(uint256 => address)",
        "numberOfBytes": "32",
        "value": "t_address"
      },
      "t_mapping(t_uint256,t_bool)": {
        "encoding": "mapping",
        "key": "t_uint256",
        "label": "mapping(uint256 => bool)",
        "numberOfBytes": "32",
        "value": "t_bool"
      },
      "t_uint256": {
        "encoding": "inplace",
        "label": "uint256",
        "numberOfBytes": "32"
      }
    }
  }
}