{
  "address": "0x25791D85928DbbcA501cB885Db2cbe384576AFb1",
  "abi": [
    {
      "inputs": [
        {
          "internalType": "address",
          "name": "_roles",
          "type": "address"
        }
      ],
      "stateMutability": "nonpayable",
      "type": "constructor"
    },
    {
      "inputs": [
        {
          "internalType": "uint256",
          "name": "",
          "type": "uint256"
        }
      ],
      "name": "_charactersPlayed",
      "outputs": [
        {
          "internalType": "uint256",
          "name": "",
          "type": "uint256"
        }
      ],
      "stateMutability": "view",
      "type": "function"
    },
    {
      "inputs": [
        {
          "internalType": "uint256",
          "name": "",
          "type": "uint256"
        }
      ],
      "name": "_dependsOnCharacters",
      "outputs": [
        {
          "internalType": "uint256",
          "name": "",
          "type": "uint256"
        }
      ],
      "stateMutability": "view",
      "type": "function"
    },
    {
      "inputs": [
        {
          "internalType": "uint256",
          "name": "",
          "type": "uint256"
        }
      ],
      "name": "_dependsOnRoles",
      "outputs": [
        {
          "internalType": "uint256",
          "name": "",
          "type": "uint256"
        }
      ],
      "stateMutability": "view",
      "type": "function"
    },
    {
      "inputs": [
        {
          "internalType": "uint256",
          "name": "",
          "type": "uint256"
        }
      ],
      "name": "_rolesPlayed",
      "outputs": [
        {
          "internalType": "uint256",
          "name": "",
          "type": "uint256"
        }
      ],
      "stateMutability": "view",
      "type": "function"
    },
    {
      "inputs": [
        {
          "internalType": "address",
          "name": "",
          "type": "address"
        }
      ],
      "name": "borrowablePer10ks",
      "outputs": [
        {
          "internalType": "uint256",
          "name": "",
          "type": "uint256"
        }
      ],
      "stateMutability": "view",
      "type": "function"
    },
    {
      "inputs": [],
      "name": "charactersPlayed",
      "outputs": [
        {
          "internalType": "uint256[]",
          "name": "",
          "type": "uint256[]"
        }
      ],
      "stateMutability": "view",
      "type": "function"
    },
    {
      "inputs": [],
      "name": "dependsOnCharacters",
      "outputs": [
        {
          "internalType": "uint256[]",
          "name": "",
          "type": "uint256[]"
        }
      ],
      "stateMutability": "view",
      "type": "function"
    },
    {
      "inputs": [],
      "name": "dependsOnRoles",
      "outputs": [
        {
          "internalType": "uint256[]",
          "name": "",
          "type": "uint256[]"
        }
      ],
      "stateMutability": "view",
      "type": "function"
    },
    {
      "inputs": [
        {
          "internalType": "address",
          "name": "tokenFrom",
          "type": "address"
        },
        {
          "internalType": "address",
          "name": "tokenTo",
          "type": "address"
        },
        {
          "internalType": "uint256",
          "name": "tokenFromAmount",
          "type": "uint256"
        },
        {
          "internalType": "uint256",
          "name": "tokenToAmount",
          "type": "uint256"
        }
      ],
      "name": "encodeAndCheckOracleParams",
      "outputs": [
        {
          "internalType": "bool",
          "name": "",
          "type": "bool"
        },
        {
          "internalType": "bytes",
          "name": "",
          "type": "bytes"
        }
      ],
      "stateMutability": "view",
      "type": "function"
    },
    {
      "inputs": [
        {
          "internalType": "address",
          "name": "token",
          "type": "address"
        },
        {
          "internalType": "uint256",
          "name": "inAmount",
          "type": "uint256"
        },
        {
          "internalType": "address",
          "name": "pegCurrency",
          "type": "address"
        }
      ],
      "name": "getAmountInPeg",
      "outputs": [
        {
          "internalType": "uint256",
          "name": "",
          "type": "uint256"
        }
      ],
      "stateMutability": "view",
      "type": "function"
    },
    {
      "inputs": [
        {
          "internalType": "address",
          "name": "token",
          "type": "address"
        },
        {
          "internalType": "uint256",
          "name": "inAmount",
          "type": "uint256"
        },
        {
          "internalType": "address",
          "name": "pegCurrency",
          "type": "address"
        }
      ],
      "name": "getPegAmountAndBorrowable",
      "outputs": [
        {
          "internalType": "uint256",
          "name": "",
          "type": "uint256"
        },
        {
          "internalType": "uint256",
          "name": "",
          "type": "uint256"
        }
      ],
      "stateMutability": "nonpayable",
      "type": "function"
    },
    {
      "inputs": [
        {
          "internalType": "uint256",
          "name": "",
          "type": "uint256"
        }
      ],
      "name": "mainCharacterCache",
      "outputs": [
        {
          "internalType": "address",
          "name": "",
          "type": "address"
        }
      ],
      "stateMutability": "view",
      "type": "function"
    },
    {
      "inputs": [
        {
          "internalType": "address",
          "name": "",
          "type": "address"
        },
        {
          "internalType": "uint256",
          "name": "",
          "type": "uint256"
        }
      ],
      "name": "roleCache",
      "outputs": [
        {
          "internalType": "bool",
          "name": "",
          "type": "bool"
        }
      ],
      "stateMutability": "view",
      "type": "function"
    },
    {
      "inputs": [],
      "name": "roles",
      "outputs": [
        {
          "internalType": "contract Roles",
          "name": "",
          "type": "address"
        }
      ],
      "stateMutability": "view",
      "type": "function"
    },
    {
      "inputs": [],
      "name": "rolesPlayed",
      "outputs": [
        {
          "internalType": "uint256[]",
          "name": "",
          "type": "uint256[]"
        }
      ],
      "stateMutability": "view",
      "type": "function"
    },
    {
      "inputs": [
        {
          "internalType": "address",
          "name": "",
          "type": "address"
        },
        {
          "internalType": "address",
          "name": "",
          "type": "address"
        }
      ],
      "name": "scaleConversionFP",
      "outputs": [
        {
          "internalType": "uint256",
          "name": "",
          "type": "uint256"
        }
      ],
      "stateMutability": "view",
      "type": "function"
    },
    {
      "inputs": [
        {
          "internalType": "address",
          "name": "lpt",
          "type": "address"
        },
        {
          "internalType": "uint256",
          "name": "borrowablePer10k",
          "type": "uint256"
        }
      ],
      "name": "setBorrowable",
      "outputs": [],
      "stateMutability": "nonpayable",
      "type": "function"
    },
    {
      "inputs": [
        {
          "internalType": "address",
          "name": "token",
          "type": "address"
        },
        {
          "internalType": "address",
          "name": "pegCurrency",
          "type": "address"
        },
        {
          "internalType": "uint256",
          "name": "borrowablePer10k",
          "type": "uint256"
        },
        {
          "internalType": "bytes",
          "name": "data",
          "type": "bytes"
        }
      ],
      "name": "setOracleParams",
      "outputs": [],
      "stateMutability": "nonpayable",
      "type": "function"
    },
    {
      "inputs": [
        {
          "internalType": "address",
          "name": "tokenFrom",
          "type": "address"
        },
        {
          "internalType": "address",
          "name": "tokenTo",
          "type": "address"
        },
        {
          "internalType": "uint256",
          "name": "tokenFromAmount",
          "type": "uint256"
        },
        {
          "internalType": "uint256",
          "name": "tokenToAmount",
          "type": "uint256"
        }
      ],
      "name": "setOracleSpecificParams",
      "outputs": [],
      "stateMutability": "nonpayable",
      "type": "function"
    },
    {
      "inputs": [
        {
          "internalType": "uint256",
          "name": "role",
          "type": "uint256"
        }
      ],
      "name": "updateMainCharacterCache",
      "outputs": [],
      "stateMutability": "nonpayable",
      "type": "function"
    },
    {
      "inputs": [
        {
          "internalType": "uint256",
          "name": "role",
          "type": "uint256"
        },
        {
          "internalType": "address",
          "name": "contr",
          "type": "address"
        }
      ],
      "name": "updateRoleCache",
      "outputs": [],
      "stateMutability": "nonpayable",
      "type": "function"
    },
    {
      "inputs": [
        {
          "internalType": "address",
          "name": "token",
          "type": "address"
        },
        {
          "internalType": "uint256",
          "name": "inAmount",
          "type": "uint256"
        },
        {
          "internalType": "address",
          "name": "pegCurrency",
          "type": "address"
        }
      ],
      "name": "viewAmountInPeg",
      "outputs": [
        {
          "internalType": "uint256",
          "name": "",
          "type": "uint256"
        }
      ],
      "stateMutability": "view",
      "type": "function"
    },
    {
      "inputs": [
        {
          "internalType": "address",
          "name": "token",
          "type": "address"
        },
        {
          "internalType": "uint256",
          "name": "inAmount",
          "type": "uint256"
        },
        {
          "internalType": "address",
          "name": "pegCurrency",
          "type": "address"
        }
      ],
      "name": "viewPegAmountAndBorrowable",
      "outputs": [
        {
          "internalType": "uint256",
          "name": "",
          "type": "uint256"
        },
        {
          "internalType": "uint256",
          "name": "",
          "type": "uint256"
        }
      ],
      "stateMutability": "view",
      "type": "function"
    }
  ],
  "transactionHash": "0x79c51ee79eaabeaa2ed07450b6738355d6338487114a4f5b52f844200a2f404d",
  "args": [
    "0x3d543B2f85a06b19d47F11f916C4423FB3ECAbBd"
  ],
  "solcInputHash": "dc611db8283b310d4fd7c4b21e162c6b",
  "bytecode": "0x60a060405234801561001057600080fd5b5060405161101938038061101983398101604081905261002f916100e2565b806001600160a01b0381166100955760405162461bcd60e51b815260206004820152602260248201527f506c656173652070726f766964652076616c696420726f6c6573206164647265604482015261737360f01b606482015260840160405180910390fd5b60601b6001600160601b0319166080525060028054600181018255600091909152606a7f405787fa12a823e0f2b7631cc41b3ba8828b3321ca811111fa75cd3aa3bb5ace90910155610110565b6000602082840312156100f3578081fd5b81516001600160a01b0381168114610109578182fd5b9392505050565b60805160601c610ecf61014a600039600081816101c4015281816103cc01528181610581015281816109950152610a2d0152610ecf6000f3fe608060405234801561001057600080fd5b506004361061014d5760003560e01c80637dad209b116100c3578063aeb38d8b1161007c578063aeb38d8b14610344578063bf184ea414610357578063d52237601461036a578063dc94cb7d1461037d578063e8ea4fae14610385578063e9c3f77d1461038d5761014d565b80637dad209b146102c5578063885fa056146102cd578063891ea1aa146102e05780638b595919146102f35780638eaab58c1461031e578063abcbc4fc146103315761014d565b8063447d52ba11610115578063447d52ba146102115780634a7a7f41146102245780634fcd54a414610239578063576cbc30146102615780636caa9c11146102745780637a1a04df146102875761014d565b8063071060a61461015257806313304f421461016757806315c2ba5014610191578063392f5f64146101bf5780633cf685d6146101fe575b600080fd5b610165610160366004610cee565b6103b6565b005b61017a610175366004610c1d565b61047c565b604051610188929190610d8f565b60405180910390f35b6101b161019f366004610b0c565b60066020526000908152604090205481565b604051908152602001610188565b6101e67f000000000000000000000000000000000000000000000000000000000000000081565b6040516001600160a01b039091168152602001610188565b61016561020c366004610c62565b6104ed565b61016561021f366004610d06565b61055b565b61022c610633565b6040516101889190610d4b565b61024c610247366004610c8d565b61068b565b60408051928352602083019190915201610188565b6101b161026f366004610c8d565b6106bd565b6101b1610282366004610cee565b6106d2565b6102b5610295366004610c62565b600160209081526000928352604080842090915290825290205460ff1681565b6040519015158152602001610188565b61022c6106f3565b61024c6102db366004610c8d565b610749565b6101656102ee366004610b83565b610757565b6101b1610301366004610b4b565b600760209081526000928352604080842090915290825290205481565b6101b161032c366004610c8d565b610817565b6101b161033f366004610cee565b61085a565b6101b1610352366004610cee565b61086a565b6101b1610365366004610cee565b61087a565b610165610378366004610c1d565b61088a565b61022c6108e5565b61022c61093b565b6101e661039b366004610cee565b6000602081905290815260409020546001600160a01b031681565b60405163b4ed0b6d60e01b8152600481018290527f00000000000000000000000000000000000000000000000000000000000000006001600160a01b03169063b4ed0b6d9060240160206040518083038186803b15801561041657600080fd5b505afa15801561042a573d6000803e3d6000fd5b505050506040513d601f19601f8201168201806040525081019061044e9190610b2f565b60009182526020829052604090912080546001600160a01b0319166001600160a01b03909216919091179055565b60006060818461049085600160701b610e56565b61049a9190610e36565b6001600160a01b03978816600090815260076020908152604080832099909a1682529788528890205488519788019690965286880194909452505084518085038601815260609094019094521492909150565b336104f6610991565b6001600160a01b0316148061051a57503361050f610a29565b6001600160a01b0316145b61053f5760405162461bcd60e51b815260040161053690610dec565b60405180910390fd5b6001600160a01b03909116600090815260066020526040902055565b6040516393552a3d60e01b8152600481018390526001600160a01b0382811660248301527f000000000000000000000000000000000000000000000000000000000000000016906393552a3d9060440160206040518083038186803b1580156105c357600080fd5b505afa1580156105d7573d6000803e3d6000fd5b505050506040513d601f19601f820116820180604052508101906105fb9190610cce565b6001600160a01b0391909116600090815260016020908152604080832094835293905291909120805460ff1916911515919091179055565b6060600380548060200260200160405190810160405280929190818152602001828054801561068157602002820191906000526020600020905b81548152602001906001019080831161066d575b5050505050905090565b600080610699858585610817565b6001600160a01b039590951660009081526006602052604090205494959350505050565b60006106ca848484610817565b949350505050565b600581815481106106e257600080fd5b600091825260209091200154905081565b60606004805480602002602001604051908101604052809291908181526020018280548015610681576020028201919060005260206000209081548152602001906001019080831161066d575050505050905090565b6000806106998585856106bd565b33610793606a60009081526020527ff3261457f4fd0b7c00a1511877ab27b74183ac470be8db3a7ecdc64335f6f979546001600160a01b031690565b6001600160a01b0316146107e95760405162461bcd60e51b815260206004820152601d60248201527f4e6f7420617574686f72697a656420746f20696e6974206f7261636c650000006044820152606401610536565b6001600160a01b038516600090815260066020526040902083905561081085858484610a9a565b5050505050565b6001600160a01b038084166000908152600760209081526040808320938516835292905290812054600160701b90610850908590610e56565b6106ca9190610e36565b600281815481106106e257600080fd5b600481815481106106e257600080fd5b600381815481106106e257600080fd5b33610893610991565b6001600160a01b031614806108b75750336108ac610a29565b6001600160a01b0316145b6108d35760405162461bcd60e51b815260040161053690610dec565b6108df84848484610ac1565b50505050565b60606002805480602002602001604051908101604052809291908181526020018280548015610681576020028201919060005260206000209081548152602001906001019080831161066d575050505050905090565b60606005805480602002602001604051908101604052809291908181526020018280548015610681576020028201919060005260206000209081548152602001906001019080831161066d575050505050905090565b60007f00000000000000000000000000000000000000000000000000000000000000006001600160a01b0316638da5cb5b6040518163ffffffff1660e01b815260040160206040518083038186803b1580156109ec57600080fd5b505afa158015610a00573d6000803e3d6000fd5b505050506040513d601f19601f82011682018060405250810190610a249190610b2f565b905090565b60007f00000000000000000000000000000000000000000000000000000000000000006001600160a01b031663c34c08e56040518163ffffffff1660e01b8152600401602060405180830381600087803b158015610a8657600080fd5b505af1158015610a00573d6000803e3d6000fd5b600080610aa983850185610d2a565b91509150610ab986868484610ac1565b505050505050565b81610ad082600160701b610e56565b610ada9190610e36565b6001600160a01b0394851660009081526007602090815260408083209690971682529490945293909220929092555050565b600060208284031215610b1d578081fd5b8135610b2881610e81565b9392505050565b600060208284031215610b40578081fd5b8151610b2881610e81565b60008060408385031215610b5d578081fd5b8235610b6881610e81565b91506020830135610b7881610e81565b809150509250929050565b600080600080600060808688031215610b9a578081fd5b8535610ba581610e81565b94506020860135610bb581610e81565b935060408601359250606086013567ffffffffffffffff80821115610bd8578283fd5b818801915088601f830112610beb578283fd5b813581811115610bf9578384fd5b896020828501011115610c0a578384fd5b9699959850939650602001949392505050565b60008060008060808587031215610c32578384fd5b8435610c3d81610e81565b93506020850135610c4d81610e81565b93969395505050506040820135916060013590565b60008060408385031215610c74578182fd5b8235610c7f81610e81565b946020939093013593505050565b600080600060608486031215610ca1578283fd5b8335610cac81610e81565b9250602084013591506040840135610cc381610e81565b809150509250925092565b600060208284031215610cdf578081fd5b81518015158114610b28578182fd5b600060208284031215610cff578081fd5b5035919050565b60008060408385031215610d18578182fd5b823591506020830135610b7881610e81565b60008060408385031215610d3c578182fd5b50508035926020909101359150565b6020808252825182820181905260009190848201906040850190845b81811015610d8357835183529284019291840191600101610d67565b50909695505050505050565b6000831515825260206040818401528351806040850152825b81811015610dc457858101830151858201606001528201610da8565b81811115610dd55783606083870101525b50601f01601f191692909201606001949350505050565b6020808252602a908201527f526f6c65733a2063616c6c6572206973206e6f7420746865206f776e6572206f604082015269391032bc32b1baba37b960b11b606082015260800190565b600082610e5157634e487b7160e01b81526012600452602481fd5b500490565b6000816000190483118215151615610e7c57634e487b7160e01b81526011600452602481fd5b500290565b6001600160a01b0381168114610e9657600080fd5b5056fea264697066735822122046bbe428ef221365a73b7710e62c89d2ec9880c866f5fc9a7700000b60c59ee164736f6c63430008030033",
  "devdoc": {
    "kind": "dev",
    "methods": {
      "charactersPlayed()": {
        "details": "returns all characters played by this contract (e.g. stable coin, oracle registry)"
      },
      "dependsOnCharacters()": {
        "details": "returns all the character dependencies like FEE_RECIPIENT"
      },
      "dependsOnRoles()": {
        "details": "returns all the roles dependencies of this contract like FUND_TRANSFERER"
      },
      "rolesPlayed()": {
        "details": "returns all roles played by this contract"
      },
      "updateMainCharacterCache(uint256)": {
        "details": "Updates the main character cache for a speciic character"
      },
      "updateRoleCache(uint256,address)": {
        "details": "Updates the role cache for a specific role and address"
      }
    },
    "version": 1
  },
  "userdoc": {
    "kind": "user",
    "methods": {
      "encodeAndCheckOracleParams(address,address,uint256,uint256)": {
        "notice": "Set conversion factor by presenting one token amount and corresponding converted amount"
      }
    },
    "notice": "Converts from one currency to another by a static factor",
    "version": 1
  },
  "storageLayout": {
    "storage": [
      {
        "astId": 16323,
        "contract": "contracts/oracles/EquivalentScaledOracle.sol:EquivalentScaledOracle",
        "label": "mainCharacterCache",
        "offset": 0,
        "slot": "0",
        "type": "t_mapping(t_uint256,t_address)"
      },
      {
        "astId": 16329,
        "contract": "contracts/oracles/EquivalentScaledOracle.sol:EquivalentScaledOracle",
        "label": "roleCache",
        "offset": 0,
        "slot": "1",
        "type": "t_mapping(t_address,t_mapping(t_uint256,t_bool))"
      },
      {
        "astId": 16332,
        "contract": "contracts/oracles/EquivalentScaledOracle.sol:EquivalentScaledOracle",
        "label": "_dependsOnCharacters",
        "offset": 0,
        "slot": "2",
        "type": "t_array(t_uint256)dyn_storage"
      },
      {
        "astId": 16335,
        "contract": "contracts/oracles/EquivalentScaledOracle.sol:EquivalentScaledOracle",
        "label": "_dependsOnRoles",
        "offset": 0,
        "slot": "3",
        "type": "t_array(t_uint256)dyn_storage"
      },
      {
        "astId": 16338,
        "contract": "contracts/oracles/EquivalentScaledOracle.sol:EquivalentScaledOracle",
        "label": "_charactersPlayed",
        "offset": 0,
        "slot": "4",
        "type": "t_array(t_uint256)dyn_storage"
      },
      {
        "astId": 16341,
        "contract": "contracts/oracles/EquivalentScaledOracle.sol:EquivalentScaledOracle",
        "label": "_rolesPlayed",
        "offset": 0,
        "slot": "5",
        "type": "t_array(t_uint256)dyn_storage"
      },
      {
        "astId": 14139,
        "contract": "contracts/oracles/EquivalentScaledOracle.sol:EquivalentScaledOracle",
        "label": "borrowablePer10ks",
        "offset": 0,
        "slot": "6",
        "type": "t_mapping(t_address,t_uint256)"
      },
      {
        "astId": 13961,
        "contract": "contracts/oracles/EquivalentScaledOracle.sol:EquivalentScaledOracle",
        "label": "scaleConversionFP",
        "offset": 0,
        "slot": "7",
        "type": "t_mapping(t_address,t_mapping(t_address,t_uint256))"
      }
    ],
    "types": {
      "t_address": {
        "encoding": "inplace",
        "label": "address",
        "numberOfBytes": "20"
      },
      "t_array(t_uint256)dyn_storage": {
        "base": "t_uint256",
        "encoding": "dynamic_array",
        "label": "uint256[]",
        "numberOfBytes": "32"
      },
      "t_bool": {
        "encoding": "inplace",
        "label": "bool",
        "numberOfBytes": "1"
      },
      "t_mapping(t_address,t_mapping(t_address,t_uint256))": {
        "encoding": "mapping",
        "key": "t_address",
        "label": "mapping(address => mapping(address => uint256))",
        "numberOfBytes": "32",
        "value": "t_mapping(t_address,t_uint256)"
      },
      "t_mapping(t_address,t_mapping(t_uint256,t_bool))": {
        "encoding": "mapping",
        "key": "t_address",
        "label": "mapping(address => mapping(uint256 => bool))",
        "numberOfBytes": "32",
        "value": "t_mapping(t_uint256,t_bool)"
      },
      "t_mapping(t_address,t_uint256)": {
        "encoding": "mapping",
        "key": "t_address",
        "label": "mapping(address => uint256)",
        "numberOfBytes": "32",
        "value": "t_uint256"
      },
      "t_mapping(t_uint256,t_address)": {
        "encoding": "mapping",
        "key": "t_uint256",
        "label": "mapping(uint256 => address)",
        "numberOfBytes": "32",
        "value": "t_address"
      },
      "t_mapping(t_uint256,t_bool)": {
        "encoding": "mapping",
        "key": "t_uint256",
        "label": "mapping(uint256 => bool)",
        "numberOfBytes": "32",
        "value": "t_bool"
      },
      "t_uint256": {
        "encoding": "inplace",
        "label": "uint256",
        "numberOfBytes": "32"
      }
    }
  }
}