{
  "address": "0x4a0D580845D72aA40cCEd0F361D0F60be9282108",
  "abi": [
    {
      "inputs": [
        {
          "internalType": "address",
          "name": "_roles",
          "type": "address"
        }
      ],
      "stateMutability": "nonpayable",
      "type": "constructor"
    },
    {
      "anonymous": false,
      "inputs": [
        {
          "indexed": false,
          "internalType": "string",
          "name": "param",
          "type": "string"
        },
        {
          "indexed": false,
          "internalType": "uint256",
          "name": "value",
          "type": "uint256"
        }
      ],
      "name": "ParameterUpdated",
      "type": "event"
    },
    {
      "anonymous": false,
      "inputs": [
        {
          "indexed": false,
          "internalType": "string",
          "name": "param",
          "type": "string"
        },
        {
          "indexed": false,
          "internalType": "address",
          "name": "subject",
          "type": "address"
        },
        {
          "indexed": false,
          "internalType": "uint256",
          "name": "value",
          "type": "uint256"
        }
      ],
      "name": "SubjectParameterUpdated",
      "type": "event"
    },
    {
      "anonymous": false,
      "inputs": [
        {
          "indexed": false,
          "internalType": "string",
          "name": "param",
          "type": "string"
        },
        {
          "indexed": false,
          "internalType": "address",
          "name": "subject",
          "type": "address"
        }
      ],
      "name": "SubjectUpdated",
      "type": "event"
    },
    {
      "inputs": [
        {
          "internalType": "uint256",
          "name": "",
          "type": "uint256"
        }
      ],
      "name": "_charactersPlayed",
      "outputs": [
        {
          "internalType": "uint256",
          "name": "",
          "type": "uint256"
        }
      ],
      "stateMutability": "view",
      "type": "function"
    },
    {
      "inputs": [
        {
          "internalType": "uint256",
          "name": "",
          "type": "uint256"
        }
      ],
      "name": "_dependsOnCharacters",
      "outputs": [
        {
          "internalType": "uint256",
          "name": "",
          "type": "uint256"
        }
      ],
      "stateMutability": "view",
      "type": "function"
    },
    {
      "inputs": [
        {
          "internalType": "uint256",
          "name": "",
          "type": "uint256"
        }
      ],
      "name": "_dependsOnRoles",
      "outputs": [
        {
          "internalType": "uint256",
          "name": "",
          "type": "uint256"
        }
      ],
      "stateMutability": "view",
      "type": "function"
    },
    {
      "inputs": [
        {
          "internalType": "uint256",
          "name": "",
          "type": "uint256"
        }
      ],
      "name": "_rolesPlayed",
      "outputs": [
        {
          "internalType": "uint256",
          "name": "",
          "type": "uint256"
        }
      ],
      "stateMutability": "view",
      "type": "function"
    },
    {
      "inputs": [],
      "name": "charactersPlayed",
      "outputs": [
        {
          "internalType": "uint256[]",
          "name": "",
          "type": "uint256[]"
        }
      ],
      "stateMutability": "view",
      "type": "function"
    },
    {
      "inputs": [],
      "name": "dependsOnCharacters",
      "outputs": [
        {
          "internalType": "uint256[]",
          "name": "",
          "type": "uint256[]"
        }
      ],
      "stateMutability": "view",
      "type": "function"
    },
    {
      "inputs": [],
      "name": "dependsOnRoles",
      "outputs": [
        {
          "internalType": "uint256[]",
          "name": "",
          "type": "uint256[]"
        }
      ],
      "stateMutability": "view",
      "type": "function"
    },
    {
      "inputs": [
        {
          "internalType": "address",
          "name": "fromToken",
          "type": "address"
        },
        {
          "internalType": "address",
          "name": "",
          "type": "address"
        }
      ],
      "name": "encodeAndCheckOracleParams",
      "outputs": [
        {
          "internalType": "bool",
          "name": "",
          "type": "bool"
        },
        {
          "internalType": "bytes",
          "name": "",
          "type": "bytes"
        }
      ],
      "stateMutability": "view",
      "type": "function"
    },
    {
      "inputs": [],
      "name": "fsGlp",
      "outputs": [
        {
          "internalType": "address",
          "name": "",
          "type": "address"
        }
      ],
      "stateMutability": "view",
      "type": "function"
    },
    {
      "inputs": [
        {
          "internalType": "address",
          "name": "token",
          "type": "address"
        },
        {
          "internalType": "uint256",
          "name": "inAmount",
          "type": "uint256"
        },
        {
          "internalType": "address",
          "name": "wrappedCurrency",
          "type": "address"
        }
      ],
      "name": "getAmountInPeg",
      "outputs": [
        {
          "internalType": "uint256",
          "name": "",
          "type": "uint256"
        }
      ],
      "stateMutability": "nonpayable",
      "type": "function"
    },
    {
      "inputs": [
        {
          "internalType": "address",
          "name": "token",
          "type": "address"
        },
        {
          "internalType": "uint256",
          "name": "inAmount",
          "type": "uint256"
        },
        {
          "internalType": "address",
          "name": "pegCurrency",
          "type": "address"
        }
      ],
      "name": "getPegAmountAndBorrowable",
      "outputs": [
        {
          "internalType": "uint256",
          "name": "",
          "type": "uint256"
        },
        {
          "internalType": "uint256",
          "name": "",
          "type": "uint256"
        }
      ],
      "stateMutability": "nonpayable",
      "type": "function"
    },
    {
      "inputs": [],
      "name": "glp",
      "outputs": [
        {
          "internalType": "contract IERC20",
          "name": "",
          "type": "address"
        }
      ],
      "stateMutability": "view",
      "type": "function"
    },
    {
      "inputs": [],
      "name": "glpManager",
      "outputs": [
        {
          "internalType": "contract IGlpManager",
          "name": "",
          "type": "address"
        }
      ],
      "stateMutability": "view",
      "type": "function"
    },
    {
      "inputs": [],
      "name": "lastValuePer1e12",
      "outputs": [
        {
          "internalType": "uint256",
          "name": "",
          "type": "uint256"
        }
      ],
      "stateMutability": "view",
      "type": "function"
    },
    {
      "inputs": [
        {
          "internalType": "uint256",
          "name": "",
          "type": "uint256"
        }
      ],
      "name": "mainCharacterCache",
      "outputs": [
        {
          "internalType": "address",
          "name": "",
          "type": "address"
        }
      ],
      "stateMutability": "view",
      "type": "function"
    },
    {
      "inputs": [
        {
          "internalType": "address",
          "name": "",
          "type": "address"
        },
        {
          "internalType": "uint256",
          "name": "",
          "type": "uint256"
        }
      ],
      "name": "roleCache",
      "outputs": [
        {
          "internalType": "bool",
          "name": "",
          "type": "bool"
        }
      ],
      "stateMutability": "view",
      "type": "function"
    },
    {
      "inputs": [],
      "name": "roles",
      "outputs": [
        {
          "internalType": "contract Roles",
          "name": "",
          "type": "address"
        }
      ],
      "stateMutability": "view",
      "type": "function"
    },
    {
      "inputs": [],
      "name": "rolesPlayed",
      "outputs": [
        {
          "internalType": "uint256[]",
          "name": "",
          "type": "uint256[]"
        }
      ],
      "stateMutability": "view",
      "type": "function"
    },
    {
      "inputs": [
        {
          "internalType": "address",
          "name": "token",
          "type": "address"
        },
        {
          "internalType": "address",
          "name": "pegCurrency",
          "type": "address"
        },
        {
          "internalType": "bytes",
          "name": "data",
          "type": "bytes"
        }
      ],
      "name": "setOracleParams",
      "outputs": [],
      "stateMutability": "nonpayable",
      "type": "function"
    },
    {
      "inputs": [
        {
          "internalType": "address",
          "name": "fromToken",
          "type": "address"
        },
        {
          "internalType": "address",
          "name": "toToken",
          "type": "address"
        }
      ],
      "name": "setOracleSpecificParams",
      "outputs": [],
      "stateMutability": "nonpayable",
      "type": "function"
    },
    {
      "inputs": [
        {
          "internalType": "uint256",
          "name": "window",
          "type": "uint256"
        }
      ],
      "name": "setUpdateWindow",
      "outputs": [],
      "stateMutability": "nonpayable",
      "type": "function"
    },
    {
      "inputs": [
        {
          "internalType": "uint256",
          "name": "smoothingPer10k",
          "type": "uint256"
        }
      ],
      "name": "setValueSmoothingPer10k",
      "outputs": [],
      "stateMutability": "nonpayable",
      "type": "function"
    },
    {
      "inputs": [
        {
          "internalType": "uint256",
          "name": "role",
          "type": "uint256"
        }
      ],
      "name": "updateMainCharacterCache",
      "outputs": [],
      "stateMutability": "nonpayable",
      "type": "function"
    },
    {
      "inputs": [
        {
          "internalType": "uint256",
          "name": "role",
          "type": "uint256"
        },
        {
          "internalType": "address",
          "name": "contr",
          "type": "address"
        }
      ],
      "name": "updateRoleCache",
      "outputs": [],
      "stateMutability": "nonpayable",
      "type": "function"
    },
    {
      "inputs": [],
      "name": "updateWindow",
      "outputs": [
        {
          "internalType": "uint256",
          "name": "",
          "type": "uint256"
        }
      ],
      "stateMutability": "view",
      "type": "function"
    },
    {
      "inputs": [],
      "name": "valuePer1e12",
      "outputs": [
        {
          "internalType": "uint256",
          "name": "",
          "type": "uint256"
        }
      ],
      "stateMutability": "view",
      "type": "function"
    },
    {
      "inputs": [],
      "name": "valueSmoothingPer10k",
      "outputs": [
        {
          "internalType": "uint256",
          "name": "",
          "type": "uint256"
        }
      ],
      "stateMutability": "view",
      "type": "function"
    },
    {
      "inputs": [
        {
          "internalType": "address",
          "name": "token",
          "type": "address"
        },
        {
          "internalType": "uint256",
          "name": "inAmount",
          "type": "uint256"
        },
        {
          "internalType": "address",
          "name": "",
          "type": "address"
        }
      ],
      "name": "viewAmountInPeg",
      "outputs": [
        {
          "internalType": "uint256",
          "name": "",
          "type": "uint256"
        }
      ],
      "stateMutability": "view",
      "type": "function"
    },
    {
      "inputs": [
        {
          "internalType": "address",
          "name": "token",
          "type": "address"
        },
        {
          "internalType": "uint256",
          "name": "inAmount",
          "type": "uint256"
        },
        {
          "internalType": "address",
          "name": "pegCurrency",
          "type": "address"
        }
      ],
      "name": "viewPegAmountAndBorrowable",
      "outputs": [
        {
          "internalType": "uint256",
          "name": "",
          "type": "uint256"
        },
        {
          "internalType": "uint256",
          "name": "",
          "type": "uint256"
        }
      ],
      "stateMutability": "view",
      "type": "function"
    }
  ],
  "transactionHash": "0x2df3898c1b5a743b2b800d1051fea4de88ea7cdc2297905619a1a429bc80e0ed",
  "args": [
    "0x9e1EE00d45252aA58623F7d771FB414aA38f0878"
  ],
  "numDeployments": 1,
  "solcInputHash": "2040db6dbf45e6341858a5f192e5b727",
  "bytecode": "0x60a0604052600680546001600160a01b031990811673e1ae4d4b06a5fe1fc288f6b4cd72f9f8323b107f17909155600780549091167301234181085565ed162a948b6a5e88758cd7c7b81790556103e86008556104b0600c5534801561006457600080fd5b5060405161151438038061151483398101604081905261008391610136565b806001600160a01b0381166100e95760405162461bcd60e51b815260206004820152602260248201527f506c656173652070726f766964652076616c696420726f6c6573206164647265604482015261737360f01b606482015260840160405180910390fd5b60601b6001600160601b0319166080525060028054600181018255600091909152606a7f405787fa12a823e0f2b7631cc41b3ba8828b3321ca811111fa75cd3aa3bb5ace90910155610164565b600060208284031215610147578081fd5b81516001600160a01b038116811461015d578182fd5b9392505050565b60805160601c61137661019e600039600081816101d3015281816103fc0152818161073e01528181610d080152610da001526113766000f3fe608060405234801561001057600080fd5b506004361061015f5760003560e01c80630446c55414610164578063071060a6146101805780630db8fd42146101955780632eb1504b146101a857806332f42fe6146101bb578063392f5f64146101ce578063447d52ba14610202578063458f0c70146102155780634a7a7f41146102305780634fcd54a414610245578063576cbc301461026d57806369aa57d1146102805780636caa9c111461029357806378a207ee146102a65780637a1a04df146102b95780637dad209b146102f7578063885fa056146102ff5780638d7b0364146103125780638eaab58c1461031b578063abcbc4fc1461032e578063aeb38d8b14610341578063b5317c5d14610354578063bf184ea41461035d578063d239f46914610370578063dc94cb7d14610391578063e8ea4fae14610399578063e9c3f77d146103a1578063fa6db1bc146103ca578063ff2dc23d146103dd575b600080fd5b61016d60095481565b6040519081526020015b60405180910390f35b61019361018e366004611121565b6103e6565b005b6101936101a3366004610fd1565b6104ac565b6101936101b6366004611121565b61051d565b6101936101c9366004611009565b610614565b6101f57f000000000000000000000000000000000000000000000000000000000000000081565b6040516101779190611175565b610193610210366004611151565b610718565b6101f5739e295b5b976a184b14ad8cd72413ad846c29966081565b6102386107f0565b6040516101779190611189565b6102586102533660046110c0565b610848565b60408051928352602083019190915201610177565b61016d61027b3660046110c0565b6108e5565b61019361028e366004611121565b610a6a565b61016d6102a1366004611121565b610ab8565b6007546101f5906001600160a01b031681565b6102e76102c7366004611095565b600160209081526000928352604080842090915290825290205460ff1681565b6040519015158152602001610177565b610238610ad9565b61025861030d3660046110c0565b610b2f565b61016d600a5481565b61016d6103293660046110c0565b610b3d565b61016d61033c366004611121565b610bb1565b61016d61034f366004611121565b610bc1565b61016d60085481565b61016d61036b366004611121565b610bd1565b61038361037e366004610fd1565b610be1565b6040516101779291906111cd565b610238610c58565b610238610cae565b6101f56103af366004611121565b6000602081905290815260409020546001600160a01b031681565b6006546101f5906001600160a01b031681565b61016d600c5481565b60405163b4ed0b6d60e01b8152600481018290527f00000000000000000000000000000000000000000000000000000000000000006001600160a01b03169063b4ed0b6d9060240160206040518083038186803b15801561044657600080fd5b505afa15801561045a573d6000803e3d6000fd5b505050506040513d601f19601f8201168201806040525081019061047e9190610fae565b60009182526020829052604090912080546001600160a01b0319166001600160a01b03909216919091179055565b336104b5610d04565b6001600160a01b031614806104d95750336104ce610d9c565b6001600160a01b0316145b6104fe5760405162461bcd60e51b81526004016104f59061122a565b60405180910390fd5b604080516020810190915260008152610518838383610e0d565b505050565b33610526610d04565b6001600160a01b0316148061054a57503361053f610d9c565b6001600160a01b0316145b6105665760405162461bcd60e51b81526004016104f59061122a565b8061271010156105b45760405162461bcd60e51b81526020600482015260196024820152784e6565647320746f206265206c657373207468616e2031306b60381b60448201526064016104f5565b600881905560408051818152600f818301526e76616c756520736d6f6f7468696e6760881b60608201526020810183905290517f3a64504f0bc0c335e2aecb78638a257e0351a3fe0370861fd54ee4190b9209339181900360800190a150565b3361061d610f76565b6001600160a01b0316146106735760405162461bcd60e51b815260206004820152601d60248201527f4e6f7420617574686f72697a656420746f20696e6974206f7261636c6500000060448201526064016104f5565b6106b4848484848080601f016020809104026020016040519081016040528093929190818152602001838380828437600092019190915250610e0d92505050565b60408051818152600d818301526c6f7261636c6520706172616d7360981b60608201526001600160a01b038616602082015290517fbd64fae90eab1019a6c354538cfa598ad3d642c5b1bc8a8613bcb716723fa2d79181900360800190a150505050565b60405163f0723d9760e01b81526001600160a01b038281166004830152602482018490527f0000000000000000000000000000000000000000000000000000000000000000169063f0723d979060440160206040518083038186803b15801561078057600080fd5b505afa158015610794573d6000803e3d6000fd5b505050506040513d601f19601f820116820180604052508101906107b89190611101565b6001600160a01b0391909116600090815260016020908152604080832094835293905291909120805460ff1916911515919091179055565b6060600380548060200260200160405190810160405280929190818152602001828054801561083e57602002820191906000526020600020905b81548152602001906001019080831161082a575b5050505050905090565b600080610856858585610b3d565b61085e610f76565b6001600160a01b03166315c2ba50876040518263ffffffff1660e01b81526004016108899190611175565b60206040518083038186803b1580156108a157600080fd5b505afa1580156108b5573d6000803e3d6000fd5b505050506040513d601f19601f820116820180604052508101906108d99190611139565b91509150935093915050565b6000806108f3858585610b3d565b9050600c54600b544261090691906112fb565b1115610a625742600b55600754604080516318160ddd60e01b815290516000926001600160a01b0316916318160ddd916004808301926020929190829003018186803b15801561095557600080fd5b505afa158015610969573d6000803e3d6000fd5b505050506040513d601f19601f8201168201806040525081019061098d9190611139565b60065460405163019c8a3b60e11b8152600060048201526001600160a01b039091169063033914769060240160206040518083038186803b1580156109d157600080fd5b505afa1580156109e5573d6000803e3d6000fd5b505050506040513d601f19601f82011682018060405250810190610a099190611139565b610a1391906112bc565b600a54600955600854909150612710908290610a2f90836112fb565b610a3991906112dc565b600a54600854610a4991906112dc565b610a5391906112a4565b610a5d91906112bc565b600a55505b949350505050565b33610a73610d04565b6001600160a01b03161480610a97575033610a8c610d9c565b6001600160a01b0316145b610ab35760405162461bcd60e51b81526004016104f59061122a565b600c55565b60058181548110610ac857600080fd5b600091825260209091200154905081565b6060600480548060200260200160405190810160405280929190818152602001828054801561083e576020028201919060005260206000209081548152602001906001019080831161082a575050505050905090565b6000806108568585856108e5565b60006001600160a01b038416739e295b5b976a184b14ad8cd72413ad846c2996601480610b7757506007546001600160a01b038581169116145b610b935760405162461bcd60e51b81526004016104f590611274565b64e8d4a5100060095484610ba791906112dc565b610a6291906112bc565b60028181548110610ac857600080fd5b60048181548110610ac857600080fd5b60038181548110610ac857600080fd5b600060606001600160a01b038416739e295b5b976a184b14ad8cd72413ad846c2996601480610c1d57506007546001600160a01b038581169116145b610c395760405162461bcd60e51b81526004016104f590611274565b5050600a54604080516020810190915260008152901515909250929050565b6060600280548060200260200160405190810160405280929190818152602001828054801561083e576020028201919060005260206000209081548152602001906001019080831161082a575050505050905090565b6060600580548060200260200160405190810160405280929190818152602001828054801561083e576020028201919060005260206000209081548152602001906001019080831161082a575050505050905090565b60007f00000000000000000000000000000000000000000000000000000000000000006001600160a01b0316638da5cb5b6040518163ffffffff1660e01b815260040160206040518083038186803b158015610d5f57600080fd5b505afa158015610d73573d6000803e3d6000fd5b505050506040513d601f19601f82011682018060405250810190610d979190610fae565b905090565b60007f00000000000000000000000000000000000000000000000000000000000000006001600160a01b031663c34c08e56040518163ffffffff1660e01b8152600401602060405180830381600087803b158015610df957600080fd5b505af1158015610d73573d6000803e3d6000fd5b6001600160a01b038316739e295b5b976a184b14ad8cd72413ad846c2996601480610e4557506007546001600160a01b038481169116145b610e615760405162461bcd60e51b81526004016104f590611274565b600754604080516318160ddd60e01b815290516000926001600160a01b0316916318160ddd916004808301926020929190829003018186803b158015610ea657600080fd5b505afa158015610eba573d6000803e3d6000fd5b505050506040513d601f19601f82011682018060405250810190610ede9190611139565b60065460405163019c8a3b60e11b8152600060048201526001600160a01b039091169063033914769060240160206040518083038186803b158015610f2257600080fd5b505afa158015610f36573d6000803e3d6000fd5b505050506040513d601f19601f82011682018060405250810190610f5a9190611139565b610f6491906112bc565b600a819055600955505042600b555050565b606a60009081526020527ff3261457f4fd0b7c00a1511877ab27b74183ac470be8db3a7ecdc64335f6f979546001600160a01b031690565b600060208284031215610fbf578081fd5b8151610fca81611328565b9392505050565b60008060408385031215610fe3578081fd5b8235610fee81611328565b91506020830135610ffe81611328565b809150509250929050565b6000806000806060858703121561101e578182fd5b843561102981611328565b9350602085013561103981611328565b925060408501356001600160401b0380821115611054578384fd5b818701915087601f830112611067578384fd5b813581811115611075578485fd5b886020828501011115611086578485fd5b95989497505060200194505050565b600080604083850312156110a7578182fd5b82356110b281611328565b946020939093013593505050565b6000806000606084860312156110d4578283fd5b83356110df81611328565b92506020840135915060408401356110f681611328565b809150509250925092565b600060208284031215611112578081fd5b81518015158114610fca578182fd5b600060208284031215611132578081fd5b5035919050565b60006020828403121561114a578081fd5b5051919050565b60008060408385031215611163578182fd5b823591506020830135610ffe81611328565b6001600160a01b0391909116815260200190565b6020808252825182820181905260009190848201906040850190845b818110156111c1578351835292840192918401916001016111a5565b50909695505050505050565b6000831515825260206040818401528351806040850152825b81811015611202578581018301518582016060015282016111e6565b818111156112135783606083870101525b50601f01601f191692909201606001949350505050565b6020808252602a908201527f526f6c65733a2063616c6c6572206973206e6f7420746865206f776e6572206f604082015269391032bc32b1baba37b960b11b606082015260800190565b60208082526016908201527504f6e6c7920666f72206673474c5020616e6420474c560541b604082015260600190565b600082198211156112b7576112b7611312565b500190565b6000826112d757634e487b7160e01b81526012600452602481fd5b500490565b60008160001904831182151516156112f6576112f6611312565b500290565b60008282101561130d5761130d611312565b500390565b634e487b7160e01b600052601160045260246000fd5b6001600160a01b038116811461133d57600080fd5b5056fea2646970667358221220c21ad2104ffe43d32ee466155e88539be57e6edec86016b45869ac5991e1012a64736f6c63430008030033",
  "devdoc": {
    "kind": "dev",
    "methods": {
      "charactersPlayed()": {
        "details": "returns all characters played by this contract (e.g. stable coin, oracle registry)"
      },
      "dependsOnCharacters()": {
        "details": "returns all the character dependencies like FEE_RECIPIENT"
      },
      "dependsOnRoles()": {
        "details": "returns all the roles dependencies of this contract like FUND_TRANSFERER"
      },
      "rolesPlayed()": {
        "details": "returns all roles played by this contract"
      },
      "updateMainCharacterCache(uint256)": {
        "details": "Updates the main character cache for a speciic character"
      },
      "updateRoleCache(uint256,address)": {
        "details": "Updates the role cache for a specific role and address"
      }
    },
    "version": 1
  },
  "userdoc": {
    "kind": "user",
    "methods": {
      "encodeAndCheckOracleParams(address,address)": {
        "notice": "Encode params for initialization"
      },
      "getAmountInPeg(address,uint256,address)": {
        "notice": "Convert inAmount to peg (updating)"
      },
      "setOracleSpecificParams(address,address)": {
        "notice": "Set params"
      },
      "viewAmountInPeg(address,uint256,address)": {
        "notice": "Convert inAmount to peg (view)"
      }
    },
    "version": 1
  },
  "storageLayout": {
    "storage": [
      {
        "astId": 38834,
        "contract": "contracts/oracles/fsGLPOracle.sol:fsGLPOracle",
        "label": "mainCharacterCache",
        "offset": 0,
        "slot": "0",
        "type": "t_mapping(t_uint256,t_address)"
      },
      {
        "astId": 38840,
        "contract": "contracts/oracles/fsGLPOracle.sol:fsGLPOracle",
        "label": "roleCache",
        "offset": 0,
        "slot": "1",
        "type": "t_mapping(t_address,t_mapping(t_uint256,t_bool))"
      },
      {
        "astId": 38843,
        "contract": "contracts/oracles/fsGLPOracle.sol:fsGLPOracle",
        "label": "_dependsOnCharacters",
        "offset": 0,
        "slot": "2",
        "type": "t_array(t_uint256)dyn_storage"
      },
      {
        "astId": 38846,
        "contract": "contracts/oracles/fsGLPOracle.sol:fsGLPOracle",
        "label": "_dependsOnRoles",
        "offset": 0,
        "slot": "3",
        "type": "t_array(t_uint256)dyn_storage"
      },
      {
        "astId": 38849,
        "contract": "contracts/oracles/fsGLPOracle.sol:fsGLPOracle",
        "label": "_charactersPlayed",
        "offset": 0,
        "slot": "4",
        "type": "t_array(t_uint256)dyn_storage"
      },
      {
        "astId": 38852,
        "contract": "contracts/oracles/fsGLPOracle.sol:fsGLPOracle",
        "label": "_rolesPlayed",
        "offset": 0,
        "slot": "5",
        "type": "t_array(t_uint256)dyn_storage"
      },
      {
        "astId": 33408,
        "contract": "contracts/oracles/fsGLPOracle.sol:fsGLPOracle",
        "label": "glpManager",
        "offset": 0,
        "slot": "6",
        "type": "t_contract(IGlpManager)65171"
      },
      {
        "astId": 33417,
        "contract": "contracts/oracles/fsGLPOracle.sol:fsGLPOracle",
        "label": "glp",
        "offset": 0,
        "slot": "7",
        "type": "t_contract(IERC20)1410"
      },
      {
        "astId": 33420,
        "contract": "contracts/oracles/fsGLPOracle.sol:fsGLPOracle",
        "label": "valueSmoothingPer10k",
        "offset": 0,
        "slot": "8",
        "type": "t_uint256"
      },
      {
        "astId": 33422,
        "contract": "contracts/oracles/fsGLPOracle.sol:fsGLPOracle",
        "label": "lastValuePer1e12",
        "offset": 0,
        "slot": "9",
        "type": "t_uint256"
      },
      {
        "astId": 33424,
        "contract": "contracts/oracles/fsGLPOracle.sol:fsGLPOracle",
        "label": "valuePer1e12",
        "offset": 0,
        "slot": "10",
        "type": "t_uint256"
      },
      {
        "astId": 33426,
        "contract": "contracts/oracles/fsGLPOracle.sol:fsGLPOracle",
        "label": "lastUpdated",
        "offset": 0,
        "slot": "11",
        "type": "t_uint256"
      },
      {
        "astId": 33429,
        "contract": "contracts/oracles/fsGLPOracle.sol:fsGLPOracle",
        "label": "updateWindow",
        "offset": 0,
        "slot": "12",
        "type": "t_uint256"
      }
    ],
    "types": {
      "t_address": {
        "encoding": "inplace",
        "label": "address",
        "numberOfBytes": "20"
      },
      "t_array(t_uint256)dyn_storage": {
        "base": "t_uint256",
        "encoding": "dynamic_array",
        "label": "uint256[]",
        "numberOfBytes": "32"
      },
      "t_bool": {
        "encoding": "inplace",
        "label": "bool",
        "numberOfBytes": "1"
      },
      "t_contract(IERC20)1410": {
        "encoding": "inplace",
        "label": "contract IERC20",
        "numberOfBytes": "20"
      },
      "t_contract(IGlpManager)65171": {
        "encoding": "inplace",
        "label": "contract IGlpManager",
        "numberOfBytes": "20"
      },
      "t_mapping(t_address,t_mapping(t_uint256,t_bool))": {
        "encoding": "mapping",
        "key": "t_address",
        "label": "mapping(address => mapping(uint256 => bool))",
        "numberOfBytes": "32",
        "value": "t_mapping(t_uint256,t_bool)"
      },
      "t_mapping(t_uint256,t_address)": {
        "encoding": "mapping",
        "key": "t_uint256",
        "label": "mapping(uint256 => address)",
        "numberOfBytes": "32",
        "value": "t_address"
      },
      "t_mapping(t_uint256,t_bool)": {
        "encoding": "mapping",
        "key": "t_uint256",
        "label": "mapping(uint256 => bool)",
        "numberOfBytes": "32",
        "value": "t_bool"
      },
      "t_uint256": {
        "encoding": "inplace",
        "label": "uint256",
        "numberOfBytes": "32"
      }
    }
  }
}