{
  "address": "0xdfc4bD310B68f0Cec28553f325D01Da9b1568F4c",
  "abi": [
    {
      "inputs": [
        {
          "internalType": "address",
          "name": "_WETH",
          "type": "address"
        },
        {
          "internalType": "address",
          "name": "_roles",
          "type": "address"
        }
      ],
      "stateMutability": "nonpayable",
      "type": "constructor"
    },
    {
      "inputs": [],
      "name": "WETH",
      "outputs": [
        {
          "internalType": "address",
          "name": "",
          "type": "address"
        }
      ],
      "stateMutability": "view",
      "type": "function"
    },
    {
      "inputs": [
        {
          "internalType": "uint256",
          "name": "",
          "type": "uint256"
        }
      ],
      "name": "_charactersPlayed",
      "outputs": [
        {
          "internalType": "uint256",
          "name": "",
          "type": "uint256"
        }
      ],
      "stateMutability": "view",
      "type": "function"
    },
    {
      "inputs": [
        {
          "internalType": "uint256",
          "name": "",
          "type": "uint256"
        }
      ],
      "name": "_dependsOnCharacters",
      "outputs": [
        {
          "internalType": "uint256",
          "name": "",
          "type": "uint256"
        }
      ],
      "stateMutability": "view",
      "type": "function"
    },
    {
      "inputs": [
        {
          "internalType": "uint256",
          "name": "",
          "type": "uint256"
        }
      ],
      "name": "_dependsOnRoles",
      "outputs": [
        {
          "internalType": "uint256",
          "name": "",
          "type": "uint256"
        }
      ],
      "stateMutability": "view",
      "type": "function"
    },
    {
      "inputs": [
        {
          "internalType": "uint256",
          "name": "",
          "type": "uint256"
        }
      ],
      "name": "_rolesPlayed",
      "outputs": [
        {
          "internalType": "uint256",
          "name": "",
          "type": "uint256"
        }
      ],
      "stateMutability": "view",
      "type": "function"
    },
    {
      "inputs": [],
      "name": "charactersPlayed",
      "outputs": [
        {
          "internalType": "uint256[]",
          "name": "",
          "type": "uint256[]"
        }
      ],
      "stateMutability": "view",
      "type": "function"
    },
    {
      "inputs": [],
      "name": "dependsOnCharacters",
      "outputs": [
        {
          "internalType": "uint256[]",
          "name": "",
          "type": "uint256[]"
        }
      ],
      "stateMutability": "view",
      "type": "function"
    },
    {
      "inputs": [],
      "name": "dependsOnRoles",
      "outputs": [
        {
          "internalType": "uint256[]",
          "name": "",
          "type": "uint256[]"
        }
      ],
      "stateMutability": "view",
      "type": "function"
    },
    {
      "inputs": [
        {
          "internalType": "address",
          "name": "depositToken",
          "type": "address"
        },
        {
          "internalType": "uint256",
          "name": "depositAmount",
          "type": "uint256"
        }
      ],
      "name": "deposit",
      "outputs": [],
      "stateMutability": "nonpayable",
      "type": "function"
    },
    {
      "inputs": [
        {
          "internalType": "address",
          "name": "sender",
          "type": "address"
        },
        {
          "internalType": "address",
          "name": "depositToken",
          "type": "address"
        },
        {
          "internalType": "uint256",
          "name": "depositAmount",
          "type": "uint256"
        }
      ],
      "name": "depositFor",
      "outputs": [],
      "stateMutability": "nonpayable",
      "type": "function"
    },
    {
      "inputs": [],
      "name": "depositToWETH",
      "outputs": [],
      "stateMutability": "payable",
      "type": "function"
    },
    {
      "inputs": [
        {
          "internalType": "uint256",
          "name": "",
          "type": "uint256"
        }
      ],
      "name": "mainCharacterCache",
      "outputs": [
        {
          "internalType": "address",
          "name": "",
          "type": "address"
        }
      ],
      "stateMutability": "view",
      "type": "function"
    },
    {
      "inputs": [
        {
          "internalType": "address",
          "name": "",
          "type": "address"
        },
        {
          "internalType": "uint256",
          "name": "",
          "type": "uint256"
        }
      ],
      "name": "roleCache",
      "outputs": [
        {
          "internalType": "bool",
          "name": "",
          "type": "bool"
        }
      ],
      "stateMutability": "view",
      "type": "function"
    },
    {
      "inputs": [],
      "name": "roles",
      "outputs": [
        {
          "internalType": "contract Roles",
          "name": "",
          "type": "address"
        }
      ],
      "stateMutability": "view",
      "type": "function"
    },
    {
      "inputs": [],
      "name": "rolesPlayed",
      "outputs": [
        {
          "internalType": "uint256[]",
          "name": "",
          "type": "uint256[]"
        }
      ],
      "stateMutability": "view",
      "type": "function"
    },
    {
      "inputs": [
        {
          "internalType": "uint256",
          "name": "role",
          "type": "uint256"
        }
      ],
      "name": "updateMainCharacterCache",
      "outputs": [],
      "stateMutability": "nonpayable",
      "type": "function"
    },
    {
      "inputs": [
        {
          "internalType": "uint256",
          "name": "role",
          "type": "uint256"
        },
        {
          "internalType": "address",
          "name": "contr",
          "type": "address"
        }
      ],
      "name": "updateRoleCache",
      "outputs": [],
      "stateMutability": "nonpayable",
      "type": "function"
    },
    {
      "inputs": [
        {
          "internalType": "address",
          "name": "withdrawalToken",
          "type": "address"
        },
        {
          "internalType": "address",
          "name": "recipient",
          "type": "address"
        },
        {
          "internalType": "uint256",
          "name": "withdrawalAmount",
          "type": "uint256"
        }
      ],
      "name": "withdraw",
      "outputs": [],
      "stateMutability": "nonpayable",
      "type": "function"
    },
    {
      "inputs": [
        {
          "internalType": "address",
          "name": "recipient",
          "type": "address"
        },
        {
          "internalType": "uint256",
          "name": "withdrawalAmount",
          "type": "uint256"
        }
      ],
      "name": "withdrawETH",
      "outputs": [],
      "stateMutability": "nonpayable",
      "type": "function"
    }
  ],
  "transactionHash": "0x177d11fe241313b284c3354c8b295a5425ba7837c78a8f8d4d83ca04e64eeee5",
  "args": [
    "0xB31f66AA3C1e785363F0875A1B74E27b85FD66c7",
    "0x70429C9357D150E3a9088f94b8D91d944106137B"
  ],
  "solcInputHash": "28c9fd7028c7235019505a3b598cc36a",
  "bytecode": "0x60c060405234801561001057600080fd5b5060405161112638038061112683398101604081905261002f91610136565b806001600160a01b0381166100955760405162461bcd60e51b815260206004820152602260248201527f506c656173652070726f766964652076616c696420726f6c6573206164647265604482015261737360f01b606482015260840160405180910390fd5b6001600160601b0319606091821b81166080526003805460018181019092557fc2575a0e9e593c00f959f8c92f12db2869c3395a3b0502d05e2516446f71f85b018190559390911b1660a0525060048054918201815560005260657f8a35acfbc15ff81a39ae7d344fd709f28e8600b4aa8c65c6b64bfe7fe36bd19b90910155610168565b80516001600160a01b038116811461013157600080fd5b919050565b60008060408385031215610148578182fd5b6101518361011a565b915061015f6020840161011a565b90509250929050565b60805160601c60a05160601c610f776101af600039600081816102d6015281816105de015261073601526000818161014d015281816103ee01526104c40152610f776000f3fe6080604052600436106101145760003560e01c8063a6a5f9fe116100a0578063bf184ea411610064578063bf184ea414610338578063d9caed1214610358578063dc94cb7d14610378578063e8ea4fae1461038d578063e9c3f77d146103a257610114565b8063a6a5f9fe1461029c578063abcbc4fc146102a4578063ad5c4648146102c4578063aeb38d8b146102f8578063b3db428b1461031857610114565b806347e7ef24116100e757806347e7ef24146101cc5780634a7a7f41146101ec5780636caa9c111461020e5780637a1a04df1461023c5780637dad209b1461028757610114565b8063071060a614610119578063392f5f641461013b578063447d52ba1461018c5780634782f779146101ac575b600080fd5b34801561012557600080fd5b50610139610134366004610e23565b6103d8565b005b34801561014757600080fd5b5061016f7f000000000000000000000000000000000000000000000000000000000000000081565b6040516001600160a01b0390911681526020015b60405180910390f35b34801561019857600080fd5b506101396101a7366004610e3b565b61049e565b3480156101b857600080fd5b506101396101c7366004610dd8565b610576565b3480156101d857600080fd5b506101396101e7366004610dd8565b610650565b3480156101f857600080fd5b50610201610665565b6040516101839190610e86565b34801561021a57600080fd5b5061022e610229366004610e23565b6106bd565b604051908152602001610183565b34801561024857600080fd5b50610277610257366004610dd8565b600160209081526000928352604080842090915290825290205460ff1681565b6040519015158152602001610183565b34801561029357600080fd5b506102016106de565b610139610734565b3480156102b057600080fd5b5061022e6102bf366004610e23565b6107aa565b3480156102d057600080fd5b5061016f7f000000000000000000000000000000000000000000000000000000000000000081565b34801561030457600080fd5b5061022e610313366004610e23565b6107ba565b34801561032457600080fd5b50610139610333366004610d98565b6107ca565b34801561034457600080fd5b5061022e610353366004610e23565b610830565b34801561036457600080fd5b50610139610373366004610d98565b610840565b34801561038457600080fd5b506102016108a1565b34801561039957600080fd5b506102016108f7565b3480156103ae57600080fd5b5061016f6103bd366004610e23565b6000602081905290815260409020546001600160a01b031681565b60405163b4ed0b6d60e01b8152600481018290527f00000000000000000000000000000000000000000000000000000000000000006001600160a01b03169063b4ed0b6d9060240160206040518083038186803b15801561043857600080fd5b505afa15801561044c573d6000803e3d6000fd5b505050506040513d601f19601f820116820180604052508101906104709190610d7c565b60009182526020829052604090912080546001600160a01b0319166001600160a01b03909216919091179055565b6040516393552a3d60e01b8152600481018390526001600160a01b0382811660248301527f000000000000000000000000000000000000000000000000000000000000000016906393552a3d9060440160206040518083038186803b15801561050657600080fd5b505afa15801561051a573d6000803e3d6000fd5b505050506040513d601f19601f8201168201806040525081019061053e9190610e03565b6001600160a01b0391909116600090815260016020908152604080832094835293905291909120805460ff1916911515919091179055565b61057f3361094d565b6105c85760405162461bcd60e51b8152602060048201526015602482015274556e617574686f72697a656420776974686472617760581b60448201526064015b60405180910390fd5b604051632e1a7d4d60e01b8152600481018290527f00000000000000000000000000000000000000000000000000000000000000006001600160a01b031690632e1a7d4d90602401600060405180830381600087803b15801561062a57600080fd5b505af115801561063e573d6000803e3d6000fd5b5050505061064c8282610976565b5050565b61064c6001600160a01b038316333084610a8f565b606060038054806020026020016040519081016040528092919081815260200182805480156106b357602002820191906000526020600020905b81548152602001906001019080831161069f575b5050505050905090565b600581815481106106cd57600080fd5b600091825260209091200154905081565b606060048054806020026020016040519081016040528092919081815260200182805480156106b3576020028201919060005260206000209081548152602001906001019080831161069f575050505050905090565b7f00000000000000000000000000000000000000000000000000000000000000006001600160a01b031663d0e30db0346040518263ffffffff1660e01b81526004016000604051808303818588803b15801561078f57600080fd5b505af11580156107a3573d6000803e3d6000fd5b5050505050565b600281815481106106cd57600080fd5b600481815481106106cd57600080fd5b6107d33361094d565b6108165760405162461bcd60e51b8152602060048201526014602482015273155b985d5d1a1bdc9a5e99590819195c1bdcda5d60621b60448201526064016105bf565b61082b6001600160a01b038316843084610a8f565b505050565b600381815481106106cd57600080fd5b6108493361094d565b61088d5760405162461bcd60e51b8152602060048201526015602482015274556e617574686f72697a656420776974686472617760581b60448201526064016105bf565b61082b6001600160a01b0384168383610b00565b606060028054806020026020016040519081016040528092919081815260200182805480156106b3576020028201919060005260206000209081548152602001906001019080831161069f575050505050905090565b606060058054806020026020016040519081016040528092919081815260200182805480156106b3576020028201919060005260206000209081548152602001906001019080831161069f575050505050905090565b6001600160a01b0316600090815260016020818152604080842092845291905290205460ff1690565b804710156109c65760405162461bcd60e51b815260206004820152601d60248201527f416464726573733a20696e73756666696369656e742062616c616e636500000060448201526064016105bf565b6000826001600160a01b03168260405160006040518083038185875af1925050503d8060008114610a13576040519150601f19603f3d011682016040523d82523d6000602084013e610a18565b606091505b505090508061082b5760405162461bcd60e51b815260206004820152603a60248201527f416464726573733a20756e61626c6520746f2073656e642076616c75652c207260448201527f6563697069656e74206d6179206861766520726576657274656400000000000060648201526084016105bf565b6040516001600160a01b0380851660248301528316604482015260648101829052610afa9085906323b872dd60e01b906084015b60408051601f198184030181529190526020810180516001600160e01b03166001600160e01b031990931692909217909152610b30565b50505050565b6040516001600160a01b03831660248201526044810182905261082b90849063a9059cbb60e01b90606401610ac3565b6000610b85826040518060400160405280602081526020017f5361666545524332303a206c6f772d6c6576656c2063616c6c206661696c6564815250856001600160a01b0316610c029092919063ffffffff16565b80519091501561082b5780806020019051810190610ba39190610e03565b61082b5760405162461bcd60e51b815260206004820152602a60248201527f5361666545524332303a204552433230206f7065726174696f6e20646964206e6044820152691bdd081cdd58d8d9595960b21b60648201526084016105bf565b6060610c118484600085610c1b565b90505b9392505050565b606082471015610c7c5760405162461bcd60e51b815260206004820152602660248201527f416464726573733a20696e73756666696369656e742062616c616e636520666f6044820152651c8818d85b1b60d21b60648201526084016105bf565b843b610cca5760405162461bcd60e51b815260206004820152601d60248201527f416464726573733a2063616c6c20746f206e6f6e2d636f6e747261637400000060448201526064016105bf565b600080866001600160a01b03168587604051610ce69190610e6a565b60006040518083038185875af1925050503d8060008114610d23576040519150601f19603f3d011682016040523d82523d6000602084013e610d28565b606091505b5091509150610d38828286610d43565b979650505050505050565b60608315610d52575081610c14565b825115610d625782518084602001fd5b8160405162461bcd60e51b81526004016105bf9190610eca565b600060208284031215610d8d578081fd5b8151610c1481610f29565b600080600060608486031215610dac578182fd5b8335610db781610f29565b92506020840135610dc781610f29565b929592945050506040919091013590565b60008060408385031215610dea578182fd5b8235610df581610f29565b946020939093013593505050565b600060208284031215610e14578081fd5b81518015158114610c14578182fd5b600060208284031215610e34578081fd5b5035919050565b60008060408385031215610e4d578182fd5b823591506020830135610e5f81610f29565b809150509250929050565b60008251610e7c818460208701610efd565b9190910192915050565b6020808252825182820181905260009190848201906040850190845b81811015610ebe57835183529284019291840191600101610ea2565b50909695505050505050565b6000602082528251806020840152610ee9816040850160208701610efd565b601f01601f19169190910160400192915050565b60005b83811015610f18578181015183820152602001610f00565b83811115610afa5750506000910152565b6001600160a01b0381168114610f3e57600080fd5b5056fea2646970667358221220b21b05e42ae27e367e2f613c9d9a68cf5fcc703a98199644dc8dbccaaf2b9bcb64736f6c63430008030033",
  "devdoc": {
    "kind": "dev",
    "methods": {},
    "title": "Manage funding",
    "version": 1
  },
  "userdoc": {
    "kind": "user",
    "methods": {
      "WETH()": {
        "notice": "wrapped ether"
      },
      "deposit(address,uint256)": {
        "notice": "Deposit an active token"
      },
      "depositFor(address,address,uint256)": {
        "notice": "Deposit token on behalf of `sender`"
      },
      "depositToWETH()": {
        "notice": "Deposit to wrapped ether"
      }
    },
    "version": 1
  },
  "storageLayout": {
    "storage": [
      {
        "astId": 14106,
        "contract": "contracts/Fund.sol:Fund",
        "label": "mainCharacterCache",
        "offset": 0,
        "slot": "0",
        "type": "t_mapping(t_uint256,t_address)"
      },
      {
        "astId": 14112,
        "contract": "contracts/Fund.sol:Fund",
        "label": "roleCache",
        "offset": 0,
        "slot": "1",
        "type": "t_mapping(t_address,t_mapping(t_uint256,t_bool))"
      },
      {
        "astId": 14115,
        "contract": "contracts/Fund.sol:Fund",
        "label": "_dependsOnCharacters",
        "offset": 0,
        "slot": "2",
        "type": "t_array(t_uint256)dyn_storage"
      },
      {
        "astId": 14118,
        "contract": "contracts/Fund.sol:Fund",
        "label": "_dependsOnRoles",
        "offset": 0,
        "slot": "3",
        "type": "t_array(t_uint256)dyn_storage"
      },
      {
        "astId": 14121,
        "contract": "contracts/Fund.sol:Fund",
        "label": "_charactersPlayed",
        "offset": 0,
        "slot": "4",
        "type": "t_array(t_uint256)dyn_storage"
      },
      {
        "astId": 14124,
        "contract": "contracts/Fund.sol:Fund",
        "label": "_rolesPlayed",
        "offset": 0,
        "slot": "5",
        "type": "t_array(t_uint256)dyn_storage"
      }
    ],
    "types": {
      "t_address": {
        "encoding": "inplace",
        "label": "address",
        "numberOfBytes": "20"
      },
      "t_array(t_uint256)dyn_storage": {
        "base": "t_uint256",
        "encoding": "dynamic_array",
        "label": "uint256[]",
        "numberOfBytes": "32"
      },
      "t_bool": {
        "encoding": "inplace",
        "label": "bool",
        "numberOfBytes": "1"
      },
      "t_mapping(t_address,t_mapping(t_uint256,t_bool))": {
        "encoding": "mapping",
        "key": "t_address",
        "label": "mapping(address => mapping(uint256 => bool))",
        "numberOfBytes": "32",
        "value": "t_mapping(t_uint256,t_bool)"
      },
      "t_mapping(t_uint256,t_address)": {
        "encoding": "mapping",
        "key": "t_uint256",
        "label": "mapping(uint256 => address)",
        "numberOfBytes": "32",
        "value": "t_address"
      },
      "t_mapping(t_uint256,t_bool)": {
        "encoding": "mapping",
        "key": "t_uint256",
        "label": "mapping(uint256 => bool)",
        "numberOfBytes": "32",
        "value": "t_bool"
      },
      "t_uint256": {
        "encoding": "inplace",
        "label": "uint256",
        "numberOfBytes": "32"
      }
    }
  }
}