{
  "address": "0xa44eee0a220bc895ED0cD546eAF0bafd2b18F26a",
  "abi": [
    {
      "inputs": [
        {
          "internalType": "address",
          "name": "_roles",
          "type": "address"
        }
      ],
      "stateMutability": "nonpayable",
      "type": "constructor"
    },
    {
      "anonymous": false,
      "inputs": [
        {
          "indexed": true,
          "internalType": "address",
          "name": "owner",
          "type": "address"
        },
        {
          "indexed": true,
          "internalType": "address",
          "name": "approved",
          "type": "address"
        },
        {
          "indexed": true,
          "internalType": "uint256",
          "name": "tokenId",
          "type": "uint256"
        }
      ],
      "name": "Approval",
      "type": "event"
    },
    {
      "anonymous": false,
      "inputs": [
        {
          "indexed": true,
          "internalType": "address",
          "name": "owner",
          "type": "address"
        },
        {
          "indexed": true,
          "internalType": "address",
          "name": "operator",
          "type": "address"
        },
        {
          "indexed": false,
          "internalType": "bool",
          "name": "approved",
          "type": "bool"
        }
      ],
      "name": "ApprovalForAll",
      "type": "event"
    },
    {
      "anonymous": false,
      "inputs": [
        {
          "indexed": true,
          "internalType": "uint256",
          "name": "trancheId",
          "type": "uint256"
        }
      ],
      "name": "TrancheUpdated",
      "type": "event"
    },
    {
      "anonymous": false,
      "inputs": [
        {
          "indexed": true,
          "internalType": "address",
          "name": "from",
          "type": "address"
        },
        {
          "indexed": true,
          "internalType": "address",
          "name": "to",
          "type": "address"
        },
        {
          "indexed": true,
          "internalType": "uint256",
          "name": "tokenId",
          "type": "uint256"
        }
      ],
      "name": "Transfer",
      "type": "event"
    },
    {
      "inputs": [
        {
          "internalType": "uint256",
          "name": "",
          "type": "uint256"
        }
      ],
      "name": "_charactersPlayed",
      "outputs": [
        {
          "internalType": "uint256",
          "name": "",
          "type": "uint256"
        }
      ],
      "stateMutability": "view",
      "type": "function"
    },
    {
      "inputs": [
        {
          "internalType": "uint256",
          "name": "",
          "type": "uint256"
        }
      ],
      "name": "_containedIn",
      "outputs": [
        {
          "internalType": "uint256",
          "name": "",
          "type": "uint256"
        }
      ],
      "stateMutability": "view",
      "type": "function"
    },
    {
      "inputs": [
        {
          "internalType": "uint256",
          "name": "",
          "type": "uint256"
        }
      ],
      "name": "_dependsOnCharacters",
      "outputs": [
        {
          "internalType": "uint256",
          "name": "",
          "type": "uint256"
        }
      ],
      "stateMutability": "view",
      "type": "function"
    },
    {
      "inputs": [
        {
          "internalType": "uint256",
          "name": "",
          "type": "uint256"
        }
      ],
      "name": "_dependsOnRoles",
      "outputs": [
        {
          "internalType": "uint256",
          "name": "",
          "type": "uint256"
        }
      ],
      "stateMutability": "view",
      "type": "function"
    },
    {
      "inputs": [
        {
          "internalType": "uint256",
          "name": "",
          "type": "uint256"
        }
      ],
      "name": "_holdingStrategies",
      "outputs": [
        {
          "internalType": "address",
          "name": "",
          "type": "address"
        }
      ],
      "stateMutability": "view",
      "type": "function"
    },
    {
      "inputs": [
        {
          "internalType": "address",
          "name": "",
          "type": "address"
        },
        {
          "internalType": "address",
          "name": "",
          "type": "address"
        }
      ],
      "name": "_oracleCache",
      "outputs": [
        {
          "internalType": "address",
          "name": "",
          "type": "address"
        }
      ],
      "stateMutability": "view",
      "type": "function"
    },
    {
      "inputs": [
        {
          "internalType": "uint256",
          "name": "",
          "type": "uint256"
        }
      ],
      "name": "_rolesPlayed",
      "outputs": [
        {
          "internalType": "uint256",
          "name": "",
          "type": "uint256"
        }
      ],
      "stateMutability": "view",
      "type": "function"
    },
    {
      "inputs": [
        {
          "internalType": "address",
          "name": "to",
          "type": "address"
        },
        {
          "internalType": "uint256",
          "name": "tokenId",
          "type": "uint256"
        }
      ],
      "name": "approve",
      "outputs": [],
      "stateMutability": "nonpayable",
      "type": "function"
    },
    {
      "inputs": [
        {
          "internalType": "address",
          "name": "",
          "type": "address"
        }
      ],
      "name": "assetConfigs",
      "outputs": [
        {
          "internalType": "uint256",
          "name": "debtCeiling",
          "type": "uint256"
        },
        {
          "internalType": "uint256",
          "name": "feePer10k",
          "type": "uint256"
        },
        {
          "internalType": "uint256",
          "name": "totalDebt",
          "type": "uint256"
        }
      ],
      "stateMutability": "view",
      "type": "function"
    },
    {
      "inputs": [
        {
          "components": [
            {
              "internalType": "address",
              "name": "strategy",
              "type": "address"
            },
            {
              "internalType": "address",
              "name": "token",
              "type": "address"
            },
            {
              "internalType": "uint256",
              "name": "APF",
              "type": "uint256"
            },
            {
              "internalType": "uint256",
              "name": "totalCollateral",
              "type": "uint256"
            },
            {
              "internalType": "uint256",
              "name": "borrowablePer10k",
              "type": "uint256"
            },
            {
              "internalType": "uint256",
              "name": "valuePer1e18",
              "type": "uint256"
            },
            {
              "internalType": "bytes32",
              "name": "strategyName",
              "type": "bytes32"
            },
            {
              "internalType": "uint256",
              "name": "tvl",
              "type": "uint256"
            },
            {
              "internalType": "uint256",
              "name": "harvestBalance2Tally",
              "type": "uint256"
            },
            {
              "internalType": "enum IStrategy.YieldType",
              "name": "yieldType",
              "type": "uint8"
            },
            {
              "internalType": "uint256",
              "name": "stabilityFee",
              "type": "uint256"
            }
          ],
          "internalType": "struct IStrategy.StrategyMetadata[]",
          "name": "stratMeta",
          "type": "tuple[]"
        }
      ],
      "name": "augmentStratMetadata",
      "outputs": [
        {
          "components": [
            {
              "internalType": "uint256",
              "name": "debtCeiling",
              "type": "uint256"
            },
            {
              "internalType": "uint256",
              "name": "totalDebt",
              "type": "uint256"
            },
            {
              "internalType": "uint256",
              "name": "stabilityFee",
              "type": "uint256"
            },
            {
              "internalType": "uint256",
              "name": "mintingFee",
              "type": "uint256"
            },
            {
              "internalType": "address",
              "name": "strategy",
              "type": "address"
            },
            {
              "internalType": "address",
              "name": "token",
              "type": "address"
            },
            {
              "internalType": "uint256",
              "name": "APF",
              "type": "uint256"
            },
            {
              "internalType": "uint256",
              "name": "totalCollateral",
              "type": "uint256"
            },
            {
              "internalType": "uint256",
              "name": "borrowablePer10k",
              "type": "uint256"
            },
            {
              "internalType": "uint256",
              "name": "valuePer1e18",
              "type": "uint256"
            },
            {
              "internalType": "bytes32",
              "name": "strategyName",
              "type": "bytes32"
            },
            {
              "internalType": "uint256",
              "name": "tvl",
              "type": "uint256"
            },
            {
              "internalType": "uint256",
              "name": "harvestBalance2Tally",
              "type": "uint256"
            },
            {
              "internalType": "enum IStrategy.YieldType",
              "name": "yieldType",
              "type": "uint8"
            }
          ],
          "internalType": "struct IsolatedLending.ILStrategyMetadata[]",
          "name": "",
          "type": "tuple[]"
        }
      ],
      "stateMutability": "view",
      "type": "function"
    },
    {
      "inputs": [
        {
          "internalType": "address",
          "name": "owner",
          "type": "address"
        }
      ],
      "name": "balanceOf",
      "outputs": [
        {
          "internalType": "uint256",
          "name": "",
          "type": "uint256"
        }
      ],
      "stateMutability": "view",
      "type": "function"
    },
    {
      "inputs": [
        {
          "internalType": "uint256[]",
          "name": "trancheIds",
          "type": "uint256[]"
        },
        {
          "internalType": "address",
          "name": "currency",
          "type": "address"
        },
        {
          "internalType": "address",
          "name": "recipient",
          "type": "address"
        }
      ],
      "name": "batchCollectYield",
      "outputs": [
        {
          "internalType": "uint256",
          "name": "",
          "type": "uint256"
        }
      ],
      "stateMutability": "nonpayable",
      "type": "function"
    },
    {
      "inputs": [
        {
          "internalType": "uint256[]",
          "name": "trancheIds",
          "type": "uint256[]"
        },
        {
          "internalType": "address",
          "name": "yieldCurrency",
          "type": "address"
        },
        {
          "internalType": "address",
          "name": "valueCurrency",
          "type": "address"
        },
        {
          "internalType": "address",
          "name": "recipient",
          "type": "address"
        }
      ],
      "name": "batchCollectYieldValueBorrowable",
      "outputs": [
        {
          "internalType": "uint256",
          "name": "yield",
          "type": "uint256"
        },
        {
          "internalType": "uint256",
          "name": "value",
          "type": "uint256"
        },
        {
          "internalType": "uint256",
          "name": "borrowablePer10k",
          "type": "uint256"
        }
      ],
      "stateMutability": "nonpayable",
      "type": "function"
    },
    {
      "inputs": [
        {
          "internalType": "uint256[]",
          "name": "trancheIds",
          "type": "uint256[]"
        },
        {
          "internalType": "address",
          "name": "currency",
          "type": "address"
        }
      ],
      "name": "batchViewValueBorrowable",
      "outputs": [
        {
          "internalType": "uint256",
          "name": "",
          "type": "uint256"
        },
        {
          "internalType": "uint256",
          "name": "",
          "type": "uint256"
        }
      ],
      "stateMutability": "view",
      "type": "function"
    },
    {
      "inputs": [
        {
          "internalType": "uint256[]",
          "name": "trancheIds",
          "type": "uint256[]"
        },
        {
          "internalType": "address",
          "name": "currency",
          "type": "address"
        }
      ],
      "name": "batchViewYield",
      "outputs": [
        {
          "internalType": "uint256",
          "name": "",
          "type": "uint256"
        }
      ],
      "stateMutability": "view",
      "type": "function"
    },
    {
      "inputs": [],
      "name": "charactersPlayed",
      "outputs": [
        {
          "internalType": "uint256[]",
          "name": "",
          "type": "uint256[]"
        }
      ],
      "stateMutability": "view",
      "type": "function"
    },
    {
      "inputs": [
        {
          "internalType": "uint256",
          "name": "trancheId",
          "type": "uint256"
        },
        {
          "internalType": "address",
          "name": "currency",
          "type": "address"
        },
        {
          "internalType": "address",
          "name": "recipient",
          "type": "address"
        }
      ],
      "name": "collectYield",
      "outputs": [
        {
          "internalType": "uint256",
          "name": "",
          "type": "uint256"
        }
      ],
      "stateMutability": "nonpayable",
      "type": "function"
    },
    {
      "inputs": [
        {
          "internalType": "uint256",
          "name": "trancheId",
          "type": "uint256"
        },
        {
          "internalType": "address",
          "name": "yieldCurrency",
          "type": "address"
        },
        {
          "internalType": "address",
          "name": "valueCurrency",
          "type": "address"
        },
        {
          "internalType": "address",
          "name": "recipient",
          "type": "address"
        }
      ],
      "name": "collectYieldValueBorrowable",
      "outputs": [
        {
          "internalType": "uint256",
          "name": "",
          "type": "uint256"
        },
        {
          "internalType": "uint256",
          "name": "",
          "type": "uint256"
        },
        {
          "internalType": "uint256",
          "name": "",
          "type": "uint256"
        }
      ],
      "stateMutability": "nonpayable",
      "type": "function"
    },
    {
      "inputs": [
        {
          "internalType": "address",
          "name": "token",
          "type": "address"
        },
        {
          "internalType": "uint256",
          "name": "ceiling",
          "type": "uint256"
        },
        {
          "internalType": "uint256",
          "name": "fee",
          "type": "uint256"
        }
      ],
      "name": "configureAsset",
      "outputs": [],
      "stateMutability": "nonpayable",
      "type": "function"
    },
    {
      "inputs": [
        {
          "internalType": "uint256",
          "name": "tokenId",
          "type": "uint256"
        }
      ],
      "name": "containedIn",
      "outputs": [
        {
          "internalType": "address",
          "name": "owner",
          "type": "address"
        },
        {
          "internalType": "uint256",
          "name": "containerId",
          "type": "uint256"
        }
      ],
      "stateMutability": "view",
      "type": "function"
    },
    {
      "inputs": [],
      "name": "dependsOnCharacters",
      "outputs": [
        {
          "internalType": "uint256[]",
          "name": "",
          "type": "uint256[]"
        }
      ],
      "stateMutability": "view",
      "type": "function"
    },
    {
      "inputs": [],
      "name": "dependsOnRoles",
      "outputs": [
        {
          "internalType": "uint256[]",
          "name": "",
          "type": "uint256[]"
        }
      ],
      "stateMutability": "view",
      "type": "function"
    },
    {
      "inputs": [
        {
          "internalType": "uint256",
          "name": "trancheId",
          "type": "uint256"
        },
        {
          "internalType": "uint256",
          "name": "tokenAmount",
          "type": "uint256"
        }
      ],
      "name": "deposit",
      "outputs": [],
      "stateMutability": "nonpayable",
      "type": "function"
    },
    {
      "inputs": [
        {
          "internalType": "uint256",
          "name": "trancheId",
          "type": "uint256"
        },
        {
          "internalType": "uint256",
          "name": "collateralAmount",
          "type": "uint256"
        },
        {
          "internalType": "uint256",
          "name": "borrowAmount",
          "type": "uint256"
        },
        {
          "internalType": "address",
          "name": "recipient",
          "type": "address"
        }
      ],
      "name": "depositAndBorrow",
      "outputs": [],
      "stateMutability": "nonpayable",
      "type": "function"
    },
    {
      "inputs": [
        {
          "internalType": "uint256",
          "name": "tokenId",
          "type": "uint256"
        }
      ],
      "name": "getApproved",
      "outputs": [
        {
          "internalType": "address",
          "name": "",
          "type": "address"
        }
      ],
      "stateMutability": "view",
      "type": "function"
    },
    {
      "inputs": [
        {
          "internalType": "uint256",
          "name": "trancheId",
          "type": "uint256"
        }
      ],
      "name": "getCurrentHoldingStrategy",
      "outputs": [
        {
          "internalType": "address",
          "name": "",
          "type": "address"
        }
      ],
      "stateMutability": "nonpayable",
      "type": "function"
    },
    {
      "inputs": [
        {
          "internalType": "address",
          "name": "owner",
          "type": "address"
        },
        {
          "internalType": "address",
          "name": "operator",
          "type": "address"
        }
      ],
      "name": "isApprovedForAll",
      "outputs": [
        {
          "internalType": "bool",
          "name": "",
          "type": "bool"
        }
      ],
      "stateMutability": "view",
      "type": "function"
    },
    {
      "inputs": [
        {
          "internalType": "address",
          "name": "spender",
          "type": "address"
        },
        {
          "internalType": "uint256",
          "name": "tokenId",
          "type": "uint256"
        }
      ],
      "name": "isAuthorized",
      "outputs": [
        {
          "internalType": "bool",
          "name": "",
          "type": "bool"
        }
      ],
      "stateMutability": "view",
      "type": "function"
    },
    {
      "inputs": [
        {
          "internalType": "uint256",
          "name": "trancheId",
          "type": "uint256"
        }
      ],
      "name": "isViable",
      "outputs": [
        {
          "internalType": "bool",
          "name": "",
          "type": "bool"
        }
      ],
      "stateMutability": "view",
      "type": "function"
    },
    {
      "inputs": [
        {
          "internalType": "uint256",
          "name": "",
          "type": "uint256"
        }
      ],
      "name": "mainCharacterCache",
      "outputs": [
        {
          "internalType": "address",
          "name": "",
          "type": "address"
        }
      ],
      "stateMutability": "view",
      "type": "function"
    },
    {
      "inputs": [
        {
          "internalType": "uint256",
          "name": "trancheId",
          "type": "uint256"
        },
        {
          "internalType": "address",
          "name": "destination",
          "type": "address"
        },
        {
          "internalType": "address",
          "name": "yieldToken",
          "type": "address"
        },
        {
          "internalType": "address",
          "name": "yieldRecipient",
          "type": "address"
        }
      ],
      "name": "migrateStrategy",
      "outputs": [
        {
          "internalType": "address",
          "name": "token",
          "type": "address"
        },
        {
          "internalType": "uint256",
          "name": "tokenId",
          "type": "uint256"
        },
        {
          "internalType": "uint256",
          "name": "targetAmount",
          "type": "uint256"
        }
      ],
      "stateMutability": "nonpayable",
      "type": "function"
    },
    {
      "inputs": [
        {
          "internalType": "address",
          "name": "collateralToken",
          "type": "address"
        },
        {
          "internalType": "address",
          "name": "strategy",
          "type": "address"
        },
        {
          "internalType": "uint256",
          "name": "collateralAmount",
          "type": "uint256"
        },
        {
          "internalType": "uint256",
          "name": "borrowAmount",
          "type": "uint256"
        },
        {
          "internalType": "address",
          "name": "stableRecipient",
          "type": "address"
        }
      ],
      "name": "mintDepositAndBorrow",
      "outputs": [
        {
          "internalType": "uint256",
          "name": "",
          "type": "uint256"
        }
      ],
      "stateMutability": "nonpayable",
      "type": "function"
    },
    {
      "inputs": [
        {
          "internalType": "uint256",
          "name": "vaultId",
          "type": "uint256"
        },
        {
          "internalType": "address",
          "name": "strategy",
          "type": "address"
        },
        {
          "internalType": "address",
          "name": "assetToken",
          "type": "address"
        },
        {
          "internalType": "uint256",
          "name": "assetTokenId",
          "type": "uint256"
        },
        {
          "internalType": "uint256",
          "name": "assetAmount",
          "type": "uint256"
        }
      ],
      "name": "mintTranche",
      "outputs": [
        {
          "internalType": "uint256",
          "name": "trancheId",
          "type": "uint256"
        }
      ],
      "stateMutability": "nonpayable",
      "type": "function"
    },
    {
      "inputs": [
        {
          "internalType": "uint256",
          "name": "stableAmount",
          "type": "uint256"
        },
        {
          "internalType": "address",
          "name": "collateral",
          "type": "address"
        }
      ],
      "name": "mintingFee",
      "outputs": [
        {
          "internalType": "uint256",
          "name": "",
          "type": "uint256"
        }
      ],
      "stateMutability": "view",
      "type": "function"
    },
    {
      "inputs": [],
      "name": "name",
      "outputs": [
        {
          "internalType": "string",
          "name": "",
          "type": "string"
        }
      ],
      "stateMutability": "view",
      "type": "function"
    },
    {
      "inputs": [
        {
          "internalType": "address",
          "name": "token",
          "type": "address"
        },
        {
          "internalType": "address",
          "name": "pegCurrency",
          "type": "address"
        }
      ],
      "name": "newCurrentOracle",
      "outputs": [],
      "stateMutability": "nonpayable",
      "type": "function"
    },
    {
      "inputs": [
        {
          "internalType": "uint256",
          "name": "tokenId",
          "type": "uint256"
        }
      ],
      "name": "ownerOf",
      "outputs": [
        {
          "internalType": "address",
          "name": "",
          "type": "address"
        }
      ],
      "stateMutability": "view",
      "type": "function"
    },
    {
      "inputs": [],
      "name": "pastFees",
      "outputs": [
        {
          "internalType": "uint256",
          "name": "",
          "type": "uint256"
        }
      ],
      "stateMutability": "view",
      "type": "function"
    },
    {
      "inputs": [],
      "name": "pendingFees",
      "outputs": [
        {
          "internalType": "uint256",
          "name": "",
          "type": "uint256"
        }
      ],
      "stateMutability": "view",
      "type": "function"
    },
    {
      "inputs": [
        {
          "internalType": "address",
          "name": "depositor",
          "type": "address"
        },
        {
          "internalType": "uint256",
          "name": "trancheId",
          "type": "uint256"
        },
        {
          "internalType": "uint256",
          "name": "tokenAmount",
          "type": "uint256"
        }
      ],
      "name": "registerDepositFor",
      "outputs": [],
      "stateMutability": "nonpayable",
      "type": "function"
    },
    {
      "inputs": [
        {
          "internalType": "uint256",
          "name": "trancheId",
          "type": "uint256"
        },
        {
          "internalType": "uint256",
          "name": "collateralAmount",
          "type": "uint256"
        },
        {
          "internalType": "uint256",
          "name": "repayAmount",
          "type": "uint256"
        },
        {
          "internalType": "address",
          "name": "recipient",
          "type": "address"
        }
      ],
      "name": "repayAndWithdraw",
      "outputs": [],
      "stateMutability": "nonpayable",
      "type": "function"
    },
    {
      "inputs": [
        {
          "internalType": "address",
          "name": "",
          "type": "address"
        },
        {
          "internalType": "uint256",
          "name": "",
          "type": "uint256"
        }
      ],
      "name": "roleCache",
      "outputs": [
        {
          "internalType": "bool",
          "name": "",
          "type": "bool"
        }
      ],
      "stateMutability": "view",
      "type": "function"
    },
    {
      "inputs": [],
      "name": "roles",
      "outputs": [
        {
          "internalType": "contract Roles",
          "name": "",
          "type": "address"
        }
      ],
      "stateMutability": "view",
      "type": "function"
    },
    {
      "inputs": [],
      "name": "rolesPlayed",
      "outputs": [
        {
          "internalType": "uint256[]",
          "name": "",
          "type": "uint256[]"
        }
      ],
      "stateMutability": "view",
      "type": "function"
    },
    {
      "inputs": [
        {
          "internalType": "address",
          "name": "from",
          "type": "address"
        },
        {
          "internalType": "address",
          "name": "to",
          "type": "address"
        },
        {
          "internalType": "uint256",
          "name": "tokenId",
          "type": "uint256"
        }
      ],
      "name": "safeTransferFrom",
      "outputs": [],
      "stateMutability": "nonpayable",
      "type": "function"
    },
    {
      "inputs": [
        {
          "internalType": "address",
          "name": "from",
          "type": "address"
        },
        {
          "internalType": "address",
          "name": "to",
          "type": "address"
        },
        {
          "internalType": "uint256",
          "name": "tokenId",
          "type": "uint256"
        },
        {
          "internalType": "bytes",
          "name": "_data",
          "type": "bytes"
        }
      ],
      "name": "safeTransferFrom",
      "outputs": [],
      "stateMutability": "nonpayable",
      "type": "function"
    },
    {
      "inputs": [
        {
          "internalType": "address",
          "name": "operator",
          "type": "address"
        },
        {
          "internalType": "bool",
          "name": "approved",
          "type": "bool"
        }
      ],
      "name": "setApprovalForAll",
      "outputs": [],
      "stateMutability": "nonpayable",
      "type": "function"
    },
    {
      "inputs": [
        {
          "internalType": "address",
          "name": "token",
          "type": "address"
        },
        {
          "internalType": "uint256",
          "name": "ceiling",
          "type": "uint256"
        }
      ],
      "name": "setAssetDebtCeiling",
      "outputs": [],
      "stateMutability": "nonpayable",
      "type": "function"
    },
    {
      "inputs": [
        {
          "internalType": "address",
          "name": "token",
          "type": "address"
        },
        {
          "internalType": "uint256",
          "name": "fee",
          "type": "uint256"
        }
      ],
      "name": "setFeesPer10k",
      "outputs": [],
      "stateMutability": "nonpayable",
      "type": "function"
    },
    {
      "inputs": [
        {
          "internalType": "uint256",
          "name": "period",
          "type": "uint256"
        }
      ],
      "name": "setUpdateTrackingPeriod",
      "outputs": [],
      "stateMutability": "nonpayable",
      "type": "function"
    },
    {
      "inputs": [],
      "name": "setupTrancheSlot",
      "outputs": [],
      "stateMutability": "nonpayable",
      "type": "function"
    },
    {
      "inputs": [
        {
          "internalType": "bytes4",
          "name": "interfaceId",
          "type": "bytes4"
        }
      ],
      "name": "supportsInterface",
      "outputs": [
        {
          "internalType": "bool",
          "name": "",
          "type": "bool"
        }
      ],
      "stateMutability": "view",
      "type": "function"
    },
    {
      "inputs": [],
      "name": "symbol",
      "outputs": [
        {
          "internalType": "string",
          "name": "",
          "type": "string"
        }
      ],
      "stateMutability": "view",
      "type": "function"
    },
    {
      "inputs": [
        {
          "internalType": "uint256",
          "name": "index",
          "type": "uint256"
        }
      ],
      "name": "tokenByIndex",
      "outputs": [
        {
          "internalType": "uint256",
          "name": "",
          "type": "uint256"
        }
      ],
      "stateMutability": "view",
      "type": "function"
    },
    {
      "inputs": [
        {
          "internalType": "address",
          "name": "owner",
          "type": "address"
        },
        {
          "internalType": "uint256",
          "name": "index",
          "type": "uint256"
        }
      ],
      "name": "tokenOfOwnerByIndex",
      "outputs": [
        {
          "internalType": "uint256",
          "name": "",
          "type": "uint256"
        }
      ],
      "stateMutability": "view",
      "type": "function"
    },
    {
      "inputs": [
        {
          "internalType": "uint256",
          "name": "tokenId",
          "type": "uint256"
        }
      ],
      "name": "tokenURI",
      "outputs": [
        {
          "internalType": "string",
          "name": "",
          "type": "string"
        }
      ],
      "stateMutability": "view",
      "type": "function"
    },
    {
      "inputs": [],
      "name": "totalSupply",
      "outputs": [
        {
          "internalType": "uint256",
          "name": "",
          "type": "uint256"
        }
      ],
      "stateMutability": "view",
      "type": "function"
    },
    {
      "inputs": [
        {
          "internalType": "uint256",
          "name": "",
          "type": "uint256"
        }
      ],
      "name": "trancheDebt",
      "outputs": [
        {
          "internalType": "uint256",
          "name": "",
          "type": "uint256"
        }
      ],
      "stateMutability": "view",
      "type": "function"
    },
    {
      "inputs": [
        {
          "internalType": "uint256",
          "name": "trancheId",
          "type": "uint256"
        }
      ],
      "name": "trancheToken",
      "outputs": [
        {
          "internalType": "address",
          "name": "",
          "type": "address"
        }
      ],
      "stateMutability": "view",
      "type": "function"
    },
    {
      "inputs": [
        {
          "internalType": "address",
          "name": "from",
          "type": "address"
        },
        {
          "internalType": "address",
          "name": "to",
          "type": "address"
        },
        {
          "internalType": "uint256",
          "name": "tokenId",
          "type": "uint256"
        }
      ],
      "name": "transferFrom",
      "outputs": [],
      "stateMutability": "nonpayable",
      "type": "function"
    },
    {
      "inputs": [
        {
          "internalType": "uint256",
          "name": "role",
          "type": "uint256"
        }
      ],
      "name": "updateMainCharacterCache",
      "outputs": [],
      "stateMutability": "nonpayable",
      "type": "function"
    },
    {
      "inputs": [
        {
          "internalType": "uint256",
          "name": "role",
          "type": "uint256"
        },
        {
          "internalType": "address",
          "name": "contr",
          "type": "address"
        }
      ],
      "name": "updateRoleCache",
      "outputs": [],
      "stateMutability": "nonpayable",
      "type": "function"
    },
    {
      "inputs": [],
      "name": "updateTrackingPeriod",
      "outputs": [
        {
          "internalType": "uint256",
          "name": "",
          "type": "uint256"
        }
      ],
      "stateMutability": "view",
      "type": "function"
    },
    {
      "inputs": [],
      "name": "viewAllFeesEver",
      "outputs": [
        {
          "internalType": "uint256",
          "name": "",
          "type": "uint256"
        }
      ],
      "stateMutability": "view",
      "type": "function"
    },
    {
      "inputs": [
        {
          "internalType": "address[]",
          "name": "tokens",
          "type": "address[]"
        }
      ],
      "name": "viewAllILMetadata",
      "outputs": [
        {
          "components": [
            {
              "internalType": "uint256",
              "name": "debtCeiling",
              "type": "uint256"
            },
            {
              "internalType": "uint256",
              "name": "totalDebt",
              "type": "uint256"
            },
            {
              "internalType": "uint256",
              "name": "mintingFee",
              "type": "uint256"
            },
            {
              "internalType": "uint256",
              "name": "borrowablePer10k",
              "type": "uint256"
            }
          ],
          "internalType": "struct IsolatedLending.ILMetadata[]",
          "name": "",
          "type": "tuple[]"
        }
      ],
      "stateMutability": "view",
      "type": "function"
    },
    {
      "inputs": [],
      "name": "viewAllStrategyMetadata",
      "outputs": [
        {
          "components": [
            {
              "internalType": "uint256",
              "name": "debtCeiling",
              "type": "uint256"
            },
            {
              "internalType": "uint256",
              "name": "totalDebt",
              "type": "uint256"
            },
            {
              "internalType": "uint256",
              "name": "stabilityFee",
              "type": "uint256"
            },
            {
              "internalType": "uint256",
              "name": "mintingFee",
              "type": "uint256"
            },
            {
              "internalType": "address",
              "name": "strategy",
              "type": "address"
            },
            {
              "internalType": "address",
              "name": "token",
              "type": "address"
            },
            {
              "internalType": "uint256",
              "name": "APF",
              "type": "uint256"
            },
            {
              "internalType": "uint256",
              "name": "totalCollateral",
              "type": "uint256"
            },
            {
              "internalType": "uint256",
              "name": "borrowablePer10k",
              "type": "uint256"
            },
            {
              "internalType": "uint256",
              "name": "valuePer1e18",
              "type": "uint256"
            },
            {
              "internalType": "bytes32",
              "name": "strategyName",
              "type": "bytes32"
            },
            {
              "internalType": "uint256",
              "name": "tvl",
              "type": "uint256"
            },
            {
              "internalType": "uint256",
              "name": "harvestBalance2Tally",
              "type": "uint256"
            },
            {
              "internalType": "enum IStrategy.YieldType",
              "name": "yieldType",
              "type": "uint8"
            }
          ],
          "internalType": "struct IsolatedLending.ILStrategyMetadata[]",
          "name": "",
          "type": "tuple[]"
        }
      ],
      "stateMutability": "view",
      "type": "function"
    },
    {
      "inputs": [
        {
          "internalType": "uint256",
          "name": "trancheId",
          "type": "uint256"
        }
      ],
      "name": "viewBorrowable",
      "outputs": [
        {
          "internalType": "uint256",
          "name": "",
          "type": "uint256"
        }
      ],
      "stateMutability": "view",
      "type": "function"
    },
    {
      "inputs": [
        {
          "internalType": "uint256",
          "name": "trancheId",
          "type": "uint256"
        },
        {
          "internalType": "address",
          "name": "valueCurrency",
          "type": "address"
        }
      ],
      "name": "viewCollateralValue",
      "outputs": [
        {
          "internalType": "uint256",
          "name": "",
          "type": "uint256"
        }
      ],
      "stateMutability": "view",
      "type": "function"
    },
    {
      "inputs": [
        {
          "internalType": "uint256",
          "name": "trancheId",
          "type": "uint256"
        }
      ],
      "name": "viewCollateralValue",
      "outputs": [
        {
          "internalType": "uint256",
          "name": "",
          "type": "uint256"
        }
      ],
      "stateMutability": "view",
      "type": "function"
    },
    {
      "inputs": [
        {
          "internalType": "uint256",
          "name": "trancheId",
          "type": "uint256"
        }
      ],
      "name": "viewCurrentHoldingStrategy",
      "outputs": [
        {
          "internalType": "address",
          "name": "",
          "type": "address"
        }
      ],
      "stateMutability": "view",
      "type": "function"
    },
    {
      "inputs": [
        {
          "internalType": "address",
          "name": "token",
          "type": "address"
        }
      ],
      "name": "viewILMetadata",
      "outputs": [
        {
          "components": [
            {
              "internalType": "uint256",
              "name": "debtCeiling",
              "type": "uint256"
            },
            {
              "internalType": "uint256",
              "name": "totalDebt",
              "type": "uint256"
            },
            {
              "internalType": "uint256",
              "name": "mintingFee",
              "type": "uint256"
            },
            {
              "internalType": "uint256",
              "name": "borrowablePer10k",
              "type": "uint256"
            }
          ],
          "internalType": "struct IsolatedLending.ILMetadata",
          "name": "",
          "type": "tuple"
        }
      ],
      "stateMutability": "view",
      "type": "function"
    },
    {
      "inputs": [
        {
          "internalType": "uint256",
          "name": "_trancheId",
          "type": "uint256"
        }
      ],
      "name": "viewPositionMetadata",
      "outputs": [
        {
          "components": [
            {
              "internalType": "uint256",
              "name": "trancheId",
              "type": "uint256"
            },
            {
              "internalType": "address",
              "name": "strategy",
              "type": "address"
            },
            {
              "internalType": "uint256",
              "name": "collateral",
              "type": "uint256"
            },
            {
              "internalType": "uint256",
              "name": "debt",
              "type": "uint256"
            },
            {
              "internalType": "address",
              "name": "token",
              "type": "address"
            },
            {
              "internalType": "uint256",
              "name": "yield",
              "type": "uint256"
            },
            {
              "internalType": "uint256",
              "name": "collateralValue",
              "type": "uint256"
            },
            {
              "internalType": "uint256",
              "name": "borrowablePer10k",
              "type": "uint256"
            },
            {
              "internalType": "address",
              "name": "owner",
              "type": "address"
            }
          ],
          "internalType": "struct IsolatedLending.PositionMetadata",
          "name": "",
          "type": "tuple"
        }
      ],
      "stateMutability": "view",
      "type": "function"
    },
    {
      "inputs": [
        {
          "internalType": "address",
          "name": "owner",
          "type": "address"
        }
      ],
      "name": "viewPositionsByOwner",
      "outputs": [
        {
          "components": [
            {
              "internalType": "uint256",
              "name": "trancheId",
              "type": "uint256"
            },
            {
              "internalType": "address",
              "name": "strategy",
              "type": "address"
            },
            {
              "internalType": "uint256",
              "name": "collateral",
              "type": "uint256"
            },
            {
              "internalType": "uint256",
              "name": "debt",
              "type": "uint256"
            },
            {
              "internalType": "address",
              "name": "token",
              "type": "address"
            },
            {
              "internalType": "uint256",
              "name": "yield",
              "type": "uint256"
            },
            {
              "internalType": "uint256",
              "name": "collateralValue",
              "type": "uint256"
            },
            {
              "internalType": "uint256",
              "name": "borrowablePer10k",
              "type": "uint256"
            },
            {
              "internalType": "address",
              "name": "owner",
              "type": "address"
            }
          ],
          "internalType": "struct IsolatedLending.PositionMetadata[]",
          "name": "",
          "type": "tuple[]"
        }
      ],
      "stateMutability": "view",
      "type": "function"
    },
    {
      "inputs": [
        {
          "internalType": "uint256",
          "name": "trackingPeriod",
          "type": "uint256"
        }
      ],
      "name": "viewPositionsByTrackingPeriod",
      "outputs": [
        {
          "components": [
            {
              "internalType": "uint256",
              "name": "trancheId",
              "type": "uint256"
            },
            {
              "internalType": "address",
              "name": "strategy",
              "type": "address"
            },
            {
              "internalType": "uint256",
              "name": "collateral",
              "type": "uint256"
            },
            {
              "internalType": "uint256",
              "name": "debt",
              "type": "uint256"
            },
            {
              "internalType": "address",
              "name": "token",
              "type": "address"
            },
            {
              "internalType": "uint256",
              "name": "yield",
              "type": "uint256"
            },
            {
              "internalType": "uint256",
              "name": "collateralValue",
              "type": "uint256"
            },
            {
              "internalType": "uint256",
              "name": "borrowablePer10k",
              "type": "uint256"
            },
            {
              "internalType": "address",
              "name": "owner",
              "type": "address"
            }
          ],
          "internalType": "struct IsolatedLending.PositionMetadata[]",
          "name": "rows",
          "type": "tuple[]"
        }
      ],
      "stateMutability": "view",
      "type": "function"
    },
    {
      "inputs": [
        {
          "internalType": "uint256",
          "name": "trancheId",
          "type": "uint256"
        }
      ],
      "name": "viewTargetCollateralAmount",
      "outputs": [
        {
          "internalType": "uint256",
          "name": "",
          "type": "uint256"
        }
      ],
      "stateMutability": "view",
      "type": "function"
    },
    {
      "inputs": [
        {
          "internalType": "address",
          "name": "owner",
          "type": "address"
        }
      ],
      "name": "viewTranchesByOwner",
      "outputs": [
        {
          "internalType": "uint256[]",
          "name": "",
          "type": "uint256[]"
        }
      ],
      "stateMutability": "view",
      "type": "function"
    },
    {
      "inputs": [
        {
          "internalType": "uint256",
          "name": "trancheId",
          "type": "uint256"
        },
        {
          "internalType": "address",
          "name": "currency",
          "type": "address"
        }
      ],
      "name": "viewYield",
      "outputs": [
        {
          "internalType": "uint256",
          "name": "",
          "type": "uint256"
        }
      ],
      "stateMutability": "view",
      "type": "function"
    },
    {
      "inputs": [
        {
          "internalType": "uint256",
          "name": "trancheId",
          "type": "uint256"
        },
        {
          "internalType": "address",
          "name": "yieldCurrency",
          "type": "address"
        },
        {
          "internalType": "address",
          "name": "valueCurrency",
          "type": "address"
        }
      ],
      "name": "viewYieldCollateralValueBorrowable",
      "outputs": [
        {
          "internalType": "uint256",
          "name": "",
          "type": "uint256"
        },
        {
          "internalType": "uint256",
          "name": "",
          "type": "uint256"
        },
        {
          "internalType": "uint256",
          "name": "",
          "type": "uint256"
        }
      ],
      "stateMutability": "view",
      "type": "function"
    },
    {
      "inputs": [
        {
          "internalType": "uint256",
          "name": "trancheId",
          "type": "uint256"
        },
        {
          "internalType": "address",
          "name": "yieldCurrency",
          "type": "address"
        },
        {
          "internalType": "address",
          "name": "valueCurrency",
          "type": "address"
        }
      ],
      "name": "viewYieldValueBorrowable",
      "outputs": [
        {
          "internalType": "uint256",
          "name": "",
          "type": "uint256"
        },
        {
          "internalType": "uint256",
          "name": "",
          "type": "uint256"
        },
        {
          "internalType": "uint256",
          "name": "",
          "type": "uint256"
        }
      ],
      "stateMutability": "view",
      "type": "function"
    },
    {
      "inputs": [
        {
          "internalType": "uint256",
          "name": "trancheId",
          "type": "uint256"
        },
        {
          "internalType": "uint256",
          "name": "tokenAmount",
          "type": "uint256"
        },
        {
          "internalType": "address",
          "name": "yieldCurrency",
          "type": "address"
        },
        {
          "internalType": "address",
          "name": "recipient",
          "type": "address"
        }
      ],
      "name": "withdraw",
      "outputs": [],
      "stateMutability": "nonpayable",
      "type": "function"
    },
    {
      "inputs": [],
      "name": "withdrawFees",
      "outputs": [],
      "stateMutability": "nonpayable",
      "type": "function"
    }
  ],
  "transactionHash": "0x7687f92f8df46bbd6e2324070221345142994fed7548914f33ce5c899ad4ed6c",
  "args": [
    "0x1bbA67a439A857c60Bca5429701316E8908aB77e"
  ],
  "solcInputHash": "95fa353b6019127dccade4cf9e76d57a",
  "bytecode": "0x60a060405262093a806015553480156200001857600080fd5b506040516200636d3803806200636d8339810160408190526200003b916200034a565b6040518060400160405280601a81526020017f4d6f72654d6f6e65792049736f6c61746564204c656e64696e67000000000000815250604051806040016040528060048152602001631353525360e21b815250828083838160009080519060200190620000aa929190620002a4565b508051620000c0906001906020840190620002a4565b5050600d80546001818101835560057fd7b6990105719101dabeb77144f2a3385c8033acd3af97e9423a695e81ad1eb592830155600c8054808301825560697fdf6966c971051c3d54ec59162606531493a51404a002842f56009d7e5cf4a8c7918201558154808401909255606891015582548082018455600093909352910155506001600160a01b038116620001a85760405162461bcd60e51b815260206004820152602260248201527f506c656173652070726f766964652076616c696420726f6c6573206164647265604482015261737360f01b606482015260840160405180910390fd5b60601b6001600160601b0319166080525050600c805460018082018355606a7fdf6966c971051c3d54ec59162606531493a51404a002842f56009d7e5cf4a8c792830155600f8054808301825560047f8d1108e10bcb7c27dddfc02ed9d693a074039d026cf4ea4240b40f7d581ac802918201556012839055815480840183556003908201558454808401865560669085015581548084018355600290820155845480840190955560679490930193909355600e8054808301909155606b7fbb7b4a454dc3493923482f07822329ed19e8244eff582cc204f8554c3620c3fd909101558254808201845560009390935291015550620003b79050565b828054620002b2906200037a565b90600052602060002090601f016020900481019282620002d6576000855562000321565b82601f10620002f157805160ff191683800117855562000321565b8280016001018555821562000321579182015b828111156200032157825182559160200191906001019062000304565b506200032f92915062000333565b5090565b5b808211156200032f576000815560010162000334565b6000602082840312156200035c578081fd5b81516001600160a01b038116811462000373578182fd5b9392505050565b600181811c908216806200038f57607f821691505b60208210811415620003b157634e487b7160e01b600052602260045260246000fd5b50919050565b60805160601c615f6d620004006000396000818161071701528181610dd7015281816118c001528181613e7f01528181613f1201528181613f9901526143860152615f6d6000f3fe608060405234801561001057600080fd5b506004361061048a5760003560e01c806379bc3efa11610262578063c87b56dd11610151578063e9d07fe8116100ce578063f8903fb711610092578063f8903fb714610b5e578063f9ed4cc014610b71578063fa98a4ba14610b9a578063fabee7db14610bad578063fd80d0c314610bc0578063fdf27f9e14610bd35761048a565b8063e9d07fe814610aff578063eab9209614610b12578063ebc6353e14610b25578063f12ba38114610b38578063f6ee21bd14610b4b5761048a565b8063e2bbb15811610115578063e2bbb15814610a77578063e670309c14610a8a578063e8ea4fae14610a92578063e985e9c514610a9a578063e9c3f77d14610ad65761048a565b8063c87b56dd14610a16578063d294b36414610a29578063dc94cb7d14610a3c578063ddd07b7614610a44578063dee7ae7014610a575761048a565b8063a061ba5f116101df578063b23d66c2116101a3578063b23d66c214610992578063b25e25f4146109ca578063b88d4fde146109dd578063bf184ea4146109f0578063c5c72dc314610a035761048a565b8063a061ba5f14610933578063a22cb46514610946578063a2fb54ff14610959578063abcbc4fc1461096c578063aeb38d8b1461097f5761048a565b806391130d951161022657806391130d95146108d257806393856b16146108f257806395d89b4114610905578063983b42f71461090d5780639897fc26146109205761048a565b806379bc3efa1461086d5780637a1a04df146108805780637dad209b146108ae5780638496e891146108b65780638f132f11146108c95761048a565b80632972b0f01161037e5780634f7dcffc116102fb57806370a08231116102bf57806370a08231146107d757806371b3177a146107ea5780637268d1c0146107fd57806375161891146108105780637609d7f61461083e5761048a565b80634f7dcffc1461078257806361b9fea91461078b578063621fdd371461079e5780636352211e146107b15780636caa9c11146107c45761048a565b806342842e0e1161034257806342842e0e14610739578063447d52ba1461074c578063476343ee1461075f5780634a7a7f41146107675780634f6ccce71461076f5761048a565b80632972b0f0146106b95780632f745c59146106cc57806332935f44146106df57806335b176ab146106f2578063392f5f64146107125761048a565b80630e3b95ff1161040c57806323b872dd116103d057806323b872dd1461062c5780632642b6061461063f57806326b089de1461067357806328f3fc7314610686578063291e486f146106995761048a565b80630e3b95ff146105be578063136f9cef146105de57806318160ddd1461060657806321fa0f1f1461060e578063224438d1146106235761048a565b8063081812fc11610453578063081812fc1461052657806308754a7314610551578063095ea7b3146105835780630d639044146105965780630d749628146105b65761048a565b80620a5ccf1461048f57806301ffc9a7146104b857806304c7e767146104db57806306fdde03146104fc578063071060a614610511575b600080fd5b6104a261049d36600461501b565b610be6565b6040516104af9190615b8c565b60405180910390f35b6104cb6104c636600461566f565b610ca5565b60405190151581526020016104af565b6104ee6104e9366004615186565b610cd0565b6040519081526020016104af565b610504610d2f565b6040516104af9190615bc4565b61052461051f3660046156da565b610dc1565b005b6105396105343660046156da565b610e87565b6040516001600160a01b0390911681526020016104af565b61056461055f3660046156da565b610f1c565b604080516001600160a01b0390931683526020830191909152016104af565b610524610591366004615211565b610f3f565b6104ee6105a43660046156da565b60176020526000908152604090205481565b6104ee611055565b6105d16105cc3660046152a6565b61106c565b6040516104af91906159e7565b6105f16105ec36600461552e565b61117e565b604080519283526020830191909152016104af565b6008546104ee565b61061661129a565b6040516104af9190615a56565b6104ee60185481565b61052461063a36600461508b565b61132b565b61053961064d366004615053565b60116020908152600092835260408084209091529082529020546001600160a01b031681565b6104ee61068136600461570a565b61135c565b610524610694366004615053565b6113d7565b6106ac6106a73660046156da565b6114d0565b6040516104af9190615d5b565b6104cb6106c7366004615211565b61167d565b6104ee6106da366004615211565b61177d565b6104ee6106ed36600461552e565b611813565b6104ee6107003660046156da565b60106020526000908152604090205481565b6105397f000000000000000000000000000000000000000000000000000000000000000081565b61052461074736600461508b565b61187f565b61052461075a36600461570a565b61189a565b610524611972565b6104a26119d8565b6104ee61077d3660046156da565b611a2f565b6104ee60155481565b6105396107993660046156da565b611ad0565b6105246107ac36600461589b565b611d04565b6105396107bf3660046156da565b611d79565b6104ee6107d23660046156da565b611df0565b6104ee6107e536600461501b565b611e11565b6105246107f8366004615840565b611e98565b6104ee61080b3660046156da565b611f78565b61082361081e3660046155e7565b612009565b604080519384526020840192909252908201526060016104af565b61082361084c36600461501b565b60166020526000908152604090208054600182015460029092015490919083565b61052461087b36600461589b565b6120b8565b6104cb61088e366004615211565b600b60209081526000928352604080842090915290825290205460ff1681565b6104a261211e565b6108236108c4366004615764565b612174565b6104ee60195481565b6108e56108e036600461501b565b612221565b6040516104af9190615b49565b6104ee6109003660046157ab565b612315565b61050461234d565b6104ee61091b366004615582565b61235c565b6104ee61092e36600461570a565b61241d565b610524610941366004615211565b612474565b6105246109543660046151e4565b612549565b6105246109673660046156da565b612554565b6104ee61097a3660046156da565b6125a2565b6104ee61098d3660046156da565b6125b2565b6109a56109a0366004615764565b6125c2565b604080516001600160a01b0390941684526020840192909252908201526060016104af565b6104cb6109d83660046156da565b6127e8565b6105246109eb3660046150cb565b61289f565b6104ee6109fe3660046156da565b6128d1565b6104ee610a113660046156da565b6128e1565b610504610a243660046156da565b612969565b610616610a373660046152e5565b612a51565b6104a2612c33565b610524610a5236600461523c565b612c89565b610a6a610a6536600461501b565b612d59565b6040516104af9190615d30565b610524610a853660046157fc565b612ddf565b610524612e1b565b6104a2612e97565b6104cb610aa8366004615053565b6001600160a01b03918216600090815260056020908152604080832093909416825291909152205460ff1690565b610539610ae43660046156da565b600a602052600090815260409020546001600160a01b031681565b610539610b0d3660046156da565b612eed565b610524610b20366004615211565b612f81565b610823610b3336600461572e565b612fe9565b610524610b4636600461523c565b613008565b6104ee610b593660046156da565b61308c565b6104ee610b6c36600461572e565b61309a565b610539610b7f3660046156da565b6013602052600090815260409020546001600160a01b031681565b610823610ba836600461572e565b613102565b610539610bbb3660046156da565b613159565b6104ee610bce36600461570a565b613191565b6108e5610be13660046156da565b613223565b60606000610bf383611e11565b90506000816001600160401b03811115610c1d57634e487b7160e01b600052604160045260246000fd5b604051908082528060200260200182016040528015610c46578160200160208202803683370190505b50905060005b80831115610c9b57610c5e858261177d565b828281518110610c7e57634e487b7160e01b600052603260045260246000fd5b602090810291909101015280610c9381615e80565b915050610c4c565b509150505b919050565b60006001600160e01b0319821663780e9d6360e01b1480610cca5750610cca826132ff565b92915050565b600060026012541415610cfe5760405162461bcd60e51b8152600401610cf590615cf9565b60405180910390fd5b60026012556000610d133382888a828a61334f565b9050610d20818585613588565b60016012559695505050505050565b606060008054610d3e90615e4b565b80601f0160208091040260200160405190810160405280929190818152602001828054610d6a90615e4b565b8015610db75780601f10610d8c57610100808354040283529160200191610db7565b820191906000526020600020905b815481529060010190602001808311610d9a57829003601f168201915b5050505050905090565b60405163b4ed0b6d60e01b8152600481018290527f00000000000000000000000000000000000000000000000000000000000000006001600160a01b03169063b4ed0b6d9060240160206040518083038186803b158015610e2157600080fd5b505afa158015610e35573d6000803e3d6000fd5b505050506040513d601f19601f82011682018060405250810190610e599190615037565b6000918252600a602052604090912080546001600160a01b0319166001600160a01b03909216919091179055565b6000818152600260205260408120546001600160a01b0316610f005760405162461bcd60e51b815260206004820152602c60248201527f4552433732313a20617070726f76656420717565727920666f72206e6f6e657860448201526b34b9ba32b73a103a37b5b2b760a11b6064820152608401610cf5565b506000908152600460205260409020546001600160a01b031690565b600080610f2883611d79565b600093845260106020526040909320549293915050565b6000610f4a82611d79565b9050806001600160a01b0316836001600160a01b03161415610fb85760405162461bcd60e51b815260206004820152602160248201527f4552433732313a20617070726f76616c20746f2063757272656e74206f776e656044820152603960f91b6064820152608401610cf5565b336001600160a01b0382161480610fd45750610fd48133610aa8565b6110465760405162461bcd60e51b815260206004820152603860248201527f4552433732313a20617070726f76652063616c6c6572206973206e6f74206f7760448201527f6e6572206e6f7220617070726f76656420666f7220616c6c00000000000000006064820152608401610cf5565b611050838361371d565b505050565b60006018546019546110679190615dbd565b905090565b60606000826001600160401b0381111561109657634e487b7160e01b600052604160045260246000fd5b6040519080825280602002602001820160405280156110f257816020015b6110df6040518060800160405280600081526020016000815260200160008152602001600081525090565b8152602001906001900390816110b45790505b50905060005b808411156111765761113885858381811061112357634e487b7160e01b600052603260045260246000fd5b9050602002016020810190610a65919061501b565b82828151811061115857634e487b7160e01b600052603260045260246000fd5b6020026020010181905250808061116e90615e80565b9150506110f8565b509392505050565b60008060008060005b808711156112805760008888838181106111b157634e487b7160e01b600052603260045260246000fd5b60209081029290920135600081815260139093526040808420549051630a4d77f960e41b8152600481018390526001600160a01b038c8116602483015292955084935091169063a4d77f9090604401604080518083038186803b15801561121757600080fd5b505afa15801561122b573d6000803e3d6000fd5b505050506040513d601f19601f8201168201806040525081019061124f919061581d565b909250905061125e8183615de9565b6112689086615dbd565b9450505050808061127890615e80565b915050611187565b508161128c8183615dd5565b935093505050935093915050565b606060006112a661378b565b6001600160a01b031663661d02ba6040518163ffffffff1660e01b815260040160006040518083038186803b1580156112de57600080fd5b505afa1580156112f2573d6000803e3d6000fd5b505050506040513d6000823e601f3d908101601f1916820160405261131a9190810190615413565b905061132581612a51565b91505090565b61133533826137c3565b6113515760405162461bcd60e51b8152600401610cf590615ca8565b6110508383836138b6565b6001600160a01b038116600090815260166020526040812060010154801561139d5761271061138b8583615de9565b6113959190615dd5565b915050610cca565b6000805260166020527f0263c2b778d062355049effc2dece97bc6547ff8a88a3258daa512061c2153de546127109061138b908690615de9565b6001600160a01b038281166000908152601160209081526040808320858516845290915290205416156114cc5761140c613a61565b60405163179ce80d60e21b81526001600160a01b03848116600483015283811660248301529190911690635e73a0349060440160206040518083038186803b15801561145757600080fd5b505afa15801561146b573d6000803e3d6000fd5b505050506040513d601f19601f8201168201806040525081019061148f9190615037565b6001600160a01b0383811660009081526011602090815260408083208685168452909152902080546001600160a01b031916929091169190911790555b5050565b6114d8614e9d565b6000828152601360205260408120546001600160a01b0316908080611507866114ff613a99565b610b33613a99565b925092509250604051806101200160405280878152602001856001600160a01b03168152602001856001600160a01b031663c5c72dc3896040518263ffffffff1660e01b815260040161155c91815260200190565b60206040518083038186803b15801561157457600080fd5b505afa158015611588573d6000803e3d6000fd5b505050506040513d601f19601f820116820180604052508101906115ac91906156f2565b81526000888152601760209081526040918290205490830152805163fabee7db60e01b8152600481018a90529101906001600160a01b0387169063fabee7db9060240160206040518083038186803b15801561160757600080fd5b505afa15801561161b573d6000803e3d6000fd5b505050506040513d601f19601f8201168201806040525081019061163f9190615037565b6001600160a01b0316815260200184815260200183815260200182815260200161166888611d79565b6001600160a01b031690529695505050505050565b60008061168983611d79565b90506116b9846001600160a01b03166000908152600b602090815260408083206005845290915290205460ff1690565b806116c957506116c984846137c3565b8061177557506001600160a01b0381163b151580156117755750600083815260106020526040908190205490516302972b0f60e41b81526001600160a01b038681166004830152602482019290925290821690632972b0f09060440160206040518083038186803b15801561173d57600080fd5b505afa158015611751573d6000803e3d6000fd5b505050506040513d601f19601f820116820180604052508101906117759190615653565b949350505050565b600061178883611e11565b82106117ea5760405162461bcd60e51b815260206004820152602b60248201527f455243373231456e756d657261626c653a206f776e657220696e646578206f7560448201526a74206f6620626f756e647360a81b6064820152608401610cf5565b506001600160a01b03919091166000908152600660209081526040808320938352929052205490565b60008060005b8085111561187657600086868381811061184357634e487b7160e01b600052603260045260246000fd5b9050602002013590506118568186613191565b6118609084615dbd565b925050808061186e90615e80565b915050611819565b50949350505050565b6110508383836040518060200160405280600081525061289f565b60405163f0723d9760e01b81526001600160a01b038281166004830152602482018490527f0000000000000000000000000000000000000000000000000000000000000000169063f0723d979060440160206040518083038186803b15801561190257600080fd5b505afa158015611916573d6000803e3d6000fd5b505050506040513d601f19601f8201168201806040525081019061193a9190615653565b6001600160a01b03919091166000908152600b6020908152604080832094835293905291909120805460ff1916911515919091179055565b6119b86119b06067600052600a6020527f3a9775934bfe5caa57284c734fe36fab39ffd0fbded5164be0e35e020de1994d546001600160a01b031690565b601854613ad1565b601854601960008282546119cc9190615dbd565b90915550506000601855565b6060600d805480602002602001604051908101604052809291908181526020018280548015610db757602002820191906000526020600020905b815481526020019060010190808311611a12575050505050905090565b6000611a3a60085490565b8210611a9d5760405162461bcd60e51b815260206004820152602c60248201527f455243373231456e756d657261626c653a20676c6f62616c20696e646578206f60448201526b7574206f6620626f756e647360a01b6064820152608401610cf5565b60088281548110611abe57634e487b7160e01b600052603260045260246000fd5b90600052602060002001549050919050565b6000818152601360205260408120546001600160a01b031681611af161378b565b6040516316a665e160e01b81526001600160a01b0384811660048301529192506000918316906316a665e19060240160206040518083038186803b158015611b3857600080fd5b505afa158015611b4c573d6000803e3d6000fd5b505050506040513d601f19601f82011682018060405250810190611b709190615037565b9050806001600160a01b0316836001600160a01b03161461177557611775858383866001600160a01b031663fabee7db8a6040518263ffffffff1660e01b8152600401611bbf91815260200190565b60206040518083038186803b158015611bd757600080fd5b505afa158015611beb573d6000803e3d6000fd5b505050506040513d601f19601f82011682018060405250810190611c0f9190615037565b604051631dc3a75960e01b8152600481018b90526001600160a01b03891690631dc3a7599060240160206040518083038186803b158015611c4f57600080fd5b505afa158015611c63573d6000803e3d6000fd5b505050506040513d601f19601f82011682018060405250810190611c8791906156f2565b60405163c5c72dc360e01b8152600481018c90526001600160a01b038a169063c5c72dc39060240160206040518083038186803b158015611cc757600080fd5b505afa158015611cdb573d6000803e3d6000fd5b505050506040513d601f19601f82011682018060405250810190611cff91906156f2565b613b42565b60026012541415611d275760405162461bcd60e51b8152600401610cf590615cf9565b6002601255611d36338561167d565b611d525760405162461bcd60e51b8152600401610cf590615c73565b8215611d6357611d63338585613bed565b611d6e848383613588565b505060016012555050565b6000818152600260205260408120546001600160a01b031680610cca5760405162461bcd60e51b815260206004820152602960248201527f4552433732313a206f776e657220717565727920666f72206e6f6e657869737460448201526832b73a103a37b5b2b760b91b6064820152608401610cf5565b600f8181548110611e0057600080fd5b600091825260209091200154905081565b60006001600160a01b038216611e7c5760405162461bcd60e51b815260206004820152602a60248201527f4552433732313a2062616c616e636520717565727920666f7220746865207a65604482015269726f206164647265737360b01b6064820152608401610cf5565b506001600160a01b031660009081526003602052604090205490565b60026012541415611ebb5760405162461bcd60e51b8152600401610cf590615cf9565b6002601255611eca338561167d565b611f165760405162461bcd60e51b815260206004820152601a60248201527f6e6f7420617574686f72697a656420746f2077697468647261770000000000006044820152606401610cf5565b6001600160a01b038116611f6c5760405162461bcd60e51b815260206004820152601a60248201527f446f6e27742073656e6420746f207a65726f20616464726573730000000000006044820152606401610cf5565b611d6e84848484613c8f565b6000818152601360205260408082205490516301c9a34760e61b8152600481018490526001600160a01b03909116908190637268d1c09060240160206040518083038186803b158015611fca57600080fd5b505afa158015611fde573d6000803e3d6000fd5b505050506040513d601f19601f8201168201806040525081019061200291906156f2565b9392505050565b6000806000805b808811156120a057600089898381811061203a57634e487b7160e01b600052603260045260246000fd5b9050602002013590506000806000612054848c8c8c612174565b919450925090506120658389615dbd565b97506120718288615dbd565b965061207d8282615de9565b6120879087615dbd565b955050505050808061209890615e80565b915050612010565b506120ab8282615dd5565b9050955095509592505050565b6120c2338561167d565b6120de5760405162461bcd60e51b8152600401610cf590615c73565b6000848152601760205260409020546120f8908390613cc5565b9150612105338584613cdd565b6121188484612112613a99565b84613c8f565b50505050565b6060600e805480602002602001604051908101604052809291908181526020018280548015610db75760200282019190600052602060002090815481526020019060010190808311611a12575050505050905090565b60008060006002601254141561219c5760405162461bcd60e51b8152600401610cf590615cf9565b60026012556121ab338861167d565b6121c75760405162461bcd60e51b8152600401610cf590615c73565b60008060006121d88a8a8a8a613d15565b60008d8152601760205260409020549295509093509150838184116121fe576000612208565b6122088285615e08565b6001601255909c909b5091995090975050505050505050565b6060600061222e83610be6565b9050600081516001600160401b0381111561225957634e487b7160e01b600052604160045260246000fd5b60405190808252806020026020018201604052801561229257816020015b61227f614e9d565b8152602001906001900390816122775790505b50905060005b8083511115610c9b5760008382815181106122c357634e487b7160e01b600052603260045260246000fd5b602002602001015190506122d6816114d0565b8383815181106122f657634e487b7160e01b600052603260045260246000fd5b602002602001018190525050808061230d90615e80565b915050612298565b60006002601254141561233a5760405162461bcd60e51b8152600401610cf590615cf9565b6002601255610d2033878787878761334f565b606060018054610d3e90615e4b565b6000600260125414156123815760405162461bcd60e51b8152600401610cf590615cf9565b60026012556000805b8086111561240e5760008787838181106123b457634e487b7160e01b600052603260045260246000fd5b9050602002013590506123c7338261167d565b6123e35760405162461bcd60e51b8152600401610cf590615c73565b6123ee818787613dcb565b6123f89084615dbd565b925050808061240690615e80565b91505061238a565b50600160125595945050505050565b6000828152601360205260408082205490516238f73f60e31b8152600481018590526001600160a01b038481166024830152909116906301c7b9f89060440160206040518083038186803b158015611fca57600080fd5b3361247d613e7b565b6001600160a01b031614806124a1575033612496613f0e565b6001600160a01b0316145b806124bb5750336124b0613f7f565b6001600160a01b0316145b61252d5760405162461bcd60e51b815260206004820152603860248201527f43616c6c6572206973206e6f7420746865206f776e65722c206578656375746f60448201527f72206f7220617574686f72697a65642064697361626c657200000000000000006064820152608401610cf5565b6001600160a01b03909116600090815260166020526040902055565b6114cc338383613fe3565b3361255d613e7b565b6001600160a01b03161480612581575033612576613f0e565b6001600160a01b0316145b61259d5760405162461bcd60e51b8152600401610cf590615bd7565b601555565b600c8181548110611e0057600080fd5b600e8181548110611e0057600080fd5b6000806000600260125414156125ea5760405162461bcd60e51b8152600401610cf590615cf9565b60026012556125f9338861167d565b61264f5760405162461bcd60e51b815260206004820152602160248201527f6e6f7420617574686f72697a656420746f206d696772617465207472616e63686044820152606560f81b6064820152608401610cf5565b61265761378b565b60405163b4d6975760e01b81526001600160a01b038881166004830152919091169063b4d697579060240160206040518083038186803b15801561269a57600080fd5b505afa1580156126ae573d6000803e3d6000fd5b505050506040513d601f19601f820116820180604052508101906126d29190615653565b6127165760405162461bcd60e51b815260206004820152601560248201527414dd1c985d1959de481b9bdd08185c1c1c9bdd9959605a1b6044820152606401610cf5565b600061272188611ad0565b60405163591eb36160e11b8152600481018a90526001600160a01b038981166024830152888116604483015287811660648301529192509082169063b23d66c290608401606060405180830381600087803b15801561277f57600080fd5b505af1158015612793573d6000803e3d6000fd5b505050506040513d601f19601f820116820180604052508101906127b79190615270565b919550935091506127cc888289878787613b42565b6127d5886140b2565b5060016012819055509450945094915050565b6000818152601760205260408120546127108110156128125761280a83614113565b915050610ca0565b600061281c613a99565b9050600080600061282e878586612fe9565b9250925092506000858311801561284c5750856706f05b59d3b20000115b80156128585750600082115b806128795750600088815260176020526040902054612879908585856141d4565b905080801561288c575061288c88614113565b9650505050505050610ca0565b50919050565b6128a933836137c3565b6128c55760405162461bcd60e51b8152600401610cf590615ca8565b61211884848484614202565b600d8181548110611e0057600080fd5b60008181526013602052604080822054905163c5c72dc360e01b8152600481018490526001600160a01b039091169063c5c72dc39060240160206040518083038186803b15801561293157600080fd5b505afa158015612945573d6000803e3d6000fd5b505050506040513d601f19601f82011682018060405250810190610cca91906156f2565b6000818152600260205260409020546060906001600160a01b03166129e85760405162461bcd60e51b815260206004820152602f60248201527f4552433732314d657461646174613a2055524920717565727920666f72206e6f60448201526e3732bc34b9ba32b73a103a37b5b2b760891b6064820152608401610cf5565b60006129ff60408051602081019091526000815290565b90506000815111612a1f5760405180602001604052806000815250612002565b80612a2984614242565b604051602001612a3a929190615985565b604051602081830303815290604052915050919050565b6060600082516001600160401b03811115612a7c57634e487b7160e01b600052604160045260246000fd5b604051908082528060200260200182016040528015612ab557816020015b612aa2614f04565b815260200190600190039081612a9a5790505b50905060005b8082511115612c2c576000828281518110612ae657634e487b7160e01b600052603260045260246000fd5b602002602001015190506000858381518110612b1257634e487b7160e01b600052603260045260246000fd5b602002602001015190506000612b2b8260200151612d59565b805184526020808201518186015260408083015160608088019190915285516001600160a01b039081166080808a0191909152938701511660a0808901919091529186015160c0808901919091529086015160e0808901919091529286015161010080890191909152918601516101208089019190915290860151610140880152918501516101608701528401516101808601528301519091506101a08401906002811115612bea57634e487b7160e01b600052602160045260246000fd5b90816002811115612c0b57634e487b7160e01b600052602160045260246000fd5b90525050610140015160409091015280612c2481615e80565b915050612abb565b5092915050565b6060600c805480602002602001604051908101604052809291908181526020018280548015610db75760200282019190600052602060002090815481526020019060010190808311611a12575050505050905090565b33612c92613e7b565b6001600160a01b03161480612cb6575033612cab613f0e565b6001600160a01b0316145b80612cc55750612cc53361435c565b612d375760405162461bcd60e51b815260206004820152603960248201527f43616c6c6572206973206e6f7420746865206f776e65722c206578656375746f60448201527f72206f7220617574686f72697a656420616374697661746f72000000000000006064820152608401610cf5565b6001600160a01b03909216600090815260166020526040902090815560010155565b612d846040518060800160405280600081526020016000815260200160008152602001600081525090565b6001600160a01b038216600090815260166020526040812090612daf8482612daa613a99565b614402565b60408051608081018252855481526002860154602082015260019095015490850152606084015250909392505050565b60026012541415612e025760405162461bcd60e51b8152600401610cf590615cf9565b6002601255612e12338383613bed565b50506001601255565b612e23614555565b6001600160a01b031663e670309c6040518163ffffffff1660e01b81526004016040805180830381600087803b158015612e5c57600080fd5b505af1158015612e70573d6000803e3d6000fd5b505050506040513d601f19601f82011682018060405250810190612e9491906156a7565b50565b6060600f805480602002602001604051908101604052809291908181526020018280548015610db75760200282019190600052602060002090815481526020019060010190808311611a12575050505050905090565b6000612ef761378b565b600083815260136020526040908190205490516316a665e160e01b81526001600160a01b0391821660048201529116906316a665e1906024015b60206040518083038186803b158015612f4957600080fd5b505afa158015612f5d573d6000803e3d6000fd5b505050506040513d601f19601f82011682018060405250810190610cca9190615037565b33612f8a613e7b565b6001600160a01b03161480612fae575033612fa3613f0e565b6001600160a01b0316145b612fca5760405162461bcd60e51b8152600401610cf590615bd7565b6001600160a01b03909116600090815260166020526040902060010155565b6000806000612ff986868661458d565b92509250925093509350939050565b336000908152600b602090815260408083206001845290915290205460ff166130815760405162461bcd60e51b815260206004820152602560248201527f4e6f7420617574686f72697a656420746f207472616e7366657220757365722060448201526466756e647360d81b6064820152608401610cf5565b611050838383613bed565b6000610cca8261092e613a99565b6000600260125414156130bf5760405162461bcd60e51b8152600401610cf590615cf9565b60026012556130ce338561167d565b6130ea5760405162461bcd60e51b8152600401610cf590615c73565b6130f5848484613dcb565b6001601255949350505050565b60008060008060008061311689898961458d565b60008c81526017602052604090205492955090935091508381841161313c576000613146565b6131468285615e08565b909b909a50919850909650505050505050565b600061316482612eed565b6001600160a01b031663fabee7db836040518263ffffffff1660e01b8152600401612f3191815260200190565b60008281526013602052604080822054905163fd80d0c360e01b8152600481018590526001600160a01b03848116602483015290911690819063fd80d0c39060440160206040518083038186803b1580156131eb57600080fd5b505afa1580156131ff573d6000803e3d6000fd5b505050506040513d601f19601f8201168201806040525081019061177591906156f2565b600081815260146020526040812060609161323d8261463a565b9050806001600160401b0381111561326557634e487b7160e01b600052604160045260246000fd5b60405190808252806020026020018201604052801561329e57816020015b61328b614e9d565b8152602001906001900390816132835790505b50925060005b808211156132f7576132b96106a78483614644565b8482815181106132d957634e487b7160e01b600052603260045260246000fd5b602002602001018190525080806132ef90615e80565b9150506132a4565b505050919050565b60006001600160e01b031982166380ac58cd60e01b148061333057506001600160e01b03198216635b5e139f60e01b145b80610cca57506301ffc9a760e01b6001600160e01b0319831614610cca565b600061335961378b565b60405163b4d6975760e01b81526001600160a01b038781166004830152919091169063b4d697579060240160206040518083038186803b15801561339c57600080fd5b505afa1580156133b0573d6000803e3d6000fd5b505050506040513d601f19601f820116820180604052508101906133d49190615653565b6134185760405162461bcd60e51b815260206004820152601560248201527414dd1c985d1959de481b9bdd08185c1c1c9bdd9959605a1b6044820152606401610cf5565b613420614555565b6001600160a01b031663ff1883486040518163ffffffff1660e01b8152600401602060405180830381600087803b15801561345a57600080fd5b505af115801561346e573d6000803e3d6000fd5b505050506040513d601f19601f8201168201806040525081019061349291906156f2565b600081815260136020908152604080832080546001600160a01b0319166001600160a01b038b161790556010909152902087905590506134d184614650565b6134fd8782886040516020016134e991815260200190565b6040516020818303038152906040526146b5565b60405163b832799360e01b81526001600160a01b038881166004830152602482018390528581166044830152606482018590526084820184905286169063b83279939060a401600060405180830381600087803b15801561355d57600080fd5b505af1158015613571573d6000803e3d6000fd5b5050505061357e816140b2565b9695505050505050565b811561105057600061359984611ad0565b60405163fabee7db60e01b8152600481018690529091506000906001600160a01b0383169063fabee7db9060240160206040518083038186803b1580156135df57600080fd5b505afa1580156135f3573d6000803e3d6000fd5b505050506040513d601f19601f820116820180604052508101906136179190615037565b90506000613625858361135c565b90506136318186615dbd565b6000878152601760205260408120805490919061364f908490615dbd565b90915550506001600160a01b03821660009081526016602052604090206136768287615dbd565b8160020160008282546136899190615dbd565b90915550506002810154815410156136db5760405162461bcd60e51b815260206004820152601560248201527445786365656465642064656274206365696c696e6760581b6044820152606401610cf5565b81601860008282546136ed9190615dbd565b90915550600090506136fe886146e8565b90506137138661370e838a615dbd565b613ad1565b5050505050505050565b600081815260046020526040902080546001600160a01b0319166001600160a01b038416908117909155819061375282611d79565b6001600160a01b03167f8c5be1e5ebec7d5bd14f71427d1e84f3dd0314c0f7b2291e5b200ac8c7c3b92560405160405180910390a45050565b6068600052600a6020527f66b303669408d9c94249bd0aec443a05560d12df25504863342dfebd1199324c546001600160a01b031690565b6000818152600260205260408120546001600160a01b031661383c5760405162461bcd60e51b815260206004820152602c60248201527f4552433732313a206f70657261746f7220717565727920666f72206e6f6e657860448201526b34b9ba32b73a103a37b5b2b760a11b6064820152608401610cf5565b600061384783611d79565b9050806001600160a01b0316846001600160a01b031614806138825750836001600160a01b031661387784610e87565b6001600160a01b0316145b8061177557506001600160a01b0380821660009081526005602090815260408083209388168352929052205460ff16611775565b826001600160a01b03166138c982611d79565b6001600160a01b0316146139315760405162461bcd60e51b815260206004820152602960248201527f4552433732313a207472616e73666572206f6620746f6b656e2074686174206960448201526839903737ba1037bbb760b91b6064820152608401610cf5565b6001600160a01b0382166139935760405162461bcd60e51b8152602060048201526024808201527f4552433732313a207472616e7366657220746f20746865207a65726f206164646044820152637265737360e01b6064820152608401610cf5565b61399e8383836147e1565b6139a960008261371d565b6001600160a01b03831660009081526003602052604081208054600192906139d2908490615e08565b90915550506001600160a01b0382166000908152600360205260408120805460019290613a00908490615dbd565b909155505060008181526002602052604080822080546001600160a01b0319166001600160a01b0386811691821790925591518493918716917fddf252ad1be2c89b69c2b068fc378daa952ba7f163c4a11628f55a4df523b3ef91a4505050565b606a600052600a6020527f491b44bb09274615d8e6106c97407042cd450d5681088027db2063ed5a7dd28c546001600160a01b031690565b6066600052600a6020527fa14e2711982fc1118598487104d6aa6aaca777a0683d64683335f0e52c01f75a546001600160a01b031690565b613ad9613a99565b6040516340c10f1960e01b81526001600160a01b0384811660048301526024820184905291909116906340c10f19906044015b600060405180830381600087803b158015613b2657600080fd5b505af1158015613b3a573d6000803e3d6000fd5b505050505050565b60405163459ba12760e01b8152600481018790526001600160a01b0386811660248301528481166044830152606482018490526084820183905285169063459ba1279060a401600060405180830381600087803b158015613ba257600080fd5b505af1158015613bb6573d6000803e3d6000fd5b5050506000968752505060136020525050604090922080546001600160a01b0319166001600160a01b039093169290921790915550565b6000613bf883611ad0565b9050806001600160a01b031663a50233c9858585613c1588611d79565b60405160e086901b6001600160e01b03191681526001600160a01b039485166004820152602481019390935260448301919091529091166064820152608401600060405180830381600087803b158015613c6e57600080fd5b505af1158015613c82573d6000803e3d6000fd5b50505050612118836140b2565b8215612118576000613ca0856146e8565b90508015613cb257613cb28282613ad1565b613cbe8585858561489e565b5050505050565b600081831115613cd6575080610cca565b5081610cca565b801561105057613ced8382614986565b60008281526017602052604081208054839290613d0b908490615e08565b9091555050505050565b600080600080613d2488611ad0565b604051638496e89160e01b8152600481018a90526001600160a01b0389811660248301528881166044830152878116606483015291925090821690638496e89190608401606060405180830381600087803b158015613d8257600080fd5b505af1158015613d96573d6000803e3d6000fd5b505050506040513d601f19601f82011682018060405250810190613dba919061586e565b935093509350509450945094915050565b600080613dd785611ad0565b60405163f8903fb760e01b8152600481018790526001600160a01b038681166024830152858116604483015291925060009183169063f8903fb790606401602060405180830381600087803b158015613e2f57600080fd5b505af1158015613e43573d6000803e3d6000fd5b505050506040513d601f19601f82011682018060405250810190613e6791906156f2565b9050613e72866140b2565b95945050505050565b60007f00000000000000000000000000000000000000000000000000000000000000006001600160a01b0316638da5cb5b6040518163ffffffff1660e01b815260040160206040518083038186803b158015613ed657600080fd5b505afa158015613eea573d6000803e3d6000fd5b505050506040513d601f19601f820116820180604052508101906110679190615037565b60007f00000000000000000000000000000000000000000000000000000000000000006001600160a01b031663c34c08e56040518163ffffffff1660e01b8152600401602060405180830381600087803b158015613f6b57600080fd5b505af1158015613eea573d6000803e3d6000fd5b60405163b4ed0b6d60e01b81526103e960048201526000907f00000000000000000000000000000000000000000000000000000000000000006001600160a01b03169063b4ed0b6d9060240160206040518083038186803b158015613ed657600080fd5b816001600160a01b0316836001600160a01b031614156140455760405162461bcd60e51b815260206004820152601960248201527f4552433732313a20617070726f766520746f2063616c6c6572000000000000006044820152606401610cf5565b6001600160a01b03838116600081815260056020908152604080832094871680845294825291829020805460ff191686151590811790915591519182527f17307eab39ab6107e8899845ad3d59bd9653f200f220920489ca2b5937696c31910160405180910390a3505050565b6140e48160146000601554426140c89190615dd5565b81526020019081526020016000206149c590919063ffffffff16565b5060405181907f416412a7d0788b77945ea2e2702f6edbb3fc8eabc407ed7b4132ab948a6962c190600090a250565b60008061411f83611d79565b90506001600160a01b0381163b156141ca5760008381526010602052604090819020549051632c97897d60e21b815282916001600160a01b0383169163b25e25f4916141719160040190815260200190565b60206040518083038186803b15801561418957600080fd5b505afa15801561419d573d6000803e3d6000fd5b505050506040513d601f19601f820116820180604052508101906141c19190615653565b92505050610ca0565b6001915050610ca0565b60006141e285612710615de9565b826141ed8686615dbd565b6141f79190615de9565b101595945050505050565b61420e848484846149d1565b805115614239578080602001905181019061422991906156f2565b6000838152601060205260409020555b612118826140b2565b60608161426757506040805180820190915260018152600360fc1b6020820152610ca0565b8160005b8115614291578061427b81615e80565b915061428a9050600a83615dd5565b915061426b565b6000816001600160401b038111156142b957634e487b7160e01b600052604160045260246000fd5b6040519080825280601f01601f1916602001820160405280156142e3576020820181803683370190505b5090505b8415611775576142f8600183615e08565b9150614305600a86615e9b565b614310906030615dbd565b60f81b81838151811061433357634e487b7160e01b600052603260045260246000fd5b60200101906001600160f81b031916908160001a905350614355600a86615dd5565b94506142e7565b60405163f0723d9760e01b81526001600160a01b0382811660048301526103eb60248301526000917f00000000000000000000000000000000000000000000000000000000000000009091169063f0723d979060440160206040518083038186803b1580156143ca57600080fd5b505afa1580156143de573d6000803e3d6000fd5b505050506040513d601f19601f82011682018060405250810190610cca9190615653565b6001600160a01b03808416600090815260116020908152604080832085851684529091528120549091829116806144c15761443b613a61565b60405163179ce80d60e21b81526001600160a01b03888116600483015286811660248301529190911690635e73a0349060440160206040518083038186803b15801561448657600080fd5b505afa15801561449a573d6000803e3d6000fd5b505050506040513d601f19601f820116820180604052508101906144be9190615037565b90505b6040516313f3552960e21b81526001600160a01b038781166004830152602482018790528581166044830152821690634fcd54a490606401604080518083038186803b15801561451057600080fd5b505afa158015614524573d6000803e3d6000fd5b505050506040513d601f19601f82011682018060405250810190614548919061581d565b9097909650945050505050565b6069600052600a6020527fe4e9675aa3466ea9ab37f11eba586a16aaf52d4293b57ad72d46715c0e7a4575546001600160a01b031690565b600083815260136020526040808220549051637d4c525d60e11b8152600481018690526001600160a01b038581166024830152848116604483015283928392911690819063fa98a4ba9060640160606040518083038186803b1580156145f257600080fd5b505afa158015614606573d6000803e3d6000fd5b505050506040513d601f19601f8201168201806040525081019061462a919061586e565b9350935093505093509350939050565b6000610cca825490565b60006120028383614a04565b6001600160a01b038116600090815260166020526040902054612e945760405162461bcd60e51b815260206004820152601860248201527f546f6b656e206973206e6f742077686974656c697374656400000000000000006044820152606401610cf5565b6146bf8383614a3c565b6146cc6000848484614b8a565b6110505760405162461bcd60e51b8152600401610cf590615c21565b60008181526017602052604081205481614700613a99565b9050600080600061471387858630613d15565b925092509250614725858484846141d4565b6147865760405162461bcd60e51b815260206004820152602c60248201527f426f726f7720627265616b73206d696e20636f6c6c61746572616c697a61746960448201526b1bdb881d1a1c995cda1bdb1960a21b6064820152608401610cf5565b848311156147ae576000878152601760205260408120556147a78584615e08565b95506147cd565b6147b88386615e08565b60008881526017602052604081209190915595505b6147d73084614986565b5050505050919050565b6001600160a01b03831661483c5761483781600880546000838152600960205260408120829055600182018355919091527ff3f7a9fe364faab93b216da50a3214154f22a0a2b415b23a84c8169e8b636ee30155565b61485f565b816001600160a01b0316836001600160a01b03161461485f5761485f8382614c94565b6001600160a01b03821661487b5761487681614d31565b611050565b826001600160a01b0316826001600160a01b031614611050576110508282614e0a565b60006148a985611ad0565b6040516338d98bbd60e11b815260048101879052602481018690526001600160a01b0385811660448301528481166064830152919250908216906371b3177a90608401600060405180830381600087803b15801561490657600080fd5b505af115801561491a573d6000803e3d6000fd5b50505050614927856127e8565b61497d5760405162461bcd60e51b815260206004820152602160248201527f5472616e636865206e6f7420766961626c6520616674657220776974686472616044820152607760f81b6064820152608401610cf5565b613cbe856140b2565b61498e613a99565b604051632770a7eb60e21b81526001600160a01b038481166004830152602482018490529190911690639dc29fac90604401613b0c565b60006120028383614e4e565b6149dc8484846138b6565b6149e884848484614b8a565b6121185760405162461bcd60e51b8152600401610cf590615c21565b6000826000018281548110614a2957634e487b7160e01b600052603260045260246000fd5b9060005260206000200154905092915050565b6001600160a01b038216614a925760405162461bcd60e51b815260206004820181905260248201527f4552433732313a206d696e7420746f20746865207a65726f20616464726573736044820152606401610cf5565b6000818152600260205260409020546001600160a01b031615614af75760405162461bcd60e51b815260206004820152601c60248201527f4552433732313a20746f6b656e20616c7265616479206d696e746564000000006044820152606401610cf5565b614b03600083836147e1565b6001600160a01b0382166000908152600360205260408120805460019290614b2c908490615dbd565b909155505060008181526002602052604080822080546001600160a01b0319166001600160a01b03861690811790915590518392907fddf252ad1be2c89b69c2b068fc378daa952ba7f163c4a11628f55a4df523b3ef908290a45050565b60006001600160a01b0384163b15614c8c57604051630a85bd0160e11b81526001600160a01b0385169063150b7a0290614bce9033908990889088906004016159b4565b602060405180830381600087803b158015614be857600080fd5b505af1925050508015614c18575060408051601f3d908101601f19168201909252614c159181019061568b565b60015b614c72573d808015614c46576040519150601f19603f3d011682016040523d82523d6000602084013e614c4b565b606091505b508051614c6a5760405162461bcd60e51b8152600401610cf590615c21565b805181602001fd5b6001600160e01b031916630a85bd0160e11b149050611775565b506001611775565b60006001614ca184611e11565b614cab9190615e08565b600083815260076020526040902054909150808214614cfe576001600160a01b03841660009081526006602090815260408083208584528252808320548484528184208190558352600790915290208190555b5060009182526007602090815260408084208490556001600160a01b039094168352600681528383209183525290812055565b600854600090614d4390600190615e08565b60008381526009602052604081205460088054939450909284908110614d7957634e487b7160e01b600052603260045260246000fd5b906000526020600020015490508060088381548110614da857634e487b7160e01b600052603260045260246000fd5b6000918252602080832090910192909255828152600990915260408082208490558582528120556008805480614dee57634e487b7160e01b600052603160045260246000fd5b6001900381819060005260206000200160009055905550505050565b6000614e1583611e11565b6001600160a01b039093166000908152600660209081526040808320868452825280832085905593825260079052919091209190915550565b6000818152600183016020526040812054614e9557508154600181810184556000848152602080822090930184905584548482528286019093526040902091909155610cca565b506000610cca565b6040518061012001604052806000815260200160006001600160a01b03168152602001600081526020016000815260200160006001600160a01b0316815260200160008152602001600081526020016000815260200160006001600160a01b031681525090565b604051806101c001604052806000815260200160008152602001600081526020016000815260200160006001600160a01b0316815260200160006001600160a01b031681526020016000815260200160008152602001600081526020016000815260200160008019168152602001600081526020016000815260200160006002811115614fa157634e487b7160e01b600052602160045260246000fd5b905290565b8035610ca081615ef1565b8051610ca081615ef1565b60008083601f840112614fcd578182fd5b5081356001600160401b03811115614fe3578182fd5b6020830191508360208260051b8501011115614ffe57600080fd5b9250929050565b8035610ca081615f2a565b8051610ca081615f2a565b60006020828403121561502c578081fd5b813561200281615ef1565b600060208284031215615048578081fd5b815161200281615ef1565b60008060408385031215615065578081fd5b823561507081615ef1565b9150602083013561508081615ef1565b809150509250929050565b60008060006060848603121561509f578081fd5b83356150aa81615ef1565b925060208401356150ba81615ef1565b929592945050506040919091013590565b600080600080608085870312156150e0578182fd5b84356150eb81615ef1565b93506020858101356150fc81615ef1565b93506040860135925060608601356001600160401b038082111561511e578384fd5b818801915088601f830112615131578384fd5b81358181111561514357615143615edb565b615155601f8201601f19168501615d6a565b9150808252898482850101111561516a578485fd5b8084840185840137810190920192909252939692955090935050565b600080600080600060a0868803121561519d578283fd5b85356151a881615ef1565b945060208601356151b881615ef1565b9350604086013592506060860135915060808601356151d681615ef1565b809150509295509295909350565b600080604083850312156151f6578182fd5b823561520181615ef1565b9150602083013561508081615f06565b60008060408385031215615223578182fd5b823561522e81615ef1565b946020939093013593505050565b600080600060608486031215615250578081fd5b833561525b81615ef1565b95602085013595506040909401359392505050565b600080600060608486031215615284578081fd5b835161528f81615ef1565b602085015160409095015190969495509392505050565b600080602083850312156152b8578182fd5b82356001600160401b038111156152cd578283fd5b6152d985828601614fbc565b90969095509350505050565b600060208083850312156152f7578182fd5b82356001600160401b0381111561530c578283fd5b8301601f8101851361531c578283fd5b803561532f61532a82615d9a565b615d6a565b81815283810190838501610160808502860187018a101561534e578788fd5b8795505b848610156154055780828b031215615368578788fd5b61537181615d6a565b61537a83614fa6565b8152615387888401614fa6565b8189015260408381013590820152606080840135908201526080808401359082015260a0808401359082015260c0808401359082015260e0808401359082015261010080840135908201526101206153e0818501615005565b9082015261014083810135908201528452600195909501949286019290810190615352565b509098975050505050505050565b60006020808385031215615425578182fd5b82516001600160401b0381111561543a578283fd5b8301601f8101851361544a578283fd5b805161545861532a82615d9a565b81815283810190838501610160808502860187018a1015615477578788fd5b8795505b848610156154055780828b031215615491578788fd5b61549a81615d6a565b6154a383614fb1565b81526154b0888401614fb1565b8189015260408381015190820152606080840151908201526080808401519082015260a0808401519082015260c0808401519082015260e080840151908201526101008084015190820152610120615509818501615010565b908201526101408381015190820152845260019590950194928601929081019061547b565b600080600060408486031215615542578081fd5b83356001600160401b03811115615557578182fd5b61556386828701614fbc565b909450925050602084013561557781615ef1565b809150509250925092565b60008060008060608587031215615597578182fd5b84356001600160401b038111156155ac578283fd5b6155b887828801614fbc565b90955093505060208501356155cc81615ef1565b915060408501356155dc81615ef1565b939692955090935050565b6000806000806000608086880312156155fe578283fd5b85356001600160401b03811115615613578384fd5b61561f88828901614fbc565b909650945050602086013561563381615ef1565b9250604086013561564381615ef1565b915060608601356151d681615ef1565b600060208284031215615664578081fd5b815161200281615f06565b600060208284031215615680578081fd5b813561200281615f14565b60006020828403121561569c578081fd5b815161200281615f14565b6000604082840312156156b8578081fd5b6156c26040615d6a565b82518152602083015160208201528091505092915050565b6000602082840312156156eb578081fd5b5035919050565b600060208284031215615703578081fd5b5051919050565b6000806040838503121561571c578182fd5b82359150602083013561508081615ef1565b600080600060608486031215615742578081fd5b83359250602084013561575481615ef1565b9150604084013561557781615ef1565b60008060008060808587031215615779578182fd5b84359350602085013561578b81615ef1565b9250604085013561579b81615ef1565b915060608501356155dc81615ef1565b600080600080600060a086880312156157c2578283fd5b8535945060208601356157d481615ef1565b935060408601356157e481615ef1565b94979396509394606081013594506080013592915050565b6000806040838503121561580e578182fd5b50508035926020909101359150565b6000806040838503121561582f578182fd5b505080516020909101519092909150565b60008060008060808587031215615855578182fd5b8435935060208501359250604085013561579b81615ef1565b600080600060608486031215615882578081fd5b8351925060208401519150604084015190509250925092565b600080600080608085870312156158b0578182fd5b84359350602085013592506040850135915060608501356155dc81615ef1565b600081518084526158e8816020860160208601615e1f565b601f01601f19169290920160200192915050565b6003811061591a57634e487b7160e01b600052602160045260246000fd5b9052565b805182526020808201516001600160a01b0390811691840191909152604080830151908401526060808301519084015260808083015182169084015260a0808301519084015260c0808301519084015260e080830151908401526101009182015116910152565b60008351615997818460208801615e1f565b8351908301906159ab818360208801615e1f565b01949350505050565b6001600160a01b038581168252841660208201526040810183905260806060820181905260009061357e908301846158d0565b6020808252825182820181905260009190848201906040850190845b81811015615a4a57615a37838551805182526020810151602083015260408101516040830152606081015160608301525050565b9284019260809290920191600101615a03565b50909695505050505050565b602080825282518282018190526000919060409081850190868401855b82811015615b3c5781518051855286810151878601528581015186860152606080820151908601526080808201516001600160a01b03811682880152505060a0818101516001600160a01b03811687830152505060c0818101519086015260e08082015190860152610100808201519086015261012080820151908601526101408082015190860152610160808201519086015261018080820151908601526101a09081015190615b26818701836158fc565b50506101c0939093019290850190600101615a73565b5091979650505050505050565b6020808252825182820181905260009190848201906040850190845b81811015615a4a57615b7883855161591e565b928401926101209290920191600101615b65565b6020808252825182820181905260009190848201906040850190845b81811015615a4a57835183529284019291840191600101615ba8565b60006020825261200260208301846158d0565b6020808252602a908201527f526f6c65733a2063616c6c6572206973206e6f7420746865206f776e6572206f604082015269391032bc32b1baba37b960b11b606082015260800190565b60208082526032908201527f4552433732313a207472616e7366657220746f206e6f6e20455243373231526560408201527131b2b4bb32b91034b6b83632b6b2b73a32b960711b606082015260800190565b6020808252818101527f6e6f7420617574686f72697a656420746f207769746864726177207969656c64604082015260600190565b60208082526031908201527f4552433732313a207472616e736665722063616c6c6572206973206e6f74206f6040820152701ddb995c881b9bdc88185c1c1c9bdd9959607a1b606082015260800190565b6020808252601f908201527f5265656e7472616e637947756172643a207265656e7472616e742063616c6c00604082015260600190565b8151815260208083015190820152604080830151908201526060808301519082015260808101610cca565b6101208101610cca828461591e565b604051601f8201601f191681016001600160401b0381118282101715615d9257615d92615edb565b604052919050565b60006001600160401b03821115615db357615db3615edb565b5060051b60200190565b60008219821115615dd057615dd0615eaf565b500190565b600082615de457615de4615ec5565b500490565b6000816000190483118215151615615e0357615e03615eaf565b500290565b600082821015615e1a57615e1a615eaf565b500390565b60005b83811015615e3a578181015183820152602001615e22565b838111156121185750506000910152565b600181811c90821680615e5f57607f821691505b6020821081141561289957634e487b7160e01b600052602260045260246000fd5b6000600019821415615e9457615e94615eaf565b5060010190565b600082615eaa57615eaa615ec5565b500690565b634e487b7160e01b600052601160045260246000fd5b634e487b7160e01b600052601260045260246000fd5b634e487b7160e01b600052604160045260246000fd5b6001600160a01b0381168114612e9457600080fd5b8015158114612e9457600080fd5b6001600160e01b031981168114612e9457600080fd5b60038110612e9457600080fdfea26469706673582212205bae5c501f8b1ec00985e90ec7bb06009074afe75a5806a657dcfc52713beb1a64736f6c63430008030033",
  "devdoc": {
    "kind": "dev",
    "methods": {
      "approve(address,uint256)": {
        "details": "See {IERC721-approve}."
      },
      "balanceOf(address)": {
        "details": "See {IERC721-balanceOf}."
      },
      "charactersPlayed()": {
        "details": "returns all characters played by this contract (e.g. stable coin, oracle registry)"
      },
      "dependsOnCharacters()": {
        "details": "returns all the character dependencies like FEE_RECIPIENT"
      },
      "dependsOnRoles()": {
        "details": "returns all the roles dependencies of this contract like FUND_TRANSFERER"
      },
      "getApproved(uint256)": {
        "details": "See {IERC721-getApproved}."
      },
      "isApprovedForAll(address,address)": {
        "details": "See {IERC721-isApprovedForAll}."
      },
      "name()": {
        "details": "See {IERC721Metadata-name}."
      },
      "ownerOf(uint256)": {
        "details": "See {IERC721-ownerOf}."
      },
      "rolesPlayed()": {
        "details": "returns all roles played by this contract"
      },
      "safeTransferFrom(address,address,uint256)": {
        "details": "See {IERC721-safeTransferFrom}."
      },
      "safeTransferFrom(address,address,uint256,bytes)": {
        "details": "See {IERC721-safeTransferFrom}."
      },
      "setApprovalForAll(address,bool)": {
        "details": "See {IERC721-setApprovalForAll}."
      },
      "supportsInterface(bytes4)": {
        "details": "See {IERC165-supportsInterface}."
      },
      "symbol()": {
        "details": "See {IERC721Metadata-symbol}."
      },
      "tokenByIndex(uint256)": {
        "details": "See {IERC721Enumerable-tokenByIndex}."
      },
      "tokenOfOwnerByIndex(address,uint256)": {
        "details": "See {IERC721Enumerable-tokenOfOwnerByIndex}."
      },
      "tokenURI(uint256)": {
        "details": "See {IERC721Metadata-tokenURI}."
      },
      "totalSupply()": {
        "details": "See {IERC721Enumerable-totalSupply}."
      },
      "transferFrom(address,address,uint256)": {
        "details": "See {IERC721-transferFrom}."
      },
      "updateMainCharacterCache(uint256)": {
        "details": "Updates the main character cache for a speciic character"
      },
      "updateRoleCache(uint256,address)": {
        "details": "Updates the role cache for a specific role and address"
      }
    },
    "version": 1
  },
  "userdoc": {
    "kind": "user",
    "methods": {
      "augmentStratMetadata((address,address,uint256,uint256,uint256,uint256,bytes32,uint256,uint256,uint8,uint256)[])": {
        "notice": "Amalgamate lending metadata with strategy metadata"
      },
      "batchCollectYield(uint256[],address,address)": {
        "notice": "Collect yield in a batch"
      },
      "batchCollectYieldValueBorrowable(uint256[],address,address,address)": {
        "notice": "Collect yield and view value and borrowable jointly and in weighted avg."
      },
      "batchViewValueBorrowable(uint256[],address)": {
        "notice": "View value, and borrowable (average weighted by value) for a batch, jointly"
      },
      "batchViewYield(uint256[],address)": {
        "notice": "View yield jointly in a batch"
      },
      "collectYield(uint256,address,address)": {
        "notice": "Disburse yield in tranche to recipient"
      },
      "collectYieldValueBorrowable(uint256,address,address,address)": {
        "notice": "Collect yield and view value and borrowable per 10k"
      },
      "configureAsset(address,uint256,uint256)": {
        "notice": "Set central parameters per an asset"
      },
      "containedIn(uint256)": {
        "notice": "Allows for tokens to have not just an owner address, but also container within the owner contract which they belong to"
      },
      "deposit(uint256,uint256)": {
        "notice": "Deposit more collateral to the tranche"
      },
      "depositAndBorrow(uint256,uint256,uint256,address)": {
        "notice": "Deposit collateral to an existing tranche and borrow"
      },
      "getCurrentHoldingStrategy(uint256)": {
        "notice": "Retrieve current strategy and update if necessary"
      },
      "isAuthorized(address,uint256)": {
        "notice": "Check that spender is approved, owner or approved for container"
      },
      "isViable(uint256)": {
        "notice": "Check CDP against target colRatio give a pass on very small positions"
      },
      "migrateStrategy(uint256,address,address,address)": {
        "notice": "Migrate assets from one strategy to another, collecting yield if any"
      },
      "mintDepositAndBorrow(address,address,uint256,uint256,address)": {
        "notice": "Open a new CDP with collateral deposit to a strategy and borrowing"
      },
      "mintTranche(uint256,address,address,uint256,uint256)": {
        "notice": "Mint a new tranche"
      },
      "mintingFee(uint256,address)": {
        "notice": "Minting fee per stable amount"
      },
      "newCurrentOracle(address,address)": {
        "notice": "Notify contract to update oracle cache"
      },
      "registerDepositFor(address,uint256,uint256)": {
        "notice": "Endpoint for authorized fund transferer to deposit on behalf of user"
      },
      "repayAndWithdraw(uint256,uint256,uint256,address)": {
        "notice": "Repay loan and withdraw collateral"
      },
      "setAssetDebtCeiling(address,uint256)": {
        "notice": "Set the debt ceiling for an asset"
      },
      "setFeesPer10k(address,uint256)": {
        "notice": "Set minting fee per an asset"
      },
      "setUpdateTrackingPeriod(uint256)": {
        "notice": "Set update tracking period"
      },
      "setupTrancheSlot()": {
        "notice": "Set up an ID slot for this tranche with the id service"
      },
      "viewAllFeesEver()": {
        "notice": "All fees ever"
      },
      "viewAllILMetadata(address[])": {
        "notice": "View all lending metadata for all assets"
      },
      "viewAllStrategyMetadata()": {
        "notice": "View an amalgamation of all lending and all strategy metadata"
      },
      "viewBorrowable(uint256)": {
        "notice": "View borrowable per 10k of tranche"
      },
      "viewCollateralValue(uint256)": {
        "notice": "View collateral value in our stable"
      },
      "viewCollateralValue(uint256,address)": {
        "notice": "View collateral value"
      },
      "viewCurrentHoldingStrategy(uint256)": {
        "notice": "View which strategy should be holding assets for a tranche, taking into account global migrations"
      },
      "viewILMetadata(address)": {
        "notice": "View lending metadata for an asset as a whole"
      },
      "viewPositionMetadata(uint256)": {
        "notice": "View metadata for one position"
      },
      "viewPositionsByOwner(address)": {
        "notice": "View the metadata for all the positions held by an address"
      },
      "viewPositionsByTrackingPeriod(uint256)": {
        "notice": "View the metadata for all positions updated in a timeframe"
      },
      "viewTargetCollateralAmount(uint256)": {
        "notice": "Collateral amount in tranche"
      },
      "viewTranchesByOwner(address)": {
        "notice": "View all the tranches of an owner"
      },
      "viewYield(uint256,address)": {
        "notice": "View accrued yield in a tranche"
      },
      "viewYieldCollateralValueBorrowable(uint256,address,address)": {
        "notice": "Value restricted to collateral value"
      },
      "viewYieldValueBorrowable(uint256,address,address)": {
        "notice": "View yield value and borrowable together"
      },
      "withdraw(uint256,uint256,address,address)": {
        "notice": "Withdraw tokens from tranche, checing viability"
      },
      "withdrawFees()": {
        "notice": "Disburse minting fee to feeRecipient"
      }
    },
    "notice": "Centerpiece of CDP: lending minted stablecoin against collateral Collateralized debt positions are expressed as ERC721 tokens (via Tranche)",
    "version": 1
  },
  "storageLayout": {
    "storage": [
      {
        "astId": 1522,
        "contract": "contracts/IsolatedLending.sol:IsolatedLending",
        "label": "_name",
        "offset": 0,
        "slot": "0",
        "type": "t_string_storage"
      },
      {
        "astId": 1524,
        "contract": "contracts/IsolatedLending.sol:IsolatedLending",
        "label": "_symbol",
        "offset": 0,
        "slot": "1",
        "type": "t_string_storage"
      },
      {
        "astId": 1528,
        "contract": "contracts/IsolatedLending.sol:IsolatedLending",
        "label": "_owners",
        "offset": 0,
        "slot": "2",
        "type": "t_mapping(t_uint256,t_address)"
      },
      {
        "astId": 1532,
        "contract": "contracts/IsolatedLending.sol:IsolatedLending",
        "label": "_balances",
        "offset": 0,
        "slot": "3",
        "type": "t_mapping(t_address,t_uint256)"
      },
      {
        "astId": 1536,
        "contract": "contracts/IsolatedLending.sol:IsolatedLending",
        "label": "_tokenApprovals",
        "offset": 0,
        "slot": "4",
        "type": "t_mapping(t_uint256,t_address)"
      },
      {
        "astId": 1542,
        "contract": "contracts/IsolatedLending.sol:IsolatedLending",
        "label": "_operatorApprovals",
        "offset": 0,
        "slot": "5",
        "type": "t_mapping(t_address,t_mapping(t_address,t_bool))"
      },
      {
        "astId": 2476,
        "contract": "contracts/IsolatedLending.sol:IsolatedLending",
        "label": "_ownedTokens",
        "offset": 0,
        "slot": "6",
        "type": "t_mapping(t_address,t_mapping(t_uint256,t_uint256))"
      },
      {
        "astId": 2480,
        "contract": "contracts/IsolatedLending.sol:IsolatedLending",
        "label": "_ownedTokensIndex",
        "offset": 0,
        "slot": "7",
        "type": "t_mapping(t_uint256,t_uint256)"
      },
      {
        "astId": 2483,
        "contract": "contracts/IsolatedLending.sol:IsolatedLending",
        "label": "_allTokens",
        "offset": 0,
        "slot": "8",
        "type": "t_array(t_uint256)dyn_storage"
      },
      {
        "astId": 2487,
        "contract": "contracts/IsolatedLending.sol:IsolatedLending",
        "label": "_allTokensIndex",
        "offset": 0,
        "slot": "9",
        "type": "t_mapping(t_uint256,t_uint256)"
      },
      {
        "astId": 17060,
        "contract": "contracts/IsolatedLending.sol:IsolatedLending",
        "label": "mainCharacterCache",
        "offset": 0,
        "slot": "10",
        "type": "t_mapping(t_uint256,t_address)"
      },
      {
        "astId": 17066,
        "contract": "contracts/IsolatedLending.sol:IsolatedLending",
        "label": "roleCache",
        "offset": 0,
        "slot": "11",
        "type": "t_mapping(t_address,t_mapping(t_uint256,t_bool))"
      },
      {
        "astId": 17069,
        "contract": "contracts/IsolatedLending.sol:IsolatedLending",
        "label": "_dependsOnCharacters",
        "offset": 0,
        "slot": "12",
        "type": "t_array(t_uint256)dyn_storage"
      },
      {
        "astId": 17072,
        "contract": "contracts/IsolatedLending.sol:IsolatedLending",
        "label": "_dependsOnRoles",
        "offset": 0,
        "slot": "13",
        "type": "t_array(t_uint256)dyn_storage"
      },
      {
        "astId": 17075,
        "contract": "contracts/IsolatedLending.sol:IsolatedLending",
        "label": "_charactersPlayed",
        "offset": 0,
        "slot": "14",
        "type": "t_array(t_uint256)dyn_storage"
      },
      {
        "astId": 17078,
        "contract": "contracts/IsolatedLending.sol:IsolatedLending",
        "label": "_rolesPlayed",
        "offset": 0,
        "slot": "15",
        "type": "t_array(t_uint256)dyn_storage"
      },
      {
        "astId": 8730,
        "contract": "contracts/IsolatedLending.sol:IsolatedLending",
        "label": "_containedIn",
        "offset": 0,
        "slot": "16",
        "type": "t_mapping(t_uint256,t_uint256)"
      },
      {
        "astId": 15030,
        "contract": "contracts/IsolatedLending.sol:IsolatedLending",
        "label": "_oracleCache",
        "offset": 0,
        "slot": "17",
        "type": "t_mapping(t_address,t_mapping(t_address,t_address))"
      },
      {
        "astId": 223,
        "contract": "contracts/IsolatedLending.sol:IsolatedLending",
        "label": "_status",
        "offset": 0,
        "slot": "18",
        "type": "t_uint256"
      },
      {
        "astId": 11178,
        "contract": "contracts/IsolatedLending.sol:IsolatedLending",
        "label": "_holdingStrategies",
        "offset": 0,
        "slot": "19",
        "type": "t_mapping(t_uint256,t_address)"
      },
      {
        "astId": 11183,
        "contract": "contracts/IsolatedLending.sol:IsolatedLending",
        "label": "updatedTranches",
        "offset": 0,
        "slot": "20",
        "type": "t_mapping(t_uint256,t_struct(UintSet)4529_storage)"
      },
      {
        "astId": 11186,
        "contract": "contracts/IsolatedLending.sol:IsolatedLending",
        "label": "updateTrackingPeriod",
        "offset": 0,
        "slot": "21",
        "type": "t_uint256"
      },
      {
        "astId": 6325,
        "contract": "contracts/IsolatedLending.sol:IsolatedLending",
        "label": "assetConfigs",
        "offset": 0,
        "slot": "22",
        "type": "t_mapping(t_address,t_struct(AssetConfig)6320_storage)"
      },
      {
        "astId": 6329,
        "contract": "contracts/IsolatedLending.sol:IsolatedLending",
        "label": "trancheDebt",
        "offset": 0,
        "slot": "23",
        "type": "t_mapping(t_uint256,t_uint256)"
      },
      {
        "astId": 6331,
        "contract": "contracts/IsolatedLending.sol:IsolatedLending",
        "label": "pendingFees",
        "offset": 0,
        "slot": "24",
        "type": "t_uint256"
      },
      {
        "astId": 6333,
        "contract": "contracts/IsolatedLending.sol:IsolatedLending",
        "label": "pastFees",
        "offset": 0,
        "slot": "25",
        "type": "t_uint256"
      }
    ],
    "types": {
      "t_address": {
        "encoding": "inplace",
        "label": "address",
        "numberOfBytes": "20"
      },
      "t_array(t_bytes32)dyn_storage": {
        "base": "t_bytes32",
        "encoding": "dynamic_array",
        "label": "bytes32[]",
        "numberOfBytes": "32"
      },
      "t_array(t_uint256)dyn_storage": {
        "base": "t_uint256",
        "encoding": "dynamic_array",
        "label": "uint256[]",
        "numberOfBytes": "32"
      },
      "t_bool": {
        "encoding": "inplace",
        "label": "bool",
        "numberOfBytes": "1"
      },
      "t_bytes32": {
        "encoding": "inplace",
        "label": "bytes32",
        "numberOfBytes": "32"
      },
      "t_mapping(t_address,t_address)": {
        "encoding": "mapping",
        "key": "t_address",
        "label": "mapping(address => address)",
        "numberOfBytes": "32",
        "value": "t_address"
      },
      "t_mapping(t_address,t_bool)": {
        "encoding": "mapping",
        "key": "t_address",
        "label": "mapping(address => bool)",
        "numberOfBytes": "32",
        "value": "t_bool"
      },
      "t_mapping(t_address,t_mapping(t_address,t_address))": {
        "encoding": "mapping",
        "key": "t_address",
        "label": "mapping(address => mapping(address => address))",
        "numberOfBytes": "32",
        "value": "t_mapping(t_address,t_address)"
      },
      "t_mapping(t_address,t_mapping(t_address,t_bool))": {
        "encoding": "mapping",
        "key": "t_address",
        "label": "mapping(address => mapping(address => bool))",
        "numberOfBytes": "32",
        "value": "t_mapping(t_address,t_bool)"
      },
      "t_mapping(t_address,t_mapping(t_uint256,t_bool))": {
        "encoding": "mapping",
        "key": "t_address",
        "label": "mapping(address => mapping(uint256 => bool))",
        "numberOfBytes": "32",
        "value": "t_mapping(t_uint256,t_bool)"
      },
      "t_mapping(t_address,t_mapping(t_uint256,t_uint256))": {
        "encoding": "mapping",
        "key": "t_address",
        "label": "mapping(address => mapping(uint256 => uint256))",
        "numberOfBytes": "32",
        "value": "t_mapping(t_uint256,t_uint256)"
      },
      "t_mapping(t_address,t_struct(AssetConfig)6320_storage)": {
        "encoding": "mapping",
        "key": "t_address",
        "label": "mapping(address => struct IsolatedLending.AssetConfig)",
        "numberOfBytes": "32",
        "value": "t_struct(AssetConfig)6320_storage"
      },
      "t_mapping(t_address,t_uint256)": {
        "encoding": "mapping",
        "key": "t_address",
        "label": "mapping(address => uint256)",
        "numberOfBytes": "32",
        "value": "t_uint256"
      },
      "t_mapping(t_bytes32,t_uint256)": {
        "encoding": "mapping",
        "key": "t_bytes32",
        "label": "mapping(bytes32 => uint256)",
        "numberOfBytes": "32",
        "value": "t_uint256"
      },
      "t_mapping(t_uint256,t_address)": {
        "encoding": "mapping",
        "key": "t_uint256",
        "label": "mapping(uint256 => address)",
        "numberOfBytes": "32",
        "value": "t_address"
      },
      "t_mapping(t_uint256,t_bool)": {
        "encoding": "mapping",
        "key": "t_uint256",
        "label": "mapping(uint256 => bool)",
        "numberOfBytes": "32",
        "value": "t_bool"
      },
      "t_mapping(t_uint256,t_struct(UintSet)4529_storage)": {
        "encoding": "mapping",
        "key": "t_uint256",
        "label": "mapping(uint256 => struct EnumerableSet.UintSet)",
        "numberOfBytes": "32",
        "value": "t_struct(UintSet)4529_storage"
      },
      "t_mapping(t_uint256,t_uint256)": {
        "encoding": "mapping",
        "key": "t_uint256",
        "label": "mapping(uint256 => uint256)",
        "numberOfBytes": "32",
        "value": "t_uint256"
      },
      "t_string_storage": {
        "encoding": "bytes",
        "label": "string",
        "numberOfBytes": "32"
      },
      "t_struct(AssetConfig)6320_storage": {
        "encoding": "inplace",
        "label": "struct IsolatedLending.AssetConfig",
        "members": [
          {
            "astId": 6315,
            "contract": "contracts/IsolatedLending.sol:IsolatedLending",
            "label": "debtCeiling",
            "offset": 0,
            "slot": "0",
            "type": "t_uint256"
          },
          {
            "astId": 6317,
            "contract": "contracts/IsolatedLending.sol:IsolatedLending",
            "label": "feePer10k",
            "offset": 0,
            "slot": "1",
            "type": "t_uint256"
          },
          {
            "astId": 6319,
            "contract": "contracts/IsolatedLending.sol:IsolatedLending",
            "label": "totalDebt",
            "offset": 0,
            "slot": "2",
            "type": "t_uint256"
          }
        ],
        "numberOfBytes": "96"
      },
      "t_struct(Set)4071_storage": {
        "encoding": "inplace",
        "label": "struct EnumerableSet.Set",
        "members": [
          {
            "astId": 4066,
            "contract": "contracts/IsolatedLending.sol:IsolatedLending",
            "label": "_values",
            "offset": 0,
            "slot": "0",
            "type": "t_array(t_bytes32)dyn_storage"
          },
          {
            "astId": 4070,
            "contract": "contracts/IsolatedLending.sol:IsolatedLending",
            "label": "_indexes",
            "offset": 0,
            "slot": "1",
            "type": "t_mapping(t_bytes32,t_uint256)"
          }
        ],
        "numberOfBytes": "64"
      },
      "t_struct(UintSet)4529_storage": {
        "encoding": "inplace",
        "label": "struct EnumerableSet.UintSet",
        "members": [
          {
            "astId": 4528,
            "contract": "contracts/IsolatedLending.sol:IsolatedLending",
            "label": "_inner",
            "offset": 0,
            "slot": "0",
            "type": "t_struct(Set)4071_storage"
          }
        ],
        "numberOfBytes": "64"
      },
      "t_uint256": {
        "encoding": "inplace",
        "label": "uint256",
        "numberOfBytes": "32"
      }
    }
  }
}