{
  "address": "0xd1735e513D6f8C0c1FF406CDdB80299AD784B352",
  "abi": [
    {
      "inputs": [
        {
          "internalType": "address",
          "name": "_roles",
          "type": "address"
        }
      ],
      "stateMutability": "nonpayable",
      "type": "constructor"
    },
    {
      "inputs": [
        {
          "internalType": "uint256",
          "name": "",
          "type": "uint256"
        }
      ],
      "name": "_charactersPlayed",
      "outputs": [
        {
          "internalType": "uint256",
          "name": "",
          "type": "uint256"
        }
      ],
      "stateMutability": "view",
      "type": "function"
    },
    {
      "inputs": [
        {
          "internalType": "uint256",
          "name": "",
          "type": "uint256"
        }
      ],
      "name": "_dependsOnCharacters",
      "outputs": [
        {
          "internalType": "uint256",
          "name": "",
          "type": "uint256"
        }
      ],
      "stateMutability": "view",
      "type": "function"
    },
    {
      "inputs": [
        {
          "internalType": "uint256",
          "name": "",
          "type": "uint256"
        }
      ],
      "name": "_dependsOnRoles",
      "outputs": [
        {
          "internalType": "uint256",
          "name": "",
          "type": "uint256"
        }
      ],
      "stateMutability": "view",
      "type": "function"
    },
    {
      "inputs": [
        {
          "internalType": "uint256",
          "name": "",
          "type": "uint256"
        }
      ],
      "name": "_rolesPlayed",
      "outputs": [
        {
          "internalType": "uint256",
          "name": "",
          "type": "uint256"
        }
      ],
      "stateMutability": "view",
      "type": "function"
    },
    {
      "inputs": [],
      "name": "charactersPlayed",
      "outputs": [
        {
          "internalType": "uint256[]",
          "name": "",
          "type": "uint256[]"
        }
      ],
      "stateMutability": "view",
      "type": "function"
    },
    {
      "inputs": [],
      "name": "defaultLiquidationRewardPer10k",
      "outputs": [
        {
          "internalType": "uint256",
          "name": "",
          "type": "uint256"
        }
      ],
      "stateMutability": "view",
      "type": "function"
    },
    {
      "inputs": [],
      "name": "defaultProtocolFeePer10k",
      "outputs": [
        {
          "internalType": "uint256",
          "name": "",
          "type": "uint256"
        }
      ],
      "stateMutability": "view",
      "type": "function"
    },
    {
      "inputs": [],
      "name": "dependsOnCharacters",
      "outputs": [
        {
          "internalType": "uint256[]",
          "name": "",
          "type": "uint256[]"
        }
      ],
      "stateMutability": "view",
      "type": "function"
    },
    {
      "inputs": [],
      "name": "dependsOnRoles",
      "outputs": [
        {
          "internalType": "uint256[]",
          "name": "",
          "type": "uint256[]"
        }
      ],
      "stateMutability": "view",
      "type": "function"
    },
    {
      "inputs": [
        {
          "internalType": "uint256",
          "name": "trancheId",
          "type": "uint256"
        },
        {
          "internalType": "uint256",
          "name": "rebalancingBid",
          "type": "uint256"
        },
        {
          "internalType": "address",
          "name": "recipient",
          "type": "address"
        },
        {
          "internalType": "bytes",
          "name": "_data",
          "type": "bytes"
        }
      ],
      "name": "liquidate",
      "outputs": [],
      "stateMutability": "nonpayable",
      "type": "function"
    },
    {
      "inputs": [
        {
          "internalType": "uint256",
          "name": "trancheId",
          "type": "uint256"
        },
        {
          "internalType": "address",
          "name": "recipient",
          "type": "address"
        },
        {
          "internalType": "bytes",
          "name": "_data",
          "type": "bytes"
        }
      ],
      "name": "liquidateUnderwater",
      "outputs": [],
      "stateMutability": "nonpayable",
      "type": "function"
    },
    {
      "inputs": [
        {
          "internalType": "address",
          "name": "",
          "type": "address"
        }
      ],
      "name": "liquidationRewardPer10k",
      "outputs": [
        {
          "internalType": "uint256",
          "name": "",
          "type": "uint256"
        }
      ],
      "stateMutability": "view",
      "type": "function"
    },
    {
      "inputs": [
        {
          "internalType": "uint256",
          "name": "",
          "type": "uint256"
        }
      ],
      "name": "mainCharacterCache",
      "outputs": [
        {
          "internalType": "address",
          "name": "",
          "type": "address"
        }
      ],
      "stateMutability": "view",
      "type": "function"
    },
    {
      "inputs": [
        {
          "internalType": "address",
          "name": "",
          "type": "address"
        }
      ],
      "name": "protocolFeePer10k",
      "outputs": [
        {
          "internalType": "uint256",
          "name": "",
          "type": "uint256"
        }
      ],
      "stateMutability": "view",
      "type": "function"
    },
    {
      "inputs": [
        {
          "internalType": "uint256",
          "name": "amount",
          "type": "uint256"
        },
        {
          "internalType": "address",
          "name": "recipient",
          "type": "address"
        }
      ],
      "name": "rescueNative",
      "outputs": [],
      "stateMutability": "nonpayable",
      "type": "function"
    },
    {
      "inputs": [
        {
          "internalType": "address",
          "name": "token",
          "type": "address"
        },
        {
          "internalType": "uint256",
          "name": "amount",
          "type": "uint256"
        },
        {
          "internalType": "address",
          "name": "recipient",
          "type": "address"
        }
      ],
      "name": "rescueStrandedTokens",
      "outputs": [],
      "stateMutability": "nonpayable",
      "type": "function"
    },
    {
      "inputs": [
        {
          "internalType": "address",
          "name": "",
          "type": "address"
        },
        {
          "internalType": "uint256",
          "name": "",
          "type": "uint256"
        }
      ],
      "name": "roleCache",
      "outputs": [
        {
          "internalType": "bool",
          "name": "",
          "type": "bool"
        }
      ],
      "stateMutability": "view",
      "type": "function"
    },
    {
      "inputs": [],
      "name": "roles",
      "outputs": [
        {
          "internalType": "contract Roles",
          "name": "",
          "type": "address"
        }
      ],
      "stateMutability": "view",
      "type": "function"
    },
    {
      "inputs": [],
      "name": "rolesPlayed",
      "outputs": [
        {
          "internalType": "uint256[]",
          "name": "",
          "type": "uint256[]"
        }
      ],
      "stateMutability": "view",
      "type": "function"
    },
    {
      "inputs": [
        {
          "internalType": "uint256",
          "name": "liqSharePer10k",
          "type": "uint256"
        }
      ],
      "name": "setDefaultLiquidationRewardPer10k",
      "outputs": [],
      "stateMutability": "nonpayable",
      "type": "function"
    },
    {
      "inputs": [
        {
          "internalType": "address",
          "name": "token",
          "type": "address"
        },
        {
          "internalType": "uint256",
          "name": "liqSharePer10k",
          "type": "uint256"
        }
      ],
      "name": "setLiquidationRewardPer10k",
      "outputs": [],
      "stateMutability": "nonpayable",
      "type": "function"
    },
    {
      "inputs": [
        {
          "internalType": "address",
          "name": "token",
          "type": "address"
        },
        {
          "internalType": "uint256",
          "name": "protFeePer10k",
          "type": "uint256"
        }
      ],
      "name": "setProtcolFeePer10k",
      "outputs": [],
      "stateMutability": "nonpayable",
      "type": "function"
    },
    {
      "inputs": [
        {
          "internalType": "uint256",
          "name": "protFeePer10k",
          "type": "uint256"
        }
      ],
      "name": "setProtocolFeePer10k",
      "outputs": [],
      "stateMutability": "nonpayable",
      "type": "function"
    },
    {
      "inputs": [
        {
          "internalType": "uint256",
          "name": "role",
          "type": "uint256"
        }
      ],
      "name": "updateMainCharacterCache",
      "outputs": [],
      "stateMutability": "nonpayable",
      "type": "function"
    },
    {
      "inputs": [
        {
          "internalType": "uint256",
          "name": "role",
          "type": "uint256"
        },
        {
          "internalType": "address",
          "name": "contr",
          "type": "address"
        }
      ],
      "name": "updateRoleCache",
      "outputs": [],
      "stateMutability": "nonpayable",
      "type": "function"
    }
  ],
  "transactionHash": "0x5f5804fcebc7b83fac7891340e98c73494064b751f102d7c37851dc4e6e0f608",
  "args": [
    "0x8f1ca3288764F0BC18eefeCA6D821D8bC93c99bf"
  ],
  "solcInputHash": "d661444e9ab44536e22176239a595dea",
  "bytecode": "0x60a06040526103e8600855610dac60095534801561001c57600080fd5b5060405162001f8638038062001f8683398101604081905261003d9161014e565b806001600160a01b0381166100a35760405162461bcd60e51b815260206004820152602260248201527f506c656173652070726f766964652076616c696420726f6c6573206164647265604482015261737360f01b606482015260840160405180910390fd5b60601b6001600160601b03191660805250600280546001808201835560667f405787fa12a823e0f2b7631cc41b3ba8828b3321ca811111fa75cd3aa3bb5ace9283015582548082018455606b90830155825480820190935560679290910191909155600681905560058054808301825560008290527f036b6384b5eca791c62761152d0c79bb0604c104a5fb6f4eb0703f3154bb3db09081018290558154808401909255015561017c565b60006020828403121561015f578081fd5b81516001600160a01b0381168114610175578182fd5b9392505050565b60805160601c611dc8620001be600039600081816102110152818161063201528181610c4401528181610ff50152818161108d01526111140152611dc86000f3fe608060405234801561001057600080fd5b50600436106101735760003560e01c80634ab5a047116100de578063abcbc4fc11610097578063dc94cb7d11610071578063dc94cb7d14610363578063e42f0c951461036b578063e8ea4fae1461038b578063e9c3f77d1461039357610173565b8063abcbc4fc1461032a578063aeb38d8b1461033d578063bf184ea41461035057610173565b80634ab5a047146102a25780636caa9c11146102ab57806379ac442e146102be5780637a1a04df146102d15780637ae3c7a61461030f5780637dad209b1461032257610173565b8063392f5f6411610130578063392f5f641461020c578063420612de1461024b578063447d52ba1461025e5780634524029f1461027157806349d4f22e1461027a5780634a7a7f411461028d57610173565b80630380b4ed1461017857806304a75a2a1461018d57806306398a5e146101a0578063071060a6146101d357806318af4c9e146101e6578063299d377b146101f9575b600080fd5b61018b610186366004611961565b6103bc565b005b61018b61019b366004611a4c565b610444565b6101c06101ae366004611929565b600a6020526000908152604090205481565b6040519081526020015b60405180910390f35b61018b6101e13660046119ed565b61061c565b61018b6101f4366004611a1d565b6106e2565b61018b610207366004611aa6565b61078c565b6102337f000000000000000000000000000000000000000000000000000000000000000081565b6040516001600160a01b0390911681526020016101ca565b61018b6102593660046119ed565b610bd0565b61018b61026c366004611a1d565b610c1e565b6101c060085481565b61018b61028836600461198c565b610cf6565b610295610d79565b6040516101ca9190611b2a565b6101c060095481565b6101c06102b93660046119ed565b610dd1565b61018b6102cc3660046119ed565b610df2565b6102ff6102df366004611961565b600160209081526000928352604080842090915290825290205460ff1681565b60405190151581526020016101ca565b61018b61031d366004611961565b610e40565b610295610ebf565b6101c06103383660046119ed565b610f15565b6101c061034b3660046119ed565b610f25565b6101c061035e3660046119ed565b610f35565b610295610f45565b6101c0610379366004611929565b60076020526000908152604090205481565b610295610f9b565b6102336103a13660046119ed565b6000602081905290815260409020546001600160a01b031681565b336103c5610ff1565b6001600160a01b031614806103e95750336103de611089565b6001600160a01b0316145b806104035750336103f86110fa565b6001600160a01b0316145b6104285760405162461bcd60e51b815260040161041f90611c22565b60405180910390fd5b6001600160a01b039091166000908152600a6020526040902055565b600260065414156104975760405162461bcd60e51b815260206004820152601f60248201527f5265656e7472616e637947756172643a207265656e7472616e742063616c6c00604482015260640161041f565b6002600655336104a5610ff1565b6001600160a01b031614806104c95750336104be611089565b6001600160a01b0316145b806104e35750336104d86110fa565b6001600160a01b0316145b6104ff5760405162461bcd60e51b815260040161041f90611c22565b60008061050b8661115e565b5050915091508161055e5760405162461bcd60e51b815260206004820152601b60248201527f5472616e636865206973206e6f74206c6971756964617461626c650000000000604482015260640161041f565b806105a45760405162461bcd60e51b81526020600482015260166024820152752a3930b731b432903737ba103ab73232b93bb0ba32b960511b604482015260640161041f565b6105ac6115eb565b6001600160a01b031663fb6475bd878787876040518563ffffffff1660e01b81526004016105dd9493929190611c7f565b600060405180830381600087803b1580156105f757600080fd5b505af115801561060b573d6000803e3d6000fd5b505060016006555050505050505050565b60405163b4ed0b6d60e01b8152600481018290527f00000000000000000000000000000000000000000000000000000000000000006001600160a01b03169063b4ed0b6d9060240160206040518083038186803b15801561067c57600080fd5b505afa158015610690573d6000803e3d6000fd5b505050506040513d601f19601f820116820180604052508101906106b49190611945565b60009182526020829052604090912080546001600160a01b0319166001600160a01b03909216919091179055565b336106eb610ff1565b6001600160a01b0316148061070f575033610704611089565b6001600160a01b0316145b61072b5760405162461bcd60e51b815260040161041f90611ba1565b6001600160a01b0381166107515760405162461bcd60e51b815260040161041f90611beb565b6040516001600160a01b0382169083156108fc029084906000818181858888f19350505050158015610787573d6000803e3d6000fd5b505050565b600260065414156107df5760405162461bcd60e51b815260206004820152601f60248201527f5265656e7472616e637947756172643a207265656e7472616e742063616c6c00604482015260640161041f565b6002600655600080806107f18861115e565b93509350509250826108455760405162461bcd60e51b815260206004820152601b60248201527f5472616e636865206973206e6f74206c6971756964617461626c650000000000604482015260640161041f565b6001600160a01b03861661086b5760405162461bcd60e51b815260040161041f90611beb565b6000610875611623565b905060006108816115eb565b604051632770a7eb60e21b8152336004820152602481018b90529091506001600160a01b03831690639dc29fac90604401600060405180830381600087803b1580156108cc57600080fd5b505af11580156108e0573d6000803e3d6000fd5b50506040516340c10f1960e01b8152306004820152602481018c90526001600160a01b03851692506340c10f199150604401600060405180830381600087803b15801561092c57600080fd5b505af1158015610940573d6000803e3d6000fd5b50506040516331a9108f60e11b8152600481018d9052600092506001600160a01b0384169150636352211e9060240160206040518083038186803b15801561098757600080fd5b505afa15801561099b573d6000803e3d6000fd5b505050506040513d601f19601f820116820180604052508101906109bf9190611945565b60405163fb6475bd60e01b8152600481018d905230602482015260606044820152600060648201529091506001600160a01b0383169063fb6475bd90608401600060405180830381600087803b158015610a1857600080fd5b505af1158015610a2c573d6000803e3d6000fd5b5050604051633cde1f7d60e11b8152600481018e905260248101889052604481018d90526001600160a01b038481166064830152851692506379bc3efa9150608401600060405180830381600087803b158015610a8857600080fd5b505af1158015610a9c573d6000803e3d6000fd5b50505050816001600160a01b03166379bc3efa8c866000610aee606760009081526020527f682158d08466d11c566d5712d4396197fdd67e65be71d83c97ef719ec468867b546001600160a01b031690565b6040516001600160e01b031960e087901b1681526004810194909452602484019290925260448301526001600160a01b03166064820152608401600060405180830381600087803b158015610b4257600080fd5b505af1158015610b56573d6000803e3d6000fd5b505060405163fb6475bd60e01b81526001600160a01b038516925063fb6475bd9150610b8c908e908d908d908d90600401611c7f565b600060405180830381600087803b158015610ba657600080fd5b505af1158015610bba573d6000803e3d6000fd5b5050600160065550505050505050505050505050565b33610bd9610ff1565b6001600160a01b03161480610bfd575033610bf2611089565b6001600160a01b0316145b610c195760405162461bcd60e51b815260040161041f90611ba1565b600855565b6040516393552a3d60e01b8152600481018390526001600160a01b0382811660248301527f000000000000000000000000000000000000000000000000000000000000000016906393552a3d9060440160206040518083038186803b158015610c8657600080fd5b505afa158015610c9a573d6000803e3d6000fd5b505050506040513d601f19601f82011682018060405250810190610cbe91906119cd565b6001600160a01b0391909116600090815260016020908152604080832094835293905291909120805460ff1916911515919091179055565b33610cff610ff1565b6001600160a01b03161480610d23575033610d18611089565b6001600160a01b0316145b610d3f5760405162461bcd60e51b815260040161041f90611ba1565b6001600160a01b038116610d655760405162461bcd60e51b815260040161041f90611beb565b6107876001600160a01b038416828461165b565b60606003805480602002602001604051908101604052809291908181526020018280548015610dc757602002820191906000526020600020905b815481526020019060010190808311610db3575b5050505050905090565b60058181548110610de157600080fd5b600091825260209091200154905081565b33610dfb610ff1565b6001600160a01b03161480610e1f575033610e14611089565b6001600160a01b0316145b610e3b5760405162461bcd60e51b815260040161041f90611ba1565b600955565b33610e49610ff1565b6001600160a01b03161480610e6d575033610e62611089565b6001600160a01b0316145b80610e87575033610e7c6110fa565b6001600160a01b0316145b610ea35760405162461bcd60e51b815260040161041f90611c22565b6001600160a01b03909116600090815260076020526040902055565b60606004805480602002602001604051908101604052809291908181526020018280548015610dc75760200282019190600052602060002090815481526020019060010190808311610db3575050505050905090565b60028181548110610de157600080fd5b60048181548110610de157600080fd5b60038181548110610de157600080fd5b60606002805480602002602001604051908101604052809291908181526020018280548015610dc75760200282019190600052602060002090815481526020019060010190808311610db3575050505050905090565b60606005805480602002602001604051908101604052809291908181526020018280548015610dc75760200282019190600052602060002090815481526020019060010190808311610db3575050505050905090565b60007f00000000000000000000000000000000000000000000000000000000000000006001600160a01b0316638da5cb5b6040518163ffffffff1660e01b815260040160206040518083038186803b15801561104c57600080fd5b505afa158015611060573d6000803e3d6000fd5b505050506040513d601f19601f820116820180604052508101906110849190611945565b905090565b60007f00000000000000000000000000000000000000000000000000000000000000006001600160a01b031663c34c08e56040518163ffffffff1660e01b8152600401602060405180830381600087803b1580156110e657600080fd5b505af1158015611060573d6000803e3d6000fd5b60405163b4ed0b6d60e01b81526103e960048201526000907f00000000000000000000000000000000000000000000000000000000000000006001600160a01b03169063b4ed0b6d9060240160206040518083038186803b15801561104c57600080fd5b600080600080600061116e6115eb565b9050806001600160a01b031663f8903fb787611188611623565b6040516331a9108f60e11b8152600481018b90526001600160a01b03861690636352211e9060240160206040518083038186803b1580156111c857600080fd5b505afa1580156111dc573d6000803e3d6000fd5b505050506040513d601f19601f820116820180604052508101906112009190611945565b6040516001600160e01b031960e086901b16815260048101939093526001600160a01b039182166024840152166044820152606401602060405180830381600087803b15801561124f57600080fd5b505af1158015611263573d6000803e3d6000fd5b505050506040513d601f19601f820116820180604052508101906112879190611a05565b50604051630358e41160e21b8152600481018790526000906001600160a01b03831690630d6390449060240160206040518083038186803b1580156112cb57600080fd5b505afa1580156112df573d6000803e3d6000fd5b505050506040513d601f19601f820116820180604052508101906113039190611a05565b60405163fabee7db60e01b8152600481018990529091506000906001600160a01b0384169063fabee7db9060240160206040518083038186803b15801561134957600080fd5b505afa15801561135d573d6000803e3d6000fd5b505050506040513d601f19601f820116820180604052508101906113819190611945565b6001600160a01b038116600090815260076020526040902054909150806113a757506008545b60006127106113b68584611cfe565b6113c09190611cde565b60405163f6ee21bd60e01b8152600481018c90529091506000906001600160a01b0387169063f6ee21bd9060240160206040518083038186803b15801561140657600080fd5b505afa15801561141a573d6000803e3d6000fd5b505050506040513d601f19601f8201168201806040525081019061143e9190611a05565b9050600061144c8387611cc6565b82101561145a5760006114fc565b81836114668883611d1d565b6114709190611d1d565b60405163c5c72dc360e01b8152600481018f90526001600160a01b038a169063c5c72dc39060240160206040518083038186803b1580156114b057600080fd5b505afa1580156114c4573d6000803e3d6000fd5b505050506040513d601f19601f820116820180604052508101906114e89190611a05565b6114f29190611cfe565b6114fc9190611cde565b6001600160a01b0386166000908152600a60205260409020549091508061152257506009545b60006127106115318385611cfe565b61153b9190611cde565b9050886001600160a01b031663b25e25f48f6040518263ffffffff1660e01b815260040161156b91815260200190565b60206040518083038186803b15801561158357600080fd5b505afa158015611597573d6000803e3d6000fd5b505050506040513d601f19601f820116820180604052508101906115bb91906119cd565b156115c6868a611cc6565b8510156115d38386611d1d565b919e509c509a50985050505050505050509193509193565b606b60009081526020527f2dc7a963308417ad45132da282495eb244f38a7db03940a4d808be607669c622546001600160a01b031690565b606660009081526020527f422cccb7cea5c0e46f340bb7b21b81debac329f72e31669c20ff0f3a05cc2b5b546001600160a01b031690565b604080516001600160a01b03848116602483015260448083018590528351808403909101815260649092018352602080830180516001600160e01b031663a9059cbb60e01b17905283518085019094528084527f5361666545524332303a206c6f772d6c6576656c2063616c6c206661696c656490840152610787928692916000916116eb918516908490611768565b805190915015610787578080602001905181019061170991906119cd565b6107875760405162461bcd60e51b815260206004820152602a60248201527f5361666545524332303a204552433230206f7065726174696f6e20646964206e6044820152691bdd081cdd58d8d9595960b21b606482015260840161041f565b60606117778484600085611781565b90505b9392505050565b6060824710156117e25760405162461bcd60e51b815260206004820152602660248201527f416464726573733a20696e73756666696369656e742062616c616e636520666f6044820152651c8818d85b1b60d21b606482015260840161041f565b843b6118305760405162461bcd60e51b815260206004820152601d60248201527f416464726573733a2063616c6c20746f206e6f6e2d636f6e7472616374000000604482015260640161041f565b600080866001600160a01b0316858760405161184c9190611b0e565b60006040518083038185875af1925050503d8060008114611889576040519150601f19603f3d011682016040523d82523d6000602084013e61188e565b606091505b509150915061189e8282866118a9565b979650505050505050565b606083156118b857508161177a565b8251156118c85782518084602001fd5b8160405162461bcd60e51b815260040161041f9190611b6e565b60008083601f8401126118f3578182fd5b50813567ffffffffffffffff81111561190a578182fd5b60208301915083602082850101111561192257600080fd5b9250929050565b60006020828403121561193a578081fd5b813561177a81611d7a565b600060208284031215611956578081fd5b815161177a81611d7a565b60008060408385031215611973578081fd5b823561197e81611d7a565b946020939093013593505050565b6000806000606084860312156119a0578081fd5b83356119ab81611d7a565b92506020840135915060408401356119c281611d7a565b809150509250925092565b6000602082840312156119de578081fd5b8151801515811461177a578182fd5b6000602082840312156119fe578081fd5b5035919050565b600060208284031215611a16578081fd5b5051919050565b60008060408385031215611a2f578182fd5b823591506020830135611a4181611d7a565b809150509250929050565b60008060008060608587031215611a61578081fd5b843593506020850135611a7381611d7a565b9250604085013567ffffffffffffffff811115611a8e578182fd5b611a9a878288016118e2565b95989497509550505050565b600080600080600060808688031215611abd578081fd5b85359450602086013593506040860135611ad681611d7a565b9250606086013567ffffffffffffffff811115611af1578182fd5b611afd888289016118e2565b969995985093965092949392505050565b60008251611b20818460208701611d34565b9190910192915050565b6020808252825182820181905260009190848201906040850190845b81811015611b6257835183529284019291840191600101611b46565b50909695505050505050565b6000602082528251806020840152611b8d816040850160208701611d34565b601f01601f19169190910160400192915050565b6020808252602a908201527f526f6c65733a2063616c6c6572206973206e6f7420746865206f776e6572206f604082015269391032bc32b1baba37b960b11b606082015260800190565b6020808252601a908201527f446f6e27742073656e6420746f207a65726f2061646472657373000000000000604082015260600190565b60208082526038908201527f43616c6c6572206973206e6f7420746865206f776e65722c206578656375746f60408201527f72206f7220617574686f72697a65642064697361626c65720000000000000000606082015260800190565b8481526001600160a01b03841660208201526060604082018190528101829052600082846080840137818301608090810191909152601f909201601f191601019392505050565b60008219821115611cd957611cd9611d64565b500190565b600082611cf957634e487b7160e01b81526012600452602481fd5b500490565b6000816000190483118215151615611d1857611d18611d64565b500290565b600082821015611d2f57611d2f611d64565b500390565b60005b83811015611d4f578181015183820152602001611d37565b83811115611d5e576000848401525b50505050565b634e487b7160e01b600052601160045260246000fd5b6001600160a01b0381168114611d8f57600080fd5b5056fea264697066735822122059d3555bd28d37d481defab38bb24fbbd23fa24087ba333b04a4f1cbf6122e9664736f6c63430008030033",
  "devdoc": {
    "kind": "dev",
    "methods": {
      "charactersPlayed()": {
        "details": "returns all characters played by this contract (e.g. stable coin, oracle registry)"
      },
      "dependsOnCharacters()": {
        "details": "returns all the character dependencies like FEE_RECIPIENT"
      },
      "dependsOnRoles()": {
        "details": "returns all the roles dependencies of this contract like FUND_TRANSFERER"
      },
      "rolesPlayed()": {
        "details": "returns all roles played by this contract"
      },
      "updateMainCharacterCache(uint256)": {
        "details": "Updates the main character cache for a speciic character"
      },
      "updateRoleCache(uint256,address)": {
        "details": "Updates the role cache for a specific role and address"
      }
    },
    "version": 1
  },
  "userdoc": {
    "kind": "user",
    "methods": {
      "liquidate(uint256,uint256,address,bytes)": {
        "notice": "Run liquidation of a tranche Rebalancing bid must lift the tranche back above viable collateralization threshold If so, the position (minus excess value returned to old owner) gets transferred to liquidator"
      },
      "liquidateUnderwater(uint256,address,bytes)": {
        "notice": "Special liquidation for underwater accounts (debt > value) Restricted to only trusted users, in case there is some vulnerability at play"
      },
      "rescueNative(uint256,address)": {
        "notice": "Rescue any stranded native currency"
      },
      "rescueStrandedTokens(address,uint256,address)": {
        "notice": "In an emergency, withdraw any tokens stranded in this contract's balance"
      },
      "setDefaultLiquidationRewardPer10k(uint256)": {
        "notice": "Set liquidation share in default"
      },
      "setLiquidationRewardPer10k(address,uint256)": {
        "notice": "Set liquidation share per asset"
      },
      "setProtcolFeePer10k(address,uint256)": {
        "notice": "Set protocol fee per asset"
      },
      "setProtocolFeePer10k(uint256)": {
        "notice": "Set protocol fee in default"
      }
    },
    "notice": "Liquidation contract for IsolatedLending",
    "version": 1
  },
  "storageLayout": {
    "storage": [
      {
        "astId": 16299,
        "contract": "contracts/IsolatedLendingLiquidation.sol:IsolatedLendingLiquidation",
        "label": "mainCharacterCache",
        "offset": 0,
        "slot": "0",
        "type": "t_mapping(t_uint256,t_address)"
      },
      {
        "astId": 16305,
        "contract": "contracts/IsolatedLendingLiquidation.sol:IsolatedLendingLiquidation",
        "label": "roleCache",
        "offset": 0,
        "slot": "1",
        "type": "t_mapping(t_address,t_mapping(t_uint256,t_bool))"
      },
      {
        "astId": 16308,
        "contract": "contracts/IsolatedLendingLiquidation.sol:IsolatedLendingLiquidation",
        "label": "_dependsOnCharacters",
        "offset": 0,
        "slot": "2",
        "type": "t_array(t_uint256)dyn_storage"
      },
      {
        "astId": 16311,
        "contract": "contracts/IsolatedLendingLiquidation.sol:IsolatedLendingLiquidation",
        "label": "_dependsOnRoles",
        "offset": 0,
        "slot": "3",
        "type": "t_array(t_uint256)dyn_storage"
      },
      {
        "astId": 16314,
        "contract": "contracts/IsolatedLendingLiquidation.sol:IsolatedLendingLiquidation",
        "label": "_charactersPlayed",
        "offset": 0,
        "slot": "4",
        "type": "t_array(t_uint256)dyn_storage"
      },
      {
        "astId": 16317,
        "contract": "contracts/IsolatedLendingLiquidation.sol:IsolatedLendingLiquidation",
        "label": "_rolesPlayed",
        "offset": 0,
        "slot": "5",
        "type": "t_array(t_uint256)dyn_storage"
      },
      {
        "astId": 222,
        "contract": "contracts/IsolatedLendingLiquidation.sol:IsolatedLendingLiquidation",
        "label": "_status",
        "offset": 0,
        "slot": "6",
        "type": "t_uint256"
      },
      {
        "astId": 7605,
        "contract": "contracts/IsolatedLendingLiquidation.sol:IsolatedLendingLiquidation",
        "label": "liquidationRewardPer10k",
        "offset": 0,
        "slot": "7",
        "type": "t_mapping(t_address,t_uint256)"
      },
      {
        "astId": 7613,
        "contract": "contracts/IsolatedLendingLiquidation.sol:IsolatedLendingLiquidation",
        "label": "defaultLiquidationRewardPer10k",
        "offset": 0,
        "slot": "8",
        "type": "t_uint256"
      },
      {
        "astId": 7621,
        "contract": "contracts/IsolatedLendingLiquidation.sol:IsolatedLendingLiquidation",
        "label": "defaultProtocolFeePer10k",
        "offset": 0,
        "slot": "9",
        "type": "t_uint256"
      },
      {
        "astId": 7625,
        "contract": "contracts/IsolatedLendingLiquidation.sol:IsolatedLendingLiquidation",
        "label": "protocolFeePer10k",
        "offset": 0,
        "slot": "10",
        "type": "t_mapping(t_address,t_uint256)"
      }
    ],
    "types": {
      "t_address": {
        "encoding": "inplace",
        "label": "address",
        "numberOfBytes": "20"
      },
      "t_array(t_uint256)dyn_storage": {
        "base": "t_uint256",
        "encoding": "dynamic_array",
        "label": "uint256[]",
        "numberOfBytes": "32"
      },
      "t_bool": {
        "encoding": "inplace",
        "label": "bool",
        "numberOfBytes": "1"
      },
      "t_mapping(t_address,t_mapping(t_uint256,t_bool))": {
        "encoding": "mapping",
        "key": "t_address",
        "label": "mapping(address => mapping(uint256 => bool))",
        "numberOfBytes": "32",
        "value": "t_mapping(t_uint256,t_bool)"
      },
      "t_mapping(t_address,t_uint256)": {
        "encoding": "mapping",
        "key": "t_address",
        "label": "mapping(address => uint256)",
        "numberOfBytes": "32",
        "value": "t_uint256"
      },
      "t_mapping(t_uint256,t_address)": {
        "encoding": "mapping",
        "key": "t_uint256",
        "label": "mapping(uint256 => address)",
        "numberOfBytes": "32",
        "value": "t_address"
      },
      "t_mapping(t_uint256,t_bool)": {
        "encoding": "mapping",
        "key": "t_uint256",
        "label": "mapping(uint256 => bool)",
        "numberOfBytes": "32",
        "value": "t_bool"
      },
      "t_uint256": {
        "encoding": "inplace",
        "label": "uint256",
        "numberOfBytes": "32"
      }
    }
  }
}