{
  "address": "0xA193e39Fa67fE5b2f9416C1259916be137721E79",
  "abi": [
    {
      "inputs": [
        {
          "internalType": "address",
          "name": "_roles",
          "type": "address"
        }
      ],
      "stateMutability": "nonpayable",
      "type": "constructor"
    },
    {
      "anonymous": false,
      "inputs": [
        {
          "indexed": true,
          "internalType": "address",
          "name": "owner",
          "type": "address"
        },
        {
          "indexed": true,
          "internalType": "address",
          "name": "approved",
          "type": "address"
        },
        {
          "indexed": true,
          "internalType": "uint256",
          "name": "tokenId",
          "type": "uint256"
        }
      ],
      "name": "Approval",
      "type": "event"
    },
    {
      "anonymous": false,
      "inputs": [
        {
          "indexed": true,
          "internalType": "address",
          "name": "owner",
          "type": "address"
        },
        {
          "indexed": true,
          "internalType": "address",
          "name": "operator",
          "type": "address"
        },
        {
          "indexed": false,
          "internalType": "bool",
          "name": "approved",
          "type": "bool"
        }
      ],
      "name": "ApprovalForAll",
      "type": "event"
    },
    {
      "anonymous": false,
      "inputs": [
        {
          "indexed": true,
          "internalType": "address",
          "name": "from",
          "type": "address"
        },
        {
          "indexed": true,
          "internalType": "address",
          "name": "to",
          "type": "address"
        },
        {
          "indexed": true,
          "internalType": "uint256",
          "name": "tokenId",
          "type": "uint256"
        }
      ],
      "name": "Transfer",
      "type": "event"
    },
    {
      "inputs": [
        {
          "internalType": "uint256",
          "name": "",
          "type": "uint256"
        }
      ],
      "name": "_charactersPlayed",
      "outputs": [
        {
          "internalType": "uint256",
          "name": "",
          "type": "uint256"
        }
      ],
      "stateMutability": "view",
      "type": "function"
    },
    {
      "inputs": [
        {
          "internalType": "uint256",
          "name": "",
          "type": "uint256"
        }
      ],
      "name": "_containedIn",
      "outputs": [
        {
          "internalType": "uint256",
          "name": "",
          "type": "uint256"
        }
      ],
      "stateMutability": "view",
      "type": "function"
    },
    {
      "inputs": [
        {
          "internalType": "uint256",
          "name": "",
          "type": "uint256"
        }
      ],
      "name": "_dependsOnCharacters",
      "outputs": [
        {
          "internalType": "uint256",
          "name": "",
          "type": "uint256"
        }
      ],
      "stateMutability": "view",
      "type": "function"
    },
    {
      "inputs": [
        {
          "internalType": "uint256",
          "name": "",
          "type": "uint256"
        }
      ],
      "name": "_dependsOnRoles",
      "outputs": [
        {
          "internalType": "uint256",
          "name": "",
          "type": "uint256"
        }
      ],
      "stateMutability": "view",
      "type": "function"
    },
    {
      "inputs": [
        {
          "internalType": "uint256",
          "name": "",
          "type": "uint256"
        }
      ],
      "name": "_holdingStrategies",
      "outputs": [
        {
          "internalType": "address",
          "name": "",
          "type": "address"
        }
      ],
      "stateMutability": "view",
      "type": "function"
    },
    {
      "inputs": [
        {
          "internalType": "address",
          "name": "",
          "type": "address"
        },
        {
          "internalType": "address",
          "name": "",
          "type": "address"
        }
      ],
      "name": "_oracleCache",
      "outputs": [
        {
          "internalType": "address",
          "name": "",
          "type": "address"
        }
      ],
      "stateMutability": "view",
      "type": "function"
    },
    {
      "inputs": [
        {
          "internalType": "uint256",
          "name": "",
          "type": "uint256"
        }
      ],
      "name": "_rolesPlayed",
      "outputs": [
        {
          "internalType": "uint256",
          "name": "",
          "type": "uint256"
        }
      ],
      "stateMutability": "view",
      "type": "function"
    },
    {
      "inputs": [
        {
          "internalType": "address",
          "name": "to",
          "type": "address"
        },
        {
          "internalType": "uint256",
          "name": "tokenId",
          "type": "uint256"
        }
      ],
      "name": "approve",
      "outputs": [],
      "stateMutability": "nonpayable",
      "type": "function"
    },
    {
      "inputs": [
        {
          "internalType": "address",
          "name": "",
          "type": "address"
        }
      ],
      "name": "assetConfigs",
      "outputs": [
        {
          "internalType": "uint256",
          "name": "debtCeiling",
          "type": "uint256"
        },
        {
          "internalType": "uint256",
          "name": "feePer10k",
          "type": "uint256"
        },
        {
          "internalType": "uint256",
          "name": "totalDebt",
          "type": "uint256"
        }
      ],
      "stateMutability": "view",
      "type": "function"
    },
    {
      "inputs": [
        {
          "internalType": "address",
          "name": "owner",
          "type": "address"
        }
      ],
      "name": "balanceOf",
      "outputs": [
        {
          "internalType": "uint256",
          "name": "",
          "type": "uint256"
        }
      ],
      "stateMutability": "view",
      "type": "function"
    },
    {
      "inputs": [
        {
          "internalType": "uint256[]",
          "name": "trancheIds",
          "type": "uint256[]"
        },
        {
          "internalType": "address",
          "name": "currency",
          "type": "address"
        },
        {
          "internalType": "address",
          "name": "recipient",
          "type": "address"
        }
      ],
      "name": "batchCollectYield",
      "outputs": [
        {
          "internalType": "uint256",
          "name": "",
          "type": "uint256"
        }
      ],
      "stateMutability": "nonpayable",
      "type": "function"
    },
    {
      "inputs": [
        {
          "internalType": "uint256[]",
          "name": "trancheIds",
          "type": "uint256[]"
        },
        {
          "internalType": "address",
          "name": "yieldCurrency",
          "type": "address"
        },
        {
          "internalType": "address",
          "name": "valueCurrency",
          "type": "address"
        },
        {
          "internalType": "address",
          "name": "recipient",
          "type": "address"
        }
      ],
      "name": "batchCollectYieldValueBorrowable",
      "outputs": [
        {
          "internalType": "uint256",
          "name": "yield",
          "type": "uint256"
        },
        {
          "internalType": "uint256",
          "name": "value",
          "type": "uint256"
        },
        {
          "internalType": "uint256",
          "name": "borrowablePer10k",
          "type": "uint256"
        }
      ],
      "stateMutability": "nonpayable",
      "type": "function"
    },
    {
      "inputs": [
        {
          "internalType": "uint256[]",
          "name": "trancheIds",
          "type": "uint256[]"
        },
        {
          "internalType": "address",
          "name": "currency",
          "type": "address"
        }
      ],
      "name": "batchViewValue",
      "outputs": [
        {
          "internalType": "uint256",
          "name": "",
          "type": "uint256"
        }
      ],
      "stateMutability": "view",
      "type": "function"
    },
    {
      "inputs": [
        {
          "internalType": "uint256[]",
          "name": "trancheIds",
          "type": "uint256[]"
        },
        {
          "internalType": "address",
          "name": "currency",
          "type": "address"
        }
      ],
      "name": "batchViewValueBorrowable",
      "outputs": [
        {
          "internalType": "uint256",
          "name": "",
          "type": "uint256"
        },
        {
          "internalType": "uint256",
          "name": "",
          "type": "uint256"
        }
      ],
      "stateMutability": "view",
      "type": "function"
    },
    {
      "inputs": [
        {
          "internalType": "uint256[]",
          "name": "trancheIds",
          "type": "uint256[]"
        },
        {
          "internalType": "address",
          "name": "currency",
          "type": "address"
        }
      ],
      "name": "batchViewYield",
      "outputs": [
        {
          "internalType": "uint256",
          "name": "",
          "type": "uint256"
        }
      ],
      "stateMutability": "view",
      "type": "function"
    },
    {
      "inputs": [],
      "name": "charactersPlayed",
      "outputs": [
        {
          "internalType": "uint256[]",
          "name": "",
          "type": "uint256[]"
        }
      ],
      "stateMutability": "view",
      "type": "function"
    },
    {
      "inputs": [
        {
          "internalType": "uint256",
          "name": "trancheId",
          "type": "uint256"
        },
        {
          "internalType": "address",
          "name": "currency",
          "type": "address"
        },
        {
          "internalType": "address",
          "name": "recipient",
          "type": "address"
        }
      ],
      "name": "collectYield",
      "outputs": [
        {
          "internalType": "uint256",
          "name": "",
          "type": "uint256"
        }
      ],
      "stateMutability": "nonpayable",
      "type": "function"
    },
    {
      "inputs": [
        {
          "internalType": "uint256",
          "name": "trancheId",
          "type": "uint256"
        },
        {
          "internalType": "address",
          "name": "yieldCurrency",
          "type": "address"
        },
        {
          "internalType": "address",
          "name": "valueCurrency",
          "type": "address"
        },
        {
          "internalType": "address",
          "name": "recipient",
          "type": "address"
        }
      ],
      "name": "collectYieldValueBorrowable",
      "outputs": [
        {
          "internalType": "uint256",
          "name": "",
          "type": "uint256"
        },
        {
          "internalType": "uint256",
          "name": "",
          "type": "uint256"
        },
        {
          "internalType": "uint256",
          "name": "",
          "type": "uint256"
        }
      ],
      "stateMutability": "nonpayable",
      "type": "function"
    },
    {
      "inputs": [
        {
          "internalType": "address",
          "name": "token",
          "type": "address"
        },
        {
          "internalType": "uint256",
          "name": "ceiling",
          "type": "uint256"
        },
        {
          "internalType": "uint256",
          "name": "fee",
          "type": "uint256"
        }
      ],
      "name": "configureAsset",
      "outputs": [],
      "stateMutability": "nonpayable",
      "type": "function"
    },
    {
      "inputs": [
        {
          "internalType": "uint256",
          "name": "tokenId",
          "type": "uint256"
        }
      ],
      "name": "containedIn",
      "outputs": [
        {
          "internalType": "address",
          "name": "owner",
          "type": "address"
        },
        {
          "internalType": "uint256",
          "name": "containerId",
          "type": "uint256"
        }
      ],
      "stateMutability": "view",
      "type": "function"
    },
    {
      "inputs": [],
      "name": "dependsOnCharacters",
      "outputs": [
        {
          "internalType": "uint256[]",
          "name": "",
          "type": "uint256[]"
        }
      ],
      "stateMutability": "view",
      "type": "function"
    },
    {
      "inputs": [],
      "name": "dependsOnRoles",
      "outputs": [
        {
          "internalType": "uint256[]",
          "name": "",
          "type": "uint256[]"
        }
      ],
      "stateMutability": "view",
      "type": "function"
    },
    {
      "inputs": [
        {
          "internalType": "uint256",
          "name": "trancheId",
          "type": "uint256"
        },
        {
          "internalType": "uint256",
          "name": "tokenAmount",
          "type": "uint256"
        }
      ],
      "name": "deposit",
      "outputs": [],
      "stateMutability": "nonpayable",
      "type": "function"
    },
    {
      "inputs": [
        {
          "internalType": "uint256",
          "name": "trancheId",
          "type": "uint256"
        },
        {
          "internalType": "uint256",
          "name": "collateralAmount",
          "type": "uint256"
        },
        {
          "internalType": "uint256",
          "name": "borrowAmount",
          "type": "uint256"
        },
        {
          "internalType": "address",
          "name": "recipient",
          "type": "address"
        }
      ],
      "name": "depositAndBorrow",
      "outputs": [],
      "stateMutability": "nonpayable",
      "type": "function"
    },
    {
      "inputs": [
        {
          "internalType": "uint256",
          "name": "tokenId",
          "type": "uint256"
        }
      ],
      "name": "getApproved",
      "outputs": [
        {
          "internalType": "address",
          "name": "",
          "type": "address"
        }
      ],
      "stateMutability": "view",
      "type": "function"
    },
    {
      "inputs": [
        {
          "internalType": "uint256",
          "name": "trancheId",
          "type": "uint256"
        }
      ],
      "name": "getCurrentHoldingStrategy",
      "outputs": [
        {
          "internalType": "address",
          "name": "",
          "type": "address"
        }
      ],
      "stateMutability": "nonpayable",
      "type": "function"
    },
    {
      "inputs": [
        {
          "internalType": "address",
          "name": "owner",
          "type": "address"
        },
        {
          "internalType": "address",
          "name": "operator",
          "type": "address"
        }
      ],
      "name": "isApprovedForAll",
      "outputs": [
        {
          "internalType": "bool",
          "name": "",
          "type": "bool"
        }
      ],
      "stateMutability": "view",
      "type": "function"
    },
    {
      "inputs": [
        {
          "internalType": "address",
          "name": "spender",
          "type": "address"
        },
        {
          "internalType": "uint256",
          "name": "tokenId",
          "type": "uint256"
        }
      ],
      "name": "isAuthorized",
      "outputs": [
        {
          "internalType": "bool",
          "name": "",
          "type": "bool"
        }
      ],
      "stateMutability": "view",
      "type": "function"
    },
    {
      "inputs": [
        {
          "internalType": "uint256",
          "name": "trancheId",
          "type": "uint256"
        }
      ],
      "name": "isViable",
      "outputs": [
        {
          "internalType": "bool",
          "name": "",
          "type": "bool"
        }
      ],
      "stateMutability": "view",
      "type": "function"
    },
    {
      "inputs": [
        {
          "internalType": "uint256",
          "name": "trancheId",
          "type": "uint256"
        },
        {
          "internalType": "address",
          "name": "recipient",
          "type": "address"
        },
        {
          "internalType": "bytes",
          "name": "_data",
          "type": "bytes"
        }
      ],
      "name": "liquidateTo",
      "outputs": [],
      "stateMutability": "nonpayable",
      "type": "function"
    },
    {
      "inputs": [
        {
          "internalType": "uint256",
          "name": "",
          "type": "uint256"
        }
      ],
      "name": "mainCharacterCache",
      "outputs": [
        {
          "internalType": "address",
          "name": "",
          "type": "address"
        }
      ],
      "stateMutability": "view",
      "type": "function"
    },
    {
      "inputs": [
        {
          "internalType": "uint256",
          "name": "trancheId",
          "type": "uint256"
        },
        {
          "internalType": "address",
          "name": "destination",
          "type": "address"
        },
        {
          "internalType": "address",
          "name": "yieldToken",
          "type": "address"
        },
        {
          "internalType": "address",
          "name": "yieldRecipient",
          "type": "address"
        }
      ],
      "name": "migrateStrategy",
      "outputs": [
        {
          "internalType": "address",
          "name": "token",
          "type": "address"
        },
        {
          "internalType": "uint256",
          "name": "tokenId",
          "type": "uint256"
        },
        {
          "internalType": "uint256",
          "name": "targetAmount",
          "type": "uint256"
        }
      ],
      "stateMutability": "nonpayable",
      "type": "function"
    },
    {
      "inputs": [
        {
          "internalType": "address",
          "name": "collateralToken",
          "type": "address"
        },
        {
          "internalType": "address",
          "name": "strategy",
          "type": "address"
        },
        {
          "internalType": "uint256",
          "name": "collateralAmount",
          "type": "uint256"
        },
        {
          "internalType": "uint256",
          "name": "borrowAmount",
          "type": "uint256"
        },
        {
          "internalType": "address",
          "name": "recipient",
          "type": "address"
        }
      ],
      "name": "mintDepositAndBorrow",
      "outputs": [
        {
          "internalType": "uint256",
          "name": "",
          "type": "uint256"
        }
      ],
      "stateMutability": "nonpayable",
      "type": "function"
    },
    {
      "inputs": [
        {
          "internalType": "uint256",
          "name": "vaultId",
          "type": "uint256"
        },
        {
          "internalType": "address",
          "name": "strategy",
          "type": "address"
        },
        {
          "internalType": "address",
          "name": "assetToken",
          "type": "address"
        },
        {
          "internalType": "uint256",
          "name": "assetTokenId",
          "type": "uint256"
        },
        {
          "internalType": "uint256",
          "name": "assetAmount",
          "type": "uint256"
        }
      ],
      "name": "mintTranche",
      "outputs": [
        {
          "internalType": "uint256",
          "name": "trancheId",
          "type": "uint256"
        }
      ],
      "stateMutability": "nonpayable",
      "type": "function"
    },
    {
      "inputs": [
        {
          "internalType": "uint256",
          "name": "stableAmount",
          "type": "uint256"
        },
        {
          "internalType": "address",
          "name": "collateral",
          "type": "address"
        }
      ],
      "name": "mintingFee",
      "outputs": [
        {
          "internalType": "uint256",
          "name": "",
          "type": "uint256"
        }
      ],
      "stateMutability": "view",
      "type": "function"
    },
    {
      "inputs": [],
      "name": "name",
      "outputs": [
        {
          "internalType": "string",
          "name": "",
          "type": "string"
        }
      ],
      "stateMutability": "view",
      "type": "function"
    },
    {
      "inputs": [
        {
          "internalType": "address",
          "name": "token",
          "type": "address"
        },
        {
          "internalType": "address",
          "name": "pegCurrency",
          "type": "address"
        }
      ],
      "name": "newCurrentOracle",
      "outputs": [],
      "stateMutability": "nonpayable",
      "type": "function"
    },
    {
      "inputs": [
        {
          "internalType": "uint256",
          "name": "tokenId",
          "type": "uint256"
        }
      ],
      "name": "ownerOf",
      "outputs": [
        {
          "internalType": "address",
          "name": "",
          "type": "address"
        }
      ],
      "stateMutability": "view",
      "type": "function"
    },
    {
      "inputs": [],
      "name": "pendingFees",
      "outputs": [
        {
          "internalType": "uint256",
          "name": "",
          "type": "uint256"
        }
      ],
      "stateMutability": "view",
      "type": "function"
    },
    {
      "inputs": [
        {
          "internalType": "address",
          "name": "depositor",
          "type": "address"
        },
        {
          "internalType": "uint256",
          "name": "trancheId",
          "type": "uint256"
        },
        {
          "internalType": "uint256",
          "name": "tokenAmount",
          "type": "uint256"
        }
      ],
      "name": "registerDepositFor",
      "outputs": [],
      "stateMutability": "nonpayable",
      "type": "function"
    },
    {
      "inputs": [
        {
          "internalType": "uint256",
          "name": "trancheId",
          "type": "uint256"
        },
        {
          "internalType": "uint256",
          "name": "collateralAmount",
          "type": "uint256"
        },
        {
          "internalType": "uint256",
          "name": "repayAmount",
          "type": "uint256"
        },
        {
          "internalType": "address",
          "name": "recipient",
          "type": "address"
        }
      ],
      "name": "repayAndWithdraw",
      "outputs": [],
      "stateMutability": "nonpayable",
      "type": "function"
    },
    {
      "inputs": [
        {
          "internalType": "address",
          "name": "",
          "type": "address"
        },
        {
          "internalType": "uint256",
          "name": "",
          "type": "uint256"
        }
      ],
      "name": "roleCache",
      "outputs": [
        {
          "internalType": "bool",
          "name": "",
          "type": "bool"
        }
      ],
      "stateMutability": "view",
      "type": "function"
    },
    {
      "inputs": [],
      "name": "roles",
      "outputs": [
        {
          "internalType": "contract Roles",
          "name": "",
          "type": "address"
        }
      ],
      "stateMutability": "view",
      "type": "function"
    },
    {
      "inputs": [],
      "name": "rolesPlayed",
      "outputs": [
        {
          "internalType": "uint256[]",
          "name": "",
          "type": "uint256[]"
        }
      ],
      "stateMutability": "view",
      "type": "function"
    },
    {
      "inputs": [
        {
          "internalType": "address",
          "name": "from",
          "type": "address"
        },
        {
          "internalType": "address",
          "name": "to",
          "type": "address"
        },
        {
          "internalType": "uint256",
          "name": "tokenId",
          "type": "uint256"
        }
      ],
      "name": "safeTransferFrom",
      "outputs": [],
      "stateMutability": "nonpayable",
      "type": "function"
    },
    {
      "inputs": [
        {
          "internalType": "address",
          "name": "from",
          "type": "address"
        },
        {
          "internalType": "address",
          "name": "to",
          "type": "address"
        },
        {
          "internalType": "uint256",
          "name": "tokenId",
          "type": "uint256"
        },
        {
          "internalType": "bytes",
          "name": "_data",
          "type": "bytes"
        }
      ],
      "name": "safeTransferFrom",
      "outputs": [],
      "stateMutability": "nonpayable",
      "type": "function"
    },
    {
      "inputs": [
        {
          "internalType": "address",
          "name": "operator",
          "type": "address"
        },
        {
          "internalType": "bool",
          "name": "approved",
          "type": "bool"
        }
      ],
      "name": "setApprovalForAll",
      "outputs": [],
      "stateMutability": "nonpayable",
      "type": "function"
    },
    {
      "inputs": [
        {
          "internalType": "address",
          "name": "token",
          "type": "address"
        },
        {
          "internalType": "uint256",
          "name": "ceiling",
          "type": "uint256"
        }
      ],
      "name": "setAssetDebtCeiling",
      "outputs": [],
      "stateMutability": "nonpayable",
      "type": "function"
    },
    {
      "inputs": [
        {
          "internalType": "address",
          "name": "token",
          "type": "address"
        },
        {
          "internalType": "uint256",
          "name": "fee",
          "type": "uint256"
        }
      ],
      "name": "setFeesPer10k",
      "outputs": [],
      "stateMutability": "nonpayable",
      "type": "function"
    },
    {
      "inputs": [],
      "name": "setupTrancheSlot",
      "outputs": [],
      "stateMutability": "nonpayable",
      "type": "function"
    },
    {
      "inputs": [
        {
          "internalType": "bytes4",
          "name": "interfaceId",
          "type": "bytes4"
        }
      ],
      "name": "supportsInterface",
      "outputs": [
        {
          "internalType": "bool",
          "name": "",
          "type": "bool"
        }
      ],
      "stateMutability": "view",
      "type": "function"
    },
    {
      "inputs": [],
      "name": "symbol",
      "outputs": [
        {
          "internalType": "string",
          "name": "",
          "type": "string"
        }
      ],
      "stateMutability": "view",
      "type": "function"
    },
    {
      "inputs": [
        {
          "internalType": "uint256",
          "name": "index",
          "type": "uint256"
        }
      ],
      "name": "tokenByIndex",
      "outputs": [
        {
          "internalType": "uint256",
          "name": "",
          "type": "uint256"
        }
      ],
      "stateMutability": "view",
      "type": "function"
    },
    {
      "inputs": [
        {
          "internalType": "address",
          "name": "owner",
          "type": "address"
        },
        {
          "internalType": "uint256",
          "name": "index",
          "type": "uint256"
        }
      ],
      "name": "tokenOfOwnerByIndex",
      "outputs": [
        {
          "internalType": "uint256",
          "name": "",
          "type": "uint256"
        }
      ],
      "stateMutability": "view",
      "type": "function"
    },
    {
      "inputs": [
        {
          "internalType": "uint256",
          "name": "tokenId",
          "type": "uint256"
        }
      ],
      "name": "tokenURI",
      "outputs": [
        {
          "internalType": "string",
          "name": "",
          "type": "string"
        }
      ],
      "stateMutability": "view",
      "type": "function"
    },
    {
      "inputs": [],
      "name": "totalSupply",
      "outputs": [
        {
          "internalType": "uint256",
          "name": "",
          "type": "uint256"
        }
      ],
      "stateMutability": "view",
      "type": "function"
    },
    {
      "inputs": [
        {
          "internalType": "uint256",
          "name": "",
          "type": "uint256"
        }
      ],
      "name": "trancheDebt",
      "outputs": [
        {
          "internalType": "uint256",
          "name": "",
          "type": "uint256"
        }
      ],
      "stateMutability": "view",
      "type": "function"
    },
    {
      "inputs": [
        {
          "internalType": "uint256",
          "name": "trancheId",
          "type": "uint256"
        }
      ],
      "name": "trancheToken",
      "outputs": [
        {
          "internalType": "address",
          "name": "",
          "type": "address"
        }
      ],
      "stateMutability": "view",
      "type": "function"
    },
    {
      "inputs": [
        {
          "internalType": "address",
          "name": "from",
          "type": "address"
        },
        {
          "internalType": "address",
          "name": "to",
          "type": "address"
        },
        {
          "internalType": "uint256",
          "name": "tokenId",
          "type": "uint256"
        }
      ],
      "name": "transferFrom",
      "outputs": [],
      "stateMutability": "nonpayable",
      "type": "function"
    },
    {
      "inputs": [
        {
          "internalType": "uint256",
          "name": "role",
          "type": "uint256"
        }
      ],
      "name": "updateMainCharacterCache",
      "outputs": [],
      "stateMutability": "nonpayable",
      "type": "function"
    },
    {
      "inputs": [
        {
          "internalType": "uint256",
          "name": "role",
          "type": "uint256"
        },
        {
          "internalType": "address",
          "name": "contr",
          "type": "address"
        }
      ],
      "name": "updateRoleCache",
      "outputs": [],
      "stateMutability": "nonpayable",
      "type": "function"
    },
    {
      "inputs": [
        {
          "internalType": "address[]",
          "name": "tokens",
          "type": "address[]"
        }
      ],
      "name": "viewAllILMetadata",
      "outputs": [
        {
          "components": [
            {
              "internalType": "uint256",
              "name": "debtCeiling",
              "type": "uint256"
            },
            {
              "internalType": "uint256",
              "name": "totalDebt",
              "type": "uint256"
            },
            {
              "internalType": "uint256",
              "name": "mintingFee",
              "type": "uint256"
            },
            {
              "internalType": "uint256",
              "name": "borrowablePer10k",
              "type": "uint256"
            }
          ],
          "internalType": "struct IsolatedLending.ILMetadata[]",
          "name": "",
          "type": "tuple[]"
        }
      ],
      "stateMutability": "view",
      "type": "function"
    },
    {
      "inputs": [],
      "name": "viewAllStrategyMetadata",
      "outputs": [
        {
          "components": [
            {
              "internalType": "uint256",
              "name": "debtCeiling",
              "type": "uint256"
            },
            {
              "internalType": "uint256",
              "name": "totalDebt",
              "type": "uint256"
            },
            {
              "internalType": "uint256",
              "name": "stabilityFee",
              "type": "uint256"
            },
            {
              "internalType": "uint256",
              "name": "mintingFee",
              "type": "uint256"
            },
            {
              "internalType": "address",
              "name": "strategy",
              "type": "address"
            },
            {
              "internalType": "address",
              "name": "token",
              "type": "address"
            },
            {
              "internalType": "uint256",
              "name": "APF",
              "type": "uint256"
            },
            {
              "internalType": "uint256",
              "name": "totalCollateral",
              "type": "uint256"
            },
            {
              "internalType": "uint256",
              "name": "borrowablePer10k",
              "type": "uint256"
            },
            {
              "internalType": "uint256",
              "name": "valuePer1e18",
              "type": "uint256"
            },
            {
              "internalType": "bytes32",
              "name": "strategyName",
              "type": "bytes32"
            },
            {
              "internalType": "uint256",
              "name": "tvl",
              "type": "uint256"
            },
            {
              "internalType": "uint256",
              "name": "harvestBalance2Tally",
              "type": "uint256"
            },
            {
              "internalType": "enum IStrategy.YieldType",
              "name": "yieldType",
              "type": "uint8"
            }
          ],
          "internalType": "struct IsolatedLending.ILStrategyMetadata[]",
          "name": "",
          "type": "tuple[]"
        }
      ],
      "stateMutability": "view",
      "type": "function"
    },
    {
      "inputs": [
        {
          "internalType": "uint256",
          "name": "trancheId",
          "type": "uint256"
        }
      ],
      "name": "viewBorrowable",
      "outputs": [
        {
          "internalType": "uint256",
          "name": "",
          "type": "uint256"
        }
      ],
      "stateMutability": "view",
      "type": "function"
    },
    {
      "inputs": [
        {
          "internalType": "uint256",
          "name": "trancheId",
          "type": "uint256"
        }
      ],
      "name": "viewCurrentHoldingStrategy",
      "outputs": [
        {
          "internalType": "address",
          "name": "",
          "type": "address"
        }
      ],
      "stateMutability": "view",
      "type": "function"
    },
    {
      "inputs": [
        {
          "internalType": "address",
          "name": "token",
          "type": "address"
        }
      ],
      "name": "viewILMetadata",
      "outputs": [
        {
          "components": [
            {
              "internalType": "uint256",
              "name": "debtCeiling",
              "type": "uint256"
            },
            {
              "internalType": "uint256",
              "name": "totalDebt",
              "type": "uint256"
            },
            {
              "internalType": "uint256",
              "name": "mintingFee",
              "type": "uint256"
            },
            {
              "internalType": "uint256",
              "name": "borrowablePer10k",
              "type": "uint256"
            }
          ],
          "internalType": "struct IsolatedLending.ILMetadata",
          "name": "",
          "type": "tuple"
        }
      ],
      "stateMutability": "view",
      "type": "function"
    },
    {
      "inputs": [
        {
          "internalType": "address",
          "name": "owner",
          "type": "address"
        }
      ],
      "name": "viewPositionsByOwner",
      "outputs": [
        {
          "components": [
            {
              "internalType": "uint256",
              "name": "trancheId",
              "type": "uint256"
            },
            {
              "internalType": "address",
              "name": "strategy",
              "type": "address"
            },
            {
              "internalType": "uint256",
              "name": "collateral",
              "type": "uint256"
            },
            {
              "internalType": "uint256",
              "name": "debt",
              "type": "uint256"
            },
            {
              "internalType": "address",
              "name": "token",
              "type": "address"
            },
            {
              "internalType": "uint256",
              "name": "yield",
              "type": "uint256"
            },
            {
              "internalType": "uint256",
              "name": "value",
              "type": "uint256"
            },
            {
              "internalType": "uint256",
              "name": "borrowablePer10k",
              "type": "uint256"
            }
          ],
          "internalType": "struct IsolatedLending.PositionMetadata[]",
          "name": "",
          "type": "tuple[]"
        }
      ],
      "stateMutability": "view",
      "type": "function"
    },
    {
      "inputs": [
        {
          "internalType": "address",
          "name": "owner",
          "type": "address"
        }
      ],
      "name": "viewTranchesByOwner",
      "outputs": [
        {
          "internalType": "uint256[]",
          "name": "",
          "type": "uint256[]"
        }
      ],
      "stateMutability": "view",
      "type": "function"
    },
    {
      "inputs": [
        {
          "internalType": "uint256",
          "name": "trancheId",
          "type": "uint256"
        },
        {
          "internalType": "address",
          "name": "currency",
          "type": "address"
        }
      ],
      "name": "viewValue",
      "outputs": [
        {
          "internalType": "uint256",
          "name": "",
          "type": "uint256"
        }
      ],
      "stateMutability": "view",
      "type": "function"
    },
    {
      "inputs": [
        {
          "internalType": "uint256",
          "name": "trancheId",
          "type": "uint256"
        },
        {
          "internalType": "address",
          "name": "currency",
          "type": "address"
        }
      ],
      "name": "viewYield",
      "outputs": [
        {
          "internalType": "uint256",
          "name": "",
          "type": "uint256"
        }
      ],
      "stateMutability": "view",
      "type": "function"
    },
    {
      "inputs": [
        {
          "internalType": "uint256",
          "name": "trancheId",
          "type": "uint256"
        },
        {
          "internalType": "address",
          "name": "yieldCurrency",
          "type": "address"
        },
        {
          "internalType": "address",
          "name": "valueCurrency",
          "type": "address"
        }
      ],
      "name": "viewYieldValueBorrowable",
      "outputs": [
        {
          "internalType": "uint256",
          "name": "",
          "type": "uint256"
        },
        {
          "internalType": "uint256",
          "name": "",
          "type": "uint256"
        },
        {
          "internalType": "uint256",
          "name": "",
          "type": "uint256"
        }
      ],
      "stateMutability": "view",
      "type": "function"
    },
    {
      "inputs": [
        {
          "internalType": "uint256",
          "name": "trancheId",
          "type": "uint256"
        },
        {
          "internalType": "address",
          "name": "yieldCurrency",
          "type": "address"
        },
        {
          "internalType": "address",
          "name": "valueCurrency",
          "type": "address"
        }
      ],
      "name": "viewYieldValueBorrowableDebt",
      "outputs": [
        {
          "internalType": "uint256",
          "name": "yield",
          "type": "uint256"
        },
        {
          "internalType": "uint256",
          "name": "value",
          "type": "uint256"
        },
        {
          "internalType": "uint256",
          "name": "borrowablePer10k",
          "type": "uint256"
        },
        {
          "internalType": "uint256",
          "name": "debt",
          "type": "uint256"
        }
      ],
      "stateMutability": "view",
      "type": "function"
    },
    {
      "inputs": [
        {
          "internalType": "uint256",
          "name": "trancheId",
          "type": "uint256"
        },
        {
          "internalType": "uint256",
          "name": "tokenAmount",
          "type": "uint256"
        },
        {
          "internalType": "address",
          "name": "recipient",
          "type": "address"
        }
      ],
      "name": "withdraw",
      "outputs": [],
      "stateMutability": "nonpayable",
      "type": "function"
    },
    {
      "inputs": [],
      "name": "withdrawFees",
      "outputs": [],
      "stateMutability": "nonpayable",
      "type": "function"
    }
  ],
  "transactionHash": "0xe3fc47a07207194ba6fe47b1cc70b6a734707d2d69fb013d888db48ee347966f",
  "args": [
    "0x4F6ed22C558B462BA35Bb0F6FeB99600964310D7"
  ],
  "solcInputHash": "49de3c0ae1b6f2c0098f9389f4b75969",
  "bytecode": "0x60a06040523480156200001157600080fd5b5060405162005c6a38038062005c6a833981016040819052620000349162000322565b6040518060400160405280601a81526020017f4d6f72654d6f6e65792049736f6c61746564204c656e64696e67000000000000815250604051806040016040528060048152602001631353525360e21b815250828083838160009080519060200190620000a39291906200027c565b508051620000b99060019060208401906200027c565b5050600d805460018181018355606960008051602062005c4a83398151915292830155825480820190935560689290910191909155600e8054808301825560009190915260008051602062005c2a8339815191520155506001600160a01b038116620001765760405162461bcd60e51b815260206004820152602260248201527f506c656173652070726f766964652076616c696420726f6c6573206164647265604482015261737360f01b606482015260840160405180910390fd5b60601b6001600160601b0319166080525050600d805460018082018355606a60008051602062005c4a8339815191529283015560108054808301825560047f1b6847dc741a1b0cd08d278845f9d819d87b734759afb55fe2de5cb82a9ae67291820155815480840183556003908201558454808401865560669085015581548084018355600290820155600e8054808501909155600560008051602062005c2a83398151915290910155845480840190955560679490930193909355600f8054808301909155606b7f8d1108e10bcb7c27dddfc02ed9d693a074039d026cf4ea4240b40f7d581ac8029091015582548082018455600093909352910155506200038f9050565b8280546200028a9062000352565b90600052602060002090601f016020900481019282620002ae5760008555620002f9565b82601f10620002c957805160ff1916838001178555620002f9565b82800160010185558215620002f9579182015b82811115620002f9578251825591602001919060010190620002dc565b50620003079291506200030b565b5090565b5b808211156200030757600081556001016200030c565b60006020828403121562000334578081fd5b81516001600160a01b03811681146200034b578182fd5b9392505050565b600181811c908216806200036757607f821691505b602082108114156200038957634e487b7160e01b600052602260045260246000fd5b50919050565b60805160601c615852620003d8600039600081816106c801528181610d98015281816118b801528181613bda01528181613c7201528181613cf90152613fae01526158526000f3fe608060405234801561001057600080fd5b506004361061043d5760003560e01c80637516189111610236578063c87b56dd1161013b578063e9c3f77d116100c3578063f9ed4cc011610087578063f9ed4cc014610ad1578063fa98a4ba14610afa578063fabee7db14610b0d578063fb6475bd14610b20578063fd80d0c314610b335761043d565b8063e9c3f77d14610a5c578063e9d07fe814610a85578063eab9209614610a98578063f12ba38114610aab578063f8903fb714610abe5761043d565b8063dee7ae701161010a578063dee7ae70146109dd578063e2bbb158146109fd578063e670309c14610a10578063e8ea4fae14610a18578063e985e9c514610a205761043d565b8063c87b56dd1461097c578063c9491a961461098f578063dc94cb7d146109c2578063ddd07b76146109ca5761043d565b8063983b42f7116101be578063aeb38d8b1161018d578063aeb38d8b146108f8578063b23d66c21461090b578063b25e25f414610943578063b88d4fde14610956578063bf184ea4146109695761043d565b8063983b42f7146108ac578063a061ba5f146108bf578063a22cb465146108d2578063abcbc4fc146108e55761043d565b80637dad209b116102055780637dad209b146108565780638496e8911461085e57806391130d951461087157806393856b161461089157806395d89b41146108a45761043d565b806375161891146107b85780637609d7f6146107e657806379bc3efa146108155780637a1a04df146108285761043d565b806326b089de11610347578063476343ee116102cf578063621fdd3711610293578063621fdd37146107595780636352211e1461076c5780636caa9c111461077f57806370a08231146107925780637268d1c0146107a55761043d565b8063476343ee146107105780634a7a7f41146107185780634f6ccce7146107205780635a10b8281461073357806361b9fea9146107465761043d565b806332935f441161031657806332935f441461069057806335b176ab146106a3578063392f5f64146106c357806342842e0e146106ea578063447d52ba146106fd5761043d565b806326b089de1461064457806328f3fc73146106575780632972b0f01461066a5780632f745c591461067d5761043d565b80630ad58d2f116103ca57806318160ddd1161039957806318160ddd146105d757806321fa0f1f146105df578063224438d1146105f457806323b872dd146105fd5780632642b606146106105761043d565b80630ad58d2f1461055c5780630d6390441461056f5780630e3b95ff1461058f578063136f9cef146105af5761043d565b806306fdde031161041157806306fdde03146104c2578063071060a6146104d7578063081812fc146104ec57806308754a7314610517578063095ea7b3146105495761043d565b80620a5ccf1461044257806301c7b9f81461046b57806301ffc9a71461048c57806304c7e767146104af575b600080fd5b610455610450366004614a63565b610b46565b6040516104629190615531565b60405180910390f35b61047e610479366004615049565b610c05565b604051908152602001610462565b61049f61049a366004614fae565b610ca1565b6040519015158152602001610462565b61047e6104bd366004614bce565b610cc6565b6104ca610cf0565b6040516104629190615569565b6104ea6104e5366004615019565b610d82565b005b6104ff6104fa366004615019565b610e48565b6040516001600160a01b039091168152602001610462565b61052a610525366004615019565b610ee2565b604080516001600160a01b039093168352602083019190915201610462565b6104ea610557366004614c59565b610f05565b6104ea61056a366004615202565b61101b565b61047e61057d366004615019565b60146020526000908152604090205481565b6105a261059d366004614cee565b61107c565b6040516104629190615341565b6105c26105bd366004614e6d565b61118e565b60408051928352602083019190915201610462565b60085461047e565b6105e76112aa565b60405161046291906153b0565b61047e60155481565b6104ea61060b366004614ad3565b61150c565b6104ff61061e366004614a9b565b60116020908152600092835260408084209091529082529020546001600160a01b031681565b61047e610652366004615049565b61153d565b6104ea610665366004614a9b565b6115b8565b61049f610678366004614c59565b6116b1565b61047e61068b366004614c59565b611775565b61047e61069e366004614e6d565b61180b565b61047e6106b1366004615019565b600a6020526000908152604090205481565b6104ff7f000000000000000000000000000000000000000000000000000000000000000081565b6104ea6106f8366004614ad3565b611877565b6104ea61070b366004615049565b611892565b6104ea61196a565b6104556119b7565b61047e61072e366004615019565b611a0e565b61047e610741366004614e6d565b611aaf565b6104ff610754366004615019565b611b12565b6104ea61076736600461525c565b611d4e565b6104ff61077a366004615019565b611d96565b61047e61078d366004615019565b611e0d565b61047e6107a0366004614a63565b611e2e565b61047e6107b3366004615019565b611eb5565b6107cb6107c6366004614f26565b611f46565b60408051938452602084019290925290820152606001610462565b6107cb6107f4366004614a63565b60136020526000908152604090208054600182015460029092015490919083565b6104ea61082336600461525c565b611ff5565b61049f610836366004614c59565b600c60209081526000928352604080842090915290825290205460ff1681565b61045561204d565b6107cb61086c3660046150a3565b6120a3565b61088461087f366004614a63565b612110565b60405161046291906154a3565b61047e61089f3660046150ea565b6123db565b6104ca6123eb565b61047e6108ba366004614ec1565b6123fa565b6104ea6108cd366004614c59565b61248e565b6104ea6108e0366004614c2c565b612563565b61047e6108f3366004615019565b612635565b61047e610906366004615019565b612645565b61091e6109193660046150a3565b612655565b604080516001600160a01b039094168452602084019290925290820152606001610462565b61049f610951366004615019565b612842565b6104ea610964366004614b13565b6128f9565b61047e610977366004615019565b61292b565b6104ca61098a366004615019565b61293b565b6109a261099d36600461506d565b612a23565b604080519485526020850193909352918301526060820152608001610462565b610455612a54565b6104ea6109d8366004614c84565b612aaa565b6109f06109eb366004614a63565b612b7a565b6040516104629190615654565b6104ea610a0b3660046151be565b612c00565b6104ea612c0b565b610455612c87565b61049f610a2e366004614a9b565b6001600160a01b03918216600090815260056020908152604080832093909416825291909152205460ff1690565b6104ff610a6a366004615019565b600b602052600090815260409020546001600160a01b031681565b6104ff610a93366004615019565b612cdd565b6104ea610aa6366004614c59565b612d71565b6104ea610ab9366004614c84565b612e09565b61047e610acc36600461506d565b612e8d565b6104ff610adf366004615019565b6012602052600090815260409020546001600160a01b031681565b6107cb610b0836600461506d565b612ec0565b6104ff610b1b366004615019565b612f6d565b6104ea610b2e36600461513b565b612fa5565b61047e610b41366004615049565b61305a565b60606000610b5383611e2e565b90506000816001600160401b03811115610b7d57634e487b7160e01b600052604160045260246000fd5b604051908082528060200260200182016040528015610ba6578160200160208202803683370190505b50905060005b80831115610bfb57610bbe8582611775565b828281518110610bde57634e487b7160e01b600052603260045260246000fd5b602090810291909101015280610bf381615772565b915050610bac565b509150505b919050565b6000828152601260205260408082205490516238f73f60e31b8152600481018590526001600160a01b0384811660248301529091169081906301c7b9f8906044015b60206040518083038186803b158015610c5f57600080fd5b505afa158015610c73573d6000803e3d6000fd5b505050506040513d601f19601f82011682018060405250810190610c979190615031565b9150505b92915050565b60006001600160e01b0319821663780e9d6360e01b1480610c9b5750610c9b826130a1565b600080610cd9336000888a60008a6130f1565b9050610ce6818585613321565b9695505050505050565b606060008054610cff9061573d565b80601f0160208091040260200160405190810160405280929190818152602001828054610d2b9061573d565b8015610d785780601f10610d4d57610100808354040283529160200191610d78565b820191906000526020600020905b815481529060010190602001808311610d5b57829003601f168201915b5050505050905090565b60405163b4ed0b6d60e01b8152600481018290527f00000000000000000000000000000000000000000000000000000000000000006001600160a01b03169063b4ed0b6d9060240160206040518083038186803b158015610de257600080fd5b505afa158015610df6573d6000803e3d6000fd5b505050506040513d601f19601f82011682018060405250810190610e1a9190614a7f565b6000918252600b602052604090912080546001600160a01b0319166001600160a01b03909216919091179055565b6000818152600260205260408120546001600160a01b0316610ec65760405162461bcd60e51b815260206004820152602c60248201527f4552433732313a20617070726f76656420717565727920666f72206e6f6e657860448201526b34b9ba32b73a103a37b5b2b760a11b60648201526084015b60405180910390fd5b506000908152600460205260409020546001600160a01b031690565b600080610eee83611d96565b6000938452600a6020526040909320549293915050565b6000610f1082611d96565b9050806001600160a01b0316836001600160a01b03161415610f7e5760405162461bcd60e51b815260206004820152602160248201527f4552433732313a20617070726f76616c20746f2063757272656e74206f776e656044820152603960f91b6064820152608401610ebd565b336001600160a01b0382161480610f9a5750610f9a8133610a2e565b61100c5760405162461bcd60e51b815260206004820152603860248201527f4552433732313a20617070726f76652063616c6c6572206973206e6f74206f7760448201527f6e6572206e6f7220617070726f76656420666f7220616c6c00000000000000006064820152608401610ebd565b61101683836134b6565b505050565b61102533846116b1565b6110715760405162461bcd60e51b815260206004820152601a60248201527f6e6f7420617574686f72697a656420746f2077697468647261770000000000006044820152606401610ebd565b611016838383613524565b60606000826001600160401b038111156110a657634e487b7160e01b600052604160045260246000fd5b60405190808252806020026020018201604052801561110257816020015b6110ef6040518060800160405280600081526020016000815260200160008152602001600081525090565b8152602001906001900390816110c45790505b50905060005b808411156111865761114885858381811061113357634e487b7160e01b600052603260045260246000fd5b90506020020160208101906109eb9190614a63565b82828151811061116857634e487b7160e01b600052603260045260246000fd5b6020026020010181905250808061117e90615772565b915050611108565b509392505050565b60008060008060005b808711156112905760008888838181106111c157634e487b7160e01b600052603260045260246000fd5b60209081029290920135600081815260129093526040808420549051630a4d77f960e41b8152600481018390526001600160a01b038c8116602483015292955084935091169063a4d77f9090604401604080518083038186803b15801561122757600080fd5b505afa15801561123b573d6000803e3d6000fd5b505050506040513d601f19601f8201168201806040525081019061125f91906151df565b909250905061126e81836156db565b61127890866156af565b9450505050808061128890615772565b915050611197565b508161129c81836156c7565b935093505050935093915050565b606060006112b6613552565b6001600160a01b031663661d02ba6040518163ffffffff1660e01b815260040160006040518083038186803b1580156112ee57600080fd5b505afa158015611302573d6000803e3d6000fd5b505050506040513d6000823e601f3d908101601f1916820160405261132a9190810190614d2d565b9050600081516001600160401b0381111561135557634e487b7160e01b600052604160045260246000fd5b60405190808252806020026020018201604052801561138e57816020015b61137b61495e565b8152602001906001900390816113735790505b50905060005b80825111156115055760008282815181106113bf57634e487b7160e01b600052603260045260246000fd5b6020026020010151905060008483815181106113eb57634e487b7160e01b600052603260045260246000fd5b6020026020010151905060006114048260200151612b7a565b805184526020808201518186015260408083015160608088019190915285516001600160a01b039081166080808a0191909152938701511660a0808901919091529186015160c0808901919091529086015160e0808901919091529286015161010080890191909152918601516101208089019190915290860151610140880152918501516101608701528401516101808601528301519091506101a084019060028111156114c357634e487b7160e01b600052602160045260246000fd5b908160028111156114e457634e487b7160e01b600052602160045260246000fd5b905250506101400151604090910152806114fd81615772565b915050611394565b5091505090565b611516338261358a565b6115325760405162461bcd60e51b8152600401610ebd90615603565b61101683838361367d565b6001600160a01b038116600090815260136020526040812060010154801561157e5761271061156c85836156db565b61157691906156c7565b915050610c9b565b6000805260136020527f8fa6efc3be94b5b348b21fea823fe8d100408cee9b7f90524494500445d8ff6d546127109061156c9086906156db565b6001600160a01b038281166000908152601160209081526040808320858516845290915290205416156116ad576115ed613828565b60405163179ce80d60e21b81526001600160a01b03848116600483015283811660248301529190911690635e73a0349060440160206040518083038186803b15801561163857600080fd5b505afa15801561164c573d6000803e3d6000fd5b505050506040513d601f19601f820116820180604052508101906116709190614a7f565b6001600160a01b0383811660009081526011602090815260408083208685168452909152902080546001600160a01b031916929091169190911790555b5050565b6000806116bd83611d96565b90506116c9848461358a565b80610c9757506001600160a01b0381163b15158015610c9757506000838152600a6020526040908190205490516302972b0f60e41b81526001600160a01b038681166004830152602482019290925290821690632972b0f09060440160206040518083038186803b15801561173d57600080fd5b505afa158015611751573d6000803e3d6000fd5b505050506040513d601f19601f82011682018060405250810190610c979190614f92565b600061178083611e2e565b82106117e25760405162461bcd60e51b815260206004820152602b60248201527f455243373231456e756d657261626c653a206f776e657220696e646578206f7560448201526a74206f6620626f756e647360a81b6064820152608401610ebd565b506001600160a01b03919091166000908152600660209081526040808320938352929052205490565b60008060005b8085111561186e57600086868381811061183b57634e487b7160e01b600052603260045260246000fd5b90506020020135905061184e818661305a565b61185890846156af565b925050808061186690615772565b915050611811565b50949350505050565b611016838383604051806020016040528060008152506128f9565b6040516393552a3d60e01b8152600481018390526001600160a01b0382811660248301527f000000000000000000000000000000000000000000000000000000000000000016906393552a3d9060440160206040518083038186803b1580156118fa57600080fd5b505afa15801561190e573d6000803e3d6000fd5b505050506040513d601f19601f820116820180604052508101906119329190614f92565b6001600160a01b03919091166000908152600c6020908152604080832094835293905291909120805460ff1916911515919091179055565b6119b06119a86067600052600b6020527f8f2182650175f8d375204d5c926742cf9f5cdd5425f53e35baeae5413dfa3660546001600160a01b031690565b601554613860565b6000601555565b6060600e805480602002602001604051908101604052809291908181526020018280548015610d7857602002820191906000526020600020905b8154815260200190600101908083116119f1575050505050905090565b6000611a1960085490565b8210611a7c5760405162461bcd60e51b815260206004820152602c60248201527f455243373231456e756d657261626c653a20676c6f62616c20696e646578206f60448201526b7574206f6620626f756e647360a01b6064820152608401610ebd565b60088281548110611a9d57634e487b7160e01b600052603260045260246000fd5b90600052602060002001549050919050565b60008060005b8085111561186e576000868683818110611adf57634e487b7160e01b600052603260045260246000fd5b905060200201359050611af28186610c05565b611afc90846156af565b9250508080611b0a90615772565b915050611ab5565b6000818152601260205260408120546001600160a01b031681611b33613552565b6040516316a665e160e01b81526001600160a01b0384811660048301529192506000918316906316a665e19060240160206040518083038186803b158015611b7a57600080fd5b505afa158015611b8e573d6000803e3d6000fd5b505050506040513d601f19601f82011682018060405250810190611bb29190614a7f565b9050806001600160a01b0316836001600160a01b031614611d4657611d46858383866001600160a01b031663fabee7db8a6040518263ffffffff1660e01b8152600401611c0191815260200190565b60206040518083038186803b158015611c1957600080fd5b505afa158015611c2d573d6000803e3d6000fd5b505050506040513d601f19601f82011682018060405250810190611c519190614a7f565b604051631dc3a75960e01b8152600481018b90526001600160a01b03891690631dc3a7599060240160206040518083038186803b158015611c9157600080fd5b505afa158015611ca5573d6000803e3d6000fd5b505050506040513d601f19601f82011682018060405250810190611cc99190615031565b60405163c5c72dc360e01b8152600481018c90526001600160a01b038a169063c5c72dc39060240160206040518083038186803b158015611d0957600080fd5b505afa158015611d1d573d6000803e3d6000fd5b505050506040513d601f19601f82011682018060405250810190611d419190615031565b6138d1565b949350505050565b611d5833856116b1565b611d745760405162461bcd60e51b8152600401610ebd906155ce565b8215611d8557611d8533858561397c565b611d90848383613321565b50505050565b6000818152600260205260408120546001600160a01b031680610c9b5760405162461bcd60e51b815260206004820152602960248201527f4552433732313a206f776e657220717565727920666f72206e6f6e657869737460448201526832b73a103a37b5b2b760b91b6064820152608401610ebd565b60108181548110611e1d57600080fd5b600091825260209091200154905081565b60006001600160a01b038216611e995760405162461bcd60e51b815260206004820152602a60248201527f4552433732313a2062616c616e636520717565727920666f7220746865207a65604482015269726f206164647265737360b01b6064820152608401610ebd565b506001600160a01b031660009081526003602052604090205490565b6000818152601260205260408082205490516301c9a34760e61b8152600481018490526001600160a01b03909116908190637268d1c09060240160206040518083038186803b158015611f0757600080fd5b505afa158015611f1b573d6000803e3d6000fd5b505050506040513d601f19601f82011682018060405250810190611f3f9190615031565b9392505050565b6000806000805b80881115611fdd576000898983818110611f7757634e487b7160e01b600052603260045260246000fd5b9050602002013590506000806000611f91848c8c8c6120a3565b91945092509050611fa283896156af565b9750611fae82886156af565b9650611fba82826156db565b611fc490876156af565b9550505050508080611fd590615772565b915050611f4d565b50611fe882826156c7565b9050955095509592505050565b611fff33856116b1565b61201b5760405162461bcd60e51b8152600401610ebd906155ce565b6000848152601460205260409020546120359083906139f5565b9150612042338584613a0d565b611d90848483613524565b6060600f805480602002602001604051908101604052809291908181526020018280548015610d7857602002820191906000526020600020908154815260200190600101908083116119f1575050505050905090565b60008060006120b233886116b1565b806120d85750336000908152600c602090815260408083206001845290915290205460ff165b6120f45760405162461bcd60e51b8152600401610ebd906155ce565b61210087878787613a45565b9250925092509450945094915050565b6060600061211d83610b46565b9050600081516001600160401b0381111561214857634e487b7160e01b600052604160045260246000fd5b6040519080825280602002602001820160405280156121d357816020015b6121c06040518061010001604052806000815260200160006001600160a01b03168152602001600081526020016000815260200160006001600160a01b031681526020016000815260200160008152602001600081525090565b8152602001906001900390816121665790505b50905060005b8083511115610bfb57600083828151811061220457634e487b7160e01b600052603260045260246000fd5b6020908102919091018101516000818152601290925260408220549092506001600160a01b03169080806122428561223a613afb565b610b08613afb565b925092509250604051806101000160405280868152602001856001600160a01b03168152602001856001600160a01b031663c5c72dc3886040518263ffffffff1660e01b815260040161229791815260200190565b60206040518083038186803b1580156122af57600080fd5b505afa1580156122c3573d6000803e3d6000fd5b505050506040513d601f19601f820116820180604052508101906122e79190615031565b81526000878152601460209081526040918290205490830152805163fabee7db60e01b8152600481018990529101906001600160a01b0387169063fabee7db9060240160206040518083038186803b15801561234257600080fd5b505afa158015612356573d6000803e3d6000fd5b505050506040513d601f19601f8201168201806040525081019061237a9190614a7f565b6001600160a01b03168152602001848152602001838152602001828152508787815181106123b857634e487b7160e01b600052603260045260246000fd5b6020026020010181905250505050505080806123d390615772565b9150506121d9565b6000610ce63387878787876130f1565b606060018054610cff9061573d565b60008060005b8086111561248457600087878381811061242a57634e487b7160e01b600052603260045260246000fd5b90506020020135905061243d33826116b1565b6124595760405162461bcd60e51b8152600401610ebd906155ce565b612464818787613b33565b61246e90846156af565b925050808061247c90615772565b915050612400565b5095945050505050565b33612497613bd6565b6001600160a01b031614806124bb5750336124b0613c6e565b6001600160a01b0316145b806124d55750336124ca613cdf565b6001600160a01b0316145b6125475760405162461bcd60e51b815260206004820152603860248201527f43616c6c6572206973206e6f7420746865206f776e65722c206578656375746f60448201527f72206f7220617574686f72697a65642064697361626c657200000000000000006064820152608401610ebd565b6001600160a01b03909116600090815260136020526040902055565b6001600160a01b0382163314156125bc5760405162461bcd60e51b815260206004820152601960248201527f4552433732313a20617070726f766520746f2063616c6c6572000000000000006044820152606401610ebd565b3360008181526005602090815260408083206001600160a01b0387168085529252909120805460ff1916841515179055906001600160a01b03167f17307eab39ab6107e8899845ad3d59bd9653f200f220920489ca2b5937696c3183604051612629911515815260200190565b60405180910390a35050565b600d8181548110611e1d57600080fd5b600f8181548110611e1d57600080fd5b600080600061266433886116b1565b6126ba5760405162461bcd60e51b815260206004820152602160248201527f6e6f7420617574686f72697a656420746f206d696772617465207472616e63686044820152606560f81b6064820152608401610ebd565b6126c2613552565b60405163b4d6975760e01b81526001600160a01b038881166004830152919091169063b4d697579060240160206040518083038186803b15801561270557600080fd5b505afa158015612719573d6000803e3d6000fd5b505050506040513d601f19601f8201168201806040525081019061273d9190614f92565b6127815760405162461bcd60e51b815260206004820152601560248201527414dd1c985d1959de481b9bdd08185c1c1c9bdd9959605a1b6044820152606401610ebd565b600061278c88611b12565b60405163591eb36160e11b8152600481018a90526001600160a01b038981166024830152888116604483015287811660648301529192509082169063b23d66c290608401606060405180830381600087803b1580156127ea57600080fd5b505af11580156127fe573d6000803e3d6000fd5b505050506040513d601f19601f820116820180604052508101906128229190614cb8565b919550935091506128378882898787876138d1565b509450945094915050565b60008181526014602052604081205461271081101561286c5761286483613d43565b915050610c00565b6000612876613afb565b90506000806000612888878586612ec0565b925092509250600085831180156128a65750856706f05b59d3b20000115b80156128b25750600082115b806128d357506000888152601460205260409020546128d390858585613e04565b90508080156128e657506128e688613d43565b9650505050505050610c00565b50919050565b612903338361358a565b61291f5760405162461bcd60e51b8152600401610ebd90615603565b611d9084848484613e32565b600e8181548110611e1d57600080fd5b6000818152600260205260409020546060906001600160a01b03166129ba5760405162461bcd60e51b815260206004820152602f60248201527f4552433732314d657461646174613a2055524920717565727920666f72206e6f60448201526e3732bc34b9ba32b73a103a37b5b2b760891b6064820152608401610ebd565b60006129d160408051602081019091526000815290565b905060008151116129f15760405180602001604052806000815250611f3f565b806129fb84613e6a565b604051602001612a0c9291906152df565b604051602081830303815290604052915050919050565b600080600080612a34878787612ec0565b6000998a5260146020526040909920549199909897509095509350505050565b6060600d805480602002602001604051908101604052809291908181526020018280548015610d7857602002820191906000526020600020908154815260200190600101908083116119f1575050505050905090565b33612ab3613bd6565b6001600160a01b03161480612ad7575033612acc613c6e565b6001600160a01b0316145b80612ae65750612ae633613f84565b612b585760405162461bcd60e51b815260206004820152603960248201527f43616c6c6572206973206e6f7420746865206f776e65722c206578656375746f60448201527f72206f7220617574686f72697a656420616374697661746f72000000000000006064820152608401610ebd565b6001600160a01b03909216600090815260136020526040902090815560010155565b612ba56040518060800160405280600081526020016000815260200160008152602001600081525090565b6001600160a01b038216600090815260136020526040812090612bd08482612bcb613afb565b61402a565b60408051608081018252855481526002860154602082015260019095015490850152606084015250909392505050565b6116ad33838361397c565b612c1361417d565b6001600160a01b031663e670309c6040518163ffffffff1660e01b81526004016040805180830381600087803b158015612c4c57600080fd5b505af1158015612c60573d6000803e3d6000fd5b505050506040513d601f19601f82011682018060405250810190612c849190614fe6565b50565b60606010805480602002602001604051908101604052809291908181526020018280548015610d7857602002820191906000526020600020908154815260200190600101908083116119f1575050505050905090565b6000612ce7613552565b600083815260126020526040908190205490516316a665e160e01b81526001600160a01b0391821660048201529116906316a665e1906024015b60206040518083038186803b158015612d3957600080fd5b505afa158015612d4d573d6000803e3d6000fd5b505050506040513d601f19601f82011682018060405250810190610c9b9190614a7f565b33612d7a613bd6565b6001600160a01b03161480612d9e575033612d93613c6e565b6001600160a01b0316145b612dea5760405162461bcd60e51b815260206004820152601e60248201527f526f6c65733a2063616c6c6572206973206e6f7420746865206f776e657200006044820152606401610ebd565b6001600160a01b03909116600090815260136020526040902060010155565b336000908152600c602090815260408083206001845290915290205460ff16612e825760405162461bcd60e51b815260206004820152602560248201527f4e6f7420617574686f72697a656420746f207472616e7366657220757365722060448201526466756e647360d81b6064820152608401610ebd565b61101683838361397c565b6000612e9933856116b1565b612eb55760405162461bcd60e51b8152600401610ebd906155ce565b611d46848484613b33565b600083815260126020526040808220549051637d4c525d60e11b8152600481018690526001600160a01b038581166024830152848116604483015283928392911690819063fa98a4ba9060640160606040518083038186803b158015612f2557600080fd5b505afa158015612f39573d6000803e3d6000fd5b505050506040513d601f19601f82011682018060405250810190612f5d919061522f565b9350935093505093509350939050565b6000612f7882612cdd565b6001600160a01b031663fabee7db836040518263ffffffff1660e01b8152600401612d2191815260200190565b336000908152600c602090815260408083206005845290915290205460ff166130105760405162461bcd60e51b815260206004820152601b60248201527f4e6f7420617574686f72697a656420746f206c697175696461746500000000006044820152606401610ebd565b611d9061301c85611d96565b848685858080601f016020809104026020016040519081016040528093929190818152602001838380828437600092019190915250613e3292505050565b60008281526012602052604080822054905163fd80d0c360e01b8152600481018590526001600160a01b03848116602483015290911690819063fd80d0c390604401610c47565b60006001600160e01b031982166380ac58cd60e01b14806130d257506001600160e01b03198216635b5e139f60e01b145b80610c9b57506301ffc9a760e01b6001600160e01b0319831614610c9b565b60006130fb613552565b60405163b4d6975760e01b81526001600160a01b038781166004830152919091169063b4d697579060240160206040518083038186803b15801561313e57600080fd5b505afa158015613152573d6000803e3d6000fd5b505050506040513d601f19601f820116820180604052508101906131769190614f92565b6131ba5760405162461bcd60e51b815260206004820152601560248201527414dd1c985d1959de481b9bdd08185c1c1c9bdd9959605a1b6044820152606401610ebd565b6131c261417d565b6001600160a01b031663ff1883486040518163ffffffff1660e01b8152600401602060405180830381600087803b1580156131fc57600080fd5b505af1158015613210573d6000803e3d6000fd5b505050506040513d601f19601f820116820180604052508101906132349190615031565b600081815260126020908152604080832080546001600160a01b0319166001600160a01b038b16179055600a90915290208790559050613273846141b5565b61329f87828860405160200161328b91815260200190565b60405160208183030381529060405261421a565b60405163b832799360e01b81526001600160a01b038881166004830152602482018390528581166044830152606482018590526084820184905286169063b83279939060a401600060405180830381600087803b1580156132ff57600080fd5b505af1158015613313573d6000803e3d6000fd5b505050509695505050505050565b811561101657600061333284611b12565b60405163fabee7db60e01b8152600481018690529091506000906001600160a01b0383169063fabee7db9060240160206040518083038186803b15801561337857600080fd5b505afa15801561338c573d6000803e3d6000fd5b505050506040513d601f19601f820116820180604052508101906133b09190614a7f565b905060006133be858361153d565b90506133ca81866156af565b600087815260146020526040812080549091906133e89084906156af565b90915550506001600160a01b038216600090815260136020526040902061340f82876156af565b81600201600082825461342291906156af565b90915550506002810154815410156134745760405162461bcd60e51b815260206004820152601560248201527445786365656465642064656274206365696c696e6760581b6044820152606401610ebd565b816015600082825461348691906156af565b90915550600090506134978861424d565b90506134ac866134a7838a6156af565b613860565b5050505050505050565b600081815260046020526040902080546001600160a01b0319166001600160a01b03841690811790915581906134eb82611d96565b6001600160a01b03167f8c5be1e5ebec7d5bd14f71427d1e84f3dd0314c0f7b2291e5b200ac8c7c3b92560405160405180910390a45050565b81156110165760006135358461424d565b90508015613547576135478282613860565b611d90848484614346565b6068600052600b6020527f5218b498ba0afb1d30e8ac0c5923fc8f9c711c59e5156e971fd6a28c8c36dcca546001600160a01b031690565b6000818152600260205260408120546001600160a01b03166136035760405162461bcd60e51b815260206004820152602c60248201527f4552433732313a206f70657261746f7220717565727920666f72206e6f6e657860448201526b34b9ba32b73a103a37b5b2b760a11b6064820152608401610ebd565b600061360e83611d96565b9050806001600160a01b0316846001600160a01b031614806136495750836001600160a01b031661363e84610e48565b6001600160a01b0316145b80610c9757506001600160a01b0380821660009081526005602090815260408083209388168352929052205460ff16610c97565b826001600160a01b031661369082611d96565b6001600160a01b0316146136f85760405162461bcd60e51b815260206004820152602960248201527f4552433732313a207472616e73666572206f6620746f6b656e2074686174206960448201526839903737ba1037bbb760b91b6064820152608401610ebd565b6001600160a01b03821661375a5760405162461bcd60e51b8152602060048201526024808201527f4552433732313a207472616e7366657220746f20746865207a65726f206164646044820152637265737360e01b6064820152608401610ebd565b61376583838361441d565b6137706000826134b6565b6001600160a01b03831660009081526003602052604081208054600192906137999084906156fa565b90915550506001600160a01b03821660009081526003602052604081208054600192906137c79084906156af565b909155505060008181526002602052604080822080546001600160a01b0319166001600160a01b0386811691821790925591518493918716917fddf252ad1be2c89b69c2b068fc378daa952ba7f163c4a11628f55a4df523b3ef91a4505050565b606a600052600b6020527f883a43708262222a5f4103b2729e693d0d260c9091529ffea5b2c6052e27079d546001600160a01b031690565b613868613afb565b6040516340c10f1960e01b81526001600160a01b0384811660048301526024820184905291909116906340c10f19906044015b600060405180830381600087803b1580156138b557600080fd5b505af11580156138c9573d6000803e3d6000fd5b505050505050565b60405163459ba12760e01b8152600481018790526001600160a01b0386811660248301528481166044830152606482018490526084820183905285169063459ba1279060a401600060405180830381600087803b15801561393157600080fd5b505af1158015613945573d6000803e3d6000fd5b5050506000968752505060126020525050604090922080546001600160a01b0319166001600160a01b039093169290921790915550565b61398582611b12565b60405163f12ba38160e01b81526001600160a01b0385811660048301526024820185905260448201849052919091169063f12ba38190606401600060405180830381600087803b1580156139d857600080fd5b505af11580156139ec573d6000803e3d6000fd5b50505050505050565b600081831115613a06575080610c9b565b5081610c9b565b801561101657613a1d83826144da565b60008281526014602052604081208054839290613a3b9084906156fa565b9091555050505050565b600080600080613a5488611b12565b604051638496e89160e01b8152600481018a90526001600160a01b0389811660248301528881166044830152878116606483015291925090821690638496e89190608401606060405180830381600087803b158015613ab257600080fd5b505af1158015613ac6573d6000803e3d6000fd5b505050506040513d601f19601f82011682018060405250810190613aea919061522f565b935093509350509450945094915050565b6066600052600b6020527f9b93b1f278920c61d89dbcb374ecb76190cc66519824442e7c3630b16c7fd3fd546001600160a01b031690565b600080613b3f85611b12565b60405163f8903fb760e01b8152600481018790526001600160a01b03868116602483015285811660448301529192509082169063f8903fb790606401602060405180830381600087803b158015613b9557600080fd5b505af1158015613ba9573d6000803e3d6000fd5b505050506040513d601f19601f82011682018060405250810190613bcd9190615031565b95945050505050565b60007f00000000000000000000000000000000000000000000000000000000000000006001600160a01b0316638da5cb5b6040518163ffffffff1660e01b815260040160206040518083038186803b158015613c3157600080fd5b505afa158015613c45573d6000803e3d6000fd5b505050506040513d601f19601f82011682018060405250810190613c699190614a7f565b905090565b60007f00000000000000000000000000000000000000000000000000000000000000006001600160a01b031663c34c08e56040518163ffffffff1660e01b8152600401602060405180830381600087803b158015613ccb57600080fd5b505af1158015613c45573d6000803e3d6000fd5b60405163b4ed0b6d60e01b81526103e960048201526000907f00000000000000000000000000000000000000000000000000000000000000006001600160a01b03169063b4ed0b6d9060240160206040518083038186803b158015613c3157600080fd5b600080613d4f83611d96565b90506001600160a01b0381163b15613dfa576000838152600a602052604090819020549051632c97897d60e21b815282916001600160a01b0383169163b25e25f491613da19160040190815260200190565b60206040518083038186803b158015613db957600080fd5b505afa158015613dcd573d6000803e3d6000fd5b505050506040513d601f19601f82011682018060405250810190613df19190614f92565b92505050610c00565b6001915050610c00565b6000613e12856127106156db565b82613e1d86866156af565b613e2791906156db565b101595945050505050565b613e3e84848484614519565b80806020019051810190613e529190615031565b6000928352600a602052604090922091909155505050565b606081613e8f57506040805180820190915260018152600360fc1b6020820152610c00565b8160005b8115613eb95780613ea381615772565b9150613eb29050600a836156c7565b9150613e93565b6000816001600160401b03811115613ee157634e487b7160e01b600052604160045260246000fd5b6040519080825280601f01601f191660200182016040528015613f0b576020820181803683370190505b5090505b8415611d4657613f206001836156fa565b9150613f2d600a8661578d565b613f389060306156af565b60f81b818381518110613f5b57634e487b7160e01b600052603260045260246000fd5b60200101906001600160f81b031916908160001a905350613f7d600a866156c7565b9450613f0f565b6040516393552a3d60e01b81526103eb60048201526001600160a01b0382811660248301526000917f0000000000000000000000000000000000000000000000000000000000000000909116906393552a3d9060440160206040518083038186803b158015613ff257600080fd5b505afa158015614006573d6000803e3d6000fd5b505050506040513d601f19601f82011682018060405250810190610c9b9190614f92565b6001600160a01b03808416600090815260116020908152604080832085851684529091528120549091829116806140e957614063613828565b60405163179ce80d60e21b81526001600160a01b03888116600483015286811660248301529190911690635e73a0349060440160206040518083038186803b1580156140ae57600080fd5b505afa1580156140c2573d6000803e3d6000fd5b505050506040513d601f19601f820116820180604052508101906140e69190614a7f565b90505b6040516313f3552960e21b81526001600160a01b038781166004830152602482018790528581166044830152821690634fcd54a490606401604080518083038186803b15801561413857600080fd5b505afa15801561414c573d6000803e3d6000fd5b505050506040513d601f19601f8201168201806040525081019061417091906151df565b9097909650945050505050565b6069600052600b6020527fbfc0b0c2052ca8c7e1e4620fa592015c0fc6d26105a3da5a2e30d9693b428343546001600160a01b031690565b6001600160a01b038116600090815260136020526040902054612c845760405162461bcd60e51b815260206004820152601860248201527f546f6b656e206973206e6f742077686974656c697374656400000000000000006044820152606401610ebd565b614224838361454c565b614231600084848461469a565b6110165760405162461bcd60e51b8152600401610ebd9061557c565b60008181526014602052604081205481614265613afb565b9050600080600061427887858630613a45565b92509250925061428a85848484613e04565b6142eb5760405162461bcd60e51b815260206004820152602c60248201527f426f726f7720627265616b73206d696e20636f6c6c61746572616c697a61746960448201526b1bdb881d1a1c995cda1bdb1960a21b6064820152608401610ebd565b848311156143135760008781526014602052604081205561430c85846156fa565b9550614332565b61431d83866156fa565b60008881526014602052604081209190915595505b61433c30846144da565b5050505050919050565b600061435184611b12565b604051630ad58d2f60e01b815260048101869052602481018590526001600160a01b03848116604483015291925090821690630ad58d2f90606401600060405180830381600087803b1580156143a657600080fd5b505af11580156143ba573d6000803e3d6000fd5b505050506143c784612842565b611d905760405162461bcd60e51b815260206004820152602160248201527f5472616e636865206e6f7420766961626c6520616674657220776974686472616044820152607760f81b6064820152608401610ebd565b6001600160a01b0383166144785761447381600880546000838152600960205260408120829055600182018355919091527ff3f7a9fe364faab93b216da50a3214154f22a0a2b415b23a84c8169e8b636ee30155565b61449b565b816001600160a01b0316836001600160a01b03161461449b5761449b83826147a4565b6001600160a01b0382166144b7576144b281614841565b611016565b826001600160a01b0316826001600160a01b03161461101657611016828261491a565b6144e2613afb565b604051632770a7eb60e21b81526001600160a01b038481166004830152602482018490529190911690639dc29fac9060440161389b565b61452484848461367d565b6145308484848461469a565b611d905760405162461bcd60e51b8152600401610ebd9061557c565b6001600160a01b0382166145a25760405162461bcd60e51b815260206004820181905260248201527f4552433732313a206d696e7420746f20746865207a65726f20616464726573736044820152606401610ebd565b6000818152600260205260409020546001600160a01b0316156146075760405162461bcd60e51b815260206004820152601c60248201527f4552433732313a20746f6b656e20616c7265616479206d696e746564000000006044820152606401610ebd565b6146136000838361441d565b6001600160a01b038216600090815260036020526040812080546001929061463c9084906156af565b909155505060008181526002602052604080822080546001600160a01b0319166001600160a01b03861690811790915590518392907fddf252ad1be2c89b69c2b068fc378daa952ba7f163c4a11628f55a4df523b3ef908290a45050565b60006001600160a01b0384163b1561479c57604051630a85bd0160e11b81526001600160a01b0385169063150b7a02906146de90339089908890889060040161530e565b602060405180830381600087803b1580156146f857600080fd5b505af1925050508015614728575060408051601f3d908101601f1916820190925261472591810190614fca565b60015b614782573d808015614756576040519150601f19603f3d011682016040523d82523d6000602084013e61475b565b606091505b50805161477a5760405162461bcd60e51b8152600401610ebd9061557c565b805181602001fd5b6001600160e01b031916630a85bd0160e11b149050611d46565b506001611d46565b600060016147b184611e2e565b6147bb91906156fa565b60008381526007602052604090205490915080821461480e576001600160a01b03841660009081526006602090815260408083208584528252808320548484528184208190558352600790915290208190555b5060009182526007602090815260408084208490556001600160a01b039094168352600681528383209183525290812055565b600854600090614853906001906156fa565b6000838152600960205260408120546008805493945090928490811061488957634e487b7160e01b600052603260045260246000fd5b9060005260206000200154905080600883815481106148b857634e487b7160e01b600052603260045260246000fd5b60009182526020808320909101929092558281526009909152604080822084905585825281205560088054806148fe57634e487b7160e01b600052603160045260246000fd5b6001900381819060005260206000200160009055905550505050565b600061492583611e2e565b6001600160a01b039093166000908152600660209081526040808320868452825280832085905593825260079052919091209190915550565b604051806101c001604052806000815260200160008152602001600081526020016000815260200160006001600160a01b0316815260200160006001600160a01b0316815260200160008152602001600081526020016000815260200160008152602001600080191681526020016000815260200160008152602001600060028111156149fb57634e487b7160e01b600052602160045260246000fd5b905290565b8051610c00816157e3565b60008083601f840112614a1c578182fd5b5081356001600160401b03811115614a32578182fd5b6020830191508360208260051b8501011115614a4d57600080fd5b9250929050565b805160038110610c0057600080fd5b600060208284031215614a74578081fd5b8135611f3f816157e3565b600060208284031215614a90578081fd5b8151611f3f816157e3565b60008060408385031215614aad578081fd5b8235614ab8816157e3565b91506020830135614ac8816157e3565b809150509250929050565b600080600060608486031215614ae7578081fd5b8335614af2816157e3565b92506020840135614b02816157e3565b929592945050506040919091013590565b60008060008060808587031215614b28578081fd5b8435614b33816157e3565b9350602085810135614b44816157e3565b93506040860135925060608601356001600160401b0380821115614b66578384fd5b818801915088601f830112614b79578384fd5b813581811115614b8b57614b8b6157cd565b614b9d601f8201601f1916850161567f565b91508082528984828501011115614bb2578485fd5b8084840185840137810190920192909252939692955090935050565b600080600080600060a08688031215614be5578283fd5b8535614bf0816157e3565b94506020860135614c00816157e3565b935060408601359250606086013591506080860135614c1e816157e3565b809150509295509295909350565b60008060408385031215614c3e578182fd5b8235614c49816157e3565b91506020830135614ac8816157f8565b60008060408385031215614c6b578182fd5b8235614c76816157e3565b946020939093013593505050565b600080600060608486031215614c98578081fd5b8335614ca3816157e3565b95602085013595506040909401359392505050565b600080600060608486031215614ccc578081fd5b8351614cd7816157e3565b602085015160409095015190969495509392505050565b60008060208385031215614d00578182fd5b82356001600160401b03811115614d15578283fd5b614d2185828601614a0b565b90969095509350505050565b60006020808385031215614d3f578182fd5b82516001600160401b0380821115614d55578384fd5b818501915085601f830112614d68578384fd5b815181811115614d7a57614d7a6157cd565b614d88848260051b0161567f565b8181528481019250838501610160808402860187018a1015614da8578788fd5b8795505b83861015614e5f5780828b031215614dc2578788fd5b614dcb8161567f565b614dd483614a00565b8152614de1888401614a00565b8189015260408381015190820152606080840151908201526080808401519082015260a0808401519082015260c0808401519082015260e080840151908201526101008084015190820152610120614e3a818501614a54565b9082015261014083810151908201528552600195909501949386019390810190614dac565b509098975050505050505050565b600080600060408486031215614e81578081fd5b83356001600160401b03811115614e96578182fd5b614ea286828701614a0b565b9094509250506020840135614eb6816157e3565b809150509250925092565b60008060008060608587031215614ed6578182fd5b84356001600160401b03811115614eeb578283fd5b614ef787828801614a0b565b9095509350506020850135614f0b816157e3565b91506040850135614f1b816157e3565b939692955090935050565b600080600080600060808688031215614f3d578283fd5b85356001600160401b03811115614f52578384fd5b614f5e88828901614a0b565b9096509450506020860135614f72816157e3565b92506040860135614f82816157e3565b91506060860135614c1e816157e3565b600060208284031215614fa3578081fd5b8151611f3f816157f8565b600060208284031215614fbf578081fd5b8135611f3f81615806565b600060208284031215614fdb578081fd5b8151611f3f81615806565b600060408284031215614ff7578081fd5b615001604061567f565b82518152602083015160208201528091505092915050565b60006020828403121561502a578081fd5b5035919050565b600060208284031215615042578081fd5b5051919050565b6000806040838503121561505b578182fd5b823591506020830135614ac8816157e3565b600080600060608486031215615081578081fd5b833592506020840135615093816157e3565b91506040840135614eb6816157e3565b600080600080608085870312156150b8578182fd5b8435935060208501356150ca816157e3565b925060408501356150da816157e3565b91506060850135614f1b816157e3565b600080600080600060a08688031215615101578283fd5b853594506020860135615113816157e3565b93506040860135615123816157e3565b94979396509394606081013594506080013592915050565b60008060008060608587031215615150578182fd5b843593506020850135615162816157e3565b925060408501356001600160401b038082111561517d578384fd5b818701915087601f830112615190578384fd5b81358181111561519e578485fd5b8860208285010111156151af578485fd5b95989497505060200194505050565b600080604083850312156151d0578182fd5b50508035926020909101359150565b600080604083850312156151f1578182fd5b505080516020909101519092909150565b600080600060608486031215615216578081fd5b83359250602084013591506040840135614eb6816157e3565b600080600060608486031215615243578081fd5b8351925060208401519150604084015190509250925092565b60008060008060808587031215615271578182fd5b8435935060208501359250604085013591506060850135614f1b816157e3565b600081518084526152a9816020860160208601615711565b601f01601f19169290920160200192915050565b600381106152db57634e487b7160e01b600052602160045260246000fd5b9052565b600083516152f1818460208801615711565b835190830190615305818360208801615711565b01949350505050565b6001600160a01b0385811682528416602082015260408101839052608060608201819052600090610ce690830184615291565b6020808252825182820181905260009190848201906040850190845b818110156153a457615391838551805182526020810151602083015260408101516040830152606081015160608301525050565b928401926080929092019160010161535d565b50909695505050505050565b602080825282518282018190526000919060409081850190868401855b828110156154965781518051855286810151878601528581015186860152606080820151908601526080808201516001600160a01b03811682880152505060a0818101516001600160a01b03811687830152505060c0818101519086015260e08082015190860152610100808201519086015261012080820151908601526101408082015190860152610160808201519086015261018080820151908601526101a09081015190615480818701836152bd565b50506101c09390930192908501906001016153cd565b5091979650505050505050565b602080825282518282018190526000919060409081850190868401855b8281101561549657815180518552868101516001600160a01b03908116888701528682015187870152606080830151908701526080808301519091169086015260a0808201519086015260c0808201519086015260e0908101519085015261010090930192908501906001016154c0565b6020808252825182820181905260009190848201906040850190845b818110156153a45783518352928401929184019160010161554d565b600060208252611f3f6020830184615291565b60208082526032908201527f4552433732313a207472616e7366657220746f206e6f6e20455243373231526560408201527131b2b4bb32b91034b6b83632b6b2b73a32b960711b606082015260800190565b6020808252818101527f6e6f7420617574686f72697a656420746f207769746864726177207969656c64604082015260600190565b60208082526031908201527f4552433732313a207472616e736665722063616c6c6572206973206e6f74206f6040820152701ddb995c881b9bdc88185c1c1c9bdd9959607a1b606082015260800190565b8151815260208083015190820152604080830151908201526060808301519082015260808101610c9b565b604051601f8201601f191681016001600160401b03811182821017156156a7576156a76157cd565b604052919050565b600082198211156156c2576156c26157a1565b500190565b6000826156d6576156d66157b7565b500490565b60008160001904831182151516156156f5576156f56157a1565b500290565b60008282101561570c5761570c6157a1565b500390565b60005b8381101561572c578181015183820152602001615714565b83811115611d905750506000910152565b600181811c9082168061575157607f821691505b602082108114156128f357634e487b7160e01b600052602260045260246000fd5b6000600019821415615786576157866157a1565b5060010190565b60008261579c5761579c6157b7565b500690565b634e487b7160e01b600052601160045260246000fd5b634e487b7160e01b600052601260045260246000fd5b634e487b7160e01b600052604160045260246000fd5b6001600160a01b0381168114612c8457600080fd5b8015158114612c8457600080fd5b6001600160e01b031981168114612c8457600080fdfea264697066735822122029a5e7acdba623ab0278e4feb1d9a214229ad673e83dfe54d74ef25f9f05d58064736f6c63430008030033bb7b4a454dc3493923482f07822329ed19e8244eff582cc204f8554c3620c3fdd7b6990105719101dabeb77144f2a3385c8033acd3af97e9423a695e81ad1eb5",
  "devdoc": {
    "kind": "dev",
    "methods": {
      "approve(address,uint256)": {
        "details": "See {IERC721-approve}."
      },
      "balanceOf(address)": {
        "details": "See {IERC721-balanceOf}."
      },
      "charactersPlayed()": {
        "details": "returns all characters played by this contract (e.g. stable coin, oracle registry)"
      },
      "dependsOnCharacters()": {
        "details": "returns all the character dependencies like FEE_RECIPIENT"
      },
      "dependsOnRoles()": {
        "details": "returns all the roles dependencies of this contract like FUND_TRANSFERER"
      },
      "getApproved(uint256)": {
        "details": "See {IERC721-getApproved}."
      },
      "isApprovedForAll(address,address)": {
        "details": "See {IERC721-isApprovedForAll}."
      },
      "name()": {
        "details": "See {IERC721Metadata-name}."
      },
      "ownerOf(uint256)": {
        "details": "See {IERC721-ownerOf}."
      },
      "rolesPlayed()": {
        "details": "returns all roles played by this contract"
      },
      "safeTransferFrom(address,address,uint256)": {
        "details": "See {IERC721-safeTransferFrom}."
      },
      "safeTransferFrom(address,address,uint256,bytes)": {
        "details": "See {IERC721-safeTransferFrom}."
      },
      "setApprovalForAll(address,bool)": {
        "details": "See {IERC721-setApprovalForAll}."
      },
      "supportsInterface(bytes4)": {
        "details": "See {IERC165-supportsInterface}."
      },
      "symbol()": {
        "details": "See {IERC721Metadata-symbol}."
      },
      "tokenByIndex(uint256)": {
        "details": "See {IERC721Enumerable-tokenByIndex}."
      },
      "tokenOfOwnerByIndex(address,uint256)": {
        "details": "See {IERC721Enumerable-tokenOfOwnerByIndex}."
      },
      "tokenURI(uint256)": {
        "details": "See {IERC721Metadata-tokenURI}."
      },
      "totalSupply()": {
        "details": "See {IERC721Enumerable-totalSupply}."
      },
      "transferFrom(address,address,uint256)": {
        "details": "See {IERC721-transferFrom}."
      },
      "updateMainCharacterCache(uint256)": {
        "details": "Updates the main character cache for a speciic character"
      },
      "updateRoleCache(uint256,address)": {
        "details": "Updates the role cache for a specific role and address"
      }
    },
    "version": 1
  },
  "userdoc": {
    "kind": "user",
    "methods": {
      "batchCollectYield(uint256[],address,address)": {
        "notice": "Collect yield in a batch"
      },
      "batchCollectYieldValueBorrowable(uint256[],address,address,address)": {
        "notice": "Collect yield and view value and borrowable jointly and in weighted avg."
      },
      "batchViewValue(uint256[],address)": {
        "notice": "View joint value in batch"
      },
      "batchViewValueBorrowable(uint256[],address)": {
        "notice": "View value, and borrowable (average weighted by value) for a batch, jointly"
      },
      "batchViewYield(uint256[],address)": {
        "notice": "View yield jointly in a batch"
      },
      "collectYield(uint256,address,address)": {
        "notice": "Disburse yield in tranche to recipient"
      },
      "collectYieldValueBorrowable(uint256,address,address,address)": {
        "notice": "Collect yield and view value and borrowable per 10k"
      },
      "configureAsset(address,uint256,uint256)": {
        "notice": "Set central parameters per an asset"
      },
      "containedIn(uint256)": {
        "notice": "Allows for tokens to have not just an owner address, but also container within the owner contract which they belong to"
      },
      "deposit(uint256,uint256)": {
        "notice": "Deposit more collateral to the tranche"
      },
      "depositAndBorrow(uint256,uint256,uint256,address)": {
        "notice": "Deposit collateral to an existing tranche and borrow"
      },
      "getCurrentHoldingStrategy(uint256)": {
        "notice": "Retrieve current strategy and update if necessary"
      },
      "isAuthorized(address,uint256)": {
        "notice": "Check that spender is approved, owner or approved for container"
      },
      "isViable(uint256)": {
        "notice": "Check CDP against target colRatio give a pass on very small positions"
      },
      "liquidateTo(uint256,address,bytes)": {
        "notice": "Endpoint for liquidators to liquidate accounts"
      },
      "migrateStrategy(uint256,address,address,address)": {
        "notice": "Migrate assets from one strategy to another, collecting yield if any"
      },
      "mintDepositAndBorrow(address,address,uint256,uint256,address)": {
        "notice": "Open a new CDP with collateral deposit to a strategy and borrowing"
      },
      "mintTranche(uint256,address,address,uint256,uint256)": {
        "notice": "Mint a new tranche"
      },
      "mintingFee(uint256,address)": {
        "notice": "Minting fee per stable amount"
      },
      "newCurrentOracle(address,address)": {
        "notice": "Notify contract to update oracle cache"
      },
      "registerDepositFor(address,uint256,uint256)": {
        "notice": "Endpoint for authorized fund transferer to deposit on behalf of user"
      },
      "repayAndWithdraw(uint256,uint256,uint256,address)": {
        "notice": "Repay loan and withdraw collateral"
      },
      "setAssetDebtCeiling(address,uint256)": {
        "notice": "Set the debt ceiling for an asset"
      },
      "setFeesPer10k(address,uint256)": {
        "notice": "Set minting fee per an asset"
      },
      "setupTrancheSlot()": {
        "notice": "Set up an ID slot for this tranche with the id service"
      },
      "viewAllILMetadata(address[])": {
        "notice": "View all lending metadata for all assets"
      },
      "viewAllStrategyMetadata()": {
        "notice": "View an amalgamation of all lending and all strategy metadata"
      },
      "viewBorrowable(uint256)": {
        "notice": "View borrowable per 10k of tranche"
      },
      "viewCurrentHoldingStrategy(uint256)": {
        "notice": "View which strategy should be holding assets for a tranche, taking into account global migrations"
      },
      "viewILMetadata(address)": {
        "notice": "View lending metadata for an asset as a whole"
      },
      "viewPositionsByOwner(address)": {
        "notice": "View the metadata for all the positions held by an address"
      },
      "viewTranchesByOwner(address)": {
        "notice": "View all the tranches of an owner"
      },
      "viewValue(uint256,address)": {
        "notice": "View value of tranche, as expressed in currency, using oracle"
      },
      "viewYield(uint256,address)": {
        "notice": "View accrued yield in a tranche"
      },
      "viewYieldValueBorrowable(uint256,address,address)": {
        "notice": "View yield value and borrowable together"
      },
      "viewYieldValueBorrowableDebt(uint256,address,address)": {
        "notice": "View a range of parameters for a specific tranche"
      },
      "withdraw(uint256,uint256,address)": {
        "notice": "Withdraw tokens from tranche, checing viability"
      },
      "withdrawFees()": {
        "notice": "Disburse minting fee to feeRecipient"
      }
    },
    "notice": "Centerpiece of CDP: lending minted stablecoin against collateral Collateralized debt positions are expressed as ERC721 tokens (via Tranche)",
    "version": 1
  },
  "storageLayout": {
    "storage": [
      {
        "astId": 1088,
        "contract": "contracts/IsolatedLending.sol:IsolatedLending",
        "label": "_name",
        "offset": 0,
        "slot": "0",
        "type": "t_string_storage"
      },
      {
        "astId": 1090,
        "contract": "contracts/IsolatedLending.sol:IsolatedLending",
        "label": "_symbol",
        "offset": 0,
        "slot": "1",
        "type": "t_string_storage"
      },
      {
        "astId": 1094,
        "contract": "contracts/IsolatedLending.sol:IsolatedLending",
        "label": "_owners",
        "offset": 0,
        "slot": "2",
        "type": "t_mapping(t_uint256,t_address)"
      },
      {
        "astId": 1098,
        "contract": "contracts/IsolatedLending.sol:IsolatedLending",
        "label": "_balances",
        "offset": 0,
        "slot": "3",
        "type": "t_mapping(t_address,t_uint256)"
      },
      {
        "astId": 1102,
        "contract": "contracts/IsolatedLending.sol:IsolatedLending",
        "label": "_tokenApprovals",
        "offset": 0,
        "slot": "4",
        "type": "t_mapping(t_uint256,t_address)"
      },
      {
        "astId": 1108,
        "contract": "contracts/IsolatedLending.sol:IsolatedLending",
        "label": "_operatorApprovals",
        "offset": 0,
        "slot": "5",
        "type": "t_mapping(t_address,t_mapping(t_address,t_bool))"
      },
      {
        "astId": 2027,
        "contract": "contracts/IsolatedLending.sol:IsolatedLending",
        "label": "_ownedTokens",
        "offset": 0,
        "slot": "6",
        "type": "t_mapping(t_address,t_mapping(t_uint256,t_uint256))"
      },
      {
        "astId": 2031,
        "contract": "contracts/IsolatedLending.sol:IsolatedLending",
        "label": "_ownedTokensIndex",
        "offset": 0,
        "slot": "7",
        "type": "t_mapping(t_uint256,t_uint256)"
      },
      {
        "astId": 2034,
        "contract": "contracts/IsolatedLending.sol:IsolatedLending",
        "label": "_allTokens",
        "offset": 0,
        "slot": "8",
        "type": "t_array(t_uint256)dyn_storage"
      },
      {
        "astId": 2038,
        "contract": "contracts/IsolatedLending.sol:IsolatedLending",
        "label": "_allTokensIndex",
        "offset": 0,
        "slot": "9",
        "type": "t_mapping(t_uint256,t_uint256)"
      },
      {
        "astId": 6459,
        "contract": "contracts/IsolatedLending.sol:IsolatedLending",
        "label": "_containedIn",
        "offset": 0,
        "slot": "10",
        "type": "t_mapping(t_uint256,t_uint256)"
      },
      {
        "astId": 14088,
        "contract": "contracts/IsolatedLending.sol:IsolatedLending",
        "label": "mainCharacterCache",
        "offset": 0,
        "slot": "11",
        "type": "t_mapping(t_uint256,t_address)"
      },
      {
        "astId": 14094,
        "contract": "contracts/IsolatedLending.sol:IsolatedLending",
        "label": "roleCache",
        "offset": 0,
        "slot": "12",
        "type": "t_mapping(t_address,t_mapping(t_uint256,t_bool))"
      },
      {
        "astId": 14097,
        "contract": "contracts/IsolatedLending.sol:IsolatedLending",
        "label": "_dependsOnCharacters",
        "offset": 0,
        "slot": "13",
        "type": "t_array(t_uint256)dyn_storage"
      },
      {
        "astId": 14100,
        "contract": "contracts/IsolatedLending.sol:IsolatedLending",
        "label": "_dependsOnRoles",
        "offset": 0,
        "slot": "14",
        "type": "t_array(t_uint256)dyn_storage"
      },
      {
        "astId": 14103,
        "contract": "contracts/IsolatedLending.sol:IsolatedLending",
        "label": "_charactersPlayed",
        "offset": 0,
        "slot": "15",
        "type": "t_array(t_uint256)dyn_storage"
      },
      {
        "astId": 14106,
        "contract": "contracts/IsolatedLending.sol:IsolatedLending",
        "label": "_rolesPlayed",
        "offset": 0,
        "slot": "16",
        "type": "t_array(t_uint256)dyn_storage"
      },
      {
        "astId": 12186,
        "contract": "contracts/IsolatedLending.sol:IsolatedLending",
        "label": "_oracleCache",
        "offset": 0,
        "slot": "17",
        "type": "t_mapping(t_address,t_mapping(t_address,t_address))"
      },
      {
        "astId": 8599,
        "contract": "contracts/IsolatedLending.sol:IsolatedLending",
        "label": "_holdingStrategies",
        "offset": 0,
        "slot": "18",
        "type": "t_mapping(t_uint256,t_address)"
      },
      {
        "astId": 4826,
        "contract": "contracts/IsolatedLending.sol:IsolatedLending",
        "label": "assetConfigs",
        "offset": 0,
        "slot": "19",
        "type": "t_mapping(t_address,t_struct(AssetConfig)4821_storage)"
      },
      {
        "astId": 4830,
        "contract": "contracts/IsolatedLending.sol:IsolatedLending",
        "label": "trancheDebt",
        "offset": 0,
        "slot": "20",
        "type": "t_mapping(t_uint256,t_uint256)"
      },
      {
        "astId": 4832,
        "contract": "contracts/IsolatedLending.sol:IsolatedLending",
        "label": "pendingFees",
        "offset": 0,
        "slot": "21",
        "type": "t_uint256"
      }
    ],
    "types": {
      "t_address": {
        "encoding": "inplace",
        "label": "address",
        "numberOfBytes": "20"
      },
      "t_array(t_uint256)dyn_storage": {
        "base": "t_uint256",
        "encoding": "dynamic_array",
        "label": "uint256[]",
        "numberOfBytes": "32"
      },
      "t_bool": {
        "encoding": "inplace",
        "label": "bool",
        "numberOfBytes": "1"
      },
      "t_mapping(t_address,t_address)": {
        "encoding": "mapping",
        "key": "t_address",
        "label": "mapping(address => address)",
        "numberOfBytes": "32",
        "value": "t_address"
      },
      "t_mapping(t_address,t_bool)": {
        "encoding": "mapping",
        "key": "t_address",
        "label": "mapping(address => bool)",
        "numberOfBytes": "32",
        "value": "t_bool"
      },
      "t_mapping(t_address,t_mapping(t_address,t_address))": {
        "encoding": "mapping",
        "key": "t_address",
        "label": "mapping(address => mapping(address => address))",
        "numberOfBytes": "32",
        "value": "t_mapping(t_address,t_address)"
      },
      "t_mapping(t_address,t_mapping(t_address,t_bool))": {
        "encoding": "mapping",
        "key": "t_address",
        "label": "mapping(address => mapping(address => bool))",
        "numberOfBytes": "32",
        "value": "t_mapping(t_address,t_bool)"
      },
      "t_mapping(t_address,t_mapping(t_uint256,t_bool))": {
        "encoding": "mapping",
        "key": "t_address",
        "label": "mapping(address => mapping(uint256 => bool))",
        "numberOfBytes": "32",
        "value": "t_mapping(t_uint256,t_bool)"
      },
      "t_mapping(t_address,t_mapping(t_uint256,t_uint256))": {
        "encoding": "mapping",
        "key": "t_address",
        "label": "mapping(address => mapping(uint256 => uint256))",
        "numberOfBytes": "32",
        "value": "t_mapping(t_uint256,t_uint256)"
      },
      "t_mapping(t_address,t_struct(AssetConfig)4821_storage)": {
        "encoding": "mapping",
        "key": "t_address",
        "label": "mapping(address => struct IsolatedLending.AssetConfig)",
        "numberOfBytes": "32",
        "value": "t_struct(AssetConfig)4821_storage"
      },
      "t_mapping(t_address,t_uint256)": {
        "encoding": "mapping",
        "key": "t_address",
        "label": "mapping(address => uint256)",
        "numberOfBytes": "32",
        "value": "t_uint256"
      },
      "t_mapping(t_uint256,t_address)": {
        "encoding": "mapping",
        "key": "t_uint256",
        "label": "mapping(uint256 => address)",
        "numberOfBytes": "32",
        "value": "t_address"
      },
      "t_mapping(t_uint256,t_bool)": {
        "encoding": "mapping",
        "key": "t_uint256",
        "label": "mapping(uint256 => bool)",
        "numberOfBytes": "32",
        "value": "t_bool"
      },
      "t_mapping(t_uint256,t_uint256)": {
        "encoding": "mapping",
        "key": "t_uint256",
        "label": "mapping(uint256 => uint256)",
        "numberOfBytes": "32",
        "value": "t_uint256"
      },
      "t_string_storage": {
        "encoding": "bytes",
        "label": "string",
        "numberOfBytes": "32"
      },
      "t_struct(AssetConfig)4821_storage": {
        "encoding": "inplace",
        "label": "struct IsolatedLending.AssetConfig",
        "members": [
          {
            "astId": 4816,
            "contract": "contracts/IsolatedLending.sol:IsolatedLending",
            "label": "debtCeiling",
            "offset": 0,
            "slot": "0",
            "type": "t_uint256"
          },
          {
            "astId": 4818,
            "contract": "contracts/IsolatedLending.sol:IsolatedLending",
            "label": "feePer10k",
            "offset": 0,
            "slot": "1",
            "type": "t_uint256"
          },
          {
            "astId": 4820,
            "contract": "contracts/IsolatedLending.sol:IsolatedLending",
            "label": "totalDebt",
            "offset": 0,
            "slot": "2",
            "type": "t_uint256"
          }
        ],
        "numberOfBytes": "96"
      },
      "t_uint256": {
        "encoding": "inplace",
        "label": "uint256",
        "numberOfBytes": "32"
      }
    }
  }
}