{
  "address": "0xA1C23D8605eB0017D6C4a44C1365111353093246",
  "abi": [
    {
      "inputs": [
        {
          "internalType": "address",
          "name": "_msAvax",
          "type": "address"
        },
        {
          "internalType": "address",
          "name": "_mAvax",
          "type": "address"
        },
        {
          "internalType": "address",
          "name": "_wrappedNative",
          "type": "address"
        },
        {
          "internalType": "address",
          "name": "_roles",
          "type": "address"
        }
      ],
      "stateMutability": "nonpayable",
      "type": "constructor"
    },
    {
      "anonymous": false,
      "inputs": [
        {
          "indexed": false,
          "internalType": "string",
          "name": "param",
          "type": "string"
        },
        {
          "indexed": false,
          "internalType": "uint256",
          "name": "value",
          "type": "uint256"
        }
      ],
      "name": "ParameterUpdated",
      "type": "event"
    },
    {
      "anonymous": false,
      "inputs": [
        {
          "indexed": false,
          "internalType": "string",
          "name": "param",
          "type": "string"
        },
        {
          "indexed": false,
          "internalType": "address",
          "name": "subject",
          "type": "address"
        },
        {
          "indexed": false,
          "internalType": "uint256",
          "name": "value",
          "type": "uint256"
        }
      ],
      "name": "SubjectParameterUpdated",
      "type": "event"
    },
    {
      "anonymous": false,
      "inputs": [
        {
          "indexed": false,
          "internalType": "string",
          "name": "param",
          "type": "string"
        },
        {
          "indexed": false,
          "internalType": "address",
          "name": "subject",
          "type": "address"
        }
      ],
      "name": "SubjectUpdated",
      "type": "event"
    },
    {
      "stateMutability": "payable",
      "type": "fallback"
    },
    {
      "inputs": [
        {
          "internalType": "uint256",
          "name": "",
          "type": "uint256"
        }
      ],
      "name": "_accounts",
      "outputs": [
        {
          "internalType": "uint256",
          "name": "collateral",
          "type": "uint256"
        },
        {
          "internalType": "uint256",
          "name": "yieldCheckptIdx",
          "type": "uint256"
        },
        {
          "internalType": "address",
          "name": "trancheToken",
          "type": "address"
        }
      ],
      "stateMutability": "view",
      "type": "function"
    },
    {
      "inputs": [
        {
          "internalType": "uint256",
          "name": "",
          "type": "uint256"
        }
      ],
      "name": "_charactersPlayed",
      "outputs": [
        {
          "internalType": "uint256",
          "name": "",
          "type": "uint256"
        }
      ],
      "stateMutability": "view",
      "type": "function"
    },
    {
      "inputs": [
        {
          "internalType": "uint256",
          "name": "",
          "type": "uint256"
        }
      ],
      "name": "_dependsOnCharacters",
      "outputs": [
        {
          "internalType": "uint256",
          "name": "",
          "type": "uint256"
        }
      ],
      "stateMutability": "view",
      "type": "function"
    },
    {
      "inputs": [
        {
          "internalType": "uint256",
          "name": "",
          "type": "uint256"
        }
      ],
      "name": "_dependsOnRoles",
      "outputs": [
        {
          "internalType": "uint256",
          "name": "",
          "type": "uint256"
        }
      ],
      "stateMutability": "view",
      "type": "function"
    },
    {
      "inputs": [
        {
          "internalType": "address",
          "name": "",
          "type": "address"
        },
        {
          "internalType": "address",
          "name": "",
          "type": "address"
        }
      ],
      "name": "_oracleCache",
      "outputs": [
        {
          "internalType": "address",
          "name": "",
          "type": "address"
        }
      ],
      "stateMutability": "view",
      "type": "function"
    },
    {
      "inputs": [
        {
          "internalType": "uint256",
          "name": "",
          "type": "uint256"
        }
      ],
      "name": "_rolesPlayed",
      "outputs": [
        {
          "internalType": "uint256",
          "name": "",
          "type": "uint256"
        }
      ],
      "stateMutability": "view",
      "type": "function"
    },
    {
      "inputs": [
        {
          "internalType": "address",
          "name": "token",
          "type": "address"
        }
      ],
      "name": "_viewTVL",
      "outputs": [
        {
          "internalType": "uint256",
          "name": "",
          "type": "uint256"
        }
      ],
      "stateMutability": "view",
      "type": "function"
    },
    {
      "inputs": [
        {
          "internalType": "uint256",
          "name": "trancheId",
          "type": "uint256"
        },
        {
          "internalType": "address",
          "name": "sourceStrategy",
          "type": "address"
        },
        {
          "internalType": "address",
          "name": "tokenContract",
          "type": "address"
        },
        {
          "internalType": "uint256",
          "name": "",
          "type": "uint256"
        },
        {
          "internalType": "uint256",
          "name": "amount",
          "type": "uint256"
        }
      ],
      "name": "acceptMigration",
      "outputs": [],
      "stateMutability": "nonpayable",
      "type": "function"
    },
    {
      "inputs": [
        {
          "internalType": "address",
          "name": "yieldBearingToken",
          "type": "address"
        },
        {
          "internalType": "address",
          "name": "rewardToken",
          "type": "address"
        }
      ],
      "name": "addRewardToken",
      "outputs": [],
      "stateMutability": "nonpayable",
      "type": "function"
    },
    {
      "inputs": [],
      "name": "apfSmoothingPer10k",
      "outputs": [
        {
          "internalType": "uint256",
          "name": "",
          "type": "uint256"
        }
      ],
      "stateMutability": "view",
      "type": "function"
    },
    {
      "inputs": [
        {
          "internalType": "address",
          "name": "token",
          "type": "address"
        },
        {
          "internalType": "bytes",
          "name": "data",
          "type": "bytes"
        }
      ],
      "name": "approveToken",
      "outputs": [],
      "stateMutability": "nonpayable",
      "type": "function"
    },
    {
      "inputs": [
        {
          "internalType": "address",
          "name": "token",
          "type": "address"
        }
      ],
      "name": "approvedToken",
      "outputs": [
        {
          "internalType": "bool",
          "name": "",
          "type": "bool"
        }
      ],
      "stateMutability": "view",
      "type": "function"
    },
    {
      "inputs": [],
      "name": "approvedTokensCount",
      "outputs": [
        {
          "internalType": "uint256",
          "name": "",
          "type": "uint256"
        }
      ],
      "stateMutability": "view",
      "type": "function"
    },
    {
      "inputs": [
        {
          "internalType": "contract IERC20",
          "name": "",
          "type": "address"
        },
        {
          "internalType": "address",
          "name": "",
          "type": "address"
        }
      ],
      "name": "assetYieldMeta",
      "outputs": [
        {
          "internalType": "uint256",
          "name": "cumulConvCheckpt",
          "type": "uint256"
        },
        {
          "internalType": "uint256",
          "name": "rewardsSinceCheckpt",
          "type": "uint256"
        }
      ],
      "stateMutability": "view",
      "type": "function"
    },
    {
      "inputs": [],
      "name": "charactersPlayed",
      "outputs": [
        {
          "internalType": "uint256[]",
          "name": "",
          "type": "uint256[]"
        }
      ],
      "stateMutability": "view",
      "type": "function"
    },
    {
      "inputs": [
        {
          "internalType": "address",
          "name": "token",
          "type": "address"
        }
      ],
      "name": "checkApprovedAndEncode",
      "outputs": [
        {
          "internalType": "bool",
          "name": "",
          "type": "bool"
        },
        {
          "internalType": "bytes",
          "name": "",
          "type": "bytes"
        }
      ],
      "stateMutability": "view",
      "type": "function"
    },
    {
      "inputs": [
        {
          "internalType": "uint256",
          "name": "trancheId",
          "type": "uint256"
        },
        {
          "internalType": "address",
          "name": "currency",
          "type": "address"
        },
        {
          "internalType": "address",
          "name": "recipient",
          "type": "address"
        }
      ],
      "name": "collectYield",
      "outputs": [
        {
          "internalType": "uint256",
          "name": "",
          "type": "uint256"
        }
      ],
      "stateMutability": "nonpayable",
      "type": "function"
    },
    {
      "inputs": [
        {
          "internalType": "uint256",
          "name": "trancheId",
          "type": "uint256"
        },
        {
          "internalType": "address",
          "name": "_yieldCurrency",
          "type": "address"
        },
        {
          "internalType": "address",
          "name": "valueCurrency",
          "type": "address"
        },
        {
          "internalType": "address",
          "name": "recipient",
          "type": "address"
        }
      ],
      "name": "collectYieldValueBorrowable",
      "outputs": [
        {
          "internalType": "uint256",
          "name": "yield",
          "type": "uint256"
        },
        {
          "internalType": "uint256",
          "name": "value",
          "type": "uint256"
        },
        {
          "internalType": "uint256",
          "name": "borrowablePer10k",
          "type": "uint256"
        }
      ],
      "stateMutability": "nonpayable",
      "type": "function"
    },
    {
      "inputs": [
        {
          "internalType": "contract IERC20",
          "name": "rewardToken",
          "type": "address"
        },
        {
          "internalType": "uint256",
          "name": "rewardAmount",
          "type": "uint256"
        },
        {
          "internalType": "uint256",
          "name": "targetBid",
          "type": "uint256"
        }
      ],
      "name": "convertReward2Stable",
      "outputs": [],
      "stateMutability": "nonpayable",
      "type": "function"
    },
    {
      "inputs": [],
      "name": "dependsOnCharacters",
      "outputs": [
        {
          "internalType": "uint256[]",
          "name": "",
          "type": "uint256[]"
        }
      ],
      "stateMutability": "view",
      "type": "function"
    },
    {
      "inputs": [],
      "name": "dependsOnRoles",
      "outputs": [
        {
          "internalType": "uint256[]",
          "name": "",
          "type": "uint256[]"
        }
      ],
      "stateMutability": "view",
      "type": "function"
    },
    {
      "inputs": [
        {
          "internalType": "address",
          "name": "token",
          "type": "address"
        },
        {
          "internalType": "bytes",
          "name": "",
          "type": "bytes"
        }
      ],
      "name": "disapproveToken",
      "outputs": [],
      "stateMutability": "nonpayable",
      "type": "function"
    },
    {
      "inputs": [],
      "name": "disapprovedTokensCount",
      "outputs": [
        {
          "internalType": "uint256",
          "name": "",
          "type": "uint256"
        }
      ],
      "stateMutability": "view",
      "type": "function"
    },
    {
      "inputs": [],
      "name": "feePer10k",
      "outputs": [
        {
          "internalType": "uint256",
          "name": "",
          "type": "uint256"
        }
      ],
      "stateMutability": "view",
      "type": "function"
    },
    {
      "inputs": [
        {
          "internalType": "address",
          "name": "token",
          "type": "address"
        }
      ],
      "name": "harvestPartially",
      "outputs": [],
      "stateMutability": "nonpayable",
      "type": "function"
    },
    {
      "inputs": [],
      "name": "isActive",
      "outputs": [
        {
          "internalType": "bool",
          "name": "",
          "type": "bool"
        }
      ],
      "stateMutability": "view",
      "type": "function"
    },
    {
      "inputs": [],
      "name": "mAvax",
      "outputs": [
        {
          "internalType": "contract IERC20",
          "name": "",
          "type": "address"
        }
      ],
      "stateMutability": "view",
      "type": "function"
    },
    {
      "inputs": [
        {
          "internalType": "uint256",
          "name": "",
          "type": "uint256"
        }
      ],
      "name": "mainCharacterCache",
      "outputs": [
        {
          "internalType": "address",
          "name": "",
          "type": "address"
        }
      ],
      "stateMutability": "view",
      "type": "function"
    },
    {
      "inputs": [
        {
          "internalType": "address",
          "name": "destination",
          "type": "address"
        }
      ],
      "name": "migrateAllTo",
      "outputs": [],
      "stateMutability": "nonpayable",
      "type": "function"
    },
    {
      "inputs": [
        {
          "internalType": "uint256",
          "name": "trancheId",
          "type": "uint256"
        },
        {
          "internalType": "address",
          "name": "targetStrategy",
          "type": "address"
        },
        {
          "internalType": "address",
          "name": "yieldToken",
          "type": "address"
        },
        {
          "internalType": "address",
          "name": "yieldRecipient",
          "type": "address"
        }
      ],
      "name": "migrateStrategy",
      "outputs": [
        {
          "internalType": "address",
          "name": "",
          "type": "address"
        },
        {
          "internalType": "uint256",
          "name": "",
          "type": "uint256"
        },
        {
          "internalType": "uint256",
          "name": "",
          "type": "uint256"
        }
      ],
      "stateMutability": "nonpayable",
      "type": "function"
    },
    {
      "inputs": [],
      "name": "minimumBidPer10k",
      "outputs": [
        {
          "internalType": "uint256",
          "name": "",
          "type": "uint256"
        }
      ],
      "stateMutability": "view",
      "type": "function"
    },
    {
      "inputs": [],
      "name": "msAvax",
      "outputs": [
        {
          "internalType": "contract IERC20",
          "name": "",
          "type": "address"
        }
      ],
      "stateMutability": "view",
      "type": "function"
    },
    {
      "inputs": [
        {
          "internalType": "address",
          "name": "token",
          "type": "address"
        },
        {
          "internalType": "address",
          "name": "pegCurrency",
          "type": "address"
        }
      ],
      "name": "newCurrentOracle",
      "outputs": [],
      "stateMutability": "nonpayable",
      "type": "function"
    },
    {
      "inputs": [
        {
          "internalType": "contract IERC20",
          "name": "",
          "type": "address"
        },
        {
          "internalType": "uint256",
          "name": "",
          "type": "uint256"
        }
      ],
      "name": "pendingConvertedReward",
      "outputs": [
        {
          "internalType": "uint256",
          "name": "convertedStable",
          "type": "uint256"
        },
        {
          "internalType": "uint256",
          "name": "sourceRewards",
          "type": "uint256"
        }
      ],
      "stateMutability": "view",
      "type": "function"
    },
    {
      "inputs": [
        {
          "internalType": "address",
          "name": "depositor",
          "type": "address"
        },
        {
          "internalType": "uint256",
          "name": "trancheId",
          "type": "uint256"
        },
        {
          "internalType": "uint256",
          "name": "amount",
          "type": "uint256"
        },
        {
          "internalType": "address",
          "name": "yieldRecipient",
          "type": "address"
        }
      ],
      "name": "registerDepositFor",
      "outputs": [],
      "stateMutability": "nonpayable",
      "type": "function"
    },
    {
      "inputs": [
        {
          "internalType": "address",
          "name": "minter",
          "type": "address"
        },
        {
          "internalType": "uint256",
          "name": "trancheId",
          "type": "uint256"
        },
        {
          "internalType": "address",
          "name": "assetToken",
          "type": "address"
        },
        {
          "internalType": "uint256",
          "name": "",
          "type": "uint256"
        },
        {
          "internalType": "uint256",
          "name": "assetAmount",
          "type": "uint256"
        }
      ],
      "name": "registerMintTranche",
      "outputs": [],
      "stateMutability": "nonpayable",
      "type": "function"
    },
    {
      "inputs": [
        {
          "internalType": "address",
          "name": "yieldBearingToken",
          "type": "address"
        },
        {
          "internalType": "address",
          "name": "rewardToken",
          "type": "address"
        }
      ],
      "name": "removeRewardToken",
      "outputs": [],
      "stateMutability": "nonpayable",
      "type": "function"
    },
    {
      "inputs": [
        {
          "internalType": "address",
          "name": "token",
          "type": "address"
        },
        {
          "internalType": "uint256",
          "name": "amount",
          "type": "uint256"
        },
        {
          "internalType": "address",
          "name": "recipient",
          "type": "address"
        }
      ],
      "name": "rescueCollateral",
      "outputs": [],
      "stateMutability": "nonpayable",
      "type": "function"
    },
    {
      "inputs": [
        {
          "internalType": "uint256",
          "name": "amount",
          "type": "uint256"
        },
        {
          "internalType": "address",
          "name": "recipient",
          "type": "address"
        }
      ],
      "name": "rescueNative",
      "outputs": [],
      "stateMutability": "nonpayable",
      "type": "function"
    },
    {
      "inputs": [
        {
          "internalType": "address",
          "name": "token",
          "type": "address"
        },
        {
          "internalType": "uint256",
          "name": "amount",
          "type": "uint256"
        },
        {
          "internalType": "address",
          "name": "recipient",
          "type": "address"
        }
      ],
      "name": "rescueStrandedTokens",
      "outputs": [],
      "stateMutability": "nonpayable",
      "type": "function"
    },
    {
      "inputs": [
        {
          "internalType": "contract IERC20",
          "name": "",
          "type": "address"
        }
      ],
      "name": "rewardBalanceAccountedFor",
      "outputs": [
        {
          "internalType": "uint256",
          "name": "",
          "type": "uint256"
        }
      ],
      "stateMutability": "view",
      "type": "function"
    },
    {
      "inputs": [
        {
          "internalType": "address",
          "name": "",
          "type": "address"
        },
        {
          "internalType": "uint256",
          "name": "",
          "type": "uint256"
        }
      ],
      "name": "roleCache",
      "outputs": [
        {
          "internalType": "bool",
          "name": "",
          "type": "bool"
        }
      ],
      "stateMutability": "view",
      "type": "function"
    },
    {
      "inputs": [],
      "name": "roles",
      "outputs": [
        {
          "internalType": "contract Roles",
          "name": "",
          "type": "address"
        }
      ],
      "stateMutability": "view",
      "type": "function"
    },
    {
      "inputs": [],
      "name": "rolesPlayed",
      "outputs": [
        {
          "internalType": "uint256[]",
          "name": "",
          "type": "uint256[]"
        }
      ],
      "stateMutability": "view",
      "type": "function"
    },
    {
      "inputs": [],
      "name": "sAvax",
      "outputs": [
        {
          "internalType": "address",
          "name": "",
          "type": "address"
        }
      ],
      "stateMutability": "view",
      "type": "function"
    },
    {
      "inputs": [
        {
          "internalType": "uint256",
          "name": "smoothing",
          "type": "uint256"
        }
      ],
      "name": "setApfSmoothingPer10k",
      "outputs": [],
      "stateMutability": "nonpayable",
      "type": "function"
    },
    {
      "inputs": [
        {
          "internalType": "uint256",
          "name": "fee",
          "type": "uint256"
        }
      ],
      "name": "setFeePer10k",
      "outputs": [],
      "stateMutability": "nonpayable",
      "type": "function"
    },
    {
      "inputs": [
        {
          "internalType": "uint256",
          "name": "bidmin",
          "type": "uint256"
        }
      ],
      "name": "setMinimumBidPer10k",
      "outputs": [],
      "stateMutability": "nonpayable",
      "type": "function"
    },
    {
      "inputs": [
        {
          "internalType": "address",
          "name": "",
          "type": "address"
        }
      ],
      "name": "stabilityFeePer10k",
      "outputs": [
        {
          "internalType": "uint256",
          "name": "",
          "type": "uint256"
        }
      ],
      "stateMutability": "view",
      "type": "function"
    },
    {
      "inputs": [],
      "name": "strategyName",
      "outputs": [
        {
          "internalType": "bytes32",
          "name": "",
          "type": "bytes32"
        }
      ],
      "stateMutability": "view",
      "type": "function"
    },
    {
      "inputs": [
        {
          "internalType": "address",
          "name": "token",
          "type": "address"
        }
      ],
      "name": "tallyHarvestBalance",
      "outputs": [
        {
          "internalType": "uint256",
          "name": "balance",
          "type": "uint256"
        }
      ],
      "stateMutability": "nonpayable",
      "type": "function"
    },
    {
      "inputs": [
        {
          "internalType": "contract IERC20",
          "name": "rewardToken",
          "type": "address"
        },
        {
          "internalType": "address",
          "name": "token",
          "type": "address"
        }
      ],
      "name": "tallyHarvestBalance",
      "outputs": [
        {
          "internalType": "uint256",
          "name": "balance",
          "type": "uint256"
        }
      ],
      "stateMutability": "nonpayable",
      "type": "function"
    },
    {
      "inputs": [
        {
          "internalType": "address",
          "name": "token",
          "type": "address"
        }
      ],
      "name": "tallyReward",
      "outputs": [],
      "stateMutability": "nonpayable",
      "type": "function"
    },
    {
      "inputs": [
        {
          "internalType": "contract IERC20",
          "name": "rewardToken",
          "type": "address"
        },
        {
          "internalType": "address",
          "name": "token",
          "type": "address"
        }
      ],
      "name": "tallyReward",
      "outputs": [],
      "stateMutability": "nonpayable",
      "type": "function"
    },
    {
      "inputs": [
        {
          "internalType": "address",
          "name": "",
          "type": "address"
        }
      ],
      "name": "tokenMetadata",
      "outputs": [
        {
          "internalType": "uint256",
          "name": "totalCollateralThisPhase",
          "type": "uint256"
        },
        {
          "internalType": "uint256",
          "name": "totalCollateralNow",
          "type": "uint256"
        },
        {
          "internalType": "uint256",
          "name": "apfLastUpdated",
          "type": "uint256"
        },
        {
          "internalType": "uint256",
          "name": "apf",
          "type": "uint256"
        }
      ],
      "stateMutability": "view",
      "type": "function"
    },
    {
      "inputs": [
        {
          "internalType": "uint256",
          "name": "trancheId",
          "type": "uint256"
        }
      ],
      "name": "tranche",
      "outputs": [
        {
          "internalType": "address",
          "name": "",
          "type": "address"
        }
      ],
      "stateMutability": "view",
      "type": "function"
    },
    {
      "inputs": [
        {
          "internalType": "uint256",
          "name": "trancheId",
          "type": "uint256"
        }
      ],
      "name": "trancheToken",
      "outputs": [
        {
          "internalType": "address",
          "name": "token",
          "type": "address"
        }
      ],
      "stateMutability": "view",
      "type": "function"
    },
    {
      "inputs": [
        {
          "internalType": "uint256",
          "name": "",
          "type": "uint256"
        }
      ],
      "name": "trancheTokenID",
      "outputs": [
        {
          "internalType": "uint256",
          "name": "",
          "type": "uint256"
        }
      ],
      "stateMutability": "pure",
      "type": "function"
    },
    {
      "inputs": [
        {
          "internalType": "uint256",
          "name": "role",
          "type": "uint256"
        }
      ],
      "name": "updateMainCharacterCache",
      "outputs": [],
      "stateMutability": "nonpayable",
      "type": "function"
    },
    {
      "inputs": [
        {
          "internalType": "uint256",
          "name": "role",
          "type": "uint256"
        },
        {
          "internalType": "address",
          "name": "contr",
          "type": "address"
        }
      ],
      "name": "updateRoleCache",
      "outputs": [],
      "stateMutability": "nonpayable",
      "type": "function"
    },
    {
      "inputs": [
        {
          "internalType": "address",
          "name": "token",
          "type": "address"
        }
      ],
      "name": "viewAPF",
      "outputs": [
        {
          "internalType": "uint256",
          "name": "",
          "type": "uint256"
        }
      ],
      "stateMutability": "view",
      "type": "function"
    },
    {
      "inputs": [],
      "name": "viewAllApprovedTokens",
      "outputs": [
        {
          "internalType": "address[]",
          "name": "",
          "type": "address[]"
        }
      ],
      "stateMutability": "view",
      "type": "function"
    },
    {
      "inputs": [],
      "name": "viewAllDisapprovedTokenStrategyMetadata",
      "outputs": [
        {
          "components": [
            {
              "internalType": "address",
              "name": "strategy",
              "type": "address"
            },
            {
              "internalType": "address",
              "name": "token",
              "type": "address"
            },
            {
              "internalType": "uint256",
              "name": "APF",
              "type": "uint256"
            },
            {
              "internalType": "uint256",
              "name": "totalCollateral",
              "type": "uint256"
            },
            {
              "internalType": "uint256",
              "name": "borrowablePer10k",
              "type": "uint256"
            },
            {
              "internalType": "uint256",
              "name": "valuePer1e18",
              "type": "uint256"
            },
            {
              "internalType": "bytes32",
              "name": "strategyName",
              "type": "bytes32"
            },
            {
              "internalType": "uint256",
              "name": "tvl",
              "type": "uint256"
            },
            {
              "internalType": "uint256",
              "name": "harvestBalance2Tally",
              "type": "uint256"
            },
            {
              "internalType": "enum IStrategy.YieldType",
              "name": "yieldType",
              "type": "uint8"
            },
            {
              "internalType": "uint256",
              "name": "stabilityFee",
              "type": "uint256"
            },
            {
              "internalType": "address",
              "name": "underlyingStrategy",
              "type": "address"
            }
          ],
          "internalType": "struct IStrategy.StrategyMetadata[]",
          "name": "",
          "type": "tuple[]"
        }
      ],
      "stateMutability": "view",
      "type": "function"
    },
    {
      "inputs": [],
      "name": "viewAllDisapprovedTokens",
      "outputs": [
        {
          "internalType": "address[]",
          "name": "",
          "type": "address[]"
        }
      ],
      "stateMutability": "view",
      "type": "function"
    },
    {
      "inputs": [],
      "name": "viewAllFeesEver",
      "outputs": [
        {
          "internalType": "uint256",
          "name": "",
          "type": "uint256"
        }
      ],
      "stateMutability": "view",
      "type": "function"
    },
    {
      "inputs": [],
      "name": "viewAllStrategyMetadata",
      "outputs": [
        {
          "components": [
            {
              "internalType": "address",
              "name": "strategy",
              "type": "address"
            },
            {
              "internalType": "address",
              "name": "token",
              "type": "address"
            },
            {
              "internalType": "uint256",
              "name": "APF",
              "type": "uint256"
            },
            {
              "internalType": "uint256",
              "name": "totalCollateral",
              "type": "uint256"
            },
            {
              "internalType": "uint256",
              "name": "borrowablePer10k",
              "type": "uint256"
            },
            {
              "internalType": "uint256",
              "name": "valuePer1e18",
              "type": "uint256"
            },
            {
              "internalType": "bytes32",
              "name": "strategyName",
              "type": "bytes32"
            },
            {
              "internalType": "uint256",
              "name": "tvl",
              "type": "uint256"
            },
            {
              "internalType": "uint256",
              "name": "harvestBalance2Tally",
              "type": "uint256"
            },
            {
              "internalType": "enum IStrategy.YieldType",
              "name": "yieldType",
              "type": "uint8"
            },
            {
              "internalType": "uint256",
              "name": "stabilityFee",
              "type": "uint256"
            },
            {
              "internalType": "address",
              "name": "underlyingStrategy",
              "type": "address"
            }
          ],
          "internalType": "struct IStrategy.StrategyMetadata[]",
          "name": "",
          "type": "tuple[]"
        }
      ],
      "stateMutability": "view",
      "type": "function"
    },
    {
      "inputs": [],
      "name": "viewAllTokensEver",
      "outputs": [
        {
          "internalType": "address[]",
          "name": "",
          "type": "address[]"
        }
      ],
      "stateMutability": "view",
      "type": "function"
    },
    {
      "inputs": [
        {
          "internalType": "uint256",
          "name": "trancheId",
          "type": "uint256"
        }
      ],
      "name": "viewBorrowable",
      "outputs": [
        {
          "internalType": "uint256",
          "name": "borrowablePer10k",
          "type": "uint256"
        }
      ],
      "stateMutability": "view",
      "type": "function"
    },
    {
      "inputs": [
        {
          "internalType": "address",
          "name": "token",
          "type": "address"
        }
      ],
      "name": "viewEstimatedHarvestable",
      "outputs": [
        {
          "internalType": "uint256",
          "name": "",
          "type": "uint256"
        }
      ],
      "stateMutability": "view",
      "type": "function"
    },
    {
      "inputs": [
        {
          "internalType": "address",
          "name": "token",
          "type": "address"
        }
      ],
      "name": "viewHarvestBalance2Tally",
      "outputs": [
        {
          "internalType": "uint256",
          "name": "balance",
          "type": "uint256"
        }
      ],
      "stateMutability": "view",
      "type": "function"
    },
    {
      "inputs": [
        {
          "internalType": "contract IERC20",
          "name": "rewardToken",
          "type": "address"
        },
        {
          "internalType": "address",
          "name": "token",
          "type": "address"
        }
      ],
      "name": "viewHarvestBalance2Tally",
      "outputs": [
        {
          "internalType": "uint256",
          "name": "",
          "type": "uint256"
        }
      ],
      "stateMutability": "view",
      "type": "function"
    },
    {
      "inputs": [
        {
          "internalType": "address",
          "name": "yieldBearingToken",
          "type": "address"
        }
      ],
      "name": "viewRewardTokens",
      "outputs": [
        {
          "internalType": "address[]",
          "name": "",
          "type": "address[]"
        }
      ],
      "stateMutability": "view",
      "type": "function"
    },
    {
      "inputs": [
        {
          "internalType": "address",
          "name": "",
          "type": "address"
        }
      ],
      "name": "viewSourceHarvestable",
      "outputs": [
        {
          "internalType": "uint256",
          "name": "",
          "type": "uint256"
        }
      ],
      "stateMutability": "view",
      "type": "function"
    },
    {
      "inputs": [
        {
          "internalType": "address",
          "name": "token",
          "type": "address"
        }
      ],
      "name": "viewStrategyMetadata",
      "outputs": [
        {
          "components": [
            {
              "internalType": "address",
              "name": "strategy",
              "type": "address"
            },
            {
              "internalType": "address",
              "name": "token",
              "type": "address"
            },
            {
              "internalType": "uint256",
              "name": "APF",
              "type": "uint256"
            },
            {
              "internalType": "uint256",
              "name": "totalCollateral",
              "type": "uint256"
            },
            {
              "internalType": "uint256",
              "name": "borrowablePer10k",
              "type": "uint256"
            },
            {
              "internalType": "uint256",
              "name": "valuePer1e18",
              "type": "uint256"
            },
            {
              "internalType": "bytes32",
              "name": "strategyName",
              "type": "bytes32"
            },
            {
              "internalType": "uint256",
              "name": "tvl",
              "type": "uint256"
            },
            {
              "internalType": "uint256",
              "name": "harvestBalance2Tally",
              "type": "uint256"
            },
            {
              "internalType": "enum IStrategy.YieldType",
              "name": "yieldType",
              "type": "uint8"
            },
            {
              "internalType": "uint256",
              "name": "stabilityFee",
              "type": "uint256"
            },
            {
              "internalType": "address",
              "name": "underlyingStrategy",
              "type": "address"
            }
          ],
          "internalType": "struct IStrategy.StrategyMetadata",
          "name": "",
          "type": "tuple"
        }
      ],
      "stateMutability": "view",
      "type": "function"
    },
    {
      "inputs": [
        {
          "internalType": "uint256",
          "name": "trancheId",
          "type": "uint256"
        }
      ],
      "name": "viewTargetCollateralAmount",
      "outputs": [
        {
          "internalType": "uint256",
          "name": "",
          "type": "uint256"
        }
      ],
      "stateMutability": "view",
      "type": "function"
    },
    {
      "inputs": [
        {
          "internalType": "address",
          "name": "",
          "type": "address"
        }
      ],
      "name": "viewUnderlyingStrategy",
      "outputs": [
        {
          "internalType": "address",
          "name": "",
          "type": "address"
        }
      ],
      "stateMutability": "view",
      "type": "function"
    },
    {
      "inputs": [
        {
          "internalType": "uint256",
          "name": "trancheId",
          "type": "uint256"
        },
        {
          "internalType": "address",
          "name": "valueCurrency",
          "type": "address"
        }
      ],
      "name": "viewValue",
      "outputs": [
        {
          "internalType": "uint256",
          "name": "value",
          "type": "uint256"
        }
      ],
      "stateMutability": "view",
      "type": "function"
    },
    {
      "inputs": [
        {
          "internalType": "uint256",
          "name": "trancheId",
          "type": "uint256"
        },
        {
          "internalType": "address",
          "name": "valueCurrency",
          "type": "address"
        }
      ],
      "name": "viewValueBorrowable",
      "outputs": [
        {
          "internalType": "uint256",
          "name": "value",
          "type": "uint256"
        },
        {
          "internalType": "uint256",
          "name": "borrowable",
          "type": "uint256"
        }
      ],
      "stateMutability": "view",
      "type": "function"
    },
    {
      "inputs": [
        {
          "internalType": "uint256",
          "name": "trancheId",
          "type": "uint256"
        },
        {
          "internalType": "address",
          "name": "currency",
          "type": "address"
        }
      ],
      "name": "viewYield",
      "outputs": [
        {
          "internalType": "uint256",
          "name": "",
          "type": "uint256"
        }
      ],
      "stateMutability": "view",
      "type": "function"
    },
    {
      "inputs": [
        {
          "internalType": "uint256",
          "name": "trancheId",
          "type": "uint256"
        },
        {
          "internalType": "address",
          "name": "_yieldCurrency",
          "type": "address"
        },
        {
          "internalType": "address",
          "name": "valueCurrency",
          "type": "address"
        }
      ],
      "name": "viewYieldValueBorrowable",
      "outputs": [
        {
          "internalType": "uint256",
          "name": "yield",
          "type": "uint256"
        },
        {
          "internalType": "uint256",
          "name": "value",
          "type": "uint256"
        },
        {
          "internalType": "uint256",
          "name": "borrowablePer10k",
          "type": "uint256"
        }
      ],
      "stateMutability": "view",
      "type": "function"
    },
    {
      "inputs": [
        {
          "internalType": "uint256",
          "name": "trancheId",
          "type": "uint256"
        },
        {
          "internalType": "uint256",
          "name": "amount",
          "type": "uint256"
        },
        {
          "internalType": "address",
          "name": "yieldToken",
          "type": "address"
        },
        {
          "internalType": "address",
          "name": "recipient",
          "type": "address"
        }
      ],
      "name": "withdraw",
      "outputs": [],
      "stateMutability": "nonpayable",
      "type": "function"
    },
    {
      "inputs": [],
      "name": "wrappedNative",
      "outputs": [
        {
          "internalType": "contract IWETH",
          "name": "",
          "type": "address"
        }
      ],
      "stateMutability": "view",
      "type": "function"
    },
    {
      "inputs": [],
      "name": "yieldCurrency",
      "outputs": [
        {
          "internalType": "address",
          "name": "",
          "type": "address"
        }
      ],
      "stateMutability": "view",
      "type": "function"
    },
    {
      "inputs": [],
      "name": "yieldType",
      "outputs": [
        {
          "internalType": "enum IStrategy.YieldType",
          "name": "",
          "type": "uint8"
        }
      ],
      "stateMutability": "pure",
      "type": "function"
    },
    {
      "stateMutability": "payable",
      "type": "receive"
    }
  ],
  "transactionHash": "0x8a714f46963412cbc8425407fa1eb19f82799fb70349717c2a658dab64bd5d64",
  "args": [
    "0x188B1B39c6Ea974525E36c4ad4A243C3D917cD7a",
    "0xA5916a3c4b9dFccbFe6C27108539EdA3E6b99d56",
    "0xB31f66AA3C1e785363F0875A1B74E27b85FD66c7",
    "0x9e1EE00d45252aA58623F7d771FB414aA38f0878"
  ],
  "numDeployments": 1,
  "solcInputHash": "f34724a8126ebefd882a0c9c697b84b3",
  "bytecode": "0x6101406040526009805460ff191660011790556113886011556125e46018556103e8601955601b80546001600160a01b031916732b2c81e08f1af8835a78bb2a90ae924ace0ea4be1790553480156200005757600080fd5b5060405162005718380380620057188339810160408190526200007a916200038a565b816b131a5c5d5a5908165a595b1960a21b82806001600160a01b038116620000f35760405162461bcd60e51b815260206004820152602260248201527f506c656173652070726f766964652076616c696420726f6c6573206164647265604482015261737360f01b606482015260840160405180910390fd5b60601b6001600160601b0319166080526002805460018082018355606a600080516020620056f88339815191529283015560058054808301825560047f036b6384b5eca791c62761152d0c79bb0604c104a5fb6f4eb0703f3154bb3db09182018190558554808501875560669086015582548085019093559101849055835480830185556068908401556003805480840182557fc2575a0e9e593c00f959f8c92f12db2869c3395a3b0502d05e2516446f71f85b908101829055815480850190925501829055835491820184556000939093526069910181905560405163b4ed0b6d60e01b8152918201526001600160a01b0382169063b4ed0b6d9060240160206040518083038186803b1580156200020b57600080fd5b505afa15801562000220573d6000803e3d6000fd5b505050506040513d601f19601f8201168201806040525081019062000246919062000366565b6001600160a01b031663fae794e66040518163ffffffff1660e01b815260040160206040518083038186803b1580156200027f57600080fd5b505afa15801562000294573d6000803e3d6000fd5b505050506040513d601f19601f82011682018060405250810190620002ba9190620003e6565b60a052506001600881905560c09190915260028054808301825560008290526067600080516020620056f8833981519152918201556001600160601b0319606094851b811660e05282548085018455607390830155825480850184556074908301558254938401909255607592019190915594811b8516610100529290921b9092166101205250620003ff9050565b80516001600160a01b03811681146200036157600080fd5b919050565b60006020828403121562000378578081fd5b620003838262000349565b9392505050565b60008060008060808587031215620003a0578283fd5b620003ab8562000349565b9350620003bb6020860162000349565b9250620003cb6040860162000349565b9150620003db6060860162000349565b905092959194509250565b600060208284031215620003f8578081fd5b5051919050565b60805160601c60a05160c05160e05160601c6101005160601c6101205160601c615242620004b660003960008181610af00152614501015260008181610a1e0152614611015260008181610e7501528181611ccd015281816120ab015281816133830152614457015260008181610d6d01526111f70152600061271c0152600081816106c10152818161100301528181611a7b0152818161324d015281816132e0015281816137010152613d9c01526152426000f3fe6080604052600436106103b25760003560e01c8062df88b4146103bb57806301c7b9f8146104145780630581f3b51461044257806306b8ce9914610463578063071060a6146104785780630a3017d9146104985780630ccc5bd6146104b85780630d749628146104d8578063110acb23146104ee57806313710eb81461051b57806318af4c9e1461053b5780631dc3a7591461055b5780631f7ea8811461057657806321fa0f1f1461059657806322f3e2d4146105b857806323cb2390146105e25780632642b6061461060257806326473a8f1461044257806328f3fc73146106505780632d9c454614610670578063392f5f64146106af5780633a3db435146106e35780633ace96ec146107035780633d05f2c314610723578063447d52ba14610743578063459ba1271461076357806349d4f22e146107835780634a7a7f41146107a35780634d9d01b2146107c55780634df87c09146107da578063525e8269146107fa5780636caa9c111461081a5780636fecdf241461083a57806371b3177a1461089f5780637268d1c0146108bf57806379251d88146108df578063794a41cc146108ff5780637a1a04df1461092c5780637b2c9279146109675780637dad209b1461097c5780638496e8911461099157806389f117b3146109cc5780638a31b98f146109ec5780638d373e6514610a0c5780639470505f14610a405780639b0f09ae14610a60578063a4d77f9014610a7c578063a50233c914610a9c578063a51c8fab14610abc578063ab926ef314610ade578063abcbc4fc14610b12578063ad89b79414610b32578063aeb38d8b14610b47578063b06ea8f014610b67578063b23d66c214610b7d578063b832799314610bc2578063b9bcce1c14610be2578063bf184ea414610c02578063c5c72dc314610c22578063c6ec154814610c42578063d0d9ab5914610c70578063d0e1b89714610c85578063d241c9c014610ca5578063d2d719d614610cc5578063d6e113ab14610cdb578063d7fb7b3114610cfb578063d9cb512c14610d11578063dc94cb7d14610d26578063e12c11d514610d3b578063e173ad2514610d5b578063e22d284514610d8f578063e2e730f614610df8578063e8ea4fae14610e18578063e9c3f77d14610e2d578063eb6d3a1114610e63578063efc1e45914610e97578063f725ed1014610eb7578063f8903fb714610ed7578063f8d6a05d14610ef7578063fa98a4ba14610f17578063fabee7db14610f37578063fac82e8c14610f57578063fd80d0c314610f77578063fe65a5b414610f97576103b9565b366103b957005b005b3480156103c757600080fd5b506103fa6103d6366004614b37565b60146020908152600092835260408084209091529082529020805460019091015482565b604080519283526020830191909152015b60405180910390f35b34801561042057600080fd5b5061043461042f366004614bad565b610fb7565b60405190815260200161040b565b34801561044e57600080fd5b5061043461045d366004614922565b50600090565b34801561046f57600080fd5b50610434610fdc565b34801561048457600080fd5b506103b9610493366004614b7d565b610fed565b3480156104a457600080fd5b506104346104b3366004614922565b6110b3565b3480156104c457600080fd5b506103b96104d3366004614a3c565b6110d1565b3480156104e457600080fd5b50610434601a5481565b3480156104fa57600080fd5b5061050e610509366004614922565b61115a565b60405161040b91906150a5565b34801561052757600080fd5b506103b9610536366004614b49565b611261565b34801561054757600080fd5b506103b9610556366004614bad565b61156d565b34801561056757600080fd5b5061043461045d366004614b7d565b34801561058257600080fd5b506103b9610591366004614992565b611617565b3480156105a257600080fd5b506105ab6116cf565b60405161040b9190614e9f565b3480156105c457600080fd5b506009546105d29060ff1681565b604051901515815260200161040b565b3480156105ee57600080fd5b506103b96105fd36600461495a565b6117a1565b34801561060e57600080fd5b5061064361061d36600461495a565b60066020908152600092835260408084209091529082529020546001600160a01b031681565b60405161040b9190614de8565b34801561065c57600080fd5b506103b961066b36600461495a565b61180c565b34801561067c57600080fd5b506103fa61068b366004614a11565b60156020908152600092835260408084209091529082529020805460019091015482565b3480156106bb57600080fd5b506106437f000000000000000000000000000000000000000000000000000000000000000081565b3480156106ef57600080fd5b506103b96106fe366004614b7d565b6118ff565b34801561070f57600080fd5b506103b961071e366004614992565b611999565b34801561072f57600080fd5b50601b54610643906001600160a01b031681565b34801561074f57600080fd5b506103b961075e366004614bad565b611a64565b34801561076f57600080fd5b506103b961077e366004614c4e565b611b3a565b34801561078f57600080fd5b506103b961079e366004614a3c565b611bb3565b3480156107af57600080fd5b506107b8611c36565b60405161040b9190614ee2565b3480156107d157600080fd5b50610434611c8e565b3480156107e657600080fd5b506105d26107f5366004614922565b611c9a565b34801561080657600080fd5b506103b9610815366004614922565b611cad565b34801561082657600080fd5b50610434610835366004614b7d565b611d78565b34801561084657600080fd5b5061087f610855366004614922565b60126020526000908152604090206001810154600282015460038301546004909301549192909184565b60408051948552602085019390935291830152606082015260800161040b565b3480156108ab57600080fd5b506103b96108ba366004614caa565b611d99565b3480156108cb57600080fd5b506104346108da366004614b7d565b611e72565b3480156108eb57600080fd5b506103b96108fa36600461495a565b611e98565b34801561090b57600080fd5b5061043461091a366004614922565b60166020526000908152604090205481565b34801561093857600080fd5b506105d2610947366004614a11565b600160209081526000928352604080842090915290825290205460ff1681565b34801561097357600080fd5b50610643611f03565b34801561098857600080fd5b506107b8611f0d565b34801561099d57600080fd5b506109b16109ac366004614c07565b611f63565b6040805193845260208401929092529082015260600161040b565b3480156109d857600080fd5b506103b96109e7366004614922565b61207e565b3480156109f857600080fd5b50610434610a07366004614922565b6121c4565b348015610a1857600080fd5b506106437f000000000000000000000000000000000000000000000000000000000000000081565b348015610a4c57600080fd5b50610434610a5b366004614922565b612226565b348015610a6c57600080fd5b50600060405161040b9190614f35565b348015610a8857600080fd5b506103fa610a97366004614bad565b612281565b348015610aa857600080fd5b506103b9610ab7366004614ace565b6122aa565b348015610ac857600080fd5b50610ad161236b565b60405161040b9190614e52565b348015610aea57600080fd5b506106437f000000000000000000000000000000000000000000000000000000000000000081565b348015610b1e57600080fd5b50610434610b2d366004614b7d565b612377565b348015610b3e57600080fd5b506105ab612387565b348015610b5357600080fd5b50610434610b62366004614b7d565b612452565b348015610b7357600080fd5b5061043460115481565b348015610b8957600080fd5b50610b9d610b98366004614c07565b612462565b604080516001600160a01b03909416845260208401929092529082015260600161040b565b348015610bce57600080fd5b506103b9610bdd366004614a7d565b612552565b348015610bee57600080fd5b50610ad1610bfd366004614922565b61260b565b348015610c0e57600080fd5b50610434610c1d366004614b7d565b61262f565b348015610c2e57600080fd5b50610434610c3d366004614b7d565b61263f565b348015610c4e57600080fd5b50610c62610c5d366004614922565b612651565b60405161040b929190614f1a565b348015610c7c57600080fd5b50610ad1612677565b348015610c9157600080fd5b506103b9610ca0366004614b7d565b612683565b348015610cb157600080fd5b50610643610cc0366004614b7d565b612714565b348015610cd157600080fd5b5061043460195481565b348015610ce757600080fd5b50610434610cf6366004614b37565b61280e565b348015610d0757600080fd5b5061043460185481565b348015610d1d57600080fd5b50610ad1612a37565b348015610d3257600080fd5b506107b8612a43565b348015610d4757600080fd5b506103b9610d56366004614b37565b612a99565b348015610d6757600080fd5b506104347f000000000000000000000000000000000000000000000000000000000000000081565b348015610d9b57600080fd5b50610dd4610daa366004614b7d565b6010602052600090815260409020805460018201546002909201549091906001600160a01b031683565b6040805193845260208401929092526001600160a01b03169082015260600161040b565b348015610e0457600080fd5b50610434610e13366004614922565b612be4565b348015610e2457600080fd5b506107b8612c02565b348015610e3957600080fd5b50610643610e48366004614b7d565b6000602081905290815260409020546001600160a01b031681565b348015610e6f57600080fd5b506106437f000000000000000000000000000000000000000000000000000000000000000081565b348015610ea357600080fd5b50610434610eb2366004614b37565b612c58565b348015610ec357600080fd5b50610643610ed2366004614922565b612cee565b348015610ee357600080fd5b50610434610ef2366004614bd1565b612cf8565b348015610f0357600080fd5b50610434610f12366004614922565b612deb565b348015610f2357600080fd5b506109b1610f32366004614bd1565b612e01565b348015610f4357600080fd5b50610643610f52366004614b7d565b612e3c565b348015610f6357600080fd5b506103b9610f72366004614922565b612e5a565b348015610f8357600080fd5b50610434610f92366004614bad565b61301e565b348015610fa357600080fd5b506103b9610fb2366004614b7d565b613062565b6000610fd4610fc584612e3c565b610fce8561263f565b846130fa565b509392505050565b6000610fe8600c61323f565b905090565b60405163b4ed0b6d60e01b8152600481018290527f00000000000000000000000000000000000000000000000000000000000000006001600160a01b03169063b4ed0b6d9060240160206040518083038186803b15801561104d57600080fd5b505afa158015611061573d6000803e3d6000fd5b505050506040513d601f19601f82011682018060405250810190611085919061493e565b60009182526020829052604090912080546001600160a01b0319166001600160a01b03909216919091179055565b6001600160a01b031660009081526012602052604090206004015490565b336110da613249565b6001600160a01b031614806110fe5750336110f36132dc565b6001600160a01b0316145b6111235760405162461bcd60e51b815260040161111a90614f56565b60405180910390fd5b6001600160a01b0381166111495760405162461bcd60e51b815260040161111a90615003565b61115481848461334d565b50505050565b61116261488d565b60008061117f84670de0b6b3a764000061117a61356e565b6130fa565b91509150604051806101800160405280306001600160a01b03168152602001856001600160a01b031681526020016111b6866110b3565b815260200160126000876001600160a01b03166001600160a01b031681526020019081526020016000206002015481526020018281526020018381526020017f0000000000000000000000000000000000000000000000000000000000000000815260200161122486612be4565b815260200161123286612226565b8152602001600081526020016000815260200161124e86612cee565b6001600160a01b03169052949350505050565b600260085414156112845760405162461bcd60e51b815260040161111a90615037565b60026008556001600160a01b0383166000908152601660205260408120546112ad9084906135a6565b9050600081116112ff5760405162461bcd60e51b815260206004820152601f60248201527f4e6f2063757272656e746c7920636f6e7665727469626c652072657761726400604482015260640161111a565b6000611313858561130e611f03565b6135be565b90506018548161132391906150f7565b61132f846127106150f7565b10156113705760405162461bcd60e51b815260206004820152601060248201526f125b9cdd59999a58da595b9d08189a5960821b604482015260640161111a565b60008461137d85856150f7565b61138791906150e3565b9050611391611f03565b6001600160a01b0316639dc29fac33836040518363ffffffff1660e01b81526004016113be929190614e16565b600060405180830381600087803b1580156113d857600080fd5b505af11580156113ec573d6000803e3d6000fd5b5050505060006127108260195461140391906150f7565b61140d91906150e3565b9050611417611f03565b6001600160a01b03166340c10f1961142d613659565b836040518363ffffffff1660e01b815260040161144b929190614e16565b600060405180830381600087803b15801561146557600080fd5b505af1158015611479573d6000803e3d6000fd5b5050505080601a600082825461148f91906150cb565b90915550506001600160a01b0387166000908152601560209081526040808320601383528184205484529091528120601954909190612710906114d29082615116565b6114dc90866150f7565b6114e691906150e3565b8083556001600160a01b038a166000908152601360205260408120805492935083929091906115169084906150cb565b9091555061153090506001600160a01b038a163388613691565b6001600160a01b03891660009081526016602052604081208054889290611558908490615116565b90915550506001600855505050505050505050565b33611576613249565b6001600160a01b0316148061159a57503361158f6132dc565b6001600160a01b0316145b6115b65760405162461bcd60e51b815260040161111a90614f56565b6001600160a01b0381166115dc5760405162461bcd60e51b815260040161111a90615003565b6040516001600160a01b0382169083156108fc029084906000818181858888f19350505050158015611612573d6000803e3d6000fd5b505050565b33611620613249565b6001600160a01b031614806116445750336116396132dc565b6001600160a01b0316145b806116535750611653336136e7565b6116af5760405162461bcd60e51b815260206004820152603960248201526000805160206151ed833981519152604482015278391037b91030baba3437b934bd32b21030b1ba34bb30ba37b960391b606482015260840161111a565b6116ba83838361378a565b61115483670de0b6b3a764000061130e61356e565b606060006116dd600a61323f565b90506000816001600160401b0381111561170757634e487b7160e01b600052604160045260246000fd5b60405190808252806020026020018201604052801561174057816020015b61172d61488d565b8152602001906001900390816117255790505b50905060005b8083111561179a5761175c610509600a836137dd565b82828151811061177c57634e487b7160e01b600052603260045260246000fd5b6020026020010181905250808061179290615159565b915050611746565b5091505090565b336117aa613249565b6001600160a01b031614806117ce5750336117c36132dc565b6001600160a01b0316145b6117ea5760405162461bcd60e51b815260040161111a90614f56565b6001600160a01b038216600090815260176020526040902061161290826137e9565b6001600160a01b038281166000908152600660209081526040808320858516845290915290205416156118fb576118416137fe565b6001600160a01b0316635e73a03483836040518363ffffffff1660e01b815260040161186e929190614dfc565b60206040518083038186803b15801561188657600080fd5b505afa15801561189a573d6000803e3d6000fd5b505050506040513d601f19601f820116820180604052508101906118be919061493e565b6001600160a01b0383811660009081526006602090815260408083208685168452909152902080546001600160a01b031916929091169190911790555b5050565b33611908613249565b6001600160a01b0316148061192c5750336119216132dc565b6001600160a01b0316145b6119485760405162461bcd60e51b815260040161111a90614f56565b601181905560408051818152600d918101919091526c61706620736d6f6f7468696e6760981b6060820152602081018290526000805160206151cd833981519152906080015b60405180910390a150565b336119a2613249565b6001600160a01b031614806119c65750336119bb6132dc565b6001600160a01b0316145b6119e25760405162461bcd60e51b815260040161111a90614f56565b6119ed600a84613836565b506119f9600c846137e9565b50611a0261384b565b6001600160a01b03166311848c45306040518263ffffffff1660e01b8152600401611a2d9190614de8565b600060405180830381600087803b158015611a4757600080fd5b505af1158015611a5b573d6000803e3d6000fd5b50505050505050565b60405163f0723d9760e01b81526001600160a01b037f0000000000000000000000000000000000000000000000000000000000000000169063f0723d9790611ab29084908690600401614e16565b60206040518083038186803b158015611aca57600080fd5b505afa158015611ade573d6000803e3d6000fd5b505050506040513d601f19601f82011682018060405250810190611b029190614b17565b6001600160a01b0391909116600090815260016020908152604080832094835293905291909120805460ff1916911515919091179055565b60026008541415611b5d5760405162461bcd60e51b815260040161111a90615037565b6002600855611b6b85612714565b6001600160a01b0316336001600160a01b031614611b9b5760405162461bcd60e51b815260040161111a90614fd0565b611ba784868584613883565b50506001600855505050565b33611bbc613249565b6001600160a01b03161480611be0575033611bd56132dc565b6001600160a01b0316145b611bfc5760405162461bcd60e51b815260040161111a90614f56565b6001600160a01b038116611c225760405162461bcd60e51b815260040161111a90615003565b6116126001600160a01b0384168284613691565b60606003805480602002602001604051908101604052809291908181526020018280548015611c8457602002820191906000526020600020905b815481526020019060010190808311611c70575b5050505050905090565b6000610fe8600a61323f565b6000611ca7600a836138d3565b92915050565b6001600160a01b03811660009081526017602052604090204715611d40577f00000000000000000000000000000000000000000000000000000000000000006001600160a01b031663d0e30db0476040518263ffffffff1660e01b81526004016000604051808303818588803b158015611d2657600080fd5b505af1158015611d3a573d6000803e3d6000fd5b50505050505b60005b80611d4d8361323f565b111561161257611d66611d6083836137dd565b84612a99565b80611d7081615159565b915050611d43565b60058181548110611d8857600080fd5b600091825260209091200154905081565b60095460ff16611dbb5760405162461bcd60e51b815260040161111a90614fa0565b60026008541415611dde5760405162461bcd60e51b815260040161111a90615037565b6002600855611dec336138e8565b611e355760405162461bcd60e51b815260206004820152601a6024820152794e6f7420617574686f72697a656420746f20776974686472617760301b604482015260640161111a565b6001600160a01b038116611e5b5760405162461bcd60e51b815260040161111a90615003565b611e6784848484613911565b505060016008555050565b6000611e91611e8083612e3c565b611e898461263f565b61117a611f03565b9392505050565b33611ea1613249565b6001600160a01b03161480611ec5575033611eba6132dc565b6001600160a01b0316145b611ee15760405162461bcd60e51b815260040161111a90614f56565b6001600160a01b03821660009081526017602052604090206116129082613836565b6000610fe861356e565b60606004805480602002602001604051908101604052809291908181526020018280548015611c845760200282019190600052602060002090815481526020019060010190808311611c70575050505050905090565b600080600060026008541415611f8b5760405162461bcd60e51b815260040161111a90615037565b6002600855611f99336138e8565b806120255750611fa887612714565b6001600160a01b0316632972b0f033896040518363ffffffff1660e01b8152600401611fd5929190614e16565b60206040518083038186803b158015611fed57600080fd5b505afa158015612001573d6000803e3d6000fd5b505050506040513d601f19601f820116820180604052508101906120259190614b17565b6120415760405162461bcd60e51b815260040161111a9061506e565b61204c8787866139ce565b925061206961205a88612e3c565b6120638961263f565b87613b19565b60016008559398909750929550919350505050565b600260085414156120a15760405162461bcd60e51b815260040161111a90615037565b60026008819055507f00000000000000000000000000000000000000000000000000000000000000006001600160a01b0316816001600160a01b03161415612142576120eb613b88565b6001600160a01b0316634641257d6040518163ffffffff1660e01b8152600401600060405180830381600087803b15801561212557600080fd5b505af1158015612139573d6000803e3d6000fd5b505050506121b3565b601b546001600160a01b03828116911614156121b357612160613bc0565b6001600160a01b0316634641257d6040518163ffffffff1660e01b8152600401600060405180830381600087803b15801561219a57600080fd5b505af11580156121ae573d6000803e3d6000fd5b505050505b6121bc81611cad565b506001600855565b6001600160a01b0381166000908152601760205260408120815b806121e88361323f565b111561221f576122016121fb83836137dd565b8561280e565b61220b90846150cb565b92508061221781615159565b9150506121de565b5050919050565b6001600160a01b0381166000908152601760205260408120815b8061224a8361323f565b111561221f5761226361225d83836137dd565b85612c58565b61226d90846150cb565b92508061227981615159565b915050612240565b60008061229f61229085612e3c565b6122998661263f565b856130fa565b915091509250929050565b60095460ff166122cc5760405162461bcd60e51b815260040161111a90614fa0565b600260085414156122ef5760405162461bcd60e51b815260040161111a90615037565b60026008556122fd336138e8565b6123575760405162461bcd60e51b815260206004820152602560248201527f4e6f7420617574686f72697a656420746f207472616e7366657220757365722060448201526466756e647360d81b606482015260840161111a565b611e67848484612365611f03565b85613bf8565b6060610fe8600a613c91565b60028181548110611d8857600080fd5b60606000612395600c61323f565b90506000816001600160401b038111156123bf57634e487b7160e01b600052604160045260246000fd5b6040519080825280602002602001820160405280156123f857816020015b6123e561488d565b8152602001906001900390816123dd5790505b50905060005b8083111561179a57612414610509600c836137dd565b82828151811061243457634e487b7160e01b600052603260045260246000fd5b6020026020010181905250808061244a90615159565b9150506123fe565b60048181548110611d8857600080fd5b6009546000908190819060ff1661248b5760405162461bcd60e51b815260040161111a90614fa0565b61249487612714565b6001600160a01b0316336001600160a01b0316146124c45760405162461bcd60e51b815260040161111a90614fd0565b60006124cf88612e3c565b905060006124dc8961263f565b90506124f26001600160a01b0383168983613c9e565b6124fd8988886139ce565b50600061250b30848461334d565b6001600160a01b03841660009081526012602052604081206002018054929350839290919061253b908490615116565b90915550929a60009a509098509650505050505050565b60095460ff166125745760405162461bcd60e51b815260040161111a90614fa0565b600260085414156125975760405162461bcd60e51b815260040161111a90615037565b60026008556125a5336138e8565b80156125c15750336125b685612714565b6001600160a01b0316145b6125ff5760405162461bcd60e51b815260206004820152600f60248201526e496e76616c6964207472616e63686560881b604482015260640161111a565b611ba785858584613883565b6001600160a01b0381166000908152601760205260409020606090611ca790613c91565b60038181548110611d8857600080fd5b60009081526010602052604090205490565b6000606061265e83611c9a565b6040518060200160405280600081525091509150915091565b6060610fe8600c613c91565b3361268c613249565b6001600160a01b031614806126b05750336126a56132dc565b6001600160a01b0316145b6126cc5760405162461bcd60e51b815260040161111a90614f56565b601881905560408051818152600b918101919091526a135a5b9a5b5d5b48189a5960aa1b6060820152602081018290526000805160206151cd8339815191529060800161198e565b6000806127417f000000000000000000000000000000000000000000000000000000000000000084615174565b6000818152600760205260409020549091506001600160a01b031680611e9157606960009081526020527f366a7b92acda364086cc991f618bf9f10b629ec0f7ae94543f96b691b69ec9925460405163043b4d2f60e51b8152600481018490526001600160a01b0390911690638769a5e09060240160206040518083038186803b1580156127ce57600080fd5b505afa1580156127e2573d6000803e3d6000fd5b505050506040513d601f19601f82011682018060405250810190612806919061493e565b949350505050565b600061281982612226565b6001600160a01b038085166000818152601460209081526040808320948816835293815283822083835260158252848320815480855290835285842094845260139092529390912054939450919290911015612a2f578215612a0d57828160000160008282546128899190615116565b9250508190555081600101548160010160008282546128a89190615116565b90915550506001600160a01b038416600090815260126020526040812080549091906128d557600061290f565b815482906128e590600190615116565b8154811061290357634e487b7160e01b600052603260045260246000fd5b90600052602060002001545b600183015490915015612965576001820154600090612932600160401b886150f7565b61293c91906150e3565b90508261294982846150cb565b8154600181018355600092835260209092209091015550612a00565b815460018101835560008381526020902001819055612982611f03565b6001600160a01b03166340c10f19612998613659565b876040518363ffffffff1660e01b81526004016129b6929190614e16565b600060405180830381600087803b1580156129d057600080fd5b505af11580156129e4573d6000803e3d6000fd5b5050505084601a60008282546129fa91906150cb565b90915550505b5060028101546001909101555b6000600183018190556001600160a01b03861681526013602052604090205482555b505092915050565b6060610fe8600e613c91565b60606002805480602002602001604051908101604052809291908181526020018280548015611c845760200282019190600052602060002090815481526020019060010190808311611c70575050505050905090565b612aa2816121c4565b506040516370a0823160e01b81526000906001600160a01b038416906370a0823190612ad2903090600401614de8565b60206040518083038186803b158015612aea57600080fd5b505afa158015612afe573d6000803e3d6000fd5b505050506040513d601f19601f82011682018060405250810190612b229190614b95565b6001600160a01b03841660009081526016602052604081205491925090612b499083615116565b90508015611154576001600160a01b03808516600081815260146020908152604080832094881683529381528382209282526015815283822083548352905291822060018201805492939192859290612ba39084906150cb565b9250508190555082816001016000828254612bbe91906150cb565b909155505050506001600160a01b03939093166000908152601660205260409020555050565b6001600160a01b031660009081526012602052604090206002015490565b60606005805480602002602001604051908101604052809291908181526020018280548015611c845760200282019190600052602060002090815481526020019060010190808311611c70575050505050905090565b6001600160a01b038083166000818152601460209081526040808320948616835293815283822083835260158252848320815480855290835285842094845260139092529382205491939291118015612cb5575060008160010154115b15612ce357600180820154908301548254612cd091906150f7565b612cda91906150e3565b92505050611ca7565b506000949350505050565b6000611ca7613d4a565b600060026008541415612d1d5760405162461bcd60e51b815260040161111a90615037565b6002600855612d2b336138e8565b80612db75750612d3a84612714565b6001600160a01b0316632972b0f033866040518363ffffffff1660e01b8152600401612d67929190614e16565b60206040518083038186803b158015612d7f57600080fd5b505afa158015612d93573d6000803e3d6000fd5b505050506040513d601f19601f82011682018060405250810190612db79190614b17565b612dd35760405162461bcd60e51b815260040161111a9061506e565b612dde8484846139ce565b6001600855949350505050565b600080612df783612226565b611ca791906150cb565b6000806000612e10868661301e565b9250612e2d612e1e87612e3c565b612e278861263f565b866130fa565b93979096509294509192505050565b6000908152601060205260409020600201546001600160a01b031690565b60095460ff16612e7c5760405162461bcd60e51b815260040161111a90614fa0565b33612e85613249565b6001600160a01b03161480612ea9575033612e9e6132dc565b6001600160a01b0316145b80612ec3575033612eb8613d82565b6001600160a01b0316145b612f1e5760405162461bcd60e51b815260206004820152603860248201526000805160206151ed833981519152604482015277391037b91030baba3437b934bd32b2103234b9b0b13632b960411b606482015260840161111a565b612f26613de6565b5060005b80612f35600e61323f565b1115613010576000612f48600e836137dd565b90506000612f5582612be4565b90506000612f6161384b565b9050612f6e81848461334d565b50612f846001600160a01b038416826000613e37565b612f9a6001600160a01b03841682600019613e37565b60405163269974d160e21b81526001600160a01b03821690639a65d34490612fc89088908790600401614dfc565b600060405180830381600087803b158015612fe257600080fd5b505af1158015612ff6573d6000803e3d6000fd5b50505050505050808061300890615159565b915050612f2a565b50506009805460ff19169055565b60008281526010602052604081206128068160128461303c88612e3c565b6001600160a01b03166001600160a01b0316815260200190815260200160002085613f49565b3361306b613249565b6001600160a01b0316148061308f5750336130846132dc565b6001600160a01b0316145b6130ab5760405162461bcd60e51b815260040161111a90614f56565b6019819055604080518181526012918101919091527150726f746f636f6c207969656c642066656560701b6060820152602081018290526000805160206151cd8339815191529060800161198e565b6001600160a01b03808416600090815260066020908152604080832085851684529091528120549091829116806131b3576131336137fe565b6001600160a01b0316635e73a03487866040518363ffffffff1660e01b8152600401613160929190614dfc565b60206040518083038186803b15801561317857600080fd5b505afa15801561318c573d6000803e3d6000fd5b505050506040513d601f19601f820116820180604052508101906131b0919061493e565b90505b6040516313f3552960e21b81526001600160a01b03821690634fcd54a4906131e390899089908990600401614e2f565b604080518083038186803b1580156131fa57600080fd5b505afa15801561320e573d6000803e3d6000fd5b505050506040513d601f19601f820116820180604052508101906132329190614c87565b9097909650945050505050565b6000611ca7825490565b60007f00000000000000000000000000000000000000000000000000000000000000006001600160a01b0316638da5cb5b6040518163ffffffff1660e01b815260040160206040518083038186803b1580156132a457600080fd5b505afa1580156132b8573d6000803e3d6000fd5b505050506040513d601f19601f82011682018060405250810190610fe8919061493e565b60007f00000000000000000000000000000000000000000000000000000000000000006001600160a01b031663c34c08e56040518163ffffffff1660e01b8152600401602060405180830381600087803b15801561333957600080fd5b505af11580156132b8573d6000803e3d6000fd5b60006001600160a01b0384166133755760405162461bcd60e51b815260040161111a90615003565b600061337f613d4a565b90507f00000000000000000000000000000000000000000000000000000000000000006001600160a01b0316846001600160a01b03161415613487576133c3613b88565b6001600160a01b0316638381e18284306040518363ffffffff1660e01b81526004016133f09291906150b4565b600060405180830381600087803b15801561340a57600080fd5b505af115801561341e573d6000803e3d6000fd5b505060405163e9d97a0f60e01b81526001600160a01b038416925063e9d97a0f915061345090869089906004016150b4565b600060405180830381600087803b15801561346a57600080fd5b505af115801561347e573d6000803e3d6000fd5b50505050613565565b601b546001600160a01b0385811691161415613565576134a5613bc0565b6001600160a01b0316638381e18284306040518363ffffffff1660e01b81526004016134d29291906150b4565b600060405180830381600087803b1580156134ec57600080fd5b505af1158015613500573d6000803e3d6000fd5b5050604051633fd392db60e11b81526001600160a01b0384169250637fa725b6915061353290869089906004016150b4565b600060405180830381600087803b15801561354c57600080fd5b505af1158015613560573d6000803e3d6000fd5b505050505b50909392505050565b606660009081526020527f422cccb7cea5c0e46f340bb7b21b81debac329f72e31669c20ff0f3a05cc2b5b546001600160a01b031690565b6000818311156135b7575080611ca7565b5081611ca7565b6000806135cb8584614063565b604051630576cbc360e41b81529091506001600160a01b0382169063576cbc30906135fe90889088908890600401614e2f565b602060405180830381600087803b15801561361857600080fd5b505af115801561362c573d6000803e3d6000fd5b505050506040513d601f19601f820116820180604052508101906136509190614b95565b95945050505050565b606760009081526020527f682158d08466d11c566d5712d4396197fdd67e65be71d83c97ef719ec468867b546001600160a01b031690565b6116128363a9059cbb60e01b84846040516024016136b0929190614e16565b60408051601f198184030181529190526020810180516001600160e01b03166001600160e01b031990931692909217909152614117565b60405163f0723d9760e01b81526000906001600160a01b037f0000000000000000000000000000000000000000000000000000000000000000169063f0723d979061373a9085906103eb90600401614e16565b60206040518083038186803b15801561375257600080fd5b505afa158015613766573d6000803e3d6000fd5b505050506040513d601f19601f82011682018060405250810190611ca79190614b17565b613795600a846137e9565b506137a1600c84613836565b506137ad600e846137e9565b506001600160a01b0383166000908152601260205260409020612710600482015542600390910155611a0261384b565b6000611e9183836141e9565b6000611e91836001600160a01b038416614221565b606a60009081526020527ff3261457f4fd0b7c00a1511877ab27b74183ac470be8db3a7ecdc64335f6f979546001600160a01b031690565b6000611e91836001600160a01b03841661426b565b606860009081526020527faa071f48f62aaaa1f6320aaa7bd2ad2d552d05160892c14d699d38c9920d5f99546001600160a01b031690565b6001600160a01b0382166000908152601260209081526040808320805487855260109093529220600101556138b88484614388565b6138cc8585846138c6611f03565b89613bf8565b5050505050565b6000611e91836001600160a01b038416614408565b6001600160a01b0316600090815260016020818152604080842092845291905290205460ff1690565b60008481526010602052604081209061392986612e3c565b90506139368685856139ce565b50613949856139448861263f565b6135a6565b945061395683828761334d565b508482600001600082825461396b9190615116565b90915550506001600160a01b03811660009081526012602052604081206002810180549192889261399d908490615116565b90915550506001830154815411156139c957858160010160008282546139c39190615116565b90915550505b611a5b565b60006001600160a01b0382166139f65760405162461bcd60e51b815260040161111a90615003565b6139fe611f03565b6001600160a01b0316836001600160a01b031614613a5e5760405162461bcd60e51b815260206004820181905260248201527f4f6e6c7920757365206f6666696369616c207969656c642063757272656e6379604482015260640161111a565b600084815260106020526040812090601281613a7988612e3c565b6001600160a01b031681526020810191909152604001600020825490915015613b0b57613aa7828287613f49565b6040516340c10f1960e01b81529093506001600160a01b038616906340c10f1990613ad89087908790600401614e16565b600060405180830381600087803b158015613af257600080fd5b505af1158015613b06573d6000803e3d6000fd5b505050505b546001909101559392505050565b6000806000613b288685614063565b60405163442fd02b60e11b81529091506001600160a01b0382169063885fa05690613b5b90899089908990600401614e2f565b6040805180830381600087803b158015613b7457600080fd5b505af115801561320e573d6000803e3d6000fd5b607460009081526020527f23aec33011cec136936404546e8d71610b1ea813717b1b6bf3b77b689326a34b546001600160a01b031690565b607560009081526020527f7786f24ec8e68c1f537753be90a834aeb9797aa2ade11dc9f54973d24a879c0e546001600160a01b031690565b6000613c0385612e3c565b9050613c108584846139ce565b50613c1c868286614420565b600085815260106020526040902054613c3585826150cb565b6000878152601060209081526040808320939093556001600160a01b03851682526012905290812060028101805491928892613c729084906150cb565b90915550613c879050878461161289866150cb565b5050505050505050565b60606000611e9183614689565b600081846001600160a01b031663dd62ed3e30866040518363ffffffff1660e01b8152600401613ccf929190614dfc565b60206040518083038186803b158015613ce757600080fd5b505afa158015613cfb573d6000803e3d6000fd5b505050506040513d601f19601f82011682018060405250810190613d1f9190614b95565b613d2991906150cb565b90506111548463095ea7b360e01b85846040516024016136b0929190614e16565b607360009081526020527f915da9abdae48b56e38f1c8581eb1f6060cdb1aac1fd60a1040a8eab69db2431546001600160a01b031690565b60405163b4ed0b6d60e01b81526103e960048201526000907f00000000000000000000000000000000000000000000000000000000000000006001600160a01b03169063b4ed0b6d9060240160206040518083038186803b1580156132a457600080fd5b6000805b80613df5600e61323f565b1115613e33576000613e08600e836137dd565b9050613e13816121c4565b613e1d90846150cb565b9250508080613e2b90615159565b915050613dea565b5090565b801580613ebf5750604051636eb1769f60e11b81526001600160a01b0384169063dd62ed3e90613e6d9030908690600401614dfc565b60206040518083038186803b158015613e8557600080fd5b505afa158015613e99573d6000803e3d6000fd5b505050506040513d601f19601f82011682018060405250810190613ebd9190614b95565b155b613f2a5760405162461bcd60e51b815260206004820152603660248201527f5361666545524332303a20617070726f76652066726f6d206e6f6e2d7a65726f60448201527520746f206e6f6e2d7a65726f20616c6c6f77616e636560501b606482015260840161111a565b6116128363095ea7b360e01b84846040516024016136b0929190614e16565b6000613f53611f03565b6001600160a01b0316826001600160a01b031614613faa5760405162461bcd60e51b815260206004820152601460248201527357726f6e67207969656c642063757272656e637960601b604482015260640161111a565b600184015483548491101561405957600081866001015481548110613fdf57634e487b7160e01b600052603260045260246000fd5b90600052602060002001548260018480549050613ffc9190615116565b8154811061401a57634e487b7160e01b600052603260045260246000fd5b906000526020600020015461402f9190615116565b9050600160401b81876000015461404691906150f7565b61405091906150e3565b92505050611e91565b6000915050611e91565b6001600160a01b03808316600090815260066020908152604080832085851684529091529020541680611ca7576140986137fe565b6001600160a01b0316631757616884846040518363ffffffff1660e01b81526004016140c5929190614dfc565b602060405180830381600087803b1580156140df57600080fd5b505af11580156140f3573d6000803e3d6000fd5b505050506040513d601f19601f82011682018060405250810190611e91919061493e565b600061416c826040518060400160405280602081526020017f5361666545524332303a206c6f772d6c6576656c2063616c6c206661696c6564815250856001600160a01b03166146e59092919063ffffffff16565b805190915015611612578080602001905181019061418a9190614b17565b6116125760405162461bcd60e51b815260206004820152602a60248201527f5361666545524332303a204552433230206f7065726174696f6e20646964206e6044820152691bdd081cdd58d8d9595960b21b606482015260840161111a565b600082600001828154811061420e57634e487b7160e01b600052603260045260246000fd5b9060005260206000200154905092915050565b600061422d8383614408565b61426357508154600181810184556000848152602080822090930184905584548482528286019093526040902091909155611ca7565b506000611ca7565b6000818152600183016020526040812054801561437e57600061428f600183615116565b85549091506000906142a390600190615116565b90508181146143245760008660000182815481106142d157634e487b7160e01b600052603260045260246000fd5b906000526020600020015490508087600001848154811061430257634e487b7160e01b600052603260045260246000fd5b6000918252602080832090910192909255918252600188019052604090208390555b855486908061434357634e487b7160e01b600052603160045260246000fd5b600190038181906000526020600020016000905590558560010160008681526020019081526020016000206000905560019350505050611ca7565b6000915050611ca7565b614393600a826138d3565b6143d75760405162461bcd60e51b81526020600482015260156024820152742737ba1030b71030b8383937bb32b2103a37b5b2b760591b604482015260640161111a565b60009182526010602052604090912060020180546001600160a01b0319166001600160a01b03909216919091179055565b60009081526001919091016020526040902054151590565b6144356001600160a01b0383168430846146f4565b600061443f613d4a565b90506144556001600160a01b0384168284613c9e565b7f00000000000000000000000000000000000000000000000000000000000000006001600160a01b0316836001600160a01b031614156145885760405162dace6960e11b8152600481018390526001600160a01b038216906301b59cd290602401600060405180830381600087803b1580156144d057600080fd5b505af11580156144e4573d6000803e3d6000fd5b5050505060006144f2613b88565b90506145286001600160a01b037f0000000000000000000000000000000000000000000000000000000000000000168285613c9e565b60405163534a7e1d60e11b8152600481018490526001600160a01b0382169063a694fc3a90602401600060405180830381600087803b15801561456a57600080fd5b505af115801561457e573d6000803e3d6000fd5b5050505050614680565b601b546001600160a01b03848116911614156146385760405163011cb12160e51b8152600481018390526001600160a01b03821690632396242090602401600060405180830381600087803b1580156145e057600080fd5b505af11580156145f4573d6000803e3d6000fd5b505050506000614602613bc0565b90506145286001600160a01b037f0000000000000000000000000000000000000000000000000000000000000000168285613c9e565b60405162461bcd60e51b815260206004820181905260248201527f5374726174656779206f6e6c7920666f72206176617820616e64207361766178604482015260640161111a565b61115483611cad565b6060816000018054806020026020016040519081016040528092919081815260200182805480156146d957602002820191906000526020600020905b8154815260200190600101908083116146c5575b50505050509050919050565b6060612806848460008561472c565b6040516001600160a01b03808516602483015283166044820152606481018290526111549085906323b872dd60e01b906084016136b0565b60608247101561478d5760405162461bcd60e51b815260206004820152602660248201527f416464726573733a20696e73756666696369656e742062616c616e636520666f6044820152651c8818d85b1b60d21b606482015260840161111a565b843b6147db5760405162461bcd60e51b815260206004820152601d60248201527f416464726573733a2063616c6c20746f206e6f6e2d636f6e7472616374000000604482015260640161111a565b600080866001600160a01b031685876040516147f79190614dcc565b60006040518083038185875af1925050503d8060008114614834576040519150601f19603f3d011682016040523d82523d6000602084013e614839565b606091505b5091509150614849828286614854565b979650505050505050565b60608315614863575081611e91565b8251156148735782518084602001fd5b8160405162461bcd60e51b815260040161111a9190614f43565b60405180610180016040528060006001600160a01b0316815260200160006001600160a01b03168152602001600081526020016000815260200160008152602001600081526020016000801916815260200160008152602001600081526020016000600281111561490e57634e487b7160e01b600052602160045260246000fd5b815260006020820181905260409091015290565b600060208284031215614933578081fd5b8135611e91816151b4565b60006020828403121561494f578081fd5b8151611e91816151b4565b6000806040838503121561496c578081fd5b8235614977816151b4565b91506020830135614987816151b4565b809150509250929050565b6000806000604084860312156149a6578081fd5b83356149b1816151b4565b925060208401356001600160401b03808211156149cc578283fd5b818601915086601f8301126149df578283fd5b8135818111156149ed578384fd5b8760208285010111156149fe578384fd5b6020830194508093505050509250925092565b60008060408385031215614a23578182fd5b8235614a2e816151b4565b946020939093013593505050565b600080600060608486031215614a50578283fd5b8335614a5b816151b4565b9250602084013591506040840135614a72816151b4565b809150509250925092565b600080600080600060a08688031215614a94578081fd5b8535614a9f816151b4565b9450602086013593506040860135614ab6816151b4565b94979396509394606081013594506080013592915050565b60008060008060808587031215614ae3578384fd5b8435614aee816151b4565b935060208501359250604085013591506060850135614b0c816151b4565b939692955090935050565b600060208284031215614b28578081fd5b81518015158114611e91578182fd5b6000806040838503121561496c578182fd5b600080600060608486031215614b5d578283fd5b8335614b68816151b4565b95602085013595506040909401359392505050565b600060208284031215614b8e578081fd5b5035919050565b600060208284031215614ba6578081fd5b5051919050565b60008060408385031215614bbf578182fd5b823591506020830135614987816151b4565b600080600060608486031215614be5578081fd5b833592506020840135614bf7816151b4565b91506040840135614a72816151b4565b60008060008060808587031215614c1c578182fd5b843593506020850135614c2e816151b4565b92506040850135614c3e816151b4565b91506060850135614b0c816151b4565b600080600080600060a08688031215614c65578283fd5b853594506020860135614c77816151b4565b93506040860135614ab6816151b4565b60008060408385031215614c99578182fd5b505080516020909101519092909150565b60008060008060808587031215614cbf578182fd5b84359350602085013592506040850135614c3e816151b4565b6001600160a01b03169052565b60008151808452614cfd81602086016020860161512d565b601f01601f19169290920160200192915050565b60038110614d2f57634e487b7160e01b600052602160045260246000fd5b9052565b614d3e828251614cd8565b6020810151614d506020840182614cd8565b5060408101516040830152606081015160608301526080810151608083015260a081015160a083015260c081015160c083015260e081015160e083015261010080820151818401525061012080820151614dac82850182614d11565b505061014081810151908301526101608082015161115482850182614cd8565b60008251614dde81846020870161512d565b9190910192915050565b6001600160a01b0391909116815260200190565b6001600160a01b0392831681529116602082015260400190565b6001600160a01b03929092168252602082015260400190565b6001600160a01b0393841681526020810192909252909116604082015260600190565b6020808252825182820181905260009190848201906040850190845b81811015614e935783516001600160a01b031683529284019291840191600101614e6e565b50909695505050505050565b6020808252825182820181905260009190848201906040850190845b81811015614e9357614ece838551614d33565b928401926101809290920191600101614ebb565b6020808252825182820181905260009190848201906040850190845b81811015614e9357835183529284019291840191600101614efe565b60008315158252604060208301526128066040830184614ce5565b60208101611ca78284614d11565b600060208252611e916020830184614ce5565b6020808252602a908201527f526f6c65733a2063616c6c6572206973206e6f7420746865206f776e6572206f604082015269391032bc32b1baba37b960b11b606082015260800190565b6020808252601690820152755374726174656779206973206e6f742061637469766560501b604082015260600190565b6020808252601990820152784e6f7420617574686f72697a656420746f206d69677261746560381b604082015260600190565b6020808252601a9082015279446f6e27742073656e6420746f207a65726f206164647265737360301b604082015260600190565b6020808252601f908201527f5265656e7472616e637947756172643a207265656e7472616e742063616c6c00604082015260600190565b6020808252601f908201527f4e6f7420617574686f72697a656420746f20636f6c6c656374207969656c6400604082015260600190565b6101808101611ca78284614d33565b9182526001600160a01b0316602082015260400190565b600082198211156150de576150de615188565b500190565b6000826150f2576150f261519e565b500490565b600081600019048311821515161561511157615111615188565b500290565b60008282101561512857615128615188565b500390565b60005b83811015615148578181015183820152602001615130565b838111156111545750506000910152565b600060001982141561516d5761516d615188565b5060010190565b6000826151835761518361519e565b500690565b634e487b7160e01b600052601160045260246000fd5b634e487b7160e01b600052601260045260246000fd5b6001600160a01b03811681146151c957600080fd5b5056fe3a64504f0bc0c335e2aecb78638a257e0351a3fe0370861fd54ee4190b92093343616c6c6572206973206e6f7420746865206f776e65722c206578656375746fa264697066735822122085c823b85c1ec868aba3b03b91caed90cc05462a6a814d5389f59088461da2a964736f6c63430008030033405787fa12a823e0f2b7631cc41b3ba8828b3321ca811111fa75cd3aa3bb5ace",
  "devdoc": {
    "kind": "dev",
    "methods": {
      "charactersPlayed()": {
        "details": "returns all characters played by this contract (e.g. stable coin, oracle registry)"
      },
      "dependsOnCharacters()": {
        "details": "returns all the character dependencies like FEE_RECIPIENT"
      },
      "dependsOnRoles()": {
        "details": "returns all the roles dependencies of this contract like FUND_TRANSFERER"
      },
      "rolesPlayed()": {
        "details": "returns all roles played by this contract"
      },
      "updateMainCharacterCache(uint256)": {
        "details": "Updates the main character cache for a speciic character"
      },
      "updateRoleCache(uint256,address)": {
        "details": "Updates the role cache for a specific role and address"
      }
    },
    "version": 1
  },
  "userdoc": {
    "kind": "user",
    "methods": {
      "_viewTVL(address)": {
        "notice": "View TVL in a token"
      },
      "acceptMigration(uint256,address,address,uint256,uint256)": {
        "notice": "Accept migrated assets from another tranche"
      },
      "approveToken(address,bytes)": {
        "notice": "set up a token to be supported by this strategy"
      },
      "approvedToken(address)": {
        "notice": "Is a token supported by this strategy?"
      },
      "approvedTokensCount()": {
        "notice": "count the number of tokens this strategy currently supports"
      },
      "checkApprovedAndEncode(address)": {
        "notice": "Initialization, encoding args"
      },
      "collectYieldValueBorrowable(uint256,address,address,address)": {
        "notice": "For a specific tranche, collect yield and view value and borrowable per 10k"
      },
      "convertReward2Stable(address,uint256,uint256)": {
        "notice": "Convert rewardAmount of reward into targetBid amount of the yield token"
      },
      "disapproveToken(address,bytes)": {
        "notice": "Give some token the stink-eye and tell it to never show its face again"
      },
      "disapprovedTokensCount()": {
        "notice": "count the number of tokens this strategy currently supports"
      },
      "migrateAllTo(address)": {
        "notice": "Migrate all tranches managed to a new strategy, using strategy registry as go-between"
      },
      "migrateStrategy(uint256,address,address,address)": {
        "notice": "Migrate contents of tranche to new strategy"
      },
      "newCurrentOracle(address,address)": {
        "notice": "Notify contract to update oracle cache"
      },
      "registerDepositFor(address,uint256,uint256,address)": {
        "notice": "Register deposit to tranche on behalf of user (to be called by other contract)"
      },
      "registerMintTranche(address,uint256,address,uint256,uint256)": {
        "notice": "Allows tranche contracts to register new tranches"
      },
      "rescueCollateral(address,uint256,address)": {
        "notice": "In an emergency, withdraw tokens from yield generator"
      },
      "rescueNative(uint256,address)": {
        "notice": "Rescue any stranded native currency"
      },
      "rescueStrandedTokens(address,uint256,address)": {
        "notice": "In an emergency, withdraw any tokens stranded in this contract's balance"
      },
      "setApfSmoothingPer10k(uint256)": {
        "notice": "Since return rates vary, we smooth"
      },
      "setFeePer10k(uint256)": {
        "notice": "Set how large a fee the protocol takes from yield"
      },
      "setMinimumBidPer10k(uint256)": {
        "notice": "Set how much of a kick-back yield converters get"
      },
      "stabilityFeePer10k(address)": {
        "notice": "View Stability fee if any"
      },
      "tallyHarvestBalance(address,address)": {
        "notice": "Apply harvested yield to accounts, for one token"
      },
      "tallyReward(address,address)": {
        "notice": "Register any excess reward in contract balance and assign it to an asset"
      },
      "trancheToken(uint256)": {
        "notice": "Returns the token associated with a tranche"
      },
      "trancheTokenID(uint256)": {
        "notice": "The ID of the tranche token (relevant if not handling ERC20)"
      },
      "viewAPF(address)": {
        "notice": "Annual percentage factor, APR = APF - 100%"
      },
      "viewAllApprovedTokens()": {
        "notice": "View all tokens currently supported by this strategy"
      },
      "viewAllDisapprovedTokens()": {
        "notice": "View all tokens currently supported by this strategy"
      },
      "viewAllStrategyMetadata()": {
        "notice": "view metadata for all tokens in an array"
      },
      "viewAllTokensEver()": {
        "notice": "All the tokens this strategy has ever touched"
      },
      "viewBorrowable(uint256)": {
        "notice": "View borrowable per10k of tranche"
      },
      "viewEstimatedHarvestable(address)": {
        "notice": "View estimated harvestable amount"
      },
      "viewHarvestBalance2Tally(address,address)": {
        "notice": "View outstanding yield that needs to be distributed to accounts of an asset"
      },
      "viewSourceHarvestable(address)": {
        "notice": "View estimated harvestable amount in source strategy"
      },
      "viewStrategyMetadata(address)": {
        "notice": "View metadata for a token"
      },
      "viewTargetCollateralAmount(uint256)": {
        "notice": "Calculate collateral amount held by tranche (e.g. taking into account compounding)"
      },
      "viewValue(uint256,address)": {
        "notice": "View the value of a tranche"
      },
      "viewValueBorrowable(uint256,address)": {
        "notice": "View value and borrowable per10k of tranche"
      },
      "viewYield(uint256,address)": {
        "notice": "View accrued yield for a tranche"
      },
      "viewYieldValueBorrowable(uint256,address,address)": {
        "notice": "For a specific tranche, view its accrued yield, value and borrowable per 10k"
      },
      "withdraw(uint256,uint256,address,address)": {
        "notice": "Withdraw tokens from tranche (only callable by fund transferer)"
      },
      "yieldCurrency()": {
        "notice": "The currency used to aggregate yield in this strategy (mintable)"
      },
      "yieldType()": {
        "notice": "This is a repaying strategy"
      }
    },
    "version": 1
  },
  "storageLayout": {
    "storage": [
      {
        "astId": 29200,
        "contract": "contracts/strategies/LiquidYieldStrategy.sol:LiquidYieldStrategy",
        "label": "mainCharacterCache",
        "offset": 0,
        "slot": "0",
        "type": "t_mapping(t_uint256,t_address)"
      },
      {
        "astId": 29206,
        "contract": "contracts/strategies/LiquidYieldStrategy.sol:LiquidYieldStrategy",
        "label": "roleCache",
        "offset": 0,
        "slot": "1",
        "type": "t_mapping(t_address,t_mapping(t_uint256,t_bool))"
      },
      {
        "astId": 29209,
        "contract": "contracts/strategies/LiquidYieldStrategy.sol:LiquidYieldStrategy",
        "label": "_dependsOnCharacters",
        "offset": 0,
        "slot": "2",
        "type": "t_array(t_uint256)dyn_storage"
      },
      {
        "astId": 29212,
        "contract": "contracts/strategies/LiquidYieldStrategy.sol:LiquidYieldStrategy",
        "label": "_dependsOnRoles",
        "offset": 0,
        "slot": "3",
        "type": "t_array(t_uint256)dyn_storage"
      },
      {
        "astId": 29215,
        "contract": "contracts/strategies/LiquidYieldStrategy.sol:LiquidYieldStrategy",
        "label": "_charactersPlayed",
        "offset": 0,
        "slot": "4",
        "type": "t_array(t_uint256)dyn_storage"
      },
      {
        "astId": 29218,
        "contract": "contracts/strategies/LiquidYieldStrategy.sol:LiquidYieldStrategy",
        "label": "_rolesPlayed",
        "offset": 0,
        "slot": "5",
        "type": "t_array(t_uint256)dyn_storage"
      },
      {
        "astId": 24930,
        "contract": "contracts/strategies/LiquidYieldStrategy.sol:LiquidYieldStrategy",
        "label": "_oracleCache",
        "offset": 0,
        "slot": "6",
        "type": "t_mapping(t_address,t_mapping(t_address,t_address))"
      },
      {
        "astId": 15136,
        "contract": "contracts/strategies/LiquidYieldStrategy.sol:LiquidYieldStrategy",
        "label": "_slotTranches",
        "offset": 0,
        "slot": "7",
        "type": "t_mapping(t_uint256,t_address)"
      },
      {
        "astId": 223,
        "contract": "contracts/strategies/LiquidYieldStrategy.sol:LiquidYieldStrategy",
        "label": "_status",
        "offset": 0,
        "slot": "8",
        "type": "t_uint256"
      },
      {
        "astId": 11462,
        "contract": "contracts/strategies/LiquidYieldStrategy.sol:LiquidYieldStrategy",
        "label": "isActive",
        "offset": 0,
        "slot": "9",
        "type": "t_bool"
      },
      {
        "astId": 11468,
        "contract": "contracts/strategies/LiquidYieldStrategy.sol:LiquidYieldStrategy",
        "label": "_approvedTokens",
        "offset": 0,
        "slot": "10",
        "type": "t_struct(AddressSet)5499_storage"
      },
      {
        "astId": 11471,
        "contract": "contracts/strategies/LiquidYieldStrategy.sol:LiquidYieldStrategy",
        "label": "_disapprovedTokens",
        "offset": 0,
        "slot": "12",
        "type": "t_struct(AddressSet)5499_storage"
      },
      {
        "astId": 11474,
        "contract": "contracts/strategies/LiquidYieldStrategy.sol:LiquidYieldStrategy",
        "label": "_allTokensEver",
        "offset": 0,
        "slot": "14",
        "type": "t_struct(AddressSet)5499_storage"
      },
      {
        "astId": 11486,
        "contract": "contracts/strategies/LiquidYieldStrategy.sol:LiquidYieldStrategy",
        "label": "_accounts",
        "offset": 0,
        "slot": "16",
        "type": "t_mapping(t_uint256,t_struct(CollateralAccount)11481_storage)"
      },
      {
        "astId": 11501,
        "contract": "contracts/strategies/LiquidYieldStrategy.sol:LiquidYieldStrategy",
        "label": "apfSmoothingPer10k",
        "offset": 0,
        "slot": "17",
        "type": "t_uint256"
      },
      {
        "astId": 11506,
        "contract": "contracts/strategies/LiquidYieldStrategy.sol:LiquidYieldStrategy",
        "label": "tokenMetadata",
        "offset": 0,
        "slot": "18",
        "type": "t_mapping(t_address,t_struct(TokenMetadata)11498_storage)"
      },
      {
        "astId": 38209,
        "contract": "contracts/strategies/LiquidYieldStrategy.sol:LiquidYieldStrategy",
        "label": "cumulConverted2Stable",
        "offset": 0,
        "slot": "19",
        "type": "t_mapping(t_contract(IERC20)876,t_uint256)"
      },
      {
        "astId": 38217,
        "contract": "contracts/strategies/LiquidYieldStrategy.sol:LiquidYieldStrategy",
        "label": "assetYieldMeta",
        "offset": 0,
        "slot": "20",
        "type": "t_mapping(t_contract(IERC20)876,t_mapping(t_address,t_struct(AssetYieldMetadata)38199_storage))"
      },
      {
        "astId": 38225,
        "contract": "contracts/strategies/LiquidYieldStrategy.sol:LiquidYieldStrategy",
        "label": "pendingConvertedReward",
        "offset": 0,
        "slot": "21",
        "type": "t_mapping(t_contract(IERC20)876,t_mapping(t_uint256,t_struct(RewardConversionCheckpt)38204_storage))"
      },
      {
        "astId": 38230,
        "contract": "contracts/strategies/LiquidYieldStrategy.sol:LiquidYieldStrategy",
        "label": "rewardBalanceAccountedFor",
        "offset": 0,
        "slot": "22",
        "type": "t_mapping(t_contract(IERC20)876,t_uint256)"
      },
      {
        "astId": 38235,
        "contract": "contracts/strategies/LiquidYieldStrategy.sol:LiquidYieldStrategy",
        "label": "rewardTokens",
        "offset": 0,
        "slot": "23",
        "type": "t_mapping(t_address,t_struct(AddressSet)5499_storage)"
      },
      {
        "astId": 38238,
        "contract": "contracts/strategies/LiquidYieldStrategy.sol:LiquidYieldStrategy",
        "label": "minimumBidPer10k",
        "offset": 0,
        "slot": "24",
        "type": "t_uint256"
      },
      {
        "astId": 38241,
        "contract": "contracts/strategies/LiquidYieldStrategy.sol:LiquidYieldStrategy",
        "label": "feePer10k",
        "offset": 0,
        "slot": "25",
        "type": "t_uint256"
      },
      {
        "astId": 38244,
        "contract": "contracts/strategies/LiquidYieldStrategy.sol:LiquidYieldStrategy",
        "label": "viewAllFeesEver",
        "offset": 0,
        "slot": "26",
        "type": "t_uint256"
      },
      {
        "astId": 35603,
        "contract": "contracts/strategies/LiquidYieldStrategy.sol:LiquidYieldStrategy",
        "label": "sAvax",
        "offset": 0,
        "slot": "27",
        "type": "t_address"
      }
    ],
    "types": {
      "t_address": {
        "encoding": "inplace",
        "label": "address",
        "numberOfBytes": "20"
      },
      "t_array(t_bytes32)dyn_storage": {
        "base": "t_bytes32",
        "encoding": "dynamic_array",
        "label": "bytes32[]",
        "numberOfBytes": "32"
      },
      "t_array(t_uint256)dyn_storage": {
        "base": "t_uint256",
        "encoding": "dynamic_array",
        "label": "uint256[]",
        "numberOfBytes": "32"
      },
      "t_bool": {
        "encoding": "inplace",
        "label": "bool",
        "numberOfBytes": "1"
      },
      "t_bytes32": {
        "encoding": "inplace",
        "label": "bytes32",
        "numberOfBytes": "32"
      },
      "t_contract(IERC20)876": {
        "encoding": "inplace",
        "label": "contract IERC20",
        "numberOfBytes": "20"
      },
      "t_mapping(t_address,t_address)": {
        "encoding": "mapping",
        "key": "t_address",
        "label": "mapping(address => address)",
        "numberOfBytes": "32",
        "value": "t_address"
      },
      "t_mapping(t_address,t_mapping(t_address,t_address))": {
        "encoding": "mapping",
        "key": "t_address",
        "label": "mapping(address => mapping(address => address))",
        "numberOfBytes": "32",
        "value": "t_mapping(t_address,t_address)"
      },
      "t_mapping(t_address,t_mapping(t_uint256,t_bool))": {
        "encoding": "mapping",
        "key": "t_address",
        "label": "mapping(address => mapping(uint256 => bool))",
        "numberOfBytes": "32",
        "value": "t_mapping(t_uint256,t_bool)"
      },
      "t_mapping(t_address,t_struct(AddressSet)5499_storage)": {
        "encoding": "mapping",
        "key": "t_address",
        "label": "mapping(address => struct EnumerableSet.AddressSet)",
        "numberOfBytes": "32",
        "value": "t_struct(AddressSet)5499_storage"
      },
      "t_mapping(t_address,t_struct(AssetYieldMetadata)38199_storage)": {
        "encoding": "mapping",
        "key": "t_address",
        "label": "mapping(address => struct MultiYieldConversionStrategy.AssetYieldMetadata)",
        "numberOfBytes": "32",
        "value": "t_struct(AssetYieldMetadata)38199_storage"
      },
      "t_mapping(t_address,t_struct(TokenMetadata)11498_storage)": {
        "encoding": "mapping",
        "key": "t_address",
        "label": "mapping(address => struct Strategy.TokenMetadata)",
        "numberOfBytes": "32",
        "value": "t_struct(TokenMetadata)11498_storage"
      },
      "t_mapping(t_bytes32,t_uint256)": {
        "encoding": "mapping",
        "key": "t_bytes32",
        "label": "mapping(bytes32 => uint256)",
        "numberOfBytes": "32",
        "value": "t_uint256"
      },
      "t_mapping(t_contract(IERC20)876,t_mapping(t_address,t_struct(AssetYieldMetadata)38199_storage))": {
        "encoding": "mapping",
        "key": "t_contract(IERC20)876",
        "label": "mapping(contract IERC20 => mapping(address => struct MultiYieldConversionStrategy.AssetYieldMetadata))",
        "numberOfBytes": "32",
        "value": "t_mapping(t_address,t_struct(AssetYieldMetadata)38199_storage)"
      },
      "t_mapping(t_contract(IERC20)876,t_mapping(t_uint256,t_struct(RewardConversionCheckpt)38204_storage))": {
        "encoding": "mapping",
        "key": "t_contract(IERC20)876",
        "label": "mapping(contract IERC20 => mapping(uint256 => struct MultiYieldConversionStrategy.RewardConversionCheckpt))",
        "numberOfBytes": "32",
        "value": "t_mapping(t_uint256,t_struct(RewardConversionCheckpt)38204_storage)"
      },
      "t_mapping(t_contract(IERC20)876,t_uint256)": {
        "encoding": "mapping",
        "key": "t_contract(IERC20)876",
        "label": "mapping(contract IERC20 => uint256)",
        "numberOfBytes": "32",
        "value": "t_uint256"
      },
      "t_mapping(t_uint256,t_address)": {
        "encoding": "mapping",
        "key": "t_uint256",
        "label": "mapping(uint256 => address)",
        "numberOfBytes": "32",
        "value": "t_address"
      },
      "t_mapping(t_uint256,t_bool)": {
        "encoding": "mapping",
        "key": "t_uint256",
        "label": "mapping(uint256 => bool)",
        "numberOfBytes": "32",
        "value": "t_bool"
      },
      "t_mapping(t_uint256,t_struct(CollateralAccount)11481_storage)": {
        "encoding": "mapping",
        "key": "t_uint256",
        "label": "mapping(uint256 => struct Strategy.CollateralAccount)",
        "numberOfBytes": "32",
        "value": "t_struct(CollateralAccount)11481_storage"
      },
      "t_mapping(t_uint256,t_struct(RewardConversionCheckpt)38204_storage)": {
        "encoding": "mapping",
        "key": "t_uint256",
        "label": "mapping(uint256 => struct MultiYieldConversionStrategy.RewardConversionCheckpt)",
        "numberOfBytes": "32",
        "value": "t_struct(RewardConversionCheckpt)38204_storage"
      },
      "t_struct(AddressSet)5499_storage": {
        "encoding": "inplace",
        "label": "struct EnumerableSet.AddressSet",
        "members": [
          {
            "astId": 5498,
            "contract": "contracts/strategies/LiquidYieldStrategy.sol:LiquidYieldStrategy",
            "label": "_inner",
            "offset": 0,
            "slot": "0",
            "type": "t_struct(Set)5198_storage"
          }
        ],
        "numberOfBytes": "64"
      },
      "t_struct(AssetYieldMetadata)38199_storage": {
        "encoding": "inplace",
        "label": "struct MultiYieldConversionStrategy.AssetYieldMetadata",
        "members": [
          {
            "astId": 38196,
            "contract": "contracts/strategies/LiquidYieldStrategy.sol:LiquidYieldStrategy",
            "label": "cumulConvCheckpt",
            "offset": 0,
            "slot": "0",
            "type": "t_uint256"
          },
          {
            "astId": 38198,
            "contract": "contracts/strategies/LiquidYieldStrategy.sol:LiquidYieldStrategy",
            "label": "rewardsSinceCheckpt",
            "offset": 0,
            "slot": "1",
            "type": "t_uint256"
          }
        ],
        "numberOfBytes": "64"
      },
      "t_struct(CollateralAccount)11481_storage": {
        "encoding": "inplace",
        "label": "struct Strategy.CollateralAccount",
        "members": [
          {
            "astId": 11476,
            "contract": "contracts/strategies/LiquidYieldStrategy.sol:LiquidYieldStrategy",
            "label": "collateral",
            "offset": 0,
            "slot": "0",
            "type": "t_uint256"
          },
          {
            "astId": 11478,
            "contract": "contracts/strategies/LiquidYieldStrategy.sol:LiquidYieldStrategy",
            "label": "yieldCheckptIdx",
            "offset": 0,
            "slot": "1",
            "type": "t_uint256"
          },
          {
            "astId": 11480,
            "contract": "contracts/strategies/LiquidYieldStrategy.sol:LiquidYieldStrategy",
            "label": "trancheToken",
            "offset": 0,
            "slot": "2",
            "type": "t_address"
          }
        ],
        "numberOfBytes": "96"
      },
      "t_struct(RewardConversionCheckpt)38204_storage": {
        "encoding": "inplace",
        "label": "struct MultiYieldConversionStrategy.RewardConversionCheckpt",
        "members": [
          {
            "astId": 38201,
            "contract": "contracts/strategies/LiquidYieldStrategy.sol:LiquidYieldStrategy",
            "label": "convertedStable",
            "offset": 0,
            "slot": "0",
            "type": "t_uint256"
          },
          {
            "astId": 38203,
            "contract": "contracts/strategies/LiquidYieldStrategy.sol:LiquidYieldStrategy",
            "label": "sourceRewards",
            "offset": 0,
            "slot": "1",
            "type": "t_uint256"
          }
        ],
        "numberOfBytes": "64"
      },
      "t_struct(Set)5198_storage": {
        "encoding": "inplace",
        "label": "struct EnumerableSet.Set",
        "members": [
          {
            "astId": 5193,
            "contract": "contracts/strategies/LiquidYieldStrategy.sol:LiquidYieldStrategy",
            "label": "_values",
            "offset": 0,
            "slot": "0",
            "type": "t_array(t_bytes32)dyn_storage"
          },
          {
            "astId": 5197,
            "contract": "contracts/strategies/LiquidYieldStrategy.sol:LiquidYieldStrategy",
            "label": "_indexes",
            "offset": 0,
            "slot": "1",
            "type": "t_mapping(t_bytes32,t_uint256)"
          }
        ],
        "numberOfBytes": "64"
      },
      "t_struct(TokenMetadata)11498_storage": {
        "encoding": "inplace",
        "label": "struct Strategy.TokenMetadata",
        "members": [
          {
            "astId": 11489,
            "contract": "contracts/strategies/LiquidYieldStrategy.sol:LiquidYieldStrategy",
            "label": "yieldCheckpoints",
            "offset": 0,
            "slot": "0",
            "type": "t_array(t_uint256)dyn_storage"
          },
          {
            "astId": 11491,
            "contract": "contracts/strategies/LiquidYieldStrategy.sol:LiquidYieldStrategy",
            "label": "totalCollateralThisPhase",
            "offset": 0,
            "slot": "1",
            "type": "t_uint256"
          },
          {
            "astId": 11493,
            "contract": "contracts/strategies/LiquidYieldStrategy.sol:LiquidYieldStrategy",
            "label": "totalCollateralNow",
            "offset": 0,
            "slot": "2",
            "type": "t_uint256"
          },
          {
            "astId": 11495,
            "contract": "contracts/strategies/LiquidYieldStrategy.sol:LiquidYieldStrategy",
            "label": "apfLastUpdated",
            "offset": 0,
            "slot": "3",
            "type": "t_uint256"
          },
          {
            "astId": 11497,
            "contract": "contracts/strategies/LiquidYieldStrategy.sol:LiquidYieldStrategy",
            "label": "apf",
            "offset": 0,
            "slot": "4",
            "type": "t_uint256"
          }
        ],
        "numberOfBytes": "160"
      },
      "t_uint256": {
        "encoding": "inplace",
        "label": "uint256",
        "numberOfBytes": "32"
      }
    }
  }
}