{
  "address": "0xBf1615f0a8c158444e2De263d0631dab34E60d62",
  "abi": [
    {
      "inputs": [
        {
          "internalType": "address[]",
          "name": "_rewardTokens",
          "type": "address[]"
        },
        {
          "internalType": "address[]",
          "name": "recipients",
          "type": "address[]"
        },
        {
          "internalType": "uint256[]",
          "name": "weights",
          "type": "uint256[]"
        },
        {
          "internalType": "address",
          "name": "_roles",
          "type": "address"
        }
      ],
      "stateMutability": "nonpayable",
      "type": "constructor"
    },
    {
      "anonymous": false,
      "inputs": [
        {
          "indexed": false,
          "internalType": "string",
          "name": "param",
          "type": "string"
        },
        {
          "indexed": false,
          "internalType": "uint256",
          "name": "value",
          "type": "uint256"
        }
      ],
      "name": "ParameterUpdated",
      "type": "event"
    },
    {
      "anonymous": false,
      "inputs": [
        {
          "indexed": false,
          "internalType": "string",
          "name": "param",
          "type": "string"
        },
        {
          "indexed": false,
          "internalType": "address",
          "name": "subject",
          "type": "address"
        },
        {
          "indexed": false,
          "internalType": "uint256",
          "name": "value",
          "type": "uint256"
        }
      ],
      "name": "SubjectParameterUpdated",
      "type": "event"
    },
    {
      "anonymous": false,
      "inputs": [
        {
          "indexed": false,
          "internalType": "string",
          "name": "param",
          "type": "string"
        },
        {
          "indexed": false,
          "internalType": "address",
          "name": "subject",
          "type": "address"
        }
      ],
      "name": "SubjectUpdated",
      "type": "event"
    },
    {
      "inputs": [
        {
          "internalType": "uint256",
          "name": "",
          "type": "uint256"
        }
      ],
      "name": "_charactersPlayed",
      "outputs": [
        {
          "internalType": "uint256",
          "name": "",
          "type": "uint256"
        }
      ],
      "stateMutability": "view",
      "type": "function"
    },
    {
      "inputs": [
        {
          "internalType": "uint256",
          "name": "",
          "type": "uint256"
        }
      ],
      "name": "_dependsOnCharacters",
      "outputs": [
        {
          "internalType": "uint256",
          "name": "",
          "type": "uint256"
        }
      ],
      "stateMutability": "view",
      "type": "function"
    },
    {
      "inputs": [
        {
          "internalType": "uint256",
          "name": "",
          "type": "uint256"
        }
      ],
      "name": "_dependsOnRoles",
      "outputs": [
        {
          "internalType": "uint256",
          "name": "",
          "type": "uint256"
        }
      ],
      "stateMutability": "view",
      "type": "function"
    },
    {
      "inputs": [
        {
          "internalType": "uint256",
          "name": "",
          "type": "uint256"
        }
      ],
      "name": "_rolesPlayed",
      "outputs": [
        {
          "internalType": "uint256",
          "name": "",
          "type": "uint256"
        }
      ],
      "stateMutability": "view",
      "type": "function"
    },
    {
      "inputs": [
        {
          "internalType": "address",
          "name": "token",
          "type": "address"
        }
      ],
      "name": "addRewardToken",
      "outputs": [],
      "stateMutability": "nonpayable",
      "type": "function"
    },
    {
      "inputs": [],
      "name": "charactersPlayed",
      "outputs": [
        {
          "internalType": "uint256[]",
          "name": "",
          "type": "uint256[]"
        }
      ],
      "stateMutability": "view",
      "type": "function"
    },
    {
      "inputs": [],
      "name": "chef",
      "outputs": [
        {
          "internalType": "contract IMasterChefJoeV3",
          "name": "",
          "type": "address"
        }
      ],
      "stateMutability": "view",
      "type": "function"
    },
    {
      "inputs": [],
      "name": "dependsOnCharacters",
      "outputs": [
        {
          "internalType": "uint256[]",
          "name": "",
          "type": "uint256[]"
        }
      ],
      "stateMutability": "view",
      "type": "function"
    },
    {
      "inputs": [],
      "name": "dependsOnRoles",
      "outputs": [
        {
          "internalType": "uint256[]",
          "name": "",
          "type": "uint256[]"
        }
      ],
      "stateMutability": "view",
      "type": "function"
    },
    {
      "inputs": [],
      "name": "deposit",
      "outputs": [],
      "stateMutability": "nonpayable",
      "type": "function"
    },
    {
      "inputs": [],
      "name": "disbursalWindow",
      "outputs": [
        {
          "internalType": "uint256",
          "name": "",
          "type": "uint256"
        }
      ],
      "stateMutability": "view",
      "type": "function"
    },
    {
      "inputs": [],
      "name": "forwardReward",
      "outputs": [],
      "stateMutability": "nonpayable",
      "type": "function"
    },
    {
      "inputs": [],
      "name": "harvestPartially",
      "outputs": [],
      "stateMutability": "nonpayable",
      "type": "function"
    },
    {
      "inputs": [
        {
          "internalType": "uint256",
          "name": "",
          "type": "uint256"
        }
      ],
      "name": "mainCharacterCache",
      "outputs": [
        {
          "internalType": "address",
          "name": "",
          "type": "address"
        }
      ],
      "stateMutability": "view",
      "type": "function"
    },
    {
      "inputs": [],
      "name": "pair",
      "outputs": [
        {
          "internalType": "contract IERC20",
          "name": "",
          "type": "address"
        }
      ],
      "stateMutability": "view",
      "type": "function"
    },
    {
      "inputs": [
        {
          "internalType": "address",
          "name": "token",
          "type": "address"
        }
      ],
      "name": "removeRewardtoken",
      "outputs": [],
      "stateMutability": "nonpayable",
      "type": "function"
    },
    {
      "inputs": [
        {
          "internalType": "address",
          "name": "token",
          "type": "address"
        },
        {
          "internalType": "address",
          "name": "recipient",
          "type": "address"
        },
        {
          "internalType": "uint256",
          "name": "amount",
          "type": "uint256"
        }
      ],
      "name": "rescueFunds",
      "outputs": [],
      "stateMutability": "nonpayable",
      "type": "function"
    },
    {
      "inputs": [],
      "name": "rewardLastDisbursed",
      "outputs": [
        {
          "internalType": "uint256",
          "name": "",
          "type": "uint256"
        }
      ],
      "stateMutability": "view",
      "type": "function"
    },
    {
      "inputs": [
        {
          "internalType": "address",
          "name": "",
          "type": "address"
        }
      ],
      "name": "rewardRecipientWeight",
      "outputs": [
        {
          "internalType": "uint256",
          "name": "",
          "type": "uint256"
        }
      ],
      "stateMutability": "view",
      "type": "function"
    },
    {
      "inputs": [],
      "name": "rewardWeightTotal",
      "outputs": [
        {
          "internalType": "uint256",
          "name": "",
          "type": "uint256"
        }
      ],
      "stateMutability": "view",
      "type": "function"
    },
    {
      "inputs": [
        {
          "internalType": "address",
          "name": "",
          "type": "address"
        },
        {
          "internalType": "uint256",
          "name": "",
          "type": "uint256"
        }
      ],
      "name": "roleCache",
      "outputs": [
        {
          "internalType": "bool",
          "name": "",
          "type": "bool"
        }
      ],
      "stateMutability": "view",
      "type": "function"
    },
    {
      "inputs": [],
      "name": "roles",
      "outputs": [
        {
          "internalType": "contract Roles",
          "name": "",
          "type": "address"
        }
      ],
      "stateMutability": "view",
      "type": "function"
    },
    {
      "inputs": [],
      "name": "rolesPlayed",
      "outputs": [
        {
          "internalType": "uint256[]",
          "name": "",
          "type": "uint256[]"
        }
      ],
      "stateMutability": "view",
      "type": "function"
    },
    {
      "inputs": [
        {
          "internalType": "uint256",
          "name": "window",
          "type": "uint256"
        }
      ],
      "name": "setDisbursalWindow",
      "outputs": [],
      "stateMutability": "nonpayable",
      "type": "function"
    },
    {
      "inputs": [
        {
          "internalType": "address",
          "name": "recipient",
          "type": "address"
        },
        {
          "internalType": "uint256",
          "name": "w",
          "type": "uint256"
        }
      ],
      "name": "setRewardWeight",
      "outputs": [],
      "stateMutability": "nonpayable",
      "type": "function"
    },
    {
      "inputs": [
        {
          "internalType": "uint256",
          "name": "role",
          "type": "uint256"
        }
      ],
      "name": "updateMainCharacterCache",
      "outputs": [],
      "stateMutability": "nonpayable",
      "type": "function"
    },
    {
      "inputs": [
        {
          "internalType": "uint256",
          "name": "role",
          "type": "uint256"
        },
        {
          "internalType": "address",
          "name": "contr",
          "type": "address"
        }
      ],
      "name": "updateRoleCache",
      "outputs": [],
      "stateMutability": "nonpayable",
      "type": "function"
    },
    {
      "inputs": [],
      "name": "viewRewardRecipients",
      "outputs": [
        {
          "internalType": "address[]",
          "name": "",
          "type": "address[]"
        },
        {
          "internalType": "uint256[]",
          "name": "",
          "type": "uint256[]"
        }
      ],
      "stateMutability": "view",
      "type": "function"
    },
    {
      "inputs": [],
      "name": "viewRewardTokens",
      "outputs": [
        {
          "internalType": "address[]",
          "name": "",
          "type": "address[]"
        }
      ],
      "stateMutability": "view",
      "type": "function"
    },
    {
      "inputs": [],
      "name": "viewStakedBalance",
      "outputs": [
        {
          "internalType": "uint256",
          "name": "",
          "type": "uint256"
        }
      ],
      "stateMutability": "view",
      "type": "function"
    },
    {
      "inputs": [
        {
          "internalType": "uint256",
          "name": "amount",
          "type": "uint256"
        },
        {
          "internalType": "address",
          "name": "recipient",
          "type": "address"
        }
      ],
      "name": "withdraw",
      "outputs": [],
      "stateMutability": "nonpayable",
      "type": "function"
    },
    {
      "inputs": [
        {
          "internalType": "address",
          "name": "recipient",
          "type": "address"
        }
      ],
      "name": "withdrawAll",
      "outputs": [],
      "stateMutability": "nonpayable",
      "type": "function"
    }
  ],
  "transactionHash": "0x9ee314e1480571c8a990829e6268234c596db913067eeecbf3c920c5b6394f70",
  "args": [
    [
      "0x6e84a6216ea6dacc71ee8e6b0a5b7322eebc0fdd",
      "0x8729438EB15e2C8B576fCc6AeCdA6A148776C0F5"
    ],
    [
      "0x84f34b23127f8C5cC340121baDAEA7Aa33938421",
      "0x11bb6E9AEb4919188CC6B5AD570220C5A00d6B78",
      "0xC74401498312326cE31A23494eCbaC1449bd7235"
    ],
    [
      45,
      50,
      5
    ],
    "0x9e1EE00d45252aA58623F7d771FB414aA38f0878"
  ],
  "numDeployments": 1,
  "solcInputHash": "24a552a62f20fd5fd3ccfaea962c0530",
  "bytecode": "0x60a06040526000600b55615460600d553480156200001c57600080fd5b50604051620021d4380380620021d48339810160408190526200003f91620003db565b806001600160a01b038116620000a65760405162461bcd60e51b815260206004820152602260248201527f506c656173652070726f766964652076616c696420726f6c6573206164647265604482015261737360f01b606482015260840160405180910390fd5b60601b6001600160601b03191660805260038054600180820190925560097fc2575a0e9e593c00f959f8c92f12db2869c3395a3b0502d05e2516446f71f85b90910155600480549182018155600090815260727f8a35acfbc15ff81a39ae7d344fd709f28e8600b4aa8c65c6b64bfe7fe36bd19b909201919091555b808451111562000255576200016f8482815181106200015157634e487b7160e01b600052603260045260246000fd5b60200260200101516008620002cc60201b620010de1790919060201c565b508281815181106200019157634e487b7160e01b600052603260045260246000fd5b6020026020010151600a6000868481518110620001be57634e487b7160e01b600052603260045260246000fd5b60200260200101516001600160a01b03166001600160a01b031681526020019081526020016000206000828254620001f7919062000533565b925050819055508281815181106200021f57634e487b7160e01b600052603260045260246000fd5b6020026020010151600b60008282546200023a919062000533565b909155508190506200024c816200054e565b91505062000122565b5060005b8085511115620002bc57620002a68582815181106200028857634e487b7160e01b600052603260045260246000fd5b60200260200101516006620002cc60201b620010de1790919060201c565b5080620002b3816200054e565b91505062000259565b505042600c555062000598915050565b6000620002e3836001600160a01b038416620002ec565b90505b92915050565b60008181526001830160205260408120546200033557508154600181810184556000848152602080822090930184905584548482528286019093526040902091909155620002e6565b506000620002e6565b80516001600160a01b03811681146200035657600080fd5b919050565b600082601f8301126200036c578081fd5b81516020620003856200037f836200050d565b620004da565b80838252828201915082860187848660051b8901011115620003a5578586fd5b855b85811015620003ce57620003bb826200033e565b84529284019290840190600101620003a7565b5090979650505050505050565b60008060008060808587031215620003f1578384fd5b84516001600160401b038082111562000408578586fd5b62000416888389016200035b565b95506020915081870151818111156200042d578586fd5b6200043b89828a016200035b565b95505060408701518181111562000450578485fd5b87019050601f8101881362000463578384fd5b8051620004746200037f826200050d565b8082825284820191508484018b868560051b870101111562000494578788fd5b8794505b83851015620004b857805183526001949094019391850191850162000498565b508096505050505050620004cf606086016200033e565b905092959194509250565b604051601f8201601f191681016001600160401b038111828210171562000505576200050562000582565b604052919050565b60006001600160401b0382111562000529576200052962000582565b5060051b60200190565b600082198211156200054957620005496200056c565b500190565b60006000198214156200056557620005656200056c565b5060010190565b634e487b7160e01b600052601160045260246000fd5b634e487b7160e01b600052604160045260246000fd5b60805160601c611c01620005d36000396000818161022b015281816104e3015281816107e10152818161118001526112130152611c016000f3fe608060405234801561001057600080fd5b506004361061017f5760003560e01c8062f714ce14610184578063071060a6146101995780631a216e0c146101ac5780631c03e6cc146101c85780631fc8bc5d146101db57806320ea020b146101fd5780632f4e064b14610210578063392f5f6414610226578063447d52ba1461024d5780634a7a7f41146102605780636caa9c11146102755780636ccae054146102885780637a1a04df1461029b5780637dad209b146102d957806385f8db10146102e1578063910cf42c146102e9578063961fc51b146102fc578063a8aa1b3114610305578063abcbc4fc14610320578063aeb38d8b14610333578063bce3e38f14610346578063bf184ea414610359578063d0e30db01461036c578063d400ceae14610374578063d53b404214610394578063d731ef9d1461039d578063dc94cb7d146103b2578063e8ea4fae146103ba578063e9c3f77d146103c2578063f43cf5d4146103eb578063fa09e630146103f3578063fba713de14610406575b600080fd5b6101976101923660046118ab565b61040e565b005b6101976101a736600461187b565b6104cd565b6101b5600b5481565b6040519081526020015b60405180910390f35b6101976101d63660046117b8565b610593565b6101f0600080516020611bac83398151915281565b6040516101bf919061198b565b61019761020b3660046117b8565b6105e7565b61021861063b565b6040516101bf9291906119cb565b6101f07f000000000000000000000000000000000000000000000000000000000000000081565b61019761025b3660046118ab565b6107ca565b6102686108a0565b6040516101bf91906119f9565b6101b561028336600461187b565b6108f8565b6101976102963660046117f0565b610919565b6102c96102a9366004611830565b600160209081526000928352604080842090915290825290205460ff1681565b60405190151581526020016101bf565b61026861097b565b6101b56109d1565b6101976102f736600461187b565b610a5f565b6101b5600c5481565b6101f0734b946c91c2b1a7d7c40fb3c130cdfbaf8389094d81565b6101b561032e36600461187b565b610aad565b6101b561034136600461187b565b610abd565b610197610354366004611830565b610acd565b6101b561036736600461187b565b610b8e565b610197610b9e565b6101b56103823660046117b8565b600a6020526000908152604090205481565b6101b5600d5481565b6103a5610ced565b6040516101bf91906119b8565b610268610cfe565b610268610d54565b6101f06103d036600461187b565b6000602081905290815260409020546001600160a01b031681565b610197610daa565b6101976104013660046117b8565b610f2c565b61019761106f565b610417336110fc565b61043c5760405162461bcd60e51b815260040161043390611a89565b60405180910390fd5b604051630441a3e760e41b8152600080516020611bac8339815191529063441a3e7090610470906033908690600401611abd565b600060405180830381600087803b15801561048a57600080fd5b505af115801561049e573d6000803e3d6000fd5b505050506104aa610daa565b6104c9734b946c91c2b1a7d7c40fb3c130cdfbaf8389094d8284611126565b5050565b60405163b4ed0b6d60e01b8152600481018290527f00000000000000000000000000000000000000000000000000000000000000006001600160a01b03169063b4ed0b6d9060240160206040518083038186803b15801561052d57600080fd5b505afa158015610541573d6000803e3d6000fd5b505050506040513d601f19601f8201168201806040525081019061056591906117d4565b60009182526020829052604090912080546001600160a01b0319166001600160a01b03909216919091179055565b3361059c61117c565b6001600160a01b031614806105c05750336105b561120f565b6001600160a01b0316145b6105dc5760405162461bcd60e51b815260040161043390611a3f565b6104c96006826110de565b336105f061117c565b6001600160a01b0316148061061457503361060961120f565b6001600160a01b0316145b6106305760405162461bcd60e51b815260040161043390611a3f565b6104c9600682611280565b606080600061064a6008611295565b6001600160401b0381111561066f57634e487b7160e01b600052604160045260246000fd5b604051908082528060200260200182016040528015610698578160200160208202803683370190505b50905060006106a76008611295565b6001600160401b038111156106cc57634e487b7160e01b600052604160045260246000fd5b6040519080825280602002602001820160405280156106f5578160200160208202803683370190505b50905060005b806107066008611295565b11156107c057600061071960088361129f565b90508084838151811061073c57634e487b7160e01b600052603260045260246000fd5b60200260200101906001600160a01b031690816001600160a01b031681525050600a6000826001600160a01b03166001600160a01b03168152602001908152602001600020548383815181106107a257634e487b7160e01b600052603260045260246000fd5b602090810291909101015250806107b881611b65565b9150506106fb565b5090925090509091565b60405163f0723d9760e01b81526001600160a01b037f0000000000000000000000000000000000000000000000000000000000000000169063f0723d9790610818908490869060040161199f565b60206040518083038186803b15801561083057600080fd5b505afa158015610844573d6000803e3d6000fd5b505050506040513d601f19601f82011682018060405250810190610868919061185b565b6001600160a01b0391909116600090815260016020908152604080832094835293905291909120805460ff1916911515919091179055565b606060038054806020026020016040519081016040528092919081815260200182805480156108ee57602002820191906000526020600020905b8154815260200190600101908083116108da575b5050505050905090565b6005818154811061090857600080fd5b600091825260209091200154905081565b3361092261117c565b6001600160a01b0316148061094657503361093b61120f565b6001600160a01b0316145b6109625760405162461bcd60e51b815260040161043390611a3f565b6109766001600160a01b0384168383611126565b505050565b606060048054806020026020016040519081016040528092919081815260200182805480156108ee57602002820191906000526020600020908154815260200190600101908083116108da575050505050905090565b6040516393f1a40b60e01b8152603360048201523060248201526000908190600080516020611bac833981519152906393f1a40b90604401604080518083038186803b158015610a2057600080fd5b505afa158015610a34573d6000803e3d6000fd5b505050506040513d601f19601f82011682018060405250810190610a5891906118da565b5091505090565b33610a6861117c565b6001600160a01b03161480610a8c575033610a8161120f565b6001600160a01b0316145b610aa85760405162461bcd60e51b815260040161043390611a3f565b600d55565b6002818154811061090857600080fd5b6004818154811061090857600080fd5b33610ad661117c565b6001600160a01b03161480610afa575033610aef61120f565b6001600160a01b0316145b610b165760405162461bcd60e51b815260040161043390611a3f565b6001600160a01b0382166000908152600a6020526040902054600b548190610b3f908490611acb565b610b499190611b22565b600b556001600160a01b0383166000908152600a6020526040902082905581610b7d57610b77600884611280565b50610976565b610b886008846110de565b50505050565b6003818154811061090857600080fd5b610ba7336110fc565b610bc35760405162461bcd60e51b815260040161043390611a89565b6040516370a0823160e01b8152600090734b946c91c2b1a7d7c40fb3c130cdfbaf8389094d906370a0823190610bfd90309060040161198b565b60206040518083038186803b158015610c1557600080fd5b505afa158015610c29573d6000803e3d6000fd5b505050506040513d601f19601f82011682018060405250810190610c4d9190611893565b9050610c7c734b946c91c2b1a7d7c40fb3c130cdfbaf8389094d600080516020611bac833981519152836112ab565b604051631c57762b60e31b8152600080516020611bac8339815191529063e2bbb15890610cb0906033908590600401611abd565b600060405180830381600087803b158015610cca57600080fd5b505af1158015610cde573d6000803e3d6000fd5b50505050610cea610daa565b50565b6060610cf9600661135a565b905090565b606060028054806020026020016040519081016040528092919081815260200182805480156108ee57602002820191906000526020600020908154815260200190600101908083116108da575050505050905090565b606060058054806020026020016040519081016040528092919081815260200182805480156108ee57602002820191906000526020600020908154815260200190600101908083116108da575050505050905090565b610db3336110fc565b610dcf5760405162461bcd60e51b815260040161043390611a89565b600c54600d54610ddf9190611acb565b4210610f2a5760005b80610df36006611295565b1115610f24576000610e0660068361129f565b90506000816001600160a01b03166370a08231306040518263ffffffff1660e01b8152600401610e36919061198b565b60206040518083038186803b158015610e4e57600080fd5b505afa158015610e62573d6000803e3d6000fd5b505050506040513d601f19601f82011682018060405250810190610e869190611893565b90508015610f0f5760005b80610e9c6008611295565b1115610f0d576000610eaf60088361129f565b600b546001600160a01b0382166000908152600a6020526040902054919250610efa91839190610edf9087611b03565b610ee99190611ae3565b6001600160a01b0387169190611126565b5080610f0581611b65565b915050610e91565b505b50508080610f1c90611b65565b915050610de8565b5042600c555b565b610f35336110fc565b610f515760405162461bcd60e51b815260040161043390611a89565b600080516020611bac83398151915263441a3e706033610f6f6109d1565b6040518363ffffffff1660e01b8152600401610f8c929190611abd565b600060405180830381600087803b158015610fa657600080fd5b505af1158015610fba573d6000803e3d6000fd5b50505050610fc6610daa565b6040516370a0823160e01b8152610cea908290734b946c91c2b1a7d7c40fb3c130cdfbaf8389094d906370a082319061100390309060040161198b565b60206040518083038186803b15801561101b57600080fd5b505afa15801561102f573d6000803e3d6000fd5b505050506040513d601f19601f820116820180604052508101906110539190611893565b734b946c91c2b1a7d7c40fb3c130cdfbaf8389094d9190611126565b604051630441a3e760e41b8152600080516020611bac8339815191529063441a3e70906110a490603390600090600401611abd565b600060405180830381600087803b1580156110be57600080fd5b505af11580156110d2573d6000803e3d6000fd5b50505050610f2a610daa565b60006110f3836001600160a01b03841661136e565b90505b92915050565b6001600160a01b031660009081526001602090815260408083206009845290915290205460ff1690565b6109768363a9059cbb60e01b848460405160240161114592919061199f565b60408051601f198184030181529190526020810180516001600160e01b03166001600160e01b0319909316929092179091526113bd565b60007f00000000000000000000000000000000000000000000000000000000000000006001600160a01b0316638da5cb5b6040518163ffffffff1660e01b815260040160206040518083038186803b1580156111d757600080fd5b505afa1580156111eb573d6000803e3d6000fd5b505050506040513d601f19601f82011682018060405250810190610cf991906117d4565b60007f00000000000000000000000000000000000000000000000000000000000000006001600160a01b031663c34c08e56040518163ffffffff1660e01b8152600401602060405180830381600087803b15801561126c57600080fd5b505af11580156111eb573d6000803e3d6000fd5b60006110f3836001600160a01b03841661148f565b60006110f6825490565b60006110f383836115ac565b604051636eb1769f60e11b81523060048201526001600160a01b038381166024830152600091839186169063dd62ed3e9060440160206040518083038186803b1580156112f757600080fd5b505afa15801561130b573d6000803e3d6000fd5b505050506040513d601f19601f8201168201806040525081019061132f9190611893565b6113399190611acb565b9050610b888463095ea7b360e01b858460405160240161114592919061199f565b60606000611367836115e4565b9392505050565b60008181526001830160205260408120546113b5575081546001818101845560008481526020808220909301849055845484825282860190935260409020919091556110f6565b5060006110f6565b6000611412826040518060400160405280602081526020017f5361666545524332303a206c6f772d6c6576656c2063616c6c206661696c6564815250856001600160a01b03166116409092919063ffffffff16565b8051909150156109765780806020019051810190611430919061185b565b6109765760405162461bcd60e51b815260206004820152602a60248201527f5361666545524332303a204552433230206f7065726174696f6e20646964206e6044820152691bdd081cdd58d8d9595960b21b6064820152608401610433565b600081815260018301602052604081205480156115a25760006114b3600183611b22565b85549091506000906114c790600190611b22565b90508181146115485760008660000182815481106114f557634e487b7160e01b600052603260045260246000fd5b906000526020600020015490508087600001848154811061152657634e487b7160e01b600052603260045260246000fd5b6000918252602080832090910192909255918252600188019052604090208390555b855486908061156757634e487b7160e01b600052603160045260246000fd5b6001900381819060005260206000200160009055905585600101600086815260200190815260200160002060009055600193505050506110f6565b60009150506110f6565b60008260000182815481106115d157634e487b7160e01b600052603260045260246000fd5b9060005260206000200154905092915050565b60608160000180548060200260200160405190810160405280929190818152602001828054801561163457602002820191906000526020600020905b815481526020019060010190808311611620575b50505050509050919050565b606061164f8484600085611657565b949350505050565b6060824710156116b85760405162461bcd60e51b815260206004820152602660248201527f416464726573733a20696e73756666696369656e742062616c616e636520666f6044820152651c8818d85b1b60d21b6064820152608401610433565b843b6117065760405162461bcd60e51b815260206004820152601d60248201527f416464726573733a2063616c6c20746f206e6f6e2d636f6e74726163740000006044820152606401610433565b600080866001600160a01b03168587604051611722919061196f565b60006040518083038185875af1925050503d806000811461175f576040519150601f19603f3d011682016040523d82523d6000602084013e611764565b606091505b509150915061177482828661177f565b979650505050505050565b6060831561178e575081611367565b82511561179e5782518084602001fd5b8160405162461bcd60e51b81526004016104339190611a0c565b6000602082840312156117c9578081fd5b813561136781611b96565b6000602082840312156117e5578081fd5b815161136781611b96565b600080600060608486031215611804578182fd5b833561180f81611b96565b9250602084013561181f81611b96565b929592945050506040919091013590565b60008060408385031215611842578182fd5b823561184d81611b96565b946020939093013593505050565b60006020828403121561186c578081fd5b81518015158114611367578182fd5b60006020828403121561188c578081fd5b5035919050565b6000602082840312156118a4578081fd5b5051919050565b600080604083850312156118bd578182fd5b8235915060208301356118cf81611b96565b809150509250929050565b600080604083850312156118ec578182fd5b505080516020909101519092909150565b6000815180845260208085019450808401835b838110156119355781516001600160a01b031687529582019590820190600101611910565b509495945050505050565b6000815180845260208085019450808401835b8381101561193557815187529582019590820190600101611953565b60008251611981818460208701611b39565b9190910192915050565b6001600160a01b0391909116815260200190565b6001600160a01b03929092168252602082015260400190565b6000602082526110f360208301846118fd565b6000604082526119de60408301856118fd565b82810360208401526119f08185611940565b95945050505050565b6000602082526110f36020830184611940565b6000602082528251806020840152611a2b816040850160208701611b39565b601f01601f19169190910160400192915050565b6020808252602a908201527f526f6c65733a2063616c6c6572206973206e6f7420746865206f776e6572206f604082015269391032bc32b1baba37b960b11b606082015260800190565b6020808252601a90820152794f6e6c7920666f72206c6971756964207969656c6420726f6c6560301b604082015260600190565b918252602082015260400190565b60008219821115611ade57611ade611b80565b500190565b600082611afe57634e487b7160e01b81526012600452602481fd5b500490565b6000816000190483118215151615611b1d57611b1d611b80565b500290565b600082821015611b3457611b34611b80565b500390565b60005b83811015611b54578181015183820152602001611b3c565b83811115610b885750506000910152565b6000600019821415611b7957611b79611b80565b5060010190565b634e487b7160e01b600052601160045260246000fd5b6001600160a01b0381168114610cea57600080fdfe000000000000000000000000188bed1968b795d5c9022f6a0bb5931ac4c18f00a2646970667358221220a0671a8a15d2be8ea1a0a8a13f3dcf7be9c1385bb58ac9a2b7e13ff9dd0927a964736f6c63430008030033",
  "devdoc": {
    "kind": "dev",
    "methods": {
      "charactersPlayed()": {
        "details": "returns all characters played by this contract (e.g. stable coin, oracle registry)"
      },
      "dependsOnCharacters()": {
        "details": "returns all the character dependencies like FEE_RECIPIENT"
      },
      "dependsOnRoles()": {
        "details": "returns all the roles dependencies of this contract like FUND_TRANSFERER"
      },
      "rolesPlayed()": {
        "details": "returns all roles played by this contract"
      },
      "updateMainCharacterCache(uint256)": {
        "details": "Updates the main character cache for a speciic character"
      },
      "updateRoleCache(uint256,address)": {
        "details": "Updates the role cache for a specific role and address"
      }
    },
    "version": 1
  },
  "userdoc": {
    "kind": "user",
    "methods": {
      "addRewardToken(address)": {
        "notice": "register a reward token"
      },
      "deposit()": {
        "notice": "Deposit balance in LPT to masterchef"
      },
      "forwardReward()": {
        "notice": "Forward rewards to all registered reward recipients"
      },
      "harvestPartially()": {
        "notice": "Harvest yield from masterchef"
      },
      "removeRewardtoken(address)": {
        "notice": "unregister a reward token"
      },
      "rescueFunds(address,address,uint256)": {
        "notice": "Rescue stranded funds"
      },
      "setDisbursalWindow(uint256)": {
        "notice": "Set reward disbursal window"
      },
      "setRewardWeight(address,uint256)": {
        "notice": "Set share of reward that recipient should receive"
      },
      "viewRewardRecipients()": {
        "notice": "View the list of reward recipients"
      },
      "viewRewardTokens()": {
        "notice": "View the list of reward tokens"
      },
      "viewStakedBalance()": {
        "notice": "View how much LPT is staked"
      },
      "withdraw(uint256,address)": {
        "notice": "Withdraw LPT from masterchef"
      },
      "withdrawAll(address)": {
        "notice": "Withdraw all LPT from masterchef and forward to recipient"
      }
    },
    "notice": "Holds LPT in masterchef for yield (and forwards yield to redistributor)",
    "version": 1
  },
  "storageLayout": {
    "storage": [
      {
        "astId": 29295,
        "contract": "contracts/liquid-yield/LyLptHolder.sol:LyLptHolder",
        "label": "mainCharacterCache",
        "offset": 0,
        "slot": "0",
        "type": "t_mapping(t_uint256,t_address)"
      },
      {
        "astId": 29301,
        "contract": "contracts/liquid-yield/LyLptHolder.sol:LyLptHolder",
        "label": "roleCache",
        "offset": 0,
        "slot": "1",
        "type": "t_mapping(t_address,t_mapping(t_uint256,t_bool))"
      },
      {
        "astId": 29304,
        "contract": "contracts/liquid-yield/LyLptHolder.sol:LyLptHolder",
        "label": "_dependsOnCharacters",
        "offset": 0,
        "slot": "2",
        "type": "t_array(t_uint256)dyn_storage"
      },
      {
        "astId": 29307,
        "contract": "contracts/liquid-yield/LyLptHolder.sol:LyLptHolder",
        "label": "_dependsOnRoles",
        "offset": 0,
        "slot": "3",
        "type": "t_array(t_uint256)dyn_storage"
      },
      {
        "astId": 29310,
        "contract": "contracts/liquid-yield/LyLptHolder.sol:LyLptHolder",
        "label": "_charactersPlayed",
        "offset": 0,
        "slot": "4",
        "type": "t_array(t_uint256)dyn_storage"
      },
      {
        "astId": 29313,
        "contract": "contracts/liquid-yield/LyLptHolder.sol:LyLptHolder",
        "label": "_rolesPlayed",
        "offset": 0,
        "slot": "5",
        "type": "t_array(t_uint256)dyn_storage"
      },
      {
        "astId": 18383,
        "contract": "contracts/liquid-yield/LyLptHolder.sol:LyLptHolder",
        "label": "rewardTokens",
        "offset": 0,
        "slot": "6",
        "type": "t_struct(AddressSet)5499_storage"
      },
      {
        "astId": 18386,
        "contract": "contracts/liquid-yield/LyLptHolder.sol:LyLptHolder",
        "label": "rewardRecipients",
        "offset": 0,
        "slot": "8",
        "type": "t_struct(AddressSet)5499_storage"
      },
      {
        "astId": 18390,
        "contract": "contracts/liquid-yield/LyLptHolder.sol:LyLptHolder",
        "label": "rewardRecipientWeight",
        "offset": 0,
        "slot": "10",
        "type": "t_mapping(t_address,t_uint256)"
      },
      {
        "astId": 18393,
        "contract": "contracts/liquid-yield/LyLptHolder.sol:LyLptHolder",
        "label": "rewardWeightTotal",
        "offset": 0,
        "slot": "11",
        "type": "t_uint256"
      },
      {
        "astId": 18395,
        "contract": "contracts/liquid-yield/LyLptHolder.sol:LyLptHolder",
        "label": "rewardLastDisbursed",
        "offset": 0,
        "slot": "12",
        "type": "t_uint256"
      },
      {
        "astId": 18398,
        "contract": "contracts/liquid-yield/LyLptHolder.sol:LyLptHolder",
        "label": "disbursalWindow",
        "offset": 0,
        "slot": "13",
        "type": "t_uint256"
      }
    ],
    "types": {
      "t_address": {
        "encoding": "inplace",
        "label": "address",
        "numberOfBytes": "20"
      },
      "t_array(t_bytes32)dyn_storage": {
        "base": "t_bytes32",
        "encoding": "dynamic_array",
        "label": "bytes32[]",
        "numberOfBytes": "32"
      },
      "t_array(t_uint256)dyn_storage": {
        "base": "t_uint256",
        "encoding": "dynamic_array",
        "label": "uint256[]",
        "numberOfBytes": "32"
      },
      "t_bool": {
        "encoding": "inplace",
        "label": "bool",
        "numberOfBytes": "1"
      },
      "t_bytes32": {
        "encoding": "inplace",
        "label": "bytes32",
        "numberOfBytes": "32"
      },
      "t_mapping(t_address,t_mapping(t_uint256,t_bool))": {
        "encoding": "mapping",
        "key": "t_address",
        "label": "mapping(address => mapping(uint256 => bool))",
        "numberOfBytes": "32",
        "value": "t_mapping(t_uint256,t_bool)"
      },
      "t_mapping(t_address,t_uint256)": {
        "encoding": "mapping",
        "key": "t_address",
        "label": "mapping(address => uint256)",
        "numberOfBytes": "32",
        "value": "t_uint256"
      },
      "t_mapping(t_bytes32,t_uint256)": {
        "encoding": "mapping",
        "key": "t_bytes32",
        "label": "mapping(bytes32 => uint256)",
        "numberOfBytes": "32",
        "value": "t_uint256"
      },
      "t_mapping(t_uint256,t_address)": {
        "encoding": "mapping",
        "key": "t_uint256",
        "label": "mapping(uint256 => address)",
        "numberOfBytes": "32",
        "value": "t_address"
      },
      "t_mapping(t_uint256,t_bool)": {
        "encoding": "mapping",
        "key": "t_uint256",
        "label": "mapping(uint256 => bool)",
        "numberOfBytes": "32",
        "value": "t_bool"
      },
      "t_struct(AddressSet)5499_storage": {
        "encoding": "inplace",
        "label": "struct EnumerableSet.AddressSet",
        "members": [
          {
            "astId": 5498,
            "contract": "contracts/liquid-yield/LyLptHolder.sol:LyLptHolder",
            "label": "_inner",
            "offset": 0,
            "slot": "0",
            "type": "t_struct(Set)5198_storage"
          }
        ],
        "numberOfBytes": "64"
      },
      "t_struct(Set)5198_storage": {
        "encoding": "inplace",
        "label": "struct EnumerableSet.Set",
        "members": [
          {
            "astId": 5193,
            "contract": "contracts/liquid-yield/LyLptHolder.sol:LyLptHolder",
            "label": "_values",
            "offset": 0,
            "slot": "0",
            "type": "t_array(t_bytes32)dyn_storage"
          },
          {
            "astId": 5197,
            "contract": "contracts/liquid-yield/LyLptHolder.sol:LyLptHolder",
            "label": "_indexes",
            "offset": 0,
            "slot": "1",
            "type": "t_mapping(t_bytes32,t_uint256)"
          }
        ],
        "numberOfBytes": "64"
      },
      "t_uint256": {
        "encoding": "inplace",
        "label": "uint256",
        "numberOfBytes": "32"
      }
    }
  }
}