{
  "address": "0x11bb6E9AEb4919188CC6B5AD570220C5A00d6B78",
  "abi": [
    {
      "inputs": [
        {
          "internalType": "address",
          "name": "mAvax",
          "type": "address"
        },
        {
          "internalType": "address[]",
          "name": "_rewardTokens",
          "type": "address[]"
        },
        {
          "internalType": "address",
          "name": "_roles",
          "type": "address"
        }
      ],
      "stateMutability": "nonpayable",
      "type": "constructor"
    },
    {
      "anonymous": false,
      "inputs": [
        {
          "indexed": false,
          "internalType": "string",
          "name": "param",
          "type": "string"
        },
        {
          "indexed": false,
          "internalType": "uint256",
          "name": "value",
          "type": "uint256"
        }
      ],
      "name": "ParameterUpdated",
      "type": "event"
    },
    {
      "anonymous": false,
      "inputs": [
        {
          "indexed": false,
          "internalType": "string",
          "name": "param",
          "type": "string"
        },
        {
          "indexed": false,
          "internalType": "address",
          "name": "subject",
          "type": "address"
        },
        {
          "indexed": false,
          "internalType": "uint256",
          "name": "value",
          "type": "uint256"
        }
      ],
      "name": "SubjectParameterUpdated",
      "type": "event"
    },
    {
      "anonymous": false,
      "inputs": [
        {
          "indexed": false,
          "internalType": "string",
          "name": "param",
          "type": "string"
        },
        {
          "indexed": false,
          "internalType": "address",
          "name": "subject",
          "type": "address"
        }
      ],
      "name": "SubjectUpdated",
      "type": "event"
    },
    {
      "inputs": [
        {
          "internalType": "uint256",
          "name": "",
          "type": "uint256"
        }
      ],
      "name": "_charactersPlayed",
      "outputs": [
        {
          "internalType": "uint256",
          "name": "",
          "type": "uint256"
        }
      ],
      "stateMutability": "view",
      "type": "function"
    },
    {
      "inputs": [
        {
          "internalType": "uint256",
          "name": "",
          "type": "uint256"
        }
      ],
      "name": "_dependsOnCharacters",
      "outputs": [
        {
          "internalType": "uint256",
          "name": "",
          "type": "uint256"
        }
      ],
      "stateMutability": "view",
      "type": "function"
    },
    {
      "inputs": [
        {
          "internalType": "uint256",
          "name": "",
          "type": "uint256"
        }
      ],
      "name": "_dependsOnRoles",
      "outputs": [
        {
          "internalType": "uint256",
          "name": "",
          "type": "uint256"
        }
      ],
      "stateMutability": "view",
      "type": "function"
    },
    {
      "inputs": [
        {
          "internalType": "uint256",
          "name": "",
          "type": "uint256"
        }
      ],
      "name": "_rolesPlayed",
      "outputs": [
        {
          "internalType": "uint256",
          "name": "",
          "type": "uint256"
        }
      ],
      "stateMutability": "view",
      "type": "function"
    },
    {
      "inputs": [
        {
          "internalType": "address",
          "name": "token",
          "type": "address"
        }
      ],
      "name": "addRewardToken",
      "outputs": [],
      "stateMutability": "nonpayable",
      "type": "function"
    },
    {
      "inputs": [],
      "name": "charactersPlayed",
      "outputs": [
        {
          "internalType": "uint256[]",
          "name": "",
          "type": "uint256[]"
        }
      ],
      "stateMutability": "view",
      "type": "function"
    },
    {
      "inputs": [],
      "name": "dependsOnCharacters",
      "outputs": [
        {
          "internalType": "uint256[]",
          "name": "",
          "type": "uint256[]"
        }
      ],
      "stateMutability": "view",
      "type": "function"
    },
    {
      "inputs": [],
      "name": "dependsOnRoles",
      "outputs": [
        {
          "internalType": "uint256[]",
          "name": "",
          "type": "uint256[]"
        }
      ],
      "stateMutability": "view",
      "type": "function"
    },
    {
      "inputs": [],
      "name": "harvest",
      "outputs": [],
      "stateMutability": "nonpayable",
      "type": "function"
    },
    {
      "inputs": [
        {
          "internalType": "uint256",
          "name": "",
          "type": "uint256"
        }
      ],
      "name": "mainCharacterCache",
      "outputs": [
        {
          "internalType": "address",
          "name": "",
          "type": "address"
        }
      ],
      "stateMutability": "view",
      "type": "function"
    },
    {
      "inputs": [
        {
          "internalType": "address",
          "name": "token",
          "type": "address"
        },
        {
          "internalType": "address",
          "name": "recipient",
          "type": "address"
        },
        {
          "internalType": "uint256",
          "name": "amount",
          "type": "uint256"
        }
      ],
      "name": "rescueFunds",
      "outputs": [],
      "stateMutability": "nonpayable",
      "type": "function"
    },
    {
      "inputs": [
        {
          "internalType": "address",
          "name": "",
          "type": "address"
        },
        {
          "internalType": "uint256",
          "name": "",
          "type": "uint256"
        }
      ],
      "name": "rewardIndex",
      "outputs": [
        {
          "internalType": "uint256",
          "name": "",
          "type": "uint256"
        }
      ],
      "stateMutability": "view",
      "type": "function"
    },
    {
      "inputs": [
        {
          "internalType": "uint256",
          "name": "",
          "type": "uint256"
        }
      ],
      "name": "rewardTokens",
      "outputs": [
        {
          "internalType": "address",
          "name": "token",
          "type": "address"
        },
        {
          "internalType": "uint256",
          "name": "cumulRewardPer1e18",
          "type": "uint256"
        },
        {
          "internalType": "uint256",
          "name": "reserve",
          "type": "uint256"
        }
      ],
      "stateMutability": "view",
      "type": "function"
    },
    {
      "inputs": [
        {
          "internalType": "address",
          "name": "",
          "type": "address"
        },
        {
          "internalType": "uint256",
          "name": "",
          "type": "uint256"
        }
      ],
      "name": "roleCache",
      "outputs": [
        {
          "internalType": "bool",
          "name": "",
          "type": "bool"
        }
      ],
      "stateMutability": "view",
      "type": "function"
    },
    {
      "inputs": [],
      "name": "roles",
      "outputs": [
        {
          "internalType": "contract Roles",
          "name": "",
          "type": "address"
        }
      ],
      "stateMutability": "view",
      "type": "function"
    },
    {
      "inputs": [],
      "name": "rolesPlayed",
      "outputs": [
        {
          "internalType": "uint256[]",
          "name": "",
          "type": "uint256[]"
        }
      ],
      "stateMutability": "view",
      "type": "function"
    },
    {
      "inputs": [
        {
          "internalType": "uint256",
          "name": "amount",
          "type": "uint256"
        }
      ],
      "name": "stake",
      "outputs": [],
      "stateMutability": "nonpayable",
      "type": "function"
    },
    {
      "inputs": [
        {
          "internalType": "address",
          "name": "recipient",
          "type": "address"
        },
        {
          "internalType": "uint256",
          "name": "amount",
          "type": "uint256"
        }
      ],
      "name": "stakeFor",
      "outputs": [],
      "stateMutability": "nonpayable",
      "type": "function"
    },
    {
      "inputs": [],
      "name": "stakeToken",
      "outputs": [
        {
          "internalType": "contract IERC20",
          "name": "",
          "type": "address"
        }
      ],
      "stateMutability": "view",
      "type": "function"
    },
    {
      "inputs": [
        {
          "internalType": "address",
          "name": "",
          "type": "address"
        }
      ],
      "name": "stakedBalance",
      "outputs": [
        {
          "internalType": "uint256",
          "name": "",
          "type": "uint256"
        }
      ],
      "stateMutability": "view",
      "type": "function"
    },
    {
      "inputs": [
        {
          "internalType": "uint256",
          "name": "amount",
          "type": "uint256"
        },
        {
          "internalType": "address",
          "name": "recipient",
          "type": "address"
        }
      ],
      "name": "unstake",
      "outputs": [],
      "stateMutability": "nonpayable",
      "type": "function"
    },
    {
      "inputs": [
        {
          "internalType": "address",
          "name": "holder",
          "type": "address"
        },
        {
          "internalType": "uint256",
          "name": "amount",
          "type": "uint256"
        },
        {
          "internalType": "address",
          "name": "recipient",
          "type": "address"
        }
      ],
      "name": "unstakeFor",
      "outputs": [],
      "stateMutability": "nonpayable",
      "type": "function"
    },
    {
      "inputs": [
        {
          "internalType": "uint256",
          "name": "role",
          "type": "uint256"
        }
      ],
      "name": "updateMainCharacterCache",
      "outputs": [],
      "stateMutability": "nonpayable",
      "type": "function"
    },
    {
      "inputs": [],
      "name": "updateRewardTotal",
      "outputs": [],
      "stateMutability": "nonpayable",
      "type": "function"
    },
    {
      "inputs": [
        {
          "internalType": "uint256",
          "name": "role",
          "type": "uint256"
        },
        {
          "internalType": "address",
          "name": "contr",
          "type": "address"
        }
      ],
      "name": "updateRoleCache",
      "outputs": [],
      "stateMutability": "nonpayable",
      "type": "function"
    }
  ],
  "transactionHash": "0xff749df539205912091cf2eb39b4b6cab44f91a9f09434d1dca8675447493988",
  "args": [
    "0xA5916a3c4b9dFccbFe6C27108539EdA3E6b99d56",
    [
      "0x6e84a6216ea6dacc71ee8e6b0a5b7322eebc0fdd",
      "0x8729438EB15e2C8B576fCc6AeCdA6A148776C0F5"
    ],
    "0x9e1EE00d45252aA58623F7d771FB414aA38f0878"
  ],
  "numDeployments": 1,
  "solcInputHash": "f34724a8126ebefd882a0c9c697b84b3",
  "bytecode": "0x60c06040523480156200001157600080fd5b506040516200191f3803806200191f833981016040819052620000349162000209565b828282806001600160a01b0381166200009e5760405162461bcd60e51b815260206004820152602260248201527f506c656173652070726f766964652076616c696420726f6c6573206164647265604482015261737360f01b606482015260840160405180910390fd5b60601b6001600160601b03191660805260038054600181018255600091825260097fc2575a0e9e593c00f959f8c92f12db2869c3395a3b0502d05e2516446f71f85b909101555b80835111156200019957600660405180606001604052808584815181106200011d57634e487b7160e01b600052603260045260246000fd5b6020908102919091018101516001600160a01b0390811683526000838301819052604093840181905285546001808201885596825290839020855160039092020180546001600160a01b031916919092161781559083015193810193909355015160029091015580620001908162000306565b915050620000e5565b50505060601b6001600160601b03191660a05250506004805460018101825560009190915260747f8a35acfbc15ff81a39ae7d344fd709f28e8600b4aa8c65c6b64bfe7fe36bd19b909101555062000344565b80516001600160a01b03811681146200020457600080fd5b919050565b6000806000606084860312156200021e578283fd5b6200022984620001ec565b602085810151919450906001600160401b038082111562000248578485fd5b818701915087601f8301126200025c578485fd5b8151818111156200027157620002716200032e565b8060051b604051601f19603f830116810181811085821117156200029957620002996200032e565b604052828152858101935084860182860187018c1015620002b8578889fd5b8895505b83861015620002e557620002d081620001ec565b855260019590950194938601938601620002bc565b50809750505050505050620002fd60408501620001ec565b90509250925092565b60006000198214156200032757634e487b7160e01b81526011600452602481fd5b5060010190565b634e487b7160e01b600052604160045260246000fd5b60805160601c60a05160601c611570620003af6000396000818161022d0152818161042a0152818161065c01528181610949015281816109830152610a250152600081816101c90152818161046c015281816106d601528181610e270152610ebf01526115706000f3fe608060405234801561001057600080fd5b50600436106101335760003560e01c8063026800d014610138578063071060a61461014d578063094d4638146101605780631c03e6cc1461019e5780632ee40908146101b1578063392f5f64146101c4578063447d52ba146101f85780634641257d1461020b5780634a7a7f411461021357806351ed6a3014610228578063602172671461024f5780636caa9c111461026f5780636ccae054146102825780637a1a04df146102955780637bb7bed1146102d35780637dad209b1461030b5780638381e18214610313578063a694fc3a14610326578063abcbc4fc14610339578063aeb38d8b1461034c578063bf184ea41461035f578063d17220cc14610372578063dc94cb7d1461037a578063e8ea4fae14610382578063e9c3f77d1461038a575b600080fd5b61014b610146366004611259565b6103b3565b005b61014b61015b3660046112ba565b610456565b61018b61016e36600461122e565b600860209081526000928352604080842090915290825290205481565b6040519081526020015b60405180910390f35b61014b6101ac3660046111b6565b61051c565b61014b6101bf36600461122e565b610624565b6101eb7f000000000000000000000000000000000000000000000000000000000000000081565b6040516101959190611335565b61014b6102063660046112ea565b6106bf565b61014b610795565b61021b6107a0565b6040516101959190611362565b6101eb7f000000000000000000000000000000000000000000000000000000000000000081565b61018b61025d3660046111b6565b60076020526000908152604090205481565b61018b61027d3660046112ba565b6107f8565b61014b6102903660046111ee565b610819565b6102c36102a336600461122e565b600160209081526000928352604080842090915290825290205460ff1681565b6040519015158152602001610195565b6102e66102e13660046112ba565b610876565b604080516001600160a01b039094168452602084019290925290820152606001610195565b61021b6108b3565b61014b6103213660046112ea565b610909565b61014b6103343660046112ba565b610970565b61018b6103473660046112ba565b6109db565b61018b61035a3660046112ba565b6109eb565b61018b61036d3660046112ba565b6109fb565b61014b610a0b565b61021b610bde565b61021b610c34565b6101eb6103983660046112ba565b6000602081905290815260409020546001600160a01b031681565b6103bc33610c8a565b6103e15760405162461bcd60e51b81526004016103d890611423565b60405180910390fd5b6103ea83610cb4565b6001600160a01b038316600090815260076020526040812080548492906104129084906114ae565b90915550508115610451576104516001600160a01b037f0000000000000000000000000000000000000000000000000000000000000000168284610dcd565b505050565b60405163b4ed0b6d60e01b8152600481018290527f00000000000000000000000000000000000000000000000000000000000000006001600160a01b03169063b4ed0b6d9060240160206040518083038186803b1580156104b657600080fd5b505afa1580156104ca573d6000803e3d6000fd5b505050506040513d601f19601f820116820180604052508101906104ee91906111d2565b60009182526020829052604090912080546001600160a01b0319166001600160a01b03909216919091179055565b33610525610e23565b6001600160a01b0316148061054957503361053e610ebb565b6001600160a01b0316145b6105655760405162461bcd60e51b81526004016103d8906113d9565b604080516060810182526001600160a01b03928316815260006020820181815292820181815260068054600181018255925291517ff652222313e28459528d920b65115c16c04f3efc82aaedc97be59f3f377c0d3f600390920291820180546001600160a01b031916919095161790935590517ff652222313e28459528d920b65115c16c04f3efc82aaedc97be59f3f377c0d40830155517ff652222313e28459528d920b65115c16c04f3efc82aaedc97be59f3f377c0d4190910155565b61062d33610c8a565b6106495760405162461bcd60e51b81526004016103d890611423565b80156106bb576106846001600160a01b037f000000000000000000000000000000000000000000000000000000000000000016333084610f2c565b61068d82610cb4565b6001600160a01b038216600090815260076020526040812080548392906106b5908490611457565b90915550505b5050565b60405163f0723d9760e01b81526001600160a01b037f0000000000000000000000000000000000000000000000000000000000000000169063f0723d979061070d9084908690600401611349565b60206040518083038186803b15801561072557600080fd5b505afa158015610739573d6000803e3d6000fd5b505050506040513d601f19601f8201168201806040525081019061075d919061129a565b6001600160a01b0391909116600090815260016020908152604080832094835293905291909120805460ff1916911515919091179055565b61079e33610cb4565b565b606060038054806020026020016040519081016040528092919081815260200182805480156107ee57602002820191906000526020600020905b8154815260200190600101908083116107da575b5050505050905090565b6005818154811061080857600080fd5b600091825260209091200154905081565b33610822610e23565b6001600160a01b0316148061084657503361083b610ebb565b6001600160a01b0316145b6108625760405162461bcd60e51b81526004016103d8906113d9565b6104516001600160a01b0384168383610dcd565b6006818154811061088657600080fd5b60009182526020909120600390910201805460018201546002909201546001600160a01b03909116925083565b606060048054806020026020016040519081016040528092919081815260200182805480156107ee57602002820191906000526020600020908154815260200190600101908083116107da575050505050905090565b61091233610cb4565b33600090815260076020526040812080548492906109319084906114ae565b909155505081156106bb576106bb6001600160a01b037f0000000000000000000000000000000000000000000000000000000000000000168284610dcd565b80156109ab576109ab6001600160a01b037f000000000000000000000000000000000000000000000000000000000000000016333084610f2c565b6109b433610cb4565b33600090815260076020526040812080548392906109d3908490611457565b909155505050565b6002818154811061080857600080fd5b6004818154811061080857600080fd5b6003818154811061080857600080fd5b6040516370a0823160e01b81526000906001600160a01b037f000000000000000000000000000000000000000000000000000000000000000016906370a0823190610a5a903090600401611335565b60206040518083038186803b158015610a7257600080fd5b505afa158015610a86573d6000803e3d6000fd5b505050506040513d601f19601f82011682018060405250810190610aaa91906112d2565b905060005b6006548110156106bb57600060068281548110610adc57634e487b7160e01b600052603260045260246000fd5b60009182526020822060039091020180546040516370a0823160e01b81529193506001600160a01b0316919082906370a0823190610b1e903090600401611335565b60206040518083038186803b158015610b3657600080fd5b505afa158015610b4a573d6000803e3d6000fd5b505050506040513d601f19601f82011682018060405250810190610b6e91906112d2565b90508260020154811115610bc25784836002015482610b8d91906114ae565b610b9f90670de0b6b3a764000061148f565b610ba9919061146f565b836001016000828254610bbc9190611457565b90915550505b6002909201919091555080610bd6816114f1565b915050610aaf565b606060028054806020026020016040519081016040528092919081815260200182805480156107ee57602002820191906000526020600020908154815260200190600101908083116107da575050505050905090565b606060058054806020026020016040519081016040528092919081815260200182805480156107ee57602002820191906000526020600020908154815260200190600101908083116107da575050505050905090565b6001600160a01b031660009081526001602090815260408083206009845290915290205460ff1690565b6001600160a01b038116600090815260076020526040902054610cd5610a0b565b6001600160a01b0382166000908152600860205260408120905b600654811015610dc457600060068281548110610d1c57634e487b7160e01b600052603260045260246000fd5b906000526020600020906003020190506000836000848152602001908152602001600020549050808260010154118015610d565750600085115b15610d9e57610d9e86670de0b6b3a7640000838560010154610d7891906114ae565b610d82908961148f565b610d8c919061146f565b84546001600160a01b03169190610dcd565b506001015460008281526020849052604090205580610dbc816114f1565b915050610cef565b50610451610a0b565b6104518363a9059cbb60e01b8484604051602401610dec929190611349565b60408051601f198184030181529190526020810180516001600160e01b03166001600160e01b031990931692909217909152610f6a565b60007f00000000000000000000000000000000000000000000000000000000000000006001600160a01b0316638da5cb5b6040518163ffffffff1660e01b815260040160206040518083038186803b158015610e7e57600080fd5b505afa158015610e92573d6000803e3d6000fd5b505050506040513d601f19601f82011682018060405250810190610eb691906111d2565b905090565b60007f00000000000000000000000000000000000000000000000000000000000000006001600160a01b031663c34c08e56040518163ffffffff1660e01b8152600401602060405180830381600087803b158015610f1857600080fd5b505af1158015610e92573d6000803e3d6000fd5b6040516001600160a01b0380851660248301528316604482015260648101829052610f649085906323b872dd60e01b90608401610dec565b50505050565b6000610fbf826040518060400160405280602081526020017f5361666545524332303a206c6f772d6c6576656c2063616c6c206661696c6564815250856001600160a01b031661103c9092919063ffffffff16565b8051909150156104515780806020019051810190610fdd919061129a565b6104515760405162461bcd60e51b815260206004820152602a60248201527f5361666545524332303a204552433230206f7065726174696f6e20646964206e6044820152691bdd081cdd58d8d9595960b21b60648201526084016103d8565b606061104b8484600085611055565b90505b9392505050565b6060824710156110b65760405162461bcd60e51b815260206004820152602660248201527f416464726573733a20696e73756666696369656e742062616c616e636520666f6044820152651c8818d85b1b60d21b60648201526084016103d8565b843b6111045760405162461bcd60e51b815260206004820152601d60248201527f416464726573733a2063616c6c20746f206e6f6e2d636f6e747261637400000060448201526064016103d8565b600080866001600160a01b031685876040516111209190611319565b60006040518083038185875af1925050503d806000811461115d576040519150601f19603f3d011682016040523d82523d6000602084013e611162565b606091505b509150915061117282828661117d565b979650505050505050565b6060831561118c57508161104e565b82511561119c5782518084602001fd5b8160405162461bcd60e51b81526004016103d891906113a6565b6000602082840312156111c7578081fd5b813561104e81611522565b6000602082840312156111e3578081fd5b815161104e81611522565b600080600060608486031215611202578182fd5b833561120d81611522565b9250602084013561121d81611522565b929592945050506040919091013590565b60008060408385031215611240578182fd5b823561124b81611522565b946020939093013593505050565b60008060006060848603121561126d578283fd5b833561127881611522565b925060208401359150604084013561128f81611522565b809150509250925092565b6000602082840312156112ab578081fd5b8151801515811461104e578182fd5b6000602082840312156112cb578081fd5b5035919050565b6000602082840312156112e3578081fd5b5051919050565b600080604083850312156112fc578182fd5b82359150602083013561130e81611522565b809150509250929050565b6000825161132b8184602087016114c5565b9190910192915050565b6001600160a01b0391909116815260200190565b6001600160a01b03929092168252602082015260400190565b6020808252825182820181905260009190848201906040850190845b8181101561139a5783518352928401929184019160010161137e565b50909695505050505050565b60006020825282518060208401526113c58160408501602087016114c5565b601f01601f19169190910160400192915050565b6020808252602a908201527f526f6c65733a2063616c6c6572206973206e6f7420746865206f776e6572206f604082015269391032bc32b1baba37b960b11b606082015260800190565b6020808252601a90820152794f6e6c7920666f72206c6971756964207969656c6420726f6c6560301b604082015260600190565b6000821982111561146a5761146a61150c565b500190565b60008261148a57634e487b7160e01b81526012600452602481fd5b500490565b60008160001904831182151516156114a9576114a961150c565b500290565b6000828210156114c0576114c061150c565b500390565b60005b838110156114e05781810151838201526020016114c8565b83811115610f645750506000910152565b60006000198214156115055761150561150c565b5060010190565b634e487b7160e01b600052601160045260246000fd5b6001600160a01b038116811461153757600080fd5b5056fea264697066735822122078dcbf4ec5a73b988aad3f4080f751e931cc9786e78aef91e306c1f4e891cf4264736f6c63430008030033",
  "devdoc": {
    "kind": "dev",
    "methods": {
      "charactersPlayed()": {
        "details": "returns all characters played by this contract (e.g. stable coin, oracle registry)"
      },
      "dependsOnCharacters()": {
        "details": "returns all the character dependencies like FEE_RECIPIENT"
      },
      "dependsOnRoles()": {
        "details": "returns all the roles dependencies of this contract like FUND_TRANSFERER"
      },
      "rolesPlayed()": {
        "details": "returns all roles played by this contract"
      },
      "updateMainCharacterCache(uint256)": {
        "details": "Updates the main character cache for a speciic character"
      },
      "updateRoleCache(uint256,address)": {
        "details": "Updates the role cache for a specific role and address"
      }
    },
    "version": 1
  },
  "userdoc": {
    "kind": "user",
    "methods": {
      "harvest()": {
        "notice": "Claim yield for account without depositing or withdrawing"
      },
      "rescueFunds(address,address,uint256)": {
        "notice": "Rescue stranded funds"
      },
      "stake(uint256)": {
        "notice": "Deposit yield bearing tokens"
      },
      "stakeFor(address,uint256)": {
        "notice": "Deposit yield bearing tokens on behalf of another"
      },
      "unstake(uint256,address)": {
        "notice": "Withdraw yield bearing tokens"
      },
      "unstakeFor(address,uint256,address)": {
        "notice": "Withdraw yield bearing tokens on behalf of another"
      },
      "updateRewardTotal()": {
        "notice": "Account for any incoming rewards, to be distributed, as well as reward outflows in reserve"
      }
    },
    "version": 1
  },
  "storageLayout": {
    "storage": [
      {
        "astId": 29200,
        "contract": "contracts/liquid-yield/mAvaxRedistributor.sol:mAvaxRedistributor",
        "label": "mainCharacterCache",
        "offset": 0,
        "slot": "0",
        "type": "t_mapping(t_uint256,t_address)"
      },
      {
        "astId": 29206,
        "contract": "contracts/liquid-yield/mAvaxRedistributor.sol:mAvaxRedistributor",
        "label": "roleCache",
        "offset": 0,
        "slot": "1",
        "type": "t_mapping(t_address,t_mapping(t_uint256,t_bool))"
      },
      {
        "astId": 29209,
        "contract": "contracts/liquid-yield/mAvaxRedistributor.sol:mAvaxRedistributor",
        "label": "_dependsOnCharacters",
        "offset": 0,
        "slot": "2",
        "type": "t_array(t_uint256)dyn_storage"
      },
      {
        "astId": 29212,
        "contract": "contracts/liquid-yield/mAvaxRedistributor.sol:mAvaxRedistributor",
        "label": "_dependsOnRoles",
        "offset": 0,
        "slot": "3",
        "type": "t_array(t_uint256)dyn_storage"
      },
      {
        "astId": 29215,
        "contract": "contracts/liquid-yield/mAvaxRedistributor.sol:mAvaxRedistributor",
        "label": "_charactersPlayed",
        "offset": 0,
        "slot": "4",
        "type": "t_array(t_uint256)dyn_storage"
      },
      {
        "astId": 29218,
        "contract": "contracts/liquid-yield/mAvaxRedistributor.sol:mAvaxRedistributor",
        "label": "_rolesPlayed",
        "offset": 0,
        "slot": "5",
        "type": "t_array(t_uint256)dyn_storage"
      },
      {
        "astId": 20187,
        "contract": "contracts/liquid-yield/mAvaxRedistributor.sol:mAvaxRedistributor",
        "label": "rewardTokens",
        "offset": 0,
        "slot": "6",
        "type": "t_array(t_struct(RewardToken)20180_storage)dyn_storage"
      },
      {
        "astId": 20191,
        "contract": "contracts/liquid-yield/mAvaxRedistributor.sol:mAvaxRedistributor",
        "label": "stakedBalance",
        "offset": 0,
        "slot": "7",
        "type": "t_mapping(t_address,t_uint256)"
      },
      {
        "astId": 20197,
        "contract": "contracts/liquid-yield/mAvaxRedistributor.sol:mAvaxRedistributor",
        "label": "rewardIndex",
        "offset": 0,
        "slot": "8",
        "type": "t_mapping(t_address,t_mapping(t_uint256,t_uint256))"
      }
    ],
    "types": {
      "t_address": {
        "encoding": "inplace",
        "label": "address",
        "numberOfBytes": "20"
      },
      "t_array(t_struct(RewardToken)20180_storage)dyn_storage": {
        "base": "t_struct(RewardToken)20180_storage",
        "encoding": "dynamic_array",
        "label": "struct LyRedistributor.RewardToken[]",
        "numberOfBytes": "32"
      },
      "t_array(t_uint256)dyn_storage": {
        "base": "t_uint256",
        "encoding": "dynamic_array",
        "label": "uint256[]",
        "numberOfBytes": "32"
      },
      "t_bool": {
        "encoding": "inplace",
        "label": "bool",
        "numberOfBytes": "1"
      },
      "t_mapping(t_address,t_mapping(t_uint256,t_bool))": {
        "encoding": "mapping",
        "key": "t_address",
        "label": "mapping(address => mapping(uint256 => bool))",
        "numberOfBytes": "32",
        "value": "t_mapping(t_uint256,t_bool)"
      },
      "t_mapping(t_address,t_mapping(t_uint256,t_uint256))": {
        "encoding": "mapping",
        "key": "t_address",
        "label": "mapping(address => mapping(uint256 => uint256))",
        "numberOfBytes": "32",
        "value": "t_mapping(t_uint256,t_uint256)"
      },
      "t_mapping(t_address,t_uint256)": {
        "encoding": "mapping",
        "key": "t_address",
        "label": "mapping(address => uint256)",
        "numberOfBytes": "32",
        "value": "t_uint256"
      },
      "t_mapping(t_uint256,t_address)": {
        "encoding": "mapping",
        "key": "t_uint256",
        "label": "mapping(uint256 => address)",
        "numberOfBytes": "32",
        "value": "t_address"
      },
      "t_mapping(t_uint256,t_bool)": {
        "encoding": "mapping",
        "key": "t_uint256",
        "label": "mapping(uint256 => bool)",
        "numberOfBytes": "32",
        "value": "t_bool"
      },
      "t_mapping(t_uint256,t_uint256)": {
        "encoding": "mapping",
        "key": "t_uint256",
        "label": "mapping(uint256 => uint256)",
        "numberOfBytes": "32",
        "value": "t_uint256"
      },
      "t_struct(RewardToken)20180_storage": {
        "encoding": "inplace",
        "label": "struct LyRedistributor.RewardToken",
        "members": [
          {
            "astId": 20175,
            "contract": "contracts/liquid-yield/mAvaxRedistributor.sol:mAvaxRedistributor",
            "label": "token",
            "offset": 0,
            "slot": "0",
            "type": "t_address"
          },
          {
            "astId": 20177,
            "contract": "contracts/liquid-yield/mAvaxRedistributor.sol:mAvaxRedistributor",
            "label": "cumulRewardPer1e18",
            "offset": 0,
            "slot": "1",
            "type": "t_uint256"
          },
          {
            "astId": 20179,
            "contract": "contracts/liquid-yield/mAvaxRedistributor.sol:mAvaxRedistributor",
            "label": "reserve",
            "offset": 0,
            "slot": "2",
            "type": "t_uint256"
          }
        ],
        "numberOfBytes": "96"
      },
      "t_uint256": {
        "encoding": "inplace",
        "label": "uint256",
        "numberOfBytes": "32"
      }
    }
  }
}