{
  "address": "0x29235B22e1Bba720C6B4Ef47624c739A7Ce1bd85",
  "abi": [
    {
      "inputs": [
        {
          "internalType": "address",
          "name": "_roles",
          "type": "address"
        }
      ],
      "stateMutability": "nonpayable",
      "type": "constructor"
    },
    {
      "inputs": [
        {
          "internalType": "uint256",
          "name": "",
          "type": "uint256"
        }
      ],
      "name": "_charactersPlayed",
      "outputs": [
        {
          "internalType": "uint256",
          "name": "",
          "type": "uint256"
        }
      ],
      "stateMutability": "view",
      "type": "function"
    },
    {
      "inputs": [
        {
          "internalType": "uint256",
          "name": "",
          "type": "uint256"
        }
      ],
      "name": "_dependsOnCharacters",
      "outputs": [
        {
          "internalType": "uint256",
          "name": "",
          "type": "uint256"
        }
      ],
      "stateMutability": "view",
      "type": "function"
    },
    {
      "inputs": [
        {
          "internalType": "uint256",
          "name": "",
          "type": "uint256"
        }
      ],
      "name": "_dependsOnRoles",
      "outputs": [
        {
          "internalType": "uint256",
          "name": "",
          "type": "uint256"
        }
      ],
      "stateMutability": "view",
      "type": "function"
    },
    {
      "inputs": [
        {
          "internalType": "uint256",
          "name": "",
          "type": "uint256"
        }
      ],
      "name": "_rolesPlayed",
      "outputs": [
        {
          "internalType": "uint256",
          "name": "",
          "type": "uint256"
        }
      ],
      "stateMutability": "view",
      "type": "function"
    },
    {
      "inputs": [],
      "name": "charactersPlayed",
      "outputs": [
        {
          "internalType": "uint256[]",
          "name": "",
          "type": "uint256[]"
        }
      ],
      "stateMutability": "view",
      "type": "function"
    },
    {
      "inputs": [],
      "name": "dependsOnCharacters",
      "outputs": [
        {
          "internalType": "uint256[]",
          "name": "",
          "type": "uint256[]"
        }
      ],
      "stateMutability": "view",
      "type": "function"
    },
    {
      "inputs": [],
      "name": "dependsOnRoles",
      "outputs": [
        {
          "internalType": "uint256[]",
          "name": "",
          "type": "uint256[]"
        }
      ],
      "stateMutability": "view",
      "type": "function"
    },
    {
      "inputs": [
        {
          "internalType": "address",
          "name": "token",
          "type": "address"
        },
        {
          "internalType": "uint256",
          "name": "inAmount",
          "type": "uint256"
        },
        {
          "internalType": "address",
          "name": "pegCurrency",
          "type": "address"
        }
      ],
      "name": "getAmountInPeg",
      "outputs": [
        {
          "internalType": "uint256",
          "name": "",
          "type": "uint256"
        }
      ],
      "stateMutability": "nonpayable",
      "type": "function"
    },
    {
      "inputs": [
        {
          "internalType": "address[]",
          "name": "tokens",
          "type": "address[]"
        },
        {
          "internalType": "uint256[]",
          "name": "inAmounts",
          "type": "uint256[]"
        },
        {
          "internalType": "address",
          "name": "pegCurrency",
          "type": "address"
        }
      ],
      "name": "getAmountsInPeg",
      "outputs": [
        {
          "internalType": "uint256[]",
          "name": "",
          "type": "uint256[]"
        }
      ],
      "stateMutability": "nonpayable",
      "type": "function"
    },
    {
      "inputs": [
        {
          "internalType": "address",
          "name": "token",
          "type": "address"
        },
        {
          "internalType": "address",
          "name": "pegCurrency",
          "type": "address"
        }
      ],
      "name": "listenForCurrentOracleUpdates",
      "outputs": [
        {
          "internalType": "address",
          "name": "",
          "type": "address"
        }
      ],
      "stateMutability": "nonpayable",
      "type": "function"
    },
    {
      "inputs": [
        {
          "internalType": "uint256",
          "name": "",
          "type": "uint256"
        }
      ],
      "name": "mainCharacterCache",
      "outputs": [
        {
          "internalType": "address",
          "name": "",
          "type": "address"
        }
      ],
      "stateMutability": "view",
      "type": "function"
    },
    {
      "inputs": [
        {
          "internalType": "address",
          "name": "",
          "type": "address"
        },
        {
          "internalType": "uint256",
          "name": "",
          "type": "uint256"
        }
      ],
      "name": "roleCache",
      "outputs": [
        {
          "internalType": "bool",
          "name": "",
          "type": "bool"
        }
      ],
      "stateMutability": "view",
      "type": "function"
    },
    {
      "inputs": [],
      "name": "roles",
      "outputs": [
        {
          "internalType": "contract Roles",
          "name": "",
          "type": "address"
        }
      ],
      "stateMutability": "view",
      "type": "function"
    },
    {
      "inputs": [],
      "name": "rolesPlayed",
      "outputs": [
        {
          "internalType": "uint256[]",
          "name": "",
          "type": "uint256[]"
        }
      ],
      "stateMutability": "view",
      "type": "function"
    },
    {
      "inputs": [
        {
          "internalType": "address",
          "name": "token",
          "type": "address"
        },
        {
          "internalType": "address",
          "name": "pegCurrency",
          "type": "address"
        },
        {
          "internalType": "address",
          "name": "oracle",
          "type": "address"
        },
        {
          "internalType": "uint256",
          "name": "borrowablePer10k",
          "type": "uint256"
        },
        {
          "internalType": "bool",
          "name": "primary",
          "type": "bool"
        },
        {
          "internalType": "bytes",
          "name": "data",
          "type": "bytes"
        }
      ],
      "name": "setOracleParams",
      "outputs": [],
      "stateMutability": "nonpayable",
      "type": "function"
    },
    {
      "inputs": [
        {
          "internalType": "address",
          "name": "",
          "type": "address"
        },
        {
          "internalType": "address",
          "name": "",
          "type": "address"
        }
      ],
      "name": "tokenOracle",
      "outputs": [
        {
          "internalType": "address",
          "name": "",
          "type": "address"
        }
      ],
      "stateMutability": "view",
      "type": "function"
    },
    {
      "inputs": [
        {
          "internalType": "uint256",
          "name": "role",
          "type": "uint256"
        }
      ],
      "name": "updateMainCharacterCache",
      "outputs": [],
      "stateMutability": "nonpayable",
      "type": "function"
    },
    {
      "inputs": [
        {
          "internalType": "uint256",
          "name": "role",
          "type": "uint256"
        },
        {
          "internalType": "address",
          "name": "contr",
          "type": "address"
        }
      ],
      "name": "updateRoleCache",
      "outputs": [],
      "stateMutability": "nonpayable",
      "type": "function"
    },
    {
      "inputs": [
        {
          "internalType": "address",
          "name": "token",
          "type": "address"
        },
        {
          "internalType": "uint256",
          "name": "inAmount",
          "type": "uint256"
        },
        {
          "internalType": "address",
          "name": "pegCurrency",
          "type": "address"
        }
      ],
      "name": "viewAmountInPeg",
      "outputs": [
        {
          "internalType": "uint256",
          "name": "",
          "type": "uint256"
        }
      ],
      "stateMutability": "view",
      "type": "function"
    },
    {
      "inputs": [
        {
          "internalType": "address[]",
          "name": "tokens",
          "type": "address[]"
        },
        {
          "internalType": "uint256[]",
          "name": "inAmounts",
          "type": "uint256[]"
        },
        {
          "internalType": "address",
          "name": "pegCurrency",
          "type": "address"
        }
      ],
      "name": "viewAmountsInPeg",
      "outputs": [
        {
          "internalType": "uint256[]",
          "name": "",
          "type": "uint256[]"
        }
      ],
      "stateMutability": "view",
      "type": "function"
    }
  ],
  "transactionHash": "0x1f5cd30787c8c4800b9e2f6388db969a4dcf5492e0b557593627954d2fb8120f",
  "args": [
    "0x1bbA67a439A857c60Bca5429701316E8908aB77e"
  ],
  "solcInputHash": "071b44810034a93e0aa6aee59800efd1",
  "bytecode": "0x60a060405234801561001057600080fd5b506040516114a53803806114a583398101604081905261002f91610111565b806001600160a01b0381166100955760405162461bcd60e51b815260206004820152602260248201527f506c656173652070726f766964652076616c696420726f6c6573206164647265604482015261737360f01b606482015260840160405180910390fd5b60601b6001600160601b0319166080525060038054600180820190925560047fc2575a0e9e593c00f959f8c92f12db2869c3395a3b0502d05e2516446f71f85b90910181905580549182018155600052606a7f8a35acfbc15ff81a39ae7d344fd709f28e8600b4aa8c65c6b64bfe7fe36bd19b9091015561013f565b600060208284031215610122578081fd5b81516001600160a01b0381168114610138578182fd5b9392505050565b60805160601c6113256101806000396000818161019f0152818161034b015281816105f801528181610cec01528181610d840152610e1b01526113256000f3fe608060405234801561001057600080fd5b506004361061012c5760003560e01c80637dad209b116100ad578063bf184ea411610071578063bf184ea4146102d6578063dc94cb7d146102e9578063e8ea4fae146102f1578063e9c3f77d146102f9578063fdaf4393146103225761012c565b80637dad209b146102825780638eaab58c1461028a578063abcbc4fc1461029d578063acd925e7146102b0578063aeb38d8b146102c35761012c565b80634a7a7f41116100f45780634a7a7f41146101d4578063576cbc30146101dc5780635e73a034146101fd5780636caa9c11146102315780637a1a04df146102445761012c565b8063071060a6146101315780630b32e50014610146578063175761681461016f578063392f5f641461019a578063447d52ba146101c1575b600080fd5b61014461013f3660046111b9565b610335565b005b61015961015436600461111c565b6103fb565b604051610166919061125e565b60405180910390f35b61018261017d366004610fb6565b61050a565b6040516001600160a01b039091168152602001610166565b6101827f000000000000000000000000000000000000000000000000000000000000000081565b6101446101cf3660046111e9565b6105d2565b6101596106aa565b6101ef6101ea3660046110db565b610702565b604051908152602001610166565b61018261020b366004610fb6565b60066020908152600092835260408084209091529082529020546001600160a01b031681565b6101ef61023f3660046111b9565b6107b4565b6102726102523660046110b0565b600160209081526000928352604080842090915290825290205460ff1681565b6040519015158152602001610166565b6101596107d5565b6101ef6102983660046110db565b61082b565b6101ef6102ab3660046111b9565b6108af565b6101446102be366004610fee565b6108bf565b6101ef6102d13660046111b9565b610afc565b6101ef6102e43660046111b9565b610b0c565b610159610b1c565b610159610b72565b6101826103073660046111b9565b6000602081905290815260409020546001600160a01b031681565b61015961033036600461111c565b610bc8565b60405163b4ed0b6d60e01b8152600481018290527f00000000000000000000000000000000000000000000000000000000000000006001600160a01b03169063b4ed0b6d9060240160206040518083038186803b15801561039557600080fd5b505afa1580156103a9573d6000803e3d6000fd5b505050506040513d601f19601f820116820180604052508101906103cd9190610f9a565b60009182526020829052604090912080546001600160a01b0319166001600160a01b03909216919091179055565b606060008367ffffffffffffffff81111561042657634e487b7160e01b600052604160045260246000fd5b60405190808252806020026020018201604052801561044f578160200160208202803683370190505b50905060005b808511156104ff576104c288888381811061048057634e487b7160e01b600052603260045260246000fd5b90506020020160208101906104959190610f7e565b8787848181106104b557634e487b7160e01b600052603260045260246000fd5b9050602002013586610702565b8282815181106104e257634e487b7160e01b600052603260045260246000fd5b6020908102919091010152806104f7816112a2565b915050610455565b509695505050505050565b3360009081526001602090815260408083206004845290915281205460ff166105725760405162461bcd60e51b81526020600482015260156024820152742737ba1030b63637bbb2b2103a37903634b9ba32b760591b60448201526064015b60405180910390fd5b6001600160a01b0380841660009081526007602090815260408083209386168352929052206105a19033610ccc565b50506001600160a01b0380831660009081526006602090815260408083208585168452909152902054165b92915050565b60405163f0723d9760e01b81526001600160a01b038281166004830152602482018490527f0000000000000000000000000000000000000000000000000000000000000000169063f0723d979060440160206040518083038186803b15801561063a57600080fd5b505afa15801561064e573d6000803e3d6000fd5b505050506040513d601f19601f82011682018060405250810190610672919061119d565b6001600160a01b0391909116600090815260016020908152604080832094835293905291909120805460ff1916911515919091179055565b606060038054806020026020016040519081016040528092919081815260200182805480156106f857602002820191906000526020600020905b8154815260200190600101908083116106e4575b5050505050905090565b6001600160a01b0383811660008181526006602090815260408083208686168085529252808320549051630576cbc360e41b815260048101949094526024840187905260448401919091529092169063576cbc3090606401602060405180830381600087803b15801561077457600080fd5b505af1158015610788573d6000803e3d6000fd5b505050506040513d601f19601f820116820180604052508101906107ac91906111d1565b949350505050565b600581815481106107c457600080fd5b600091825260209091200154905081565b606060048054806020026020016040519081016040528092919081815260200182805480156106f857602002820191906000526020600020908154815260200190600101908083116106e4575050505050905090565b6001600160a01b03838116600081815260066020908152604080832086861680855292528083205490516323aaad6360e21b8152600481019490945260248401879052604484019190915290921690638eaab58c9060640160206040518083038186803b15801561089b57600080fd5b505afa158015610788573d6000803e3d6000fd5b600281815481106107c457600080fd5b336108c8610ce8565b6001600160a01b031614806108ec5750336108e1610d80565b6001600160a01b0316145b806108fb57506108fb33610df1565b61096d5760405162461bcd60e51b815260206004820152603960248201527f43616c6c6572206973206e6f7420746865206f776e65722c206578656375746f60448201527f72206f7220617574686f72697a656420616374697661746f72000000000000006064820152608401610569565b60405163448f50d560e11b81526001600160a01b0386169063891ea1aa906109a1908a908a9089908890889060040161120d565b600060405180830381600087803b1580156109bb57600080fd5b505af11580156109cf573d6000803e3d6000fd5b505050506001600160a01b0387811660009081526006602090815260408083208a8516845290915290205416801580610a055750835b15610af2576001600160a01b0388811660008181526006602090815260408083208c861680855290835281842080546001600160a01b031916968d169690961790955592825260078152828220938252929092528120905b80610a6783610e97565b1115610aef57610a778282610ea1565b6040516328f3fc7360e01b81526001600160a01b038c811660048301528b8116602483015291909116906328f3fc7390604401600060405180830381600087803b158015610ac457600080fd5b505af1158015610ad8573d6000803e3d6000fd5b505050508080610ae7906112a2565b915050610a5d565b50505b5050505050505050565b600481815481106107c457600080fd5b600381815481106107c457600080fd5b606060028054806020026020016040519081016040528092919081815260200182805480156106f857602002820191906000526020600020908154815260200190600101908083116106e4575050505050905090565b606060058054806020026020016040519081016040528092919081815260200182805480156106f857602002820191906000526020600020908154815260200190600101908083116106e4575050505050905090565b606060008367ffffffffffffffff811115610bf357634e487b7160e01b600052604160045260246000fd5b604051908082528060200260200182016040528015610c1c578160200160208202803683370190505b50905060005b808511156104ff57610c8f888883818110610c4d57634e487b7160e01b600052603260045260246000fd5b9050602002016020810190610c629190610f7e565b878784818110610c8257634e487b7160e01b600052603260045260246000fd5b905060200201358661082b565b828281518110610caf57634e487b7160e01b600052603260045260246000fd5b602090810291909101015280610cc4816112a2565b915050610c22565b6000610ce1836001600160a01b038416610ead565b9392505050565b60007f00000000000000000000000000000000000000000000000000000000000000006001600160a01b0316638da5cb5b6040518163ffffffff1660e01b815260040160206040518083038186803b158015610d4357600080fd5b505afa158015610d57573d6000803e3d6000fd5b505050506040513d601f19601f82011682018060405250810190610d7b9190610f9a565b905090565b60007f00000000000000000000000000000000000000000000000000000000000000006001600160a01b031663c34c08e56040518163ffffffff1660e01b8152600401602060405180830381600087803b158015610ddd57600080fd5b505af1158015610d57573d6000803e3d6000fd5b60405163f0723d9760e01b81526001600160a01b0382811660048301526103eb60248301526000917f00000000000000000000000000000000000000000000000000000000000000009091169063f0723d979060440160206040518083038186803b158015610e5f57600080fd5b505afa158015610e73573d6000803e3d6000fd5b505050506040513d601f19601f820116820180604052508101906105cc919061119d565b60006105cc825490565b6000610ce18383610efc565b6000818152600183016020526040812054610ef4575081546001818101845560008481526020808220909301849055845484825282860190935260409020919091556105cc565b5060006105cc565b6000826000018281548110610f2157634e487b7160e01b600052603260045260246000fd5b9060005260206000200154905092915050565b60008083601f840112610f45578182fd5b50813567ffffffffffffffff811115610f5c578182fd5b6020830191508360208260051b8501011115610f7757600080fd5b9250929050565b600060208284031215610f8f578081fd5b8135610ce1816112c9565b600060208284031215610fab578081fd5b8151610ce1816112c9565b60008060408385031215610fc8578081fd5b8235610fd3816112c9565b91506020830135610fe3816112c9565b809150509250929050565b600080600080600080600060c0888a031215611008578283fd5b8735611013816112c9565b96506020880135611023816112c9565b95506040880135611033816112c9565b945060608801359350608088013561104a816112e1565b925060a088013567ffffffffffffffff80821115611066578384fd5b818a0191508a601f830112611079578384fd5b813581811115611087578485fd5b8b6020828501011115611098578485fd5b60208301945080935050505092959891949750929550565b600080604083850312156110c2578182fd5b82356110cd816112c9565b946020939093013593505050565b6000806000606084860312156110ef578283fd5b83356110fa816112c9565b9250602084013591506040840135611111816112c9565b809150509250925092565b600080600080600060608688031215611133578081fd5b853567ffffffffffffffff8082111561114a578283fd5b61115689838a01610f34565b9097509550602088013591508082111561116e578283fd5b5061117b88828901610f34565b909450925050604086013561118f816112c9565b809150509295509295909350565b6000602082840312156111ae578081fd5b8151610ce1816112e1565b6000602082840312156111ca578081fd5b5035919050565b6000602082840312156111e2578081fd5b5051919050565b600080604083850312156111fb578182fd5b823591506020830135610fe3816112c9565b6001600160a01b038681168252851660208201526040810184905260806060820181905281018290526000828460a084013781830160a090810191909152601f909201601f19160101949350505050565b6020808252825182820181905260009190848201906040850190845b818110156112965783518352928401929184019160010161127a565b50909695505050505050565b60006000198214156112c257634e487b7160e01b81526011600452602481fd5b5060010190565b6001600160a01b03811681146112de57600080fd5b50565b80151581146112de57600080fdfea26469706673582212206b67616df10fc29389680049ca4adce582c3d4390e7c2759578b7621ccde5c2e64736f6c63430008030033",
  "devdoc": {
    "kind": "dev",
    "methods": {
      "charactersPlayed()": {
        "details": "returns all characters played by this contract (e.g. stable coin, oracle registry)"
      },
      "dependsOnCharacters()": {
        "details": "returns all the character dependencies like FEE_RECIPIENT"
      },
      "dependsOnRoles()": {
        "details": "returns all the roles dependencies of this contract like FUND_TRANSFERER"
      },
      "rolesPlayed()": {
        "details": "returns all roles played by this contract"
      },
      "updateMainCharacterCache(uint256)": {
        "details": "Updates the main character cache for a speciic character"
      },
      "updateRoleCache(uint256,address)": {
        "details": "Updates the role cache for a specific role and address"
      }
    },
    "version": 1
  },
  "userdoc": {
    "kind": "user",
    "methods": {
      "getAmountInPeg(address,uint256,address)": {
        "notice": "Update converted value in currently registered oracle"
      },
      "getAmountsInPeg(address[],uint256[],address)": {
        "notice": "Get amounts for an array of tokens"
      },
      "listenForCurrentOracleUpdates(address,address)": {
        "notice": "Which oracle contract is currently responsible for a token is cached This updates"
      },
      "setOracleParams(address,address,address,uint256,bool,bytes)": {
        "notice": "Initialize oracle for a specific token"
      },
      "viewAmountInPeg(address,uint256,address)": {
        "notice": "View converted value in currently registered oracle"
      },
      "viewAmountsInPeg(address[],uint256[],address)": {
        "notice": "View amounts for an array of tokens"
      }
    },
    "notice": "Central hub and router for all oracles",
    "version": 1
  },
  "storageLayout": {
    "storage": [
      {
        "astId": 17019,
        "contract": "contracts/OracleRegistry.sol:OracleRegistry",
        "label": "mainCharacterCache",
        "offset": 0,
        "slot": "0",
        "type": "t_mapping(t_uint256,t_address)"
      },
      {
        "astId": 17025,
        "contract": "contracts/OracleRegistry.sol:OracleRegistry",
        "label": "roleCache",
        "offset": 0,
        "slot": "1",
        "type": "t_mapping(t_address,t_mapping(t_uint256,t_bool))"
      },
      {
        "astId": 17028,
        "contract": "contracts/OracleRegistry.sol:OracleRegistry",
        "label": "_dependsOnCharacters",
        "offset": 0,
        "slot": "2",
        "type": "t_array(t_uint256)dyn_storage"
      },
      {
        "astId": 17031,
        "contract": "contracts/OracleRegistry.sol:OracleRegistry",
        "label": "_dependsOnRoles",
        "offset": 0,
        "slot": "3",
        "type": "t_array(t_uint256)dyn_storage"
      },
      {
        "astId": 17034,
        "contract": "contracts/OracleRegistry.sol:OracleRegistry",
        "label": "_charactersPlayed",
        "offset": 0,
        "slot": "4",
        "type": "t_array(t_uint256)dyn_storage"
      },
      {
        "astId": 17037,
        "contract": "contracts/OracleRegistry.sol:OracleRegistry",
        "label": "_rolesPlayed",
        "offset": 0,
        "slot": "5",
        "type": "t_array(t_uint256)dyn_storage"
      },
      {
        "astId": 8399,
        "contract": "contracts/OracleRegistry.sol:OracleRegistry",
        "label": "tokenOracle",
        "offset": 0,
        "slot": "6",
        "type": "t_mapping(t_address,t_mapping(t_address,t_address))"
      },
      {
        "astId": 8406,
        "contract": "contracts/OracleRegistry.sol:OracleRegistry",
        "label": "_listeners",
        "offset": 0,
        "slot": "7",
        "type": "t_mapping(t_address,t_mapping(t_address,t_struct(AddressSet)4372_storage))"
      }
    ],
    "types": {
      "t_address": {
        "encoding": "inplace",
        "label": "address",
        "numberOfBytes": "20"
      },
      "t_array(t_bytes32)dyn_storage": {
        "base": "t_bytes32",
        "encoding": "dynamic_array",
        "label": "bytes32[]",
        "numberOfBytes": "32"
      },
      "t_array(t_uint256)dyn_storage": {
        "base": "t_uint256",
        "encoding": "dynamic_array",
        "label": "uint256[]",
        "numberOfBytes": "32"
      },
      "t_bool": {
        "encoding": "inplace",
        "label": "bool",
        "numberOfBytes": "1"
      },
      "t_bytes32": {
        "encoding": "inplace",
        "label": "bytes32",
        "numberOfBytes": "32"
      },
      "t_mapping(t_address,t_address)": {
        "encoding": "mapping",
        "key": "t_address",
        "label": "mapping(address => address)",
        "numberOfBytes": "32",
        "value": "t_address"
      },
      "t_mapping(t_address,t_mapping(t_address,t_address))": {
        "encoding": "mapping",
        "key": "t_address",
        "label": "mapping(address => mapping(address => address))",
        "numberOfBytes": "32",
        "value": "t_mapping(t_address,t_address)"
      },
      "t_mapping(t_address,t_mapping(t_address,t_struct(AddressSet)4372_storage))": {
        "encoding": "mapping",
        "key": "t_address",
        "label": "mapping(address => mapping(address => struct EnumerableSet.AddressSet))",
        "numberOfBytes": "32",
        "value": "t_mapping(t_address,t_struct(AddressSet)4372_storage)"
      },
      "t_mapping(t_address,t_mapping(t_uint256,t_bool))": {
        "encoding": "mapping",
        "key": "t_address",
        "label": "mapping(address => mapping(uint256 => bool))",
        "numberOfBytes": "32",
        "value": "t_mapping(t_uint256,t_bool)"
      },
      "t_mapping(t_address,t_struct(AddressSet)4372_storage)": {
        "encoding": "mapping",
        "key": "t_address",
        "label": "mapping(address => struct EnumerableSet.AddressSet)",
        "numberOfBytes": "32",
        "value": "t_struct(AddressSet)4372_storage"
      },
      "t_mapping(t_bytes32,t_uint256)": {
        "encoding": "mapping",
        "key": "t_bytes32",
        "label": "mapping(bytes32 => uint256)",
        "numberOfBytes": "32",
        "value": "t_uint256"
      },
      "t_mapping(t_uint256,t_address)": {
        "encoding": "mapping",
        "key": "t_uint256",
        "label": "mapping(uint256 => address)",
        "numberOfBytes": "32",
        "value": "t_address"
      },
      "t_mapping(t_uint256,t_bool)": {
        "encoding": "mapping",
        "key": "t_uint256",
        "label": "mapping(uint256 => bool)",
        "numberOfBytes": "32",
        "value": "t_bool"
      },
      "t_struct(AddressSet)4372_storage": {
        "encoding": "inplace",
        "label": "struct EnumerableSet.AddressSet",
        "members": [
          {
            "astId": 4371,
            "contract": "contracts/OracleRegistry.sol:OracleRegistry",
            "label": "_inner",
            "offset": 0,
            "slot": "0",
            "type": "t_struct(Set)4071_storage"
          }
        ],
        "numberOfBytes": "64"
      },
      "t_struct(Set)4071_storage": {
        "encoding": "inplace",
        "label": "struct EnumerableSet.Set",
        "members": [
          {
            "astId": 4066,
            "contract": "contracts/OracleRegistry.sol:OracleRegistry",
            "label": "_values",
            "offset": 0,
            "slot": "0",
            "type": "t_array(t_bytes32)dyn_storage"
          },
          {
            "astId": 4070,
            "contract": "contracts/OracleRegistry.sol:OracleRegistry",
            "label": "_indexes",
            "offset": 0,
            "slot": "1",
            "type": "t_mapping(t_bytes32,t_uint256)"
          }
        ],
        "numberOfBytes": "64"
      },
      "t_uint256": {
        "encoding": "inplace",
        "label": "uint256",
        "numberOfBytes": "32"
      }
    }
  }
}