{
  "address": "0xFd7902D11E31a70a512413352121A04D727cfE8D",
  "abi": [
    {
      "inputs": [
        {
          "internalType": "address",
          "name": "_roles",
          "type": "address"
        }
      ],
      "stateMutability": "nonpayable",
      "type": "constructor"
    },
    {
      "inputs": [
        {
          "internalType": "uint256",
          "name": "",
          "type": "uint256"
        }
      ],
      "name": "_charactersPlayed",
      "outputs": [
        {
          "internalType": "uint256",
          "name": "",
          "type": "uint256"
        }
      ],
      "stateMutability": "view",
      "type": "function"
    },
    {
      "inputs": [
        {
          "internalType": "uint256",
          "name": "",
          "type": "uint256"
        }
      ],
      "name": "_dependsOnCharacters",
      "outputs": [
        {
          "internalType": "uint256",
          "name": "",
          "type": "uint256"
        }
      ],
      "stateMutability": "view",
      "type": "function"
    },
    {
      "inputs": [
        {
          "internalType": "uint256",
          "name": "",
          "type": "uint256"
        }
      ],
      "name": "_dependsOnRoles",
      "outputs": [
        {
          "internalType": "uint256",
          "name": "",
          "type": "uint256"
        }
      ],
      "stateMutability": "view",
      "type": "function"
    },
    {
      "inputs": [
        {
          "internalType": "uint256",
          "name": "",
          "type": "uint256"
        }
      ],
      "name": "_rolesPlayed",
      "outputs": [
        {
          "internalType": "uint256",
          "name": "",
          "type": "uint256"
        }
      ],
      "stateMutability": "view",
      "type": "function"
    },
    {
      "inputs": [],
      "name": "charactersPlayed",
      "outputs": [
        {
          "internalType": "uint256[]",
          "name": "",
          "type": "uint256[]"
        }
      ],
      "stateMutability": "view",
      "type": "function"
    },
    {
      "inputs": [],
      "name": "dependsOnCharacters",
      "outputs": [
        {
          "internalType": "uint256[]",
          "name": "",
          "type": "uint256[]"
        }
      ],
      "stateMutability": "view",
      "type": "function"
    },
    {
      "inputs": [],
      "name": "dependsOnRoles",
      "outputs": [
        {
          "internalType": "uint256[]",
          "name": "",
          "type": "uint256[]"
        }
      ],
      "stateMutability": "view",
      "type": "function"
    },
    {
      "inputs": [
        {
          "internalType": "address",
          "name": "token",
          "type": "address"
        },
        {
          "internalType": "address",
          "name": "pegCurrency",
          "type": "address"
        }
      ],
      "name": "listenForCurrentOracleUpdates",
      "outputs": [
        {
          "internalType": "address",
          "name": "",
          "type": "address"
        }
      ],
      "stateMutability": "nonpayable",
      "type": "function"
    },
    {
      "inputs": [
        {
          "internalType": "uint256",
          "name": "",
          "type": "uint256"
        }
      ],
      "name": "mainCharacterCache",
      "outputs": [
        {
          "internalType": "address",
          "name": "",
          "type": "address"
        }
      ],
      "stateMutability": "view",
      "type": "function"
    },
    {
      "inputs": [
        {
          "internalType": "address",
          "name": "",
          "type": "address"
        },
        {
          "internalType": "uint256",
          "name": "",
          "type": "uint256"
        }
      ],
      "name": "roleCache",
      "outputs": [
        {
          "internalType": "bool",
          "name": "",
          "type": "bool"
        }
      ],
      "stateMutability": "view",
      "type": "function"
    },
    {
      "inputs": [],
      "name": "roles",
      "outputs": [
        {
          "internalType": "contract Roles",
          "name": "",
          "type": "address"
        }
      ],
      "stateMutability": "view",
      "type": "function"
    },
    {
      "inputs": [],
      "name": "rolesPlayed",
      "outputs": [
        {
          "internalType": "uint256[]",
          "name": "",
          "type": "uint256[]"
        }
      ],
      "stateMutability": "view",
      "type": "function"
    },
    {
      "inputs": [
        {
          "internalType": "address",
          "name": "token",
          "type": "address"
        },
        {
          "internalType": "address",
          "name": "pegCurrency",
          "type": "address"
        },
        {
          "internalType": "address",
          "name": "oracle",
          "type": "address"
        },
        {
          "internalType": "uint256",
          "name": "borrowablePer10k",
          "type": "uint256"
        },
        {
          "internalType": "bool",
          "name": "primary",
          "type": "bool"
        },
        {
          "internalType": "bytes",
          "name": "data",
          "type": "bytes"
        }
      ],
      "name": "setOracleParams",
      "outputs": [],
      "stateMutability": "nonpayable",
      "type": "function"
    },
    {
      "inputs": [
        {
          "internalType": "address",
          "name": "",
          "type": "address"
        },
        {
          "internalType": "address",
          "name": "",
          "type": "address"
        }
      ],
      "name": "tokenOracle",
      "outputs": [
        {
          "internalType": "address",
          "name": "",
          "type": "address"
        }
      ],
      "stateMutability": "view",
      "type": "function"
    },
    {
      "inputs": [
        {
          "internalType": "uint256",
          "name": "role",
          "type": "uint256"
        }
      ],
      "name": "updateMainCharacterCache",
      "outputs": [],
      "stateMutability": "nonpayable",
      "type": "function"
    },
    {
      "inputs": [
        {
          "internalType": "uint256",
          "name": "role",
          "type": "uint256"
        },
        {
          "internalType": "address",
          "name": "contr",
          "type": "address"
        }
      ],
      "name": "updateRoleCache",
      "outputs": [],
      "stateMutability": "nonpayable",
      "type": "function"
    }
  ],
  "transactionHash": "0xf664acfbc89c7bf7a3b0a537a9e3a4f8b09ecb96200e79341260d7722b03c43e",
  "args": [
    "0x4F6ed22C558B462BA35Bb0F6FeB99600964310D7"
  ],
  "solcInputHash": "49de3c0ae1b6f2c0098f9389f4b75969",
  "bytecode": "0x60a060405234801561001057600080fd5b50604051610fa0380380610fa083398101604081905261002f91610111565b806001600160a01b0381166100955760405162461bcd60e51b815260206004820152602260248201527f506c656173652070726f766964652076616c696420726f6c6573206164647265604482015261737360f01b606482015260840160405180910390fd5b60601b6001600160601b0319166080525060038054600180820190925560047fc2575a0e9e593c00f959f8c92f12db2869c3395a3b0502d05e2516446f71f85b90910181905580549182018155600052606a7f8a35acfbc15ff81a39ae7d344fd709f28e8600b4aa8c65c6b64bfe7fe36bd19b9091015561013f565b600060208284031215610122578081fd5b81516001600160a01b0381168114610138578182fd5b9392505050565b60805160601c610e206101806000396000818161014f015281816102cf0152818161046d01528181610927015281816109bf0152610a560152610e206000f3fe608060405234801561001057600080fd5b50600436106101005760003560e01c80637dad209b11610097578063bf184ea411610066578063bf184ea41461026d578063dc94cb7d14610280578063e8ea4fae14610288578063e9c3f77d1461029057610100565b80637dad209b1461022c578063abcbc4fc14610234578063acd925e714610247578063aeb38d8b1461025a57610100565b80634a7a7f41116100d35780634a7a7f41146101845780635e73a034146101995780636caa9c11146101cd5780637a1a04df146101ee57610100565b8063071060a614610105578063175761681461011a578063392f5f641461014a578063447d52ba14610171575b600080fd5b610118610113366004610ccc565b6102b9565b005b61012d610128366004610b8b565b61037f565b6040516001600160a01b0390911681526020015b60405180910390f35b61012d7f000000000000000000000000000000000000000000000000000000000000000081565b61011861017f366004610ce4565b610447565b61018c61051f565b6040516101419190610d59565b61012d6101a7366004610b8b565b60066020908152600092835260408084209091529082529020546001600160a01b031681565b6101e06101db366004610ccc565b610577565b604051908152602001610141565b61021c6101fc366004610c85565b600160209081526000928352604080842090915290825290205460ff1681565b6040519015158152602001610141565b61018c610598565b6101e0610242366004610ccc565b6105ee565b610118610255366004610bc3565b6105fe565b6101e0610268366004610ccc565b61083b565b6101e061027b366004610ccc565b61084b565b61018c61085b565b61018c6108b1565b61012d61029e366004610ccc565b6000602081905290815260409020546001600160a01b031681565b60405163b4ed0b6d60e01b8152600481018290527f00000000000000000000000000000000000000000000000000000000000000006001600160a01b03169063b4ed0b6d9060240160206040518083038186803b15801561031957600080fd5b505afa15801561032d573d6000803e3d6000fd5b505050506040513d601f19601f820116820180604052508101906103519190610b6f565b60009182526020829052604090912080546001600160a01b0319166001600160a01b03909216919091179055565b3360009081526001602090815260408083206004845290915281205460ff166103e75760405162461bcd60e51b81526020600482015260156024820152742737ba1030b63637bbb2b2103a37903634b9ba32b760591b60448201526064015b60405180910390fd5b6001600160a01b0380841660009081526007602090815260408083209386168352929052206104169033610907565b50506001600160a01b0380831660009081526006602090815260408083208585168452909152902054165b92915050565b6040516393552a3d60e01b8152600481018390526001600160a01b0382811660248301527f000000000000000000000000000000000000000000000000000000000000000016906393552a3d9060440160206040518083038186803b1580156104af57600080fd5b505afa1580156104c3573d6000803e3d6000fd5b505050506040513d601f19601f820116820180604052508101906104e79190610cb0565b6001600160a01b0391909116600090815260016020908152604080832094835293905291909120805460ff1916911515919091179055565b6060600380548060200260200160405190810160405280929190818152602001828054801561056d57602002820191906000526020600020905b815481526020019060010190808311610559575b5050505050905090565b6005818154811061058757600080fd5b600091825260209091200154905081565b6060600480548060200260200160405190810160405280929190818152602001828054801561056d5760200282019190600052602060002090815481526020019060010190808311610559575050505050905090565b6002818154811061058757600080fd5b33610607610923565b6001600160a01b0316148061062b5750336106206109bb565b6001600160a01b0316145b8061063a575061063a33610a2c565b6106ac5760405162461bcd60e51b815260206004820152603960248201527f43616c6c6572206973206e6f7420746865206f776e65722c206578656375746f60448201527f72206f7220617574686f72697a656420616374697661746f720000000000000060648201526084016103de565b60405163448f50d560e11b81526001600160a01b0386169063891ea1aa906106e0908a908a90899088908890600401610d08565b600060405180830381600087803b1580156106fa57600080fd5b505af115801561070e573d6000803e3d6000fd5b505050506001600160a01b0387811660009081526006602090815260408083208a85168452909152902054168015806107445750835b15610831576001600160a01b0388811660008181526006602090815260408083208c861680855290835281842080546001600160a01b031916968d169690961790955592825260078152828220938252929092528120905b806107a683610ad2565b111561082e576107b68282610adc565b6040516328f3fc7360e01b81526001600160a01b038c811660048301528b8116602483015291909116906328f3fc7390604401600060405180830381600087803b15801561080357600080fd5b505af1158015610817573d6000803e3d6000fd5b50505050808061082690610d9d565b91505061079c565b50505b5050505050505050565b6004818154811061058757600080fd5b6003818154811061058757600080fd5b6060600280548060200260200160405190810160405280929190818152602001828054801561056d5760200282019190600052602060002090815481526020019060010190808311610559575050505050905090565b6060600580548060200260200160405190810160405280929190818152602001828054801561056d5760200282019190600052602060002090815481526020019060010190808311610559575050505050905090565b600061091c836001600160a01b038416610ae8565b9392505050565b60007f00000000000000000000000000000000000000000000000000000000000000006001600160a01b0316638da5cb5b6040518163ffffffff1660e01b815260040160206040518083038186803b15801561097e57600080fd5b505afa158015610992573d6000803e3d6000fd5b505050506040513d601f19601f820116820180604052508101906109b69190610b6f565b905090565b60007f00000000000000000000000000000000000000000000000000000000000000006001600160a01b031663c34c08e56040518163ffffffff1660e01b8152600401602060405180830381600087803b158015610a1857600080fd5b505af1158015610992573d6000803e3d6000fd5b6040516393552a3d60e01b81526103eb60048201526001600160a01b0382811660248301526000917f0000000000000000000000000000000000000000000000000000000000000000909116906393552a3d9060440160206040518083038186803b158015610a9a57600080fd5b505afa158015610aae573d6000803e3d6000fd5b505050506040513d601f19601f820116820180604052508101906104419190610cb0565b6000610441825490565b600061091c8383610b37565b6000818152600183016020526040812054610b2f57508154600181810184556000848152602080822090930184905584548482528286019093526040902091909155610441565b506000610441565b6000826000018281548110610b5c57634e487b7160e01b600052603260045260246000fd5b9060005260206000200154905092915050565b600060208284031215610b80578081fd5b815161091c81610dc4565b60008060408385031215610b9d578081fd5b8235610ba881610dc4565b91506020830135610bb881610dc4565b809150509250929050565b600080600080600080600060c0888a031215610bdd578283fd5b8735610be881610dc4565b96506020880135610bf881610dc4565b95506040880135610c0881610dc4565b9450606088013593506080880135610c1f81610ddc565b925060a088013567ffffffffffffffff80821115610c3b578384fd5b818a0191508a601f830112610c4e578384fd5b813581811115610c5c578485fd5b8b6020828501011115610c6d578485fd5b60208301945080935050505092959891949750929550565b60008060408385031215610c97578182fd5b8235610ca281610dc4565b946020939093013593505050565b600060208284031215610cc1578081fd5b815161091c81610ddc565b600060208284031215610cdd578081fd5b5035919050565b60008060408385031215610cf6578182fd5b823591506020830135610bb881610dc4565b6001600160a01b038681168252851660208201526040810184905260806060820181905281018290526000828460a084013781830160a090810191909152601f909201601f19160101949350505050565b6020808252825182820181905260009190848201906040850190845b81811015610d9157835183529284019291840191600101610d75565b50909695505050505050565b6000600019821415610dbd57634e487b7160e01b81526011600452602481fd5b5060010190565b6001600160a01b0381168114610dd957600080fd5b50565b8015158114610dd957600080fdfea26469706673582212202edde921a600952c795eaaa1ca99a5eeba8e7c894bb279cbaa2e51d53db9d32f64736f6c63430008030033",
  "devdoc": {
    "kind": "dev",
    "methods": {
      "charactersPlayed()": {
        "details": "returns all characters played by this contract (e.g. stable coin, oracle registry)"
      },
      "dependsOnCharacters()": {
        "details": "returns all the character dependencies like FEE_RECIPIENT"
      },
      "dependsOnRoles()": {
        "details": "returns all the roles dependencies of this contract like FUND_TRANSFERER"
      },
      "rolesPlayed()": {
        "details": "returns all roles played by this contract"
      },
      "updateMainCharacterCache(uint256)": {
        "details": "Updates the main character cache for a speciic character"
      },
      "updateRoleCache(uint256,address)": {
        "details": "Updates the role cache for a specific role and address"
      }
    },
    "version": 1
  },
  "userdoc": {
    "kind": "user",
    "methods": {
      "listenForCurrentOracleUpdates(address,address)": {
        "notice": "Which oracle contract is currently responsible for a token is cached This updates"
      },
      "setOracleParams(address,address,address,uint256,bool,bytes)": {
        "notice": "Initialize oracle for a specific token"
      }
    },
    "notice": "Central hub and router for all oracles",
    "version": 1
  },
  "storageLayout": {
    "storage": [
      {
        "astId": 14088,
        "contract": "contracts/OracleRegistry.sol:OracleRegistry",
        "label": "mainCharacterCache",
        "offset": 0,
        "slot": "0",
        "type": "t_mapping(t_uint256,t_address)"
      },
      {
        "astId": 14094,
        "contract": "contracts/OracleRegistry.sol:OracleRegistry",
        "label": "roleCache",
        "offset": 0,
        "slot": "1",
        "type": "t_mapping(t_address,t_mapping(t_uint256,t_bool))"
      },
      {
        "astId": 14097,
        "contract": "contracts/OracleRegistry.sol:OracleRegistry",
        "label": "_dependsOnCharacters",
        "offset": 0,
        "slot": "2",
        "type": "t_array(t_uint256)dyn_storage"
      },
      {
        "astId": 14100,
        "contract": "contracts/OracleRegistry.sol:OracleRegistry",
        "label": "_dependsOnRoles",
        "offset": 0,
        "slot": "3",
        "type": "t_array(t_uint256)dyn_storage"
      },
      {
        "astId": 14103,
        "contract": "contracts/OracleRegistry.sol:OracleRegistry",
        "label": "_charactersPlayed",
        "offset": 0,
        "slot": "4",
        "type": "t_array(t_uint256)dyn_storage"
      },
      {
        "astId": 14106,
        "contract": "contracts/OracleRegistry.sol:OracleRegistry",
        "label": "_rolesPlayed",
        "offset": 0,
        "slot": "5",
        "type": "t_array(t_uint256)dyn_storage"
      },
      {
        "astId": 6295,
        "contract": "contracts/OracleRegistry.sol:OracleRegistry",
        "label": "tokenOracle",
        "offset": 0,
        "slot": "6",
        "type": "t_mapping(t_address,t_mapping(t_address,t_address))"
      },
      {
        "astId": 6302,
        "contract": "contracts/OracleRegistry.sol:OracleRegistry",
        "label": "_listeners",
        "offset": 0,
        "slot": "7",
        "type": "t_mapping(t_address,t_mapping(t_address,t_struct(AddressSet)3278_storage))"
      }
    ],
    "types": {
      "t_address": {
        "encoding": "inplace",
        "label": "address",
        "numberOfBytes": "20"
      },
      "t_array(t_bytes32)dyn_storage": {
        "base": "t_bytes32",
        "encoding": "dynamic_array",
        "label": "bytes32[]",
        "numberOfBytes": "32"
      },
      "t_array(t_uint256)dyn_storage": {
        "base": "t_uint256",
        "encoding": "dynamic_array",
        "label": "uint256[]",
        "numberOfBytes": "32"
      },
      "t_bool": {
        "encoding": "inplace",
        "label": "bool",
        "numberOfBytes": "1"
      },
      "t_bytes32": {
        "encoding": "inplace",
        "label": "bytes32",
        "numberOfBytes": "32"
      },
      "t_mapping(t_address,t_address)": {
        "encoding": "mapping",
        "key": "t_address",
        "label": "mapping(address => address)",
        "numberOfBytes": "32",
        "value": "t_address"
      },
      "t_mapping(t_address,t_mapping(t_address,t_address))": {
        "encoding": "mapping",
        "key": "t_address",
        "label": "mapping(address => mapping(address => address))",
        "numberOfBytes": "32",
        "value": "t_mapping(t_address,t_address)"
      },
      "t_mapping(t_address,t_mapping(t_address,t_struct(AddressSet)3278_storage))": {
        "encoding": "mapping",
        "key": "t_address",
        "label": "mapping(address => mapping(address => struct EnumerableSet.AddressSet))",
        "numberOfBytes": "32",
        "value": "t_mapping(t_address,t_struct(AddressSet)3278_storage)"
      },
      "t_mapping(t_address,t_mapping(t_uint256,t_bool))": {
        "encoding": "mapping",
        "key": "t_address",
        "label": "mapping(address => mapping(uint256 => bool))",
        "numberOfBytes": "32",
        "value": "t_mapping(t_uint256,t_bool)"
      },
      "t_mapping(t_address,t_struct(AddressSet)3278_storage)": {
        "encoding": "mapping",
        "key": "t_address",
        "label": "mapping(address => struct EnumerableSet.AddressSet)",
        "numberOfBytes": "32",
        "value": "t_struct(AddressSet)3278_storage"
      },
      "t_mapping(t_bytes32,t_uint256)": {
        "encoding": "mapping",
        "key": "t_bytes32",
        "label": "mapping(bytes32 => uint256)",
        "numberOfBytes": "32",
        "value": "t_uint256"
      },
      "t_mapping(t_uint256,t_address)": {
        "encoding": "mapping",
        "key": "t_uint256",
        "label": "mapping(uint256 => address)",
        "numberOfBytes": "32",
        "value": "t_address"
      },
      "t_mapping(t_uint256,t_bool)": {
        "encoding": "mapping",
        "key": "t_uint256",
        "label": "mapping(uint256 => bool)",
        "numberOfBytes": "32",
        "value": "t_bool"
      },
      "t_struct(AddressSet)3278_storage": {
        "encoding": "inplace",
        "label": "struct EnumerableSet.AddressSet",
        "members": [
          {
            "astId": 3277,
            "contract": "contracts/OracleRegistry.sol:OracleRegistry",
            "label": "_inner",
            "offset": 0,
            "slot": "0",
            "type": "t_struct(Set)2977_storage"
          }
        ],
        "numberOfBytes": "64"
      },
      "t_struct(Set)2977_storage": {
        "encoding": "inplace",
        "label": "struct EnumerableSet.Set",
        "members": [
          {
            "astId": 2972,
            "contract": "contracts/OracleRegistry.sol:OracleRegistry",
            "label": "_values",
            "offset": 0,
            "slot": "0",
            "type": "t_array(t_bytes32)dyn_storage"
          },
          {
            "astId": 2976,
            "contract": "contracts/OracleRegistry.sol:OracleRegistry",
            "label": "_indexes",
            "offset": 0,
            "slot": "1",
            "type": "t_mapping(t_bytes32,t_uint256)"
          }
        ],
        "numberOfBytes": "64"
      },
      "t_uint256": {
        "encoding": "inplace",
        "label": "uint256",
        "numberOfBytes": "32"
      }
    }
  }
}