{
  "address": "0xa628F458B8A74E0163D11210c2b7B8429554f03C",
  "abi": [
    {
      "inputs": [
        {
          "internalType": "address",
          "name": "_roles",
          "type": "address"
        }
      ],
      "stateMutability": "nonpayable",
      "type": "constructor"
    },
    {
      "inputs": [
        {
          "internalType": "uint256",
          "name": "",
          "type": "uint256"
        }
      ],
      "name": "_charactersPlayed",
      "outputs": [
        {
          "internalType": "uint256",
          "name": "",
          "type": "uint256"
        }
      ],
      "stateMutability": "view",
      "type": "function"
    },
    {
      "inputs": [
        {
          "internalType": "uint256",
          "name": "",
          "type": "uint256"
        }
      ],
      "name": "_dependsOnCharacters",
      "outputs": [
        {
          "internalType": "uint256",
          "name": "",
          "type": "uint256"
        }
      ],
      "stateMutability": "view",
      "type": "function"
    },
    {
      "inputs": [
        {
          "internalType": "uint256",
          "name": "",
          "type": "uint256"
        }
      ],
      "name": "_dependsOnRoles",
      "outputs": [
        {
          "internalType": "uint256",
          "name": "",
          "type": "uint256"
        }
      ],
      "stateMutability": "view",
      "type": "function"
    },
    {
      "inputs": [
        {
          "internalType": "address",
          "name": "",
          "type": "address"
        },
        {
          "internalType": "address",
          "name": "",
          "type": "address"
        }
      ],
      "name": "_oracleCache",
      "outputs": [
        {
          "internalType": "address",
          "name": "",
          "type": "address"
        }
      ],
      "stateMutability": "view",
      "type": "function"
    },
    {
      "inputs": [
        {
          "internalType": "uint256",
          "name": "",
          "type": "uint256"
        }
      ],
      "name": "_rolesPlayed",
      "outputs": [
        {
          "internalType": "uint256",
          "name": "",
          "type": "uint256"
        }
      ],
      "stateMutability": "view",
      "type": "function"
    },
    {
      "inputs": [
        {
          "internalType": "address",
          "name": "",
          "type": "address"
        }
      ],
      "name": "borrowablePer10ks",
      "outputs": [
        {
          "internalType": "uint256",
          "name": "",
          "type": "uint256"
        }
      ],
      "stateMutability": "view",
      "type": "function"
    },
    {
      "inputs": [],
      "name": "charactersPlayed",
      "outputs": [
        {
          "internalType": "uint256[]",
          "name": "",
          "type": "uint256[]"
        }
      ],
      "stateMutability": "view",
      "type": "function"
    },
    {
      "inputs": [],
      "name": "dependsOnCharacters",
      "outputs": [
        {
          "internalType": "uint256[]",
          "name": "",
          "type": "uint256[]"
        }
      ],
      "stateMutability": "view",
      "type": "function"
    },
    {
      "inputs": [],
      "name": "dependsOnRoles",
      "outputs": [
        {
          "internalType": "uint256[]",
          "name": "",
          "type": "uint256[]"
        }
      ],
      "stateMutability": "view",
      "type": "function"
    },
    {
      "inputs": [
        {
          "internalType": "address",
          "name": "tokenFrom",
          "type": "address"
        },
        {
          "internalType": "address",
          "name": "tokenTo",
          "type": "address"
        },
        {
          "internalType": "address",
          "name": "proxy",
          "type": "address"
        }
      ],
      "name": "encodeAndCheckOracleParams",
      "outputs": [
        {
          "internalType": "bool",
          "name": "",
          "type": "bool"
        },
        {
          "internalType": "bytes",
          "name": "",
          "type": "bytes"
        }
      ],
      "stateMutability": "view",
      "type": "function"
    },
    {
      "inputs": [
        {
          "internalType": "address",
          "name": "token",
          "type": "address"
        },
        {
          "internalType": "uint256",
          "name": "inAmount",
          "type": "uint256"
        },
        {
          "internalType": "address",
          "name": "pegCurrency",
          "type": "address"
        }
      ],
      "name": "getAmountInPeg",
      "outputs": [
        {
          "internalType": "uint256",
          "name": "",
          "type": "uint256"
        }
      ],
      "stateMutability": "nonpayable",
      "type": "function"
    },
    {
      "inputs": [
        {
          "internalType": "address",
          "name": "token",
          "type": "address"
        },
        {
          "internalType": "uint256",
          "name": "inAmount",
          "type": "uint256"
        },
        {
          "internalType": "address",
          "name": "pegCurrency",
          "type": "address"
        }
      ],
      "name": "getPegAmountAndBorrowable",
      "outputs": [
        {
          "internalType": "uint256",
          "name": "",
          "type": "uint256"
        },
        {
          "internalType": "uint256",
          "name": "",
          "type": "uint256"
        }
      ],
      "stateMutability": "nonpayable",
      "type": "function"
    },
    {
      "inputs": [
        {
          "internalType": "uint256",
          "name": "",
          "type": "uint256"
        }
      ],
      "name": "mainCharacterCache",
      "outputs": [
        {
          "internalType": "address",
          "name": "",
          "type": "address"
        }
      ],
      "stateMutability": "view",
      "type": "function"
    },
    {
      "inputs": [
        {
          "internalType": "address",
          "name": "token",
          "type": "address"
        },
        {
          "internalType": "address",
          "name": "pegCurrency",
          "type": "address"
        }
      ],
      "name": "newCurrentOracle",
      "outputs": [],
      "stateMutability": "nonpayable",
      "type": "function"
    },
    {
      "inputs": [
        {
          "internalType": "address",
          "name": "",
          "type": "address"
        },
        {
          "internalType": "uint256",
          "name": "",
          "type": "uint256"
        }
      ],
      "name": "roleCache",
      "outputs": [
        {
          "internalType": "bool",
          "name": "",
          "type": "bool"
        }
      ],
      "stateMutability": "view",
      "type": "function"
    },
    {
      "inputs": [],
      "name": "roles",
      "outputs": [
        {
          "internalType": "contract Roles",
          "name": "",
          "type": "address"
        }
      ],
      "stateMutability": "view",
      "type": "function"
    },
    {
      "inputs": [],
      "name": "rolesPlayed",
      "outputs": [
        {
          "internalType": "uint256[]",
          "name": "",
          "type": "uint256[]"
        }
      ],
      "stateMutability": "view",
      "type": "function"
    },
    {
      "inputs": [
        {
          "internalType": "address",
          "name": "lpt",
          "type": "address"
        },
        {
          "internalType": "uint256",
          "name": "borrowablePer10k",
          "type": "uint256"
        }
      ],
      "name": "setBorrowable",
      "outputs": [],
      "stateMutability": "nonpayable",
      "type": "function"
    },
    {
      "inputs": [
        {
          "internalType": "address",
          "name": "token",
          "type": "address"
        },
        {
          "internalType": "address",
          "name": "pegCurrency",
          "type": "address"
        },
        {
          "internalType": "uint256",
          "name": "borrowablePer10k",
          "type": "uint256"
        },
        {
          "internalType": "bytes",
          "name": "data",
          "type": "bytes"
        }
      ],
      "name": "setOracleParams",
      "outputs": [],
      "stateMutability": "nonpayable",
      "type": "function"
    },
    {
      "inputs": [
        {
          "internalType": "address",
          "name": "fromToken",
          "type": "address"
        },
        {
          "internalType": "address",
          "name": "toToken",
          "type": "address"
        },
        {
          "internalType": "address",
          "name": "proxy",
          "type": "address"
        }
      ],
      "name": "setOracleSpecificParams",
      "outputs": [],
      "stateMutability": "nonpayable",
      "type": "function"
    },
    {
      "inputs": [
        {
          "internalType": "uint256",
          "name": "role",
          "type": "uint256"
        }
      ],
      "name": "updateMainCharacterCache",
      "outputs": [],
      "stateMutability": "nonpayable",
      "type": "function"
    },
    {
      "inputs": [
        {
          "internalType": "uint256",
          "name": "role",
          "type": "uint256"
        },
        {
          "internalType": "address",
          "name": "contr",
          "type": "address"
        }
      ],
      "name": "updateRoleCache",
      "outputs": [],
      "stateMutability": "nonpayable",
      "type": "function"
    },
    {
      "inputs": [
        {
          "internalType": "address",
          "name": "",
          "type": "address"
        },
        {
          "internalType": "address",
          "name": "",
          "type": "address"
        }
      ],
      "name": "valueProxy",
      "outputs": [
        {
          "internalType": "address",
          "name": "",
          "type": "address"
        }
      ],
      "stateMutability": "view",
      "type": "function"
    },
    {
      "inputs": [
        {
          "internalType": "address",
          "name": "token",
          "type": "address"
        },
        {
          "internalType": "uint256",
          "name": "inAmount",
          "type": "uint256"
        },
        {
          "internalType": "address",
          "name": "pegCurrency",
          "type": "address"
        }
      ],
      "name": "viewAmountInPeg",
      "outputs": [
        {
          "internalType": "uint256",
          "name": "",
          "type": "uint256"
        }
      ],
      "stateMutability": "view",
      "type": "function"
    },
    {
      "inputs": [
        {
          "internalType": "address",
          "name": "token",
          "type": "address"
        },
        {
          "internalType": "uint256",
          "name": "inAmount",
          "type": "uint256"
        },
        {
          "internalType": "address",
          "name": "pegCurrency",
          "type": "address"
        }
      ],
      "name": "viewPegAmountAndBorrowable",
      "outputs": [
        {
          "internalType": "uint256",
          "name": "",
          "type": "uint256"
        },
        {
          "internalType": "uint256",
          "name": "",
          "type": "uint256"
        }
      ],
      "stateMutability": "view",
      "type": "function"
    }
  ],
  "transactionHash": "0x95bd855e75afccf9d8bf2a19a15adae5505cc16b8b043567d844d34925593da1",
  "args": [
    "0x8f1ca3288764F0BC18eefeCA6D821D8bC93c99bf"
  ],
  "solcInputHash": "d661444e9ab44536e22176239a595dea",
  "bytecode": "0x60a060405234801561001057600080fd5b506040516113f23803806113f283398101604081905261002f91610111565b806001600160a01b0381166100955760405162461bcd60e51b815260206004820152602260248201527f506c656173652070726f766964652076616c696420726f6c6573206164647265604482015261737360f01b606482015260840160405180910390fd5b60601b6001600160601b03191660805250600280546001808201909255606a7f405787fa12a823e0f2b7631cc41b3ba8828b3321ca811111fa75cd3aa3bb5ace9091015560058054918201815560005260047f036b6384b5eca791c62761152d0c79bb0604c104a5fb6f4eb0703f3154bb3db09091015561013f565b600060208284031215610122578081fd5b81516001600160a01b0381168114610138578182fd5b9392505050565b60805160601c6112796101796000396000818161022401528181610487015281816106c401528181610b400152610bd801526112796000f3fe608060405234801561001057600080fd5b50600436106101735760003560e01c80637a1a04df116100de578063abcbc4fc11610097578063cb9aa42511610071578063cb9aa42514610425578063dc94cb7d14610438578063e8ea4fae14610440578063e9c3f77d1461044857610173565b8063abcbc4fc146103ec578063aeb38d8b146103ff578063bf184ea41461041257610173565b80637a1a04df146103035780637dad209b14610341578063885fa05614610349578063891ea1aa1461035c5780638eaab58c1461036f578063a4870df21461038257610173565b8063447d52ba11610130578063447d52ba146102595780634a7a7f411461026c5780634fcd54a414610281578063576cbc30146102a95780636caa9c11146102bc57806376f016d5146102cf57610173565b8063071060a61461017857806315c2ba501461018d5780632642b606146101c057806328f3fc731461020c578063392f5f641461021f5780633cf685d614610246575b600080fd5b61018b6101863660046110ec565b610471565b005b6101ad61019b366004610f10565b60066020526000908152604090205481565b6040519081526020015b60405180910390f35b6101f46101ce366004610f4f565b60076020908152600092835260408084209091529082529020546001600160a01b031681565b6040516001600160a01b0390911681526020016101b7565b61018b61021a366004610f4f565b610537565b6101f47f000000000000000000000000000000000000000000000000000000000000000081565b61018b61025436600461106b565b610630565b61018b61026736600461111c565b61069e565b610274610776565b6040516101b79190611140565b61029461028f366004611096565b6107ce565b604080519283526020830191909152016101b7565b6101ad6102b7366004611096565b610800565b6101ad6102ca3660046110ec565b61084d565b6101f46102dd366004610f4f565b60086020908152600092835260408084209091529082529020546001600160a01b031681565b61033161031136600461106b565b600160209081526000928352604080842090915290825290205460ff1681565b60405190151581526020016101b7565b61027461086e565b610294610357366004611096565b6108c4565b61018b61036a366004610fd1565b6108d2565b6101ad61037d366004611096565b61095f565b6103de610390366004610f87565b6001600160a01b039283166000908152600860209081526040808320948616835293815290839020548351928516838301819052845180850390930183529284019093529190921690911491565b6040516101b7929190611184565b6101ad6103fa3660046110ec565b6109a2565b6101ad61040d3660046110ec565b6109b2565b6101ad6104203660046110ec565b6109c2565b61018b610433366004610f87565b6109d2565b610274610a58565b610274610aae565b6101f46104563660046110ec565b6000602081905290815260409020546001600160a01b031681565b60405163b4ed0b6d60e01b8152600481018290527f00000000000000000000000000000000000000000000000000000000000000006001600160a01b03169063b4ed0b6d9060240160206040518083038186803b1580156104d157600080fd5b505afa1580156104e5573d6000803e3d6000fd5b505050506040513d601f19601f820116820180604052508101906105099190610f33565b60009182526020829052604090912080546001600160a01b0319166001600160a01b03909216919091179055565b6001600160a01b0382811660009081526007602090815260408083208585168452909152902054161561062c5761056c610b04565b60405163179ce80d60e21b81526001600160a01b03848116600483015283811660248301529190911690635e73a0349060440160206040518083038186803b1580156105b757600080fd5b505afa1580156105cb573d6000803e3d6000fd5b505050506040513d601f19601f820116820180604052508101906105ef9190610f33565b6001600160a01b0383811660009081526007602090815260408083208685168452909152902080546001600160a01b031916929091169190911790555b5050565b33610639610b3c565b6001600160a01b0316148061065d575033610652610bd4565b6001600160a01b0316145b6106825760405162461bcd60e51b8152600401610679906111e1565b60405180910390fd5b6001600160a01b03909116600090815260066020526040902055565b6040516393552a3d60e01b8152600481018390526001600160a01b0382811660248301527f000000000000000000000000000000000000000000000000000000000000000016906393552a3d9060440160206040518083038186803b15801561070657600080fd5b505afa15801561071a573d6000803e3d6000fd5b505050506040513d601f19601f8201168201806040525081019061073e91906110cc565b6001600160a01b0391909116600090815260016020908152604080832094835293905291909120805460ff1916911515919091179055565b606060038054806020026020016040519081016040528092919081815260200182805480156107c457602002820191906000526020600020905b8154815260200190600101908083116107b0575b5050505050905090565b6000806107dc85858561095f565b6001600160a01b039590951660009081526006602052604090205494959350505050565b6001600160a01b038084166000908152600860209081526040808320858516845290915281205490911681610836868684610c45565b9050610843828286610c45565b9695505050505050565b6005818154811061085d57600080fd5b600091825260209091200154905081565b606060048054806020026020016040519081016040528092919081815260200182805480156107c457602002820191906000526020600020908154815260200190600101908083116107b0575050505050905090565b6000806107dc858585610800565b336108db610b04565b6001600160a01b0316146109315760405162461bcd60e51b815260206004820152601d60248201527f4e6f7420617574686f72697a656420746f20696e6974206f7261636c650000006044820152606401610679565b6001600160a01b038516600090815260066020526040902083905561095885858484610d10565b5050505050565b6001600160a01b038084166000908152600860209081526040808320858516845290915281205490911681610995868684610d2c565b9050610843828286610d2c565b6002818154811061085d57600080fd5b6004818154811061085d57600080fd5b6003818154811061085d57600080fd5b336109db610b3c565b6001600160a01b031614806109ff5750336109f4610bd4565b6001600160a01b0316145b610a1b5760405162461bcd60e51b8152600401610679906111e1565b6001600160a01b03928316600090815260086020908152604080832094861683529390529190912080546001600160a01b03191691909216179055565b606060028054806020026020016040519081016040528092919081815260200182805480156107c457602002820191906000526020600020908154815260200190600101908083116107b0575050505050905090565b606060058054806020026020016040519081016040528092919081815260200182805480156107c457602002820191906000526020600020908154815260200190600101908083116107b0575050505050905090565b606a60009081526020527ff3261457f4fd0b7c00a1511877ab27b74183ac470be8db3a7ecdc64335f6f979546001600160a01b031690565b60007f00000000000000000000000000000000000000000000000000000000000000006001600160a01b0316638da5cb5b6040518163ffffffff1660e01b815260040160206040518083038186803b158015610b9757600080fd5b505afa158015610bab573d6000803e3d6000fd5b505050506040513d601f19601f82011682018060405250810190610bcf9190610f33565b905090565b60007f00000000000000000000000000000000000000000000000000000000000000006001600160a01b031663c34c08e56040518163ffffffff1660e01b8152600401602060405180830381600087803b158015610c3157600080fd5b505af1158015610bab573d6000803e3d6000fd5b6001600160a01b0380841660009081526007602090815260408083208585168452909152812054909116610c798584610e4d565b604051630576cbc360e41b81526001600160a01b0387811660048301526024820187905285811660448301529192509082169063576cbc3090606401602060405180830381600087803b158015610ccf57600080fd5b505af1158015610ce3573d6000803e3d6000fd5b505050506040513d601f19601f82011682018060405250810190610d079190611104565b95945050505050565b610d268484610d2184860186610f10565b610a1b565b50505050565b6001600160a01b038084166000908152600760209081526040808320858516845290915281205490911680610de957610d63610b04565b60405163179ce80d60e21b81526001600160a01b03878116600483015285811660248301529190911690635e73a0349060440160206040518083038186803b158015610dae57600080fd5b505afa158015610dc2573d6000803e3d6000fd5b505050506040513d601f19601f82011682018060405250810190610de69190610f33565b90505b6040516323aaad6360e21b81526001600160a01b038681166004830152602482018690528481166044830152821690638eaab58c9060640160206040518083038186803b158015610e3957600080fd5b505afa158015610ce3573d6000803e3d6000fd5b6001600160a01b03808316600090815260076020908152604080832085851684529091529020541680610f0a57610e82610b04565b6040516302eaec2d60e31b81526001600160a01b03858116600483015284811660248301529190911690631757616890604401602060405180830381600087803b158015610ecf57600080fd5b505af1158015610ee3573d6000803e3d6000fd5b505050506040513d601f19601f82011682018060405250810190610f079190610f33565b90505b92915050565b600060208284031215610f21578081fd5b8135610f2c8161122b565b9392505050565b600060208284031215610f44578081fd5b8151610f2c8161122b565b60008060408385031215610f61578081fd5b8235610f6c8161122b565b91506020830135610f7c8161122b565b809150509250929050565b600080600060608486031215610f9b578081fd5b8335610fa68161122b565b92506020840135610fb68161122b565b91506040840135610fc68161122b565b809150509250925092565b600080600080600060808688031215610fe8578081fd5b8535610ff38161122b565b945060208601356110038161122b565b935060408601359250606086013567ffffffffffffffff80821115611026578283fd5b818801915088601f830112611039578283fd5b813581811115611047578384fd5b896020828501011115611058578384fd5b9699959850939650602001949392505050565b6000806040838503121561107d578182fd5b82356110888161122b565b946020939093013593505050565b6000806000606084860312156110aa578283fd5b83356110b58161122b565b9250602084013591506040840135610fc68161122b565b6000602082840312156110dd578081fd5b81518015158114610f2c578182fd5b6000602082840312156110fd578081fd5b5035919050565b600060208284031215611115578081fd5b5051919050565b6000806040838503121561112e578182fd5b823591506020830135610f7c8161122b565b6020808252825182820181905260009190848201906040850190845b818110156111785783518352928401929184019160010161115c565b50909695505050505050565b6000831515825260206040818401528351806040850152825b818110156111b95785810183015185820160600152820161119d565b818111156111ca5783606083870101525b50601f01601f191692909201606001949350505050565b6020808252602a908201527f526f6c65733a2063616c6c6572206973206e6f7420746865206f776e6572206f604082015269391032bc32b1baba37b960b11b606082015260800190565b6001600160a01b038116811461124057600080fd5b5056fea2646970667358221220fd4f5941c9a6f74a771b8576477ce8d4174b56941e15577f8c4f7a7557f853b364736f6c63430008030033",
  "devdoc": {
    "kind": "dev",
    "methods": {
      "charactersPlayed()": {
        "details": "returns all characters played by this contract (e.g. stable coin, oracle registry)"
      },
      "dependsOnCharacters()": {
        "details": "returns all the character dependencies like FEE_RECIPIENT"
      },
      "dependsOnRoles()": {
        "details": "returns all the roles dependencies of this contract like FUND_TRANSFERER"
      },
      "rolesPlayed()": {
        "details": "returns all roles played by this contract"
      },
      "updateMainCharacterCache(uint256)": {
        "details": "Updates the main character cache for a speciic character"
      },
      "updateRoleCache(uint256,address)": {
        "details": "Updates the role cache for a specific role and address"
      }
    },
    "version": 1
  },
  "userdoc": {
    "kind": "user",
    "methods": {
      "encodeAndCheckOracleParams(address,address,address)": {
        "notice": "Encode params for initialization"
      },
      "getAmountInPeg(address,uint256,address)": {
        "notice": "Convert inAmount to proxy amount and from there to peg (updating)"
      },
      "newCurrentOracle(address,address)": {
        "notice": "Notify contract to update oracle cache"
      },
      "setOracleSpecificParams(address,address,address)": {
        "notice": "Set the value proxy"
      },
      "viewAmountInPeg(address,uint256,address)": {
        "notice": "Convert inAmount to proxy amount and from there to peg (view)"
      }
    },
    "notice": "Proxy value estimation from on token to another via a proxy",
    "version": 1
  },
  "storageLayout": {
    "storage": [
      {
        "astId": 16299,
        "contract": "contracts/oracles/ProxyOracle.sol:ProxyOracle",
        "label": "mainCharacterCache",
        "offset": 0,
        "slot": "0",
        "type": "t_mapping(t_uint256,t_address)"
      },
      {
        "astId": 16305,
        "contract": "contracts/oracles/ProxyOracle.sol:ProxyOracle",
        "label": "roleCache",
        "offset": 0,
        "slot": "1",
        "type": "t_mapping(t_address,t_mapping(t_uint256,t_bool))"
      },
      {
        "astId": 16308,
        "contract": "contracts/oracles/ProxyOracle.sol:ProxyOracle",
        "label": "_dependsOnCharacters",
        "offset": 0,
        "slot": "2",
        "type": "t_array(t_uint256)dyn_storage"
      },
      {
        "astId": 16311,
        "contract": "contracts/oracles/ProxyOracle.sol:ProxyOracle",
        "label": "_dependsOnRoles",
        "offset": 0,
        "slot": "3",
        "type": "t_array(t_uint256)dyn_storage"
      },
      {
        "astId": 16314,
        "contract": "contracts/oracles/ProxyOracle.sol:ProxyOracle",
        "label": "_charactersPlayed",
        "offset": 0,
        "slot": "4",
        "type": "t_array(t_uint256)dyn_storage"
      },
      {
        "astId": 16317,
        "contract": "contracts/oracles/ProxyOracle.sol:ProxyOracle",
        "label": "_rolesPlayed",
        "offset": 0,
        "slot": "5",
        "type": "t_array(t_uint256)dyn_storage"
      },
      {
        "astId": 14115,
        "contract": "contracts/oracles/ProxyOracle.sol:ProxyOracle",
        "label": "borrowablePer10ks",
        "offset": 0,
        "slot": "6",
        "type": "t_mapping(t_address,t_uint256)"
      },
      {
        "astId": 14269,
        "contract": "contracts/oracles/ProxyOracle.sol:ProxyOracle",
        "label": "_oracleCache",
        "offset": 0,
        "slot": "7",
        "type": "t_mapping(t_address,t_mapping(t_address,t_address))"
      },
      {
        "astId": 14559,
        "contract": "contracts/oracles/ProxyOracle.sol:ProxyOracle",
        "label": "valueProxy",
        "offset": 0,
        "slot": "8",
        "type": "t_mapping(t_address,t_mapping(t_address,t_address))"
      }
    ],
    "types": {
      "t_address": {
        "encoding": "inplace",
        "label": "address",
        "numberOfBytes": "20"
      },
      "t_array(t_uint256)dyn_storage": {
        "base": "t_uint256",
        "encoding": "dynamic_array",
        "label": "uint256[]",
        "numberOfBytes": "32"
      },
      "t_bool": {
        "encoding": "inplace",
        "label": "bool",
        "numberOfBytes": "1"
      },
      "t_mapping(t_address,t_address)": {
        "encoding": "mapping",
        "key": "t_address",
        "label": "mapping(address => address)",
        "numberOfBytes": "32",
        "value": "t_address"
      },
      "t_mapping(t_address,t_mapping(t_address,t_address))": {
        "encoding": "mapping",
        "key": "t_address",
        "label": "mapping(address => mapping(address => address))",
        "numberOfBytes": "32",
        "value": "t_mapping(t_address,t_address)"
      },
      "t_mapping(t_address,t_mapping(t_uint256,t_bool))": {
        "encoding": "mapping",
        "key": "t_address",
        "label": "mapping(address => mapping(uint256 => bool))",
        "numberOfBytes": "32",
        "value": "t_mapping(t_uint256,t_bool)"
      },
      "t_mapping(t_address,t_uint256)": {
        "encoding": "mapping",
        "key": "t_address",
        "label": "mapping(address => uint256)",
        "numberOfBytes": "32",
        "value": "t_uint256"
      },
      "t_mapping(t_uint256,t_address)": {
        "encoding": "mapping",
        "key": "t_uint256",
        "label": "mapping(uint256 => address)",
        "numberOfBytes": "32",
        "value": "t_address"
      },
      "t_mapping(t_uint256,t_bool)": {
        "encoding": "mapping",
        "key": "t_uint256",
        "label": "mapping(uint256 => bool)",
        "numberOfBytes": "32",
        "value": "t_bool"
      },
      "t_uint256": {
        "encoding": "inplace",
        "label": "uint256",
        "numberOfBytes": "32"
      }
    }
  }
}