{
  "address": "0x218861760D5560bF7dd41488642cf857C4F27388",
  "abi": [
    {
      "inputs": [
        {
          "internalType": "address",
          "name": "targetOwner",
          "type": "address"
        }
      ],
      "stateMutability": "nonpayable",
      "type": "constructor"
    },
    {
      "anonymous": false,
      "inputs": [
        {
          "indexed": true,
          "internalType": "uint256",
          "name": "character",
          "type": "uint256"
        },
        {
          "indexed": false,
          "internalType": "address",
          "name": "playerBefore",
          "type": "address"
        },
        {
          "indexed": false,
          "internalType": "address",
          "name": "playerNew",
          "type": "address"
        }
      ],
      "name": "CharacterAssigned",
      "type": "event"
    },
    {
      "anonymous": false,
      "inputs": [
        {
          "indexed": true,
          "internalType": "address",
          "name": "previousOwner",
          "type": "address"
        },
        {
          "indexed": true,
          "internalType": "address",
          "name": "newOwner",
          "type": "address"
        }
      ],
      "name": "OwnershipTransferred",
      "type": "event"
    },
    {
      "anonymous": false,
      "inputs": [
        {
          "indexed": true,
          "internalType": "uint256",
          "name": "role",
          "type": "uint256"
        },
        {
          "indexed": false,
          "internalType": "address",
          "name": "player",
          "type": "address"
        }
      ],
      "name": "RoleGiven",
      "type": "event"
    },
    {
      "anonymous": false,
      "inputs": [
        {
          "indexed": true,
          "internalType": "uint256",
          "name": "role",
          "type": "uint256"
        },
        {
          "indexed": false,
          "internalType": "address",
          "name": "player",
          "type": "address"
        }
      ],
      "name": "RoleRemoved",
      "type": "event"
    },
    {
      "inputs": [],
      "name": "executor",
      "outputs": [
        {
          "internalType": "address",
          "name": "exec",
          "type": "address"
        }
      ],
      "stateMutability": "nonpayable",
      "type": "function"
    },
    {
      "inputs": [
        {
          "internalType": "uint256",
          "name": "role",
          "type": "uint256"
        },
        {
          "internalType": "address",
          "name": "actor",
          "type": "address"
        }
      ],
      "name": "giveRole",
      "outputs": [],
      "stateMutability": "nonpayable",
      "type": "function"
    },
    {
      "inputs": [
        {
          "internalType": "uint256",
          "name": "",
          "type": "uint256"
        }
      ],
      "name": "mainCharacters",
      "outputs": [
        {
          "internalType": "address",
          "name": "",
          "type": "address"
        }
      ],
      "stateMutability": "view",
      "type": "function"
    },
    {
      "inputs": [],
      "name": "owner",
      "outputs": [
        {
          "internalType": "address",
          "name": "",
          "type": "address"
        }
      ],
      "stateMutability": "view",
      "type": "function"
    },
    {
      "inputs": [
        {
          "internalType": "uint256",
          "name": "role",
          "type": "uint256"
        },
        {
          "internalType": "address",
          "name": "actor",
          "type": "address"
        }
      ],
      "name": "removeRole",
      "outputs": [],
      "stateMutability": "nonpayable",
      "type": "function"
    },
    {
      "inputs": [],
      "name": "renounceOwnership",
      "outputs": [],
      "stateMutability": "nonpayable",
      "type": "function"
    },
    {
      "inputs": [
        {
          "internalType": "address",
          "name": "",
          "type": "address"
        },
        {
          "internalType": "uint256",
          "name": "",
          "type": "uint256"
        }
      ],
      "name": "roles",
      "outputs": [
        {
          "internalType": "bool",
          "name": "",
          "type": "bool"
        }
      ],
      "stateMutability": "view",
      "type": "function"
    },
    {
      "inputs": [
        {
          "internalType": "uint256",
          "name": "role",
          "type": "uint256"
        },
        {
          "internalType": "address",
          "name": "actor",
          "type": "address"
        }
      ],
      "name": "setMainCharacter",
      "outputs": [],
      "stateMutability": "nonpayable",
      "type": "function"
    },
    {
      "inputs": [
        {
          "internalType": "address",
          "name": "newOwner",
          "type": "address"
        }
      ],
      "name": "transferOwnership",
      "outputs": [],
      "stateMutability": "nonpayable",
      "type": "function"
    }
  ],
  "transactionHash": "0xbec0e2ddc0c8f84f41fad9906d330790c486178a8c11cde6c3c587a52a2f3878",
  "args": [
    "0xC74401498312326cE31A23494eCbaC1449bd7235"
  ],
  "solcInputHash": "db0fa14b887431f79499ee725feab18f",
  "bytecode": "0x608060405234801561001057600080fd5b5060405161098c38038061098c83398101604081905261002f91610167565b61003833610047565b61004181610097565b50610195565b600080546001600160a01b038381166001600160a01b0319831681178455604051919092169283917f8be0079c531659141344cd1fd0a4f28419497f9722a3daafe3b4186f6b6457e09190a35050565b6000546001600160a01b031633146100f65760405162461bcd60e51b815260206004820181905260248201527f4f776e61626c653a2063616c6c6572206973206e6f7420746865206f776e657260448201526064015b60405180910390fd5b6001600160a01b03811661015b5760405162461bcd60e51b815260206004820152602660248201527f4f776e61626c653a206e6577206f776e657220697320746865207a65726f206160448201526564647265737360d01b60648201526084016100ed565b61016481610047565b50565b600060208284031215610178578081fd5b81516001600160a01b038116811461018e578182fd5b9392505050565b6107e8806101a46000396000f3fe608060405234801561001057600080fd5b50600436106100935760003560e01c80638da5cb5b116100665780638da5cb5b146100db578063b4ed0b6d14610105578063c34c08e51461012e578063f0723d9714610136578063f2fde38b1461017457610093565b806325398f83146100985780633238405b146100ad5780634d537769146100c0578063715018a6146100d3575b600080fd5b6100ab6100a6366004610717565b610187565b005b6100ab6100bb366004610717565b61027e565b6100ab6100ce366004610717565b610367565b6100ab61046e565b6000546001600160a01b03165b6040516001600160a01b0390911681526020015b60405180910390f35b6100e86101133660046106ff565b6002602052600090815260409020546001600160a01b031681565b6100e86104d4565b6101646101443660046106d4565b600160209081526000928352604080842090915290825290205460ff1681565b60405190151581526020016100fc565b6100ab610182366004610695565b61057a565b3361019a6000546001600160a01b031690565b6001600160a01b031614806101be5750336101b36104d4565b6001600160a01b0316145b806101eb57506103ea6000526002602052600080516020610793833981519152546001600160a01b031633145b6102105760405162461bcd60e51b815260040161020790610746565b60405180910390fd5b6040516001600160a01b038216815282907f6732a18397198a65db77f7fcdd9fac767f967948e84624b713ba25b2e6193b119060200160405180910390a26001600160a01b03166000908152600160208181526040808420948452939052919020805460ff19169091179055565b336102916000546001600160a01b031690565b6001600160a01b031614806102b55750336102aa6104d4565b6001600160a01b0316145b806102e257506103ea6000526002602052600080516020610793833981519152546001600160a01b031633145b6102fe5760405162461bcd60e51b815260040161020790610746565b6040516001600160a01b038216815282907f25d2876b58af8bf9f5061353680efd3429247d680d369d544446de4b3a6867819060200160405180910390a26001600160a01b0316600090815260016020908152604080832093835292905220805460ff19169055565b3361037a6000546001600160a01b031690565b6001600160a01b0316148061039e5750336103936104d4565b6001600160a01b0316145b806103cb57506103ea6000526002602052600080516020610793833981519152546001600160a01b031633145b6103e75760405162461bcd60e51b815260040161020790610746565b6000828152600260209081526040918290205482516001600160a01b0391821681529084169181019190915283917f81a5078d0eebd72bf0df7b39859ebfc8795fb69fc69b48138005ab3f2ba3630c910160405180910390a260009182526002602052604090912080546001600160a01b0319166001600160a01b03909216919091179055565b6000546001600160a01b031633146104c85760405162461bcd60e51b815260206004820181905260248201527f4f776e61626c653a2063616c6c6572206973206e6f7420746865206f776e65726044820152606401610207565b6104d26000610645565b565b6103ea60009081526002602052600080516020610793833981519152546001600160a01b0316801561057657806001600160a01b0316636b60a09b6040518163ffffffff1660e01b8152600401602060405180830381600087803b15801561053b57600080fd5b505af115801561054f573d6000803e3d6000fd5b505050506040513d601f19601f8201168201806040525081019061057391906106b8565b91505b5090565b6000546001600160a01b031633146105d45760405162461bcd60e51b815260206004820181905260248201527f4f776e61626c653a2063616c6c6572206973206e6f7420746865206f776e65726044820152606401610207565b6001600160a01b0381166106395760405162461bcd60e51b815260206004820152602660248201527f4f776e61626c653a206e6577206f776e657220697320746865207a65726f206160448201526564647265737360d01b6064820152608401610207565b61064281610645565b50565b600080546001600160a01b038381166001600160a01b0319831681178455604051919092169283917f8be0079c531659141344cd1fd0a4f28419497f9722a3daafe3b4186f6b6457e09190a35050565b6000602082840312156106a6578081fd5b81356106b18161077d565b9392505050565b6000602082840312156106c9578081fd5b81516106b18161077d565b600080604083850312156106e6578081fd5b82356106f18161077d565b946020939093013593505050565b600060208284031215610710578081fd5b5035919050565b60008060408385031215610729578182fd5b82359150602083013561073b8161077d565b809150509250929050565b6020808252601e908201527f526f6c65733a2063616c6c6572206973206e6f7420746865206f776e65720000604082015260600190565b6001600160a01b038116811461064257600080fdfedbe5cd5858d8b8ba8ddaf6817490b63aa346482dc8fac5b92758c8d2c1b98153a2646970667358221220df8878e5db21eb55d800ae7766d105fb473b1659d9fec4d30cdff5c6688c886864736f6c63430008030033",
  "devdoc": {
    "kind": "dev",
    "methods": {
      "executor()": {
        "details": "returns the current executor"
      },
      "giveRole(uint256,address)": {
        "details": "assign role to an account"
      },
      "owner()": {
        "details": "Returns the address of the current owner."
      },
      "removeRole(uint256,address)": {
        "details": "revoke role of a particular account"
      },
      "renounceOwnership()": {
        "details": "Leaves the contract without owner. It will not be possible to call `onlyOwner` functions anymore. Can only be called by the current owner. NOTE: Renouncing ownership will leave the contract without an owner, thereby removing any functionality that is only available to the owner."
      },
      "setMainCharacter(uint256,address)": {
        "details": "set main character"
      },
      "transferOwnership(address)": {
        "details": "Transfers ownership of the contract to a new account (`newOwner`). Can only be called by the current owner."
      }
    },
    "title": "Manage permissions of contracts and ownership of everything owned by a multisig wallet during beta and will then be transfered to governance",
    "version": 1
  },
  "userdoc": {
    "kind": "user",
    "methods": {},
    "version": 1
  },
  "storageLayout": {
    "storage": [
      {
        "astId": 53,
        "contract": "contracts/roles/Roles.sol:Roles",
        "label": "_owner",
        "offset": 0,
        "slot": "0",
        "type": "t_address"
      },
      {
        "astId": 17461,
        "contract": "contracts/roles/Roles.sol:Roles",
        "label": "roles",
        "offset": 0,
        "slot": "1",
        "type": "t_mapping(t_address,t_mapping(t_uint256,t_bool))"
      },
      {
        "astId": 17465,
        "contract": "contracts/roles/Roles.sol:Roles",
        "label": "mainCharacters",
        "offset": 0,
        "slot": "2",
        "type": "t_mapping(t_uint256,t_address)"
      }
    ],
    "types": {
      "t_address": {
        "encoding": "inplace",
        "label": "address",
        "numberOfBytes": "20"
      },
      "t_bool": {
        "encoding": "inplace",
        "label": "bool",
        "numberOfBytes": "1"
      },
      "t_mapping(t_address,t_mapping(t_uint256,t_bool))": {
        "encoding": "mapping",
        "key": "t_address",
        "label": "mapping(address => mapping(uint256 => bool))",
        "numberOfBytes": "32",
        "value": "t_mapping(t_uint256,t_bool)"
      },
      "t_mapping(t_uint256,t_address)": {
        "encoding": "mapping",
        "key": "t_uint256",
        "label": "mapping(uint256 => address)",
        "numberOfBytes": "32",
        "value": "t_address"
      },
      "t_mapping(t_uint256,t_bool)": {
        "encoding": "mapping",
        "key": "t_uint256",
        "label": "mapping(uint256 => bool)",
        "numberOfBytes": "32",
        "value": "t_bool"
      },
      "t_uint256": {
        "encoding": "inplace",
        "label": "uint256",
        "numberOfBytes": "32"
      }
    }
  }
}