{
  "address": "0x7Fe03526d646F2CA412b7Fda7355D3AB790833DE",
  "abi": [
    {
      "inputs": [
        {
          "internalType": "address",
          "name": "_roles",
          "type": "address"
        }
      ],
      "stateMutability": "nonpayable",
      "type": "constructor"
    },
    {
      "inputs": [
        {
          "internalType": "uint256",
          "name": "",
          "type": "uint256"
        }
      ],
      "name": "_accounts",
      "outputs": [
        {
          "internalType": "uint256",
          "name": "collateral",
          "type": "uint256"
        },
        {
          "internalType": "uint256",
          "name": "yieldCheckptIdx",
          "type": "uint256"
        },
        {
          "internalType": "address",
          "name": "trancheToken",
          "type": "address"
        }
      ],
      "stateMutability": "view",
      "type": "function"
    },
    {
      "inputs": [
        {
          "internalType": "uint256",
          "name": "",
          "type": "uint256"
        }
      ],
      "name": "_charactersPlayed",
      "outputs": [
        {
          "internalType": "uint256",
          "name": "",
          "type": "uint256"
        }
      ],
      "stateMutability": "view",
      "type": "function"
    },
    {
      "inputs": [
        {
          "internalType": "uint256",
          "name": "",
          "type": "uint256"
        }
      ],
      "name": "_dependsOnCharacters",
      "outputs": [
        {
          "internalType": "uint256",
          "name": "",
          "type": "uint256"
        }
      ],
      "stateMutability": "view",
      "type": "function"
    },
    {
      "inputs": [
        {
          "internalType": "uint256",
          "name": "",
          "type": "uint256"
        }
      ],
      "name": "_dependsOnRoles",
      "outputs": [
        {
          "internalType": "uint256",
          "name": "",
          "type": "uint256"
        }
      ],
      "stateMutability": "view",
      "type": "function"
    },
    {
      "inputs": [
        {
          "internalType": "address",
          "name": "",
          "type": "address"
        },
        {
          "internalType": "address",
          "name": "",
          "type": "address"
        }
      ],
      "name": "_oracleCache",
      "outputs": [
        {
          "internalType": "address",
          "name": "",
          "type": "address"
        }
      ],
      "stateMutability": "view",
      "type": "function"
    },
    {
      "inputs": [
        {
          "internalType": "uint256",
          "name": "",
          "type": "uint256"
        }
      ],
      "name": "_rolesPlayed",
      "outputs": [
        {
          "internalType": "uint256",
          "name": "",
          "type": "uint256"
        }
      ],
      "stateMutability": "view",
      "type": "function"
    },
    {
      "inputs": [
        {
          "internalType": "address",
          "name": "token",
          "type": "address"
        }
      ],
      "name": "_viewTVL",
      "outputs": [
        {
          "internalType": "uint256",
          "name": "",
          "type": "uint256"
        }
      ],
      "stateMutability": "view",
      "type": "function"
    },
    {
      "inputs": [
        {
          "internalType": "uint256",
          "name": "trancheId",
          "type": "uint256"
        },
        {
          "internalType": "address",
          "name": "sourceStrategy",
          "type": "address"
        },
        {
          "internalType": "address",
          "name": "tokenContract",
          "type": "address"
        },
        {
          "internalType": "uint256",
          "name": "",
          "type": "uint256"
        },
        {
          "internalType": "uint256",
          "name": "amount",
          "type": "uint256"
        }
      ],
      "name": "acceptMigration",
      "outputs": [],
      "stateMutability": "nonpayable",
      "type": "function"
    },
    {
      "inputs": [],
      "name": "apfSmoothingPer10k",
      "outputs": [
        {
          "internalType": "uint256",
          "name": "",
          "type": "uint256"
        }
      ],
      "stateMutability": "view",
      "type": "function"
    },
    {
      "inputs": [
        {
          "internalType": "address",
          "name": "token",
          "type": "address"
        },
        {
          "internalType": "bytes",
          "name": "data",
          "type": "bytes"
        }
      ],
      "name": "approveToken",
      "outputs": [],
      "stateMutability": "nonpayable",
      "type": "function"
    },
    {
      "inputs": [
        {
          "internalType": "address",
          "name": "token",
          "type": "address"
        }
      ],
      "name": "approvedToken",
      "outputs": [
        {
          "internalType": "bool",
          "name": "",
          "type": "bool"
        }
      ],
      "stateMutability": "view",
      "type": "function"
    },
    {
      "inputs": [],
      "name": "approvedTokensCount",
      "outputs": [
        {
          "internalType": "uint256",
          "name": "",
          "type": "uint256"
        }
      ],
      "stateMutability": "view",
      "type": "function"
    },
    {
      "inputs": [],
      "name": "charactersPlayed",
      "outputs": [
        {
          "internalType": "uint256[]",
          "name": "",
          "type": "uint256[]"
        }
      ],
      "stateMutability": "view",
      "type": "function"
    },
    {
      "inputs": [
        {
          "internalType": "address",
          "name": "token",
          "type": "address"
        },
        {
          "internalType": "uint256",
          "name": "stabilityFee",
          "type": "uint256"
        }
      ],
      "name": "checkApprovedAndEncode",
      "outputs": [
        {
          "internalType": "bool",
          "name": "",
          "type": "bool"
        },
        {
          "internalType": "bytes",
          "name": "",
          "type": "bytes"
        }
      ],
      "stateMutability": "view",
      "type": "function"
    },
    {
      "inputs": [
        {
          "internalType": "uint256",
          "name": "trancheId",
          "type": "uint256"
        },
        {
          "internalType": "address",
          "name": "currency",
          "type": "address"
        },
        {
          "internalType": "address",
          "name": "recipient",
          "type": "address"
        }
      ],
      "name": "collectYield",
      "outputs": [
        {
          "internalType": "uint256",
          "name": "",
          "type": "uint256"
        }
      ],
      "stateMutability": "nonpayable",
      "type": "function"
    },
    {
      "inputs": [
        {
          "internalType": "uint256",
          "name": "trancheId",
          "type": "uint256"
        },
        {
          "internalType": "address",
          "name": "_yieldCurrency",
          "type": "address"
        },
        {
          "internalType": "address",
          "name": "valueCurrency",
          "type": "address"
        },
        {
          "internalType": "address",
          "name": "recipient",
          "type": "address"
        }
      ],
      "name": "collectYieldValueBorrowable",
      "outputs": [
        {
          "internalType": "uint256",
          "name": "yield",
          "type": "uint256"
        },
        {
          "internalType": "uint256",
          "name": "value",
          "type": "uint256"
        },
        {
          "internalType": "uint256",
          "name": "borrowablePer10k",
          "type": "uint256"
        }
      ],
      "stateMutability": "nonpayable",
      "type": "function"
    },
    {
      "inputs": [],
      "name": "dependsOnCharacters",
      "outputs": [
        {
          "internalType": "uint256[]",
          "name": "",
          "type": "uint256[]"
        }
      ],
      "stateMutability": "view",
      "type": "function"
    },
    {
      "inputs": [],
      "name": "dependsOnRoles",
      "outputs": [
        {
          "internalType": "uint256[]",
          "name": "",
          "type": "uint256[]"
        }
      ],
      "stateMutability": "view",
      "type": "function"
    },
    {
      "inputs": [
        {
          "internalType": "uint256",
          "name": "trancheId",
          "type": "uint256"
        },
        {
          "internalType": "uint256",
          "name": "amount",
          "type": "uint256"
        }
      ],
      "name": "deposit",
      "outputs": [],
      "stateMutability": "nonpayable",
      "type": "function"
    },
    {
      "inputs": [
        {
          "internalType": "uint256",
          "name": "",
          "type": "uint256"
        }
      ],
      "name": "depositTime",
      "outputs": [
        {
          "internalType": "uint256",
          "name": "",
          "type": "uint256"
        }
      ],
      "stateMutability": "view",
      "type": "function"
    },
    {
      "inputs": [
        {
          "internalType": "address",
          "name": "token",
          "type": "address"
        },
        {
          "internalType": "bytes",
          "name": "",
          "type": "bytes"
        }
      ],
      "name": "disapproveToken",
      "outputs": [],
      "stateMutability": "nonpayable",
      "type": "function"
    },
    {
      "inputs": [],
      "name": "isActive",
      "outputs": [
        {
          "internalType": "bool",
          "name": "",
          "type": "bool"
        }
      ],
      "stateMutability": "view",
      "type": "function"
    },
    {
      "inputs": [
        {
          "internalType": "uint256",
          "name": "",
          "type": "uint256"
        }
      ],
      "name": "mainCharacterCache",
      "outputs": [
        {
          "internalType": "address",
          "name": "",
          "type": "address"
        }
      ],
      "stateMutability": "view",
      "type": "function"
    },
    {
      "inputs": [
        {
          "internalType": "address",
          "name": "destination",
          "type": "address"
        }
      ],
      "name": "migrateAllTo",
      "outputs": [],
      "stateMutability": "nonpayable",
      "type": "function"
    },
    {
      "inputs": [
        {
          "internalType": "uint256",
          "name": "trancheId",
          "type": "uint256"
        },
        {
          "internalType": "address",
          "name": "targetStrategy",
          "type": "address"
        },
        {
          "internalType": "address",
          "name": "yieldToken",
          "type": "address"
        },
        {
          "internalType": "address",
          "name": "yieldRecipient",
          "type": "address"
        }
      ],
      "name": "migrateStrategy",
      "outputs": [
        {
          "internalType": "address",
          "name": "",
          "type": "address"
        },
        {
          "internalType": "uint256",
          "name": "",
          "type": "uint256"
        },
        {
          "internalType": "uint256",
          "name": "",
          "type": "uint256"
        }
      ],
      "stateMutability": "nonpayable",
      "type": "function"
    },
    {
      "inputs": [
        {
          "internalType": "address",
          "name": "token",
          "type": "address"
        },
        {
          "internalType": "address",
          "name": "pegCurrency",
          "type": "address"
        }
      ],
      "name": "newCurrentOracle",
      "outputs": [],
      "stateMutability": "nonpayable",
      "type": "function"
    },
    {
      "inputs": [
        {
          "internalType": "address",
          "name": "depositor",
          "type": "address"
        },
        {
          "internalType": "uint256",
          "name": "trancheId",
          "type": "uint256"
        },
        {
          "internalType": "uint256",
          "name": "amount",
          "type": "uint256"
        }
      ],
      "name": "registerDepositFor",
      "outputs": [],
      "stateMutability": "nonpayable",
      "type": "function"
    },
    {
      "inputs": [
        {
          "internalType": "address",
          "name": "minter",
          "type": "address"
        },
        {
          "internalType": "uint256",
          "name": "trancheId",
          "type": "uint256"
        },
        {
          "internalType": "address",
          "name": "assetToken",
          "type": "address"
        },
        {
          "internalType": "uint256",
          "name": "",
          "type": "uint256"
        },
        {
          "internalType": "uint256",
          "name": "assetAmount",
          "type": "uint256"
        }
      ],
      "name": "registerMintTranche",
      "outputs": [],
      "stateMutability": "nonpayable",
      "type": "function"
    },
    {
      "inputs": [
        {
          "internalType": "address",
          "name": "token",
          "type": "address"
        },
        {
          "internalType": "uint256",
          "name": "amount",
          "type": "uint256"
        },
        {
          "internalType": "address",
          "name": "recipient",
          "type": "address"
        }
      ],
      "name": "rescueCollateral",
      "outputs": [],
      "stateMutability": "nonpayable",
      "type": "function"
    },
    {
      "inputs": [
        {
          "internalType": "address",
          "name": "token",
          "type": "address"
        },
        {
          "internalType": "uint256",
          "name": "amount",
          "type": "uint256"
        },
        {
          "internalType": "address",
          "name": "recipient",
          "type": "address"
        }
      ],
      "name": "rescueStrandedTokens",
      "outputs": [],
      "stateMutability": "nonpayable",
      "type": "function"
    },
    {
      "inputs": [
        {
          "internalType": "address",
          "name": "",
          "type": "address"
        },
        {
          "internalType": "uint256",
          "name": "",
          "type": "uint256"
        }
      ],
      "name": "roleCache",
      "outputs": [
        {
          "internalType": "bool",
          "name": "",
          "type": "bool"
        }
      ],
      "stateMutability": "view",
      "type": "function"
    },
    {
      "inputs": [],
      "name": "roles",
      "outputs": [
        {
          "internalType": "contract Roles",
          "name": "",
          "type": "address"
        }
      ],
      "stateMutability": "view",
      "type": "function"
    },
    {
      "inputs": [],
      "name": "rolesPlayed",
      "outputs": [
        {
          "internalType": "uint256[]",
          "name": "",
          "type": "uint256[]"
        }
      ],
      "stateMutability": "view",
      "type": "function"
    },
    {
      "inputs": [
        {
          "internalType": "uint256",
          "name": "smoothing",
          "type": "uint256"
        }
      ],
      "name": "setApfSmoothingPer10k",
      "outputs": [],
      "stateMutability": "nonpayable",
      "type": "function"
    },
    {
      "inputs": [
        {
          "internalType": "address",
          "name": "token",
          "type": "address"
        },
        {
          "internalType": "uint256",
          "name": "yearlyFeePer10k",
          "type": "uint256"
        }
      ],
      "name": "setStabilityFeePer10k",
      "outputs": [],
      "stateMutability": "nonpayable",
      "type": "function"
    },
    {
      "inputs": [
        {
          "internalType": "address",
          "name": "token",
          "type": "address"
        }
      ],
      "name": "stabilityFeePer10k",
      "outputs": [
        {
          "internalType": "uint256",
          "name": "",
          "type": "uint256"
        }
      ],
      "stateMutability": "view",
      "type": "function"
    },
    {
      "inputs": [],
      "name": "strategyName",
      "outputs": [
        {
          "internalType": "bytes32",
          "name": "",
          "type": "bytes32"
        }
      ],
      "stateMutability": "view",
      "type": "function"
    },
    {
      "inputs": [
        {
          "internalType": "address",
          "name": "",
          "type": "address"
        }
      ],
      "name": "tokenMetadata",
      "outputs": [
        {
          "internalType": "uint256",
          "name": "cumulYieldPerCollateralFP",
          "type": "uint256"
        },
        {
          "internalType": "uint256",
          "name": "totalCollateralPast",
          "type": "uint256"
        },
        {
          "internalType": "uint256",
          "name": "totalCollateralNow",
          "type": "uint256"
        },
        {
          "internalType": "uint256",
          "name": "apfLastUpdated",
          "type": "uint256"
        },
        {
          "internalType": "uint256",
          "name": "apf",
          "type": "uint256"
        }
      ],
      "stateMutability": "view",
      "type": "function"
    },
    {
      "inputs": [
        {
          "internalType": "uint256",
          "name": "trancheId",
          "type": "uint256"
        }
      ],
      "name": "tranche",
      "outputs": [
        {
          "internalType": "address",
          "name": "",
          "type": "address"
        }
      ],
      "stateMutability": "view",
      "type": "function"
    },
    {
      "inputs": [
        {
          "internalType": "uint256",
          "name": "trancheId",
          "type": "uint256"
        }
      ],
      "name": "trancheToken",
      "outputs": [
        {
          "internalType": "address",
          "name": "token",
          "type": "address"
        }
      ],
      "stateMutability": "view",
      "type": "function"
    },
    {
      "inputs": [
        {
          "internalType": "uint256",
          "name": "",
          "type": "uint256"
        }
      ],
      "name": "trancheTokenID",
      "outputs": [
        {
          "internalType": "uint256",
          "name": "",
          "type": "uint256"
        }
      ],
      "stateMutability": "pure",
      "type": "function"
    },
    {
      "inputs": [
        {
          "internalType": "uint256",
          "name": "role",
          "type": "uint256"
        }
      ],
      "name": "updateMainCharacterCache",
      "outputs": [],
      "stateMutability": "nonpayable",
      "type": "function"
    },
    {
      "inputs": [
        {
          "internalType": "uint256",
          "name": "role",
          "type": "uint256"
        },
        {
          "internalType": "address",
          "name": "contr",
          "type": "address"
        }
      ],
      "name": "updateRoleCache",
      "outputs": [],
      "stateMutability": "nonpayable",
      "type": "function"
    },
    {
      "inputs": [
        {
          "internalType": "address",
          "name": "token",
          "type": "address"
        }
      ],
      "name": "viewAPF",
      "outputs": [
        {
          "internalType": "uint256",
          "name": "",
          "type": "uint256"
        }
      ],
      "stateMutability": "view",
      "type": "function"
    },
    {
      "inputs": [],
      "name": "viewAllApprovedTokens",
      "outputs": [
        {
          "internalType": "address[]",
          "name": "",
          "type": "address[]"
        }
      ],
      "stateMutability": "view",
      "type": "function"
    },
    {
      "inputs": [],
      "name": "viewAllStrategyMetadata",
      "outputs": [
        {
          "components": [
            {
              "internalType": "address",
              "name": "strategy",
              "type": "address"
            },
            {
              "internalType": "address",
              "name": "token",
              "type": "address"
            },
            {
              "internalType": "uint256",
              "name": "APF",
              "type": "uint256"
            },
            {
              "internalType": "uint256",
              "name": "totalCollateral",
              "type": "uint256"
            },
            {
              "internalType": "uint256",
              "name": "borrowablePer10k",
              "type": "uint256"
            },
            {
              "internalType": "uint256",
              "name": "valuePer1e18",
              "type": "uint256"
            },
            {
              "internalType": "bytes32",
              "name": "strategyName",
              "type": "bytes32"
            },
            {
              "internalType": "uint256",
              "name": "tvl",
              "type": "uint256"
            },
            {
              "internalType": "uint256",
              "name": "harvestBalance2Tally",
              "type": "uint256"
            },
            {
              "internalType": "enum IStrategy.YieldType",
              "name": "yieldType",
              "type": "uint8"
            },
            {
              "internalType": "uint256",
              "name": "stabilityFee",
              "type": "uint256"
            }
          ],
          "internalType": "struct IStrategy.StrategyMetadata[]",
          "name": "",
          "type": "tuple[]"
        }
      ],
      "stateMutability": "view",
      "type": "function"
    },
    {
      "inputs": [],
      "name": "viewAllTokensEver",
      "outputs": [
        {
          "internalType": "address[]",
          "name": "",
          "type": "address[]"
        }
      ],
      "stateMutability": "view",
      "type": "function"
    },
    {
      "inputs": [
        {
          "internalType": "uint256",
          "name": "trancheId",
          "type": "uint256"
        }
      ],
      "name": "viewBorrowable",
      "outputs": [
        {
          "internalType": "uint256",
          "name": "borrowablePer10k",
          "type": "uint256"
        }
      ],
      "stateMutability": "view",
      "type": "function"
    },
    {
      "inputs": [
        {
          "internalType": "address",
          "name": "",
          "type": "address"
        }
      ],
      "name": "viewHarvestBalance2Tally",
      "outputs": [
        {
          "internalType": "uint256",
          "name": "",
          "type": "uint256"
        }
      ],
      "stateMutability": "view",
      "type": "function"
    },
    {
      "inputs": [
        {
          "internalType": "address",
          "name": "token",
          "type": "address"
        }
      ],
      "name": "viewStrategyMetadata",
      "outputs": [
        {
          "components": [
            {
              "internalType": "address",
              "name": "strategy",
              "type": "address"
            },
            {
              "internalType": "address",
              "name": "token",
              "type": "address"
            },
            {
              "internalType": "uint256",
              "name": "APF",
              "type": "uint256"
            },
            {
              "internalType": "uint256",
              "name": "totalCollateral",
              "type": "uint256"
            },
            {
              "internalType": "uint256",
              "name": "borrowablePer10k",
              "type": "uint256"
            },
            {
              "internalType": "uint256",
              "name": "valuePer1e18",
              "type": "uint256"
            },
            {
              "internalType": "bytes32",
              "name": "strategyName",
              "type": "bytes32"
            },
            {
              "internalType": "uint256",
              "name": "tvl",
              "type": "uint256"
            },
            {
              "internalType": "uint256",
              "name": "harvestBalance2Tally",
              "type": "uint256"
            },
            {
              "internalType": "enum IStrategy.YieldType",
              "name": "yieldType",
              "type": "uint8"
            },
            {
              "internalType": "uint256",
              "name": "stabilityFee",
              "type": "uint256"
            }
          ],
          "internalType": "struct IStrategy.StrategyMetadata",
          "name": "",
          "type": "tuple"
        }
      ],
      "stateMutability": "view",
      "type": "function"
    },
    {
      "inputs": [
        {
          "internalType": "uint256",
          "name": "trancheId",
          "type": "uint256"
        }
      ],
      "name": "viewTargetCollateralAmount",
      "outputs": [
        {
          "internalType": "uint256",
          "name": "",
          "type": "uint256"
        }
      ],
      "stateMutability": "view",
      "type": "function"
    },
    {
      "inputs": [
        {
          "internalType": "uint256",
          "name": "trancheId",
          "type": "uint256"
        },
        {
          "internalType": "address",
          "name": "valueCurrency",
          "type": "address"
        }
      ],
      "name": "viewValue",
      "outputs": [
        {
          "internalType": "uint256",
          "name": "value",
          "type": "uint256"
        }
      ],
      "stateMutability": "view",
      "type": "function"
    },
    {
      "inputs": [
        {
          "internalType": "uint256",
          "name": "trancheId",
          "type": "uint256"
        },
        {
          "internalType": "address",
          "name": "valueCurrency",
          "type": "address"
        }
      ],
      "name": "viewValueBorrowable",
      "outputs": [
        {
          "internalType": "uint256",
          "name": "value",
          "type": "uint256"
        },
        {
          "internalType": "uint256",
          "name": "borrowable",
          "type": "uint256"
        }
      ],
      "stateMutability": "view",
      "type": "function"
    },
    {
      "inputs": [
        {
          "internalType": "uint256",
          "name": "trancheId",
          "type": "uint256"
        },
        {
          "internalType": "address",
          "name": "currency",
          "type": "address"
        }
      ],
      "name": "viewYield",
      "outputs": [
        {
          "internalType": "uint256",
          "name": "",
          "type": "uint256"
        }
      ],
      "stateMutability": "view",
      "type": "function"
    },
    {
      "inputs": [
        {
          "internalType": "uint256",
          "name": "trancheId",
          "type": "uint256"
        },
        {
          "internalType": "address",
          "name": "_yieldCurrency",
          "type": "address"
        },
        {
          "internalType": "address",
          "name": "valueCurrency",
          "type": "address"
        }
      ],
      "name": "viewYieldValueBorrowable",
      "outputs": [
        {
          "internalType": "uint256",
          "name": "yield",
          "type": "uint256"
        },
        {
          "internalType": "uint256",
          "name": "value",
          "type": "uint256"
        },
        {
          "internalType": "uint256",
          "name": "borrowablePer10k",
          "type": "uint256"
        }
      ],
      "stateMutability": "view",
      "type": "function"
    },
    {
      "inputs": [
        {
          "internalType": "uint256",
          "name": "trancheId",
          "type": "uint256"
        },
        {
          "internalType": "uint256",
          "name": "amount",
          "type": "uint256"
        },
        {
          "internalType": "address",
          "name": "recipient",
          "type": "address"
        }
      ],
      "name": "withdraw",
      "outputs": [],
      "stateMutability": "nonpayable",
      "type": "function"
    },
    {
      "inputs": [],
      "name": "yieldCurrency",
      "outputs": [
        {
          "internalType": "address",
          "name": "",
          "type": "address"
        }
      ],
      "stateMutability": "view",
      "type": "function"
    },
    {
      "inputs": [],
      "name": "yieldType",
      "outputs": [
        {
          "internalType": "enum IStrategy.YieldType",
          "name": "",
          "type": "uint8"
        }
      ],
      "stateMutability": "pure",
      "type": "function"
    }
  ],
  "transactionHash": "0x1d8d65799da0fca496ab92df97bf4d9c633b1d8156a2ae5237d26de3897c7705",
  "args": [
    "0x4F6ed22C558B462BA35Bb0F6FeB99600964310D7"
  ],
  "solcInputHash": "49de3c0ae1b6f2c0098f9389f4b75969",
  "bytecode": "0x60e06040526008805460ff19166001179055611388600e553480156200002457600080fd5b50604051620038cd380380620038cd8339810160408190526200004791620002cb565b7f53696d706c6520686f6c64696e6720737472617465677900000000000000000081806001600160a01b038116620000d05760405162461bcd60e51b815260206004820152602260248201527f506c656173652070726f766964652076616c696420726f6c6573206164647265604482015261737360f01b606482015260840160405180910390fd5b60601b6001600160601b0319166080526002805460018082018355606a600080516020620038ad8339815191529283015560058054808301825560047f036b6384b5eca791c62761152d0c79bb0604c104a5fb6f4eb0703f3154bb3db09182018190558554808501875560669086015582548085019093559101849055835480830185556068908401556003805480840182557fc2575a0e9e593c00f959f8c92f12db2869c3395a3b0502d05e2516446f71f85b908101829055815480850190925501829055835491820184556000939093526069910181905560405163b4ed0b6d60e01b8152918201526001600160a01b0382169063b4ed0b6d9060240160206040518083038186803b158015620001e857600080fd5b505afa158015620001fd573d6000803e3d6000fd5b505050506040513d601f19601f82011682018060405250810190620002239190620002cb565b6001600160a01b031663fae794e66040518163ffffffff1660e01b815260040160206040518083038186803b1580156200025c57600080fd5b505afa15801562000271573d6000803e3d6000fd5b505050506040513d601f19601f82011682018060405250810190620002979190620002fb565b60a0525060c05250600280546001810182556000919091526067600080516020620038ad8339815191529091015562000314565b600060208284031215620002dd578081fd5b81516001600160a01b0381168114620002f4578182fd5b9392505050565b6000602082840312156200030d578081fd5b5051919050565b60805160601c60a05160c051613535620003786000396000818161082e0152610c17015260006117e9015260008181610520015281816109c90152818161108101528181612012015281816120a50152818161219101526125fa01526135356000f3fe608060405234801561001057600080fd5b506004361061038e5760003560e01c80637b2c9279116101de578063d241c9c01161010f578063e8ea4fae116100ad578063fa98a4ba1161007c578063fa98a4ba14610942578063fabee7db14610955578063fac82e8c14610968578063fd80d0c31461097b5761038e565b8063e8ea4fae146108eb578063e9c3f77d146108f3578063f12ba3811461091c578063f8903fb71461092f5761038e565b8063e173ad25116100e9578063e173ad2514610829578063e22d284514610850578063e2bbb158146108ac578063e2e730f6146108bf5761038e565b8063d241c9c014610806578063d9cb512c14610819578063dc94cb7d146108215761038e565b8063abcbc4fc1161017c578063b23d66c211610156578063b23d66c214610795578063b8327993146107cd578063bf184ea4146107e0578063c5c72dc3146107f35761038e565b8063abcbc4fc14610766578063aeb38d8b14610779578063b06ea8f01461078c5761038e565b80639470505f116101b85780639470505f1461070c5780639b0f09ae1461071a578063a4d77f9014610729578063a51c8fab146107515761038e565b80637b2c9279146106ce5780637dad209b146106d65780638496e891146106de5761038e565b8063392f5f64116102c35780634a7a7f41116102615780636caa9c11116102305780636caa9c11146106125780636fecdf24146106255780637268d1c01461068d5780637a1a04df146106a05761038e565b80634a7a7f41146105c15780634d9d01b2146105d65780634df87c09146105de5780635e8762f8146105f15761038e565b80633ff2fa711161029d5780633ff2fa7114610568578063447d52ba14610588578063459ba1271461059b57806349d4f22e146105ae5761038e565b8063392f5f641461051b5780633a3db435146105425780633ace96ec146105555761038e565b80631dc3a7591161033057806322f3e2d41161030a57806322f3e2d4146104765780632642b6061461049357806326473a8f146104df57806328f3fc73146105085761038e565b80631dc3a7591461043a5780631f7ea8811461044e57806321fa0f1f146104615761038e565b80630ad58d2f1161036c5780630ad58d2f146103e15780630ccc5bd6146103f4578063110acb23146104075780631c5eba2b146104275761038e565b806301c7b9f814610393578063071060a6146103b95780630a3017d9146103ce575b600080fd5b6103a66103a1366004613033565b61098e565b6040519081526020015b60405180910390f35b6103cc6103c736600461301b565b6109b3565b005b6103a66103dc366004612e1a565b610a79565b6103cc6103ef36600461315c565b610a9b565b6103cc610402366004612f35565b610b2b565b61041a610415366004612e1a565b610b85565b6040516103b091906133ef565b6103cc610435366004612f0a565b610c66565b6103a661044836600461301b565b50600090565b6103cc61045c366004612e8a565b610ccb565b610469610d84565b6040516103b091906132d1565b6008546104839060ff1681565b60405190151581526020016103b0565b6104c76104a1366004612e52565b60066020908152600092835260408084209091529082529020546001600160a01b031681565b6040516001600160a01b0390911681526020016103b0565b6103a66104ed366004612e1a565b6001600160a01b031660009081526010602052604090205490565b6103cc610516366004612e52565b610e57565b6104c77f000000000000000000000000000000000000000000000000000000000000000081565b6103cc61055036600461301b565b610f50565b6103cc610563366004612e8a565b610f9e565b6103a661057636600461301b565b60116020526000908152604090205481565b6103cc610596366004613033565b61105b565b6103cc6105a93660046130df565b611133565b6103cc6105bc366004612f35565b6111b4565b6105c9611211565b6040516103b09190613314565b6103a6611269565b6104836105ec366004612e1a565b61127a565b6106046105ff366004612f0a565b61128d565b6040516103b092919061334c565b6103a661062036600461301b565b6112c0565b610665610633366004612e1a565b600f60205260009081526040902060018101546002820154600383015460048401546005909401549293919290919085565b604080519586526020860194909452928401919091526060830152608082015260a0016103b0565b6103a661069b36600461301b565b6112e1565b6104836106ae366004612f0a565b600160209081526000928352604080842090915290825290205460ff1681565b6104c7611307565b6105c9611311565b6106f16106ec36600461308d565b611367565b604080519384526020840192909252908201526060016103b0565b6103a6610448366004612e1a565b60026040516103b09190613367565b61073c610737366004613033565b611488565b604080519283526020830191909152016103b0565b6107596114b1565b6040516103b09190613284565b6103a661077436600461301b565b6114bd565b6103a661078736600461301b565b6114cd565b6103a6600e5481565b6107a86107a336600461308d565b6114dd565b604080516001600160a01b0390941684526020840192909252908201526060016103b0565b6103cc6107db366004612f76565b61166b565b6103a66107ee36600461301b565b611730565b6103a661080136600461301b565b611740565b6104c761081436600461301b565b6117e1565b6107596118db565b6105c96118e7565b6103a67f000000000000000000000000000000000000000000000000000000000000000081565b61088861085e36600461301b565b600d602052600090815260409020805460018201546002909201549091906001600160a01b031683565b6040805193845260208401929092526001600160a01b0316908201526060016103b0565b6103cc6108ba366004613118565b61193d565b6103a66108cd366004612e1a565b6001600160a01b03166000908152600f602052604090206003015490565b6105c9611948565b6104c761090136600461301b565b6000602081905290815260409020546001600160a01b031681565b6103cc61092a366004612fc7565b61199e565b6103a661093d366004613057565b611a2e565b6106f1610950366004613057565b611b1f565b6104c761096336600461301b565b611b5a565b6103cc610976366004612e1a565b611b78565b6103a6610989366004613033565b611dbf565b60006109ab61099c84611b5a565b6109a585611740565b84611e03565b509392505050565b60405163b4ed0b6d60e01b8152600481018290527f00000000000000000000000000000000000000000000000000000000000000006001600160a01b03169063b4ed0b6d9060240160206040518083038186803b158015610a1357600080fd5b505afa158015610a27573d6000803e3d6000fd5b505050506040513d601f19601f82011682018060405250810190610a4b9190612e36565b60009182526020829052604090912080546001600160a01b0319166001600160a01b03909216919091179055565b6001600160a01b0381166000908152600f60205260409020600501545b919050565b60085460ff16610ac65760405162461bcd60e51b8152600401610abd90613388565b60405180910390fd5b610acf33611f56565b610b1b5760405162461bcd60e51b815260206004820152601a60248201527f4e6f7420617574686f72697a656420746f2077697468647261770000000000006044820152606401610abd565b610b26838383611f7f565b505050565b33610b3461200e565b6001600160a01b03161480610b58575033610b4d6120a1565b6001600160a01b0316145b610b745760405162461bcd60e51b8152600401610abd906133b8565b610b7f818484612112565b50505050565b610b8d612d8c565b600080610baa84670de0b6b3a7640000610ba561212f565b611e03565b91509150604051806101600160405280306001600160a01b03168152602001856001600160a01b03168152602001610be186610a79565b81526001600160a01b0386166000818152600f6020908152604080832060030154828601819052818601889052606086018990527f0000000000000000000000000000000000000000000000000000000000000000608087015260a086015260c08501839052600260e086015292825260109052205461010090910152949350505050565b33610c6f61200e565b6001600160a01b03161480610c93575033610c886120a1565b6001600160a01b0316145b610caf5760405162461bcd60e51b8152600401610abd906133b8565b6001600160a01b03909116600090815260106020526040902055565b33610cd461200e565b6001600160a01b03161480610cf8575033610ced6120a1565b6001600160a01b0316145b80610d075750610d0733612167565b610d795760405162461bcd60e51b815260206004820152603960248201527f43616c6c6572206973206e6f7420746865206f776e65722c206578656375746f60448201527f72206f7220617574686f72697a656420616374697661746f72000000000000006064820152608401610abd565b610b2683838361220d565b60606000610d926009612243565b905060008167ffffffffffffffff811115610dbd57634e487b7160e01b600052604160045260246000fd5b604051908082528060200260200182016040528015610df657816020015b610de3612d8c565b815260200190600190039081610ddb5790505b50905060005b80831115610e5057610e1261041560098361224d565b828281518110610e3257634e487b7160e01b600052603260045260246000fd5b60200260200101819052508080610e489061348c565b915050610dfc565b5091505090565b6001600160a01b03828116600090815260066020908152604080832085851684529091529020541615610f4c57610e8c612259565b60405163179ce80d60e21b81526001600160a01b03848116600483015283811660248301529190911690635e73a0349060440160206040518083038186803b158015610ed757600080fd5b505afa158015610eeb573d6000803e3d6000fd5b505050506040513d601f19601f82011682018060405250810190610f0f9190612e36565b6001600160a01b0383811660009081526006602090815260408083208685168452909152902080546001600160a01b031916929091169190911790555b5050565b33610f5961200e565b6001600160a01b03161480610f7d575033610f726120a1565b6001600160a01b0316145b610f995760405162461bcd60e51b8152600401610abd906133b8565b600e55565b33610fa761200e565b6001600160a01b03161480610fcb575033610fc06120a1565b6001600160a01b0316145b610fe75760405162461bcd60e51b8152600401610abd906133b8565b610ff2600984612291565b50610ffb6122a6565b6040516311848c4560e01b81523060048201526001600160a01b0391909116906311848c4590602401600060405180830381600087803b15801561103e57600080fd5b505af1158015611052573d6000803e3d6000fd5b50505050505050565b6040516393552a3d60e01b8152600481018390526001600160a01b0382811660248301527f000000000000000000000000000000000000000000000000000000000000000016906393552a3d9060440160206040518083038186803b1580156110c357600080fd5b505afa1580156110d7573d6000803e3d6000fd5b505050506040513d601f19601f820116820180604052508101906110fb9190612ffb565b6001600160a01b0391909116600090815260016020908152604080832094835293905291909120805460ff1916911515919091179055565b61113c856117e1565b6001600160a01b0316336001600160a01b0316146111985760405162461bcd60e51b81526020600482015260196024820152784e6f7420617574686f72697a656420746f206d69677261746560381b6044820152606401610abd565b6111a285846122de565b6111ad84868361235e565b5050505050565b336111bd61200e565b6001600160a01b031614806111e15750336111d66120a1565b6001600160a01b0316145b6111fd5760405162461bcd60e51b8152600401610abd906133b8565b610b266001600160a01b03841682846123e9565b6060600380548060200260200160405190810160405280929190818152602001828054801561125f57602002820191906000526020600020905b81548152602001906001019080831161124b575b5050505050905090565b60006112756009612243565b905090565b600061128760098361244c565b92915050565b6000606061129a8461127a565b604080516020810186905201604051602081830303815290604052915091509250929050565b600581815481106112d057600080fd5b600091825260209091200154905081565b60006113006112ef83611b5a565b6112f884611740565b610ba561212f565b9392505050565b600061127561212f565b6060600480548060200260200160405190810160405280929190818152602001828054801561125f576020028201919060005260206000209081548152602001906001019080831161124b575050505050905090565b600080600061137533611f56565b806114045750611384876117e1565b6040516302972b0f60e41b8152336004820152602481018990526001600160a01b039190911690632972b0f09060440160206040518083038186803b1580156113cc57600080fd5b505afa1580156113e0573d6000803e3d6000fd5b505050506040513d601f19601f820116820180604052508101906114049190612ffb565b6114505760405162461bcd60e51b815260206004820152601f60248201527f4e6f7420617574686f72697a656420746f20636f6c6c656374207969656c64006044820152606401610abd565b61145b87878661246e565b925061147861146988611b5a565b61147289611740565b87612534565b9398909750929550919350505050565b6000806114a661149785611b5a565b6114a086611740565b85611e03565b915091509250929050565b606061127560096125d3565b600281815481106112d057600080fd5b600481815481106112d057600080fd5b6008546000908190819060ff166115065760405162461bcd60e51b8152600401610abd90613388565b61150f876117e1565b6001600160a01b0316336001600160a01b03161461156b5760405162461bcd60e51b81526020600482015260196024820152784e6f7420617574686f72697a656420746f206d69677261746560381b6044820152606401610abd565b600061157688611b5a565b9050600061158389611740565b60405163095ea7b360e01b81526001600160a01b038a81166004830152602482018390529192509083169063095ea7b390604401602060405180830381600087803b1580156115d157600080fd5b505af11580156115e5573d6000803e3d6000fd5b505050506040513d601f19601f820116820180604052508101906116099190612ffb565b5061161589888861246e565b506000611623308484612112565b6001600160a01b0384166000908152600f6020526040812060030180549293508392909190611653908490613449565b90915550929a60009a50919850909650505050505050565b60085460ff1661168d5760405162461bcd60e51b8152600401610abd90613388565b61169633611f56565b80156116b25750336116a7856117e1565b6001600160a01b0316145b6116f05760405162461bcd60e51b815260206004820152600f60248201526e496e76616c6964207472616e63686560881b6044820152606401610abd565b6001600160a01b0383166000908152600f6020908152604080832054878452600d9092529091206001015561172584846122de565b6111ad85858361235e565b600381815481106112d057600080fd5b6000818152600d60209081526040808320805460028201546001600160a01b03168552601084528285205486865260119094529184205490928491612710916301e133809161178f9042613449565b611799908661342a565b6117a3919061342a565b6117ad9190613416565b6117b79190613416565b9050808211156117d5576117cb8183613449565b9350505050610a96565b60009350505050610a96565b60008061180e7f0000000000000000000000000000000000000000000000000000000000000000846134a7565b6000818152600760205260409020549091506001600160a01b03168061130057606960009081526020527f366a7b92acda364086cc991f618bf9f10b629ec0f7ae94543f96b691b69ec9925460405163043b4d2f60e51b8152600481018490526001600160a01b0390911690638769a5e09060240160206040518083038186803b15801561189b57600080fd5b505afa1580156118af573d6000803e3d6000fd5b505050506040513d601f19601f820116820180604052508101906118d39190612e36565b949350505050565b6060611275600b6125d3565b6060600280548060200260200160405190810160405280929190818152602001828054801561125f576020028201919060005260206000209081548152602001906001019080831161124b575050505050905090565b610f4c33838361235e565b6060600580548060200260200160405190810160405280929190818152602001828054801561125f576020028201919060005260206000209081548152602001906001019080831161124b575050505050905090565b60085460ff166119c05760405162461bcd60e51b8152600401610abd90613388565b6119c933611f56565b611a235760405162461bcd60e51b815260206004820152602560248201527f4e6f7420617574686f72697a656420746f207472616e7366657220757365722060448201526466756e647360d81b6064820152608401610abd565b610b2683838361235e565b6000611a3933611f56565b80611ac85750611a48846117e1565b6040516302972b0f60e41b8152336004820152602481018690526001600160a01b039190911690632972b0f09060440160206040518083038186803b158015611a9057600080fd5b505afa158015611aa4573d6000803e3d6000fd5b505050506040513d601f19601f82011682018060405250810190611ac89190612ffb565b611b145760405162461bcd60e51b815260206004820152601f60248201527f4e6f7420617574686f72697a656420746f20636f6c6c656374207969656c64006044820152606401610abd565b6118d384848461246e565b6000806000611b2e8686611dbf565b9250611b4b611b3c87611b5a565b611b4588611740565b86611e03565b93979096509294509192505050565b6000908152600d60205260409020600201546001600160a01b031690565b60085460ff16611b9a5760405162461bcd60e51b8152600401610abd90613388565b33611ba361200e565b6001600160a01b03161480611bc7575033611bbc6120a1565b6001600160a01b0316145b80611be1575033611bd66125e0565b6001600160a01b0316145b611c535760405162461bcd60e51b815260206004820152603860248201527f43616c6c6572206973206e6f7420746865206f776e65722c206578656375746f60448201527f72206f7220617574686f72697a65642064697361626c657200000000000000006064820152608401610abd565b60005b80611c61600b612243565b1115611db1576000611c74600b8361224d565b90506000611c9a826001600160a01b03166000908152600f602052604090206003015490565b90506000611ca66122a6565b9050611cb3818484612112565b5060405163095ea7b360e01b81526001600160a01b038281166004830152600019602483015284169063095ea7b390604401602060405180830381600087803b158015611cff57600080fd5b505af1158015611d13573d6000803e3d6000fd5b505050506040513d601f19601f82011682018060405250810190611d379190612ffb565b5060405163269974d160e21b81526001600160a01b0386811660048301528481166024830152821690639a65d34490604401600060405180830381600087803b158015611d8357600080fd5b505af1158015611d97573d6000803e3d6000fd5b505050505050508080611da99061348c565b915050611c56565b50506008805460ff19169055565b6000828152600d602052604081206118d381600f84611ddd88611b5a565b6001600160a01b03166001600160a01b0316815260200190815260200160002085612644565b6001600160a01b0380841660009081526006602090815260408083208585168452909152812054909182911680611ec257611e3c612259565b60405163179ce80d60e21b81526001600160a01b03888116600483015286811660248301529190911690635e73a0349060440160206040518083038186803b158015611e8757600080fd5b505afa158015611e9b573d6000803e3d6000fd5b505050506040513d601f19601f82011682018060405250810190611ebf9190612e36565b90505b6040516313f3552960e21b81526001600160a01b038781166004830152602482018790528581166044830152821690634fcd54a490606401604080518083038186803b158015611f1157600080fd5b505afa158015611f25573d6000803e3d6000fd5b505050506040513d601f19601f82011682018060405250810190611f499190613139565b9097909650945050505050565b6001600160a01b0316600090815260016020818152604080842092845291905290205460ff1690565b6000611f8a84611b5a565b9050611f958461272b565b611fa783611fa286611740565b6127fd565b9250611fb4828285612112565b506000848152600d602052604081208054859290611fd3908490613449565b90915550506001600160a01b0381166000908152600f602052604081206003018054859290612003908490613449565b909155505050505050565b60007f00000000000000000000000000000000000000000000000000000000000000006001600160a01b0316638da5cb5b6040518163ffffffff1660e01b815260040160206040518083038186803b15801561206957600080fd5b505afa15801561207d573d6000803e3d6000fd5b505050506040513d601f19601f820116820180604052508101906112759190612e36565b60007f00000000000000000000000000000000000000000000000000000000000000006001600160a01b031663c34c08e56040518163ffffffff1660e01b8152600401602060405180830381600087803b1580156120fe57600080fd5b505af115801561207d573d6000803e3d6000fd5b60006121286001600160a01b03841685846123e9565b5092915050565b606660009081526020527f422cccb7cea5c0e46f340bb7b21b81debac329f72e31669c20ff0f3a05cc2b5b546001600160a01b031690565b6040516393552a3d60e01b81526103eb60048201526001600160a01b0382811660248301526000917f0000000000000000000000000000000000000000000000000000000000000000909116906393552a3d9060440160206040518083038186803b1580156121d557600080fd5b505afa1580156121e9573d6000803e3d6000fd5b505050506040513d601f19601f820116820180604052508101906112879190612ffb565b600061221b8284018461301b565b6001600160a01b03851660009081526010602052604090208190559050610b7f848484612815565b6000611287825490565b6000611300838361282c565b606a60009081526020527ff3261457f4fd0b7c00a1511877ab27b74183ac470be8db3a7ecdc64335f6f979546001600160a01b031690565b6000611300836001600160a01b038416612864565b606860009081526020527faa071f48f62aaaa1f6320aaa7bd2ad2d552d05160892c14d699d38c9920d5f99546001600160a01b031690565b6122e960098261244c565b61232d5760405162461bcd60e51b81526020600482015260156024820152742737ba1030b71030b8383937bb32b2103a37b5b2b760591b6044820152606401610abd565b6000918252600d602052604090912060020180546001600160a01b0319166001600160a01b03909216919091179055565b600061236983611b5a565b90506123748361272b565b61237f848284612981565b506000838152600d602052604090205461239983826133fe565b6000858152600d60209081526040808320939093556001600160a01b0385168252600f905290812060030180548592906123d49084906133fe565b909155506111ad90508483610b2686856133fe565b6040516001600160a01b038316602482015260448101829052610b2690849063a9059cbb60e01b906064015b60408051601f198184030181529190526020810180516001600160e01b03166001600160e01b031990931692909217909152612998565b6001600160a01b03811660009081526001830160205260408120541515611300565b6000838152600d6020526040812081600f8161248988611b5a565b6001600160a01b031681526020810191909152604001600020825490915015612526576124b7828287612644565b92506124c1611307565b6040516340c10f1960e01b81526001600160a01b0386811660048301526024820186905291909116906340c10f1990604401600060405180830381600087803b15801561250d57600080fd5b505af1158015612521573d6000803e3d6000fd5b505050505b546001909101559392505050565b6001600160a01b0380841660009081526006602090815260408083208585168452909152812054909182911661256a8685612a6a565b60405163442fd02b60e11b81526001600160a01b0388811660048301526024820188905286811660448301529192509082169063885fa056906064016040805180830381600087803b1580156125bf57600080fd5b505af1158015611f25573d6000803e3d6000fd5b6060600061130083612b24565b60405163b4ed0b6d60e01b81526103e960048201526000907f00000000000000000000000000000000000000000000000000000000000000006001600160a01b03169063b4ed0b6d9060240160206040518083038186803b15801561206957600080fd5b600061264e611307565b6001600160a01b0316826001600160a01b0316146126a55760405162461bcd60e51b815260206004820152601460248201527357726f6e67207969656c642063757272656e637960601b6044820152606401610abd565b600184015483541115612723576000836000018560010154815481106126db57634e487b7160e01b600052603260045260246000fd5b906000526020600020015484600101546126f59190613449565b905068010000000000000000818660000154612711919061342a565b61271b9190613416565b915050611300565b506000611300565b6000818152600d602052604090208054156127e95760028101546001600160a01b03166000818152600f602052604081209061276685611740565b8454909150818111156127e3576127c16127b1606760009081526020527f682158d08466d11c566d5712d4396197fdd67e65be71d83c97ef719ec468867b546001600160a01b031690565b856127bc8585613449565b612112565b50808284600301546127d391906133fe565b6127dd9190613449565b60038401555b50835550505b506000908152601160205260409020429055565b60008183111561280e575080611287565b5081611287565b612820600984612b80565b50610ff2600b84612b80565b600082600001828154811061285157634e487b7160e01b600052603260045260246000fd5b9060005260206000200154905092915050565b60008181526001830160205260408120548015612977576000612888600183613449565b855490915060009061289c90600190613449565b905081811461291d5760008660000182815481106128ca57634e487b7160e01b600052603260045260246000fd5b90600052602060002001549050808760000184815481106128fb57634e487b7160e01b600052603260045260246000fd5b6000918252602080832090910192909255918252600188019052604090208390555b855486908061293c57634e487b7160e01b600052603160045260246000fd5b600190038181906000526020600020016000905590558560010160008681526020019081526020016000206000905560019350505050611287565b6000915050611287565b60006121286001600160a01b038416853085612b95565b60006129ed826040518060400160405280602081526020017f5361666545524332303a206c6f772d6c6576656c2063616c6c206661696c6564815250856001600160a01b0316612bcd9092919063ffffffff16565b805190915015610b265780806020019051810190612a0b9190612ffb565b610b265760405162461bcd60e51b815260206004820152602a60248201527f5361666545524332303a204552433230206f7065726174696f6e20646964206e6044820152691bdd081cdd58d8d9595960b21b6064820152608401610abd565b6001600160a01b0380831660009081526006602090815260408083208585168452909152902054168061128757612a9f612259565b6040516302eaec2d60e31b81526001600160a01b03858116600483015284811660248301529190911690631757616890604401602060405180830381600087803b158015612aec57600080fd5b505af1158015612b00573d6000803e3d6000fd5b505050506040513d601f19601f820116820180604052508101906113009190612e36565b606081600001805480602002602001604051908101604052809291908181526020018280548015612b7457602002820191906000526020600020905b815481526020019060010190808311612b60575b50505050509050919050565b6000611300836001600160a01b038416612bdc565b6040516001600160a01b0380851660248301528316604482015260648101829052610b7f9085906323b872dd60e01b90608401612415565b60606118d38484600085612c2b565b6000818152600183016020526040812054612c2357508154600181810184556000848152602080822090930184905584548482528286019093526040902091909155611287565b506000611287565b606082471015612c8c5760405162461bcd60e51b815260206004820152602660248201527f416464726573733a20696e73756666696369656e742062616c616e636520666f6044820152651c8818d85b1b60d21b6064820152608401610abd565b843b612cda5760405162461bcd60e51b815260206004820152601d60248201527f416464726573733a2063616c6c20746f206e6f6e2d636f6e74726163740000006044820152606401610abd565b600080866001600160a01b03168587604051612cf69190613268565b60006040518083038185875af1925050503d8060008114612d33576040519150601f19603f3d011682016040523d82523d6000602084013e612d38565b606091505b5091509150612d48828286612d53565b979650505050505050565b60608315612d62575081611300565b825115612d725782518084602001fd5b8160405162461bcd60e51b8152600401610abd9190613375565b60405180610160016040528060006001600160a01b0316815260200160006001600160a01b031681526020016000815260200160008152602001600081526020016000815260200160008019168152602001600081526020016000815260200160006002811115612e0d57634e487b7160e01b600052602160045260246000fd5b8152602001600081525090565b600060208284031215612e2b578081fd5b8135611300816134e7565b600060208284031215612e47578081fd5b8151611300816134e7565b60008060408385031215612e64578081fd5b8235612e6f816134e7565b91506020830135612e7f816134e7565b809150509250929050565b600080600060408486031215612e9e578081fd5b8335612ea9816134e7565b9250602084013567ffffffffffffffff80821115612ec5578283fd5b818601915086601f830112612ed8578283fd5b813581811115612ee6578384fd5b876020828501011115612ef7578384fd5b6020830194508093505050509250925092565b60008060408385031215612f1c578182fd5b8235612f27816134e7565b946020939093013593505050565b600080600060608486031215612f49578283fd5b8335612f54816134e7565b9250602084013591506040840135612f6b816134e7565b809150509250925092565b600080600080600060a08688031215612f8d578081fd5b8535612f98816134e7565b9450602086013593506040860135612faf816134e7565b94979396509394606081013594506080013592915050565b600080600060608486031215612fdb578283fd5b8335612fe6816134e7565b95602085013595506040909401359392505050565b60006020828403121561300c578081fd5b81518015158114611300578182fd5b60006020828403121561302c578081fd5b5035919050565b60008060408385031215613045578182fd5b823591506020830135612e7f816134e7565b60008060006060848603121561306b578283fd5b83359250602084013561307d816134e7565b91506040840135612f6b816134e7565b600080600080608085870312156130a2578384fd5b8435935060208501356130b4816134e7565b925060408501356130c4816134e7565b915060608501356130d4816134e7565b939692955090935050565b600080600080600060a086880312156130f6578081fd5b853594506020860135613108816134e7565b93506040860135612faf816134e7565b6000806040838503121561312a578182fd5b50508035926020909101359150565b6000806040838503121561314b578182fd5b505080516020909101519092909150565b600080600060608486031215613170578081fd5b83359250602084013591506040840135612f6b816134e7565b600081518084526131a1816020860160208601613460565b601f01601f19169290920160200192915050565b600381106131d357634e487b7160e01b600052602160045260246000fd5b9052565b80516001600160a01b0316825260208101516131fe60208401826001600160a01b03169052565b5060408101516040830152606081015160608301526080810151608083015260a081015160a083015260c081015160c083015260e081015160e08301526101008082015181840152506101208082015161325a828501826131b5565b505061014090810151910152565b6000825161327a818460208701613460565b9190910192915050565b6020808252825182820181905260009190848201906040850190845b818110156132c55783516001600160a01b0316835292840192918401916001016132a0565b50909695505050505050565b6020808252825182820181905260009190848201906040850190845b818110156132c5576133008385516131d7565b9284019261016092909201916001016132ed565b6020808252825182820181905260009190848201906040850190845b818110156132c557835183529284019291840191600101613330565b60008315158252604060208301526118d36040830184613189565b6020810161128782846131b5565b6000602082526113006020830184613189565b6020808252601690820152755374726174656779206973206e6f742061637469766560501b604082015260600190565b6020808252601e908201527f526f6c65733a2063616c6c6572206973206e6f7420746865206f776e65720000604082015260600190565b610160810161128782846131d7565b60008219821115613411576134116134bb565b500190565b600082613425576134256134d1565b500490565b6000816000190483118215151615613444576134446134bb565b500290565b60008282101561345b5761345b6134bb565b500390565b60005b8381101561347b578181015183820152602001613463565b83811115610b7f5750506000910152565b60006000198214156134a0576134a06134bb565b5060010190565b6000826134b6576134b66134d1565b500690565b634e487b7160e01b600052601160045260246000fd5b634e487b7160e01b600052601260045260246000fd5b6001600160a01b03811681146134fc57600080fd5b5056fea264697066735822122047fab8246d7511bbe45f6de89fcadc0ce16e3e48d9c6eb407d7b7c8e762fe7f664736f6c63430008030033405787fa12a823e0f2b7631cc41b3ba8828b3321ca811111fa75cd3aa3bb5ace",
  "devdoc": {
    "kind": "dev",
    "methods": {
      "charactersPlayed()": {
        "details": "returns all characters played by this contract (e.g. stable coin, oracle registry)"
      },
      "dependsOnCharacters()": {
        "details": "returns all the character dependencies like FEE_RECIPIENT"
      },
      "dependsOnRoles()": {
        "details": "returns all the roles dependencies of this contract like FUND_TRANSFERER"
      },
      "rolesPlayed()": {
        "details": "returns all roles played by this contract"
      },
      "updateMainCharacterCache(uint256)": {
        "details": "Updates the main character cache for a speciic character"
      },
      "updateRoleCache(uint256,address)": {
        "details": "Updates the role cache for a specific role and address"
      }
    },
    "version": 1
  },
  "userdoc": {
    "kind": "user",
    "methods": {
      "_viewTVL(address)": {
        "notice": "View TVL in a token"
      },
      "acceptMigration(uint256,address,address,uint256,uint256)": {
        "notice": "Accept migrated assets from another tranche"
      },
      "approveToken(address,bytes)": {
        "notice": "set up a token to be supported by this strategy"
      },
      "approvedToken(address)": {
        "notice": "Is a token supported by this strategy?"
      },
      "approvedTokensCount()": {
        "notice": "count the number of tokens this strategy currently supports"
      },
      "checkApprovedAndEncode(address,uint256)": {
        "notice": "Initialize token"
      },
      "collectYieldValueBorrowable(uint256,address,address,address)": {
        "notice": "For a specific tranche, collect yield and view value and borrowable per 10k"
      },
      "deposit(uint256,uint256)": {
        "notice": "Add to the balance of a tranche from sender wallet"
      },
      "disapproveToken(address,bytes)": {
        "notice": "Give some token the stink-eye and tell it to never show its face again"
      },
      "migrateAllTo(address)": {
        "notice": "Migrate all tranches managed to a new strategy, using strategy registry as go-between"
      },
      "migrateStrategy(uint256,address,address,address)": {
        "notice": "Migrate contents of tranche to new strategy"
      },
      "newCurrentOracle(address,address)": {
        "notice": "Notify contract to update oracle cache"
      },
      "registerDepositFor(address,uint256,uint256)": {
        "notice": "Register deposit to tranche on behalf of user (to be called by other contract)"
      },
      "registerMintTranche(address,uint256,address,uint256,uint256)": {
        "notice": "Allows tranche contracts to register new tranches"
      },
      "rescueCollateral(address,uint256,address)": {
        "notice": "In an emergency, withdraw tokens from yield generator"
      },
      "rescueStrandedTokens(address,uint256,address)": {
        "notice": "In an emergency, withdraw any tokens stranded in this contract's balance"
      },
      "setApfSmoothingPer10k(uint256)": {
        "notice": "Since return rates vary, we smooth"
      },
      "setStabilityFeePer10k(address,uint256)": {
        "notice": "Set stability fee, if any"
      },
      "stabilityFeePer10k(address)": {
        "notice": "Stability fee if any"
      },
      "trancheToken(uint256)": {
        "notice": "Returns the token associated with a tranche"
      },
      "trancheTokenID(uint256)": {
        "notice": "The ID of the tranche token (relevant if not handling ERC20)"
      },
      "viewAPF(address)": {
        "notice": "Annual percentage factor, APR = APF - 100%"
      },
      "viewAllApprovedTokens()": {
        "notice": "View all tokens currently supported by this strategy"
      },
      "viewAllStrategyMetadata()": {
        "notice": "view metadata for all tokens in an array"
      },
      "viewAllTokensEver()": {
        "notice": "All the tokens this strategy has ever touched"
      },
      "viewBorrowable(uint256)": {
        "notice": "View borrowable per10k of tranche"
      },
      "viewHarvestBalance2Tally(address)": {
        "notice": "View outstanding yield that needs to be distributed to accounts of an asset if any"
      },
      "viewStrategyMetadata(address)": {
        "notice": "View metadata for a token"
      },
      "viewTargetCollateralAmount(uint256)": {
        "notice": "how much collateral does a tranche have"
      },
      "viewValue(uint256,address)": {
        "notice": "View the value of a tranche"
      },
      "viewValueBorrowable(uint256,address)": {
        "notice": "View value and borrowable per10k of tranche"
      },
      "viewYield(uint256,address)": {
        "notice": "View accrued yield for a tranche"
      },
      "viewYieldValueBorrowable(uint256,address,address)": {
        "notice": "For a specific tranche, view its accrued yield, value and borrowable per 10k"
      },
      "withdraw(uint256,uint256,address)": {
        "notice": "Withdraw tokens from tranche (only callable by fund transferer)"
      },
      "yieldCurrency()": {
        "notice": "The currency used to aggregate yield in this strategy (mintable)"
      },
      "yieldType()": {
        "notice": "Here we do no yield"
      }
    },
    "notice": "Do-nothing strategy",
    "version": 1
  },
  "storageLayout": {
    "storage": [
      {
        "astId": 14088,
        "contract": "contracts/strategies/SimpleHoldingStrategy.sol:SimpleHoldingStrategy",
        "label": "mainCharacterCache",
        "offset": 0,
        "slot": "0",
        "type": "t_mapping(t_uint256,t_address)"
      },
      {
        "astId": 14094,
        "contract": "contracts/strategies/SimpleHoldingStrategy.sol:SimpleHoldingStrategy",
        "label": "roleCache",
        "offset": 0,
        "slot": "1",
        "type": "t_mapping(t_address,t_mapping(t_uint256,t_bool))"
      },
      {
        "astId": 14097,
        "contract": "contracts/strategies/SimpleHoldingStrategy.sol:SimpleHoldingStrategy",
        "label": "_dependsOnCharacters",
        "offset": 0,
        "slot": "2",
        "type": "t_array(t_uint256)dyn_storage"
      },
      {
        "astId": 14100,
        "contract": "contracts/strategies/SimpleHoldingStrategy.sol:SimpleHoldingStrategy",
        "label": "_dependsOnRoles",
        "offset": 0,
        "slot": "3",
        "type": "t_array(t_uint256)dyn_storage"
      },
      {
        "astId": 14103,
        "contract": "contracts/strategies/SimpleHoldingStrategy.sol:SimpleHoldingStrategy",
        "label": "_charactersPlayed",
        "offset": 0,
        "slot": "4",
        "type": "t_array(t_uint256)dyn_storage"
      },
      {
        "astId": 14106,
        "contract": "contracts/strategies/SimpleHoldingStrategy.sol:SimpleHoldingStrategy",
        "label": "_rolesPlayed",
        "offset": 0,
        "slot": "5",
        "type": "t_array(t_uint256)dyn_storage"
      },
      {
        "astId": 12186,
        "contract": "contracts/strategies/SimpleHoldingStrategy.sol:SimpleHoldingStrategy",
        "label": "_oracleCache",
        "offset": 0,
        "slot": "6",
        "type": "t_mapping(t_address,t_mapping(t_address,t_address))"
      },
      {
        "astId": 9736,
        "contract": "contracts/strategies/SimpleHoldingStrategy.sol:SimpleHoldingStrategy",
        "label": "_slotTranches",
        "offset": 0,
        "slot": "7",
        "type": "t_mapping(t_uint256,t_address)"
      },
      {
        "astId": 6660,
        "contract": "contracts/strategies/SimpleHoldingStrategy.sol:SimpleHoldingStrategy",
        "label": "isActive",
        "offset": 0,
        "slot": "8",
        "type": "t_bool"
      },
      {
        "astId": 6666,
        "contract": "contracts/strategies/SimpleHoldingStrategy.sol:SimpleHoldingStrategy",
        "label": "_approvedTokens",
        "offset": 0,
        "slot": "9",
        "type": "t_struct(AddressSet)3278_storage"
      },
      {
        "astId": 6669,
        "contract": "contracts/strategies/SimpleHoldingStrategy.sol:SimpleHoldingStrategy",
        "label": "_allTokensEver",
        "offset": 0,
        "slot": "11",
        "type": "t_struct(AddressSet)3278_storage"
      },
      {
        "astId": 6681,
        "contract": "contracts/strategies/SimpleHoldingStrategy.sol:SimpleHoldingStrategy",
        "label": "_accounts",
        "offset": 0,
        "slot": "13",
        "type": "t_mapping(t_uint256,t_struct(CollateralAccount)6676_storage)"
      },
      {
        "astId": 6698,
        "contract": "contracts/strategies/SimpleHoldingStrategy.sol:SimpleHoldingStrategy",
        "label": "apfSmoothingPer10k",
        "offset": 0,
        "slot": "14",
        "type": "t_uint256"
      },
      {
        "astId": 6703,
        "contract": "contracts/strategies/SimpleHoldingStrategy.sol:SimpleHoldingStrategy",
        "label": "tokenMetadata",
        "offset": 0,
        "slot": "15",
        "type": "t_mapping(t_address,t_struct(TokenMetadata)6695_storage)"
      },
      {
        "astId": 15192,
        "contract": "contracts/strategies/SimpleHoldingStrategy.sol:SimpleHoldingStrategy",
        "label": "_stabilityFeePer10k",
        "offset": 0,
        "slot": "16",
        "type": "t_mapping(t_address,t_uint256)"
      },
      {
        "astId": 15196,
        "contract": "contracts/strategies/SimpleHoldingStrategy.sol:SimpleHoldingStrategy",
        "label": "depositTime",
        "offset": 0,
        "slot": "17",
        "type": "t_mapping(t_uint256,t_uint256)"
      }
    ],
    "types": {
      "t_address": {
        "encoding": "inplace",
        "label": "address",
        "numberOfBytes": "20"
      },
      "t_array(t_bytes32)dyn_storage": {
        "base": "t_bytes32",
        "encoding": "dynamic_array",
        "label": "bytes32[]",
        "numberOfBytes": "32"
      },
      "t_array(t_uint256)dyn_storage": {
        "base": "t_uint256",
        "encoding": "dynamic_array",
        "label": "uint256[]",
        "numberOfBytes": "32"
      },
      "t_bool": {
        "encoding": "inplace",
        "label": "bool",
        "numberOfBytes": "1"
      },
      "t_bytes32": {
        "encoding": "inplace",
        "label": "bytes32",
        "numberOfBytes": "32"
      },
      "t_mapping(t_address,t_address)": {
        "encoding": "mapping",
        "key": "t_address",
        "label": "mapping(address => address)",
        "numberOfBytes": "32",
        "value": "t_address"
      },
      "t_mapping(t_address,t_mapping(t_address,t_address))": {
        "encoding": "mapping",
        "key": "t_address",
        "label": "mapping(address => mapping(address => address))",
        "numberOfBytes": "32",
        "value": "t_mapping(t_address,t_address)"
      },
      "t_mapping(t_address,t_mapping(t_uint256,t_bool))": {
        "encoding": "mapping",
        "key": "t_address",
        "label": "mapping(address => mapping(uint256 => bool))",
        "numberOfBytes": "32",
        "value": "t_mapping(t_uint256,t_bool)"
      },
      "t_mapping(t_address,t_struct(TokenMetadata)6695_storage)": {
        "encoding": "mapping",
        "key": "t_address",
        "label": "mapping(address => struct Strategy.TokenMetadata)",
        "numberOfBytes": "32",
        "value": "t_struct(TokenMetadata)6695_storage"
      },
      "t_mapping(t_address,t_uint256)": {
        "encoding": "mapping",
        "key": "t_address",
        "label": "mapping(address => uint256)",
        "numberOfBytes": "32",
        "value": "t_uint256"
      },
      "t_mapping(t_bytes32,t_uint256)": {
        "encoding": "mapping",
        "key": "t_bytes32",
        "label": "mapping(bytes32 => uint256)",
        "numberOfBytes": "32",
        "value": "t_uint256"
      },
      "t_mapping(t_uint256,t_address)": {
        "encoding": "mapping",
        "key": "t_uint256",
        "label": "mapping(uint256 => address)",
        "numberOfBytes": "32",
        "value": "t_address"
      },
      "t_mapping(t_uint256,t_bool)": {
        "encoding": "mapping",
        "key": "t_uint256",
        "label": "mapping(uint256 => bool)",
        "numberOfBytes": "32",
        "value": "t_bool"
      },
      "t_mapping(t_uint256,t_struct(CollateralAccount)6676_storage)": {
        "encoding": "mapping",
        "key": "t_uint256",
        "label": "mapping(uint256 => struct Strategy.CollateralAccount)",
        "numberOfBytes": "32",
        "value": "t_struct(CollateralAccount)6676_storage"
      },
      "t_mapping(t_uint256,t_uint256)": {
        "encoding": "mapping",
        "key": "t_uint256",
        "label": "mapping(uint256 => uint256)",
        "numberOfBytes": "32",
        "value": "t_uint256"
      },
      "t_struct(AddressSet)3278_storage": {
        "encoding": "inplace",
        "label": "struct EnumerableSet.AddressSet",
        "members": [
          {
            "astId": 3277,
            "contract": "contracts/strategies/SimpleHoldingStrategy.sol:SimpleHoldingStrategy",
            "label": "_inner",
            "offset": 0,
            "slot": "0",
            "type": "t_struct(Set)2977_storage"
          }
        ],
        "numberOfBytes": "64"
      },
      "t_struct(CollateralAccount)6676_storage": {
        "encoding": "inplace",
        "label": "struct Strategy.CollateralAccount",
        "members": [
          {
            "astId": 6671,
            "contract": "contracts/strategies/SimpleHoldingStrategy.sol:SimpleHoldingStrategy",
            "label": "collateral",
            "offset": 0,
            "slot": "0",
            "type": "t_uint256"
          },
          {
            "astId": 6673,
            "contract": "contracts/strategies/SimpleHoldingStrategy.sol:SimpleHoldingStrategy",
            "label": "yieldCheckptIdx",
            "offset": 0,
            "slot": "1",
            "type": "t_uint256"
          },
          {
            "astId": 6675,
            "contract": "contracts/strategies/SimpleHoldingStrategy.sol:SimpleHoldingStrategy",
            "label": "trancheToken",
            "offset": 0,
            "slot": "2",
            "type": "t_address"
          }
        ],
        "numberOfBytes": "96"
      },
      "t_struct(Set)2977_storage": {
        "encoding": "inplace",
        "label": "struct EnumerableSet.Set",
        "members": [
          {
            "astId": 2972,
            "contract": "contracts/strategies/SimpleHoldingStrategy.sol:SimpleHoldingStrategy",
            "label": "_values",
            "offset": 0,
            "slot": "0",
            "type": "t_array(t_bytes32)dyn_storage"
          },
          {
            "astId": 2976,
            "contract": "contracts/strategies/SimpleHoldingStrategy.sol:SimpleHoldingStrategy",
            "label": "_indexes",
            "offset": 0,
            "slot": "1",
            "type": "t_mapping(t_bytes32,t_uint256)"
          }
        ],
        "numberOfBytes": "64"
      },
      "t_struct(TokenMetadata)6695_storage": {
        "encoding": "inplace",
        "label": "struct Strategy.TokenMetadata",
        "members": [
          {
            "astId": 6684,
            "contract": "contracts/strategies/SimpleHoldingStrategy.sol:SimpleHoldingStrategy",
            "label": "yieldCheckpoints",
            "offset": 0,
            "slot": "0",
            "type": "t_array(t_uint256)dyn_storage"
          },
          {
            "astId": 6686,
            "contract": "contracts/strategies/SimpleHoldingStrategy.sol:SimpleHoldingStrategy",
            "label": "cumulYieldPerCollateralFP",
            "offset": 0,
            "slot": "1",
            "type": "t_uint256"
          },
          {
            "astId": 6688,
            "contract": "contracts/strategies/SimpleHoldingStrategy.sol:SimpleHoldingStrategy",
            "label": "totalCollateralPast",
            "offset": 0,
            "slot": "2",
            "type": "t_uint256"
          },
          {
            "astId": 6690,
            "contract": "contracts/strategies/SimpleHoldingStrategy.sol:SimpleHoldingStrategy",
            "label": "totalCollateralNow",
            "offset": 0,
            "slot": "3",
            "type": "t_uint256"
          },
          {
            "astId": 6692,
            "contract": "contracts/strategies/SimpleHoldingStrategy.sol:SimpleHoldingStrategy",
            "label": "apfLastUpdated",
            "offset": 0,
            "slot": "4",
            "type": "t_uint256"
          },
          {
            "astId": 6694,
            "contract": "contracts/strategies/SimpleHoldingStrategy.sol:SimpleHoldingStrategy",
            "label": "apf",
            "offset": 0,
            "slot": "5",
            "type": "t_uint256"
          }
        ],
        "numberOfBytes": "192"
      },
      "t_uint256": {
        "encoding": "inplace",
        "label": "uint256",
        "numberOfBytes": "32"
      }
    }
  }
}