{
  "address": "0x0f577433Bf59560Ef2a79c124E9Ff99fCa258948",
  "abi": [
    {
      "inputs": [
        {
          "internalType": "address",
          "name": "_roles",
          "type": "address"
        }
      ],
      "stateMutability": "nonpayable",
      "type": "constructor"
    },
    {
      "anonymous": false,
      "inputs": [
        {
          "indexed": true,
          "internalType": "address",
          "name": "owner",
          "type": "address"
        },
        {
          "indexed": true,
          "internalType": "address",
          "name": "spender",
          "type": "address"
        },
        {
          "indexed": false,
          "internalType": "uint256",
          "name": "value",
          "type": "uint256"
        }
      ],
      "name": "Approval",
      "type": "event"
    },
    {
      "anonymous": false,
      "inputs": [
        {
          "indexed": false,
          "internalType": "string",
          "name": "param",
          "type": "string"
        },
        {
          "indexed": false,
          "internalType": "uint256",
          "name": "value",
          "type": "uint256"
        }
      ],
      "name": "ParameterUpdated",
      "type": "event"
    },
    {
      "anonymous": false,
      "inputs": [
        {
          "indexed": false,
          "internalType": "string",
          "name": "param",
          "type": "string"
        },
        {
          "indexed": false,
          "internalType": "address",
          "name": "subject",
          "type": "address"
        },
        {
          "indexed": false,
          "internalType": "uint256",
          "name": "value",
          "type": "uint256"
        }
      ],
      "name": "SubjectParameterUpdated",
      "type": "event"
    },
    {
      "anonymous": false,
      "inputs": [
        {
          "indexed": false,
          "internalType": "string",
          "name": "param",
          "type": "string"
        },
        {
          "indexed": false,
          "internalType": "address",
          "name": "subject",
          "type": "address"
        }
      ],
      "name": "SubjectUpdated",
      "type": "event"
    },
    {
      "anonymous": false,
      "inputs": [
        {
          "indexed": true,
          "internalType": "address",
          "name": "from",
          "type": "address"
        },
        {
          "indexed": true,
          "internalType": "address",
          "name": "to",
          "type": "address"
        },
        {
          "indexed": false,
          "internalType": "uint256",
          "name": "value",
          "type": "uint256"
        }
      ],
      "name": "Transfer",
      "type": "event"
    },
    {
      "inputs": [],
      "name": "DOMAIN_SEPARATOR",
      "outputs": [
        {
          "internalType": "bytes32",
          "name": "",
          "type": "bytes32"
        }
      ],
      "stateMutability": "view",
      "type": "function"
    },
    {
      "inputs": [
        {
          "internalType": "uint256",
          "name": "",
          "type": "uint256"
        }
      ],
      "name": "_charactersPlayed",
      "outputs": [
        {
          "internalType": "uint256",
          "name": "",
          "type": "uint256"
        }
      ],
      "stateMutability": "view",
      "type": "function"
    },
    {
      "inputs": [
        {
          "internalType": "uint256",
          "name": "",
          "type": "uint256"
        }
      ],
      "name": "_dependsOnCharacters",
      "outputs": [
        {
          "internalType": "uint256",
          "name": "",
          "type": "uint256"
        }
      ],
      "stateMutability": "view",
      "type": "function"
    },
    {
      "inputs": [
        {
          "internalType": "uint256",
          "name": "",
          "type": "uint256"
        }
      ],
      "name": "_dependsOnRoles",
      "outputs": [
        {
          "internalType": "uint256",
          "name": "",
          "type": "uint256"
        }
      ],
      "stateMutability": "view",
      "type": "function"
    },
    {
      "inputs": [
        {
          "internalType": "uint256",
          "name": "",
          "type": "uint256"
        }
      ],
      "name": "_rolesPlayed",
      "outputs": [
        {
          "internalType": "uint256",
          "name": "",
          "type": "uint256"
        }
      ],
      "stateMutability": "view",
      "type": "function"
    },
    {
      "inputs": [
        {
          "internalType": "address",
          "name": "owner",
          "type": "address"
        },
        {
          "internalType": "address",
          "name": "spender",
          "type": "address"
        }
      ],
      "name": "allowance",
      "outputs": [
        {
          "internalType": "uint256",
          "name": "",
          "type": "uint256"
        }
      ],
      "stateMutability": "view",
      "type": "function"
    },
    {
      "inputs": [
        {
          "internalType": "address",
          "name": "spender",
          "type": "address"
        },
        {
          "internalType": "uint256",
          "name": "amount",
          "type": "uint256"
        }
      ],
      "name": "approve",
      "outputs": [
        {
          "internalType": "bool",
          "name": "",
          "type": "bool"
        }
      ],
      "stateMutability": "nonpayable",
      "type": "function"
    },
    {
      "inputs": [
        {
          "internalType": "address",
          "name": "account",
          "type": "address"
        }
      ],
      "name": "balanceOf",
      "outputs": [
        {
          "internalType": "uint256",
          "name": "",
          "type": "uint256"
        }
      ],
      "stateMutability": "view",
      "type": "function"
    },
    {
      "inputs": [
        {
          "internalType": "address",
          "name": "account",
          "type": "address"
        },
        {
          "internalType": "uint256",
          "name": "amount",
          "type": "uint256"
        }
      ],
      "name": "burn",
      "outputs": [],
      "stateMutability": "nonpayable",
      "type": "function"
    },
    {
      "inputs": [],
      "name": "charactersPlayed",
      "outputs": [
        {
          "internalType": "uint256[]",
          "name": "",
          "type": "uint256[]"
        }
      ],
      "stateMutability": "view",
      "type": "function"
    },
    {
      "inputs": [],
      "name": "decimals",
      "outputs": [
        {
          "internalType": "uint8",
          "name": "",
          "type": "uint8"
        }
      ],
      "stateMutability": "view",
      "type": "function"
    },
    {
      "inputs": [
        {
          "internalType": "address",
          "name": "spender",
          "type": "address"
        },
        {
          "internalType": "uint256",
          "name": "subtractedValue",
          "type": "uint256"
        }
      ],
      "name": "decreaseAllowance",
      "outputs": [
        {
          "internalType": "bool",
          "name": "",
          "type": "bool"
        }
      ],
      "stateMutability": "nonpayable",
      "type": "function"
    },
    {
      "inputs": [],
      "name": "dependsOnCharacters",
      "outputs": [
        {
          "internalType": "uint256[]",
          "name": "",
          "type": "uint256[]"
        }
      ],
      "stateMutability": "view",
      "type": "function"
    },
    {
      "inputs": [],
      "name": "dependsOnRoles",
      "outputs": [
        {
          "internalType": "uint256[]",
          "name": "",
          "type": "uint256[]"
        }
      ],
      "stateMutability": "view",
      "type": "function"
    },
    {
      "inputs": [
        {
          "internalType": "address",
          "name": "",
          "type": "address"
        },
        {
          "internalType": "uint256",
          "name": "amount",
          "type": "uint256"
        }
      ],
      "name": "flashFee",
      "outputs": [
        {
          "internalType": "uint256",
          "name": "",
          "type": "uint256"
        }
      ],
      "stateMutability": "view",
      "type": "function"
    },
    {
      "inputs": [],
      "name": "flashFeePer10k",
      "outputs": [
        {
          "internalType": "uint256",
          "name": "",
          "type": "uint256"
        }
      ],
      "stateMutability": "view",
      "type": "function"
    },
    {
      "inputs": [
        {
          "internalType": "contract IERC3156FlashBorrower",
          "name": "receiver",
          "type": "address"
        },
        {
          "internalType": "address",
          "name": "token",
          "type": "address"
        },
        {
          "internalType": "uint256",
          "name": "amount",
          "type": "uint256"
        },
        {
          "internalType": "bytes",
          "name": "data",
          "type": "bytes"
        }
      ],
      "name": "flashLoan",
      "outputs": [
        {
          "internalType": "bool",
          "name": "",
          "type": "bool"
        }
      ],
      "stateMutability": "nonpayable",
      "type": "function"
    },
    {
      "inputs": [],
      "name": "flashLoansEnabled",
      "outputs": [
        {
          "internalType": "bool",
          "name": "",
          "type": "bool"
        }
      ],
      "stateMutability": "view",
      "type": "function"
    },
    {
      "inputs": [],
      "name": "globalDebtCeiling",
      "outputs": [
        {
          "internalType": "uint256",
          "name": "",
          "type": "uint256"
        }
      ],
      "stateMutability": "view",
      "type": "function"
    },
    {
      "inputs": [
        {
          "internalType": "address",
          "name": "spender",
          "type": "address"
        },
        {
          "internalType": "uint256",
          "name": "addedValue",
          "type": "uint256"
        }
      ],
      "name": "increaseAllowance",
      "outputs": [
        {
          "internalType": "bool",
          "name": "",
          "type": "bool"
        }
      ],
      "stateMutability": "nonpayable",
      "type": "function"
    },
    {
      "inputs": [
        {
          "internalType": "uint256",
          "name": "",
          "type": "uint256"
        }
      ],
      "name": "mainCharacterCache",
      "outputs": [
        {
          "internalType": "address",
          "name": "",
          "type": "address"
        }
      ],
      "stateMutability": "view",
      "type": "function"
    },
    {
      "inputs": [
        {
          "internalType": "address",
          "name": "token",
          "type": "address"
        }
      ],
      "name": "maxFlashLoan",
      "outputs": [
        {
          "internalType": "uint256",
          "name": "",
          "type": "uint256"
        }
      ],
      "stateMutability": "view",
      "type": "function"
    },
    {
      "inputs": [
        {
          "internalType": "address",
          "name": "",
          "type": "address"
        }
      ],
      "name": "minBalance",
      "outputs": [
        {
          "internalType": "uint256",
          "name": "",
          "type": "uint256"
        }
      ],
      "stateMutability": "view",
      "type": "function"
    },
    {
      "inputs": [
        {
          "internalType": "address",
          "name": "account",
          "type": "address"
        },
        {
          "internalType": "uint256",
          "name": "amount",
          "type": "uint256"
        }
      ],
      "name": "mint",
      "outputs": [],
      "stateMutability": "nonpayable",
      "type": "function"
    },
    {
      "inputs": [],
      "name": "name",
      "outputs": [
        {
          "internalType": "string",
          "name": "",
          "type": "string"
        }
      ],
      "stateMutability": "view",
      "type": "function"
    },
    {
      "inputs": [
        {
          "internalType": "address",
          "name": "owner",
          "type": "address"
        }
      ],
      "name": "nonces",
      "outputs": [
        {
          "internalType": "uint256",
          "name": "",
          "type": "uint256"
        }
      ],
      "stateMutability": "view",
      "type": "function"
    },
    {
      "inputs": [
        {
          "internalType": "address",
          "name": "owner",
          "type": "address"
        },
        {
          "internalType": "address",
          "name": "spender",
          "type": "address"
        },
        {
          "internalType": "uint256",
          "name": "value",
          "type": "uint256"
        },
        {
          "internalType": "uint256",
          "name": "deadline",
          "type": "uint256"
        },
        {
          "internalType": "uint8",
          "name": "v",
          "type": "uint8"
        },
        {
          "internalType": "bytes32",
          "name": "r",
          "type": "bytes32"
        },
        {
          "internalType": "bytes32",
          "name": "s",
          "type": "bytes32"
        }
      ],
      "name": "permit",
      "outputs": [],
      "stateMutability": "nonpayable",
      "type": "function"
    },
    {
      "inputs": [
        {
          "internalType": "address",
          "name": "",
          "type": "address"
        },
        {
          "internalType": "uint256",
          "name": "",
          "type": "uint256"
        }
      ],
      "name": "roleCache",
      "outputs": [
        {
          "internalType": "bool",
          "name": "",
          "type": "bool"
        }
      ],
      "stateMutability": "view",
      "type": "function"
    },
    {
      "inputs": [],
      "name": "roles",
      "outputs": [
        {
          "internalType": "contract Roles",
          "name": "",
          "type": "address"
        }
      ],
      "stateMutability": "view",
      "type": "function"
    },
    {
      "inputs": [],
      "name": "rolesPlayed",
      "outputs": [
        {
          "internalType": "uint256[]",
          "name": "",
          "type": "uint256[]"
        }
      ],
      "stateMutability": "view",
      "type": "function"
    },
    {
      "inputs": [
        {
          "internalType": "uint256",
          "name": "fee",
          "type": "uint256"
        }
      ],
      "name": "setFlashFeePer10k",
      "outputs": [],
      "stateMutability": "nonpayable",
      "type": "function"
    },
    {
      "inputs": [
        {
          "internalType": "bool",
          "name": "setting",
          "type": "bool"
        }
      ],
      "name": "setFlashLoansEnabled",
      "outputs": [],
      "stateMutability": "nonpayable",
      "type": "function"
    },
    {
      "inputs": [
        {
          "internalType": "uint256",
          "name": "debtCeiling",
          "type": "uint256"
        }
      ],
      "name": "setGlobalDebtCeiling",
      "outputs": [],
      "stateMutability": "nonpayable",
      "type": "function"
    },
    {
      "inputs": [
        {
          "internalType": "address",
          "name": "account",
          "type": "address"
        },
        {
          "internalType": "uint256",
          "name": "balance",
          "type": "uint256"
        }
      ],
      "name": "setMinBalance",
      "outputs": [],
      "stateMutability": "nonpayable",
      "type": "function"
    },
    {
      "inputs": [],
      "name": "symbol",
      "outputs": [
        {
          "internalType": "string",
          "name": "",
          "type": "string"
        }
      ],
      "stateMutability": "view",
      "type": "function"
    },
    {
      "inputs": [],
      "name": "totalSupply",
      "outputs": [
        {
          "internalType": "uint256",
          "name": "",
          "type": "uint256"
        }
      ],
      "stateMutability": "view",
      "type": "function"
    },
    {
      "inputs": [
        {
          "internalType": "address",
          "name": "recipient",
          "type": "address"
        },
        {
          "internalType": "uint256",
          "name": "amount",
          "type": "uint256"
        }
      ],
      "name": "transfer",
      "outputs": [
        {
          "internalType": "bool",
          "name": "",
          "type": "bool"
        }
      ],
      "stateMutability": "nonpayable",
      "type": "function"
    },
    {
      "inputs": [
        {
          "internalType": "address",
          "name": "sender",
          "type": "address"
        },
        {
          "internalType": "address",
          "name": "recipient",
          "type": "address"
        },
        {
          "internalType": "uint256",
          "name": "amount",
          "type": "uint256"
        }
      ],
      "name": "transferFrom",
      "outputs": [
        {
          "internalType": "bool",
          "name": "",
          "type": "bool"
        }
      ],
      "stateMutability": "nonpayable",
      "type": "function"
    },
    {
      "inputs": [
        {
          "internalType": "uint256",
          "name": "role",
          "type": "uint256"
        }
      ],
      "name": "updateMainCharacterCache",
      "outputs": [],
      "stateMutability": "nonpayable",
      "type": "function"
    },
    {
      "inputs": [
        {
          "internalType": "uint256",
          "name": "role",
          "type": "uint256"
        },
        {
          "internalType": "address",
          "name": "contr",
          "type": "address"
        }
      ],
      "name": "updateRoleCache",
      "outputs": [],
      "stateMutability": "nonpayable",
      "type": "function"
    },
    {
      "inputs": [],
      "name": "viewAllFeesEver",
      "outputs": [
        {
          "internalType": "uint256",
          "name": "",
          "type": "uint256"
        }
      ],
      "stateMutability": "view",
      "type": "function"
    }
  ],
  "transactionHash": "0xbbc848be11b64e594c35b37e8f8cd829c3d546f575cba9feeccd09aca1bc1ff2",
  "args": [
    "0x9e1EE00d45252aA58623F7d771FB414aA38f0878"
  ],
  "solcInputHash": "c08fcdf1bf8a33e9484a221e6792b02a",
  "bytecode": "0x6101806040527f6e71edae12b1b97f4d1f60370fef10105fa2faae0126114a169c64845d6126c9610160526a01a784379d99db42000000600d556005600e55600f805460ff191660011790553480156200005857600080fd5b5060405162002841380380620028418339810160408190526200007b9162000394565b604051806040016040528060058152602001644d4f4e455960d81b81525080604051806040016040528060018152602001603160f81b8152506040518060400160405280600d81526020016c135bdc995b5bdb995e481554d1609a1b815250604051806040016040528060058152602001644d4f4e455960d81b8152508560006001600160a01b0316816001600160a01b031614156200016c5760405162461bcd60e51b815260206004820152602260248201527f506c656173652070726f766964652076616c696420726f6c6573206164647265604482015261737360f01b606482015260840160405180910390fd5b60601b6001600160601b031916608052815162000191906009906020850190620002ee565b508051620001a790600a906020840190620002ee565b50506001600b8190556003805480830190915560027fc2575a0e9e593c00f959f8c92f12db2869c3395a3b0502d05e2516446f71f85b9091018190558054918201815560005260677f405787fa12a823e0f2b7631cc41b3ba8828b3321ca811111fa75cd3aa3bb5ace909101555081516020808401919091208251838301206101008290526101208190524660c0818152604080517f8b73c3c69bb8fe3d512ecc4cf759cc79239f7b179b0ffacaa9a75d522b39400f8188018190528183018790526060820186905260808201949094523060a080830191909152825180830390910181529201905280519401939093209192909160a0523060601b60e0526101405250506004805460018101825560009190915260667f8a35acfbc15ff81a39ae7d344fd709f28e8600b4aa8c65c6b64bfe7fe36bd19b90910155506200040192505050565b828054620002fc90620003c4565b90600052602060002090601f0160209004810192826200032057600085556200036b565b82601f106200033b57805160ff19168380011785556200036b565b828001600101855582156200036b579182015b828111156200036b5782518255916020019190600101906200034e565b50620003799291506200037d565b5090565b5b808211156200037957600081556001016200037e565b600060208284031215620003a6578081fd5b81516001600160a01b0381168114620003bd578182fd5b9392505050565b600181811c90821680620003d957607f821691505b60208210811415620003fb57634e487b7160e01b600052602260045260246000fd5b50919050565b60805160601c60a05160c05160e05160601c610100516101205161014051610160516123b8620004896000396000610f1101526000611494015260006114e3015260006114be015260006114150152600061143f0152600061146901526000818161029e015281816105c9015281816108a30152818161181001526118a301526123b86000f3fe608060405234801561001057600080fd5b50600436106101e35760003560e01c806306fdde03146101e8578063071060a614610206578063095ea7b31461021b5780630d7496281461023e57806318160ddd1461025557806323b872dd1461025d57806328b35de9146102705780632efcc86614610279578063313ce567146102825780633644e51514610291578063392f5f641461029957806339509351146102d857806340c10f19146102eb578063447d52ba146102fe5780634a7a7f41146103115780635cffe9de146103265780635f1ce6fa14610339578063613255ab1461034c5780636caa9c111461035f57806370a08231146103725780637a1a04df146103855780637b604b54146103b35780637dad209b146103c65780637ecebe00146103ce5780638d196e32146103e157806395d89b41146103f45780639dc29fac146103fc578063a457c2d71461040f578063a9059cbb14610422578063abcbc4fc14610435578063aeb38d8b14610448578063bf184ea41461045b578063d35f063e1461046e578063d505accf14610481578063d9d98ce414610494578063dc94cb7d146104a7578063dd62ed3e146104af578063df8279b0146104c2578063e8ea4fae146104e2578063e9c3f77d146104ea578063f67979e214610513575b600080fd5b6101f0610520565b6040516101fd919061215b565b60405180910390f35b610219610214366004612082565b6105b3565b005b61022e610229366004611f6e565b610679565b60405190151581526020016101fd565b61024760105481565b6040519081526020016101fd565b600854610247565b61022e61026b366004611eb9565b61068f565b610247600e5481565b610247600d5481565b604051601281526020016101fd565b61024761073e565b6102c07f000000000000000000000000000000000000000000000000000000000000000081565b6040516001600160a01b0390911681526020016101fd565b61022e6102e6366004611f6e565b61074d565b6102196102f9366004611f6e565b610789565b61021961030c36600461209a565b61087d565b610319610955565b6040516101fd9190612117565b61022e610334366004611fe9565b6109ac565b610219610347366004611f99565b610a7e565b61024761035a366004611e49565b610b41565b61024761036d366004612082565b610b6f565b610247610380366004611e49565b610b90565b61022e610393366004611f6e565b600160209081526000928352604080842090915290825290205460ff1681565b6102196103c1366004612082565b610bab565b610319610c3a565b6102476103dc366004611e49565b610c90565b6102196103ef366004612082565b610cae565b6101f0610d40565b61021961040a366004611f6e565b610d4f565b61022e61041d366004611f6e565b610da6565b61022e610430366004611f6e565b610e3f565b610247610443366004612082565b610e4c565b610247610456366004612082565b610e5c565b610247610469366004612082565b610e6c565b61021961047c366004611f6e565b610e7c565b61021961048f366004611ef9565b610ebd565b6102476104a2366004611f6e565b611021565b610319611045565b6102476104bd366004611e81565b61109b565b6102476104d0366004611e49565b60116020526000908152604090205481565b6103196110c6565b6102c06104f8366004612082565b6000602081905290815260409020546001600160a01b031681565b600f5461022e9060ff1681565b60606009805461052f906122d4565b80601f016020809104026020016040519081016040528092919081815260200182805461055b906122d4565b80156105a85780601f1061057d576101008083540402835291602001916105a8565b820191906000526020600020905b81548152906001019060200180831161058b57829003601f168201915b505050505090505b90565b60405163b4ed0b6d60e01b8152600481018290527f00000000000000000000000000000000000000000000000000000000000000006001600160a01b03169063b4ed0b6d9060240160206040518083038186803b15801561061357600080fd5b505afa158015610627573d6000803e3d6000fd5b505050506040513d601f19601f8201168201806040525081019061064b9190611e65565b60009182526020829052604090912080546001600160a01b0319166001600160a01b03909216919091179055565b600061068633848461111c565b50600192915050565b600061069c848484611240565b6001600160a01b0384166000908152600760209081526040808320338452909152902054828110156107265760405162461bcd60e51b815260206004820152602860248201527f45524332303a207472616e7366657220616d6f756e74206578636565647320616044820152676c6c6f77616e636560c01b60648201526084015b60405180910390fd5b610733853385840361111c565b506001949350505050565b6000610748611408565b905090565b3360008181526007602090815260408083206001600160a01b03871684529091528120549091610686918590610784908690612266565b61111c565b6002600b5414156107ac5760405162461bcd60e51b815260040161071d9061222f565b6002600b556107ba33611533565b6108065760405162461bcd60e51b815260206004820152601e60248201527f4e6f7420616e206175746f72697a6564206d696e7465722f6275726e65720000604482015260640161071d565b610810828261155d565b600854600d54116108745760405162461bcd60e51b815260206004820152602860248201527f546f74616c20737570706c79206578636565647320676c6f62616c2064656274604482015267206365696c696e6760c01b606482015260840161071d565b50506001600b55565b60405163f0723d9760e01b81526001600160a01b038281166004830152602482018490527f0000000000000000000000000000000000000000000000000000000000000000169063f0723d979060440160206040518083038186803b1580156108e557600080fd5b505afa1580156108f9573d6000803e3d6000fd5b505050506040513d601f19601f8201168201806040525081019061091d9190611fb5565b6001600160a01b0391909116600090815260016020908152604080832094835293905291909120805460ff1916911515919091179055565b606060038054806020026020016040519081016040528092919081815260200182805480156105a857602002820191906000526020600020905b81548152602001906001019080831161098f575050505050905090565b600f5460009060ff166109fc5760405162461bcd60e51b8152602060048201526018602482015277119b185cda081b1bd85b9cc8185c9948191a5cd8589b195960421b604482015260640161071d565b6000610a088686611021565b9050610a4e610a48606760009081526020527f682158d08466d11c566d5712d4396197fdd67e65be71d83c97ef719ec468867b546001600160a01b031690565b8261155d565b8060106000828254610a609190612266565b90915550610a7390508787878787611636565b979650505050505050565b33610a8761180c565b6001600160a01b03161480610aab575033610aa061189f565b6001600160a01b0316145b610ac75760405162461bcd60e51b815260040161071d906121ae565b600f805460ff191682151517905560408051818152601c918101919091527b199b185cda081b1bd85b9cc8195b98589b19590bd91a5cd8589b195960221b60608201523060208201527fbd64fae90eab1019a6c354538cfa598ad3d642c5b1bc8a8613bcb716723fa2d7906080015b60405180910390a150565b60006001600160a01b0382163014610b5a576000610b69565b600854610b69906000196122bd565b92915050565b60058181548110610b7f57600080fd5b600091825260209091200154905081565b6001600160a01b031660009081526006602052604090205490565b33610bb461180c565b6001600160a01b03161480610bd8575033610bcd61189f565b6001600160a01b0316145b610bf45760405162461bcd60e51b815260040161071d906121ae565b600e8190556040805181815260099181019190915268666c6173682066656560b81b60608201526020810182905260008051602061234383398151915290608001610b36565b606060048054806020026020016040519081016040528092919081815260200182805480156105a8576020028201919060005260206000209081548152602001906001019080831161098f575050505050905090565b6001600160a01b0381166000908152600c6020526040812054610b69565b33610cb761180c565b6001600160a01b03161480610cdb575033610cd061189f565b6001600160a01b0316145b610cf75760405162461bcd60e51b815260040161071d906121ae565b600d81905560408051818152600c918101919091526b64656274206365696c696e6760a01b60608201526020810182905260008051602061234383398151915290608001610b36565b6060600a805461052f906122d4565b6002600b541415610d725760405162461bcd60e51b815260040161071d9061222f565b6002600b55610d8033611533565b610d9c5760405162461bcd60e51b815260040161071d906121f8565b6108748282611910565b3360009081526007602090815260408083206001600160a01b038616845290915281205482811015610e285760405162461bcd60e51b815260206004820152602560248201527f45524332303a2064656372656173656420616c6c6f77616e63652062656c6f77604482015264207a65726f60d81b606482015260840161071d565b610e35338585840361111c565b5060019392505050565b6000610686338484611240565b60028181548110610b7f57600080fd5b60048181548110610b7f57600080fd5b60038181548110610b7f57600080fd5b610e8533611533565b610ea15760405162461bcd60e51b815260040161071d906121f8565b6001600160a01b03909116600090815260116020526040902055565b83421115610f0d5760405162461bcd60e51b815260206004820152601d60248201527f45524332305065726d69743a206578706972656420646561646c696e65000000604482015260640161071d565b60007f0000000000000000000000000000000000000000000000000000000000000000888888610f3c8c611a58565b6040805160208101969096526001600160a01b0394851690860152929091166060840152608083015260a082015260c0810186905260e0016040516020818303038152906040528051906020012090506000610f9782611a80565b90506000610fa782878787611ace565b9050896001600160a01b0316816001600160a01b03161461100a5760405162461bcd60e51b815260206004820152601e60248201527f45524332305065726d69743a20696e76616c6964207369676e61747572650000604482015260640161071d565b6110158a8a8a61111c565b50505050505050505050565b6000612710600e5483611034919061229e565b61103e919061227e565b9392505050565b606060028054806020026020016040519081016040528092919081815260200182805480156105a8576020028201919060005260206000209081548152602001906001019080831161098f575050505050905090565b6001600160a01b03918216600090815260076020908152604080832093909416825291909152205490565b606060058054806020026020016040519081016040528092919081815260200182805480156105a8576020028201919060005260206000209081548152602001906001019080831161098f575050505050905090565b6001600160a01b03831661117e5760405162461bcd60e51b8152602060048201526024808201527f45524332303a20617070726f76652066726f6d20746865207a65726f206164646044820152637265737360e01b606482015260840161071d565b6001600160a01b0382166111df5760405162461bcd60e51b815260206004820152602260248201527f45524332303a20617070726f766520746f20746865207a65726f206164647265604482015261737360f01b606482015260840161071d565b6001600160a01b0383811660008181526007602090815260408083209487168084529482529182902085905590518481527f8c5be1e5ebec7d5bd14f71427d1e84f3dd0314c0f7b2291e5b200ac8c7c3b925910160405180910390a3505050565b6001600160a01b0383166112a45760405162461bcd60e51b815260206004820152602560248201527f45524332303a207472616e736665722066726f6d20746865207a65726f206164604482015264647265737360d81b606482015260840161071d565b6001600160a01b0382166113065760405162461bcd60e51b815260206004820152602360248201527f45524332303a207472616e7366657220746f20746865207a65726f206164647260448201526265737360e81b606482015260840161071d565b6001600160a01b0383166000908152600660205260409020548181101561137e5760405162461bcd60e51b815260206004820152602660248201527f45524332303a207472616e7366657220616d6f756e7420657863656564732062604482015265616c616e636560d01b606482015260840161071d565b6001600160a01b038085166000908152600660205260408082208585039055918516815290812080548492906113b5908490612266565b92505081905550826001600160a01b0316846001600160a01b0316600080516020612363833981519152846040516113ef91815260200190565b60405180910390a3611402848484611af6565b50505050565b6000306001600160a01b037f00000000000000000000000000000000000000000000000000000000000000001614801561146157507f000000000000000000000000000000000000000000000000000000000000000046145b1561148d57507f00000000000000000000000000000000000000000000000000000000000000006105b0565b50604080517f00000000000000000000000000000000000000000000000000000000000000006020808301919091527f0000000000000000000000000000000000000000000000000000000000000000828401527f000000000000000000000000000000000000000000000000000000000000000060608301524660808301523060a0808401919091528351808403909101815260c090920190925280519101206105b0565b6001600160a01b031660009081526001602090815260408083206002845290915290205460ff1690565b6001600160a01b0382166115b35760405162461bcd60e51b815260206004820152601f60248201527f45524332303a206d696e7420746f20746865207a65726f206164647265737300604482015260640161071d565b80600860008282546115c59190612266565b90915550506001600160a01b038216600090815260066020526040812080548392906115f2908490612266565b90915550506040518181526001600160a01b038316906000906000805160206123638339815191529060200160405180910390a361163260008383611af6565b5050565b6000806116438686611021565b905061164f878661155d565b6040516323e30c8b60e01b81527f439148f0bbc682ca079e46d6e2c2f0c1e3b820f1a291b069d8882abf8cf18dd9906001600160a01b038916906323e30c8b906116a79033908b908b9088908c908c906004016120be565b602060405180830381600087803b1580156116c157600080fd5b505af11580156116d5573d6000803e3d6000fd5b505050506040513d601f19601f820116820180604052508101906116f99190611fd1565b146117525760405162461bcd60e51b8152602060048201526024808201527f4552433230466c6173684d696e743a20696e76616c69642072657475726e2076604482015263616c756560e01b606482015260840161071d565b600061175e883061109b565b905061176a8287612266565b8110156117d15760405162461bcd60e51b815260206004820152602f60248201527f4552433230466c6173684d696e743a20616c6c6f77616e636520646f6573206e60448201526e1bdd08185b1b1bddc81c99599d5b99608a1b606482015260840161071d565b6117eb8830846117e18a866122bd565b61078491906122bd565b6117fe886117f98489612266565b611910565b506001979650505050505050565b60007f00000000000000000000000000000000000000000000000000000000000000006001600160a01b0316638da5cb5b6040518163ffffffff1660e01b815260040160206040518083038186803b15801561186757600080fd5b505afa15801561187b573d6000803e3d6000fd5b505050506040513d601f19601f820116820180604052508101906107489190611e65565b60007f00000000000000000000000000000000000000000000000000000000000000006001600160a01b031663c34c08e56040518163ffffffff1660e01b8152600401602060405180830381600087803b1580156118fc57600080fd5b505af115801561187b573d6000803e3d6000fd5b6001600160a01b0382166119705760405162461bcd60e51b815260206004820152602160248201527f45524332303a206275726e2066726f6d20746865207a65726f206164647265736044820152607360f81b606482015260840161071d565b6001600160a01b038216600090815260066020526040902054818110156119e45760405162461bcd60e51b815260206004820152602260248201527f45524332303a206275726e20616d6f756e7420657863656564732062616c616e604482015261636560f01b606482015260840161071d565b6001600160a01b0383166000908152600660205260408120838303905560088054849290611a139084906122bd565b90915550506040518281526000906001600160a01b038516906000805160206123638339815191529060200160405180910390a3611a5383600084611af6565b505050565b6001600160a01b0381166000908152600c602052604090208054600181018255905b50919050565b6000610b69611a8d611408565b8360405161190160f01b6020820152602281018390526042810182905260009060620160405160208183030381529060405280519060200120905092915050565b6000806000611adf87878787611b65565b91509150611aec81611c48565b5095945050505050565b6001600160a01b038316600090815260116020526040902054611b1884610b90565b1015611a535760405162461bcd60e51b815260206004820152601c60248201527b4d6f72656d6f6e65793a2062656c6f77206d696e2062616c616e636560201b604482015260640161071d565b6000806fa2a8918ca85bafe22016d0b997e4df60600160ff1b03831115611b925750600090506003611c3f565b8460ff16601b14158015611baa57508460ff16601c14155b15611bbb5750600090506004611c3f565b6040805160008082526020820180845289905260ff881692820192909252606081018690526080810185905260019060a0016020604051602081039080840390855afa158015611c0f573d6000803e3d6000fd5b5050604051601f1901519150506001600160a01b038116611c3857600060019250925050611c3f565b9150600090505b94509492505050565b6000816004811115611c6a57634e487b7160e01b600052602160045260246000fd5b1415611c7557611e46565b6001816004811115611c9757634e487b7160e01b600052602160045260246000fd5b1415611ce05760405162461bcd60e51b815260206004820152601860248201527745434453413a20696e76616c6964207369676e617475726560401b604482015260640161071d565b6002816004811115611d0257634e487b7160e01b600052602160045260246000fd5b1415611d505760405162461bcd60e51b815260206004820152601f60248201527f45434453413a20696e76616c6964207369676e6174757265206c656e67746800604482015260640161071d565b6003816004811115611d7257634e487b7160e01b600052602160045260246000fd5b1415611dcb5760405162461bcd60e51b815260206004820152602260248201527f45434453413a20696e76616c6964207369676e6174757265202773272076616c604482015261756560f01b606482015260840161071d565b6004816004811115611ded57634e487b7160e01b600052602160045260246000fd5b1415611e465760405162461bcd60e51b815260206004820152602260248201527f45434453413a20696e76616c6964207369676e6174757265202776272076616c604482015261756560f01b606482015260840161071d565b50565b600060208284031215611e5a578081fd5b813561103e8161231f565b600060208284031215611e76578081fd5b815161103e8161231f565b60008060408385031215611e93578081fd5b8235611e9e8161231f565b91506020830135611eae8161231f565b809150509250929050565b600080600060608486031215611ecd578081fd5b8335611ed88161231f565b92506020840135611ee88161231f565b929592945050506040919091013590565b600080600080600080600060e0888a031215611f13578283fd5b8735611f1e8161231f565b96506020880135611f2e8161231f565b95506040880135945060608801359350608088013560ff81168114611f51578384fd5b9699959850939692959460a0840135945060c09093013592915050565b60008060408385031215611f80578182fd5b8235611f8b8161231f565b946020939093013593505050565b600060208284031215611faa578081fd5b813561103e81612334565b600060208284031215611fc6578081fd5b815161103e81612334565b600060208284031215611fe2578081fd5b5051919050565b600080600080600060808688031215612000578081fd5b853561200b8161231f565b9450602086013561201b8161231f565b93506040860135925060608601356001600160401b038082111561203d578283fd5b818801915088601f830112612050578283fd5b81358181111561205e578384fd5b89602082850101111561206f578384fd5b9699959850939650602001949392505050565b600060208284031215612093578081fd5b5035919050565b600080604083850312156120ac578182fd5b823591506020830135611eae8161231f565b6001600160a01b03878116825286166020820152604081018590526060810184905260a06080820181905281018290526000828460c084013781830160c090810191909152601f909201601f1916010195945050505050565b6020808252825182820181905260009190848201906040850190845b8181101561214f57835183529284019291840191600101612133565b50909695505050505050565b6000602080835283518082850152825b818110156121875785810183015185820160400152820161216b565b818111156121985783604083870101525b50601f01601f1916929092016040019392505050565b6020808252602a908201527f526f6c65733a2063616c6c6572206973206e6f7420746865206f776e6572206f604082015269391032bc32b1baba37b960b11b606082015260800190565b6020808252601f908201527f4e6f7420616e20617574686f72697a6564206d696e7465722f6275726e657200604082015260600190565b6020808252601f908201527f5265656e7472616e637947756172643a207265656e7472616e742063616c6c00604082015260600190565b6000821982111561227957612279612309565b500190565b60008261229957634e487b7160e01b81526012600452602481fd5b500490565b60008160001904831182151516156122b8576122b8612309565b500290565b6000828210156122cf576122cf612309565b500390565b600181811c908216806122e857607f821691505b60208210811415611a7a57634e487b7160e01b600052602260045260246000fd5b634e487b7160e01b600052601160045260246000fd5b6001600160a01b0381168114611e4657600080fd5b8015158114611e4657600080fdfe3a64504f0bc0c335e2aecb78638a257e0351a3fe0370861fd54ee4190b920933ddf252ad1be2c89b69c2b068fc378daa952ba7f163c4a11628f55a4df523b3efa2646970667358221220840119ab8b41d85873bdf62ab929967d77090b664ccba762157becf922fc710164736f6c63430008030033",
  "devdoc": {
    "kind": "dev",
    "methods": {
      "DOMAIN_SEPARATOR()": {
        "details": "See {IERC20Permit-DOMAIN_SEPARATOR}."
      },
      "allowance(address,address)": {
        "details": "See {IERC20-allowance}."
      },
      "approve(address,uint256)": {
        "details": "See {IERC20-approve}. Requirements: - `spender` cannot be the zero address."
      },
      "balanceOf(address)": {
        "details": "See {IERC20-balanceOf}."
      },
      "charactersPlayed()": {
        "details": "returns all characters played by this contract (e.g. stable coin, oracle registry)"
      },
      "decimals()": {
        "details": "Returns the number of decimals used to get its user representation. For example, if `decimals` equals `2`, a balance of `505` tokens should be displayed to a user as `5.05` (`505 / 10 ** 2`). Tokens usually opt for a value of 18, imitating the relationship between Ether and Wei. This is the value {ERC20} uses, unless this function is overridden; NOTE: This information is only used for _display_ purposes: it in no way affects any of the arithmetic of the contract, including {IERC20-balanceOf} and {IERC20-transfer}."
      },
      "decreaseAllowance(address,uint256)": {
        "details": "Atomically decreases the allowance granted to `spender` by the caller. This is an alternative to {approve} that can be used as a mitigation for problems described in {IERC20-approve}. Emits an {Approval} event indicating the updated allowance. Requirements: - `spender` cannot be the zero address. - `spender` must have allowance for the caller of at least `subtractedValue`."
      },
      "dependsOnCharacters()": {
        "details": "returns all the character dependencies like FEE_RECIPIENT"
      },
      "dependsOnRoles()": {
        "details": "returns all the roles dependencies of this contract like FUND_TRANSFERER"
      },
      "increaseAllowance(address,uint256)": {
        "details": "Atomically increases the allowance granted to `spender` by the caller. This is an alternative to {approve} that can be used as a mitigation for problems described in {IERC20-approve}. Emits an {Approval} event indicating the updated allowance. Requirements: - `spender` cannot be the zero address."
      },
      "maxFlashLoan(address)": {
        "details": "Returns the maximum amount of tokens available for loan.",
        "params": {
          "token": "The address of the token that is requested."
        },
        "returns": {
          "_0": "The amont of token that can be loaned."
        }
      },
      "name()": {
        "details": "Returns the name of the token."
      },
      "nonces(address)": {
        "details": "See {IERC20Permit-nonces}."
      },
      "permit(address,address,uint256,uint256,uint8,bytes32,bytes32)": {
        "details": "See {IERC20Permit-permit}."
      },
      "rolesPlayed()": {
        "details": "returns all roles played by this contract"
      },
      "symbol()": {
        "details": "Returns the symbol of the token, usually a shorter version of the name."
      },
      "totalSupply()": {
        "details": "See {IERC20-totalSupply}."
      },
      "transfer(address,uint256)": {
        "details": "See {IERC20-transfer}. Requirements: - `recipient` cannot be the zero address. - the caller must have a balance of at least `amount`."
      },
      "transferFrom(address,address,uint256)": {
        "details": "See {IERC20-transferFrom}. Emits an {Approval} event indicating the updated allowance. This is not required by the EIP. See the note at the beginning of {ERC20}. Requirements: - `sender` and `recipient` cannot be the zero address. - `sender` must have a balance of at least `amount`. - the caller must have allowance for ``sender``'s tokens of at least `amount`."
      },
      "updateMainCharacterCache(uint256)": {
        "details": "Updates the main character cache for a speciic character"
      },
      "updateRoleCache(uint256,address)": {
        "details": "Updates the role cache for a specific role and address"
      }
    },
    "version": 1
  },
  "userdoc": {
    "kind": "user",
    "methods": {
      "burn(address,uint256)": {
        "notice": "Burn stable, restricted to MinterBurner role"
      },
      "flashFee(address,uint256)": {
        "notice": "Calculate the fee taken on a flash loan"
      },
      "flashLoan(address,address,uint256,bytes)": {
        "notice": "Take out a flash loan, sending fee to feeRecipient"
      },
      "mint(address,uint256)": {
        "notice": "Mint stable, restricted to MinterBurner role (respecting global debt ceiling)"
      },
      "setFlashFeePer10k(uint256)": {
        "notice": "Set flash fee"
      },
      "setFlashLoansEnabled(bool)": {
        "notice": "Enable or disable flash loans"
      },
      "setGlobalDebtCeiling(uint256)": {
        "notice": "Set global debt ceiling"
      },
      "setMinBalance(address,uint256)": {
        "notice": "For some applications we may want to mint balances that can't be withdrawn or burnt. Contracts using this should first check balance before setting in a transaction"
      }
    },
    "version": 1
  },
  "storageLayout": {
    "storage": [
      {
        "astId": 19540,
        "contract": "contracts/Stablecoin.sol:Stablecoin",
        "label": "mainCharacterCache",
        "offset": 0,
        "slot": "0",
        "type": "t_mapping(t_uint256,t_address)"
      },
      {
        "astId": 19546,
        "contract": "contracts/Stablecoin.sol:Stablecoin",
        "label": "roleCache",
        "offset": 0,
        "slot": "1",
        "type": "t_mapping(t_address,t_mapping(t_uint256,t_bool))"
      },
      {
        "astId": 19549,
        "contract": "contracts/Stablecoin.sol:Stablecoin",
        "label": "_dependsOnCharacters",
        "offset": 0,
        "slot": "2",
        "type": "t_array(t_uint256)dyn_storage"
      },
      {
        "astId": 19552,
        "contract": "contracts/Stablecoin.sol:Stablecoin",
        "label": "_dependsOnRoles",
        "offset": 0,
        "slot": "3",
        "type": "t_array(t_uint256)dyn_storage"
      },
      {
        "astId": 19555,
        "contract": "contracts/Stablecoin.sol:Stablecoin",
        "label": "_charactersPlayed",
        "offset": 0,
        "slot": "4",
        "type": "t_array(t_uint256)dyn_storage"
      },
      {
        "astId": 19558,
        "contract": "contracts/Stablecoin.sol:Stablecoin",
        "label": "_rolesPlayed",
        "offset": 0,
        "slot": "5",
        "type": "t_array(t_uint256)dyn_storage"
      },
      {
        "astId": 268,
        "contract": "contracts/Stablecoin.sol:Stablecoin",
        "label": "_balances",
        "offset": 0,
        "slot": "6",
        "type": "t_mapping(t_address,t_uint256)"
      },
      {
        "astId": 274,
        "contract": "contracts/Stablecoin.sol:Stablecoin",
        "label": "_allowances",
        "offset": 0,
        "slot": "7",
        "type": "t_mapping(t_address,t_mapping(t_address,t_uint256))"
      },
      {
        "astId": 276,
        "contract": "contracts/Stablecoin.sol:Stablecoin",
        "label": "_totalSupply",
        "offset": 0,
        "slot": "8",
        "type": "t_uint256"
      },
      {
        "astId": 278,
        "contract": "contracts/Stablecoin.sol:Stablecoin",
        "label": "_name",
        "offset": 0,
        "slot": "9",
        "type": "t_string_storage"
      },
      {
        "astId": 280,
        "contract": "contracts/Stablecoin.sol:Stablecoin",
        "label": "_symbol",
        "offset": 0,
        "slot": "10",
        "type": "t_string_storage"
      },
      {
        "astId": 223,
        "contract": "contracts/Stablecoin.sol:Stablecoin",
        "label": "_status",
        "offset": 0,
        "slot": "11",
        "type": "t_uint256"
      },
      {
        "astId": 1090,
        "contract": "contracts/Stablecoin.sol:Stablecoin",
        "label": "_nonces",
        "offset": 0,
        "slot": "12",
        "type": "t_mapping(t_address,t_struct(Counter)3209_storage)"
      },
      {
        "astId": 8281,
        "contract": "contracts/Stablecoin.sol:Stablecoin",
        "label": "globalDebtCeiling",
        "offset": 0,
        "slot": "13",
        "type": "t_uint256"
      },
      {
        "astId": 8289,
        "contract": "contracts/Stablecoin.sol:Stablecoin",
        "label": "flashFeePer10k",
        "offset": 0,
        "slot": "14",
        "type": "t_uint256"
      },
      {
        "astId": 8292,
        "contract": "contracts/Stablecoin.sol:Stablecoin",
        "label": "flashLoansEnabled",
        "offset": 0,
        "slot": "15",
        "type": "t_bool"
      },
      {
        "astId": 8295,
        "contract": "contracts/Stablecoin.sol:Stablecoin",
        "label": "viewAllFeesEver",
        "offset": 0,
        "slot": "16",
        "type": "t_uint256"
      },
      {
        "astId": 8299,
        "contract": "contracts/Stablecoin.sol:Stablecoin",
        "label": "minBalance",
        "offset": 0,
        "slot": "17",
        "type": "t_mapping(t_address,t_uint256)"
      }
    ],
    "types": {
      "t_address": {
        "encoding": "inplace",
        "label": "address",
        "numberOfBytes": "20"
      },
      "t_array(t_uint256)dyn_storage": {
        "base": "t_uint256",
        "encoding": "dynamic_array",
        "label": "uint256[]",
        "numberOfBytes": "32"
      },
      "t_bool": {
        "encoding": "inplace",
        "label": "bool",
        "numberOfBytes": "1"
      },
      "t_mapping(t_address,t_mapping(t_address,t_uint256))": {
        "encoding": "mapping",
        "key": "t_address",
        "label": "mapping(address => mapping(address => uint256))",
        "numberOfBytes": "32",
        "value": "t_mapping(t_address,t_uint256)"
      },
      "t_mapping(t_address,t_mapping(t_uint256,t_bool))": {
        "encoding": "mapping",
        "key": "t_address",
        "label": "mapping(address => mapping(uint256 => bool))",
        "numberOfBytes": "32",
        "value": "t_mapping(t_uint256,t_bool)"
      },
      "t_mapping(t_address,t_struct(Counter)3209_storage)": {
        "encoding": "mapping",
        "key": "t_address",
        "label": "mapping(address => struct Counters.Counter)",
        "numberOfBytes": "32",
        "value": "t_struct(Counter)3209_storage"
      },
      "t_mapping(t_address,t_uint256)": {
        "encoding": "mapping",
        "key": "t_address",
        "label": "mapping(address => uint256)",
        "numberOfBytes": "32",
        "value": "t_uint256"
      },
      "t_mapping(t_uint256,t_address)": {
        "encoding": "mapping",
        "key": "t_uint256",
        "label": "mapping(uint256 => address)",
        "numberOfBytes": "32",
        "value": "t_address"
      },
      "t_mapping(t_uint256,t_bool)": {
        "encoding": "mapping",
        "key": "t_uint256",
        "label": "mapping(uint256 => bool)",
        "numberOfBytes": "32",
        "value": "t_bool"
      },
      "t_string_storage": {
        "encoding": "bytes",
        "label": "string",
        "numberOfBytes": "32"
      },
      "t_struct(Counter)3209_storage": {
        "encoding": "inplace",
        "label": "struct Counters.Counter",
        "members": [
          {
            "astId": 3208,
            "contract": "contracts/Stablecoin.sol:Stablecoin",
            "label": "_value",
            "offset": 0,
            "slot": "0",
            "type": "t_uint256"
          }
        ],
        "numberOfBytes": "32"
      },
      "t_uint256": {
        "encoding": "inplace",
        "label": "uint256",
        "numberOfBytes": "32"
      }
    }
  }
}