{
  "address": "0xb6872Bd8651AFD7Be5CCfb4Fa5Ab5d1C8Ceab756",
  "abi": [
    {
      "inputs": [
        {
          "internalType": "address",
          "name": "_roles",
          "type": "address"
        }
      ],
      "stateMutability": "nonpayable",
      "type": "constructor"
    },
    {
      "anonymous": false,
      "inputs": [
        {
          "indexed": true,
          "internalType": "address",
          "name": "owner",
          "type": "address"
        },
        {
          "indexed": true,
          "internalType": "address",
          "name": "spender",
          "type": "address"
        },
        {
          "indexed": false,
          "internalType": "uint256",
          "name": "value",
          "type": "uint256"
        }
      ],
      "name": "Approval",
      "type": "event"
    },
    {
      "anonymous": false,
      "inputs": [
        {
          "indexed": true,
          "internalType": "address",
          "name": "from",
          "type": "address"
        },
        {
          "indexed": true,
          "internalType": "address",
          "name": "to",
          "type": "address"
        },
        {
          "indexed": false,
          "internalType": "uint256",
          "name": "value",
          "type": "uint256"
        }
      ],
      "name": "Transfer",
      "type": "event"
    },
    {
      "inputs": [],
      "name": "DOMAIN_SEPARATOR",
      "outputs": [
        {
          "internalType": "bytes32",
          "name": "",
          "type": "bytes32"
        }
      ],
      "stateMutability": "view",
      "type": "function"
    },
    {
      "inputs": [
        {
          "internalType": "uint256",
          "name": "",
          "type": "uint256"
        }
      ],
      "name": "_charactersPlayed",
      "outputs": [
        {
          "internalType": "uint256",
          "name": "",
          "type": "uint256"
        }
      ],
      "stateMutability": "view",
      "type": "function"
    },
    {
      "inputs": [
        {
          "internalType": "uint256",
          "name": "",
          "type": "uint256"
        }
      ],
      "name": "_dependsOnCharacters",
      "outputs": [
        {
          "internalType": "uint256",
          "name": "",
          "type": "uint256"
        }
      ],
      "stateMutability": "view",
      "type": "function"
    },
    {
      "inputs": [
        {
          "internalType": "uint256",
          "name": "",
          "type": "uint256"
        }
      ],
      "name": "_dependsOnRoles",
      "outputs": [
        {
          "internalType": "uint256",
          "name": "",
          "type": "uint256"
        }
      ],
      "stateMutability": "view",
      "type": "function"
    },
    {
      "inputs": [
        {
          "internalType": "uint256",
          "name": "",
          "type": "uint256"
        }
      ],
      "name": "_rolesPlayed",
      "outputs": [
        {
          "internalType": "uint256",
          "name": "",
          "type": "uint256"
        }
      ],
      "stateMutability": "view",
      "type": "function"
    },
    {
      "inputs": [
        {
          "internalType": "address",
          "name": "owner",
          "type": "address"
        },
        {
          "internalType": "address",
          "name": "spender",
          "type": "address"
        }
      ],
      "name": "allowance",
      "outputs": [
        {
          "internalType": "uint256",
          "name": "",
          "type": "uint256"
        }
      ],
      "stateMutability": "view",
      "type": "function"
    },
    {
      "inputs": [
        {
          "internalType": "address",
          "name": "spender",
          "type": "address"
        },
        {
          "internalType": "uint256",
          "name": "amount",
          "type": "uint256"
        }
      ],
      "name": "approve",
      "outputs": [
        {
          "internalType": "bool",
          "name": "",
          "type": "bool"
        }
      ],
      "stateMutability": "nonpayable",
      "type": "function"
    },
    {
      "inputs": [
        {
          "internalType": "address",
          "name": "account",
          "type": "address"
        }
      ],
      "name": "balanceOf",
      "outputs": [
        {
          "internalType": "uint256",
          "name": "",
          "type": "uint256"
        }
      ],
      "stateMutability": "view",
      "type": "function"
    },
    {
      "inputs": [
        {
          "internalType": "address",
          "name": "account",
          "type": "address"
        },
        {
          "internalType": "uint256",
          "name": "amount",
          "type": "uint256"
        }
      ],
      "name": "burn",
      "outputs": [],
      "stateMutability": "nonpayable",
      "type": "function"
    },
    {
      "inputs": [],
      "name": "charactersPlayed",
      "outputs": [
        {
          "internalType": "uint256[]",
          "name": "",
          "type": "uint256[]"
        }
      ],
      "stateMutability": "view",
      "type": "function"
    },
    {
      "inputs": [],
      "name": "decimals",
      "outputs": [
        {
          "internalType": "uint8",
          "name": "",
          "type": "uint8"
        }
      ],
      "stateMutability": "view",
      "type": "function"
    },
    {
      "inputs": [
        {
          "internalType": "address",
          "name": "spender",
          "type": "address"
        },
        {
          "internalType": "uint256",
          "name": "subtractedValue",
          "type": "uint256"
        }
      ],
      "name": "decreaseAllowance",
      "outputs": [
        {
          "internalType": "bool",
          "name": "",
          "type": "bool"
        }
      ],
      "stateMutability": "nonpayable",
      "type": "function"
    },
    {
      "inputs": [],
      "name": "dependsOnCharacters",
      "outputs": [
        {
          "internalType": "uint256[]",
          "name": "",
          "type": "uint256[]"
        }
      ],
      "stateMutability": "view",
      "type": "function"
    },
    {
      "inputs": [],
      "name": "dependsOnRoles",
      "outputs": [
        {
          "internalType": "uint256[]",
          "name": "",
          "type": "uint256[]"
        }
      ],
      "stateMutability": "view",
      "type": "function"
    },
    {
      "inputs": [
        {
          "internalType": "address",
          "name": "",
          "type": "address"
        },
        {
          "internalType": "uint256",
          "name": "amount",
          "type": "uint256"
        }
      ],
      "name": "flashFee",
      "outputs": [
        {
          "internalType": "uint256",
          "name": "",
          "type": "uint256"
        }
      ],
      "stateMutability": "view",
      "type": "function"
    },
    {
      "inputs": [],
      "name": "flashFeePer10k",
      "outputs": [
        {
          "internalType": "uint256",
          "name": "",
          "type": "uint256"
        }
      ],
      "stateMutability": "view",
      "type": "function"
    },
    {
      "inputs": [
        {
          "internalType": "contract IERC3156FlashBorrower",
          "name": "receiver",
          "type": "address"
        },
        {
          "internalType": "address",
          "name": "token",
          "type": "address"
        },
        {
          "internalType": "uint256",
          "name": "amount",
          "type": "uint256"
        },
        {
          "internalType": "bytes",
          "name": "data",
          "type": "bytes"
        }
      ],
      "name": "flashLoan",
      "outputs": [
        {
          "internalType": "bool",
          "name": "",
          "type": "bool"
        }
      ],
      "stateMutability": "nonpayable",
      "type": "function"
    },
    {
      "inputs": [],
      "name": "flashLoansEnabled",
      "outputs": [
        {
          "internalType": "bool",
          "name": "",
          "type": "bool"
        }
      ],
      "stateMutability": "view",
      "type": "function"
    },
    {
      "inputs": [],
      "name": "globalDebtCeiling",
      "outputs": [
        {
          "internalType": "uint256",
          "name": "",
          "type": "uint256"
        }
      ],
      "stateMutability": "view",
      "type": "function"
    },
    {
      "inputs": [
        {
          "internalType": "address",
          "name": "spender",
          "type": "address"
        },
        {
          "internalType": "uint256",
          "name": "addedValue",
          "type": "uint256"
        }
      ],
      "name": "increaseAllowance",
      "outputs": [
        {
          "internalType": "bool",
          "name": "",
          "type": "bool"
        }
      ],
      "stateMutability": "nonpayable",
      "type": "function"
    },
    {
      "inputs": [
        {
          "internalType": "uint256",
          "name": "",
          "type": "uint256"
        }
      ],
      "name": "mainCharacterCache",
      "outputs": [
        {
          "internalType": "address",
          "name": "",
          "type": "address"
        }
      ],
      "stateMutability": "view",
      "type": "function"
    },
    {
      "inputs": [
        {
          "internalType": "address",
          "name": "token",
          "type": "address"
        }
      ],
      "name": "maxFlashLoan",
      "outputs": [
        {
          "internalType": "uint256",
          "name": "",
          "type": "uint256"
        }
      ],
      "stateMutability": "view",
      "type": "function"
    },
    {
      "inputs": [
        {
          "internalType": "address",
          "name": "",
          "type": "address"
        }
      ],
      "name": "minBalance",
      "outputs": [
        {
          "internalType": "uint256",
          "name": "",
          "type": "uint256"
        }
      ],
      "stateMutability": "view",
      "type": "function"
    },
    {
      "inputs": [
        {
          "internalType": "address",
          "name": "account",
          "type": "address"
        },
        {
          "internalType": "uint256",
          "name": "amount",
          "type": "uint256"
        }
      ],
      "name": "mint",
      "outputs": [],
      "stateMutability": "nonpayable",
      "type": "function"
    },
    {
      "inputs": [],
      "name": "name",
      "outputs": [
        {
          "internalType": "string",
          "name": "",
          "type": "string"
        }
      ],
      "stateMutability": "view",
      "type": "function"
    },
    {
      "inputs": [
        {
          "internalType": "address",
          "name": "owner",
          "type": "address"
        }
      ],
      "name": "nonces",
      "outputs": [
        {
          "internalType": "uint256",
          "name": "",
          "type": "uint256"
        }
      ],
      "stateMutability": "view",
      "type": "function"
    },
    {
      "inputs": [
        {
          "internalType": "address",
          "name": "owner",
          "type": "address"
        },
        {
          "internalType": "address",
          "name": "spender",
          "type": "address"
        },
        {
          "internalType": "uint256",
          "name": "value",
          "type": "uint256"
        },
        {
          "internalType": "uint256",
          "name": "deadline",
          "type": "uint256"
        },
        {
          "internalType": "uint8",
          "name": "v",
          "type": "uint8"
        },
        {
          "internalType": "bytes32",
          "name": "r",
          "type": "bytes32"
        },
        {
          "internalType": "bytes32",
          "name": "s",
          "type": "bytes32"
        }
      ],
      "name": "permit",
      "outputs": [],
      "stateMutability": "nonpayable",
      "type": "function"
    },
    {
      "inputs": [
        {
          "internalType": "address",
          "name": "",
          "type": "address"
        },
        {
          "internalType": "uint256",
          "name": "",
          "type": "uint256"
        }
      ],
      "name": "roleCache",
      "outputs": [
        {
          "internalType": "bool",
          "name": "",
          "type": "bool"
        }
      ],
      "stateMutability": "view",
      "type": "function"
    },
    {
      "inputs": [],
      "name": "roles",
      "outputs": [
        {
          "internalType": "contract Roles",
          "name": "",
          "type": "address"
        }
      ],
      "stateMutability": "view",
      "type": "function"
    },
    {
      "inputs": [],
      "name": "rolesPlayed",
      "outputs": [
        {
          "internalType": "uint256[]",
          "name": "",
          "type": "uint256[]"
        }
      ],
      "stateMutability": "view",
      "type": "function"
    },
    {
      "inputs": [
        {
          "internalType": "uint256",
          "name": "fee",
          "type": "uint256"
        }
      ],
      "name": "setFlashFeePer10k",
      "outputs": [],
      "stateMutability": "nonpayable",
      "type": "function"
    },
    {
      "inputs": [
        {
          "internalType": "bool",
          "name": "setting",
          "type": "bool"
        }
      ],
      "name": "setFlashLoansEnabled",
      "outputs": [],
      "stateMutability": "nonpayable",
      "type": "function"
    },
    {
      "inputs": [
        {
          "internalType": "uint256",
          "name": "debtCeiling",
          "type": "uint256"
        }
      ],
      "name": "setGlobalDebtCeiling",
      "outputs": [],
      "stateMutability": "nonpayable",
      "type": "function"
    },
    {
      "inputs": [
        {
          "internalType": "address",
          "name": "account",
          "type": "address"
        },
        {
          "internalType": "uint256",
          "name": "balance",
          "type": "uint256"
        }
      ],
      "name": "setMinBalance",
      "outputs": [],
      "stateMutability": "nonpayable",
      "type": "function"
    },
    {
      "inputs": [],
      "name": "symbol",
      "outputs": [
        {
          "internalType": "string",
          "name": "",
          "type": "string"
        }
      ],
      "stateMutability": "view",
      "type": "function"
    },
    {
      "inputs": [],
      "name": "totalSupply",
      "outputs": [
        {
          "internalType": "uint256",
          "name": "",
          "type": "uint256"
        }
      ],
      "stateMutability": "view",
      "type": "function"
    },
    {
      "inputs": [
        {
          "internalType": "address",
          "name": "recipient",
          "type": "address"
        },
        {
          "internalType": "uint256",
          "name": "amount",
          "type": "uint256"
        }
      ],
      "name": "transfer",
      "outputs": [
        {
          "internalType": "bool",
          "name": "",
          "type": "bool"
        }
      ],
      "stateMutability": "nonpayable",
      "type": "function"
    },
    {
      "inputs": [
        {
          "internalType": "address",
          "name": "sender",
          "type": "address"
        },
        {
          "internalType": "address",
          "name": "recipient",
          "type": "address"
        },
        {
          "internalType": "uint256",
          "name": "amount",
          "type": "uint256"
        }
      ],
      "name": "transferFrom",
      "outputs": [
        {
          "internalType": "bool",
          "name": "",
          "type": "bool"
        }
      ],
      "stateMutability": "nonpayable",
      "type": "function"
    },
    {
      "inputs": [
        {
          "internalType": "uint256",
          "name": "role",
          "type": "uint256"
        }
      ],
      "name": "updateMainCharacterCache",
      "outputs": [],
      "stateMutability": "nonpayable",
      "type": "function"
    },
    {
      "inputs": [
        {
          "internalType": "uint256",
          "name": "role",
          "type": "uint256"
        },
        {
          "internalType": "address",
          "name": "contr",
          "type": "address"
        }
      ],
      "name": "updateRoleCache",
      "outputs": [],
      "stateMutability": "nonpayable",
      "type": "function"
    },
    {
      "inputs": [],
      "name": "viewAllFeesEver",
      "outputs": [
        {
          "internalType": "uint256",
          "name": "",
          "type": "uint256"
        }
      ],
      "stateMutability": "view",
      "type": "function"
    }
  ],
  "transactionHash": "0xa793f976f61bec9fb9f1fea3cc0b894e27d9ccfc1c75859b318d8e23b95f93c1",
  "args": [
    "0x218861760D5560bF7dd41488642cf857C4F27388"
  ],
  "solcInputHash": "db0fa14b887431f79499ee725feab18f",
  "bytecode": "0x6101806040527f6e71edae12b1b97f4d1f60370fef10105fa2faae0126114a169c64845d6126c96101605269152d02c7e14af6800000600d556005600e55600f805460ff191660011790553480156200005757600080fd5b5060405162002841380380620028418339810160408190526200007a91620003a3565b604051806040016040528060058152602001644d4f4e455960d81b81525080604051806040016040528060018152602001603160f81b8152506040518060400160405280601381526020017f4d6f72654d6f6e657920555320446f6c6c617200000000000000000000000000815250604051806040016040528060058152602001644d4f4e455960d81b8152508560006001600160a01b0316816001600160a01b031614156200017b5760405162461bcd60e51b815260206004820152602260248201527f506c656173652070726f766964652076616c696420726f6c6573206164647265604482015261737360f01b606482015260840160405180910390fd5b60601b6001600160601b0319166080528151620001a0906009906020850190620002fd565b508051620001b690600a906020840190620002fd565b50506001600b8190556003805480830190915560027fc2575a0e9e593c00f959f8c92f12db2869c3395a3b0502d05e2516446f71f85b9091018190558054918201815560005260677f405787fa12a823e0f2b7631cc41b3ba8828b3321ca811111fa75cd3aa3bb5ace909101555081516020808401919091208251838301206101008290526101208190524660c0818152604080517f8b73c3c69bb8fe3d512ecc4cf759cc79239f7b179b0ffacaa9a75d522b39400f8188018190528183018790526060820186905260808201949094523060a080830191909152825180830390910181529201905280519401939093209192909160a0523060601b60e0526101405250506004805460018101825560009190915260667f8a35acfbc15ff81a39ae7d344fd709f28e8600b4aa8c65c6b64bfe7fe36bd19b90910155506200041092505050565b8280546200030b90620003d3565b90600052602060002090601f0160209004810192826200032f57600085556200037a565b82601f106200034a57805160ff19168380011785556200037a565b828001600101855582156200037a579182015b828111156200037a5782518255916020019190600101906200035d565b50620003889291506200038c565b5090565b5b808211156200038857600081556001016200038d565b600060208284031215620003b5578081fd5b81516001600160a01b0381168114620003cc578182fd5b9392505050565b600181811c90821680620003e857607f821691505b602082108114156200040a57634e487b7160e01b600052602260045260246000fd5b50919050565b60805160601c60a05160c05160e05160601c610100516101205161014051610160516123a9620004986000396000610f7b015260006114e5015260006115340152600061150f0152600061146601526000611490015260006114ba01526000818161030e015281816106750152818161097f01528181611889015261191c01526123a96000f3fe608060405234801561001057600080fd5b50600436106102535760003560e01c80637a1a04df11610146578063aeb38d8b116100c3578063dc94cb7d11610087578063dc94cb7d1461052d578063dd62ed3e14610535578063df8279b01461056e578063e8ea4fae1461058e578063e9c3f77d14610596578063f67979e2146105bf57610253565b8063aeb38d8b146104ce578063bf184ea4146104e1578063d35f063e146104f4578063d505accf14610507578063d9d98ce41461051a57610253565b806395d89b411161010a57806395d89b411461047a5780639dc29fac14610482578063a457c2d714610495578063a9059cbb146104a8578063abcbc4fc146104bb57610253565b80637a1a04df1461040b5780637b604b54146104395780637dad209b1461044c5780637ecebe00146104545780638d196e321461046757610253565b8063392f5f64116101d45780635cffe9de116101985780635cffe9de146103965780635f1ce6fa146103a9578063613255ab146103bc5780636caa9c11146103cf57806370a08231146103e257610253565b8063392f5f6414610309578063395093511461034857806340c10f191461035b578063447d52ba1461036e5780634a7a7f411461038157610253565b806323b872dd1161021b57806323b872dd146102cd57806328b35de9146102e05780632efcc866146102e9578063313ce567146102f25780633644e5151461030157610253565b806306fdde0314610258578063071060a614610276578063095ea7b31461028b5780630d749628146102ae57806318160ddd146102c5575b600080fd5b6102606105cc565b60405161026d91906121fa565b60405180910390f35b610289610284366004612121565b61065f565b005b61029e61029936600461200c565b610725565b604051901515815260200161026d565b6102b760105481565b60405190815260200161026d565b6008546102b7565b61029e6102db366004611f57565b61073b565b6102b7600e5481565b6102b7600d5481565b6040516012815260200161026d565b6102b76107ea565b6103307f000000000000000000000000000000000000000000000000000000000000000081565b6040516001600160a01b03909116815260200161026d565b61029e61035636600461200c565b6107f9565b61028961036936600461200c565b610835565b61028961037c366004612139565b610959565b610389610a31565b60405161026d91906121b6565b61029e6103a4366004612087565b610a88565b6102896103b7366004612037565b610b5f565b6102b76103ca366004611ee7565b610bbb565b6102b76103dd366004612121565b610be9565b6102b76103f0366004611ee7565b6001600160a01b031660009081526006602052604090205490565b61029e61041936600461200c565b600160209081526000928352604080842090915290825290205460ff1681565b610289610447366004612121565b610c0a565b610389610c58565b6102b7610462366004611ee7565b610cae565b610289610475366004612121565b610ccc565b610260610d1a565b61028961049036600461200c565b610d29565b61029e6104a336600461200c565b610de0565b61029e6104b636600461200c565b610e79565b6102b76104c9366004612121565b610e86565b6102b76104dc366004612121565b610e96565b6102b76104ef366004612121565b610ea6565b61028961050236600461200c565b610eb6565b610289610515366004611f97565b610f27565b6102b761052836600461200c565b61108b565b6103896110af565b6102b7610543366004611f1f565b6001600160a01b03918216600090815260076020908152604080832093909416825291909152205490565b6102b761057c366004611ee7565b60116020526000908152604090205481565b610389611105565b6103306105a4366004612121565b6000602081905290815260409020546001600160a01b031681565b600f5461029e9060ff1681565b6060600980546105db90612305565b80601f016020809104026020016040519081016040528092919081815260200182805461060790612305565b80156106545780601f1061062957610100808354040283529160200191610654565b820191906000526020600020905b81548152906001019060200180831161063757829003601f168201915b505050505090505b90565b60405163b4ed0b6d60e01b8152600481018290527f00000000000000000000000000000000000000000000000000000000000000006001600160a01b03169063b4ed0b6d9060240160206040518083038186803b1580156106bf57600080fd5b505afa1580156106d3573d6000803e3d6000fd5b505050506040513d601f19601f820116820180604052508101906106f79190611f03565b60009182526020829052604090912080546001600160a01b0319166001600160a01b03909216919091179055565b600061073233848461115b565b50600192915050565b600061074884848461127f565b6001600160a01b0384166000908152600760209081526040808320338452909152902054828110156107d25760405162461bcd60e51b815260206004820152602860248201527f45524332303a207472616e7366657220616d6f756e74206578636565647320616044820152676c6c6f77616e636560c01b60648201526084015b60405180910390fd5b6107df853385840361115b565b506001949350505050565b60006107f4611459565b905090565b3360008181526007602090815260408083206001600160a01b03871684529091528120549091610732918590610830908690612297565b61115b565b6002600b5414156108885760405162461bcd60e51b815260206004820152601f60248201527f5265656e7472616e637947756172643a207265656e7472616e742063616c6c0060448201526064016107c9565b6002600b5561089633611584565b6108e25760405162461bcd60e51b815260206004820152601e60248201527f4e6f7420616e206175746f72697a6564206d696e7465722f6275726e6572000060448201526064016107c9565b6108ec82826115ae565b600854600d54116109505760405162461bcd60e51b815260206004820152602860248201527f546f74616c20737570706c79206578636565647320676c6f62616c2064656274604482015267206365696c696e6760c01b60648201526084016107c9565b50506001600b55565b60405163f0723d9760e01b81526001600160a01b038281166004830152602482018490527f0000000000000000000000000000000000000000000000000000000000000000169063f0723d979060440160206040518083038186803b1580156109c157600080fd5b505afa1580156109d5573d6000803e3d6000fd5b505050506040513d601f19601f820116820180604052508101906109f99190612053565b6001600160a01b0391909116600090815260016020908152604080832094835293905291909120805460ff1916911515919091179055565b6060600380548060200260200160405190810160405280929190818152602001828054801561065457602002820191906000526020600020905b815481526020019060010190808311610a6b575050505050905090565b600f5460009060ff16610add5760405162461bcd60e51b815260206004820152601860248201527f466c617368206c6f616e73206172652064697361626c6564000000000000000060448201526064016107c9565b6000610ae9868661108b565b9050610b2f610b29606760009081526020527f682158d08466d11c566d5712d4396197fdd67e65be71d83c97ef719ec468867b546001600160a01b031690565b826115ae565b8060106000828254610b419190612297565b90915550610b5490508787878787611699565b979650505050505050565b33610b68611885565b6001600160a01b03161480610b8c575033610b81611918565b6001600160a01b0316145b610ba85760405162461bcd60e51b81526004016107c99061224d565b600f805460ff1916911515919091179055565b60006001600160a01b0382163014610bd4576000610be3565b600854610be3906000196122ee565b92915050565b60058181548110610bf957600080fd5b600091825260209091200154905081565b33610c13611885565b6001600160a01b03161480610c37575033610c2c611918565b6001600160a01b0316145b610c535760405162461bcd60e51b81526004016107c99061224d565b600e55565b606060048054806020026020016040519081016040528092919081815260200182805480156106545760200282019190600052602060002090815481526020019060010190808311610a6b575050505050905090565b6001600160a01b0381166000908152600c6020526040812054610be3565b33610cd5611885565b6001600160a01b03161480610cf9575033610cee611918565b6001600160a01b0316145b610d155760405162461bcd60e51b81526004016107c99061224d565b600d55565b6060600a80546105db90612305565b6002600b541415610d7c5760405162461bcd60e51b815260206004820152601f60248201527f5265656e7472616e637947756172643a207265656e7472616e742063616c6c0060448201526064016107c9565b6002600b55610d8a33611584565b610dd65760405162461bcd60e51b815260206004820152601f60248201527f4e6f7420616e20617574686f72697a6564206d696e7465722f6275726e65720060448201526064016107c9565b6109508282611989565b3360009081526007602090815260408083206001600160a01b038616845290915281205482811015610e625760405162461bcd60e51b815260206004820152602560248201527f45524332303a2064656372656173656420616c6c6f77616e63652062656c6f77604482015264207a65726f60d81b60648201526084016107c9565b610e6f338585840361115b565b5060019392505050565b600061073233848461127f565b60028181548110610bf957600080fd5b60048181548110610bf957600080fd5b60038181548110610bf957600080fd5b610ebf33611584565b610f0b5760405162461bcd60e51b815260206004820152601f60248201527f4e6f7420616e20617574686f72697a6564206d696e7465722f6275726e65720060448201526064016107c9565b6001600160a01b03909116600090815260116020526040902055565b83421115610f775760405162461bcd60e51b815260206004820152601d60248201527f45524332305065726d69743a206578706972656420646561646c696e6500000060448201526064016107c9565b60007f0000000000000000000000000000000000000000000000000000000000000000888888610fa68c611ae3565b6040805160208101969096526001600160a01b0394851690860152929091166060840152608083015260a082015260c0810186905260e001604051602081830303815290604052805190602001209050600061100182611b0b565b9050600061101182878787611b59565b9050896001600160a01b0316816001600160a01b0316146110745760405162461bcd60e51b815260206004820152601e60248201527f45524332305065726d69743a20696e76616c6964207369676e6174757265000060448201526064016107c9565b61107f8a8a8a61115b565b50505050505050505050565b6000612710600e548361109e91906122cf565b6110a891906122af565b9392505050565b606060028054806020026020016040519081016040528092919081815260200182805480156106545760200282019190600052602060002090815481526020019060010190808311610a6b575050505050905090565b606060058054806020026020016040519081016040528092919081815260200182805480156106545760200282019190600052602060002090815481526020019060010190808311610a6b575050505050905090565b6001600160a01b0383166111bd5760405162461bcd60e51b8152602060048201526024808201527f45524332303a20617070726f76652066726f6d20746865207a65726f206164646044820152637265737360e01b60648201526084016107c9565b6001600160a01b03821661121e5760405162461bcd60e51b815260206004820152602260248201527f45524332303a20617070726f766520746f20746865207a65726f206164647265604482015261737360f01b60648201526084016107c9565b6001600160a01b0383811660008181526007602090815260408083209487168084529482529182902085905590518481527f8c5be1e5ebec7d5bd14f71427d1e84f3dd0314c0f7b2291e5b200ac8c7c3b925910160405180910390a3505050565b6001600160a01b0383166112e35760405162461bcd60e51b815260206004820152602560248201527f45524332303a207472616e736665722066726f6d20746865207a65726f206164604482015264647265737360d81b60648201526084016107c9565b6001600160a01b0382166113455760405162461bcd60e51b815260206004820152602360248201527f45524332303a207472616e7366657220746f20746865207a65726f206164647260448201526265737360e81b60648201526084016107c9565b6001600160a01b038316600090815260066020526040902054818110156113bd5760405162461bcd60e51b815260206004820152602660248201527f45524332303a207472616e7366657220616d6f756e7420657863656564732062604482015265616c616e636560d01b60648201526084016107c9565b6001600160a01b038085166000908152600660205260408082208585039055918516815290812080548492906113f4908490612297565b92505081905550826001600160a01b0316846001600160a01b03167fddf252ad1be2c89b69c2b068fc378daa952ba7f163c4a11628f55a4df523b3ef8460405161144091815260200190565b60405180910390a3611453848484611b81565b50505050565b6000306001600160a01b037f0000000000000000000000000000000000000000000000000000000000000000161480156114b257507f000000000000000000000000000000000000000000000000000000000000000046145b156114de57507f000000000000000000000000000000000000000000000000000000000000000061065c565b50604080517f00000000000000000000000000000000000000000000000000000000000000006020808301919091527f0000000000000000000000000000000000000000000000000000000000000000828401527f000000000000000000000000000000000000000000000000000000000000000060608301524660808301523060a0808401919091528351808403909101815260c0909201909252805191012061065c565b6001600160a01b031660009081526001602090815260408083206002845290915290205460ff1690565b6001600160a01b0382166116045760405162461bcd60e51b815260206004820152601f60248201527f45524332303a206d696e7420746f20746865207a65726f20616464726573730060448201526064016107c9565b80600860008282546116169190612297565b90915550506001600160a01b03821660009081526006602052604081208054839290611643908490612297565b90915550506040518181526001600160a01b038316906000907fddf252ad1be2c89b69c2b068fc378daa952ba7f163c4a11628f55a4df523b3ef9060200160405180910390a361169560008383611b81565b5050565b6000806116a6868661108b565b90506116b287866115ae565b6040516323e30c8b60e01b81527f439148f0bbc682ca079e46d6e2c2f0c1e3b820f1a291b069d8882abf8cf18dd9906001600160a01b038916906323e30c8b9061170a9033908b908b9088908c908c9060040161215d565b602060405180830381600087803b15801561172457600080fd5b505af1158015611738573d6000803e3d6000fd5b505050506040513d601f19601f8201168201806040525081019061175c919061206f565b146117b55760405162461bcd60e51b8152602060048201526024808201527f4552433230466c6173684d696e743a20696e76616c69642072657475726e2076604482015263616c756560e01b60648201526084016107c9565b6001600160a01b03871660009081526007602090815260408083203084529091529020546117e38287612297565b81101561184a5760405162461bcd60e51b815260206004820152602f60248201527f4552433230466c6173684d696e743a20616c6c6f77616e636520646f6573206e60448201526e1bdd08185b1b1bddc81c99599d5b99608a1b60648201526084016107c9565b61186488308461185a8a866122ee565b61083091906122ee565b611877886118728489612297565b611989565b506001979650505050505050565b60007f00000000000000000000000000000000000000000000000000000000000000006001600160a01b0316638da5cb5b6040518163ffffffff1660e01b815260040160206040518083038186803b1580156118e057600080fd5b505afa1580156118f4573d6000803e3d6000fd5b505050506040513d601f19601f820116820180604052508101906107f49190611f03565b60007f00000000000000000000000000000000000000000000000000000000000000006001600160a01b031663c34c08e56040518163ffffffff1660e01b8152600401602060405180830381600087803b15801561197557600080fd5b505af11580156118f4573d6000803e3d6000fd5b6001600160a01b0382166119e95760405162461bcd60e51b815260206004820152602160248201527f45524332303a206275726e2066726f6d20746865207a65726f206164647265736044820152607360f81b60648201526084016107c9565b6001600160a01b03821660009081526006602052604090205481811015611a5d5760405162461bcd60e51b815260206004820152602260248201527f45524332303a206275726e20616d6f756e7420657863656564732062616c616e604482015261636560f01b60648201526084016107c9565b6001600160a01b0383166000908152600660205260408120838303905560088054849290611a8c9084906122ee565b90915550506040518281526000906001600160a01b038516907fddf252ad1be2c89b69c2b068fc378daa952ba7f163c4a11628f55a4df523b3ef9060200160405180910390a3611ade83600084611b81565b505050565b6001600160a01b0381166000908152600c602052604090208054600181018255905b50919050565b6000610be3611b18611459565b8360405161190160f01b6020820152602281018390526042810182905260009060620160405160208183030381529060405280519060200120905092915050565b6000806000611b6a87878787611bf4565b91509150611b7781611ce1565b5095945050505050565b6001600160a01b0383166000908152601160209081526040808320546006909252909120541015611ade5760405162461bcd60e51b815260206004820152601c60248201527f4d6f72654d6f6e65793a2062656c6f77206d696e2062616c616e63650000000060448201526064016107c9565b6000807f7fffffffffffffffffffffffffffffff5d576e7357a4501ddfe92f46681b20a0831115611c2b5750600090506003611cd8565b8460ff16601b14158015611c4357508460ff16601c14155b15611c545750600090506004611cd8565b6040805160008082526020820180845289905260ff881692820192909252606081018690526080810185905260019060a0016020604051602081039080840390855afa158015611ca8573d6000803e3d6000fd5b5050604051601f1901519150506001600160a01b038116611cd157600060019250925050611cd8565b9150600090505b94509492505050565b6000816004811115611d0357634e487b7160e01b600052602160045260246000fd5b1415611d0e57611ee4565b6001816004811115611d3057634e487b7160e01b600052602160045260246000fd5b1415611d7e5760405162461bcd60e51b815260206004820152601860248201527f45434453413a20696e76616c6964207369676e6174757265000000000000000060448201526064016107c9565b6002816004811115611da057634e487b7160e01b600052602160045260246000fd5b1415611dee5760405162461bcd60e51b815260206004820152601f60248201527f45434453413a20696e76616c6964207369676e6174757265206c656e6774680060448201526064016107c9565b6003816004811115611e1057634e487b7160e01b600052602160045260246000fd5b1415611e695760405162461bcd60e51b815260206004820152602260248201527f45434453413a20696e76616c6964207369676e6174757265202773272076616c604482015261756560f01b60648201526084016107c9565b6004816004811115611e8b57634e487b7160e01b600052602160045260246000fd5b1415611ee45760405162461bcd60e51b815260206004820152602260248201527f45434453413a20696e76616c6964207369676e6174757265202776272076616c604482015261756560f01b60648201526084016107c9565b50565b600060208284031215611ef8578081fd5b81356110a881612350565b600060208284031215611f14578081fd5b81516110a881612350565b60008060408385031215611f31578081fd5b8235611f3c81612350565b91506020830135611f4c81612350565b809150509250929050565b600080600060608486031215611f6b578081fd5b8335611f7681612350565b92506020840135611f8681612350565b929592945050506040919091013590565b600080600080600080600060e0888a031215611fb1578283fd5b8735611fbc81612350565b96506020880135611fcc81612350565b95506040880135945060608801359350608088013560ff81168114611fef578384fd5b9699959850939692959460a0840135945060c09093013592915050565b6000806040838503121561201e578182fd5b823561202981612350565b946020939093013593505050565b600060208284031215612048578081fd5b81356110a881612365565b600060208284031215612064578081fd5b81516110a881612365565b600060208284031215612080578081fd5b5051919050565b60008060008060006080868803121561209e578081fd5b85356120a981612350565b945060208601356120b981612350565b935060408601359250606086013567ffffffffffffffff808211156120dc578283fd5b818801915088601f8301126120ef578283fd5b8135818111156120fd578384fd5b89602082850101111561210e578384fd5b9699959850939650602001949392505050565b600060208284031215612132578081fd5b5035919050565b6000806040838503121561214b578182fd5b823591506020830135611f4c81612350565b6001600160a01b03878116825286166020820152604081018590526060810184905260a06080820181905281018290526000828460c084013781830160c090810191909152601f909201601f1916010195945050505050565b6020808252825182820181905260009190848201906040850190845b818110156121ee578351835292840192918401916001016121d2565b50909695505050505050565b6000602080835283518082850152825b818110156122265785810183015185820160400152820161220a565b818111156122375783604083870101525b50601f01601f1916929092016040019392505050565b6020808252602a908201527f526f6c65733a2063616c6c6572206973206e6f7420746865206f776e6572206f604082015269391032bc32b1baba37b960b11b606082015260800190565b600082198211156122aa576122aa61233a565b500190565b6000826122ca57634e487b7160e01b81526012600452602481fd5b500490565b60008160001904831182151516156122e9576122e961233a565b500290565b6000828210156123005761230061233a565b500390565b600181811c9082168061231957607f821691505b60208210811415611b0557634e487b7160e01b600052602260045260246000fd5b634e487b7160e01b600052601160045260246000fd5b6001600160a01b0381168114611ee457600080fd5b8015158114611ee457600080fdfea264697066735822122081b697bebf184f398ed33776b0a5270dc916c7e2e675ba03693ddf155232e6a664736f6c63430008030033",
  "devdoc": {
    "kind": "dev",
    "methods": {
      "DOMAIN_SEPARATOR()": {
        "details": "See {IERC20Permit-DOMAIN_SEPARATOR}."
      },
      "allowance(address,address)": {
        "details": "See {IERC20-allowance}."
      },
      "approve(address,uint256)": {
        "details": "See {IERC20-approve}. Requirements: - `spender` cannot be the zero address."
      },
      "balanceOf(address)": {
        "details": "See {IERC20-balanceOf}."
      },
      "charactersPlayed()": {
        "details": "returns all characters played by this contract (e.g. stable coin, oracle registry)"
      },
      "decimals()": {
        "details": "Returns the number of decimals used to get its user representation. For example, if `decimals` equals `2`, a balance of `505` tokens should be displayed to a user as `5.05` (`505 / 10 ** 2`). Tokens usually opt for a value of 18, imitating the relationship between Ether and Wei. This is the value {ERC20} uses, unless this function is overridden; NOTE: This information is only used for _display_ purposes: it in no way affects any of the arithmetic of the contract, including {IERC20-balanceOf} and {IERC20-transfer}."
      },
      "decreaseAllowance(address,uint256)": {
        "details": "Atomically decreases the allowance granted to `spender` by the caller. This is an alternative to {approve} that can be used as a mitigation for problems described in {IERC20-approve}. Emits an {Approval} event indicating the updated allowance. Requirements: - `spender` cannot be the zero address. - `spender` must have allowance for the caller of at least `subtractedValue`."
      },
      "dependsOnCharacters()": {
        "details": "returns all the character dependencies like FEE_RECIPIENT"
      },
      "dependsOnRoles()": {
        "details": "returns all the roles dependencies of this contract like FUND_TRANSFERER"
      },
      "increaseAllowance(address,uint256)": {
        "details": "Atomically increases the allowance granted to `spender` by the caller. This is an alternative to {approve} that can be used as a mitigation for problems described in {IERC20-approve}. Emits an {Approval} event indicating the updated allowance. Requirements: - `spender` cannot be the zero address."
      },
      "maxFlashLoan(address)": {
        "details": "Returns the maximum amount of tokens available for loan.",
        "params": {
          "token": "The address of the token that is requested."
        },
        "returns": {
          "_0": "The amont of token that can be loaned."
        }
      },
      "name()": {
        "details": "Returns the name of the token."
      },
      "nonces(address)": {
        "details": "See {IERC20Permit-nonces}."
      },
      "permit(address,address,uint256,uint256,uint8,bytes32,bytes32)": {
        "details": "See {IERC20Permit-permit}."
      },
      "rolesPlayed()": {
        "details": "returns all roles played by this contract"
      },
      "symbol()": {
        "details": "Returns the symbol of the token, usually a shorter version of the name."
      },
      "totalSupply()": {
        "details": "See {IERC20-totalSupply}."
      },
      "transfer(address,uint256)": {
        "details": "See {IERC20-transfer}. Requirements: - `recipient` cannot be the zero address. - the caller must have a balance of at least `amount`."
      },
      "transferFrom(address,address,uint256)": {
        "details": "See {IERC20-transferFrom}. Emits an {Approval} event indicating the updated allowance. This is not required by the EIP. See the note at the beginning of {ERC20}. Requirements: - `sender` and `recipient` cannot be the zero address. - `sender` must have a balance of at least `amount`. - the caller must have allowance for ``sender``'s tokens of at least `amount`."
      },
      "updateMainCharacterCache(uint256)": {
        "details": "Updates the main character cache for a speciic character"
      },
      "updateRoleCache(uint256,address)": {
        "details": "Updates the role cache for a specific role and address"
      }
    },
    "version": 1
  },
  "userdoc": {
    "kind": "user",
    "methods": {
      "burn(address,uint256)": {
        "notice": "Burn stable, restricted to MinterBurner role"
      },
      "flashFee(address,uint256)": {
        "notice": "Calculate the fee taken on a flash loan"
      },
      "flashLoan(address,address,uint256,bytes)": {
        "notice": "Take out a flash loan, sending fee to feeRecipient"
      },
      "mint(address,uint256)": {
        "notice": "Mint stable, restricted to MinterBurner role (respecting global debt ceiling)"
      },
      "setFlashFeePer10k(uint256)": {
        "notice": "Set flash fee"
      },
      "setFlashLoansEnabled(bool)": {
        "notice": "Enable or disable flash loans"
      },
      "setGlobalDebtCeiling(uint256)": {
        "notice": "Set global debt ceiling"
      },
      "setMinBalance(address,uint256)": {
        "notice": "For some applications we may want to mint balances that can't be withdrawn or burnt. Contracts using this should first check balance before setting in a transaction"
      }
    },
    "version": 1
  },
  "storageLayout": {
    "storage": [
      {
        "astId": 16748,
        "contract": "contracts/Stablecoin.sol:Stablecoin",
        "label": "mainCharacterCache",
        "offset": 0,
        "slot": "0",
        "type": "t_mapping(t_uint256,t_address)"
      },
      {
        "astId": 16754,
        "contract": "contracts/Stablecoin.sol:Stablecoin",
        "label": "roleCache",
        "offset": 0,
        "slot": "1",
        "type": "t_mapping(t_address,t_mapping(t_uint256,t_bool))"
      },
      {
        "astId": 16757,
        "contract": "contracts/Stablecoin.sol:Stablecoin",
        "label": "_dependsOnCharacters",
        "offset": 0,
        "slot": "2",
        "type": "t_array(t_uint256)dyn_storage"
      },
      {
        "astId": 16760,
        "contract": "contracts/Stablecoin.sol:Stablecoin",
        "label": "_dependsOnRoles",
        "offset": 0,
        "slot": "3",
        "type": "t_array(t_uint256)dyn_storage"
      },
      {
        "astId": 16763,
        "contract": "contracts/Stablecoin.sol:Stablecoin",
        "label": "_charactersPlayed",
        "offset": 0,
        "slot": "4",
        "type": "t_array(t_uint256)dyn_storage"
      },
      {
        "astId": 16766,
        "contract": "contracts/Stablecoin.sol:Stablecoin",
        "label": "_rolesPlayed",
        "offset": 0,
        "slot": "5",
        "type": "t_array(t_uint256)dyn_storage"
      },
      {
        "astId": 268,
        "contract": "contracts/Stablecoin.sol:Stablecoin",
        "label": "_balances",
        "offset": 0,
        "slot": "6",
        "type": "t_mapping(t_address,t_uint256)"
      },
      {
        "astId": 274,
        "contract": "contracts/Stablecoin.sol:Stablecoin",
        "label": "_allowances",
        "offset": 0,
        "slot": "7",
        "type": "t_mapping(t_address,t_mapping(t_address,t_uint256))"
      },
      {
        "astId": 276,
        "contract": "contracts/Stablecoin.sol:Stablecoin",
        "label": "_totalSupply",
        "offset": 0,
        "slot": "8",
        "type": "t_uint256"
      },
      {
        "astId": 278,
        "contract": "contracts/Stablecoin.sol:Stablecoin",
        "label": "_name",
        "offset": 0,
        "slot": "9",
        "type": "t_string_storage"
      },
      {
        "astId": 280,
        "contract": "contracts/Stablecoin.sol:Stablecoin",
        "label": "_symbol",
        "offset": 0,
        "slot": "10",
        "type": "t_string_storage"
      },
      {
        "astId": 223,
        "contract": "contracts/Stablecoin.sol:Stablecoin",
        "label": "_status",
        "offset": 0,
        "slot": "11",
        "type": "t_uint256"
      },
      {
        "astId": 1090,
        "contract": "contracts/Stablecoin.sol:Stablecoin",
        "label": "_nonces",
        "offset": 0,
        "slot": "12",
        "type": "t_mapping(t_address,t_struct(Counter)3182_storage)"
      },
      {
        "astId": 8791,
        "contract": "contracts/Stablecoin.sol:Stablecoin",
        "label": "globalDebtCeiling",
        "offset": 0,
        "slot": "13",
        "type": "t_uint256"
      },
      {
        "astId": 8799,
        "contract": "contracts/Stablecoin.sol:Stablecoin",
        "label": "flashFeePer10k",
        "offset": 0,
        "slot": "14",
        "type": "t_uint256"
      },
      {
        "astId": 8802,
        "contract": "contracts/Stablecoin.sol:Stablecoin",
        "label": "flashLoansEnabled",
        "offset": 0,
        "slot": "15",
        "type": "t_bool"
      },
      {
        "astId": 8805,
        "contract": "contracts/Stablecoin.sol:Stablecoin",
        "label": "viewAllFeesEver",
        "offset": 0,
        "slot": "16",
        "type": "t_uint256"
      },
      {
        "astId": 8809,
        "contract": "contracts/Stablecoin.sol:Stablecoin",
        "label": "minBalance",
        "offset": 0,
        "slot": "17",
        "type": "t_mapping(t_address,t_uint256)"
      }
    ],
    "types": {
      "t_address": {
        "encoding": "inplace",
        "label": "address",
        "numberOfBytes": "20"
      },
      "t_array(t_uint256)dyn_storage": {
        "base": "t_uint256",
        "encoding": "dynamic_array",
        "label": "uint256[]",
        "numberOfBytes": "32"
      },
      "t_bool": {
        "encoding": "inplace",
        "label": "bool",
        "numberOfBytes": "1"
      },
      "t_mapping(t_address,t_mapping(t_address,t_uint256))": {
        "encoding": "mapping",
        "key": "t_address",
        "label": "mapping(address => mapping(address => uint256))",
        "numberOfBytes": "32",
        "value": "t_mapping(t_address,t_uint256)"
      },
      "t_mapping(t_address,t_mapping(t_uint256,t_bool))": {
        "encoding": "mapping",
        "key": "t_address",
        "label": "mapping(address => mapping(uint256 => bool))",
        "numberOfBytes": "32",
        "value": "t_mapping(t_uint256,t_bool)"
      },
      "t_mapping(t_address,t_struct(Counter)3182_storage)": {
        "encoding": "mapping",
        "key": "t_address",
        "label": "mapping(address => struct Counters.Counter)",
        "numberOfBytes": "32",
        "value": "t_struct(Counter)3182_storage"
      },
      "t_mapping(t_address,t_uint256)": {
        "encoding": "mapping",
        "key": "t_address",
        "label": "mapping(address => uint256)",
        "numberOfBytes": "32",
        "value": "t_uint256"
      },
      "t_mapping(t_uint256,t_address)": {
        "encoding": "mapping",
        "key": "t_uint256",
        "label": "mapping(uint256 => address)",
        "numberOfBytes": "32",
        "value": "t_address"
      },
      "t_mapping(t_uint256,t_bool)": {
        "encoding": "mapping",
        "key": "t_uint256",
        "label": "mapping(uint256 => bool)",
        "numberOfBytes": "32",
        "value": "t_bool"
      },
      "t_string_storage": {
        "encoding": "bytes",
        "label": "string",
        "numberOfBytes": "32"
      },
      "t_struct(Counter)3182_storage": {
        "encoding": "inplace",
        "label": "struct Counters.Counter",
        "members": [
          {
            "astId": 3181,
            "contract": "contracts/Stablecoin.sol:Stablecoin",
            "label": "_value",
            "offset": 0,
            "slot": "0",
            "type": "t_uint256"
          }
        ],
        "numberOfBytes": "32"
      },
      "t_uint256": {
        "encoding": "inplace",
        "label": "uint256",
        "numberOfBytes": "32"
      }
    }
  }
}