{
  "address": "0x23082269Ea17C4f5103bAB6cD9DFE1f6CE138616",
  "abi": [
    {
      "inputs": [
        {
          "internalType": "address",
          "name": "_roles",
          "type": "address"
        }
      ],
      "stateMutability": "nonpayable",
      "type": "constructor"
    },
    {
      "anonymous": false,
      "inputs": [
        {
          "indexed": true,
          "internalType": "address",
          "name": "owner",
          "type": "address"
        },
        {
          "indexed": true,
          "internalType": "address",
          "name": "approved",
          "type": "address"
        },
        {
          "indexed": true,
          "internalType": "uint256",
          "name": "tokenId",
          "type": "uint256"
        }
      ],
      "name": "Approval",
      "type": "event"
    },
    {
      "anonymous": false,
      "inputs": [
        {
          "indexed": true,
          "internalType": "address",
          "name": "owner",
          "type": "address"
        },
        {
          "indexed": true,
          "internalType": "address",
          "name": "operator",
          "type": "address"
        },
        {
          "indexed": false,
          "internalType": "bool",
          "name": "approved",
          "type": "bool"
        }
      ],
      "name": "ApprovalForAll",
      "type": "event"
    },
    {
      "anonymous": false,
      "inputs": [
        {
          "indexed": false,
          "internalType": "string",
          "name": "param",
          "type": "string"
        },
        {
          "indexed": false,
          "internalType": "uint256",
          "name": "value",
          "type": "uint256"
        }
      ],
      "name": "ParameterUpdated",
      "type": "event"
    },
    {
      "anonymous": false,
      "inputs": [
        {
          "indexed": false,
          "internalType": "string",
          "name": "param",
          "type": "string"
        },
        {
          "indexed": false,
          "internalType": "address",
          "name": "subject",
          "type": "address"
        },
        {
          "indexed": false,
          "internalType": "uint256",
          "name": "value",
          "type": "uint256"
        }
      ],
      "name": "SubjectParameterUpdated",
      "type": "event"
    },
    {
      "anonymous": false,
      "inputs": [
        {
          "indexed": false,
          "internalType": "string",
          "name": "param",
          "type": "string"
        },
        {
          "indexed": false,
          "internalType": "address",
          "name": "subject",
          "type": "address"
        }
      ],
      "name": "SubjectUpdated",
      "type": "event"
    },
    {
      "anonymous": false,
      "inputs": [
        {
          "indexed": true,
          "internalType": "uint256",
          "name": "trancheId",
          "type": "uint256"
        }
      ],
      "name": "TrancheUpdated",
      "type": "event"
    },
    {
      "anonymous": false,
      "inputs": [
        {
          "indexed": true,
          "internalType": "address",
          "name": "from",
          "type": "address"
        },
        {
          "indexed": true,
          "internalType": "address",
          "name": "to",
          "type": "address"
        },
        {
          "indexed": true,
          "internalType": "uint256",
          "name": "tokenId",
          "type": "uint256"
        }
      ],
      "name": "Transfer",
      "type": "event"
    },
    {
      "inputs": [
        {
          "internalType": "uint256",
          "name": "",
          "type": "uint256"
        }
      ],
      "name": "_charactersPlayed",
      "outputs": [
        {
          "internalType": "uint256",
          "name": "",
          "type": "uint256"
        }
      ],
      "stateMutability": "view",
      "type": "function"
    },
    {
      "inputs": [
        {
          "internalType": "uint256",
          "name": "",
          "type": "uint256"
        }
      ],
      "name": "_containedIn",
      "outputs": [
        {
          "internalType": "uint256",
          "name": "",
          "type": "uint256"
        }
      ],
      "stateMutability": "view",
      "type": "function"
    },
    {
      "inputs": [
        {
          "internalType": "uint256",
          "name": "",
          "type": "uint256"
        }
      ],
      "name": "_dependsOnCharacters",
      "outputs": [
        {
          "internalType": "uint256",
          "name": "",
          "type": "uint256"
        }
      ],
      "stateMutability": "view",
      "type": "function"
    },
    {
      "inputs": [
        {
          "internalType": "uint256",
          "name": "",
          "type": "uint256"
        }
      ],
      "name": "_dependsOnRoles",
      "outputs": [
        {
          "internalType": "uint256",
          "name": "",
          "type": "uint256"
        }
      ],
      "stateMutability": "view",
      "type": "function"
    },
    {
      "inputs": [
        {
          "internalType": "uint256",
          "name": "",
          "type": "uint256"
        }
      ],
      "name": "_holdingStrategies",
      "outputs": [
        {
          "internalType": "address",
          "name": "",
          "type": "address"
        }
      ],
      "stateMutability": "view",
      "type": "function"
    },
    {
      "inputs": [
        {
          "internalType": "address",
          "name": "",
          "type": "address"
        },
        {
          "internalType": "address",
          "name": "",
          "type": "address"
        }
      ],
      "name": "_oracleCache",
      "outputs": [
        {
          "internalType": "address",
          "name": "",
          "type": "address"
        }
      ],
      "stateMutability": "view",
      "type": "function"
    },
    {
      "inputs": [
        {
          "internalType": "uint256",
          "name": "",
          "type": "uint256"
        }
      ],
      "name": "_rolesPlayed",
      "outputs": [
        {
          "internalType": "uint256",
          "name": "",
          "type": "uint256"
        }
      ],
      "stateMutability": "view",
      "type": "function"
    },
    {
      "inputs": [
        {
          "internalType": "address",
          "name": "to",
          "type": "address"
        },
        {
          "internalType": "uint256",
          "name": "tokenId",
          "type": "uint256"
        }
      ],
      "name": "approve",
      "outputs": [],
      "stateMutability": "nonpayable",
      "type": "function"
    },
    {
      "inputs": [
        {
          "internalType": "address",
          "name": "",
          "type": "address"
        }
      ],
      "name": "assetConfigs",
      "outputs": [
        {
          "internalType": "uint256",
          "name": "debtCeiling",
          "type": "uint256"
        },
        {
          "internalType": "uint256",
          "name": "feePer10k",
          "type": "uint256"
        },
        {
          "internalType": "uint256",
          "name": "totalDebt",
          "type": "uint256"
        }
      ],
      "stateMutability": "view",
      "type": "function"
    },
    {
      "inputs": [
        {
          "components": [
            {
              "internalType": "address",
              "name": "strategy",
              "type": "address"
            },
            {
              "internalType": "address",
              "name": "token",
              "type": "address"
            },
            {
              "internalType": "uint256",
              "name": "APF",
              "type": "uint256"
            },
            {
              "internalType": "uint256",
              "name": "totalCollateral",
              "type": "uint256"
            },
            {
              "internalType": "uint256",
              "name": "borrowablePer10k",
              "type": "uint256"
            },
            {
              "internalType": "uint256",
              "name": "valuePer1e18",
              "type": "uint256"
            },
            {
              "internalType": "bytes32",
              "name": "strategyName",
              "type": "bytes32"
            },
            {
              "internalType": "uint256",
              "name": "tvl",
              "type": "uint256"
            },
            {
              "internalType": "uint256",
              "name": "harvestBalance2Tally",
              "type": "uint256"
            },
            {
              "internalType": "enum IStrategy.YieldType",
              "name": "yieldType",
              "type": "uint8"
            },
            {
              "internalType": "uint256",
              "name": "stabilityFee",
              "type": "uint256"
            },
            {
              "internalType": "address",
              "name": "underlyingStrategy",
              "type": "address"
            }
          ],
          "internalType": "struct IStrategy.StrategyMetadata[]",
          "name": "stratMeta",
          "type": "tuple[]"
        }
      ],
      "name": "augmentStratMetadata",
      "outputs": [
        {
          "components": [
            {
              "internalType": "uint256",
              "name": "debtCeiling",
              "type": "uint256"
            },
            {
              "internalType": "uint256",
              "name": "totalDebt",
              "type": "uint256"
            },
            {
              "internalType": "uint256",
              "name": "stabilityFee",
              "type": "uint256"
            },
            {
              "internalType": "uint256",
              "name": "mintingFee",
              "type": "uint256"
            },
            {
              "internalType": "address",
              "name": "strategy",
              "type": "address"
            },
            {
              "internalType": "address",
              "name": "token",
              "type": "address"
            },
            {
              "internalType": "uint256",
              "name": "APF",
              "type": "uint256"
            },
            {
              "internalType": "uint256",
              "name": "totalCollateral",
              "type": "uint256"
            },
            {
              "internalType": "uint256",
              "name": "borrowablePer10k",
              "type": "uint256"
            },
            {
              "internalType": "uint256",
              "name": "valuePer1e18",
              "type": "uint256"
            },
            {
              "internalType": "bytes32",
              "name": "strategyName",
              "type": "bytes32"
            },
            {
              "internalType": "uint256",
              "name": "tvl",
              "type": "uint256"
            },
            {
              "internalType": "uint256",
              "name": "harvestBalance2Tally",
              "type": "uint256"
            },
            {
              "internalType": "enum IStrategy.YieldType",
              "name": "yieldType",
              "type": "uint8"
            },
            {
              "internalType": "address",
              "name": "underlyingStrategy",
              "type": "address"
            }
          ],
          "internalType": "struct StableLending.ILStrategyMetadata[]",
          "name": "",
          "type": "tuple[]"
        }
      ],
      "stateMutability": "view",
      "type": "function"
    },
    {
      "inputs": [
        {
          "internalType": "address",
          "name": "owner",
          "type": "address"
        }
      ],
      "name": "balanceOf",
      "outputs": [
        {
          "internalType": "uint256",
          "name": "",
          "type": "uint256"
        }
      ],
      "stateMutability": "view",
      "type": "function"
    },
    {
      "inputs": [
        {
          "internalType": "uint256[]",
          "name": "trancheIds",
          "type": "uint256[]"
        },
        {
          "internalType": "address",
          "name": "currency",
          "type": "address"
        },
        {
          "internalType": "address",
          "name": "recipient",
          "type": "address"
        }
      ],
      "name": "batchCollectYield",
      "outputs": [
        {
          "internalType": "uint256",
          "name": "",
          "type": "uint256"
        }
      ],
      "stateMutability": "nonpayable",
      "type": "function"
    },
    {
      "inputs": [
        {
          "internalType": "uint256[]",
          "name": "trancheIds",
          "type": "uint256[]"
        },
        {
          "internalType": "address",
          "name": "yieldCurrency",
          "type": "address"
        },
        {
          "internalType": "address",
          "name": "valueCurrency",
          "type": "address"
        },
        {
          "internalType": "address",
          "name": "recipient",
          "type": "address"
        }
      ],
      "name": "batchCollectYieldValueBorrowable",
      "outputs": [
        {
          "internalType": "uint256",
          "name": "yield",
          "type": "uint256"
        },
        {
          "internalType": "uint256",
          "name": "value",
          "type": "uint256"
        },
        {
          "internalType": "uint256",
          "name": "borrowablePer10k",
          "type": "uint256"
        }
      ],
      "stateMutability": "nonpayable",
      "type": "function"
    },
    {
      "inputs": [
        {
          "internalType": "uint256[]",
          "name": "trancheIds",
          "type": "uint256[]"
        },
        {
          "internalType": "address",
          "name": "currency",
          "type": "address"
        }
      ],
      "name": "batchViewValueBorrowable",
      "outputs": [
        {
          "internalType": "uint256",
          "name": "",
          "type": "uint256"
        },
        {
          "internalType": "uint256",
          "name": "",
          "type": "uint256"
        }
      ],
      "stateMutability": "view",
      "type": "function"
    },
    {
      "inputs": [
        {
          "internalType": "uint256[]",
          "name": "trancheIds",
          "type": "uint256[]"
        },
        {
          "internalType": "address",
          "name": "currency",
          "type": "address"
        }
      ],
      "name": "batchViewYield",
      "outputs": [
        {
          "internalType": "uint256",
          "name": "",
          "type": "uint256"
        }
      ],
      "stateMutability": "view",
      "type": "function"
    },
    {
      "inputs": [],
      "name": "charactersPlayed",
      "outputs": [
        {
          "internalType": "uint256[]",
          "name": "",
          "type": "uint256[]"
        }
      ],
      "stateMutability": "view",
      "type": "function"
    },
    {
      "inputs": [
        {
          "internalType": "uint256",
          "name": "trancheId",
          "type": "uint256"
        },
        {
          "internalType": "address",
          "name": "currency",
          "type": "address"
        },
        {
          "internalType": "address",
          "name": "recipient",
          "type": "address"
        }
      ],
      "name": "collectYield",
      "outputs": [
        {
          "internalType": "uint256",
          "name": "",
          "type": "uint256"
        }
      ],
      "stateMutability": "nonpayable",
      "type": "function"
    },
    {
      "inputs": [
        {
          "internalType": "uint256",
          "name": "trancheId",
          "type": "uint256"
        },
        {
          "internalType": "address",
          "name": "yieldCurrency",
          "type": "address"
        },
        {
          "internalType": "address",
          "name": "valueCurrency",
          "type": "address"
        },
        {
          "internalType": "address",
          "name": "recipient",
          "type": "address"
        }
      ],
      "name": "collectYieldValueBorrowable",
      "outputs": [
        {
          "internalType": "uint256",
          "name": "",
          "type": "uint256"
        },
        {
          "internalType": "uint256",
          "name": "",
          "type": "uint256"
        },
        {
          "internalType": "uint256",
          "name": "",
          "type": "uint256"
        }
      ],
      "stateMutability": "nonpayable",
      "type": "function"
    },
    {
      "inputs": [
        {
          "internalType": "uint256",
          "name": "tokenId",
          "type": "uint256"
        }
      ],
      "name": "containedIn",
      "outputs": [
        {
          "internalType": "address",
          "name": "owner",
          "type": "address"
        },
        {
          "internalType": "uint256",
          "name": "containerId",
          "type": "uint256"
        }
      ],
      "stateMutability": "view",
      "type": "function"
    },
    {
      "inputs": [],
      "name": "dependsOnCharacters",
      "outputs": [
        {
          "internalType": "uint256[]",
          "name": "",
          "type": "uint256[]"
        }
      ],
      "stateMutability": "view",
      "type": "function"
    },
    {
      "inputs": [],
      "name": "dependsOnRoles",
      "outputs": [
        {
          "internalType": "uint256[]",
          "name": "",
          "type": "uint256[]"
        }
      ],
      "stateMutability": "view",
      "type": "function"
    },
    {
      "inputs": [
        {
          "internalType": "uint256",
          "name": "trancheId",
          "type": "uint256"
        },
        {
          "internalType": "uint256",
          "name": "tokenAmount",
          "type": "uint256"
        }
      ],
      "name": "deposit",
      "outputs": [],
      "stateMutability": "nonpayable",
      "type": "function"
    },
    {
      "inputs": [
        {
          "internalType": "uint256",
          "name": "trancheId",
          "type": "uint256"
        },
        {
          "internalType": "uint256",
          "name": "collateralAmount",
          "type": "uint256"
        },
        {
          "internalType": "uint256",
          "name": "borrowAmount",
          "type": "uint256"
        },
        {
          "internalType": "address",
          "name": "recipient",
          "type": "address"
        }
      ],
      "name": "depositAndBorrow",
      "outputs": [],
      "stateMutability": "nonpayable",
      "type": "function"
    },
    {
      "inputs": [
        {
          "internalType": "uint256",
          "name": "tokenId",
          "type": "uint256"
        }
      ],
      "name": "getApproved",
      "outputs": [
        {
          "internalType": "address",
          "name": "",
          "type": "address"
        }
      ],
      "stateMutability": "view",
      "type": "function"
    },
    {
      "inputs": [
        {
          "internalType": "uint256",
          "name": "trancheId",
          "type": "uint256"
        }
      ],
      "name": "getCurrentHoldingStrategy",
      "outputs": [
        {
          "internalType": "address",
          "name": "",
          "type": "address"
        }
      ],
      "stateMutability": "nonpayable",
      "type": "function"
    },
    {
      "inputs": [
        {
          "internalType": "address",
          "name": "owner",
          "type": "address"
        },
        {
          "internalType": "address",
          "name": "operator",
          "type": "address"
        }
      ],
      "name": "isApprovedForAll",
      "outputs": [
        {
          "internalType": "bool",
          "name": "",
          "type": "bool"
        }
      ],
      "stateMutability": "view",
      "type": "function"
    },
    {
      "inputs": [
        {
          "internalType": "address",
          "name": "spender",
          "type": "address"
        },
        {
          "internalType": "uint256",
          "name": "tokenId",
          "type": "uint256"
        }
      ],
      "name": "isAuthorized",
      "outputs": [
        {
          "internalType": "bool",
          "name": "",
          "type": "bool"
        }
      ],
      "stateMutability": "view",
      "type": "function"
    },
    {
      "inputs": [
        {
          "internalType": "uint256",
          "name": "trancheId",
          "type": "uint256"
        }
      ],
      "name": "isViable",
      "outputs": [
        {
          "internalType": "bool",
          "name": "",
          "type": "bool"
        }
      ],
      "stateMutability": "view",
      "type": "function"
    },
    {
      "inputs": [
        {
          "internalType": "uint256",
          "name": "",
          "type": "uint256"
        }
      ],
      "name": "mainCharacterCache",
      "outputs": [
        {
          "internalType": "address",
          "name": "",
          "type": "address"
        }
      ],
      "stateMutability": "view",
      "type": "function"
    },
    {
      "inputs": [
        {
          "internalType": "uint256",
          "name": "trancheId",
          "type": "uint256"
        },
        {
          "internalType": "address",
          "name": "destination",
          "type": "address"
        },
        {
          "internalType": "address",
          "name": "yieldToken",
          "type": "address"
        },
        {
          "internalType": "address",
          "name": "yieldRecipient",
          "type": "address"
        }
      ],
      "name": "migrateStrategy",
      "outputs": [
        {
          "internalType": "address",
          "name": "token",
          "type": "address"
        },
        {
          "internalType": "uint256",
          "name": "tokenId",
          "type": "uint256"
        },
        {
          "internalType": "uint256",
          "name": "targetAmount",
          "type": "uint256"
        }
      ],
      "stateMutability": "nonpayable",
      "type": "function"
    },
    {
      "inputs": [
        {
          "internalType": "address",
          "name": "collateralToken",
          "type": "address"
        },
        {
          "internalType": "address",
          "name": "strategy",
          "type": "address"
        },
        {
          "internalType": "uint256",
          "name": "collateralAmount",
          "type": "uint256"
        },
        {
          "internalType": "uint256",
          "name": "borrowAmount",
          "type": "uint256"
        },
        {
          "internalType": "address",
          "name": "stableRecipient",
          "type": "address"
        }
      ],
      "name": "mintDepositAndBorrow",
      "outputs": [
        {
          "internalType": "uint256",
          "name": "",
          "type": "uint256"
        }
      ],
      "stateMutability": "nonpayable",
      "type": "function"
    },
    {
      "inputs": [
        {
          "internalType": "uint256",
          "name": "vaultId",
          "type": "uint256"
        },
        {
          "internalType": "address",
          "name": "strategy",
          "type": "address"
        },
        {
          "internalType": "address",
          "name": "assetToken",
          "type": "address"
        },
        {
          "internalType": "uint256",
          "name": "assetTokenId",
          "type": "uint256"
        },
        {
          "internalType": "uint256",
          "name": "assetAmount",
          "type": "uint256"
        }
      ],
      "name": "mintTranche",
      "outputs": [
        {
          "internalType": "uint256",
          "name": "trancheId",
          "type": "uint256"
        }
      ],
      "stateMutability": "nonpayable",
      "type": "function"
    },
    {
      "inputs": [],
      "name": "name",
      "outputs": [
        {
          "internalType": "string",
          "name": "",
          "type": "string"
        }
      ],
      "stateMutability": "view",
      "type": "function"
    },
    {
      "inputs": [
        {
          "internalType": "address",
          "name": "token",
          "type": "address"
        },
        {
          "internalType": "address",
          "name": "pegCurrency",
          "type": "address"
        }
      ],
      "name": "newCurrentOracle",
      "outputs": [],
      "stateMutability": "nonpayable",
      "type": "function"
    },
    {
      "inputs": [
        {
          "internalType": "uint256",
          "name": "tokenId",
          "type": "uint256"
        }
      ],
      "name": "ownerOf",
      "outputs": [
        {
          "internalType": "address",
          "name": "",
          "type": "address"
        }
      ],
      "stateMutability": "view",
      "type": "function"
    },
    {
      "inputs": [],
      "name": "pastFees",
      "outputs": [
        {
          "internalType": "uint256",
          "name": "",
          "type": "uint256"
        }
      ],
      "stateMutability": "view",
      "type": "function"
    },
    {
      "inputs": [],
      "name": "pendingFees",
      "outputs": [
        {
          "internalType": "uint256",
          "name": "",
          "type": "uint256"
        }
      ],
      "stateMutability": "view",
      "type": "function"
    },
    {
      "inputs": [
        {
          "internalType": "address",
          "name": "depositor",
          "type": "address"
        },
        {
          "internalType": "uint256",
          "name": "trancheId",
          "type": "uint256"
        },
        {
          "internalType": "uint256",
          "name": "tokenAmount",
          "type": "uint256"
        }
      ],
      "name": "registerDepositFor",
      "outputs": [],
      "stateMutability": "nonpayable",
      "type": "function"
    },
    {
      "inputs": [
        {
          "internalType": "uint256",
          "name": "trancheId",
          "type": "uint256"
        },
        {
          "internalType": "uint256",
          "name": "repayAmount",
          "type": "uint256"
        }
      ],
      "name": "repay",
      "outputs": [],
      "stateMutability": "nonpayable",
      "type": "function"
    },
    {
      "inputs": [
        {
          "internalType": "uint256",
          "name": "trancheId",
          "type": "uint256"
        },
        {
          "internalType": "uint256",
          "name": "collateralAmount",
          "type": "uint256"
        },
        {
          "internalType": "uint256",
          "name": "repayAmount",
          "type": "uint256"
        },
        {
          "internalType": "address",
          "name": "recipient",
          "type": "address"
        }
      ],
      "name": "repayAndWithdraw",
      "outputs": [],
      "stateMutability": "nonpayable",
      "type": "function"
    },
    {
      "inputs": [
        {
          "internalType": "address",
          "name": "",
          "type": "address"
        },
        {
          "internalType": "uint256",
          "name": "",
          "type": "uint256"
        }
      ],
      "name": "roleCache",
      "outputs": [
        {
          "internalType": "bool",
          "name": "",
          "type": "bool"
        }
      ],
      "stateMutability": "view",
      "type": "function"
    },
    {
      "inputs": [],
      "name": "roles",
      "outputs": [
        {
          "internalType": "contract Roles",
          "name": "",
          "type": "address"
        }
      ],
      "stateMutability": "view",
      "type": "function"
    },
    {
      "inputs": [],
      "name": "rolesPlayed",
      "outputs": [
        {
          "internalType": "uint256[]",
          "name": "",
          "type": "uint256[]"
        }
      ],
      "stateMutability": "view",
      "type": "function"
    },
    {
      "inputs": [
        {
          "internalType": "address",
          "name": "from",
          "type": "address"
        },
        {
          "internalType": "address",
          "name": "to",
          "type": "address"
        },
        {
          "internalType": "uint256",
          "name": "tokenId",
          "type": "uint256"
        }
      ],
      "name": "safeTransferFrom",
      "outputs": [],
      "stateMutability": "nonpayable",
      "type": "function"
    },
    {
      "inputs": [
        {
          "internalType": "address",
          "name": "from",
          "type": "address"
        },
        {
          "internalType": "address",
          "name": "to",
          "type": "address"
        },
        {
          "internalType": "uint256",
          "name": "tokenId",
          "type": "uint256"
        },
        {
          "internalType": "bytes",
          "name": "_data",
          "type": "bytes"
        }
      ],
      "name": "safeTransferFrom",
      "outputs": [],
      "stateMutability": "nonpayable",
      "type": "function"
    },
    {
      "inputs": [
        {
          "internalType": "address",
          "name": "operator",
          "type": "address"
        },
        {
          "internalType": "bool",
          "name": "approved",
          "type": "bool"
        }
      ],
      "name": "setApprovalForAll",
      "outputs": [],
      "stateMutability": "nonpayable",
      "type": "function"
    },
    {
      "inputs": [
        {
          "internalType": "address",
          "name": "token",
          "type": "address"
        },
        {
          "internalType": "uint256",
          "name": "ceiling",
          "type": "uint256"
        }
      ],
      "name": "setAssetDebtCeiling",
      "outputs": [],
      "stateMutability": "nonpayable",
      "type": "function"
    },
    {
      "inputs": [
        {
          "internalType": "address",
          "name": "token",
          "type": "address"
        },
        {
          "internalType": "uint256",
          "name": "fee",
          "type": "uint256"
        }
      ],
      "name": "setFeesPer10k",
      "outputs": [],
      "stateMutability": "nonpayable",
      "type": "function"
    },
    {
      "inputs": [
        {
          "internalType": "uint256",
          "name": "period",
          "type": "uint256"
        }
      ],
      "name": "setUpdateTrackingPeriod",
      "outputs": [],
      "stateMutability": "nonpayable",
      "type": "function"
    },
    {
      "inputs": [],
      "name": "setupTrancheSlot",
      "outputs": [],
      "stateMutability": "nonpayable",
      "type": "function"
    },
    {
      "inputs": [
        {
          "internalType": "bytes4",
          "name": "interfaceId",
          "type": "bytes4"
        }
      ],
      "name": "supportsInterface",
      "outputs": [
        {
          "internalType": "bool",
          "name": "",
          "type": "bool"
        }
      ],
      "stateMutability": "view",
      "type": "function"
    },
    {
      "inputs": [],
      "name": "symbol",
      "outputs": [
        {
          "internalType": "string",
          "name": "",
          "type": "string"
        }
      ],
      "stateMutability": "view",
      "type": "function"
    },
    {
      "inputs": [
        {
          "internalType": "uint256",
          "name": "index",
          "type": "uint256"
        }
      ],
      "name": "tokenByIndex",
      "outputs": [
        {
          "internalType": "uint256",
          "name": "",
          "type": "uint256"
        }
      ],
      "stateMutability": "view",
      "type": "function"
    },
    {
      "inputs": [
        {
          "internalType": "address",
          "name": "owner",
          "type": "address"
        },
        {
          "internalType": "uint256",
          "name": "index",
          "type": "uint256"
        }
      ],
      "name": "tokenOfOwnerByIndex",
      "outputs": [
        {
          "internalType": "uint256",
          "name": "",
          "type": "uint256"
        }
      ],
      "stateMutability": "view",
      "type": "function"
    },
    {
      "inputs": [
        {
          "internalType": "uint256",
          "name": "tokenId",
          "type": "uint256"
        }
      ],
      "name": "tokenURI",
      "outputs": [
        {
          "internalType": "string",
          "name": "",
          "type": "string"
        }
      ],
      "stateMutability": "view",
      "type": "function"
    },
    {
      "inputs": [],
      "name": "totalSupply",
      "outputs": [
        {
          "internalType": "uint256",
          "name": "",
          "type": "uint256"
        }
      ],
      "stateMutability": "view",
      "type": "function"
    },
    {
      "inputs": [
        {
          "internalType": "uint256",
          "name": "",
          "type": "uint256"
        }
      ],
      "name": "trancheDebt",
      "outputs": [
        {
          "internalType": "uint256",
          "name": "",
          "type": "uint256"
        }
      ],
      "stateMutability": "view",
      "type": "function"
    },
    {
      "inputs": [
        {
          "internalType": "uint256",
          "name": "trancheId",
          "type": "uint256"
        }
      ],
      "name": "trancheToken",
      "outputs": [
        {
          "internalType": "address",
          "name": "",
          "type": "address"
        }
      ],
      "stateMutability": "view",
      "type": "function"
    },
    {
      "inputs": [
        {
          "internalType": "address",
          "name": "from",
          "type": "address"
        },
        {
          "internalType": "address",
          "name": "to",
          "type": "address"
        },
        {
          "internalType": "uint256",
          "name": "tokenId",
          "type": "uint256"
        }
      ],
      "name": "transferFrom",
      "outputs": [],
      "stateMutability": "nonpayable",
      "type": "function"
    },
    {
      "inputs": [
        {
          "internalType": "uint256",
          "name": "role",
          "type": "uint256"
        }
      ],
      "name": "updateMainCharacterCache",
      "outputs": [],
      "stateMutability": "nonpayable",
      "type": "function"
    },
    {
      "inputs": [
        {
          "internalType": "uint256",
          "name": "role",
          "type": "uint256"
        },
        {
          "internalType": "address",
          "name": "contr",
          "type": "address"
        }
      ],
      "name": "updateRoleCache",
      "outputs": [],
      "stateMutability": "nonpayable",
      "type": "function"
    },
    {
      "inputs": [],
      "name": "updateTrackingPeriod",
      "outputs": [
        {
          "internalType": "uint256",
          "name": "",
          "type": "uint256"
        }
      ],
      "stateMutability": "view",
      "type": "function"
    },
    {
      "inputs": [],
      "name": "viewAllDisabledTokenStrategyMetadata",
      "outputs": [
        {
          "components": [
            {
              "internalType": "uint256",
              "name": "debtCeiling",
              "type": "uint256"
            },
            {
              "internalType": "uint256",
              "name": "totalDebt",
              "type": "uint256"
            },
            {
              "internalType": "uint256",
              "name": "stabilityFee",
              "type": "uint256"
            },
            {
              "internalType": "uint256",
              "name": "mintingFee",
              "type": "uint256"
            },
            {
              "internalType": "address",
              "name": "strategy",
              "type": "address"
            },
            {
              "internalType": "address",
              "name": "token",
              "type": "address"
            },
            {
              "internalType": "uint256",
              "name": "APF",
              "type": "uint256"
            },
            {
              "internalType": "uint256",
              "name": "totalCollateral",
              "type": "uint256"
            },
            {
              "internalType": "uint256",
              "name": "borrowablePer10k",
              "type": "uint256"
            },
            {
              "internalType": "uint256",
              "name": "valuePer1e18",
              "type": "uint256"
            },
            {
              "internalType": "bytes32",
              "name": "strategyName",
              "type": "bytes32"
            },
            {
              "internalType": "uint256",
              "name": "tvl",
              "type": "uint256"
            },
            {
              "internalType": "uint256",
              "name": "harvestBalance2Tally",
              "type": "uint256"
            },
            {
              "internalType": "enum IStrategy.YieldType",
              "name": "yieldType",
              "type": "uint8"
            },
            {
              "internalType": "address",
              "name": "underlyingStrategy",
              "type": "address"
            }
          ],
          "internalType": "struct StableLending.ILStrategyMetadata[]",
          "name": "",
          "type": "tuple[]"
        }
      ],
      "stateMutability": "view",
      "type": "function"
    },
    {
      "inputs": [],
      "name": "viewAllFeesEver",
      "outputs": [
        {
          "internalType": "uint256",
          "name": "",
          "type": "uint256"
        }
      ],
      "stateMutability": "view",
      "type": "function"
    },
    {
      "inputs": [
        {
          "internalType": "address[]",
          "name": "tokens",
          "type": "address[]"
        }
      ],
      "name": "viewAllILMetadata",
      "outputs": [
        {
          "components": [
            {
              "internalType": "uint256",
              "name": "debtCeiling",
              "type": "uint256"
            },
            {
              "internalType": "uint256",
              "name": "totalDebt",
              "type": "uint256"
            },
            {
              "internalType": "uint256",
              "name": "mintingFee",
              "type": "uint256"
            },
            {
              "internalType": "uint256",
              "name": "borrowablePer10k",
              "type": "uint256"
            }
          ],
          "internalType": "struct StableLending.ILMetadata[]",
          "name": "",
          "type": "tuple[]"
        }
      ],
      "stateMutability": "view",
      "type": "function"
    },
    {
      "inputs": [],
      "name": "viewAllStrategyMetadata",
      "outputs": [
        {
          "components": [
            {
              "internalType": "uint256",
              "name": "debtCeiling",
              "type": "uint256"
            },
            {
              "internalType": "uint256",
              "name": "totalDebt",
              "type": "uint256"
            },
            {
              "internalType": "uint256",
              "name": "stabilityFee",
              "type": "uint256"
            },
            {
              "internalType": "uint256",
              "name": "mintingFee",
              "type": "uint256"
            },
            {
              "internalType": "address",
              "name": "strategy",
              "type": "address"
            },
            {
              "internalType": "address",
              "name": "token",
              "type": "address"
            },
            {
              "internalType": "uint256",
              "name": "APF",
              "type": "uint256"
            },
            {
              "internalType": "uint256",
              "name": "totalCollateral",
              "type": "uint256"
            },
            {
              "internalType": "uint256",
              "name": "borrowablePer10k",
              "type": "uint256"
            },
            {
              "internalType": "uint256",
              "name": "valuePer1e18",
              "type": "uint256"
            },
            {
              "internalType": "bytes32",
              "name": "strategyName",
              "type": "bytes32"
            },
            {
              "internalType": "uint256",
              "name": "tvl",
              "type": "uint256"
            },
            {
              "internalType": "uint256",
              "name": "harvestBalance2Tally",
              "type": "uint256"
            },
            {
              "internalType": "enum IStrategy.YieldType",
              "name": "yieldType",
              "type": "uint8"
            },
            {
              "internalType": "address",
              "name": "underlyingStrategy",
              "type": "address"
            }
          ],
          "internalType": "struct StableLending.ILStrategyMetadata[]",
          "name": "",
          "type": "tuple[]"
        }
      ],
      "stateMutability": "view",
      "type": "function"
    },
    {
      "inputs": [
        {
          "internalType": "uint256",
          "name": "trancheId",
          "type": "uint256"
        }
      ],
      "name": "viewBorrowable",
      "outputs": [
        {
          "internalType": "uint256",
          "name": "",
          "type": "uint256"
        }
      ],
      "stateMutability": "view",
      "type": "function"
    },
    {
      "inputs": [
        {
          "internalType": "uint256",
          "name": "trancheId",
          "type": "uint256"
        },
        {
          "internalType": "address",
          "name": "valueCurrency",
          "type": "address"
        }
      ],
      "name": "viewCollateralValue",
      "outputs": [
        {
          "internalType": "uint256",
          "name": "",
          "type": "uint256"
        }
      ],
      "stateMutability": "view",
      "type": "function"
    },
    {
      "inputs": [
        {
          "internalType": "uint256",
          "name": "trancheId",
          "type": "uint256"
        }
      ],
      "name": "viewCollateralValue",
      "outputs": [
        {
          "internalType": "uint256",
          "name": "",
          "type": "uint256"
        }
      ],
      "stateMutability": "view",
      "type": "function"
    },
    {
      "inputs": [
        {
          "internalType": "uint256",
          "name": "trancheId",
          "type": "uint256"
        }
      ],
      "name": "viewCurrentHoldingStrategy",
      "outputs": [
        {
          "internalType": "address",
          "name": "",
          "type": "address"
        }
      ],
      "stateMutability": "view",
      "type": "function"
    },
    {
      "inputs": [
        {
          "internalType": "address",
          "name": "token",
          "type": "address"
        }
      ],
      "name": "viewILMetadata",
      "outputs": [
        {
          "components": [
            {
              "internalType": "uint256",
              "name": "debtCeiling",
              "type": "uint256"
            },
            {
              "internalType": "uint256",
              "name": "totalDebt",
              "type": "uint256"
            },
            {
              "internalType": "uint256",
              "name": "mintingFee",
              "type": "uint256"
            },
            {
              "internalType": "uint256",
              "name": "borrowablePer10k",
              "type": "uint256"
            }
          ],
          "internalType": "struct StableLending.ILMetadata",
          "name": "",
          "type": "tuple"
        }
      ],
      "stateMutability": "view",
      "type": "function"
    },
    {
      "inputs": [
        {
          "internalType": "uint256",
          "name": "_trancheId",
          "type": "uint256"
        }
      ],
      "name": "viewPositionMetadata",
      "outputs": [
        {
          "components": [
            {
              "internalType": "uint256",
              "name": "trancheId",
              "type": "uint256"
            },
            {
              "internalType": "address",
              "name": "strategy",
              "type": "address"
            },
            {
              "internalType": "uint256",
              "name": "collateral",
              "type": "uint256"
            },
            {
              "internalType": "uint256",
              "name": "debt",
              "type": "uint256"
            },
            {
              "internalType": "address",
              "name": "token",
              "type": "address"
            },
            {
              "internalType": "uint256",
              "name": "yield",
              "type": "uint256"
            },
            {
              "internalType": "uint256",
              "name": "collateralValue",
              "type": "uint256"
            },
            {
              "internalType": "uint256",
              "name": "borrowablePer10k",
              "type": "uint256"
            },
            {
              "internalType": "address",
              "name": "owner",
              "type": "address"
            }
          ],
          "internalType": "struct StableLending.PositionMetadata",
          "name": "",
          "type": "tuple"
        }
      ],
      "stateMutability": "view",
      "type": "function"
    },
    {
      "inputs": [
        {
          "internalType": "address",
          "name": "owner",
          "type": "address"
        }
      ],
      "name": "viewPositionsByOwner",
      "outputs": [
        {
          "components": [
            {
              "internalType": "uint256",
              "name": "trancheId",
              "type": "uint256"
            },
            {
              "internalType": "address",
              "name": "strategy",
              "type": "address"
            },
            {
              "internalType": "uint256",
              "name": "collateral",
              "type": "uint256"
            },
            {
              "internalType": "uint256",
              "name": "debt",
              "type": "uint256"
            },
            {
              "internalType": "address",
              "name": "token",
              "type": "address"
            },
            {
              "internalType": "uint256",
              "name": "yield",
              "type": "uint256"
            },
            {
              "internalType": "uint256",
              "name": "collateralValue",
              "type": "uint256"
            },
            {
              "internalType": "uint256",
              "name": "borrowablePer10k",
              "type": "uint256"
            },
            {
              "internalType": "address",
              "name": "owner",
              "type": "address"
            }
          ],
          "internalType": "struct StableLending.PositionMetadata[]",
          "name": "",
          "type": "tuple[]"
        }
      ],
      "stateMutability": "view",
      "type": "function"
    },
    {
      "inputs": [
        {
          "internalType": "uint256",
          "name": "trackingPeriod",
          "type": "uint256"
        }
      ],
      "name": "viewPositionsByTrackingPeriod",
      "outputs": [
        {
          "components": [
            {
              "internalType": "uint256",
              "name": "trancheId",
              "type": "uint256"
            },
            {
              "internalType": "address",
              "name": "strategy",
              "type": "address"
            },
            {
              "internalType": "uint256",
              "name": "collateral",
              "type": "uint256"
            },
            {
              "internalType": "uint256",
              "name": "debt",
              "type": "uint256"
            },
            {
              "internalType": "address",
              "name": "token",
              "type": "address"
            },
            {
              "internalType": "uint256",
              "name": "yield",
              "type": "uint256"
            },
            {
              "internalType": "uint256",
              "name": "collateralValue",
              "type": "uint256"
            },
            {
              "internalType": "uint256",
              "name": "borrowablePer10k",
              "type": "uint256"
            },
            {
              "internalType": "address",
              "name": "owner",
              "type": "address"
            }
          ],
          "internalType": "struct StableLending.PositionMetadata[]",
          "name": "rows",
          "type": "tuple[]"
        }
      ],
      "stateMutability": "view",
      "type": "function"
    },
    {
      "inputs": [
        {
          "internalType": "uint256",
          "name": "trancheId",
          "type": "uint256"
        }
      ],
      "name": "viewTargetCollateralAmount",
      "outputs": [
        {
          "internalType": "uint256",
          "name": "",
          "type": "uint256"
        }
      ],
      "stateMutability": "view",
      "type": "function"
    },
    {
      "inputs": [
        {
          "internalType": "address",
          "name": "owner",
          "type": "address"
        }
      ],
      "name": "viewTranchesByOwner",
      "outputs": [
        {
          "internalType": "uint256[]",
          "name": "",
          "type": "uint256[]"
        }
      ],
      "stateMutability": "view",
      "type": "function"
    },
    {
      "inputs": [
        {
          "internalType": "uint256",
          "name": "trancheId",
          "type": "uint256"
        },
        {
          "internalType": "address",
          "name": "currency",
          "type": "address"
        }
      ],
      "name": "viewYield",
      "outputs": [
        {
          "internalType": "uint256",
          "name": "",
          "type": "uint256"
        }
      ],
      "stateMutability": "view",
      "type": "function"
    },
    {
      "inputs": [
        {
          "internalType": "uint256",
          "name": "trancheId",
          "type": "uint256"
        },
        {
          "internalType": "address",
          "name": "yieldCurrency",
          "type": "address"
        },
        {
          "internalType": "address",
          "name": "valueCurrency",
          "type": "address"
        }
      ],
      "name": "viewYieldCollateralValueBorrowable",
      "outputs": [
        {
          "internalType": "uint256",
          "name": "",
          "type": "uint256"
        },
        {
          "internalType": "uint256",
          "name": "",
          "type": "uint256"
        },
        {
          "internalType": "uint256",
          "name": "",
          "type": "uint256"
        }
      ],
      "stateMutability": "view",
      "type": "function"
    },
    {
      "inputs": [
        {
          "internalType": "uint256",
          "name": "trancheId",
          "type": "uint256"
        },
        {
          "internalType": "address",
          "name": "yieldCurrency",
          "type": "address"
        },
        {
          "internalType": "address",
          "name": "valueCurrency",
          "type": "address"
        }
      ],
      "name": "viewYieldValueBorrowable",
      "outputs": [
        {
          "internalType": "uint256",
          "name": "",
          "type": "uint256"
        },
        {
          "internalType": "uint256",
          "name": "",
          "type": "uint256"
        },
        {
          "internalType": "uint256",
          "name": "",
          "type": "uint256"
        }
      ],
      "stateMutability": "view",
      "type": "function"
    },
    {
      "inputs": [
        {
          "internalType": "uint256",
          "name": "trancheId",
          "type": "uint256"
        },
        {
          "internalType": "uint256",
          "name": "tokenAmount",
          "type": "uint256"
        },
        {
          "internalType": "address",
          "name": "yieldCurrency",
          "type": "address"
        },
        {
          "internalType": "address",
          "name": "recipient",
          "type": "address"
        }
      ],
      "name": "withdraw",
      "outputs": [],
      "stateMutability": "nonpayable",
      "type": "function"
    },
    {
      "inputs": [],
      "name": "withdrawFees",
      "outputs": [],
      "stateMutability": "nonpayable",
      "type": "function"
    }
  ],
  "transactionHash": "0x136aceea9c0a8966acdf5547f7172c195e4ed3a463ab2efeb132032112d53c09",
  "args": [
    "0x9e1EE00d45252aA58623F7d771FB414aA38f0878"
  ],
  "solcInputHash": "a3f5a7ec280504760474f1ac740ef4b2",
  "bytecode": "0x60a060405262093a806015553480156200001857600080fd5b506040516200638f3803806200638f8339810160408190526200003b916200034a565b6040518060400160405280601881526020017f4d6f72656d6f6e657920537461626c65204c656e64696e67000000000000000081525060405180604001604052806004815260200163135354d360e21b815250828083838160009080519060200190620000aa929190620002a4565b508051620000c0906001906020840190620002a4565b5050600d80546001818101835560057fd7b6990105719101dabeb77144f2a3385c8033acd3af97e9423a695e81ad1eb592830155600c8054808301825560697fdf6966c971051c3d54ec59162606531493a51404a002842f56009d7e5cf4a8c7918201558154808401909255606891015582548082018455600093909352910155506001600160a01b038116620001a85760405162461bcd60e51b815260206004820152602260248201527f506c656173652070726f766964652076616c696420726f6c6573206164647265604482015261737360f01b606482015260840160405180910390fd5b60601b6001600160601b0319166080525050600c805460018082018355606a7fdf6966c971051c3d54ec59162606531493a51404a002842f56009d7e5cf4a8c792830155600f8054808301825560047f8d1108e10bcb7c27dddfc02ed9d693a074039d026cf4ea4240b40f7d581ac802918201556012839055815480840183556003908201558454808401865560669085015581548084018355600290820155845480840190955560679490930193909355600e8054808301909155606f7fbb7b4a454dc3493923482f07822329ed19e8244eff582cc204f8554c3620c3fd909101558254808201845560009390935291015550620003b79050565b828054620002b2906200037a565b90600052602060002090601f016020900481019282620002d6576000855562000321565b82601f10620002f157805160ff191683800117855562000321565b8280016001018555821562000321579182015b828111156200032157825182559160200191906001019062000304565b506200032f92915062000333565b5090565b5b808211156200032f576000815560010162000334565b6000602082840312156200035c578081fd5b81516001600160a01b038116811462000373578182fd5b9392505050565b600181811c908216806200038f57607f821691505b60208210811415620003b157634e487b7160e01b600052602260045260246000fd5b50919050565b60805160601c615f96620003f96000396000818161060001528181610c97015281816116f601528181613d6001528181613df30152613e7a0152615f966000f3fe608060405234801561001057600080fd5b506004361061039a5760003560e01c80620a5ccf1461039f57806301ffc9a7146103c857806304c7e767146103eb57806306fdde031461040c578063071060a614610421578063081812fc1461043657806308754a7314610456578063095ea7b3146104775780630d6390441461048a5780630d749628146104aa5780630e3b95ff146104b2578063136f9cef146104d257806318160ddd146104fa57806321fa0f1f14610502578063224438d11461051757806323b872dd146105205780632642b6061461053357806328f3fc7314610567578063291e486f1461057a5780632972b0f01461059a5780632e25f5ea146105ad5780632f745c59146105b557806332935f44146105c857806335b176ab146105db578063392f5f64146105fb57806342842e0e14610622578063447d52ba14610635578063476343ee146106485780634a7a7f41146106505780634f6ccce7146106585780634f7dcffc1461066b57806361b9fea914610674578063621fdd37146106875780636352211e1461069a5780636caa9c11146106ad57806370a08231146106c057806371b3177a146106d35780637268d1c0146106e657806375161891146106f95780637609d7f61461072757806379bc3efa146107565780637a1a04df146107695780637dad209b146107975780638496e8911461079f5780638f132f11146107b257806391130d95146107bb57806393856b16146107db57806395d89b41146107ee578063983b42f7146107f65780639897fc2614610809578063a061ba5f1461081c578063a0a53c001461082f578063a22cb46514610842578063a2fb54ff14610855578063abcbc4fc14610868578063aeb38d8b1461087b578063b23d66c21461088e578063b25e25f4146108c6578063b88d4fde146108d9578063bf184ea4146108ec578063c5c72dc3146108ff578063c87b56dd14610912578063d8aed14514610925578063dc94cb7d14610938578063dee7ae7014610940578063e2bbb15814610960578063e670309c14610973578063e8ea4fae1461097b578063e985e9c514610983578063e9c3f77d14610996578063e9d07fe8146109bf578063eab92096146109d2578063ebc6353e146109e5578063f12ba381146109f8578063f6ee21bd14610a0b578063f8903fb714610a1e578063f9ed4cc014610a31578063fa98a4ba14610a5a578063fabee7db14610a6d578063fd80d0c314610a80578063fdf27f9e14610a93575b600080fd5b6103b26103ad366004614f08565b610aa6565b6040516103bf9190615b07565b60405180910390f35b6103db6103d6366004615580565b610b65565b60405190151581526020016103bf565b6103fe6103f9366004615073565b610b90565b6040519081526020016103bf565b610414610bef565b6040516103bf9190615b3f565b61043461042f3660046155eb565b610c81565b005b6104496104443660046155eb565b610d47565b6040516103bf91906158f8565b6104696104643660046155eb565b610dcf565b6040516103bf929190615959565b6104346104853660046150fe565b610df2565b6103fe6104983660046155eb565b60176020526000908152604090205481565b6103fe610f03565b6104c56104c0366004615193565b610f1a565b6040516103bf9190615972565b6104e56104e036600461543f565b611009565b604080519283526020830191909152016103bf565b6008546103fe565b61050a611122565b6040516103bf91906159c0565b6103fe60185481565b61043461052e366004614f78565b6111b3565b610449610541366004614f40565b60116020908152600092835260408084209091529082529020546001600160a01b031681565b610434610575366004614f40565b6111e4565b61058d6105883660046155eb565b6112d7565b6040516103bf9190615ce7565b6103db6105a83660046150fe565b611484565b61050a61157e565b6103fe6105c33660046150fe565b6115c2565b6103fe6105d636600461543f565b611658565b6103fe6105e93660046155eb565b60106020526000908152604090205481565b6104497f000000000000000000000000000000000000000000000000000000000000000081565b610434610630366004614f78565b6116c4565b61043461064336600461561b565b6116df565b6104346117b5565b6103b261181b565b6103fe6106663660046155eb565b611872565b6103fe60155481565b6104496106823660046155eb565b611913565b6104346106953660046157ac565b611b48565b6104496106a83660046155eb565b611bbd565b6103fe6106bb3660046155eb565b611c34565b6103fe6106ce366004614f08565b611c55565b6104346106e1366004615751565b611cdc565b6103fe6106f43660046155eb565b611d79565b61070c6107073660046154f8565b611e0b565b604080519384526020840192909252908201526060016103bf565b61070c610735366004614f08565b60166020526000908152604090208054600182015460029092015490919083565b6104346107643660046157ac565b611eba565b6103db6107773660046150fe565b600b60209081526000928352604080842090915290825290205460ff1681565b6103b2611f20565b61070c6107ad366004615675565b611f76565b6103fe60195481565b6107ce6107c9366004614f08565b612023565b6040516103bf9190615ac4565b6103fe6107e93660046156bc565b612117565b61041461214f565b6103fe610804366004615493565b61215e565b6103fe61081736600461561b565b61221f565b61043461082a3660046150fe565b61225c565b61050a61083d3660046151d2565b612380565b6104346108503660046150d1565b612577565b6104346108633660046155eb565b612582565b6103fe6108763660046155eb565b61266f565b6103fe6108893660046155eb565b61267f565b6108a161089c366004615675565b61268f565b604080516001600160a01b0390941684526020840192909252908201526060016103bf565b6103db6108d43660046155eb565b612870565b6104346108e7366004614fb8565b612927565b6103fe6108fa3660046155eb565b612959565b6103fe61090d3660046155eb565b612969565b6104146109203660046155eb565b6129f1565b61043461093336600461570d565b612ac9565b6103b2612af0565b61095361094e366004614f08565b612b46565b6040516103bf9190615cd9565b61043461096e36600461570d565b612ba9565b610434612be5565b6103b2612c61565b6103db610991366004614f40565b612cb7565b6104496109a43660046155eb565b600a602052600090815260409020546001600160a01b031681565b6104496109cd3660046155eb565b612ce5565b6104346109e03660046150fe565b612d7d565b61070c6109f336600461563f565b612e2e565b610434610a06366004615129565b612e4d565b6103fe610a193660046155eb565b612ec0565b6103fe610a2c36600461563f565b612ece565b610449610a3f3660046155eb565b6013602052600090815260409020546001600160a01b031681565b61070c610a6836600461563f565b612f66565b610449610a7b3660046155eb565b612fbd565b6103fe610a8e36600461561b565b612ff5565b6107ce610aa13660046155eb565b613085565b60606000610ab383611c55565b90506000816001600160401b03811115610add57634e487b7160e01b600052604160045260246000fd5b604051908082528060200260200182016040528015610b06578160200160208202803683370190505b50905060005b80831115610b5b57610b1e85826115c2565b828281518110610b3e57634e487b7160e01b600052603260045260246000fd5b602090810291909101015280610b5381615e69565b915050610b0c565b509150505b919050565b60006001600160e01b0319821663780e9d6360e01b1480610b8a5750610b8a82613161565b92915050565b600060026012541415610bbe5760405162461bcd60e51b8152600401610bb590615ca2565b60405180910390fd5b60026012556000610bd33382888a828a6131b1565b9050610be08185856133c2565b60016012559695505050505050565b606060008054610bfe90615e34565b80601f0160208091040260200160405190810160405280929190818152602001828054610c2a90615e34565b8015610c775780601f10610c4c57610100808354040283529160200191610c77565b820191906000526020600020905b815481529060010190602001808311610c5a57829003601f168201915b5050505050905090565b60405163b4ed0b6d60e01b8152600481018290527f00000000000000000000000000000000000000000000000000000000000000006001600160a01b03169063b4ed0b6d9060240160206040518083038186803b158015610ce157600080fd5b505afa158015610cf5573d6000803e3d6000fd5b505050506040513d601f19601f82011682018060405250810190610d199190614f24565b6000918252600a602052604090912080546001600160a01b0319166001600160a01b03909216919091179055565b6000610d5282613580565b610db35760405162461bcd60e51b815260206004820152602c60248201527f4552433732313a20617070726f76656420717565727920666f72206e6f6e657860448201526b34b9ba32b73a103a37b5b2b760a11b6064820152608401610bb5565b506000908152600460205260409020546001600160a01b031690565b600080610ddb83611bbd565b600093845260106020526040909320549293915050565b6000610dfd82611bbd565b9050806001600160a01b0316836001600160a01b03161415610e6b5760405162461bcd60e51b815260206004820152602160248201527f4552433732313a20617070726f76616c20746f2063757272656e74206f776e656044820152603960f91b6064820152608401610bb5565b336001600160a01b0382161480610e875750610e878133610991565b610ef45760405162461bcd60e51b815260206004820152603860248201527f4552433732313a20617070726f76652063616c6c6572206973206e6f74206f776044820152771b995c881b9bdc88185c1c1c9bdd995908199bdc88185b1b60421b6064820152608401610bb5565b610efe838361359d565b505050565b6000601854601954610f159190615da6565b905090565b60606000826001600160401b03811115610f4457634e487b7160e01b600052604160045260246000fd5b604051908082528060200260200182016040528015610f7d57816020015b610f6a614d5a565b815260200190600190039081610f625790505b50905060005b8084111561100157610fc3858583818110610fae57634e487b7160e01b600052603260045260246000fd5b905060200201602081019061094e9190614f08565b828281518110610fe357634e487b7160e01b600052603260045260246000fd5b60200260200101819052508080610ff990615e69565b915050610f83565b509392505050565b60008060008060005b8087111561110857600088888381811061103c57634e487b7160e01b600052603260045260246000fd5b60209081029290920135600081815260139093526040808420549051630a4d77f960e41b81529194508392506001600160a01b03169063a4d77f90906110889086908d90600401615cf6565b604080518083038186803b15801561109f57600080fd5b505afa1580156110b3573d6000803e3d6000fd5b505050506040513d601f19601f820116820180604052508101906110d7919061572e565b90925090506110e68183615dd2565b6110f09086615da6565b9450505050808061110090615e69565b915050611012565b50816111148183615dbe565b935093505050935093915050565b6060600061112e61360b565b6001600160a01b031663661d02ba6040518163ffffffff1660e01b815260040160006040518083038186803b15801561116657600080fd5b505afa15801561117a573d6000803e3d6000fd5b505050506040513d6000823e601f3d908101601f191682016040526111a29190810190615312565b90506111ad81612380565b91505090565b6111bd3382613643565b6111d95760405162461bcd60e51b8152600401610bb590615c22565b610efe838383613705565b6001600160a01b038281166000908152601160209081526040808320858516845290915290205416156112d35761121961389e565b6001600160a01b0316635e73a03483836040518363ffffffff1660e01b815260040161124692919061590c565b60206040518083038186803b15801561125e57600080fd5b505afa158015611272573d6000803e3d6000fd5b505050506040513d601f19601f820116820180604052508101906112969190614f24565b6001600160a01b0383811660009081526011602090815260408083208685168452909152902080546001600160a01b031916929091169190911790555b5050565b6112df614d82565b6000828152601360205260408120546001600160a01b031690808061130e866113066138d6565b6109f36138d6565b925092509250604051806101200160405280878152602001856001600160a01b03168152602001856001600160a01b031663c5c72dc3896040518263ffffffff1660e01b815260040161136391815260200190565b60206040518083038186803b15801561137b57600080fd5b505afa15801561138f573d6000803e3d6000fd5b505050506040513d601f19601f820116820180604052508101906113b39190615603565b81526000888152601760209081526040918290205490830152805163fabee7db60e01b8152600481018a90529101906001600160a01b0387169063fabee7db9060240160206040518083038186803b15801561140e57600080fd5b505afa158015611422573d6000803e3d6000fd5b505050506040513d601f19601f820116820180604052508101906114469190614f24565b6001600160a01b0316815260200184815260200183815260200182815260200161146f88611bbd565b6001600160a01b031690529695505050505050565b60008061149083611bbd565b90506114c0846001600160a01b03166000908152600b602090815260408083206005845290915290205460ff1690565b806114d057506114d08484613643565b8061157657506001600160a01b0381163b151580156115765750600083815260106020526040908190205490516302972b0f60e41b81526001600160a01b03831691632972b0f091611526918891600401615959565b60206040518083038186803b15801561153e57600080fd5b505afa158015611552573d6000803e3d6000fd5b505050506040513d601f19601f820116820180604052508101906115769190615564565b949350505050565b6060600061158a61360b565b6001600160a01b0316632e25f5ea6040518163ffffffff1660e01b815260040160006040518083038186803b15801561116657600080fd5b60006115cd83611c55565b821061162f5760405162461bcd60e51b815260206004820152602b60248201527f455243373231456e756d657261626c653a206f776e657220696e646578206f7560448201526a74206f6620626f756e647360a81b6064820152608401610bb5565b506001600160a01b03919091166000908152600660209081526040808320938352929052205490565b60008060005b808511156116bb57600086868381811061168857634e487b7160e01b600052603260045260246000fd5b90506020020135905061169b8186612ff5565b6116a59084615da6565b92505080806116b390615e69565b91505061165e565b50949350505050565b610efe83838360405180602001604052806000815250612927565b60405163f0723d9760e01b81526001600160a01b037f0000000000000000000000000000000000000000000000000000000000000000169063f0723d979061172d9084908690600401615959565b60206040518083038186803b15801561174557600080fd5b505afa158015611759573d6000803e3d6000fd5b505050506040513d601f19601f8201168201806040525081019061177d9190615564565b6001600160a01b03919091166000908152600b6020908152604080832094835293905291909120805460ff1916911515919091179055565b6117fb6117f36067600052600a6020527f3a9775934bfe5caa57284c734fe36fab39ffd0fbded5164be0e35e020de1994d546001600160a01b031690565b60185461390e565b6018546019600082825461180f9190615da6565b90915550506000601855565b6060600d805480602002602001604051908101604052809291908181526020018280548015610c7757602002820191906000526020600020905b815481526020019060010190808311611855575050505050905090565b600061187d60085490565b82106118e05760405162461bcd60e51b815260206004820152602c60248201527f455243373231456e756d657261626c653a20676c6f62616c20696e646578206f60448201526b7574206f6620626f756e647360a01b6064820152608401610bb5565b6008828154811061190157634e487b7160e01b600052603260045260246000fd5b90600052602060002001549050919050565b6000818152601360205260408120546001600160a01b03168161193461360b565b90506000816001600160a01b03166316a665e1846040518263ffffffff1660e01b815260040161196491906158f8565b60206040518083038186803b15801561197c57600080fd5b505afa158015611990573d6000803e3d6000fd5b505050506040513d601f19601f820116820180604052508101906119b49190614f24565b9050806001600160a01b0316836001600160a01b03161461157657611576858383866001600160a01b031663fabee7db8a6040518263ffffffff1660e01b8152600401611a0391815260200190565b60206040518083038186803b158015611a1b57600080fd5b505afa158015611a2f573d6000803e3d6000fd5b505050506040513d601f19601f82011682018060405250810190611a539190614f24565b604051631dc3a75960e01b8152600481018b90526001600160a01b03891690631dc3a7599060240160206040518083038186803b158015611a9357600080fd5b505afa158015611aa7573d6000803e3d6000fd5b505050506040513d601f19601f82011682018060405250810190611acb9190615603565b60405163c5c72dc360e01b8152600481018c90526001600160a01b038a169063c5c72dc39060240160206040518083038186803b158015611b0b57600080fd5b505afa158015611b1f573d6000803e3d6000fd5b505050506040513d601f19601f82011682018060405250810190611b439190615603565b613979565b60026012541415611b6b5760405162461bcd60e51b8152600401610bb590615ca2565b6002601255611b7a3385611484565b611b965760405162461bcd60e51b8152600401610bb590615bee565b8215611ba757611ba7338585613a24565b611bb28483836133c2565b505060016012555050565b6000818152600260205260408120546001600160a01b031680610b8a5760405162461bcd60e51b815260206004820152602960248201527f4552433732313a206f776e657220717565727920666f72206e6f6e657869737460448201526832b73a103a37b5b2b760b91b6064820152608401610bb5565b600f8181548110611c4457600080fd5b600091825260209091200154905081565b60006001600160a01b038216611cc05760405162461bcd60e51b815260206004820152602a60248201527f4552433732313a2062616c616e636520717565727920666f7220746865207a65604482015269726f206164647265737360b01b6064820152608401610bb5565b506001600160a01b031660009081526003602052604090205490565b60026012541415611cff5760405162461bcd60e51b8152600401610bb590615ca2565b6002601255611d0e3385611484565b611d2a5760405162461bcd60e51b8152600401610bb590615bee565b6001600160a01b038116611d6d5760405162461bcd60e51b815260206004820152600a6024820152692237b713ba10313ab93760b11b6044820152606401610bb5565b611bb284848484613ac6565b6000818152601360205260408082205490516301c9a34760e61b8152600481018490526001600160a01b03909116908190637268d1c0906024015b60206040518083038186803b158015611dcc57600080fd5b505afa158015611de0573d6000803e3d6000fd5b505050506040513d601f19601f82011682018060405250810190611e049190615603565b9392505050565b6000806000805b80881115611ea2576000898983818110611e3c57634e487b7160e01b600052603260045260246000fd5b9050602002013590506000806000611e56848c8c8c611f76565b91945092509050611e678389615da6565b9750611e738288615da6565b9650611e7f8282615dd2565b611e899087615da6565b9550505050508080611e9a90615e69565b915050611e12565b50611ead8282615dbe565b9050955095509592505050565b611ec43385611484565b611ee05760405162461bcd60e51b8152600401610bb590615bee565b600084815260176020526040902054611efa908390613afc565b9150611f07338584613b14565b611f1a8484611f146138d6565b84613ac6565b50505050565b6060600e805480602002602001604051908101604052809291908181526020018280548015610c775760200282019190600052602060002090815481526020019060010190808311611855575050505050905090565b600080600060026012541415611f9e5760405162461bcd60e51b8152600401610bb590615ca2565b6002601255611fad3388611484565b611fc95760405162461bcd60e51b8152600401610bb590615bee565b6000806000611fda8a8a8a8a613c0f565b60008d81526017602052604090205492955090935091508381841161200057600061200a565b61200a8285615df1565b6001601255909c909b5091995090975050505050505050565b6060600061203083610aa6565b9050600081516001600160401b0381111561205b57634e487b7160e01b600052604160045260246000fd5b60405190808252806020026020018201604052801561209457816020015b612081614d82565b8152602001906001900390816120795790505b50905060005b8083511115610b5b5760008382815181106120c557634e487b7160e01b600052603260045260246000fd5b602002602001015190506120d8816112d7565b8383815181106120f857634e487b7160e01b600052603260045260246000fd5b602002602001018190525050808061210f90615e69565b91505061209a565b60006002601254141561213c5760405162461bcd60e51b8152600401610bb590615ca2565b6002601255610be03387878787876131b1565b606060018054610bfe90615e34565b6000600260125414156121835760405162461bcd60e51b8152600401610bb590615ca2565b60026012556000805b808611156122105760008787838181106121b657634e487b7160e01b600052603260045260246000fd5b9050602002013590506121c93382611484565b6121e55760405162461bcd60e51b8152600401610bb590615bee565b6121f0818787613cb6565b6121fa9084615da6565b925050808061220890615e69565b91505061218c565b50600160125595945050505050565b6000828152601360205260408082205490516238f73f60e31b81526001600160a01b03909116906301c7b9f890611db49086908690600401615cf6565b33612265613d5c565b6001600160a01b0316148061228957503361227e613def565b6001600160a01b0316145b806122a3575033612298613e60565b6001600160a01b0316145b6123105760405162461bcd60e51b815260206004820152603860248201527f43616c6c6572206973206e6f7420746865206f776e65722c206578656375746f604482015277391037b91030baba3437b934bd32b2103234b9b0b13632b960411b6064820152608401610bb5565b6001600160a01b03821660008181526016602090815260409182902084905581516060808252600f908201526e185cdcd95d081919589d0818d95a5b608a1b6080820152908101929092528101829052600080516020615f418339815191529060a0015b60405180910390a15050565b6060600082516001600160401b038111156123ab57634e487b7160e01b600052604160045260246000fd5b6040519080825280602002602001820160405280156123e457816020015b6123d1614de9565b8152602001906001900390816123c95790505b50905060005b808251111561257057600082828151811061241557634e487b7160e01b600052603260045260246000fd5b60200260200101519050600085838151811061244157634e487b7160e01b600052603260045260246000fd5b60200260200101519050600061245a8260200151612b46565b805184526020808201518186015260408083015160608088019190915285516001600160a01b039081166080808a0191909152938701511660a0808901919091529186015160c0808901919091529086015160e0808901919091529286015161010080890191909152918601516101208089019190915290860151610140880152918501516101608701528401516101808601528301519091506101a0840190600281111561251957634e487b7160e01b600052602160045260246000fd5b9081600281111561253a57634e487b7160e01b600052602160045260246000fd5b90525050610140810151604083015261016001516001600160a01b03166101c0909101528061256881615e69565b9150506123ea565b5092915050565b6112d3338383613ec4565b3361258b613d5c565b6001600160a01b031614806125af5750336125a4613def565b6001600160a01b0316145b6125cb5760405162461bcd60e51b8152600401610bb590615b52565b8061260f5760405162461bcd60e51b8152602060048201526014602482015273506572696f642063616e2774206265207a65726f60601b6044820152606401610bb5565b601581905560408051818152600f818301526e1d1c9858dada5b99c81c195c9a5bd9608a1b60608201526020810183905290517f3a64504f0bc0c335e2aecb78638a257e0351a3fe0370861fd54ee4190b9209339181900360800190a150565b600c8181548110611c4457600080fd5b600e8181548110611c4457600080fd5b6000806000600260125414156126b75760405162461bcd60e51b8152600401610bb590615ca2565b60026012556126c63388611484565b61270e5760405162461bcd60e51b81526020600482015260196024820152786e6f7420617574686f72697a656420746f206d69677261746560381b6044820152606401610bb5565b61271661360b565b6001600160a01b031663b4d69757876040518263ffffffff1660e01b815260040161274191906158f8565b60206040518083038186803b15801561275957600080fd5b505afa15801561276d573d6000803e3d6000fd5b505050506040513d601f19601f820116820180604052508101906127919190615564565b6127ad5760405162461bcd60e51b8152600401610bb590615c73565b60006127b888611913565b60405163591eb36160e11b81529091506001600160a01b0382169063b23d66c2906127ed908b908b908b908b90600401615d2c565b606060405180830381600087803b15801561280757600080fd5b505af115801561281b573d6000803e3d6000fd5b505050506040513d601f19601f8201168201806040525081019061283f919061515d565b91955093509150612854888289878787613979565b61285d88613f8f565b5060016012819055509450945094915050565b60008181526017602052604081205461271081101561289a5761289283613ff0565b915050610b60565b60006128a46138d6565b905060008060006128b6878586612e2e565b925092509250600085831180156128d4575085670429d069189e0000115b80156128e05750600082115b806129015750600088815260176020526040902054612901908585856140b1565b9050808015612914575061291488613ff0565b9650505050505050610b60565b50919050565b6129313383613643565b61294d5760405162461bcd60e51b8152600401610bb590615c22565b611f1a848484846140df565b600d8181548110611c4457600080fd5b60008181526013602052604080822054905163c5c72dc360e01b8152600481018490526001600160a01b039091169063c5c72dc39060240160206040518083038186803b1580156129b957600080fd5b505afa1580156129cd573d6000803e3d6000fd5b505050506040513d601f19601f82011682018060405250810190610b8a9190615603565b60606129fc82613580565b612a605760405162461bcd60e51b815260206004820152602f60248201527f4552433732314d657461646174613a2055524920717565727920666f72206e6f60448201526e3732bc34b9ba32b73a103a37b5b2b760891b6064820152608401610bb5565b6000612a7760408051602081019091526000815290565b90506000815111612a975760405180602001604052806000815250611e04565b80612aa18461411f565b604051602001612ab29291906158c9565b604051602081830303815290604052915050919050565b600082815260176020526040902054612ae3908290613afc565b90506112d3338383613b14565b6060600c805480602002602001604051908101604052809291908181526020018280548015610c775760200282019190600052602060002090815481526020019060010190808311611855575050505050905090565b612b4e614d5a565b6001600160a01b038216600090815260166020526040812090612b798482612b746138d6565b614239565b60408051608081018252855481526002860154602082015260019095015490850152606084015250909392505050565b60026012541415612bcc5760405162461bcd60e51b8152600401610bb590615ca2565b6002601255612bdc338383613a24565b50506001601255565b612bed614386565b6001600160a01b031663e670309c6040518163ffffffff1660e01b81526004016040805180830381600087803b158015612c2657600080fd5b505af1158015612c3a573d6000803e3d6000fd5b505050506040513d601f19601f82011682018060405250810190612c5e91906155b8565b50565b6060600f805480602002602001604051908101604052809291908181526020018280548015610c775760200282019190600052602060002090815481526020019060010190808311611855575050505050905090565b6001600160a01b03918216600090815260056020908152604080832093909416825291909152205460ff1690565b6000612cef61360b565b600083815260136020526040908190205490516316a665e160e01b81526001600160a01b03928316926316a665e192612d2d929116906004016158f8565b60206040518083038186803b158015612d4557600080fd5b505afa158015612d59573d6000803e3d6000fd5b505050506040513d601f19601f82011682018060405250810190610b8a9190614f24565b33612d86613d5c565b6001600160a01b03161480612daa575033612d9f613def565b6001600160a01b0316145b612dc65760405162461bcd60e51b8152600401610bb590615b52565b6001600160a01b03821660008181526016602090815260409182902060010184905581516060808252600c908201526b66656573207065722031306b60a01b6080820152908101929092528101829052600080516020615f418339815191529060a001612374565b6000806000612e3e8686866143be565b92509250925093509350939050565b336000908152600b602090815260408083206001845290915290205460ff16612eb55760405162461bcd60e51b815260206004820152601a6024820152792ab730baba3437b934bd32b210333ab732103a3930b739b332b960311b6044820152606401610bb5565b610efe838383613a24565b6000610b8a826108176138d6565b600060026012541415612ef35760405162461bcd60e51b8152600401610bb590615ca2565b6002601255612f023385611484565b612f4e5760405162461bcd60e51b815260206004820181905260248201527f6e6f7420617574686f72697a656420746f207769746864726177207969656c646044820152606401610bb5565b612f59848484613cb6565b6001601255949350505050565b600080600080600080612f7a8989896143be565b60008c815260176020526040902054929550909350915083818411612fa0576000612faa565b612faa8285615df1565b909b909a50919850909650505050505050565b6000612fc882612ce5565b6001600160a01b031663fabee7db836040518263ffffffff1660e01b8152600401612d2d91815260200190565b60008281526013602052604080822054905163fd80d0c360e01b81526001600160a01b0390911690819063fd80d0c3906130359087908790600401615cf6565b60206040518083038186803b15801561304d57600080fd5b505afa158015613061573d6000803e3d6000fd5b505050506040513d601f19601f820116820180604052508101906115769190615603565b600081815260146020526040812060609161309f82614464565b9050806001600160401b038111156130c757634e487b7160e01b600052604160045260246000fd5b60405190808252806020026020018201604052801561310057816020015b6130ed614d82565b8152602001906001900390816130e55790505b50925060005b808211156131595761311b610588848361446e565b84828151811061313b57634e487b7160e01b600052603260045260246000fd5b6020026020010181905250808061315190615e69565b915050613106565b505050919050565b60006001600160e01b031982166380ac58cd60e01b148061319257506001600160e01b03198216635b5e139f60e01b145b80610b8a57506301ffc9a760e01b6001600160e01b0319831614610b8a565b60006131bb61360b565b6001600160a01b031663b4d69757866040518263ffffffff1660e01b81526004016131e691906158f8565b60206040518083038186803b1580156131fe57600080fd5b505afa158015613212573d6000803e3d6000fd5b505050506040513d601f19601f820116820180604052508101906132369190615564565b6132525760405162461bcd60e51b8152600401610bb590615c73565b61325a614386565b6001600160a01b031663ff1883486040518163ffffffff1660e01b8152600401602060405180830381600087803b15801561329457600080fd5b505af11580156132a8573d6000803e3d6000fd5b505050506040513d601f19601f820116820180604052508101906132cc9190615603565b600081815260136020908152604080832080546001600160a01b0319166001600160a01b038b1617905560109091529020879055905061330b8461447a565b61333787828860405160200161332391815260200190565b6040516020818303038152906040526144d7565b60405163b832799360e01b81526001600160a01b038881166004830152602482018390528581166044830152606482018590526084820184905286169063b83279939060a401600060405180830381600087803b15801561339757600080fd5b505af11580156133ab573d6000803e3d6000fd5b505050506133b881613f8f565b9695505050505050565b8115610efe5760006133d384611913565b60405163fabee7db60e01b8152600481018690529091506000906001600160a01b0383169063fabee7db9060240160206040518083038186803b15801561341957600080fd5b505afa15801561342d573d6000803e3d6000fd5b505050506040513d601f19601f820116820180604052508101906134519190614f24565b6001600160a01b03811660009081526016602052604081206001015491925061271061347d8784615dd2565b6134879190615dbe565b90506134938187615da6565b600088815260176020526040812080549091906134b1908490615da6565b90915550506001600160a01b03831660009081526016602052604090206134d88288615da6565b8160020160008282546134eb9190615da6565b909155505060028101548154101561353d5760405162461bcd60e51b815260206004820152601560248201527445786365656465642064656274206365696c696e6760581b6044820152606401610bb5565b816018600082825461354f9190615da6565b90915550600090506135608961450a565b905061357587613570838b615da6565b61390e565b505050505050505050565b6000908152600260205260409020546001600160a01b0316151590565b600081815260046020526040902080546001600160a01b0319166001600160a01b03841690811790915581906135d282611bbd565b6001600160a01b03167f8c5be1e5ebec7d5bd14f71427d1e84f3dd0314c0f7b2291e5b200ac8c7c3b92560405160405180910390a45050565b6068600052600a6020527f66b303669408d9c94249bd0aec443a05560d12df25504863342dfebd1199324c546001600160a01b031690565b600061364e82613580565b6136af5760405162461bcd60e51b815260206004820152602c60248201527f4552433732313a206f70657261746f7220717565727920666f72206e6f6e657860448201526b34b9ba32b73a103a37b5b2b760a11b6064820152608401610bb5565b60006136ba83611bbd565b9050806001600160a01b0316846001600160a01b031614806136f55750836001600160a01b03166136ea84610d47565b6001600160a01b0316145b8061157657506115768185612cb7565b826001600160a01b031661371882611bbd565b6001600160a01b0316146137805760405162461bcd60e51b815260206004820152602960248201527f4552433732313a207472616e73666572206f6620746f6b656e2074686174206960448201526839903737ba1037bbb760b91b6064820152608401610bb5565b6001600160a01b0382166137e25760405162461bcd60e51b8152602060048201526024808201527f4552433732313a207472616e7366657220746f20746865207a65726f206164646044820152637265737360e01b6064820152608401610bb5565b6137ed8383836146e1565b6137f860008261359d565b6001600160a01b0383166000908152600360205260408120805460019290613821908490615df1565b90915550506001600160a01b038216600090815260036020526040812080546001929061384f908490615da6565b909155505060008181526002602052604080822080546001600160a01b0319166001600160a01b038681169182179092559151849391871691600080516020615f2183398151915291a4505050565b606a600052600a6020527f491b44bb09274615d8e6106c97407042cd450d5681088027db2063ed5a7dd28c546001600160a01b031690565b6066600052600a6020527fa14e2711982fc1118598487104d6aa6aaca777a0683d64683335f0e52c01f75a546001600160a01b031690565b6139166138d6565b6001600160a01b03166340c10f1983836040518363ffffffff1660e01b8152600401613943929190615959565b600060405180830381600087803b15801561395d57600080fd5b505af1158015613971573d6000803e3d6000fd5b505050505050565b60405163459ba12760e01b8152600481018790526001600160a01b0386811660248301528481166044830152606482018490526084820183905285169063459ba1279060a401600060405180830381600087803b1580156139d957600080fd5b505af11580156139ed573d6000803e3d6000fd5b5050506000968752505060136020525050604090922080546001600160a01b0319166001600160a01b039093169290921790915550565b6000613a2f83611913565b9050806001600160a01b031663a50233c9858585613a4c88611bbd565b60405160e086901b6001600160e01b03191681526001600160a01b039485166004820152602481019390935260448301919091529091166064820152608401600060405180830381600087803b158015613aa557600080fd5b505af1158015613ab9573d6000803e3d6000fd5b50505050611f1a83613f8f565b8215611f1a576000613ad78561450a565b90508015613ae957613ae9828261390e565b613af58585858561479e565b5050505050565b600081831115613b0d575080610b8a565b5081610b8a565b8015610efe57613b24838261486f565b60008281526017602052604081208054839290613b42908490615df1565b9091555060009050613b5383611913565b60405163fabee7db60e01b8152600481018590529091506000906001600160a01b0383169063fabee7db9060240160206040518083038186803b158015613b9957600080fd5b505afa158015613bad573d6000803e3d6000fd5b505050506040513d601f19601f82011682018060405250810190613bd19190614f24565b6001600160a01b03811660009081526016602052604081206002810180549394509092869290613c02908490615df1565b9091555050505050505050565b600080600080613c1e88611913565b604051638496e89160e01b81529091506001600160a01b03821690638496e89190613c53908b908b908b908b90600401615d2c565b606060405180830381600087803b158015613c6d57600080fd5b505af1158015613c81573d6000803e3d6000fd5b505050506040513d601f19601f82011682018060405250810190613ca5919061577f565b935093509350509450945094915050565b600080613cc285611913565b90506000816001600160a01b031663f8903fb78787876040518463ffffffff1660e01b8152600401613cf693929190615d0d565b602060405180830381600087803b158015613d1057600080fd5b505af1158015613d24573d6000803e3d6000fd5b505050506040513d601f19601f82011682018060405250810190613d489190615603565b9050613d5386613f8f565b95945050505050565b60007f00000000000000000000000000000000000000000000000000000000000000006001600160a01b0316638da5cb5b6040518163ffffffff1660e01b815260040160206040518083038186803b158015613db757600080fd5b505afa158015613dcb573d6000803e3d6000fd5b505050506040513d601f19601f82011682018060405250810190610f159190614f24565b60007f00000000000000000000000000000000000000000000000000000000000000006001600160a01b031663c34c08e56040518163ffffffff1660e01b8152600401602060405180830381600087803b158015613e4c57600080fd5b505af1158015613dcb573d6000803e3d6000fd5b60405163b4ed0b6d60e01b81526103e960048201526000907f00000000000000000000000000000000000000000000000000000000000000006001600160a01b03169063b4ed0b6d9060240160206040518083038186803b158015613db757600080fd5b816001600160a01b0316836001600160a01b03161415613f225760405162461bcd60e51b815260206004820152601960248201527822a9219b99189d1030b8383937bb32903a379031b0b63632b960391b6044820152606401610bb5565b6001600160a01b03838116600081815260056020908152604080832094871680845294825291829020805460ff191686151590811790915591519182527f17307eab39ab6107e8899845ad3d59bd9653f200f220920489ca2b5937696c31910160405180910390a3505050565b613fc1816014600060155442613fa59190615dbe565b81526020019081526020016000206148a490919063ffffffff16565b5060405181907f416412a7d0788b77945ea2e2702f6edbb3fc8eabc407ed7b4132ab948a6962c190600090a250565b600080613ffc83611bbd565b90506001600160a01b0381163b156140a75760008381526010602052604090819020549051632c97897d60e21b815282916001600160a01b0383169163b25e25f49161404e9160040190815260200190565b60206040518083038186803b15801561406657600080fd5b505afa15801561407a573d6000803e3d6000fd5b505050506040513d601f19601f8201168201806040525081019061409e9190615564565b92505050610b60565b6001915050610b60565b60006140bf85612710615dd2565b826140ca8686615da6565b6140d49190615dd2565b101595945050505050565b6140eb848484846148b0565b80511561411657808060200190518101906141069190615603565b6000838152601060205260409020555b611f1a82613f8f565b60608161414457506040805180820190915260018152600360fc1b6020820152610b60565b8160005b811561416e578061415881615e69565b91506141679050600a83615dbe565b9150614148565b6000816001600160401b0381111561419657634e487b7160e01b600052604160045260246000fd5b6040519080825280601f01601f1916602001820160405280156141c0576020820181803683370190505b5090505b8415611576576141d5600183615df1565b91506141e2600a86615e84565b6141ed906030615da6565b60f81b81838151811061421057634e487b7160e01b600052603260045260246000fd5b60200101906001600160f81b031916908160001a905350614232600a86615dbe565b94506141c4565b6001600160a01b03808416600090815260116020908152604080832085851684529091528120549091829116806142f25761427261389e565b6001600160a01b0316635e73a03487866040518363ffffffff1660e01b815260040161429f92919061590c565b60206040518083038186803b1580156142b757600080fd5b505afa1580156142cb573d6000803e3d6000fd5b505050506040513d601f19601f820116820180604052508101906142ef9190614f24565b90505b6040516313f3552960e21b81526001600160a01b038781166004830152602482018790528581166044830152821690634fcd54a490606401604080518083038186803b15801561434157600080fd5b505afa158015614355573d6000803e3d6000fd5b505050506040513d601f19601f82011682018060405250810190614379919061572e565b9097909650945050505050565b6069600052600a6020527fe4e9675aa3466ea9ab37f11eba586a16aaf52d4293b57ad72d46715c0e7a4575546001600160a01b031690565b600083815260136020526040808220549051637d4c525d60e11b8152829182916001600160a01b0390911690819063fa98a4ba90614404908a908a908a90600401615d0d565b60606040518083038186803b15801561441c57600080fd5b505afa158015614430573d6000803e3d6000fd5b505050506040513d601f19601f82011682018060405250810190614454919061577f565b9350935093505093509350939050565b6000610b8a825490565b6000611e0483836148e3565b6001600160a01b038116600090815260166020526040902054612c5e5760405162461bcd60e51b8152602060048201526015602482015274151bdad95b881b9bdd081dda1a5d195b1a5cdd1959605a1b6044820152606401610bb5565b6144e1838361491b565b6144ee6000848484614a47565b610efe5760405162461bcd60e51b8152600401610bb590615b9c565b600081815260176020526040812054816145226138d6565b9050600080600061453587858630613c0f565b925092509250614547858484846140b1565b61458f5760405162461bcd60e51b8152602060048201526019602482015278426f726f7720627265616b73206d696e20636f6c726174696f60381b6044820152606401610bb5565b600061459a88611913565b60405163fabee7db60e01b8152600481018a90529091506000906001600160a01b0383169063fabee7db9060240160206040518083038186803b1580156145e057600080fd5b505afa1580156145f4573d6000803e3d6000fd5b505050506040513d601f19601f820116820180604052508101906146189190614f24565b9050868511156146765760008981526017602052604081205561463b8786615df1565b6001600160a01b03821660009081526016602052604081206002018054929a50899290919061466b908490615df1565b909155506146c59050565b6146808588615df1565b60008a8152601760209081526040808320939093556001600160a01b038416825260169052908120600201805491995086918a906146bf908490615df1565b90915550505b84156146d5576146d5308661486f565b50505050505050919050565b6001600160a01b03831661473c5761473781600880546000838152600960205260408120829055600182018355919091527ff3f7a9fe364faab93b216da50a3214154f22a0a2b415b23a84c8169e8b636ee30155565b61475f565b816001600160a01b0316836001600160a01b03161461475f5761475f8382614b51565b6001600160a01b03821661477b5761477681614bee565b610efe565b826001600160a01b0316826001600160a01b031614610efe57610efe8282614cc7565b60006147a985611913565b6040516338d98bbd60e11b815260048101879052602481018690526001600160a01b0385811660448301528481166064830152919250908216906371b3177a90608401600060405180830381600087803b15801561480657600080fd5b505af115801561481a573d6000803e3d6000fd5b5050505061482785612870565b6148665760405162461bcd60e51b815260206004820152601060248201526f5472616e63686520756e766961626c6560801b6044820152606401610bb5565b613af585613f8f565b6148776138d6565b6001600160a01b0316639dc29fac83836040518363ffffffff1660e01b8152600401613943929190615959565b6000611e048383614d0b565b6148bb848484613705565b6148c784848484614a47565b611f1a5760405162461bcd60e51b8152600401610bb590615b9c565b600082600001828154811061490857634e487b7160e01b600052603260045260246000fd5b9060005260206000200154905092915050565b6001600160a01b0382166149715760405162461bcd60e51b815260206004820181905260248201527f4552433732313a206d696e7420746f20746865207a65726f20616464726573736044820152606401610bb5565b61497a81613580565b156149c65760405162461bcd60e51b815260206004820152601c60248201527b115490cdcc8c4e881d1bdad95b88185b1c9958591e481b5a5b9d195960221b6044820152606401610bb5565b6149d2600083836146e1565b6001600160a01b03821660009081526003602052604081208054600192906149fb908490615da6565b909155505060008181526002602052604080822080546001600160a01b0319166001600160a01b0386169081179091559051839290600080516020615f21833981519152908290a45050565b60006001600160a01b0384163b15614b4957604051630a85bd0160e11b81526001600160a01b0385169063150b7a0290614a8b903390899088908890600401615926565b602060405180830381600087803b158015614aa557600080fd5b505af1925050508015614ad5575060408051601f3d908101601f19168201909252614ad29181019061559c565b60015b614b2f573d808015614b03576040519150601f19603f3d011682016040523d82523d6000602084013e614b08565b606091505b508051614b275760405162461bcd60e51b8152600401610bb590615b9c565b805181602001fd5b6001600160e01b031916630a85bd0160e11b149050611576565b506001611576565b60006001614b5e84611c55565b614b689190615df1565b600083815260076020526040902054909150808214614bbb576001600160a01b03841660009081526006602090815260408083208584528252808320548484528184208190558352600790915290208190555b5060009182526007602090815260408084208490556001600160a01b039094168352600681528383209183525290812055565b600854600090614c0090600190615df1565b60008381526009602052604081205460088054939450909284908110614c3657634e487b7160e01b600052603260045260246000fd5b906000526020600020015490508060088381548110614c6557634e487b7160e01b600052603260045260246000fd5b6000918252602080832090910192909255828152600990915260408082208490558582528120556008805480614cab57634e487b7160e01b600052603160045260246000fd5b6001900381819060005260206000200160009055905550505050565b6000614cd283611c55565b6001600160a01b039093166000908152600660209081526040808320868452825280832085905593825260079052919091209190915550565b6000818152600183016020526040812054614d5257508154600181810184556000848152602080822090930184905584548482528286019093526040902091909155610b8a565b506000610b8a565b6040518060800160405280600081526020016000815260200160008152602001600081525090565b6040518061012001604052806000815260200160006001600160a01b03168152602001600081526020016000815260200160006001600160a01b0316815260200160008152602001600081526020016000815260200160006001600160a01b031681525090565b604051806101e001604052806000815260200160008152602001600081526020016000815260200160006001600160a01b0316815260200160006001600160a01b031681526020016000815260200160008152602001600081526020016000815260200160008019168152602001600081526020016000815260200160006002811115614e8657634e487b7160e01b600052602160045260246000fd5b8152600060209091015290565b8035610b6081615eda565b8051610b6081615eda565b60008083601f840112614eba578182fd5b5081356001600160401b03811115614ed0578182fd5b6020830191508360208260051b8501011115614eeb57600080fd5b9250929050565b8035610b6081615f13565b8051610b6081615f13565b600060208284031215614f19578081fd5b8135611e0481615eda565b600060208284031215614f35578081fd5b8151611e0481615eda565b60008060408385031215614f52578081fd5b8235614f5d81615eda565b91506020830135614f6d81615eda565b809150509250929050565b600080600060608486031215614f8c578081fd5b8335614f9781615eda565b92506020840135614fa781615eda565b929592945050506040919091013590565b60008060008060808587031215614fcd578182fd5b8435614fd881615eda565b9350602085810135614fe981615eda565b93506040860135925060608601356001600160401b038082111561500b578384fd5b818801915088601f83011261501e578384fd5b81358181111561503057615030615ec4565b615042601f8201601f19168501615d53565b91508082528984828501011115615057578485fd5b8084840185840137810190920192909252939692955090935050565b600080600080600060a0868803121561508a578283fd5b853561509581615eda565b945060208601356150a581615eda565b9350604086013592506060860135915060808601356150c381615eda565b809150509295509295909350565b600080604083850312156150e3578182fd5b82356150ee81615eda565b91506020830135614f6d81615eef565b60008060408385031215615110578182fd5b823561511b81615eda565b946020939093013593505050565b60008060006060848603121561513d578081fd5b833561514881615eda565b95602085013595506040909401359392505050565b600080600060608486031215615171578081fd5b835161517c81615eda565b602085015160409095015190969495509392505050565b600080602083850312156151a5578182fd5b82356001600160401b038111156151ba578283fd5b6151c685828601614ea9565b90969095509350505050565b600060208083850312156151e4578182fd5b82356001600160401b038111156151f9578283fd5b8301601f81018513615209578283fd5b803561521c61521782615d83565b615d53565b81815283810190838501610180808502860187018a101561523b578788fd5b8795505b848610156153045780828b031215615255578788fd5b61525e81615d53565b61526783614e93565b8152615274888401614e93565b8189015260408381013590820152606080840135908201526080808401359082015260a0808401359082015260c0808401359082015260e0808401359082015261010080840135908201526101206152cd818501614ef2565b9082015261014083810135908201526101606152ea818501614e93565b90820152845260019590950194928601929081019061523f565b509098975050505050505050565b60006020808385031215615324578182fd5b82516001600160401b03811115615339578283fd5b8301601f81018513615349578283fd5b805161535761521782615d83565b81815283810190838501610180808502860187018a1015615376578788fd5b8795505b848610156153045780828b031215615390578788fd5b61539981615d53565b6153a283614e9e565b81526153af888401614e9e565b8189015260408381015190820152606080840151908201526080808401519082015260a0808401519082015260c0808401519082015260e080840151908201526101008084015190820152610120615408818501614efd565b908201526101408381015190820152610160615425818501614e9e565b90820152845260019590950194928601929081019061537a565b600080600060408486031215615453578081fd5b83356001600160401b03811115615468578182fd5b61547486828701614ea9565b909450925050602084013561548881615eda565b809150509250925092565b600080600080606085870312156154a8578182fd5b84356001600160401b038111156154bd578283fd5b6154c987828801614ea9565b90955093505060208501356154dd81615eda565b915060408501356154ed81615eda565b939692955090935050565b60008060008060006080868803121561550f578283fd5b85356001600160401b03811115615524578384fd5b61553088828901614ea9565b909650945050602086013561554481615eda565b9250604086013561555481615eda565b915060608601356150c381615eda565b600060208284031215615575578081fd5b8151611e0481615eef565b600060208284031215615591578081fd5b8135611e0481615efd565b6000602082840312156155ad578081fd5b8151611e0481615efd565b6000604082840312156155c9578081fd5b6155d36040615d53565b82518152602083015160208201528091505092915050565b6000602082840312156155fc578081fd5b5035919050565b600060208284031215615614578081fd5b5051919050565b6000806040838503121561562d578182fd5b823591506020830135614f6d81615eda565b600080600060608486031215615653578081fd5b83359250602084013561566581615eda565b9150604084013561548881615eda565b6000806000806080858703121561568a578182fd5b84359350602085013561569c81615eda565b925060408501356156ac81615eda565b915060608501356154ed81615eda565b600080600080600060a086880312156156d3578283fd5b8535945060208601356156e581615eda565b935060408601356156f581615eda565b94979396509394606081013594506080013592915050565b6000806040838503121561571f578182fd5b50508035926020909101359150565b60008060408385031215615740578182fd5b505080516020909101519092909150565b60008060008060808587031215615766578182fd5b843593506020850135925060408501356156ac81615eda565b600080600060608486031215615793578081fd5b8351925060208401519150604084015190509250925092565b600080600080608085870312156157c1578182fd5b84359350602085013592506040850135915060608501356154ed81615eda565b6001600160a01b03169052565b60008151808452615806816020860160208601615e08565b601f01601f19169290920160200192915050565b6003811061583857634e487b7160e01b600052602160045260246000fd5b9052565b805182526020810151602083015260408101516040830152606081015160608301525050565b805182526020808201516001600160a01b0390811691840191909152604080830151908401526060808301519084015260808083015182169084015260a0808301519084015260c0808301519084015260e080830151908401526101009182015116910152565b600083516158db818460208801615e08565b8351908301906158ef818360208801615e08565b01949350505050565b6001600160a01b0391909116815260200190565b6001600160a01b0392831681529116602082015260400190565b6001600160a01b03858116825284166020820152604081018390526080606082018190526000906133b8908301846157ee565b6001600160a01b03929092168252602082015260400190565b6020808252825182820181905260009190848201906040850190845b818110156159b4576159a183855161583c565b928401926080929092019160010161598e565b50909695505050505050565b602080825282518282018190526000919060409081850190868401855b82811015615ab7578151805185528681015187860152858101518686015260608082015190860152608080820151615a17828801826157e1565b505060a080820151615a2b828801826157e1565b505060c0818101519086015260e08082015190860152610100808201519086015261012080820151908601526101408082015190860152610160808201519086015261018080820151908601526101a080820151615a8b8288018261581a565b50506101c09081015190615aa1868201836157e1565b50506101e09390930192908501906001016159dd565b5091979650505050505050565b6020808252825182820181905260009190848201906040850190845b818110156159b457615af3838551615862565b928401926101209290920191600101615ae0565b6020808252825182820181905260009190848201906040850190845b818110156159b457835183529284019291840191600101615b23565b600060208252611e0460208301846157ee565b6020808252602a908201527f526f6c65733a2063616c6c6572206973206e6f7420746865206f776e6572206f604082015269391032bc32b1baba37b960b11b606082015260800190565b60208082526032908201527f4552433732313a207472616e7366657220746f206e6f6e20455243373231526560408201527131b2b4bb32b91034b6b83632b6b2b73a32b960711b606082015260800190565b6020808252601a90820152796e6f7420617574686f72697a656420746f20776974686472617760301b604082015260600190565b60208082526031908201527f4552433732313a207472616e736665722063616c6c6572206973206e6f74206f6040820152701ddb995c881b9bdc88185c1c1c9bdd9959607a1b606082015260800190565b60208082526015908201527414dd1c985d1959de481b9bdd08185c1c1c9bdd9959605a1b604082015260600190565b6020808252601f908201527f5265656e7472616e637947756172643a207265656e7472616e742063616c6c00604082015260600190565b60808101610b8a828461583c565b6101208101610b8a8284615862565b9182526001600160a01b0316602082015260400190565b9283526001600160a01b03918216602084015216604082015260600190565b9384526001600160a01b039283166020850152908216604084015216606082015260800190565b604051601f8201601f191681016001600160401b0381118282101715615d7b57615d7b615ec4565b604052919050565b60006001600160401b03821115615d9c57615d9c615ec4565b5060051b60200190565b60008219821115615db957615db9615e98565b500190565b600082615dcd57615dcd615eae565b500490565b6000816000190483118215151615615dec57615dec615e98565b500290565b600082821015615e0357615e03615e98565b500390565b60005b83811015615e23578181015183820152602001615e0b565b83811115611f1a5750506000910152565b600181811c90821680615e4857607f821691505b6020821081141561292157634e487b7160e01b600052602260045260246000fd5b6000600019821415615e7d57615e7d615e98565b5060010190565b600082615e9357615e93615eae565b500690565b634e487b7160e01b600052601160045260246000fd5b634e487b7160e01b600052601260045260246000fd5b634e487b7160e01b600052604160045260246000fd5b6001600160a01b0381168114612c5e57600080fd5b8015158114612c5e57600080fd5b6001600160e01b031981168114612c5e57600080fd5b60038110612c5e57600080fdfeddf252ad1be2c89b69c2b068fc378daa952ba7f163c4a11628f55a4df523b3ef2cc0b19d71980380c7a99113dc265ee16b9f7f394e2a42085ab6877482a7f822a2646970667358221220c43801e9267e50e0b280e74c0eb8dc314a5bbc2b75e52d078d6f5bda1d9bc86064736f6c63430008030033",
  "devdoc": {
    "kind": "dev",
    "methods": {
      "approve(address,uint256)": {
        "details": "See {IERC721-approve}."
      },
      "balanceOf(address)": {
        "details": "See {IERC721-balanceOf}."
      },
      "charactersPlayed()": {
        "details": "returns all characters played by this contract (e.g. stable coin, oracle registry)"
      },
      "dependsOnCharacters()": {
        "details": "returns all the character dependencies like FEE_RECIPIENT"
      },
      "dependsOnRoles()": {
        "details": "returns all the roles dependencies of this contract like FUND_TRANSFERER"
      },
      "getApproved(uint256)": {
        "details": "See {IERC721-getApproved}."
      },
      "isApprovedForAll(address,address)": {
        "details": "See {IERC721-isApprovedForAll}."
      },
      "name()": {
        "details": "See {IERC721Metadata-name}."
      },
      "ownerOf(uint256)": {
        "details": "See {IERC721-ownerOf}."
      },
      "rolesPlayed()": {
        "details": "returns all roles played by this contract"
      },
      "safeTransferFrom(address,address,uint256)": {
        "details": "See {IERC721-safeTransferFrom}."
      },
      "safeTransferFrom(address,address,uint256,bytes)": {
        "details": "See {IERC721-safeTransferFrom}."
      },
      "setApprovalForAll(address,bool)": {
        "details": "See {IERC721-setApprovalForAll}."
      },
      "supportsInterface(bytes4)": {
        "details": "See {IERC165-supportsInterface}."
      },
      "symbol()": {
        "details": "See {IERC721Metadata-symbol}."
      },
      "tokenByIndex(uint256)": {
        "details": "See {IERC721Enumerable-tokenByIndex}."
      },
      "tokenOfOwnerByIndex(address,uint256)": {
        "details": "See {IERC721Enumerable-tokenOfOwnerByIndex}."
      },
      "tokenURI(uint256)": {
        "details": "See {IERC721Metadata-tokenURI}."
      },
      "totalSupply()": {
        "details": "See {IERC721Enumerable-totalSupply}."
      },
      "transferFrom(address,address,uint256)": {
        "details": "See {IERC721-transferFrom}."
      },
      "updateMainCharacterCache(uint256)": {
        "details": "Updates the main character cache for a speciic character"
      },
      "updateRoleCache(uint256,address)": {
        "details": "Updates the role cache for a specific role and address"
      }
    },
    "version": 1
  },
  "userdoc": {
    "kind": "user",
    "methods": {
      "augmentStratMetadata((address,address,uint256,uint256,uint256,uint256,bytes32,uint256,uint256,uint8,uint256,address)[])": {
        "notice": "Amalgamate lending metadata with strategy metadata"
      },
      "batchCollectYield(uint256[],address,address)": {
        "notice": "Collect yield in a batch"
      },
      "batchCollectYieldValueBorrowable(uint256[],address,address,address)": {
        "notice": "Collect yield and view value and borrowable jointly and in weighted avg."
      },
      "batchViewValueBorrowable(uint256[],address)": {
        "notice": "View value, and borrowable (average weighted by value) for a batch, jointly"
      },
      "batchViewYield(uint256[],address)": {
        "notice": "View yield jointly in a batch"
      },
      "collectYield(uint256,address,address)": {
        "notice": "Disburse yield in tranche to recipient"
      },
      "collectYieldValueBorrowable(uint256,address,address,address)": {
        "notice": "Collect yield and view value and borrowable per 10k"
      },
      "containedIn(uint256)": {
        "notice": "Allows for tokens to have not just an owner address, but also container within the owner contract which they belong to"
      },
      "deposit(uint256,uint256)": {
        "notice": "Deposit more collateral to the tranche"
      },
      "depositAndBorrow(uint256,uint256,uint256,address)": {
        "notice": "Deposit collateral to an existing tranche and borrow"
      },
      "getCurrentHoldingStrategy(uint256)": {
        "notice": "Retrieve current strategy and update if necessary"
      },
      "isAuthorized(address,uint256)": {
        "notice": "Check that spender is approved, owner or approved for container"
      },
      "isViable(uint256)": {
        "notice": "Check CDP against target colRatio give a pass on very small positions"
      },
      "migrateStrategy(uint256,address,address,address)": {
        "notice": "Migrate assets from one strategy to another, collecting yield if any"
      },
      "mintDepositAndBorrow(address,address,uint256,uint256,address)": {
        "notice": "Open a new CDP with collateral deposit to a strategy and borrowing"
      },
      "mintTranche(uint256,address,address,uint256,uint256)": {
        "notice": "Mint a new tranche"
      },
      "newCurrentOracle(address,address)": {
        "notice": "Notify contract to update oracle cache"
      },
      "registerDepositFor(address,uint256,uint256)": {
        "notice": "Endpoint for authorized fund transferer to deposit on behalf of user"
      },
      "repay(uint256,uint256)": {
        "notice": "Only repay a loan"
      },
      "repayAndWithdraw(uint256,uint256,uint256,address)": {
        "notice": "Repay loan and withdraw collateral"
      },
      "setAssetDebtCeiling(address,uint256)": {
        "notice": "Set the debt ceiling for an asset"
      },
      "setFeesPer10k(address,uint256)": {
        "notice": "Set minting fee per an asset"
      },
      "setUpdateTrackingPeriod(uint256)": {
        "notice": "Set update tracking period"
      },
      "setupTrancheSlot()": {
        "notice": "Set up an ID slot for this tranche with the id service"
      },
      "viewAllDisabledTokenStrategyMetadata()": {
        "notice": "View disabled token strategy metadata"
      },
      "viewAllFeesEver()": {
        "notice": "All fees ever"
      },
      "viewAllILMetadata(address[])": {
        "notice": "View all lending metadata for all assets"
      },
      "viewAllStrategyMetadata()": {
        "notice": "View an amalgamation of all lending and all strategy metadata"
      },
      "viewBorrowable(uint256)": {
        "notice": "View borrowable per 10k of tranche"
      },
      "viewCollateralValue(uint256)": {
        "notice": "View collateral value in our stable"
      },
      "viewCollateralValue(uint256,address)": {
        "notice": "View collateral value"
      },
      "viewCurrentHoldingStrategy(uint256)": {
        "notice": "View which strategy should be holding assets for a tranche, taking into account global migrations"
      },
      "viewILMetadata(address)": {
        "notice": "View lending metadata for an asset as a whole"
      },
      "viewPositionMetadata(uint256)": {
        "notice": "View metadata for one position"
      },
      "viewPositionsByOwner(address)": {
        "notice": "View the metadata for all the positions held by an address"
      },
      "viewPositionsByTrackingPeriod(uint256)": {
        "notice": "View the metadata for all positions updated in a timeframe"
      },
      "viewTargetCollateralAmount(uint256)": {
        "notice": "Collateral amount in tranche"
      },
      "viewTranchesByOwner(address)": {
        "notice": "View all the tranches of an owner"
      },
      "viewYield(uint256,address)": {
        "notice": "View accrued yield in a tranche"
      },
      "viewYieldCollateralValueBorrowable(uint256,address,address)": {
        "notice": "Value restricted to collateral value"
      },
      "viewYieldValueBorrowable(uint256,address,address)": {
        "notice": "View yield value and borrowable together"
      },
      "withdraw(uint256,uint256,address,address)": {
        "notice": "Withdraw tokens from tranche, checing viability"
      },
      "withdrawFees()": {
        "notice": "Disburse minting fee to feeRecipient"
      }
    },
    "notice": "Centerpiece of CDP: lending minted stablecoin against collateral Collateralized debt positions are expressed as ERC721 tokens (via Tranche)",
    "version": 1
  },
  "storageLayout": {
    "storage": [
      {
        "astId": 1522,
        "contract": "contracts/StableLending.sol:StableLending",
        "label": "_name",
        "offset": 0,
        "slot": "0",
        "type": "t_string_storage"
      },
      {
        "astId": 1524,
        "contract": "contracts/StableLending.sol:StableLending",
        "label": "_symbol",
        "offset": 0,
        "slot": "1",
        "type": "t_string_storage"
      },
      {
        "astId": 1528,
        "contract": "contracts/StableLending.sol:StableLending",
        "label": "_owners",
        "offset": 0,
        "slot": "2",
        "type": "t_mapping(t_uint256,t_address)"
      },
      {
        "astId": 1532,
        "contract": "contracts/StableLending.sol:StableLending",
        "label": "_balances",
        "offset": 0,
        "slot": "3",
        "type": "t_mapping(t_address,t_uint256)"
      },
      {
        "astId": 1536,
        "contract": "contracts/StableLending.sol:StableLending",
        "label": "_tokenApprovals",
        "offset": 0,
        "slot": "4",
        "type": "t_mapping(t_uint256,t_address)"
      },
      {
        "astId": 1542,
        "contract": "contracts/StableLending.sol:StableLending",
        "label": "_operatorApprovals",
        "offset": 0,
        "slot": "5",
        "type": "t_mapping(t_address,t_mapping(t_address,t_bool))"
      },
      {
        "astId": 2476,
        "contract": "contracts/StableLending.sol:StableLending",
        "label": "_ownedTokens",
        "offset": 0,
        "slot": "6",
        "type": "t_mapping(t_address,t_mapping(t_uint256,t_uint256))"
      },
      {
        "astId": 2480,
        "contract": "contracts/StableLending.sol:StableLending",
        "label": "_ownedTokensIndex",
        "offset": 0,
        "slot": "7",
        "type": "t_mapping(t_uint256,t_uint256)"
      },
      {
        "astId": 2483,
        "contract": "contracts/StableLending.sol:StableLending",
        "label": "_allTokens",
        "offset": 0,
        "slot": "8",
        "type": "t_array(t_uint256)dyn_storage"
      },
      {
        "astId": 2487,
        "contract": "contracts/StableLending.sol:StableLending",
        "label": "_allTokensIndex",
        "offset": 0,
        "slot": "9",
        "type": "t_mapping(t_uint256,t_uint256)"
      },
      {
        "astId": 23807,
        "contract": "contracts/StableLending.sol:StableLending",
        "label": "mainCharacterCache",
        "offset": 0,
        "slot": "10",
        "type": "t_mapping(t_uint256,t_address)"
      },
      {
        "astId": 23813,
        "contract": "contracts/StableLending.sol:StableLending",
        "label": "roleCache",
        "offset": 0,
        "slot": "11",
        "type": "t_mapping(t_address,t_mapping(t_uint256,t_bool))"
      },
      {
        "astId": 23816,
        "contract": "contracts/StableLending.sol:StableLending",
        "label": "_dependsOnCharacters",
        "offset": 0,
        "slot": "12",
        "type": "t_array(t_uint256)dyn_storage"
      },
      {
        "astId": 23819,
        "contract": "contracts/StableLending.sol:StableLending",
        "label": "_dependsOnRoles",
        "offset": 0,
        "slot": "13",
        "type": "t_array(t_uint256)dyn_storage"
      },
      {
        "astId": 23822,
        "contract": "contracts/StableLending.sol:StableLending",
        "label": "_charactersPlayed",
        "offset": 0,
        "slot": "14",
        "type": "t_array(t_uint256)dyn_storage"
      },
      {
        "astId": 23825,
        "contract": "contracts/StableLending.sol:StableLending",
        "label": "_rolesPlayed",
        "offset": 0,
        "slot": "15",
        "type": "t_array(t_uint256)dyn_storage"
      },
      {
        "astId": 8192,
        "contract": "contracts/StableLending.sol:StableLending",
        "label": "_containedIn",
        "offset": 0,
        "slot": "16",
        "type": "t_mapping(t_uint256,t_uint256)"
      },
      {
        "astId": 20076,
        "contract": "contracts/StableLending.sol:StableLending",
        "label": "_oracleCache",
        "offset": 0,
        "slot": "17",
        "type": "t_mapping(t_address,t_mapping(t_address,t_address))"
      },
      {
        "astId": 223,
        "contract": "contracts/StableLending.sol:StableLending",
        "label": "_status",
        "offset": 0,
        "slot": "18",
        "type": "t_uint256"
      },
      {
        "astId": 12358,
        "contract": "contracts/StableLending.sol:StableLending",
        "label": "_holdingStrategies",
        "offset": 0,
        "slot": "19",
        "type": "t_mapping(t_uint256,t_address)"
      },
      {
        "astId": 12363,
        "contract": "contracts/StableLending.sol:StableLending",
        "label": "updatedTranches",
        "offset": 0,
        "slot": "20",
        "type": "t_mapping(t_uint256,t_struct(UintSet)4529_storage)"
      },
      {
        "astId": 12366,
        "contract": "contracts/StableLending.sol:StableLending",
        "label": "updateTrackingPeriod",
        "offset": 0,
        "slot": "21",
        "type": "t_uint256"
      },
      {
        "astId": 8290,
        "contract": "contracts/StableLending.sol:StableLending",
        "label": "assetConfigs",
        "offset": 0,
        "slot": "22",
        "type": "t_mapping(t_address,t_struct(AssetConfig)8285_storage)"
      },
      {
        "astId": 8294,
        "contract": "contracts/StableLending.sol:StableLending",
        "label": "trancheDebt",
        "offset": 0,
        "slot": "23",
        "type": "t_mapping(t_uint256,t_uint256)"
      },
      {
        "astId": 8296,
        "contract": "contracts/StableLending.sol:StableLending",
        "label": "pendingFees",
        "offset": 0,
        "slot": "24",
        "type": "t_uint256"
      },
      {
        "astId": 8298,
        "contract": "contracts/StableLending.sol:StableLending",
        "label": "pastFees",
        "offset": 0,
        "slot": "25",
        "type": "t_uint256"
      }
    ],
    "types": {
      "t_address": {
        "encoding": "inplace",
        "label": "address",
        "numberOfBytes": "20"
      },
      "t_array(t_bytes32)dyn_storage": {
        "base": "t_bytes32",
        "encoding": "dynamic_array",
        "label": "bytes32[]",
        "numberOfBytes": "32"
      },
      "t_array(t_uint256)dyn_storage": {
        "base": "t_uint256",
        "encoding": "dynamic_array",
        "label": "uint256[]",
        "numberOfBytes": "32"
      },
      "t_bool": {
        "encoding": "inplace",
        "label": "bool",
        "numberOfBytes": "1"
      },
      "t_bytes32": {
        "encoding": "inplace",
        "label": "bytes32",
        "numberOfBytes": "32"
      },
      "t_mapping(t_address,t_address)": {
        "encoding": "mapping",
        "key": "t_address",
        "label": "mapping(address => address)",
        "numberOfBytes": "32",
        "value": "t_address"
      },
      "t_mapping(t_address,t_bool)": {
        "encoding": "mapping",
        "key": "t_address",
        "label": "mapping(address => bool)",
        "numberOfBytes": "32",
        "value": "t_bool"
      },
      "t_mapping(t_address,t_mapping(t_address,t_address))": {
        "encoding": "mapping",
        "key": "t_address",
        "label": "mapping(address => mapping(address => address))",
        "numberOfBytes": "32",
        "value": "t_mapping(t_address,t_address)"
      },
      "t_mapping(t_address,t_mapping(t_address,t_bool))": {
        "encoding": "mapping",
        "key": "t_address",
        "label": "mapping(address => mapping(address => bool))",
        "numberOfBytes": "32",
        "value": "t_mapping(t_address,t_bool)"
      },
      "t_mapping(t_address,t_mapping(t_uint256,t_bool))": {
        "encoding": "mapping",
        "key": "t_address",
        "label": "mapping(address => mapping(uint256 => bool))",
        "numberOfBytes": "32",
        "value": "t_mapping(t_uint256,t_bool)"
      },
      "t_mapping(t_address,t_mapping(t_uint256,t_uint256))": {
        "encoding": "mapping",
        "key": "t_address",
        "label": "mapping(address => mapping(uint256 => uint256))",
        "numberOfBytes": "32",
        "value": "t_mapping(t_uint256,t_uint256)"
      },
      "t_mapping(t_address,t_struct(AssetConfig)8285_storage)": {
        "encoding": "mapping",
        "key": "t_address",
        "label": "mapping(address => struct StableLending.AssetConfig)",
        "numberOfBytes": "32",
        "value": "t_struct(AssetConfig)8285_storage"
      },
      "t_mapping(t_address,t_uint256)": {
        "encoding": "mapping",
        "key": "t_address",
        "label": "mapping(address => uint256)",
        "numberOfBytes": "32",
        "value": "t_uint256"
      },
      "t_mapping(t_bytes32,t_uint256)": {
        "encoding": "mapping",
        "key": "t_bytes32",
        "label": "mapping(bytes32 => uint256)",
        "numberOfBytes": "32",
        "value": "t_uint256"
      },
      "t_mapping(t_uint256,t_address)": {
        "encoding": "mapping",
        "key": "t_uint256",
        "label": "mapping(uint256 => address)",
        "numberOfBytes": "32",
        "value": "t_address"
      },
      "t_mapping(t_uint256,t_bool)": {
        "encoding": "mapping",
        "key": "t_uint256",
        "label": "mapping(uint256 => bool)",
        "numberOfBytes": "32",
        "value": "t_bool"
      },
      "t_mapping(t_uint256,t_struct(UintSet)4529_storage)": {
        "encoding": "mapping",
        "key": "t_uint256",
        "label": "mapping(uint256 => struct EnumerableSet.UintSet)",
        "numberOfBytes": "32",
        "value": "t_struct(UintSet)4529_storage"
      },
      "t_mapping(t_uint256,t_uint256)": {
        "encoding": "mapping",
        "key": "t_uint256",
        "label": "mapping(uint256 => uint256)",
        "numberOfBytes": "32",
        "value": "t_uint256"
      },
      "t_string_storage": {
        "encoding": "bytes",
        "label": "string",
        "numberOfBytes": "32"
      },
      "t_struct(AssetConfig)8285_storage": {
        "encoding": "inplace",
        "label": "struct StableLending.AssetConfig",
        "members": [
          {
            "astId": 8280,
            "contract": "contracts/StableLending.sol:StableLending",
            "label": "debtCeiling",
            "offset": 0,
            "slot": "0",
            "type": "t_uint256"
          },
          {
            "astId": 8282,
            "contract": "contracts/StableLending.sol:StableLending",
            "label": "feePer10k",
            "offset": 0,
            "slot": "1",
            "type": "t_uint256"
          },
          {
            "astId": 8284,
            "contract": "contracts/StableLending.sol:StableLending",
            "label": "totalDebt",
            "offset": 0,
            "slot": "2",
            "type": "t_uint256"
          }
        ],
        "numberOfBytes": "96"
      },
      "t_struct(Set)4071_storage": {
        "encoding": "inplace",
        "label": "struct EnumerableSet.Set",
        "members": [
          {
            "astId": 4066,
            "contract": "contracts/StableLending.sol:StableLending",
            "label": "_values",
            "offset": 0,
            "slot": "0",
            "type": "t_array(t_bytes32)dyn_storage"
          },
          {
            "astId": 4070,
            "contract": "contracts/StableLending.sol:StableLending",
            "label": "_indexes",
            "offset": 0,
            "slot": "1",
            "type": "t_mapping(t_bytes32,t_uint256)"
          }
        ],
        "numberOfBytes": "64"
      },
      "t_struct(UintSet)4529_storage": {
        "encoding": "inplace",
        "label": "struct EnumerableSet.UintSet",
        "members": [
          {
            "astId": 4528,
            "contract": "contracts/StableLending.sol:StableLending",
            "label": "_inner",
            "offset": 0,
            "slot": "0",
            "type": "t_struct(Set)4071_storage"
          }
        ],
        "numberOfBytes": "64"
      },
      "t_uint256": {
        "encoding": "inplace",
        "label": "uint256",
        "numberOfBytes": "32"
      }
    }
  }
}