{
  "address": "0xe4C68c4A6A426D281d87b0460123f836B55EC8CD",
  "abi": [
    {
      "inputs": [
        {
          "internalType": "address",
          "name": "_roles",
          "type": "address"
        }
      ],
      "stateMutability": "nonpayable",
      "type": "constructor"
    },
    {
      "anonymous": false,
      "inputs": [
        {
          "indexed": true,
          "internalType": "address",
          "name": "owner",
          "type": "address"
        },
        {
          "indexed": true,
          "internalType": "address",
          "name": "spender",
          "type": "address"
        },
        {
          "indexed": false,
          "internalType": "uint256",
          "name": "value",
          "type": "uint256"
        }
      ],
      "name": "Approval",
      "type": "event"
    },
    {
      "anonymous": false,
      "inputs": [
        {
          "indexed": true,
          "internalType": "address",
          "name": "from",
          "type": "address"
        },
        {
          "indexed": true,
          "internalType": "address",
          "name": "to",
          "type": "address"
        },
        {
          "indexed": false,
          "internalType": "uint256",
          "name": "value",
          "type": "uint256"
        }
      ],
      "name": "Transfer",
      "type": "event"
    },
    {
      "inputs": [
        {
          "internalType": "uint256",
          "name": "",
          "type": "uint256"
        }
      ],
      "name": "_charactersPlayed",
      "outputs": [
        {
          "internalType": "uint256",
          "name": "",
          "type": "uint256"
        }
      ],
      "stateMutability": "view",
      "type": "function"
    },
    {
      "inputs": [
        {
          "internalType": "uint256",
          "name": "",
          "type": "uint256"
        }
      ],
      "name": "_dependsOnCharacters",
      "outputs": [
        {
          "internalType": "uint256",
          "name": "",
          "type": "uint256"
        }
      ],
      "stateMutability": "view",
      "type": "function"
    },
    {
      "inputs": [
        {
          "internalType": "uint256",
          "name": "",
          "type": "uint256"
        }
      ],
      "name": "_dependsOnRoles",
      "outputs": [
        {
          "internalType": "uint256",
          "name": "",
          "type": "uint256"
        }
      ],
      "stateMutability": "view",
      "type": "function"
    },
    {
      "inputs": [
        {
          "internalType": "uint256",
          "name": "",
          "type": "uint256"
        }
      ],
      "name": "_rolesPlayed",
      "outputs": [
        {
          "internalType": "uint256",
          "name": "",
          "type": "uint256"
        }
      ],
      "stateMutability": "view",
      "type": "function"
    },
    {
      "inputs": [
        {
          "internalType": "address",
          "name": "owner",
          "type": "address"
        },
        {
          "internalType": "address",
          "name": "spender",
          "type": "address"
        }
      ],
      "name": "allowance",
      "outputs": [
        {
          "internalType": "uint256",
          "name": "",
          "type": "uint256"
        }
      ],
      "stateMutability": "view",
      "type": "function"
    },
    {
      "inputs": [
        {
          "internalType": "address",
          "name": "spender",
          "type": "address"
        },
        {
          "internalType": "uint256",
          "name": "amount",
          "type": "uint256"
        }
      ],
      "name": "approve",
      "outputs": [
        {
          "internalType": "bool",
          "name": "",
          "type": "bool"
        }
      ],
      "stateMutability": "nonpayable",
      "type": "function"
    },
    {
      "inputs": [
        {
          "internalType": "address",
          "name": "account",
          "type": "address"
        }
      ],
      "name": "balanceOf",
      "outputs": [
        {
          "internalType": "uint256",
          "name": "",
          "type": "uint256"
        }
      ],
      "stateMutability": "view",
      "type": "function"
    },
    {
      "inputs": [
        {
          "internalType": "address",
          "name": "account",
          "type": "address"
        },
        {
          "internalType": "uint256",
          "name": "amount",
          "type": "uint256"
        }
      ],
      "name": "burn",
      "outputs": [],
      "stateMutability": "nonpayable",
      "type": "function"
    },
    {
      "inputs": [],
      "name": "charactersPlayed",
      "outputs": [
        {
          "internalType": "uint256[]",
          "name": "",
          "type": "uint256[]"
        }
      ],
      "stateMutability": "view",
      "type": "function"
    },
    {
      "inputs": [],
      "name": "decimals",
      "outputs": [
        {
          "internalType": "uint8",
          "name": "",
          "type": "uint8"
        }
      ],
      "stateMutability": "view",
      "type": "function"
    },
    {
      "inputs": [
        {
          "internalType": "address",
          "name": "spender",
          "type": "address"
        },
        {
          "internalType": "uint256",
          "name": "subtractedValue",
          "type": "uint256"
        }
      ],
      "name": "decreaseAllowance",
      "outputs": [
        {
          "internalType": "bool",
          "name": "",
          "type": "bool"
        }
      ],
      "stateMutability": "nonpayable",
      "type": "function"
    },
    {
      "inputs": [],
      "name": "dependsOnCharacters",
      "outputs": [
        {
          "internalType": "uint256[]",
          "name": "",
          "type": "uint256[]"
        }
      ],
      "stateMutability": "view",
      "type": "function"
    },
    {
      "inputs": [],
      "name": "dependsOnRoles",
      "outputs": [
        {
          "internalType": "uint256[]",
          "name": "",
          "type": "uint256[]"
        }
      ],
      "stateMutability": "view",
      "type": "function"
    },
    {
      "inputs": [],
      "name": "globalDebtCeiling",
      "outputs": [
        {
          "internalType": "uint256",
          "name": "",
          "type": "uint256"
        }
      ],
      "stateMutability": "view",
      "type": "function"
    },
    {
      "inputs": [
        {
          "internalType": "address",
          "name": "spender",
          "type": "address"
        },
        {
          "internalType": "uint256",
          "name": "addedValue",
          "type": "uint256"
        }
      ],
      "name": "increaseAllowance",
      "outputs": [
        {
          "internalType": "bool",
          "name": "",
          "type": "bool"
        }
      ],
      "stateMutability": "nonpayable",
      "type": "function"
    },
    {
      "inputs": [
        {
          "internalType": "uint256",
          "name": "",
          "type": "uint256"
        }
      ],
      "name": "mainCharacterCache",
      "outputs": [
        {
          "internalType": "address",
          "name": "",
          "type": "address"
        }
      ],
      "stateMutability": "view",
      "type": "function"
    },
    {
      "inputs": [
        {
          "internalType": "address",
          "name": "account",
          "type": "address"
        },
        {
          "internalType": "uint256",
          "name": "amount",
          "type": "uint256"
        }
      ],
      "name": "mint",
      "outputs": [],
      "stateMutability": "nonpayable",
      "type": "function"
    },
    {
      "inputs": [],
      "name": "name",
      "outputs": [
        {
          "internalType": "string",
          "name": "",
          "type": "string"
        }
      ],
      "stateMutability": "view",
      "type": "function"
    },
    {
      "inputs": [
        {
          "internalType": "address",
          "name": "",
          "type": "address"
        },
        {
          "internalType": "uint256",
          "name": "",
          "type": "uint256"
        }
      ],
      "name": "roleCache",
      "outputs": [
        {
          "internalType": "bool",
          "name": "",
          "type": "bool"
        }
      ],
      "stateMutability": "view",
      "type": "function"
    },
    {
      "inputs": [],
      "name": "roles",
      "outputs": [
        {
          "internalType": "contract Roles",
          "name": "",
          "type": "address"
        }
      ],
      "stateMutability": "view",
      "type": "function"
    },
    {
      "inputs": [],
      "name": "rolesPlayed",
      "outputs": [
        {
          "internalType": "uint256[]",
          "name": "",
          "type": "uint256[]"
        }
      ],
      "stateMutability": "view",
      "type": "function"
    },
    {
      "inputs": [
        {
          "internalType": "uint256",
          "name": "debtCeiling",
          "type": "uint256"
        }
      ],
      "name": "setGlobalDebtCeiling",
      "outputs": [],
      "stateMutability": "nonpayable",
      "type": "function"
    },
    {
      "inputs": [],
      "name": "symbol",
      "outputs": [
        {
          "internalType": "string",
          "name": "",
          "type": "string"
        }
      ],
      "stateMutability": "view",
      "type": "function"
    },
    {
      "inputs": [],
      "name": "totalSupply",
      "outputs": [
        {
          "internalType": "uint256",
          "name": "",
          "type": "uint256"
        }
      ],
      "stateMutability": "view",
      "type": "function"
    },
    {
      "inputs": [
        {
          "internalType": "address",
          "name": "recipient",
          "type": "address"
        },
        {
          "internalType": "uint256",
          "name": "amount",
          "type": "uint256"
        }
      ],
      "name": "transfer",
      "outputs": [
        {
          "internalType": "bool",
          "name": "",
          "type": "bool"
        }
      ],
      "stateMutability": "nonpayable",
      "type": "function"
    },
    {
      "inputs": [
        {
          "internalType": "address",
          "name": "sender",
          "type": "address"
        },
        {
          "internalType": "address",
          "name": "recipient",
          "type": "address"
        },
        {
          "internalType": "uint256",
          "name": "amount",
          "type": "uint256"
        }
      ],
      "name": "transferFrom",
      "outputs": [
        {
          "internalType": "bool",
          "name": "",
          "type": "bool"
        }
      ],
      "stateMutability": "nonpayable",
      "type": "function"
    },
    {
      "inputs": [
        {
          "internalType": "uint256",
          "name": "role",
          "type": "uint256"
        }
      ],
      "name": "updateMainCharacterCache",
      "outputs": [],
      "stateMutability": "nonpayable",
      "type": "function"
    },
    {
      "inputs": [
        {
          "internalType": "uint256",
          "name": "role",
          "type": "uint256"
        },
        {
          "internalType": "address",
          "name": "contr",
          "type": "address"
        }
      ],
      "name": "updateRoleCache",
      "outputs": [],
      "stateMutability": "nonpayable",
      "type": "function"
    }
  ],
  "transactionHash": "0xcd14f831bf7b752bb6ae39a2f1dad3fbeb9e5f60273cfd5392b99c15d86ef068",
  "args": [
    "0x4F6ed22C558B462BA35Bb0F6FeB99600964310D7"
  ],
  "solcInputHash": "49de3c0ae1b6f2c0098f9389f4b75969",
  "bytecode": "0x60a060405269152d02c7e14af6800000600c553480156200001f57600080fd5b50604051620018283803806200182883398101604081905262000042916200024c565b60405180604001604052806009815260200168555344204d6f6e657960b81b815250604051806040016040528060048152602001635553444d60e01b8152508260006001600160a01b0316816001600160a01b03161415620000f55760405162461bcd60e51b815260206004820152602260248201527f506c656173652070726f766964652076616c696420726f6c6573206164647265604482015261737360f01b606482015260840160405180910390fd5b60601b6001600160601b03191660805281516200011a906009906020850190620001a6565b5080516200013090600a906020840190620001a6565b50506001600b8190556003805480830190915560027fc2575a0e9e593c00f959f8c92f12db2869c3395a3b0502d05e2516446f71f85b9091015560048054918201815560005260667f8a35acfbc15ff81a39ae7d344fd709f28e8600b4aa8c65c6b64bfe7fe36bd19b9091015550620002b99050565b828054620001b4906200027c565b90600052602060002090601f016020900481019282620001d8576000855562000223565b82601f10620001f357805160ff191683800117855562000223565b8280016001018555821562000223579182015b828111156200022357825182559160200191906001019062000206565b506200023192915062000235565b5090565b5b8082111562000231576000815560010162000236565b6000602082840312156200025e578081fd5b81516001600160a01b038116811462000275578182fd5b9392505050565b600181811c908216806200029157607f821691505b60208210811415620002b357634e487b7160e01b600052602260045260246000fd5b50919050565b60805160601c611534620002f46000396000818161026101528181610502015281816108130152818161104601526110de01526115346000f3fe608060405234801561001057600080fd5b50600436106101c45760003560e01c80637a1a04df116100f9578063abcbc4fc11610097578063dc94cb7d11610071578063dc94cb7d146103e8578063dd62ed3e146103f0578063e8ea4fae14610429578063e9c3f77d14610431576101c4565b8063abcbc4fc146103af578063aeb38d8b146103c2578063bf184ea4146103d5576101c4565b806395d89b41116100d357806395d89b411461036e5780639dc29fac14610376578063a457c2d714610389578063a9059cbb1461039c576101c4565b80637a1a04df146103255780637dad209b146103535780638d196e321461035b576101c4565b8063392f5f6411610166578063447d52ba11610140578063447d52ba146102c15780634a7a7f41146102d45780636caa9c11146102e957806370a08231146102fc576101c4565b8063392f5f641461025c578063395093511461029b57806340c10f19146102ae576101c4565b806318160ddd116101a257806318160ddd1461021f57806323b872dd146102315780632efcc86614610244578063313ce5671461024d576101c4565b806306fdde03146101c9578063071060a6146101e7578063095ea7b3146101fc575b600080fd5b6101d161045a565b6040516101de9190611413565b60405180910390f35b6101fa6101f5366004611393565b6104ec565b005b61020f61020a366004611348565b6105b2565b60405190151581526020016101de565b6008545b6040519081526020016101de565b61020f61023f366004611308565b6105c8565b610223600c5481565b604051601281526020016101de565b6102837f000000000000000000000000000000000000000000000000000000000000000081565b6040516001600160a01b0390911681526020016101de565b61020f6102a9366004611348565b610677565b6101fa6102bc366004611348565b6106b3565b6101fa6102cf3660046113ab565b6107ed565b6102dc6108c5565b6040516101de91906113cf565b6102236102f7366004611393565b61091c565b61022361030a366004611291565b6001600160a01b031660009081526006602052604090205490565b61020f610333366004611348565b600160209081526000928352604080842090915290825290205460ff1681565b6102dc61093d565b6101fa610369366004611393565b610993565b6101d1610a11565b6101fa610384366004611348565b610a20565b61020f610397366004611348565b610aed565b61020f6103aa366004611348565b610b86565b6102236103bd366004611393565b610b93565b6102236103d0366004611393565b610ba3565b6102236103e3366004611393565b610bb3565b6102dc610bc3565b6102236103fe3660046112d0565b6001600160a01b03918216600090815260076020908152604080832093909416825291909152205490565b6102dc610c19565b61028361043f366004611393565b6000602081905290815260409020546001600160a01b031681565b60606009805461046990611495565b80601f016020809104026020016040519081016040528092919081815260200182805461049590611495565b80156104e25780601f106104b7576101008083540402835291602001916104e2565b820191906000526020600020905b8154815290600101906020018083116104c557829003601f168201915b5050505050905090565b60405163b4ed0b6d60e01b8152600481018290527f00000000000000000000000000000000000000000000000000000000000000006001600160a01b03169063b4ed0b6d9060240160206040518083038186803b15801561054c57600080fd5b505afa158015610560573d6000803e3d6000fd5b505050506040513d601f19601f8201168201806040525081019061058491906112b4565b60009182526020829052604090912080546001600160a01b0319166001600160a01b03909216919091179055565b60006105bf338484610c6f565b50600192915050565b60006105d5848484610d94565b6001600160a01b03841660009081526007602090815260408083203384529091529020548281101561065f5760405162461bcd60e51b815260206004820152602860248201527f45524332303a207472616e7366657220616d6f756e74206578636565647320616044820152676c6c6f77616e636560c01b60648201526084015b60405180910390fd5b61066c8533858403610c6f565b506001949350505050565b3360008181526007602090815260408083206001600160a01b038716845290915281205490916105bf9185906106ae908690611466565b610c6f565b6002600b5414156107065760405162461bcd60e51b815260206004820152601f60248201527f5265656e7472616e637947756172643a207265656e7472616e742063616c6c006044820152606401610656565b6002600b819055336000908152600160209081526040808320938352929052205460ff166107765760405162461bcd60e51b815260206004820152601e60248201527f4e6f7420616e206175746f72697a6564206d696e7465722f6275726e657200006044820152606401610656565b6107808282610f63565b600854600c54116107e45760405162461bcd60e51b815260206004820152602860248201527f546f74616c20737570706c79206578636565647320676c6f62616c2064656274604482015267206365696c696e6760c01b6064820152608401610656565b50506001600b55565b6040516393552a3d60e01b8152600481018390526001600160a01b0382811660248301527f000000000000000000000000000000000000000000000000000000000000000016906393552a3d9060440160206040518083038186803b15801561085557600080fd5b505afa158015610869573d6000803e3d6000fd5b505050506040513d601f19601f8201168201806040525081019061088d9190611373565b6001600160a01b0391909116600090815260016020908152604080832094835293905291909120805460ff1916911515919091179055565b606060038054806020026020016040519081016040528092919081815260200182805480156104e257602002820191906000526020600020905b8154815260200190600101908083116108ff575050505050905090565b6005818154811061092c57600080fd5b600091825260209091200154905081565b606060048054806020026020016040519081016040528092919081815260200182805480156104e257602002820191906000526020600020908154815260200190600101908083116108ff575050505050905090565b3361099c611042565b6001600160a01b031614806109c05750336109b56110da565b6001600160a01b0316145b610a0c5760405162461bcd60e51b815260206004820152601e60248201527f526f6c65733a2063616c6c6572206973206e6f7420746865206f776e657200006044820152606401610656565b600c55565b6060600a805461046990611495565b6002600b541415610a735760405162461bcd60e51b815260206004820152601f60248201527f5265656e7472616e637947756172643a207265656e7472616e742063616c6c006044820152606401610656565b6002600b819055336000908152600160209081526040808320938352929052205460ff16610ae35760405162461bcd60e51b815260206004820152601f60248201527f4e6f7420616e20617574686f72697a6564206d696e7465722f6275726e6572006044820152606401610656565b6107e4828261114b565b3360009081526007602090815260408083206001600160a01b038616845290915281205482811015610b6f5760405162461bcd60e51b815260206004820152602560248201527f45524332303a2064656372656173656420616c6c6f77616e63652062656c6f77604482015264207a65726f60d81b6064820152608401610656565b610b7c3385858403610c6f565b5060019392505050565b60006105bf338484610d94565b6002818154811061092c57600080fd5b6004818154811061092c57600080fd5b6003818154811061092c57600080fd5b606060028054806020026020016040519081016040528092919081815260200182805480156104e257602002820191906000526020600020908154815260200190600101908083116108ff575050505050905090565b606060058054806020026020016040519081016040528092919081815260200182805480156104e257602002820191906000526020600020908154815260200190600101908083116108ff575050505050905090565b6001600160a01b038316610cd15760405162461bcd60e51b8152602060048201526024808201527f45524332303a20617070726f76652066726f6d20746865207a65726f206164646044820152637265737360e01b6064820152608401610656565b6001600160a01b038216610d325760405162461bcd60e51b815260206004820152602260248201527f45524332303a20617070726f766520746f20746865207a65726f206164647265604482015261737360f01b6064820152608401610656565b6001600160a01b0383811660008181526007602090815260408083209487168084529482529182902085905590518481527f8c5be1e5ebec7d5bd14f71427d1e84f3dd0314c0f7b2291e5b200ac8c7c3b92591015b60405180910390a3505050565b6001600160a01b038316610df85760405162461bcd60e51b815260206004820152602560248201527f45524332303a207472616e736665722066726f6d20746865207a65726f206164604482015264647265737360d81b6064820152608401610656565b6001600160a01b038216610e5a5760405162461bcd60e51b815260206004820152602360248201527f45524332303a207472616e7366657220746f20746865207a65726f206164647260448201526265737360e81b6064820152608401610656565b6001600160a01b03831660009081526006602052604090205481811015610ed25760405162461bcd60e51b815260206004820152602660248201527f45524332303a207472616e7366657220616d6f756e7420657863656564732062604482015265616c616e636560d01b6064820152608401610656565b6001600160a01b03808516600090815260066020526040808220858503905591851681529081208054849290610f09908490611466565b92505081905550826001600160a01b0316846001600160a01b03167fddf252ad1be2c89b69c2b068fc378daa952ba7f163c4a11628f55a4df523b3ef84604051610f5591815260200190565b60405180910390a350505050565b6001600160a01b038216610fb95760405162461bcd60e51b815260206004820152601f60248201527f45524332303a206d696e7420746f20746865207a65726f2061646472657373006044820152606401610656565b8060086000828254610fcb9190611466565b90915550506001600160a01b03821660009081526006602052604081208054839290610ff8908490611466565b90915550506040518181526001600160a01b038316906000907fddf252ad1be2c89b69c2b068fc378daa952ba7f163c4a11628f55a4df523b3ef9060200160405180910390a35050565b60007f00000000000000000000000000000000000000000000000000000000000000006001600160a01b0316638da5cb5b6040518163ffffffff1660e01b815260040160206040518083038186803b15801561109d57600080fd5b505afa1580156110b1573d6000803e3d6000fd5b505050506040513d601f19601f820116820180604052508101906110d591906112b4565b905090565b60007f00000000000000000000000000000000000000000000000000000000000000006001600160a01b031663c34c08e56040518163ffffffff1660e01b8152600401602060405180830381600087803b15801561113757600080fd5b505af11580156110b1573d6000803e3d6000fd5b6001600160a01b0382166111ab5760405162461bcd60e51b815260206004820152602160248201527f45524332303a206275726e2066726f6d20746865207a65726f206164647265736044820152607360f81b6064820152608401610656565b6001600160a01b0382166000908152600660205260409020548181101561121f5760405162461bcd60e51b815260206004820152602260248201527f45524332303a206275726e20616d6f756e7420657863656564732062616c616e604482015261636560f01b6064820152608401610656565b6001600160a01b038316600090815260066020526040812083830390556008805484929061124e90849061147e565b90915550506040518281526000906001600160a01b038516907fddf252ad1be2c89b69c2b068fc378daa952ba7f163c4a11628f55a4df523b3ef90602001610d87565b6000602082840312156112a2578081fd5b81356112ad816114e6565b9392505050565b6000602082840312156112c5578081fd5b81516112ad816114e6565b600080604083850312156112e2578081fd5b82356112ed816114e6565b915060208301356112fd816114e6565b809150509250929050565b60008060006060848603121561131c578081fd5b8335611327816114e6565b92506020840135611337816114e6565b929592945050506040919091013590565b6000806040838503121561135a578182fd5b8235611365816114e6565b946020939093013593505050565b600060208284031215611384578081fd5b815180151581146112ad578182fd5b6000602082840312156113a4578081fd5b5035919050565b600080604083850312156113bd578182fd5b8235915060208301356112fd816114e6565b6020808252825182820181905260009190848201906040850190845b81811015611407578351835292840192918401916001016113eb565b50909695505050505050565b6000602080835283518082850152825b8181101561143f57858101830151858201604001528201611423565b818111156114505783604083870101525b50601f01601f1916929092016040019392505050565b60008219821115611479576114796114d0565b500190565b600082821015611490576114906114d0565b500390565b600181811c908216806114a957607f821691505b602082108114156114ca57634e487b7160e01b600052602260045260246000fd5b50919050565b634e487b7160e01b600052601160045260246000fd5b6001600160a01b03811681146114fb57600080fd5b5056fea26469706673582212206b099d406e24c04ea65334ce0e823f3f90f896f91a52cff3e860c949b7e0acc564736f6c63430008030033",
  "devdoc": {
    "kind": "dev",
    "methods": {
      "allowance(address,address)": {
        "details": "See {IERC20-allowance}."
      },
      "approve(address,uint256)": {
        "details": "See {IERC20-approve}. Requirements: - `spender` cannot be the zero address."
      },
      "balanceOf(address)": {
        "details": "See {IERC20-balanceOf}."
      },
      "charactersPlayed()": {
        "details": "returns all characters played by this contract (e.g. stable coin, oracle registry)"
      },
      "decimals()": {
        "details": "Returns the number of decimals used to get its user representation. For example, if `decimals` equals `2`, a balance of `505` tokens should be displayed to a user as `5.05` (`505 / 10 ** 2`). Tokens usually opt for a value of 18, imitating the relationship between Ether and Wei. This is the value {ERC20} uses, unless this function is overridden; NOTE: This information is only used for _display_ purposes: it in no way affects any of the arithmetic of the contract, including {IERC20-balanceOf} and {IERC20-transfer}."
      },
      "decreaseAllowance(address,uint256)": {
        "details": "Atomically decreases the allowance granted to `spender` by the caller. This is an alternative to {approve} that can be used as a mitigation for problems described in {IERC20-approve}. Emits an {Approval} event indicating the updated allowance. Requirements: - `spender` cannot be the zero address. - `spender` must have allowance for the caller of at least `subtractedValue`."
      },
      "dependsOnCharacters()": {
        "details": "returns all the character dependencies like FEE_RECIPIENT"
      },
      "dependsOnRoles()": {
        "details": "returns all the roles dependencies of this contract like FUND_TRANSFERER"
      },
      "increaseAllowance(address,uint256)": {
        "details": "Atomically increases the allowance granted to `spender` by the caller. This is an alternative to {approve} that can be used as a mitigation for problems described in {IERC20-approve}. Emits an {Approval} event indicating the updated allowance. Requirements: - `spender` cannot be the zero address."
      },
      "name()": {
        "details": "Returns the name of the token."
      },
      "rolesPlayed()": {
        "details": "returns all roles played by this contract"
      },
      "symbol()": {
        "details": "Returns the symbol of the token, usually a shorter version of the name."
      },
      "totalSupply()": {
        "details": "See {IERC20-totalSupply}."
      },
      "transfer(address,uint256)": {
        "details": "See {IERC20-transfer}. Requirements: - `recipient` cannot be the zero address. - the caller must have a balance of at least `amount`."
      },
      "transferFrom(address,address,uint256)": {
        "details": "See {IERC20-transferFrom}. Emits an {Approval} event indicating the updated allowance. This is not required by the EIP. See the note at the beginning of {ERC20}. Requirements: - `sender` and `recipient` cannot be the zero address. - `sender` must have a balance of at least `amount`. - the caller must have allowance for ``sender``'s tokens of at least `amount`."
      },
      "updateMainCharacterCache(uint256)": {
        "details": "Updates the main character cache for a speciic character"
      },
      "updateRoleCache(uint256,address)": {
        "details": "Updates the role cache for a specific role and address"
      }
    },
    "version": 1
  },
  "userdoc": {
    "kind": "user",
    "methods": {},
    "version": 1
  },
  "storageLayout": {
    "storage": [
      {
        "astId": 14088,
        "contract": "contracts/Stablecoin.sol:Stablecoin",
        "label": "mainCharacterCache",
        "offset": 0,
        "slot": "0",
        "type": "t_mapping(t_uint256,t_address)"
      },
      {
        "astId": 14094,
        "contract": "contracts/Stablecoin.sol:Stablecoin",
        "label": "roleCache",
        "offset": 0,
        "slot": "1",
        "type": "t_mapping(t_address,t_mapping(t_uint256,t_bool))"
      },
      {
        "astId": 14097,
        "contract": "contracts/Stablecoin.sol:Stablecoin",
        "label": "_dependsOnCharacters",
        "offset": 0,
        "slot": "2",
        "type": "t_array(t_uint256)dyn_storage"
      },
      {
        "astId": 14100,
        "contract": "contracts/Stablecoin.sol:Stablecoin",
        "label": "_dependsOnRoles",
        "offset": 0,
        "slot": "3",
        "type": "t_array(t_uint256)dyn_storage"
      },
      {
        "astId": 14103,
        "contract": "contracts/Stablecoin.sol:Stablecoin",
        "label": "_charactersPlayed",
        "offset": 0,
        "slot": "4",
        "type": "t_array(t_uint256)dyn_storage"
      },
      {
        "astId": 14106,
        "contract": "contracts/Stablecoin.sol:Stablecoin",
        "label": "_rolesPlayed",
        "offset": 0,
        "slot": "5",
        "type": "t_array(t_uint256)dyn_storage"
      },
      {
        "astId": 205,
        "contract": "contracts/Stablecoin.sol:Stablecoin",
        "label": "_balances",
        "offset": 0,
        "slot": "6",
        "type": "t_mapping(t_address,t_uint256)"
      },
      {
        "astId": 211,
        "contract": "contracts/Stablecoin.sol:Stablecoin",
        "label": "_allowances",
        "offset": 0,
        "slot": "7",
        "type": "t_mapping(t_address,t_mapping(t_address,t_uint256))"
      },
      {
        "astId": 213,
        "contract": "contracts/Stablecoin.sol:Stablecoin",
        "label": "_totalSupply",
        "offset": 0,
        "slot": "8",
        "type": "t_uint256"
      },
      {
        "astId": 215,
        "contract": "contracts/Stablecoin.sol:Stablecoin",
        "label": "_name",
        "offset": 0,
        "slot": "9",
        "type": "t_string_storage"
      },
      {
        "astId": 217,
        "contract": "contracts/Stablecoin.sol:Stablecoin",
        "label": "_symbol",
        "offset": 0,
        "slot": "10",
        "type": "t_string_storage"
      },
      {
        "astId": 160,
        "contract": "contracts/Stablecoin.sol:Stablecoin",
        "label": "_status",
        "offset": 0,
        "slot": "11",
        "type": "t_uint256"
      },
      {
        "astId": 6535,
        "contract": "contracts/Stablecoin.sol:Stablecoin",
        "label": "globalDebtCeiling",
        "offset": 0,
        "slot": "12",
        "type": "t_uint256"
      }
    ],
    "types": {
      "t_address": {
        "encoding": "inplace",
        "label": "address",
        "numberOfBytes": "20"
      },
      "t_array(t_uint256)dyn_storage": {
        "base": "t_uint256",
        "encoding": "dynamic_array",
        "label": "uint256[]",
        "numberOfBytes": "32"
      },
      "t_bool": {
        "encoding": "inplace",
        "label": "bool",
        "numberOfBytes": "1"
      },
      "t_mapping(t_address,t_mapping(t_address,t_uint256))": {
        "encoding": "mapping",
        "key": "t_address",
        "label": "mapping(address => mapping(address => uint256))",
        "numberOfBytes": "32",
        "value": "t_mapping(t_address,t_uint256)"
      },
      "t_mapping(t_address,t_mapping(t_uint256,t_bool))": {
        "encoding": "mapping",
        "key": "t_address",
        "label": "mapping(address => mapping(uint256 => bool))",
        "numberOfBytes": "32",
        "value": "t_mapping(t_uint256,t_bool)"
      },
      "t_mapping(t_address,t_uint256)": {
        "encoding": "mapping",
        "key": "t_address",
        "label": "mapping(address => uint256)",
        "numberOfBytes": "32",
        "value": "t_uint256"
      },
      "t_mapping(t_uint256,t_address)": {
        "encoding": "mapping",
        "key": "t_uint256",
        "label": "mapping(uint256 => address)",
        "numberOfBytes": "32",
        "value": "t_address"
      },
      "t_mapping(t_uint256,t_bool)": {
        "encoding": "mapping",
        "key": "t_uint256",
        "label": "mapping(uint256 => bool)",
        "numberOfBytes": "32",
        "value": "t_bool"
      },
      "t_string_storage": {
        "encoding": "bytes",
        "label": "string",
        "numberOfBytes": "32"
      },
      "t_uint256": {
        "encoding": "inplace",
        "label": "uint256",
        "numberOfBytes": "32"
      }
    }
  }
}