{
  "address": "0x5FB85aB006c5550BdE3631C586559214f5dd128e",
  "abi": [
    {
      "inputs": [
        {
          "internalType": "address",
          "name": "_roles",
          "type": "address"
        }
      ],
      "stateMutability": "nonpayable",
      "type": "constructor"
    },
    {
      "anonymous": false,
      "inputs": [
        {
          "indexed": true,
          "internalType": "address",
          "name": "owner",
          "type": "address"
        },
        {
          "indexed": true,
          "internalType": "address",
          "name": "spender",
          "type": "address"
        },
        {
          "indexed": false,
          "internalType": "uint256",
          "name": "value",
          "type": "uint256"
        }
      ],
      "name": "Approval",
      "type": "event"
    },
    {
      "anonymous": false,
      "inputs": [
        {
          "indexed": true,
          "internalType": "address",
          "name": "from",
          "type": "address"
        },
        {
          "indexed": true,
          "internalType": "address",
          "name": "to",
          "type": "address"
        },
        {
          "indexed": false,
          "internalType": "uint256",
          "name": "value",
          "type": "uint256"
        }
      ],
      "name": "Transfer",
      "type": "event"
    },
    {
      "inputs": [],
      "name": "DOMAIN_SEPARATOR",
      "outputs": [
        {
          "internalType": "bytes32",
          "name": "",
          "type": "bytes32"
        }
      ],
      "stateMutability": "view",
      "type": "function"
    },
    {
      "inputs": [
        {
          "internalType": "uint256",
          "name": "",
          "type": "uint256"
        }
      ],
      "name": "_charactersPlayed",
      "outputs": [
        {
          "internalType": "uint256",
          "name": "",
          "type": "uint256"
        }
      ],
      "stateMutability": "view",
      "type": "function"
    },
    {
      "inputs": [
        {
          "internalType": "uint256",
          "name": "",
          "type": "uint256"
        }
      ],
      "name": "_dependsOnCharacters",
      "outputs": [
        {
          "internalType": "uint256",
          "name": "",
          "type": "uint256"
        }
      ],
      "stateMutability": "view",
      "type": "function"
    },
    {
      "inputs": [
        {
          "internalType": "uint256",
          "name": "",
          "type": "uint256"
        }
      ],
      "name": "_dependsOnRoles",
      "outputs": [
        {
          "internalType": "uint256",
          "name": "",
          "type": "uint256"
        }
      ],
      "stateMutability": "view",
      "type": "function"
    },
    {
      "inputs": [
        {
          "internalType": "uint256",
          "name": "",
          "type": "uint256"
        }
      ],
      "name": "_rolesPlayed",
      "outputs": [
        {
          "internalType": "uint256",
          "name": "",
          "type": "uint256"
        }
      ],
      "stateMutability": "view",
      "type": "function"
    },
    {
      "inputs": [
        {
          "internalType": "address",
          "name": "owner",
          "type": "address"
        },
        {
          "internalType": "address",
          "name": "spender",
          "type": "address"
        }
      ],
      "name": "allowance",
      "outputs": [
        {
          "internalType": "uint256",
          "name": "",
          "type": "uint256"
        }
      ],
      "stateMutability": "view",
      "type": "function"
    },
    {
      "inputs": [
        {
          "internalType": "address",
          "name": "spender",
          "type": "address"
        },
        {
          "internalType": "uint256",
          "name": "amount",
          "type": "uint256"
        }
      ],
      "name": "approve",
      "outputs": [
        {
          "internalType": "bool",
          "name": "",
          "type": "bool"
        }
      ],
      "stateMutability": "nonpayable",
      "type": "function"
    },
    {
      "inputs": [
        {
          "internalType": "address",
          "name": "account",
          "type": "address"
        }
      ],
      "name": "balanceOf",
      "outputs": [
        {
          "internalType": "uint256",
          "name": "",
          "type": "uint256"
        }
      ],
      "stateMutability": "view",
      "type": "function"
    },
    {
      "inputs": [
        {
          "internalType": "address",
          "name": "account",
          "type": "address"
        },
        {
          "internalType": "uint256",
          "name": "amount",
          "type": "uint256"
        }
      ],
      "name": "burn",
      "outputs": [],
      "stateMutability": "nonpayable",
      "type": "function"
    },
    {
      "inputs": [],
      "name": "charactersPlayed",
      "outputs": [
        {
          "internalType": "uint256[]",
          "name": "",
          "type": "uint256[]"
        }
      ],
      "stateMutability": "view",
      "type": "function"
    },
    {
      "inputs": [],
      "name": "decimals",
      "outputs": [
        {
          "internalType": "uint8",
          "name": "",
          "type": "uint8"
        }
      ],
      "stateMutability": "view",
      "type": "function"
    },
    {
      "inputs": [
        {
          "internalType": "address",
          "name": "spender",
          "type": "address"
        },
        {
          "internalType": "uint256",
          "name": "subtractedValue",
          "type": "uint256"
        }
      ],
      "name": "decreaseAllowance",
      "outputs": [
        {
          "internalType": "bool",
          "name": "",
          "type": "bool"
        }
      ],
      "stateMutability": "nonpayable",
      "type": "function"
    },
    {
      "inputs": [],
      "name": "dependsOnCharacters",
      "outputs": [
        {
          "internalType": "uint256[]",
          "name": "",
          "type": "uint256[]"
        }
      ],
      "stateMutability": "view",
      "type": "function"
    },
    {
      "inputs": [],
      "name": "dependsOnRoles",
      "outputs": [
        {
          "internalType": "uint256[]",
          "name": "",
          "type": "uint256[]"
        }
      ],
      "stateMutability": "view",
      "type": "function"
    },
    {
      "inputs": [
        {
          "internalType": "address",
          "name": "",
          "type": "address"
        },
        {
          "internalType": "uint256",
          "name": "amount",
          "type": "uint256"
        }
      ],
      "name": "flashFee",
      "outputs": [
        {
          "internalType": "uint256",
          "name": "",
          "type": "uint256"
        }
      ],
      "stateMutability": "view",
      "type": "function"
    },
    {
      "inputs": [],
      "name": "flashFeePer10k",
      "outputs": [
        {
          "internalType": "uint256",
          "name": "",
          "type": "uint256"
        }
      ],
      "stateMutability": "view",
      "type": "function"
    },
    {
      "inputs": [
        {
          "internalType": "contract IERC3156FlashBorrower",
          "name": "receiver",
          "type": "address"
        },
        {
          "internalType": "address",
          "name": "token",
          "type": "address"
        },
        {
          "internalType": "uint256",
          "name": "amount",
          "type": "uint256"
        },
        {
          "internalType": "bytes",
          "name": "data",
          "type": "bytes"
        }
      ],
      "name": "flashLoan",
      "outputs": [
        {
          "internalType": "bool",
          "name": "",
          "type": "bool"
        }
      ],
      "stateMutability": "nonpayable",
      "type": "function"
    },
    {
      "inputs": [],
      "name": "flashLoansEnabled",
      "outputs": [
        {
          "internalType": "bool",
          "name": "",
          "type": "bool"
        }
      ],
      "stateMutability": "view",
      "type": "function"
    },
    {
      "inputs": [],
      "name": "globalDebtCeiling",
      "outputs": [
        {
          "internalType": "uint256",
          "name": "",
          "type": "uint256"
        }
      ],
      "stateMutability": "view",
      "type": "function"
    },
    {
      "inputs": [
        {
          "internalType": "address",
          "name": "spender",
          "type": "address"
        },
        {
          "internalType": "uint256",
          "name": "addedValue",
          "type": "uint256"
        }
      ],
      "name": "increaseAllowance",
      "outputs": [
        {
          "internalType": "bool",
          "name": "",
          "type": "bool"
        }
      ],
      "stateMutability": "nonpayable",
      "type": "function"
    },
    {
      "inputs": [
        {
          "internalType": "uint256",
          "name": "",
          "type": "uint256"
        }
      ],
      "name": "mainCharacterCache",
      "outputs": [
        {
          "internalType": "address",
          "name": "",
          "type": "address"
        }
      ],
      "stateMutability": "view",
      "type": "function"
    },
    {
      "inputs": [
        {
          "internalType": "address",
          "name": "token",
          "type": "address"
        }
      ],
      "name": "maxFlashLoan",
      "outputs": [
        {
          "internalType": "uint256",
          "name": "",
          "type": "uint256"
        }
      ],
      "stateMutability": "view",
      "type": "function"
    },
    {
      "inputs": [
        {
          "internalType": "address",
          "name": "account",
          "type": "address"
        },
        {
          "internalType": "uint256",
          "name": "amount",
          "type": "uint256"
        }
      ],
      "name": "mint",
      "outputs": [],
      "stateMutability": "nonpayable",
      "type": "function"
    },
    {
      "inputs": [],
      "name": "name",
      "outputs": [
        {
          "internalType": "string",
          "name": "",
          "type": "string"
        }
      ],
      "stateMutability": "view",
      "type": "function"
    },
    {
      "inputs": [
        {
          "internalType": "address",
          "name": "owner",
          "type": "address"
        }
      ],
      "name": "nonces",
      "outputs": [
        {
          "internalType": "uint256",
          "name": "",
          "type": "uint256"
        }
      ],
      "stateMutability": "view",
      "type": "function"
    },
    {
      "inputs": [
        {
          "internalType": "address",
          "name": "owner",
          "type": "address"
        },
        {
          "internalType": "address",
          "name": "spender",
          "type": "address"
        },
        {
          "internalType": "uint256",
          "name": "value",
          "type": "uint256"
        },
        {
          "internalType": "uint256",
          "name": "deadline",
          "type": "uint256"
        },
        {
          "internalType": "uint8",
          "name": "v",
          "type": "uint8"
        },
        {
          "internalType": "bytes32",
          "name": "r",
          "type": "bytes32"
        },
        {
          "internalType": "bytes32",
          "name": "s",
          "type": "bytes32"
        }
      ],
      "name": "permit",
      "outputs": [],
      "stateMutability": "nonpayable",
      "type": "function"
    },
    {
      "inputs": [
        {
          "internalType": "address",
          "name": "",
          "type": "address"
        },
        {
          "internalType": "uint256",
          "name": "",
          "type": "uint256"
        }
      ],
      "name": "roleCache",
      "outputs": [
        {
          "internalType": "bool",
          "name": "",
          "type": "bool"
        }
      ],
      "stateMutability": "view",
      "type": "function"
    },
    {
      "inputs": [],
      "name": "roles",
      "outputs": [
        {
          "internalType": "contract Roles",
          "name": "",
          "type": "address"
        }
      ],
      "stateMutability": "view",
      "type": "function"
    },
    {
      "inputs": [],
      "name": "rolesPlayed",
      "outputs": [
        {
          "internalType": "uint256[]",
          "name": "",
          "type": "uint256[]"
        }
      ],
      "stateMutability": "view",
      "type": "function"
    },
    {
      "inputs": [
        {
          "internalType": "uint256",
          "name": "fee",
          "type": "uint256"
        }
      ],
      "name": "setFlashFeePer10k",
      "outputs": [],
      "stateMutability": "nonpayable",
      "type": "function"
    },
    {
      "inputs": [
        {
          "internalType": "bool",
          "name": "setting",
          "type": "bool"
        }
      ],
      "name": "setFlashLoansEnabled",
      "outputs": [],
      "stateMutability": "nonpayable",
      "type": "function"
    },
    {
      "inputs": [
        {
          "internalType": "uint256",
          "name": "debtCeiling",
          "type": "uint256"
        }
      ],
      "name": "setGlobalDebtCeiling",
      "outputs": [],
      "stateMutability": "nonpayable",
      "type": "function"
    },
    {
      "inputs": [],
      "name": "symbol",
      "outputs": [
        {
          "internalType": "string",
          "name": "",
          "type": "string"
        }
      ],
      "stateMutability": "view",
      "type": "function"
    },
    {
      "inputs": [],
      "name": "totalSupply",
      "outputs": [
        {
          "internalType": "uint256",
          "name": "",
          "type": "uint256"
        }
      ],
      "stateMutability": "view",
      "type": "function"
    },
    {
      "inputs": [
        {
          "internalType": "address",
          "name": "recipient",
          "type": "address"
        },
        {
          "internalType": "uint256",
          "name": "amount",
          "type": "uint256"
        }
      ],
      "name": "transfer",
      "outputs": [
        {
          "internalType": "bool",
          "name": "",
          "type": "bool"
        }
      ],
      "stateMutability": "nonpayable",
      "type": "function"
    },
    {
      "inputs": [
        {
          "internalType": "address",
          "name": "sender",
          "type": "address"
        },
        {
          "internalType": "address",
          "name": "recipient",
          "type": "address"
        },
        {
          "internalType": "uint256",
          "name": "amount",
          "type": "uint256"
        }
      ],
      "name": "transferFrom",
      "outputs": [
        {
          "internalType": "bool",
          "name": "",
          "type": "bool"
        }
      ],
      "stateMutability": "nonpayable",
      "type": "function"
    },
    {
      "inputs": [
        {
          "internalType": "uint256",
          "name": "role",
          "type": "uint256"
        }
      ],
      "name": "updateMainCharacterCache",
      "outputs": [],
      "stateMutability": "nonpayable",
      "type": "function"
    },
    {
      "inputs": [
        {
          "internalType": "uint256",
          "name": "role",
          "type": "uint256"
        },
        {
          "internalType": "address",
          "name": "contr",
          "type": "address"
        }
      ],
      "name": "updateRoleCache",
      "outputs": [],
      "stateMutability": "nonpayable",
      "type": "function"
    }
  ],
  "transactionHash": "0xfd5a931a3fbff09ba1a4d3b03c6168850284e76cb1b3fb3a739a162b76cbeb66",
  "args": [
    "0x8f1ca3288764F0BC18eefeCA6D821D8bC93c99bf"
  ],
  "solcInputHash": "d661444e9ab44536e22176239a595dea",
  "bytecode": "0x6101606040527f6e71edae12b1b97f4d1f60370fef10105fa2faae0126114a169c64845d6126c96101405269152d02c7e14af6800000600d556005600e55600f805460ff191660011790553480156200005757600080fd5b5060405162002668380380620026688339810160408190526200007a9162000397565b604051806040016040528060058152602001644d4f4e455960d81b81525080604051806040016040528060018152602001603160f81b8152506040518060400160405280601381526020017f4d6f72654d6f6e657920555320446f6c6c617200000000000000000000000000815250604051806040016040528060058152602001644d4f4e455960d81b8152508560006001600160a01b0316816001600160a01b031614156200017b5760405162461bcd60e51b815260206004820152602260248201527f506c656173652070726f766964652076616c696420726f6c6573206164647265604482015261737360f01b606482015260840160405180910390fd5b60601b6001600160601b0319166080528151620001a0906009906020850190620002f1565b508051620001b690600a906020840190620002f1565b50506001600b8190556003805480830190915560027fc2575a0e9e593c00f959f8c92f12db2869c3395a3b0502d05e2516446f71f85b90910181905580548083018255600091825260677f405787fa12a823e0f2b7631cc41b3ba8828b3321ca811111fa75cd3aa3bb5ace90910155845160209586012084519486019490942060e08590526101008190524660c0818152604080517f8b73c3c69bb8fe3d512ecc4cf759cc79239f7b179b0ffacaa9a75d522b39400f818b0181905281830199909952606081019490945260808401929092523060a0808501919091528251808503820181529390910190915281519190960120909452610120929092525060048054918201815590915260667f8a35acfbc15ff81a39ae7d344fd709f28e8600b4aa8c65c6b64bfe7fe36bd19b9091015550620004049050565b828054620002ff90620003c7565b90600052602060002090601f0160209004810192826200032357600085556200036e565b82601f106200033e57805160ff19168380011785556200036e565b828001600101855582156200036e579182015b828111156200036e57825182559160200191906001019062000351565b506200037c92915062000380565b5090565b5b808211156200037c576000815560010162000381565b600060208284031215620003a9578081fd5b81516001600160a01b0381168114620003c0578182fd5b9392505050565b600181811c90821680620003dc57607f821691505b60208210811415620003fe57634e487b7160e01b600052602260045260246000fd5b50919050565b60805160601c60a05160c05160e0516101005161012051610140516121ea6200047e6000396000610eb7015260006113e3015260006114320152600061140d0152600061138f015260006113b80152600081816102e001528181610614015281816109340152818161175101526117e401526121ea6000f3fe608060405234801561001057600080fd5b50600436106102325760003560e01c80637a1a04df11610130578063abcbc4fc116100b8578063dc94cb7d1161007c578063dc94cb7d146104ec578063dd62ed3e146104f4578063e8ea4fae1461052d578063e9c3f77d14610535578063f67979e21461055e57610232565b8063abcbc4fc1461048d578063aeb38d8b146104a0578063bf184ea4146104b3578063d505accf146104c6578063d9d98ce4146104d957610232565b80638d196e32116100ff5780638d196e321461043957806395d89b411461044c5780639dc29fac14610454578063a457c2d714610467578063a9059cbb1461047a57610232565b80637a1a04df146103dd5780637b604b541461040b5780637dad209b1461041e5780637ecebe001461042657610232565b8063392f5f64116101be5780635cffe9de116101825780635cffe9de146103685780635f1ce6fa1461037b578063613255ab1461038e5780636caa9c11146103a157806370a08231146103b457610232565b8063392f5f64146102db578063395093511461031a57806340c10f191461032d578063447d52ba146103405780634a7a7f411461035357610232565b806323b872dd1161020557806323b872dd1461029f57806328b35de9146102b25780632efcc866146102bb578063313ce567146102c45780633644e515146102d357610232565b806306fdde0314610237578063071060a614610255578063095ea7b31461026a57806318160ddd1461028d575b600080fd5b61023f61056b565b60405161024c919061203b565b60405180910390f35b610268610263366004611f62565b6105fe565b005b61027d610278366004611e4d565b6106c4565b604051901515815260200161024c565b6008545b60405190815260200161024c565b61027d6102ad366004611d98565b6106da565b610291600e5481565b610291600d5481565b6040516012815260200161024c565b610291610789565b6103027f000000000000000000000000000000000000000000000000000000000000000081565b6040516001600160a01b03909116815260200161024c565b61027d610328366004611e4d565b610798565b61026861033b366004611e4d565b6107d4565b61026861034e366004611f7a565b61090e565b61035b6109e6565b60405161024c9190611ff7565b61027d610376366004611ec8565b610a3d565b610268610389366004611e78565b610af6565b61029161039c366004611d28565b610b52565b6102916103af366004611f62565b610b80565b6102916103c2366004611d28565b6001600160a01b031660009081526006602052604090205490565b61027d6103eb366004611e4d565b600160209081526000928352604080842090915290825290205460ff1681565b610268610419366004611f62565b610ba1565b61035b610bef565b610291610434366004611d28565b610c45565b610268610447366004611f62565b610c63565b61023f610cb1565b610268610462366004611e4d565b610cc0565b61027d610475366004611e4d565b610d8d565b61027d610488366004611e4d565b610e26565b61029161049b366004611f62565b610e33565b6102916104ae366004611f62565b610e43565b6102916104c1366004611f62565b610e53565b6102686104d4366004611dd8565b610e63565b6102916104e7366004611e4d565b610fc7565b61035b610feb565b610291610502366004611d60565b6001600160a01b03918216600090815260076020908152604080832093909416825291909152205490565b61035b611041565b610302610543366004611f62565b6000602081905290815260409020546001600160a01b031681565b600f5461027d9060ff1681565b60606009805461057a90612146565b80601f01602080910402602001604051908101604052809291908181526020018280546105a690612146565b80156105f35780601f106105c8576101008083540402835291602001916105f3565b820191906000526020600020905b8154815290600101906020018083116105d657829003601f168201915b505050505090505b90565b60405163b4ed0b6d60e01b8152600481018290527f00000000000000000000000000000000000000000000000000000000000000006001600160a01b03169063b4ed0b6d9060240160206040518083038186803b15801561065e57600080fd5b505afa158015610672573d6000803e3d6000fd5b505050506040513d601f19601f820116820180604052508101906106969190611d44565b60009182526020829052604090912080546001600160a01b0319166001600160a01b03909216919091179055565b60006106d1338484611097565b50600192915050565b60006106e78484846111bc565b6001600160a01b0384166000908152600760209081526040808320338452909152902054828110156107715760405162461bcd60e51b815260206004820152602860248201527f45524332303a207472616e7366657220616d6f756e74206578636565647320616044820152676c6c6f77616e636560c01b60648201526084015b60405180910390fd5b61077e8533858403611097565b506001949350505050565b600061079361138b565b905090565b3360008181526007602090815260408083206001600160a01b038716845290915281205490916106d19185906107cf9086906120d8565b611097565b6002600b5414156108275760405162461bcd60e51b815260206004820152601f60248201527f5265656e7472616e637947756172643a207265656e7472616e742063616c6c006044820152606401610768565b6002600b819055336000908152600160209081526040808320938352929052205460ff166108975760405162461bcd60e51b815260206004820152601e60248201527f4e6f7420616e206175746f72697a6564206d696e7465722f6275726e657200006044820152606401610768565b6108a18282611482565b600854600d54116109055760405162461bcd60e51b815260206004820152602860248201527f546f74616c20737570706c79206578636565647320676c6f62616c2064656274604482015267206365696c696e6760c01b6064820152608401610768565b50506001600b55565b6040516393552a3d60e01b8152600481018390526001600160a01b0382811660248301527f000000000000000000000000000000000000000000000000000000000000000016906393552a3d9060440160206040518083038186803b15801561097657600080fd5b505afa15801561098a573d6000803e3d6000fd5b505050506040513d601f19601f820116820180604052508101906109ae9190611e94565b6001600160a01b0391909116600090815260016020908152604080832094835293905291909120805460ff1916911515919091179055565b606060038054806020026020016040519081016040528092919081815260200182805480156105f357602002820191906000526020600020905b815481526020019060010190808311610a20575050505050905090565b600f5460009060ff16610a925760405162461bcd60e51b815260206004820152601860248201527f466c617368206c6f616e73206172652064697361626c656400000000000000006044820152606401610768565b610adf610ad0606760009081526020527f682158d08466d11c566d5712d4396197fdd67e65be71d83c97ef719ec468867b546001600160a01b031690565b610ada8787610fc7565b611482565b610aec8686868686611561565b9695505050505050565b33610aff61174d565b6001600160a01b03161480610b23575033610b186117e0565b6001600160a01b0316145b610b3f5760405162461bcd60e51b81526004016107689061208e565b600f805460ff1916911515919091179055565b60006001600160a01b0382163014610b6b576000610b7a565b600854610b7a9060001961212f565b92915050565b60058181548110610b9057600080fd5b600091825260209091200154905081565b33610baa61174d565b6001600160a01b03161480610bce575033610bc36117e0565b6001600160a01b0316145b610bea5760405162461bcd60e51b81526004016107689061208e565b600e55565b606060048054806020026020016040519081016040528092919081815260200182805480156105f35760200282019190600052602060002090815481526020019060010190808311610a20575050505050905090565b6001600160a01b0381166000908152600c6020526040812054610b7a565b33610c6c61174d565b6001600160a01b03161480610c90575033610c856117e0565b6001600160a01b0316145b610cac5760405162461bcd60e51b81526004016107689061208e565b600d55565b6060600a805461057a90612146565b6002600b541415610d135760405162461bcd60e51b815260206004820152601f60248201527f5265656e7472616e637947756172643a207265656e7472616e742063616c6c006044820152606401610768565b6002600b819055336000908152600160209081526040808320938352929052205460ff16610d835760405162461bcd60e51b815260206004820152601f60248201527f4e6f7420616e20617574686f72697a6564206d696e7465722f6275726e6572006044820152606401610768565b6109058282611851565b3360009081526007602090815260408083206001600160a01b038616845290915281205482811015610e0f5760405162461bcd60e51b815260206004820152602560248201527f45524332303a2064656372656173656420616c6c6f77616e63652062656c6f77604482015264207a65726f60d81b6064820152608401610768565b610e1c3385858403611097565b5060019392505050565b60006106d13384846111bc565b60028181548110610b9057600080fd5b60048181548110610b9057600080fd5b60038181548110610b9057600080fd5b83421115610eb35760405162461bcd60e51b815260206004820152601d60248201527f45524332305065726d69743a206578706972656420646561646c696e650000006044820152606401610768565b60007f0000000000000000000000000000000000000000000000000000000000000000888888610ee28c611997565b6040805160208101969096526001600160a01b0394851690860152929091166060840152608083015260a082015260c0810186905260e0016040516020818303038152906040528051906020012090506000610f3d826119bf565b90506000610f4d82878787611a0d565b9050896001600160a01b0316816001600160a01b031614610fb05760405162461bcd60e51b815260206004820152601e60248201527f45524332305065726d69743a20696e76616c6964207369676e617475726500006044820152606401610768565b610fbb8a8a8a611097565b50505050505050505050565b6000612710600e5483610fda9190612110565b610fe491906120f0565b9392505050565b606060028054806020026020016040519081016040528092919081815260200182805480156105f35760200282019190600052602060002090815481526020019060010190808311610a20575050505050905090565b606060058054806020026020016040519081016040528092919081815260200182805480156105f35760200282019190600052602060002090815481526020019060010190808311610a20575050505050905090565b6001600160a01b0383166110f95760405162461bcd60e51b8152602060048201526024808201527f45524332303a20617070726f76652066726f6d20746865207a65726f206164646044820152637265737360e01b6064820152608401610768565b6001600160a01b03821661115a5760405162461bcd60e51b815260206004820152602260248201527f45524332303a20617070726f766520746f20746865207a65726f206164647265604482015261737360f01b6064820152608401610768565b6001600160a01b0383811660008181526007602090815260408083209487168084529482529182902085905590518481527f8c5be1e5ebec7d5bd14f71427d1e84f3dd0314c0f7b2291e5b200ac8c7c3b92591015b60405180910390a3505050565b6001600160a01b0383166112205760405162461bcd60e51b815260206004820152602560248201527f45524332303a207472616e736665722066726f6d20746865207a65726f206164604482015264647265737360d81b6064820152608401610768565b6001600160a01b0382166112825760405162461bcd60e51b815260206004820152602360248201527f45524332303a207472616e7366657220746f20746865207a65726f206164647260448201526265737360e81b6064820152608401610768565b6001600160a01b038316600090815260066020526040902054818110156112fa5760405162461bcd60e51b815260206004820152602660248201527f45524332303a207472616e7366657220616d6f756e7420657863656564732062604482015265616c616e636560d01b6064820152608401610768565b6001600160a01b038085166000908152600660205260408082208585039055918516815290812080548492906113319084906120d8565b92505081905550826001600160a01b0316846001600160a01b03167fddf252ad1be2c89b69c2b068fc378daa952ba7f163c4a11628f55a4df523b3ef8460405161137d91815260200190565b60405180910390a350505050565b60007f00000000000000000000000000000000000000000000000000000000000000004614156113dc57507f00000000000000000000000000000000000000000000000000000000000000006105fb565b50604080517f00000000000000000000000000000000000000000000000000000000000000006020808301919091527f0000000000000000000000000000000000000000000000000000000000000000828401527f000000000000000000000000000000000000000000000000000000000000000060608301524660808301523060a0808401919091528351808403909101815260c090920190925280519101206105fb565b6001600160a01b0382166114d85760405162461bcd60e51b815260206004820152601f60248201527f45524332303a206d696e7420746f20746865207a65726f2061646472657373006044820152606401610768565b80600860008282546114ea91906120d8565b90915550506001600160a01b038216600090815260066020526040812080548392906115179084906120d8565b90915550506040518181526001600160a01b038316906000907fddf252ad1be2c89b69c2b068fc378daa952ba7f163c4a11628f55a4df523b3ef9060200160405180910390a35050565b60008061156e8686610fc7565b905061157a8786611482565b6040516323e30c8b60e01b81527f439148f0bbc682ca079e46d6e2c2f0c1e3b820f1a291b069d8882abf8cf18dd9906001600160a01b038916906323e30c8b906115d29033908b908b9088908c908c90600401611f9e565b602060405180830381600087803b1580156115ec57600080fd5b505af1158015611600573d6000803e3d6000fd5b505050506040513d601f19601f820116820180604052508101906116249190611eb0565b1461167d5760405162461bcd60e51b8152602060048201526024808201527f4552433230466c6173684d696e743a20696e76616c69642072657475726e2076604482015263616c756560e01b6064820152608401610768565b6001600160a01b03871660009081526007602090815260408083203084529091529020546116ab82876120d8565b8110156117125760405162461bcd60e51b815260206004820152602f60248201527f4552433230466c6173684d696e743a20616c6c6f77616e636520646f6573206e60448201526e1bdd08185b1b1bddc81c99599d5b99608a1b6064820152608401610768565b61172c8830846117228a8661212f565b6107cf919061212f565b61173f8861173a84896120d8565b611851565b506001979650505050505050565b60007f00000000000000000000000000000000000000000000000000000000000000006001600160a01b0316638da5cb5b6040518163ffffffff1660e01b815260040160206040518083038186803b1580156117a857600080fd5b505afa1580156117bc573d6000803e3d6000fd5b505050506040513d601f19601f820116820180604052508101906107939190611d44565b60007f00000000000000000000000000000000000000000000000000000000000000006001600160a01b031663c34c08e56040518163ffffffff1660e01b8152600401602060405180830381600087803b15801561183d57600080fd5b505af11580156117bc573d6000803e3d6000fd5b6001600160a01b0382166118b15760405162461bcd60e51b815260206004820152602160248201527f45524332303a206275726e2066726f6d20746865207a65726f206164647265736044820152607360f81b6064820152608401610768565b6001600160a01b038216600090815260066020526040902054818110156119255760405162461bcd60e51b815260206004820152602260248201527f45524332303a206275726e20616d6f756e7420657863656564732062616c616e604482015261636560f01b6064820152608401610768565b6001600160a01b038316600090815260066020526040812083830390556008805484929061195490849061212f565b90915550506040518281526000906001600160a01b038516907fddf252ad1be2c89b69c2b068fc378daa952ba7f163c4a11628f55a4df523b3ef906020016111af565b6001600160a01b0381166000908152600c602052604090208054600181018255905b50919050565b6000610b7a6119cc61138b565b8360405161190160f01b6020820152602281018390526042810182905260009060620160405160208183030381529060405280519060200120905092915050565b6000806000611a1e87878787611a35565b91509150611a2b81611b22565b5095945050505050565b6000807f7fffffffffffffffffffffffffffffff5d576e7357a4501ddfe92f46681b20a0831115611a6c5750600090506003611b19565b8460ff16601b14158015611a8457508460ff16601c14155b15611a955750600090506004611b19565b6040805160008082526020820180845289905260ff881692820192909252606081018690526080810185905260019060a0016020604051602081039080840390855afa158015611ae9573d6000803e3d6000fd5b5050604051601f1901519150506001600160a01b038116611b1257600060019250925050611b19565b9150600090505b94509492505050565b6000816004811115611b4457634e487b7160e01b600052602160045260246000fd5b1415611b4f57611d25565b6001816004811115611b7157634e487b7160e01b600052602160045260246000fd5b1415611bbf5760405162461bcd60e51b815260206004820152601860248201527f45434453413a20696e76616c6964207369676e617475726500000000000000006044820152606401610768565b6002816004811115611be157634e487b7160e01b600052602160045260246000fd5b1415611c2f5760405162461bcd60e51b815260206004820152601f60248201527f45434453413a20696e76616c6964207369676e6174757265206c656e677468006044820152606401610768565b6003816004811115611c5157634e487b7160e01b600052602160045260246000fd5b1415611caa5760405162461bcd60e51b815260206004820152602260248201527f45434453413a20696e76616c6964207369676e6174757265202773272076616c604482015261756560f01b6064820152608401610768565b6004816004811115611ccc57634e487b7160e01b600052602160045260246000fd5b1415611d255760405162461bcd60e51b815260206004820152602260248201527f45434453413a20696e76616c6964207369676e6174757265202776272076616c604482015261756560f01b6064820152608401610768565b50565b600060208284031215611d39578081fd5b8135610fe481612191565b600060208284031215611d55578081fd5b8151610fe481612191565b60008060408385031215611d72578081fd5b8235611d7d81612191565b91506020830135611d8d81612191565b809150509250929050565b600080600060608486031215611dac578081fd5b8335611db781612191565b92506020840135611dc781612191565b929592945050506040919091013590565b600080600080600080600060e0888a031215611df2578283fd5b8735611dfd81612191565b96506020880135611e0d81612191565b95506040880135945060608801359350608088013560ff81168114611e30578384fd5b9699959850939692959460a0840135945060c09093013592915050565b60008060408385031215611e5f578182fd5b8235611e6a81612191565b946020939093013593505050565b600060208284031215611e89578081fd5b8135610fe4816121a6565b600060208284031215611ea5578081fd5b8151610fe4816121a6565b600060208284031215611ec1578081fd5b5051919050565b600080600080600060808688031215611edf578081fd5b8535611eea81612191565b94506020860135611efa81612191565b935060408601359250606086013567ffffffffffffffff80821115611f1d578283fd5b818801915088601f830112611f30578283fd5b813581811115611f3e578384fd5b896020828501011115611f4f578384fd5b9699959850939650602001949392505050565b600060208284031215611f73578081fd5b5035919050565b60008060408385031215611f8c578182fd5b823591506020830135611d8d81612191565b6001600160a01b03878116825286166020820152604081018590526060810184905260a06080820181905281018290526000828460c084013781830160c090810191909152601f909201601f1916010195945050505050565b6020808252825182820181905260009190848201906040850190845b8181101561202f57835183529284019291840191600101612013565b50909695505050505050565b6000602080835283518082850152825b818110156120675785810183015185820160400152820161204b565b818111156120785783604083870101525b50601f01601f1916929092016040019392505050565b6020808252602a908201527f526f6c65733a2063616c6c6572206973206e6f7420746865206f776e6572206f604082015269391032bc32b1baba37b960b11b606082015260800190565b600082198211156120eb576120eb61217b565b500190565b60008261210b57634e487b7160e01b81526012600452602481fd5b500490565b600081600019048311821515161561212a5761212a61217b565b500290565b6000828210156121415761214161217b565b500390565b600181811c9082168061215a57607f821691505b602082108114156119b957634e487b7160e01b600052602260045260246000fd5b634e487b7160e01b600052601160045260246000fd5b6001600160a01b0381168114611d2557600080fd5b8015158114611d2557600080fdfea2646970667358221220a14cbbca05e5f6063409ea5dba9d6eb37835fc917fb564e8343a8648c8d0e36664736f6c63430008030033",
  "devdoc": {
    "kind": "dev",
    "methods": {
      "DOMAIN_SEPARATOR()": {
        "details": "See {IERC20Permit-DOMAIN_SEPARATOR}."
      },
      "allowance(address,address)": {
        "details": "See {IERC20-allowance}."
      },
      "approve(address,uint256)": {
        "details": "See {IERC20-approve}. Requirements: - `spender` cannot be the zero address."
      },
      "balanceOf(address)": {
        "details": "See {IERC20-balanceOf}."
      },
      "charactersPlayed()": {
        "details": "returns all characters played by this contract (e.g. stable coin, oracle registry)"
      },
      "decimals()": {
        "details": "Returns the number of decimals used to get its user representation. For example, if `decimals` equals `2`, a balance of `505` tokens should be displayed to a user as `5.05` (`505 / 10 ** 2`). Tokens usually opt for a value of 18, imitating the relationship between Ether and Wei. This is the value {ERC20} uses, unless this function is overridden; NOTE: This information is only used for _display_ purposes: it in no way affects any of the arithmetic of the contract, including {IERC20-balanceOf} and {IERC20-transfer}."
      },
      "decreaseAllowance(address,uint256)": {
        "details": "Atomically decreases the allowance granted to `spender` by the caller. This is an alternative to {approve} that can be used as a mitigation for problems described in {IERC20-approve}. Emits an {Approval} event indicating the updated allowance. Requirements: - `spender` cannot be the zero address. - `spender` must have allowance for the caller of at least `subtractedValue`."
      },
      "dependsOnCharacters()": {
        "details": "returns all the character dependencies like FEE_RECIPIENT"
      },
      "dependsOnRoles()": {
        "details": "returns all the roles dependencies of this contract like FUND_TRANSFERER"
      },
      "flashLoan(address,address,uint256,bytes)": {
        "details": "Performs a flash loan. New tokens are minted and sent to the `receiver`, who is required to implement the {IERC3156FlashBorrower} interface. By the end of the flash loan, the receiver is expected to own amount + fee tokens and have them approved back to the token contract itself so they can be burned.",
        "params": {
          "amount": "The amount of tokens to be loaned.",
          "data": "An arbitrary datafield that is passed to the receiver.",
          "receiver": "The receiver of the flash loan. Should implement the {IERC3156FlashBorrower.onFlashLoan} interface.",
          "token": "The token to be flash loaned. Only `address(this)` is supported."
        },
        "returns": {
          "_0": "`true` is the flash loan was successful."
        }
      },
      "increaseAllowance(address,uint256)": {
        "details": "Atomically increases the allowance granted to `spender` by the caller. This is an alternative to {approve} that can be used as a mitigation for problems described in {IERC20-approve}. Emits an {Approval} event indicating the updated allowance. Requirements: - `spender` cannot be the zero address."
      },
      "maxFlashLoan(address)": {
        "details": "Returns the maximum amount of tokens available for loan.",
        "params": {
          "token": "The address of the token that is requested."
        },
        "returns": {
          "_0": "The amont of token that can be loaned."
        }
      },
      "name()": {
        "details": "Returns the name of the token."
      },
      "nonces(address)": {
        "details": "See {IERC20Permit-nonces}."
      },
      "permit(address,address,uint256,uint256,uint8,bytes32,bytes32)": {
        "details": "See {IERC20Permit-permit}."
      },
      "rolesPlayed()": {
        "details": "returns all roles played by this contract"
      },
      "symbol()": {
        "details": "Returns the symbol of the token, usually a shorter version of the name."
      },
      "totalSupply()": {
        "details": "See {IERC20-totalSupply}."
      },
      "transfer(address,uint256)": {
        "details": "See {IERC20-transfer}. Requirements: - `recipient` cannot be the zero address. - the caller must have a balance of at least `amount`."
      },
      "transferFrom(address,address,uint256)": {
        "details": "See {IERC20-transferFrom}. Emits an {Approval} event indicating the updated allowance. This is not required by the EIP. See the note at the beginning of {ERC20}. Requirements: - `sender` and `recipient` cannot be the zero address. - `sender` must have a balance of at least `amount`. - the caller must have allowance for ``sender``'s tokens of at least `amount`."
      },
      "updateMainCharacterCache(uint256)": {
        "details": "Updates the main character cache for a speciic character"
      },
      "updateRoleCache(uint256,address)": {
        "details": "Updates the role cache for a specific role and address"
      }
    },
    "version": 1
  },
  "userdoc": {
    "kind": "user",
    "methods": {},
    "version": 1
  },
  "storageLayout": {
    "storage": [
      {
        "astId": 16299,
        "contract": "contracts/Stablecoin.sol:Stablecoin",
        "label": "mainCharacterCache",
        "offset": 0,
        "slot": "0",
        "type": "t_mapping(t_uint256,t_address)"
      },
      {
        "astId": 16305,
        "contract": "contracts/Stablecoin.sol:Stablecoin",
        "label": "roleCache",
        "offset": 0,
        "slot": "1",
        "type": "t_mapping(t_address,t_mapping(t_uint256,t_bool))"
      },
      {
        "astId": 16308,
        "contract": "contracts/Stablecoin.sol:Stablecoin",
        "label": "_dependsOnCharacters",
        "offset": 0,
        "slot": "2",
        "type": "t_array(t_uint256)dyn_storage"
      },
      {
        "astId": 16311,
        "contract": "contracts/Stablecoin.sol:Stablecoin",
        "label": "_dependsOnRoles",
        "offset": 0,
        "slot": "3",
        "type": "t_array(t_uint256)dyn_storage"
      },
      {
        "astId": 16314,
        "contract": "contracts/Stablecoin.sol:Stablecoin",
        "label": "_charactersPlayed",
        "offset": 0,
        "slot": "4",
        "type": "t_array(t_uint256)dyn_storage"
      },
      {
        "astId": 16317,
        "contract": "contracts/Stablecoin.sol:Stablecoin",
        "label": "_rolesPlayed",
        "offset": 0,
        "slot": "5",
        "type": "t_array(t_uint256)dyn_storage"
      },
      {
        "astId": 267,
        "contract": "contracts/Stablecoin.sol:Stablecoin",
        "label": "_balances",
        "offset": 0,
        "slot": "6",
        "type": "t_mapping(t_address,t_uint256)"
      },
      {
        "astId": 273,
        "contract": "contracts/Stablecoin.sol:Stablecoin",
        "label": "_allowances",
        "offset": 0,
        "slot": "7",
        "type": "t_mapping(t_address,t_mapping(t_address,t_uint256))"
      },
      {
        "astId": 275,
        "contract": "contracts/Stablecoin.sol:Stablecoin",
        "label": "_totalSupply",
        "offset": 0,
        "slot": "8",
        "type": "t_uint256"
      },
      {
        "astId": 277,
        "contract": "contracts/Stablecoin.sol:Stablecoin",
        "label": "_name",
        "offset": 0,
        "slot": "9",
        "type": "t_string_storage"
      },
      {
        "astId": 279,
        "contract": "contracts/Stablecoin.sol:Stablecoin",
        "label": "_symbol",
        "offset": 0,
        "slot": "10",
        "type": "t_string_storage"
      },
      {
        "astId": 222,
        "contract": "contracts/Stablecoin.sol:Stablecoin",
        "label": "_status",
        "offset": 0,
        "slot": "11",
        "type": "t_uint256"
      },
      {
        "astId": 1089,
        "contract": "contracts/Stablecoin.sol:Stablecoin",
        "label": "_nonces",
        "offset": 0,
        "slot": "12",
        "type": "t_mapping(t_address,t_struct(Counter)3166_storage)"
      },
      {
        "astId": 8500,
        "contract": "contracts/Stablecoin.sol:Stablecoin",
        "label": "globalDebtCeiling",
        "offset": 0,
        "slot": "13",
        "type": "t_uint256"
      },
      {
        "astId": 8508,
        "contract": "contracts/Stablecoin.sol:Stablecoin",
        "label": "flashFeePer10k",
        "offset": 0,
        "slot": "14",
        "type": "t_uint256"
      },
      {
        "astId": 8511,
        "contract": "contracts/Stablecoin.sol:Stablecoin",
        "label": "flashLoansEnabled",
        "offset": 0,
        "slot": "15",
        "type": "t_bool"
      }
    ],
    "types": {
      "t_address": {
        "encoding": "inplace",
        "label": "address",
        "numberOfBytes": "20"
      },
      "t_array(t_uint256)dyn_storage": {
        "base": "t_uint256",
        "encoding": "dynamic_array",
        "label": "uint256[]",
        "numberOfBytes": "32"
      },
      "t_bool": {
        "encoding": "inplace",
        "label": "bool",
        "numberOfBytes": "1"
      },
      "t_mapping(t_address,t_mapping(t_address,t_uint256))": {
        "encoding": "mapping",
        "key": "t_address",
        "label": "mapping(address => mapping(address => uint256))",
        "numberOfBytes": "32",
        "value": "t_mapping(t_address,t_uint256)"
      },
      "t_mapping(t_address,t_mapping(t_uint256,t_bool))": {
        "encoding": "mapping",
        "key": "t_address",
        "label": "mapping(address => mapping(uint256 => bool))",
        "numberOfBytes": "32",
        "value": "t_mapping(t_uint256,t_bool)"
      },
      "t_mapping(t_address,t_struct(Counter)3166_storage)": {
        "encoding": "mapping",
        "key": "t_address",
        "label": "mapping(address => struct Counters.Counter)",
        "numberOfBytes": "32",
        "value": "t_struct(Counter)3166_storage"
      },
      "t_mapping(t_address,t_uint256)": {
        "encoding": "mapping",
        "key": "t_address",
        "label": "mapping(address => uint256)",
        "numberOfBytes": "32",
        "value": "t_uint256"
      },
      "t_mapping(t_uint256,t_address)": {
        "encoding": "mapping",
        "key": "t_uint256",
        "label": "mapping(uint256 => address)",
        "numberOfBytes": "32",
        "value": "t_address"
      },
      "t_mapping(t_uint256,t_bool)": {
        "encoding": "mapping",
        "key": "t_uint256",
        "label": "mapping(uint256 => bool)",
        "numberOfBytes": "32",
        "value": "t_bool"
      },
      "t_string_storage": {
        "encoding": "bytes",
        "label": "string",
        "numberOfBytes": "32"
      },
      "t_struct(Counter)3166_storage": {
        "encoding": "inplace",
        "label": "struct Counters.Counter",
        "members": [
          {
            "astId": 3165,
            "contract": "contracts/Stablecoin.sol:Stablecoin",
            "label": "_value",
            "offset": 0,
            "slot": "0",
            "type": "t_uint256"
          }
        ],
        "numberOfBytes": "32"
      },
      "t_uint256": {
        "encoding": "inplace",
        "label": "uint256",
        "numberOfBytes": "32"
      }
    }
  }
}