{
  "address": "0x6327cb277310Bd4f4ED1572f4E4602b25c6b2D00",
  "abi": [
    {
      "inputs": [
        {
          "internalType": "address",
          "name": "_roles",
          "type": "address"
        }
      ],
      "stateMutability": "nonpayable",
      "type": "constructor"
    },
    {
      "inputs": [
        {
          "internalType": "uint256",
          "name": "",
          "type": "uint256"
        }
      ],
      "name": "_charactersPlayed",
      "outputs": [
        {
          "internalType": "uint256",
          "name": "",
          "type": "uint256"
        }
      ],
      "stateMutability": "view",
      "type": "function"
    },
    {
      "inputs": [
        {
          "internalType": "uint256",
          "name": "",
          "type": "uint256"
        }
      ],
      "name": "_dependsOnCharacters",
      "outputs": [
        {
          "internalType": "uint256",
          "name": "",
          "type": "uint256"
        }
      ],
      "stateMutability": "view",
      "type": "function"
    },
    {
      "inputs": [
        {
          "internalType": "uint256",
          "name": "",
          "type": "uint256"
        }
      ],
      "name": "_dependsOnRoles",
      "outputs": [
        {
          "internalType": "uint256",
          "name": "",
          "type": "uint256"
        }
      ],
      "stateMutability": "view",
      "type": "function"
    },
    {
      "inputs": [
        {
          "internalType": "uint256",
          "name": "",
          "type": "uint256"
        }
      ],
      "name": "_rolesPlayed",
      "outputs": [
        {
          "internalType": "uint256",
          "name": "",
          "type": "uint256"
        }
      ],
      "stateMutability": "view",
      "type": "function"
    },
    {
      "inputs": [
        {
          "internalType": "address",
          "name": "",
          "type": "address"
        }
      ],
      "name": "_tokenCount",
      "outputs": [
        {
          "internalType": "uint256",
          "name": "",
          "type": "uint256"
        }
      ],
      "stateMutability": "view",
      "type": "function"
    },
    {
      "inputs": [],
      "name": "allEnabledStrategies",
      "outputs": [
        {
          "internalType": "address[]",
          "name": "",
          "type": "address[]"
        }
      ],
      "stateMutability": "view",
      "type": "function"
    },
    {
      "inputs": [],
      "name": "charactersPlayed",
      "outputs": [
        {
          "internalType": "uint256[]",
          "name": "",
          "type": "uint256[]"
        }
      ],
      "stateMutability": "view",
      "type": "function"
    },
    {
      "inputs": [],
      "name": "dependsOnCharacters",
      "outputs": [
        {
          "internalType": "uint256[]",
          "name": "",
          "type": "uint256[]"
        }
      ],
      "stateMutability": "view",
      "type": "function"
    },
    {
      "inputs": [],
      "name": "dependsOnRoles",
      "outputs": [
        {
          "internalType": "uint256[]",
          "name": "",
          "type": "uint256[]"
        }
      ],
      "stateMutability": "view",
      "type": "function"
    },
    {
      "inputs": [
        {
          "internalType": "address",
          "name": "strat",
          "type": "address"
        }
      ],
      "name": "disableStrategy",
      "outputs": [],
      "stateMutability": "nonpayable",
      "type": "function"
    },
    {
      "inputs": [
        {
          "internalType": "address",
          "name": "strat",
          "type": "address"
        }
      ],
      "name": "enableStrategy",
      "outputs": [],
      "stateMutability": "nonpayable",
      "type": "function"
    },
    {
      "inputs": [
        {
          "internalType": "address",
          "name": "strat",
          "type": "address"
        }
      ],
      "name": "enabledStrategy",
      "outputs": [
        {
          "internalType": "bool",
          "name": "",
          "type": "bool"
        }
      ],
      "stateMutability": "view",
      "type": "function"
    },
    {
      "inputs": [],
      "name": "enabledTokenStratRows",
      "outputs": [
        {
          "internalType": "uint256",
          "name": "",
          "type": "uint256"
        }
      ],
      "stateMutability": "view",
      "type": "function"
    },
    {
      "inputs": [
        {
          "internalType": "address",
          "name": "strat",
          "type": "address"
        }
      ],
      "name": "getCurrentStrategy",
      "outputs": [
        {
          "internalType": "address",
          "name": "",
          "type": "address"
        }
      ],
      "stateMutability": "view",
      "type": "function"
    },
    {
      "inputs": [
        {
          "internalType": "uint256",
          "name": "",
          "type": "uint256"
        }
      ],
      "name": "mainCharacterCache",
      "outputs": [
        {
          "internalType": "address",
          "name": "",
          "type": "address"
        }
      ],
      "stateMutability": "view",
      "type": "function"
    },
    {
      "inputs": [
        {
          "internalType": "address",
          "name": "destination",
          "type": "address"
        },
        {
          "internalType": "address",
          "name": "token",
          "type": "address"
        }
      ],
      "name": "migrateTokenTo",
      "outputs": [],
      "stateMutability": "nonpayable",
      "type": "function"
    },
    {
      "inputs": [
        {
          "internalType": "address",
          "name": "legacyStrat",
          "type": "address"
        },
        {
          "internalType": "address",
          "name": "replacementStrat",
          "type": "address"
        }
      ],
      "name": "replaceStrategy",
      "outputs": [],
      "stateMutability": "nonpayable",
      "type": "function"
    },
    {
      "inputs": [
        {
          "internalType": "address",
          "name": "",
          "type": "address"
        }
      ],
      "name": "replacementStrategy",
      "outputs": [
        {
          "internalType": "address",
          "name": "",
          "type": "address"
        }
      ],
      "stateMutability": "view",
      "type": "function"
    },
    {
      "inputs": [
        {
          "internalType": "address",
          "name": "",
          "type": "address"
        },
        {
          "internalType": "uint256",
          "name": "",
          "type": "uint256"
        }
      ],
      "name": "roleCache",
      "outputs": [
        {
          "internalType": "bool",
          "name": "",
          "type": "bool"
        }
      ],
      "stateMutability": "view",
      "type": "function"
    },
    {
      "inputs": [],
      "name": "roles",
      "outputs": [
        {
          "internalType": "contract Roles",
          "name": "",
          "type": "address"
        }
      ],
      "stateMutability": "view",
      "type": "function"
    },
    {
      "inputs": [],
      "name": "rolesPlayed",
      "outputs": [
        {
          "internalType": "uint256[]",
          "name": "",
          "type": "uint256[]"
        }
      ],
      "stateMutability": "view",
      "type": "function"
    },
    {
      "inputs": [],
      "name": "totalTokenStratRows",
      "outputs": [
        {
          "internalType": "uint256",
          "name": "",
          "type": "uint256"
        }
      ],
      "stateMutability": "view",
      "type": "function"
    },
    {
      "inputs": [
        {
          "internalType": "uint256",
          "name": "role",
          "type": "uint256"
        }
      ],
      "name": "updateMainCharacterCache",
      "outputs": [],
      "stateMutability": "nonpayable",
      "type": "function"
    },
    {
      "inputs": [
        {
          "internalType": "uint256",
          "name": "role",
          "type": "uint256"
        },
        {
          "internalType": "address",
          "name": "contr",
          "type": "address"
        }
      ],
      "name": "updateRoleCache",
      "outputs": [],
      "stateMutability": "nonpayable",
      "type": "function"
    },
    {
      "inputs": [
        {
          "internalType": "address",
          "name": "strat",
          "type": "address"
        }
      ],
      "name": "updateTokenCount",
      "outputs": [],
      "stateMutability": "nonpayable",
      "type": "function"
    },
    {
      "inputs": [],
      "name": "viewAllEnabledStrategyMetadata",
      "outputs": [
        {
          "components": [
            {
              "internalType": "address",
              "name": "strategy",
              "type": "address"
            },
            {
              "internalType": "address",
              "name": "token",
              "type": "address"
            },
            {
              "internalType": "uint256",
              "name": "APF",
              "type": "uint256"
            },
            {
              "internalType": "uint256",
              "name": "totalCollateral",
              "type": "uint256"
            },
            {
              "internalType": "uint256",
              "name": "borrowablePer10k",
              "type": "uint256"
            },
            {
              "internalType": "uint256",
              "name": "valuePer1e18",
              "type": "uint256"
            },
            {
              "internalType": "bytes32",
              "name": "strategyName",
              "type": "bytes32"
            },
            {
              "internalType": "uint256",
              "name": "tvl",
              "type": "uint256"
            },
            {
              "internalType": "uint256",
              "name": "harvestBalance2Tally",
              "type": "uint256"
            },
            {
              "internalType": "enum IStrategy.YieldType",
              "name": "yieldType",
              "type": "uint8"
            },
            {
              "internalType": "uint256",
              "name": "stabilityFee",
              "type": "uint256"
            }
          ],
          "internalType": "struct IStrategy.StrategyMetadata[]",
          "name": "",
          "type": "tuple[]"
        }
      ],
      "stateMutability": "view",
      "type": "function"
    }
  ],
  "transactionHash": "0xf7d425935e33ef8127f53ab4ec3d94c04cf4a8cf10e177b47787a6ad59824cf0",
  "args": [
    "0x70429C9357D150E3a9088f94b8D91d944106137B"
  ],
  "solcInputHash": "28c9fd7028c7235019505a3b598cc36a",
  "bytecode": "0x60a060405234801561001057600080fd5b50604051611b52380380611b5283398101604081905261002f916100e2565b806001600160a01b0381166100955760405162461bcd60e51b815260206004820152602260248201527f506c656173652070726f766964652076616c696420726f6c6573206164647265604482015261737360f01b606482015260840160405180910390fd5b60601b6001600160601b031916608052506004805460018101825560009190915260687f8a35acfbc15ff81a39ae7d344fd709f28e8600b4aa8c65c6b64bfe7fe36bd19b90910155610110565b6000602082840312156100f3578081fd5b81516001600160a01b0381168114610109578182fd5b9392505050565b60805160601c611a0861014a6000396000818161021a0152818161040d015281816106bc01528181610e040152610e970152611a086000f3fe608060405234801561001057600080fd5b506004361061018e5760003560e01c8063892c35e4116100de578063bf184ea411610097578063e9c3f77d11610071578063e9c3f77d1461037f578063e9e3812e146103a8578063f63de797146103bb578063f9cca685146103ce5761018e565b8063bf184ea41461035c578063dc94cb7d1461036f578063e8ea4fae146103775761018e565b8063892c35e4146102e757806398425ee1146102f0578063abcbc4fc14610303578063ae3adb9c14610316578063aeb38d8b14610336578063b4d69757146103495761018e565b8063447d52ba1161014b578063661d02ba11610125578063661d02ba146102795780636caa9c111461028e5780637a1a04df146102a15780637dad209b146102df5761018e565b8063447d52ba1461023c5780634a7a7f411461024f57806351a03ad4146102645761018e565b8063071060a61461019357806311848c45146101a85780631261048c146101bb57806316a665e1146101d75780633742fcc914610202578063392f5f6414610215575b600080fd5b6101a66101a13660046116a5565b6103f7565b005b6101a66101b63660046114a9565b6104bd565b6101c4600d5481565b6040519081526020015b60405180910390f35b6101ea6101e53660046114a9565b6105dd565b6040516001600160a01b0390911681526020016101ce565b6101a66102103660046114a9565b610629565b6101ea7f000000000000000000000000000000000000000000000000000000000000000081565b6101a661024a3660046116d5565b610696565b61025761076e565b6040516101ce9190611848565b61026c6107c6565b6040516101ce9190611737565b6102816107d7565b6040516101ce9190611784565b6101c461029c3660046116a5565b61098c565b6102cf6102af366004611519565b600160209081526000928352604080842090915290825290205460ff1681565b60405190151581526020016101ce565b6102576109ad565b6101c4600c5481565b6101a66102fe3660046114a9565b610a03565b6101c46103113660046116a5565b610a8d565b6101c46103243660046114a9565b600b6020526000908152604090205481565b6101c46103443660046116a5565b610a9d565b6102cf6103573660046114a9565b610aad565b6101c461036a3660046116a5565b610aba565b610257610aca565b610257610b20565b6101ea61038d3660046116a5565b6000602081905290815260409020546001600160a01b031681565b6101a66103b63660046114e1565b610b76565b6101a66103c93660046114e1565b610c8f565b6101ea6103dc3660046114a9565b6006602052600090815260409020546001600160a01b031681565b60405163b4ed0b6d60e01b8152600481018290527f00000000000000000000000000000000000000000000000000000000000000006001600160a01b03169063b4ed0b6d9060240160206040518083038186803b15801561045757600080fd5b505afa15801561046b573d6000803e3d6000fd5b505050506040513d601f19601f8201168201806040525081019061048f91906114c5565b60009182526020829052604090912080546001600160a01b0319166001600160a01b03909216919091179055565b6104c8600782610dd9565b6105195760405162461bcd60e51b815260206004820152601860248201527f4e6f7420616e20656e61626c656420737472617465677921000000000000000060448201526064015b60405180910390fd5b6001600160a01b0381166000818152600b602090815260408083205481516326ce80d960e11b81529151909492634d9d01b29260048082019391829003018186803b15801561056757600080fd5b505afa15801561057b573d6000803e3d6000fd5b505050506040513d601f19601f8201168201806040525081019061059f91906116bd565b90508181600c546105b0919061191b565b6105ba9190611933565b600c556001600160a01b039092166000908152600b602052604090209190915550565b6000815b6001600160a01b038181166000908152600660205260409020541615610621576001600160a01b03908116600090815260066020526040902054166105e1565b90505b919050565b33610632610e00565b6001600160a01b0316148061065657503361064b610e93565b6001600160a01b0316145b6106725760405162461bcd60e51b8152600401610510906118b3565b61067d600782610f04565b50610689600982610f04565b50610693816104bd565b50565b6040516393552a3d60e01b8152600481018390526001600160a01b0382811660248301527f000000000000000000000000000000000000000000000000000000000000000016906393552a3d9060440160206040518083038186803b1580156106fe57600080fd5b505afa158015610712573d6000803e3d6000fd5b505050506040513d601f19601f820116820180604052508101906107369190611685565b6001600160a01b0391909116600090815260016020908152604080832094835293905291909120805460ff1916911515919091179055565b606060038054806020026020016040519081016040528092919081815260200182805480156107bc57602002820191906000526020600020905b8154815260200190600101908083116107a8575b5050505050905090565b60606107d26007610f19565b905090565b60606000600c5467ffffffffffffffff81111561080457634e487b7160e01b600052604160045260246000fd5b60405190808252806020026020018201604052801561083d57816020015b61082a611401565b8152602001906001900390816108225790505b509050600061084c6007610f2d565b90506000805b80831115610983576000610867600783610f37565b90506000816001600160a01b03166321fa0f1f6040518163ffffffff1660e01b815260040160006040518083038186803b1580156108a457600080fd5b505afa1580156108b8573d6000803e3d6000fd5b505050506040513d6000823e601f3d908101601f191682016040526108e09190810190611544565b905060005b808251111561095f5781818151811061090e57634e487b7160e01b600052603260045260246000fd5b6020026020010151878287610923919061191b565b8151811061094157634e487b7160e01b600052603260045260246000fd5b6020026020010181905250808061095790611976565b9150506108e5565b50805161096c908561191b565b93505050808061097b90611976565b915050610852565b50919250505090565b6005818154811061099c57600080fd5b600091825260209091200154905081565b606060048054806020026020016040519081016040528092919081815260200182805480156107bc57602002820191906000526020600020908154815260200190600101908083116107a8575050505050905090565b33610a0c610e00565b6001600160a01b03161480610a30575033610a25610e93565b6001600160a01b0316145b610a4c5760405162461bcd60e51b8152600401610510906118b3565b6001600160a01b0381166000908152600b6020526040812054600c805491929091610a78908490611933565b90915550610a899050600782610f43565b5050565b6002818154811061099c57600080fd5b6004818154811061099c57600080fd5b6000610621600783610dd9565b6003818154811061099c57600080fd5b606060028054806020026020016040519081016040528092919081815260200182805480156107bc57602002820191906000526020600020908154815260200190600101908083116107a8575050505050905090565b606060058054806020026020016040519081016040528092919081815260200182805480156107bc57602002820191906000526020600020908154815260200190600101908083116107a8575050505050905090565b6040516370a0823160e01b81523360048201526000906001600160a01b038316906370a082319060240160206040518083038186803b158015610bb857600080fd5b505afa158015610bcc573d6000803e3d6000fd5b505050506040513d601f19601f82011682018060405250810190610bf091906116bd565b9050610c076001600160a01b038316333084610f58565b60405163095ea7b360e01b81526001600160a01b0384811660048301526024820183905283169063095ea7b390604401602060405180830381600087803b158015610c5157600080fd5b505af1158015610c65573d6000803e3d6000fd5b505050506040513d601f19601f82011682018060405250810190610c899190611685565b50505050565b33610c98610e00565b6001600160a01b03161480610cbc575033610cb1610e93565b6001600160a01b0316145b610cd85760405162461bcd60e51b8152600401610510906118b3565b610ce3600782610dd9565b610d3b5760405162461bcd60e51b815260206004820152602360248201527f5265706c6163656d656e74207374726174656779206973206e6f7420656e61626044820152621b195960ea1b6064820152608401610510565b604051633eb20ba360e21b81526001600160a01b03828116600483015283169063fac82e8c90602401600060405180830381600087803b158015610d7e57600080fd5b505af1158015610d92573d6000803e3d6000fd5b50505050610daa826007610f4390919063ffffffff16565b506001600160a01b03918216600090815260066020526040902080546001600160a01b03191691909216179055565b6001600160a01b038116600090815260018301602052604081205415155b90505b92915050565b60007f00000000000000000000000000000000000000000000000000000000000000006001600160a01b0316638da5cb5b6040518163ffffffff1660e01b815260040160206040518083038186803b158015610e5b57600080fd5b505afa158015610e6f573d6000803e3d6000fd5b505050506040513d601f19601f820116820180604052508101906107d291906114c5565b60007f00000000000000000000000000000000000000000000000000000000000000006001600160a01b031663c34c08e56040518163ffffffff1660e01b8152600401602060405180830381600087803b158015610ef057600080fd5b505af1158015610e6f573d6000803e3d6000fd5b6000610df7836001600160a01b038416610fb2565b60606000610f2683611001565b9392505050565b6000610621825490565b6000610df7838361105d565b6000610df7836001600160a01b038416611095565b604080516001600160a01b0385811660248301528416604482015260648082018490528251808303909101815260849091019091526020810180516001600160e01b03166323b872dd60e01b179052610c899085906111b2565b6000818152600183016020526040812054610ff957508154600181810184556000848152602080822090930184905584548482528286019093526040902091909155610dfa565b506000610dfa565b60608160000180548060200260200160405190810160405280929190818152602001828054801561105157602002820191906000526020600020905b81548152602001906001019080831161103d575b50505050509050919050565b600082600001828154811061108257634e487b7160e01b600052603260045260246000fd5b9060005260206000200154905092915050565b600081815260018301602052604081205480156111a85760006110b9600183611933565b85549091506000906110cd90600190611933565b905081811461114e5760008660000182815481106110fb57634e487b7160e01b600052603260045260246000fd5b906000526020600020015490508087600001848154811061112c57634e487b7160e01b600052603260045260246000fd5b6000918252602080832090910192909255918252600188019052604090208390555b855486908061116d57634e487b7160e01b600052603160045260246000fd5b600190038181906000526020600020016000905590558560010160008681526020019081526020016000206000905560019350505050610dfa565b6000915050610dfa565b6000611207826040518060400160405280602081526020017f5361666545524332303a206c6f772d6c6576656c2063616c6c206661696c6564815250856001600160a01b03166112899092919063ffffffff16565b80519091501561128457808060200190518101906112259190611685565b6112845760405162461bcd60e51b815260206004820152602a60248201527f5361666545524332303a204552433230206f7065726174696f6e20646964206e6044820152691bdd081cdd58d8d9595960b21b6064820152608401610510565b505050565b606061129884846000856112a0565b949350505050565b6060824710156113015760405162461bcd60e51b815260206004820152602660248201527f416464726573733a20696e73756666696369656e742062616c616e636520666f6044820152651c8818d85b1b60d21b6064820152608401610510565b843b61134f5760405162461bcd60e51b815260206004820152601d60248201527f416464726573733a2063616c6c20746f206e6f6e2d636f6e74726163740000006044820152606401610510565b600080866001600160a01b0316858760405161136b919061171b565b60006040518083038185875af1925050503d80600081146113a8576040519150601f19603f3d011682016040523d82523d6000602084013e6113ad565b606091505b50915091506113bd8282866113c8565b979650505050505050565b606083156113d7575081610f26565b8251156113e75782518084602001fd5b8160405162461bcd60e51b81526004016105109190611880565b60405180610160016040528060006001600160a01b0316815260200160006001600160a01b03168152602001600081526020016000815260200160008152602001600081526020016000801916815260200160008152602001600081526020016000600281111561148257634e487b7160e01b600052602160045260246000fd5b8152602001600081525090565b8051610624816119bd565b80516003811061062457600080fd5b6000602082840312156114ba578081fd5b8135610f26816119bd565b6000602082840312156114d6578081fd5b8151610f26816119bd565b600080604083850312156114f3578081fd5b82356114fe816119bd565b9150602083013561150e816119bd565b809150509250929050565b6000806040838503121561152b578182fd5b8235611536816119bd565b946020939093013593505050565b60006020808385031215611556578182fd5b825167ffffffffffffffff8082111561156d578384fd5b818501915085601f830112611580578384fd5b815181811115611592576115926119a7565b6115a0848260051b016118ea565b8181528481019250838501610160808402860187018a10156115c0578788fd5b8795505b838610156116775780828b0312156115da578788fd5b6115e3816118ea565b6115ec8361148f565b81526115f988840161148f565b8189015260408381015190820152606080840151908201526080808401519082015260a0808401519082015260c0808401519082015260e08084015190820152610100808401519082015261012061165281850161149a565b90820152610140838101519082015285526001959095019493860193908101906115c4565b509098975050505050505050565b600060208284031215611696578081fd5b81518015158114610f26578182fd5b6000602082840312156116b6578081fd5b5035919050565b6000602082840312156116ce578081fd5b5051919050565b600080604083850312156116e7578182fd5b82359150602083013561150e816119bd565b6003811061171757634e487b7160e01b600052602160045260246000fd5b9052565b6000825161172d81846020870161194a565b9190910192915050565b6020808252825182820181905260009190848201906040850190845b818110156117785783516001600160a01b031683529284019291840191600101611753565b50909695505050505050565b602080825282518282018190526000919060409081850190868401855b8281101561183b57815180516001600160a01b0390811686528782015116878601528581015186860152606080820151908601526080808201519086015260a0808201519086015260c0808201519086015260e0808201519086015261010080820151908601526101208082015161181b828801826116f9565b5050610140908101519085015261016090930192908501906001016117a1565b5091979650505050505050565b6020808252825182820181905260009190848201906040850190845b8181101561177857835183529284019291840191600101611864565b600060208252825180602084015261189f81604085016020870161194a565b601f01601f19169190910160400192915050565b6020808252601e908201527f526f6c65733a2063616c6c6572206973206e6f7420746865206f776e65720000604082015260600190565b604051601f8201601f1916810167ffffffffffffffff81118282101715611913576119136119a7565b604052919050565b6000821982111561192e5761192e611991565b500190565b60008282101561194557611945611991565b500390565b60005b8381101561196557818101518382015260200161194d565b83811115610c895750506000910152565b600060001982141561198a5761198a611991565b5060010190565b634e487b7160e01b600052601160045260246000fd5b634e487b7160e01b600052604160045260246000fd5b6001600160a01b038116811461069357600080fdfea26469706673582212208a91b045296ceb63a46bf0a8154af3ce9ece9b50bf44f29130c50adb613d570464736f6c63430008030033",
  "devdoc": {
    "kind": "dev",
    "methods": {},
    "version": 1
  },
  "userdoc": {
    "kind": "user",
    "methods": {},
    "version": 1
  },
  "storageLayout": {
    "storage": [
      {
        "astId": 14106,
        "contract": "contracts/StrategyRegistry.sol:StrategyRegistry",
        "label": "mainCharacterCache",
        "offset": 0,
        "slot": "0",
        "type": "t_mapping(t_uint256,t_address)"
      },
      {
        "astId": 14112,
        "contract": "contracts/StrategyRegistry.sol:StrategyRegistry",
        "label": "roleCache",
        "offset": 0,
        "slot": "1",
        "type": "t_mapping(t_address,t_mapping(t_uint256,t_bool))"
      },
      {
        "astId": 14115,
        "contract": "contracts/StrategyRegistry.sol:StrategyRegistry",
        "label": "_dependsOnCharacters",
        "offset": 0,
        "slot": "2",
        "type": "t_array(t_uint256)dyn_storage"
      },
      {
        "astId": 14118,
        "contract": "contracts/StrategyRegistry.sol:StrategyRegistry",
        "label": "_dependsOnRoles",
        "offset": 0,
        "slot": "3",
        "type": "t_array(t_uint256)dyn_storage"
      },
      {
        "astId": 14121,
        "contract": "contracts/StrategyRegistry.sol:StrategyRegistry",
        "label": "_charactersPlayed",
        "offset": 0,
        "slot": "4",
        "type": "t_array(t_uint256)dyn_storage"
      },
      {
        "astId": 14124,
        "contract": "contracts/StrategyRegistry.sol:StrategyRegistry",
        "label": "_rolesPlayed",
        "offset": 0,
        "slot": "5",
        "type": "t_array(t_uint256)dyn_storage"
      },
      {
        "astId": 8222,
        "contract": "contracts/StrategyRegistry.sol:StrategyRegistry",
        "label": "replacementStrategy",
        "offset": 0,
        "slot": "6",
        "type": "t_mapping(t_address,t_address)"
      },
      {
        "astId": 8225,
        "contract": "contracts/StrategyRegistry.sol:StrategyRegistry",
        "label": "enabledStrategies",
        "offset": 0,
        "slot": "7",
        "type": "t_struct(AddressSet)3278_storage"
      },
      {
        "astId": 8228,
        "contract": "contracts/StrategyRegistry.sol:StrategyRegistry",
        "label": "allStrategiesEver",
        "offset": 0,
        "slot": "9",
        "type": "t_struct(AddressSet)3278_storage"
      },
      {
        "astId": 8232,
        "contract": "contracts/StrategyRegistry.sol:StrategyRegistry",
        "label": "_tokenCount",
        "offset": 0,
        "slot": "11",
        "type": "t_mapping(t_address,t_uint256)"
      },
      {
        "astId": 8234,
        "contract": "contracts/StrategyRegistry.sol:StrategyRegistry",
        "label": "totalTokenStratRows",
        "offset": 0,
        "slot": "12",
        "type": "t_uint256"
      },
      {
        "astId": 8236,
        "contract": "contracts/StrategyRegistry.sol:StrategyRegistry",
        "label": "enabledTokenStratRows",
        "offset": 0,
        "slot": "13",
        "type": "t_uint256"
      }
    ],
    "types": {
      "t_address": {
        "encoding": "inplace",
        "label": "address",
        "numberOfBytes": "20"
      },
      "t_array(t_bytes32)dyn_storage": {
        "base": "t_bytes32",
        "encoding": "dynamic_array",
        "label": "bytes32[]",
        "numberOfBytes": "32"
      },
      "t_array(t_uint256)dyn_storage": {
        "base": "t_uint256",
        "encoding": "dynamic_array",
        "label": "uint256[]",
        "numberOfBytes": "32"
      },
      "t_bool": {
        "encoding": "inplace",
        "label": "bool",
        "numberOfBytes": "1"
      },
      "t_bytes32": {
        "encoding": "inplace",
        "label": "bytes32",
        "numberOfBytes": "32"
      },
      "t_mapping(t_address,t_address)": {
        "encoding": "mapping",
        "key": "t_address",
        "label": "mapping(address => address)",
        "numberOfBytes": "32",
        "value": "t_address"
      },
      "t_mapping(t_address,t_mapping(t_uint256,t_bool))": {
        "encoding": "mapping",
        "key": "t_address",
        "label": "mapping(address => mapping(uint256 => bool))",
        "numberOfBytes": "32",
        "value": "t_mapping(t_uint256,t_bool)"
      },
      "t_mapping(t_address,t_uint256)": {
        "encoding": "mapping",
        "key": "t_address",
        "label": "mapping(address => uint256)",
        "numberOfBytes": "32",
        "value": "t_uint256"
      },
      "t_mapping(t_bytes32,t_uint256)": {
        "encoding": "mapping",
        "key": "t_bytes32",
        "label": "mapping(bytes32 => uint256)",
        "numberOfBytes": "32",
        "value": "t_uint256"
      },
      "t_mapping(t_uint256,t_address)": {
        "encoding": "mapping",
        "key": "t_uint256",
        "label": "mapping(uint256 => address)",
        "numberOfBytes": "32",
        "value": "t_address"
      },
      "t_mapping(t_uint256,t_bool)": {
        "encoding": "mapping",
        "key": "t_uint256",
        "label": "mapping(uint256 => bool)",
        "numberOfBytes": "32",
        "value": "t_bool"
      },
      "t_struct(AddressSet)3278_storage": {
        "encoding": "inplace",
        "label": "struct EnumerableSet.AddressSet",
        "members": [
          {
            "astId": 3277,
            "contract": "contracts/StrategyRegistry.sol:StrategyRegistry",
            "label": "_inner",
            "offset": 0,
            "slot": "0",
            "type": "t_struct(Set)2977_storage"
          }
        ],
        "numberOfBytes": "64"
      },
      "t_struct(Set)2977_storage": {
        "encoding": "inplace",
        "label": "struct EnumerableSet.Set",
        "members": [
          {
            "astId": 2972,
            "contract": "contracts/StrategyRegistry.sol:StrategyRegistry",
            "label": "_values",
            "offset": 0,
            "slot": "0",
            "type": "t_array(t_bytes32)dyn_storage"
          },
          {
            "astId": 2976,
            "contract": "contracts/StrategyRegistry.sol:StrategyRegistry",
            "label": "_indexes",
            "offset": 0,
            "slot": "1",
            "type": "t_mapping(t_bytes32,t_uint256)"
          }
        ],
        "numberOfBytes": "64"
      },
      "t_uint256": {
        "encoding": "inplace",
        "label": "uint256",
        "numberOfBytes": "32"
      }
    }
  }
}