{
  "address": "0x5C836f816732F064D6e985D8e38f4f78d594716e",
  "abi": [
    {
      "inputs": [
        {
          "internalType": "address",
          "name": "_roles",
          "type": "address"
        }
      ],
      "stateMutability": "nonpayable",
      "type": "constructor"
    },
    {
      "anonymous": false,
      "inputs": [
        {
          "indexed": false,
          "internalType": "string",
          "name": "param",
          "type": "string"
        },
        {
          "indexed": false,
          "internalType": "uint256",
          "name": "value",
          "type": "uint256"
        }
      ],
      "name": "ParameterUpdated",
      "type": "event"
    },
    {
      "anonymous": false,
      "inputs": [
        {
          "indexed": false,
          "internalType": "string",
          "name": "param",
          "type": "string"
        },
        {
          "indexed": false,
          "internalType": "address",
          "name": "subject",
          "type": "address"
        },
        {
          "indexed": false,
          "internalType": "uint256",
          "name": "value",
          "type": "uint256"
        }
      ],
      "name": "SubjectParameterUpdated",
      "type": "event"
    },
    {
      "anonymous": false,
      "inputs": [
        {
          "indexed": false,
          "internalType": "string",
          "name": "param",
          "type": "string"
        },
        {
          "indexed": false,
          "internalType": "address",
          "name": "subject",
          "type": "address"
        }
      ],
      "name": "SubjectUpdated",
      "type": "event"
    },
    {
      "inputs": [
        {
          "internalType": "uint256",
          "name": "",
          "type": "uint256"
        }
      ],
      "name": "_charactersPlayed",
      "outputs": [
        {
          "internalType": "uint256",
          "name": "",
          "type": "uint256"
        }
      ],
      "stateMutability": "view",
      "type": "function"
    },
    {
      "inputs": [
        {
          "internalType": "uint256",
          "name": "",
          "type": "uint256"
        }
      ],
      "name": "_dependsOnCharacters",
      "outputs": [
        {
          "internalType": "uint256",
          "name": "",
          "type": "uint256"
        }
      ],
      "stateMutability": "view",
      "type": "function"
    },
    {
      "inputs": [
        {
          "internalType": "uint256",
          "name": "",
          "type": "uint256"
        }
      ],
      "name": "_dependsOnRoles",
      "outputs": [
        {
          "internalType": "uint256",
          "name": "",
          "type": "uint256"
        }
      ],
      "stateMutability": "view",
      "type": "function"
    },
    {
      "inputs": [
        {
          "internalType": "address",
          "name": "",
          "type": "address"
        }
      ],
      "name": "_disabledTokenCount",
      "outputs": [
        {
          "internalType": "uint256",
          "name": "",
          "type": "uint256"
        }
      ],
      "stateMutability": "view",
      "type": "function"
    },
    {
      "inputs": [
        {
          "internalType": "uint256",
          "name": "",
          "type": "uint256"
        }
      ],
      "name": "_rolesPlayed",
      "outputs": [
        {
          "internalType": "uint256",
          "name": "",
          "type": "uint256"
        }
      ],
      "stateMutability": "view",
      "type": "function"
    },
    {
      "inputs": [
        {
          "internalType": "address",
          "name": "",
          "type": "address"
        }
      ],
      "name": "_tokenCount",
      "outputs": [
        {
          "internalType": "uint256",
          "name": "",
          "type": "uint256"
        }
      ],
      "stateMutability": "view",
      "type": "function"
    },
    {
      "inputs": [],
      "name": "allEnabledStrategies",
      "outputs": [
        {
          "internalType": "address[]",
          "name": "",
          "type": "address[]"
        }
      ],
      "stateMutability": "view",
      "type": "function"
    },
    {
      "inputs": [],
      "name": "charactersPlayed",
      "outputs": [
        {
          "internalType": "uint256[]",
          "name": "",
          "type": "uint256[]"
        }
      ],
      "stateMutability": "view",
      "type": "function"
    },
    {
      "inputs": [],
      "name": "dependsOnCharacters",
      "outputs": [
        {
          "internalType": "uint256[]",
          "name": "",
          "type": "uint256[]"
        }
      ],
      "stateMutability": "view",
      "type": "function"
    },
    {
      "inputs": [],
      "name": "dependsOnRoles",
      "outputs": [
        {
          "internalType": "uint256[]",
          "name": "",
          "type": "uint256[]"
        }
      ],
      "stateMutability": "view",
      "type": "function"
    },
    {
      "inputs": [
        {
          "internalType": "address",
          "name": "destination",
          "type": "address"
        },
        {
          "internalType": "address",
          "name": "token",
          "type": "address"
        }
      ],
      "name": "depositMigrationTokens",
      "outputs": [],
      "stateMutability": "nonpayable",
      "type": "function"
    },
    {
      "inputs": [
        {
          "internalType": "address",
          "name": "strat",
          "type": "address"
        }
      ],
      "name": "disableStrategy",
      "outputs": [],
      "stateMutability": "nonpayable",
      "type": "function"
    },
    {
      "inputs": [
        {
          "internalType": "address",
          "name": "strat",
          "type": "address"
        }
      ],
      "name": "enableStrategy",
      "outputs": [],
      "stateMutability": "nonpayable",
      "type": "function"
    },
    {
      "inputs": [
        {
          "internalType": "address",
          "name": "strat",
          "type": "address"
        }
      ],
      "name": "enabledStrategy",
      "outputs": [
        {
          "internalType": "bool",
          "name": "",
          "type": "bool"
        }
      ],
      "stateMutability": "view",
      "type": "function"
    },
    {
      "inputs": [
        {
          "internalType": "address",
          "name": "strat",
          "type": "address"
        }
      ],
      "name": "getCurrentStrategy",
      "outputs": [
        {
          "internalType": "address",
          "name": "",
          "type": "address"
        }
      ],
      "stateMutability": "view",
      "type": "function"
    },
    {
      "inputs": [
        {
          "internalType": "uint256",
          "name": "",
          "type": "uint256"
        }
      ],
      "name": "mainCharacterCache",
      "outputs": [
        {
          "internalType": "address",
          "name": "",
          "type": "address"
        }
      ],
      "stateMutability": "view",
      "type": "function"
    },
    {
      "inputs": [
        {
          "internalType": "address",
          "name": "legacyStrat",
          "type": "address"
        },
        {
          "internalType": "address",
          "name": "replacementStrat",
          "type": "address"
        }
      ],
      "name": "replaceStrategy",
      "outputs": [],
      "stateMutability": "nonpayable",
      "type": "function"
    },
    {
      "inputs": [
        {
          "internalType": "address",
          "name": "",
          "type": "address"
        }
      ],
      "name": "replacementStrategy",
      "outputs": [
        {
          "internalType": "address",
          "name": "",
          "type": "address"
        }
      ],
      "stateMutability": "view",
      "type": "function"
    },
    {
      "inputs": [
        {
          "internalType": "address",
          "name": "",
          "type": "address"
        },
        {
          "internalType": "uint256",
          "name": "",
          "type": "uint256"
        }
      ],
      "name": "roleCache",
      "outputs": [
        {
          "internalType": "bool",
          "name": "",
          "type": "bool"
        }
      ],
      "stateMutability": "view",
      "type": "function"
    },
    {
      "inputs": [],
      "name": "roles",
      "outputs": [
        {
          "internalType": "contract Roles",
          "name": "",
          "type": "address"
        }
      ],
      "stateMutability": "view",
      "type": "function"
    },
    {
      "inputs": [],
      "name": "rolesPlayed",
      "outputs": [
        {
          "internalType": "uint256[]",
          "name": "",
          "type": "uint256[]"
        }
      ],
      "stateMutability": "view",
      "type": "function"
    },
    {
      "inputs": [],
      "name": "totalDisabledTokenStratRows",
      "outputs": [
        {
          "internalType": "uint256",
          "name": "",
          "type": "uint256"
        }
      ],
      "stateMutability": "view",
      "type": "function"
    },
    {
      "inputs": [],
      "name": "totalTokenStratRows",
      "outputs": [
        {
          "internalType": "uint256",
          "name": "",
          "type": "uint256"
        }
      ],
      "stateMutability": "view",
      "type": "function"
    },
    {
      "inputs": [
        {
          "internalType": "uint256",
          "name": "role",
          "type": "uint256"
        }
      ],
      "name": "updateMainCharacterCache",
      "outputs": [],
      "stateMutability": "nonpayable",
      "type": "function"
    },
    {
      "inputs": [
        {
          "internalType": "uint256",
          "name": "role",
          "type": "uint256"
        },
        {
          "internalType": "address",
          "name": "contr",
          "type": "address"
        }
      ],
      "name": "updateRoleCache",
      "outputs": [],
      "stateMutability": "nonpayable",
      "type": "function"
    },
    {
      "inputs": [
        {
          "internalType": "address",
          "name": "strat",
          "type": "address"
        }
      ],
      "name": "updateTokenCount",
      "outputs": [],
      "stateMutability": "nonpayable",
      "type": "function"
    },
    {
      "inputs": [],
      "name": "viewAllDisabledTokenStrategyMetadata",
      "outputs": [
        {
          "components": [
            {
              "internalType": "address",
              "name": "strategy",
              "type": "address"
            },
            {
              "internalType": "address",
              "name": "token",
              "type": "address"
            },
            {
              "internalType": "uint256",
              "name": "APF",
              "type": "uint256"
            },
            {
              "internalType": "uint256",
              "name": "totalCollateral",
              "type": "uint256"
            },
            {
              "internalType": "uint256",
              "name": "borrowablePer10k",
              "type": "uint256"
            },
            {
              "internalType": "uint256",
              "name": "valuePer1e18",
              "type": "uint256"
            },
            {
              "internalType": "bytes32",
              "name": "strategyName",
              "type": "bytes32"
            },
            {
              "internalType": "uint256",
              "name": "tvl",
              "type": "uint256"
            },
            {
              "internalType": "uint256",
              "name": "harvestBalance2Tally",
              "type": "uint256"
            },
            {
              "internalType": "enum IStrategy.YieldType",
              "name": "yieldType",
              "type": "uint8"
            },
            {
              "internalType": "uint256",
              "name": "stabilityFee",
              "type": "uint256"
            },
            {
              "internalType": "address",
              "name": "underlyingStrategy",
              "type": "address"
            }
          ],
          "internalType": "struct IStrategy.StrategyMetadata[]",
          "name": "",
          "type": "tuple[]"
        }
      ],
      "stateMutability": "view",
      "type": "function"
    },
    {
      "inputs": [],
      "name": "viewAllEnabledStrategyMetadata",
      "outputs": [
        {
          "components": [
            {
              "internalType": "address",
              "name": "strategy",
              "type": "address"
            },
            {
              "internalType": "address",
              "name": "token",
              "type": "address"
            },
            {
              "internalType": "uint256",
              "name": "APF",
              "type": "uint256"
            },
            {
              "internalType": "uint256",
              "name": "totalCollateral",
              "type": "uint256"
            },
            {
              "internalType": "uint256",
              "name": "borrowablePer10k",
              "type": "uint256"
            },
            {
              "internalType": "uint256",
              "name": "valuePer1e18",
              "type": "uint256"
            },
            {
              "internalType": "bytes32",
              "name": "strategyName",
              "type": "bytes32"
            },
            {
              "internalType": "uint256",
              "name": "tvl",
              "type": "uint256"
            },
            {
              "internalType": "uint256",
              "name": "harvestBalance2Tally",
              "type": "uint256"
            },
            {
              "internalType": "enum IStrategy.YieldType",
              "name": "yieldType",
              "type": "uint8"
            },
            {
              "internalType": "uint256",
              "name": "stabilityFee",
              "type": "uint256"
            },
            {
              "internalType": "address",
              "name": "underlyingStrategy",
              "type": "address"
            }
          ],
          "internalType": "struct IStrategy.StrategyMetadata[]",
          "name": "",
          "type": "tuple[]"
        }
      ],
      "stateMutability": "view",
      "type": "function"
    }
  ],
  "transactionHash": "0x5fcdcbeb172f5da3054668c6be8d0e3163ef629cb6d80848a6eb54484221dc51",
  "args": [
    "0x9e1EE00d45252aA58623F7d771FB414aA38f0878"
  ],
  "solcInputHash": "c08fcdf1bf8a33e9484a221e6792b02a",
  "bytecode": "0x60a060405234801561001057600080fd5b5060405162001ed738038062001ed7833981016040819052610031916100e7565b806001600160a01b0381166100975760405162461bcd60e51b815260206004820152602260248201527f506c656173652070726f766964652076616c696420726f6c6573206164647265604482015261737360f01b606482015260840160405180910390fd5b60601b6001600160601b031916608052506001600681905560048054918201815560005260687f8a35acfbc15ff81a39ae7d344fd709f28e8600b4aa8c65c6b64bfe7fe36bd19b90910155610115565b6000602082840312156100f8578081fd5b81516001600160a01b038116811461010e578182fd5b9392505050565b60805160601c611d8762000150600039600081816101d7015281816103f4015281816108f30152818161104101526110d40152611d876000f3fe608060405234801561001057600080fd5b50600436106101545760003560e01c8063071060a61461015957806311848c451461016e57806316a665e1146101815780632e25f5ea146101aa5780633742fcc9146101bf578063392f5f64146101d2578063447d52ba146101f95780634a7a7f411461020c57806351a03ad414610221578063661d02ba146102365780636caa9c111461023e5780637a1a04df1461025f5780637dad209b1461029d578063892c35e4146102a557806398425ee1146102ae5780639a65d344146102c1578063a54b64a9146102d4578063abcbc4fc146102f4578063ae3adb9c14610307578063aeb38d8b14610327578063b4d697571461033a578063bf184ea41461034d578063dc94cb7d14610360578063e8ea4fae14610368578063e9c3f77d14610370578063f63de79714610399578063f717e833146103ac578063f9cca685146103b5575b600080fd5b61016c6101673660046119bd565b6103de565b005b61016c61017c3660046117b0565b6104a4565b61019461018f3660046117b0565b61066f565b6040516101a19190611a5c565b60405180910390f35b6101b26106bb565b6040516101a19190611ad6565b61016c6101cd3660046117b0565b61086f565b6101947f000000000000000000000000000000000000000000000000000000000000000081565b61016c6102073660046119ed565b6108dc565b6102146109b2565b6040516101a19190611bb5565b610229610a0a565b6040516101a19190611a89565b6101b2610a1b565b61025161024c3660046119bd565b610bc6565b6040519081526020016101a1565b61028d61026d366004611820565b600160209081526000928352604080842090915290825290205460ff1681565b60405190151581526020016101a1565b610214610be7565b610251600e5481565b61016c6102bc3660046117b0565b610c3d565b61016c6102cf3660046117e8565b610cc7565b6102516102e23660046117b0565b600d6020526000908152604090205481565b6102516103023660046119bd565b610dd3565b6102516103153660046117b0565b600c6020526000908152604090205481565b6102516103353660046119bd565b610de3565b61028d6103483660046117b0565b610df3565b61025161035b3660046119bd565b610e00565b610214610e10565b610214610e66565b61019461037e3660046119bd565b6000602081905290815260409020546001600160a01b031681565b61016c6103a73660046117e8565b610ebc565b610251600f5481565b6101946103c33660046117b0565b6007602052600090815260409020546001600160a01b031681565b60405163b4ed0b6d60e01b8152600481018290527f00000000000000000000000000000000000000000000000000000000000000006001600160a01b03169063b4ed0b6d9060240160206040518083038186803b15801561043e57600080fd5b505afa158015610452573d6000803e3d6000fd5b505050506040513d601f19601f8201168201806040525081019061047691906117cc565b60009182526020829052604090912080546001600160a01b0319166001600160a01b03909216919091179055565b6104af600882611009565b6104fb5760405162461bcd60e51b81526020600482015260186024820152774e6f7420616e20656e61626c65642073747261746567792160401b60448201526064015b60405180910390fd5b6001600160a01b0381166000818152600c602090815260408083205481516326ce80d960e11b81529151909492634d9d01b29260048082019391829003018186803b15801561054957600080fd5b505afa15801561055d573d6000803e3d6000fd5b505050506040513d601f19601f8201168201806040525081019061058191906119d5565b90508181600e546105929190611c9a565b61059c9190611cb2565b600e556001600160a01b0383166000818152600c60209081526040808320859055600d8252918290205482516306b8ce9960e01b815292519095506306b8ce99926004808201939291829003018186803b1580156105f957600080fd5b505afa15801561060d573d6000803e3d6000fd5b505050506040513d601f19601f8201168201806040525081019061063191906119d5565b90508181600f546106429190611c9a565b61064c9190611cb2565b600f556001600160a01b039092166000908152600d602052604090209190915550565b6000815b6001600160a01b0381811660009081526007602052604090205416156106b3576001600160a01b0390811660009081526007602052604090205416610673565b90505b919050565b60606000600f546001600160401b038111156106e757634e487b7160e01b600052604160045260246000fd5b60405190808252806020026020018201604052801561072057816020015b61070d611701565b8152602001906001900390816107055790505b509050600061072f6008611027565b90506000805b8083111561086657600061074a600883611031565b90506000816001600160a01b031663ad89b7946040518163ffffffff1660e01b815260040160006040518083038186803b15801561078757600080fd5b505afa15801561079b573d6000803e3d6000fd5b505050506040513d6000823e601f3d908101601f191682016040526107c3919081019061184b565b905060005b8082511115610842578181815181106107f157634e487b7160e01b600052603260045260246000fd5b60200260200101518782876108069190611c9a565b8151811061082457634e487b7160e01b600052603260045260246000fd5b6020026020010181905250808061083a90611cf5565b9150506107c8565b50805161084f9085611c9a565b93505050808061085e90611cf5565b915050610735565b50919250505090565b3361087861103d565b6001600160a01b0316148061089c5750336108916110d0565b6001600160a01b0316145b6108b85760405162461bcd60e51b81526004016104f290611c20565b6108c3600882611141565b506108cf600a82611141565b506108d9816104a4565b50565b60405163f0723d9760e01b81526001600160a01b037f0000000000000000000000000000000000000000000000000000000000000000169063f0723d979061092a9084908690600401611a70565b60206040518083038186803b15801561094257600080fd5b505afa158015610956573d6000803e3d6000fd5b505050506040513d601f19601f8201168201806040525081019061097a919061199d565b6001600160a01b0391909116600090815260016020908152604080832094835293905291909120805460ff1916911515919091179055565b60606003805480602002602001604051908101604052809291908181526020018280548015610a0057602002820191906000526020600020905b8154815260200190600101908083116109ec575b5050505050905090565b6060610a166008611156565b905090565b60606000600e546001600160401b03811115610a4757634e487b7160e01b600052604160045260246000fd5b604051908082528060200260200182016040528015610a8057816020015b610a6d611701565b815260200190600190039081610a655790505b5090506000610a8f6008611027565b90506000805b80831115610866576000610aaa600883611031565b90506000816001600160a01b03166321fa0f1f6040518163ffffffff1660e01b815260040160006040518083038186803b158015610ae757600080fd5b505afa158015610afb573d6000803e3d6000fd5b505050506040513d6000823e601f3d908101601f19168201604052610b23919081019061184b565b905060005b8082511115610ba257818181518110610b5157634e487b7160e01b600052603260045260246000fd5b6020026020010151878287610b669190611c9a565b81518110610b8457634e487b7160e01b600052603260045260246000fd5b60200260200101819052508080610b9a90611cf5565b915050610b28565b508051610baf9085611c9a565b935050508080610bbe90611cf5565b915050610a95565b60058181548110610bd657600080fd5b600091825260209091200154905081565b60606004805480602002602001604051908101604052809291908181526020018280548015610a0057602002820191906000526020600020908154815260200190600101908083116109ec575050505050905090565b33610c4661103d565b6001600160a01b03161480610c6a575033610c5f6110d0565b6001600160a01b0316145b610c865760405162461bcd60e51b81526004016104f290611c20565b6001600160a01b0381166000908152600c6020526040812054600e805491929091610cb2908490611cb2565b90915550610cc3905060088261116a565b5050565b60026006541415610d1a5760405162461bcd60e51b815260206004820152601f60248201527f5265656e7472616e637947756172643a207265656e7472616e742063616c6c0060448201526064016104f2565b60026006556040516370a0823160e01b81526000906001600160a01b038316906370a0823190610d4e903390600401611a5c565b60206040518083038186803b158015610d6657600080fd5b505afa158015610d7a573d6000803e3d6000fd5b505050506040513d601f19601f82011682018060405250810190610d9e91906119d5565b9050610db56001600160a01b03831633308461117f565b610dc96001600160a01b03831684836111f0565b5050600160065550565b60028181548110610bd657600080fd5b60048181548110610bd657600080fd5b60006106b3600883611009565b60038181548110610bd657600080fd5b60606002805480602002602001604051908101604052809291908181526020018280548015610a0057602002820191906000526020600020908154815260200190600101908083116109ec575050505050905090565b60606005805480602002602001604051908101604052809291908181526020018280548015610a0057602002820191906000526020600020908154815260200190600101908083116109ec575050505050905090565b33610ec561103d565b6001600160a01b03161480610ee9575033610ede6110d0565b6001600160a01b0316145b610f055760405162461bcd60e51b81526004016104f290611c20565b610f10600882611009565b610f685760405162461bcd60e51b815260206004820152602360248201527f5265706c6163656d656e74207374726174656779206973206e6f7420656e61626044820152621b195960ea1b60648201526084016104f2565b604051633eb20ba360e21b81526001600160a01b0383169063fac82e8c90610f94908490600401611a5c565b600060405180830381600087803b158015610fae57600080fd5b505af1158015610fc2573d6000803e3d6000fd5b50505050610fda82600861116a90919063ffffffff16565b506001600160a01b03918216600090815260076020526040902080546001600160a01b03191691909216179055565b600061101e836001600160a01b03841661129f565b90505b92915050565b60006106b3825490565b600061101e83836112b7565b60007f00000000000000000000000000000000000000000000000000000000000000006001600160a01b0316638da5cb5b6040518163ffffffff1660e01b815260040160206040518083038186803b15801561109857600080fd5b505afa1580156110ac573d6000803e3d6000fd5b505050506040513d601f19601f82011682018060405250810190610a1691906117cc565b60007f00000000000000000000000000000000000000000000000000000000000000006001600160a01b031663c34c08e56040518163ffffffff1660e01b8152600401602060405180830381600087803b15801561112d57600080fd5b505af11580156110ac573d6000803e3d6000fd5b600061101e836001600160a01b0384166112ef565b6060600061116383611339565b9392505050565b600061101e836001600160a01b038416611395565b6040516001600160a01b03808516602483015283166044820152606481018290526111ea9085906323b872dd60e01b906084015b60408051601f198184030181529190526020810180516001600160e01b03166001600160e01b0319909316929092179091526114b2565b50505050565b604051636eb1769f60e11b81523060048201526001600160a01b038381166024830152600091839186169063dd62ed3e9060440160206040518083038186803b15801561123c57600080fd5b505afa158015611250573d6000803e3d6000fd5b505050506040513d601f19601f8201168201806040525081019061127491906119d5565b61127e9190611c9a565b90506111ea8463095ea7b360e01b85846040516024016111b3929190611a70565b60009081526001919091016020526040902054151590565b60008260000182815481106112dc57634e487b7160e01b600052603260045260246000fd5b9060005260206000200154905092915050565b60006112fb838361129f565b61133157508154600181810184556000848152602080822090930184905584548482528286019093526040902091909155611021565b506000611021565b60608160000180548060200260200160405190810160405280929190818152602001828054801561138957602002820191906000526020600020905b815481526020019060010190808311611375575b50505050509050919050565b600081815260018301602052604081205480156114a85760006113b9600183611cb2565b85549091506000906113cd90600190611cb2565b905081811461144e5760008660000182815481106113fb57634e487b7160e01b600052603260045260246000fd5b906000526020600020015490508087600001848154811061142c57634e487b7160e01b600052603260045260246000fd5b6000918252602080832090910192909255918252600188019052604090208390555b855486908061146d57634e487b7160e01b600052603160045260246000fd5b600190038181906000526020600020016000905590558560010160008681526020019081526020016000206000905560019350505050611021565b6000915050611021565b6000611507826040518060400160405280602081526020017f5361666545524332303a206c6f772d6c6576656c2063616c6c206661696c6564815250856001600160a01b03166115899092919063ffffffff16565b8051909150156115845780806020019051810190611525919061199d565b6115845760405162461bcd60e51b815260206004820152602a60248201527f5361666545524332303a204552433230206f7065726174696f6e20646964206e6044820152691bdd081cdd58d8d9595960b21b60648201526084016104f2565b505050565b606061159884846000856115a0565b949350505050565b6060824710156116015760405162461bcd60e51b815260206004820152602660248201527f416464726573733a20696e73756666696369656e742062616c616e636520666f6044820152651c8818d85b1b60d21b60648201526084016104f2565b843b61164f5760405162461bcd60e51b815260206004820152601d60248201527f416464726573733a2063616c6c20746f206e6f6e2d636f6e747261637400000060448201526064016104f2565b600080866001600160a01b0316858760405161166b9190611a40565b60006040518083038185875af1925050503d80600081146116a8576040519150601f19603f3d011682016040523d82523d6000602084013e6116ad565b606091505b50915091506116bd8282866116c8565b979650505050505050565b606083156116d7575081611163565b8251156116e75782518084602001fd5b8160405162461bcd60e51b81526004016104f29190611bed565b60405180610180016040528060006001600160a01b0316815260200160006001600160a01b03168152602001600081526020016000815260200160008152602001600081526020016000801916815260200160008152602001600081526020016000600281111561178257634e487b7160e01b600052602160045260246000fd5b815260006020820181905260409091015290565b80516106b681611d3c565b8051600381106106b657600080fd5b6000602082840312156117c1578081fd5b813561116381611d3c565b6000602082840312156117dd578081fd5b815161116381611d3c565b600080604083850312156117fa578081fd5b823561180581611d3c565b9150602083013561181581611d3c565b809150509250929050565b60008060408385031215611832578182fd5b823561183d81611d3c565b946020939093013593505050565b6000602080838503121561185d578182fd5b82516001600160401b0380821115611873578384fd5b818501915085601f830112611886578384fd5b81518181111561189857611898611d26565b6118a6848260051b01611c6a565b8181528481019250838501610180808402860187018a10156118c6578788fd5b8795505b8386101561198f5780828b0312156118e0578788fd5b6118e981611c6a565b6118f283611796565b81526118ff888401611796565b8189015260408381015190820152606080840151908201526080808401519082015260a0808401519082015260c0808401519082015260e0808401519082015261010080840151908201526101206119588185016117a1565b908201526101408381015190820152610160611975818501611796565b9082015285526001959095019493860193908101906118ca565b509098975050505050505050565b6000602082840312156119ae578081fd5b81518015158114611163578182fd5b6000602082840312156119ce578081fd5b5035919050565b6000602082840312156119e6578081fd5b5051919050565b600080604083850312156119ff578182fd5b82359150602083013561181581611d3c565b6001600160a01b03169052565b60038110611a3c57634e487b7160e01b600052602160045260246000fd5b9052565b60008251611a52818460208701611cc9565b9190910192915050565b6001600160a01b0391909116815260200190565b6001600160a01b03929092168252602082015260400190565b6020808252825182820181905260009190848201906040850190845b81811015611aca5783516001600160a01b031683529284019291840191600101611aa5565b50909695505050505050565b602080825282518282018190526000919060409081850190868401855b82811015611ba8578151611b08858251611a11565b86810151611b1888870182611a11565b508086015185870152606080820151908601526080808201519086015260a0808201519086015260c0808201519086015260e08082015190860152610100808201519086015261012080820151611b7182880182611a1e565b505061014081810151908601526101609081015190611b9281870183611a11565b5050610180939093019290850190600101611af3565b5091979650505050505050565b6020808252825182820181905260009190848201906040850190845b81811015611aca57835183529284019291840191600101611bd1565b6000602082528251806020840152611c0c816040850160208701611cc9565b601f01601f19169190910160400192915050565b6020808252602a908201527f526f6c65733a2063616c6c6572206973206e6f7420746865206f776e6572206f604082015269391032bc32b1baba37b960b11b606082015260800190565b604051601f8201601f191681016001600160401b0381118282101715611c9257611c92611d26565b604052919050565b60008219821115611cad57611cad611d10565b500190565b600082821015611cc457611cc4611d10565b500390565b60005b83811015611ce4578181015183820152602001611ccc565b838111156111ea5750506000910152565b6000600019821415611d0957611d09611d10565b5060010190565b634e487b7160e01b600052601160045260246000fd5b634e487b7160e01b600052604160045260246000fd5b6001600160a01b03811681146108d957600080fdfea2646970667358221220ebcd2c429f28bcd4af77e6252760f9ade67a74f90532d0ac29662d9432c6355064736f6c63430008030033",
  "devdoc": {
    "kind": "dev",
    "methods": {
      "charactersPlayed()": {
        "details": "returns all characters played by this contract (e.g. stable coin, oracle registry)"
      },
      "dependsOnCharacters()": {
        "details": "returns all the character dependencies like FEE_RECIPIENT"
      },
      "dependsOnRoles()": {
        "details": "returns all the roles dependencies of this contract like FUND_TRANSFERER"
      },
      "rolesPlayed()": {
        "details": "returns all roles played by this contract"
      },
      "updateMainCharacterCache(uint256)": {
        "details": "Updates the main character cache for a speciic character"
      },
      "updateRoleCache(uint256,address)": {
        "details": "Updates the role cache for a specific role and address"
      }
    },
    "version": 1
  },
  "userdoc": {
    "kind": "user",
    "methods": {
      "allEnabledStrategies()": {
        "notice": "View all enabled strategies"
      },
      "depositMigrationTokens(address,address)": {
        "notice": "Endpoint for strategies to deposit tokens for migration destinations to later withdraw"
      },
      "disableStrategy(address)": {
        "notice": "Disable a strategy"
      },
      "enableStrategy(address)": {
        "notice": "Enable a strategy"
      },
      "enabledStrategy(address)": {
        "notice": "View whether a strategy is enabled"
      },
      "getCurrentStrategy(address)": {
        "notice": "Get strategy or any replacement of it"
      },
      "replaceStrategy(address,address)": {
        "notice": "Replace a strategy and migrate all its assets to replacement beware not to introduce cycles :)"
      },
      "updateTokenCount(address)": {
        "notice": "update accounting cache for view function"
      },
      "viewAllEnabledStrategyMetadata()": {
        "notice": "Return a big ol list of strategy metadata"
      }
    },
    "notice": "Central clearing house for all things strategy, for activating and migrating",
    "version": 1
  },
  "storageLayout": {
    "storage": [
      {
        "astId": 19540,
        "contract": "contracts/StrategyRegistry.sol:StrategyRegistry",
        "label": "mainCharacterCache",
        "offset": 0,
        "slot": "0",
        "type": "t_mapping(t_uint256,t_address)"
      },
      {
        "astId": 19546,
        "contract": "contracts/StrategyRegistry.sol:StrategyRegistry",
        "label": "roleCache",
        "offset": 0,
        "slot": "1",
        "type": "t_mapping(t_address,t_mapping(t_uint256,t_bool))"
      },
      {
        "astId": 19549,
        "contract": "contracts/StrategyRegistry.sol:StrategyRegistry",
        "label": "_dependsOnCharacters",
        "offset": 0,
        "slot": "2",
        "type": "t_array(t_uint256)dyn_storage"
      },
      {
        "astId": 19552,
        "contract": "contracts/StrategyRegistry.sol:StrategyRegistry",
        "label": "_dependsOnRoles",
        "offset": 0,
        "slot": "3",
        "type": "t_array(t_uint256)dyn_storage"
      },
      {
        "astId": 19555,
        "contract": "contracts/StrategyRegistry.sol:StrategyRegistry",
        "label": "_charactersPlayed",
        "offset": 0,
        "slot": "4",
        "type": "t_array(t_uint256)dyn_storage"
      },
      {
        "astId": 19558,
        "contract": "contracts/StrategyRegistry.sol:StrategyRegistry",
        "label": "_rolesPlayed",
        "offset": 0,
        "slot": "5",
        "type": "t_array(t_uint256)dyn_storage"
      },
      {
        "astId": 223,
        "contract": "contracts/StrategyRegistry.sol:StrategyRegistry",
        "label": "_status",
        "offset": 0,
        "slot": "6",
        "type": "t_uint256"
      },
      {
        "astId": 10351,
        "contract": "contracts/StrategyRegistry.sol:StrategyRegistry",
        "label": "replacementStrategy",
        "offset": 0,
        "slot": "7",
        "type": "t_mapping(t_address,t_address)"
      },
      {
        "astId": 10354,
        "contract": "contracts/StrategyRegistry.sol:StrategyRegistry",
        "label": "enabledStrategies",
        "offset": 0,
        "slot": "8",
        "type": "t_struct(AddressSet)4372_storage"
      },
      {
        "astId": 10357,
        "contract": "contracts/StrategyRegistry.sol:StrategyRegistry",
        "label": "allStrategiesEver",
        "offset": 0,
        "slot": "10",
        "type": "t_struct(AddressSet)4372_storage"
      },
      {
        "astId": 10361,
        "contract": "contracts/StrategyRegistry.sol:StrategyRegistry",
        "label": "_tokenCount",
        "offset": 0,
        "slot": "12",
        "type": "t_mapping(t_address,t_uint256)"
      },
      {
        "astId": 10365,
        "contract": "contracts/StrategyRegistry.sol:StrategyRegistry",
        "label": "_disabledTokenCount",
        "offset": 0,
        "slot": "13",
        "type": "t_mapping(t_address,t_uint256)"
      },
      {
        "astId": 10367,
        "contract": "contracts/StrategyRegistry.sol:StrategyRegistry",
        "label": "totalTokenStratRows",
        "offset": 0,
        "slot": "14",
        "type": "t_uint256"
      },
      {
        "astId": 10369,
        "contract": "contracts/StrategyRegistry.sol:StrategyRegistry",
        "label": "totalDisabledTokenStratRows",
        "offset": 0,
        "slot": "15",
        "type": "t_uint256"
      }
    ],
    "types": {
      "t_address": {
        "encoding": "inplace",
        "label": "address",
        "numberOfBytes": "20"
      },
      "t_array(t_bytes32)dyn_storage": {
        "base": "t_bytes32",
        "encoding": "dynamic_array",
        "label": "bytes32[]",
        "numberOfBytes": "32"
      },
      "t_array(t_uint256)dyn_storage": {
        "base": "t_uint256",
        "encoding": "dynamic_array",
        "label": "uint256[]",
        "numberOfBytes": "32"
      },
      "t_bool": {
        "encoding": "inplace",
        "label": "bool",
        "numberOfBytes": "1"
      },
      "t_bytes32": {
        "encoding": "inplace",
        "label": "bytes32",
        "numberOfBytes": "32"
      },
      "t_mapping(t_address,t_address)": {
        "encoding": "mapping",
        "key": "t_address",
        "label": "mapping(address => address)",
        "numberOfBytes": "32",
        "value": "t_address"
      },
      "t_mapping(t_address,t_mapping(t_uint256,t_bool))": {
        "encoding": "mapping",
        "key": "t_address",
        "label": "mapping(address => mapping(uint256 => bool))",
        "numberOfBytes": "32",
        "value": "t_mapping(t_uint256,t_bool)"
      },
      "t_mapping(t_address,t_uint256)": {
        "encoding": "mapping",
        "key": "t_address",
        "label": "mapping(address => uint256)",
        "numberOfBytes": "32",
        "value": "t_uint256"
      },
      "t_mapping(t_bytes32,t_uint256)": {
        "encoding": "mapping",
        "key": "t_bytes32",
        "label": "mapping(bytes32 => uint256)",
        "numberOfBytes": "32",
        "value": "t_uint256"
      },
      "t_mapping(t_uint256,t_address)": {
        "encoding": "mapping",
        "key": "t_uint256",
        "label": "mapping(uint256 => address)",
        "numberOfBytes": "32",
        "value": "t_address"
      },
      "t_mapping(t_uint256,t_bool)": {
        "encoding": "mapping",
        "key": "t_uint256",
        "label": "mapping(uint256 => bool)",
        "numberOfBytes": "32",
        "value": "t_bool"
      },
      "t_struct(AddressSet)4372_storage": {
        "encoding": "inplace",
        "label": "struct EnumerableSet.AddressSet",
        "members": [
          {
            "astId": 4371,
            "contract": "contracts/StrategyRegistry.sol:StrategyRegistry",
            "label": "_inner",
            "offset": 0,
            "slot": "0",
            "type": "t_struct(Set)4071_storage"
          }
        ],
        "numberOfBytes": "64"
      },
      "t_struct(Set)4071_storage": {
        "encoding": "inplace",
        "label": "struct EnumerableSet.Set",
        "members": [
          {
            "astId": 4066,
            "contract": "contracts/StrategyRegistry.sol:StrategyRegistry",
            "label": "_values",
            "offset": 0,
            "slot": "0",
            "type": "t_array(t_bytes32)dyn_storage"
          },
          {
            "astId": 4070,
            "contract": "contracts/StrategyRegistry.sol:StrategyRegistry",
            "label": "_indexes",
            "offset": 0,
            "slot": "1",
            "type": "t_mapping(t_bytes32,t_uint256)"
          }
        ],
        "numberOfBytes": "64"
      },
      "t_uint256": {
        "encoding": "inplace",
        "label": "uint256",
        "numberOfBytes": "32"
      }
    }
  }
}