{
  "address": "0xF8024e258Eb98e15841849755E094c7280ad0c93",
  "abi": [
    {
      "inputs": [
        {
          "internalType": "address",
          "name": "_roles",
          "type": "address"
        }
      ],
      "stateMutability": "nonpayable",
      "type": "constructor"
    },
    {
      "inputs": [
        {
          "internalType": "uint256",
          "name": "",
          "type": "uint256"
        }
      ],
      "name": "_accounts",
      "outputs": [
        {
          "internalType": "uint256",
          "name": "collateral",
          "type": "uint256"
        },
        {
          "internalType": "uint256",
          "name": "yieldCheckptIdx",
          "type": "uint256"
        },
        {
          "internalType": "address",
          "name": "trancheToken",
          "type": "address"
        }
      ],
      "stateMutability": "view",
      "type": "function"
    },
    {
      "inputs": [
        {
          "internalType": "uint256",
          "name": "",
          "type": "uint256"
        }
      ],
      "name": "_charactersPlayed",
      "outputs": [
        {
          "internalType": "uint256",
          "name": "",
          "type": "uint256"
        }
      ],
      "stateMutability": "view",
      "type": "function"
    },
    {
      "inputs": [
        {
          "internalType": "uint256",
          "name": "",
          "type": "uint256"
        }
      ],
      "name": "_dependsOnCharacters",
      "outputs": [
        {
          "internalType": "uint256",
          "name": "",
          "type": "uint256"
        }
      ],
      "stateMutability": "view",
      "type": "function"
    },
    {
      "inputs": [
        {
          "internalType": "uint256",
          "name": "",
          "type": "uint256"
        }
      ],
      "name": "_dependsOnRoles",
      "outputs": [
        {
          "internalType": "uint256",
          "name": "",
          "type": "uint256"
        }
      ],
      "stateMutability": "view",
      "type": "function"
    },
    {
      "inputs": [
        {
          "internalType": "address",
          "name": "token",
          "type": "address"
        },
        {
          "internalType": "address",
          "name": "pegCurrency",
          "type": "address"
        }
      ],
      "name": "_listenForOracle",
      "outputs": [
        {
          "internalType": "address",
          "name": "oracle",
          "type": "address"
        }
      ],
      "stateMutability": "nonpayable",
      "type": "function"
    },
    {
      "inputs": [
        {
          "internalType": "address",
          "name": "",
          "type": "address"
        },
        {
          "internalType": "address",
          "name": "",
          "type": "address"
        }
      ],
      "name": "_oracleCache",
      "outputs": [
        {
          "internalType": "address",
          "name": "",
          "type": "address"
        }
      ],
      "stateMutability": "view",
      "type": "function"
    },
    {
      "inputs": [
        {
          "internalType": "uint256",
          "name": "",
          "type": "uint256"
        }
      ],
      "name": "_rolesPlayed",
      "outputs": [
        {
          "internalType": "uint256",
          "name": "",
          "type": "uint256"
        }
      ],
      "stateMutability": "view",
      "type": "function"
    },
    {
      "inputs": [
        {
          "internalType": "address",
          "name": "token",
          "type": "address"
        }
      ],
      "name": "_viewTVL",
      "outputs": [
        {
          "internalType": "uint256",
          "name": "",
          "type": "uint256"
        }
      ],
      "stateMutability": "view",
      "type": "function"
    },
    {
      "inputs": [
        {
          "internalType": "uint256",
          "name": "trancheId",
          "type": "uint256"
        },
        {
          "internalType": "address",
          "name": "sourceStrategy",
          "type": "address"
        },
        {
          "internalType": "address",
          "name": "tokenContract",
          "type": "address"
        },
        {
          "internalType": "uint256",
          "name": "",
          "type": "uint256"
        },
        {
          "internalType": "uint256",
          "name": "amount",
          "type": "uint256"
        }
      ],
      "name": "acceptMigration",
      "outputs": [],
      "stateMutability": "nonpayable",
      "type": "function"
    },
    {
      "inputs": [],
      "name": "apfSmoothingPer10k",
      "outputs": [
        {
          "internalType": "uint256",
          "name": "",
          "type": "uint256"
        }
      ],
      "stateMutability": "view",
      "type": "function"
    },
    {
      "inputs": [
        {
          "internalType": "address",
          "name": "token",
          "type": "address"
        },
        {
          "internalType": "bytes",
          "name": "data",
          "type": "bytes"
        }
      ],
      "name": "approveToken",
      "outputs": [],
      "stateMutability": "nonpayable",
      "type": "function"
    },
    {
      "inputs": [
        {
          "internalType": "address",
          "name": "token",
          "type": "address"
        }
      ],
      "name": "approvedToken",
      "outputs": [
        {
          "internalType": "bool",
          "name": "",
          "type": "bool"
        }
      ],
      "stateMutability": "view",
      "type": "function"
    },
    {
      "inputs": [],
      "name": "approvedTokensCount",
      "outputs": [
        {
          "internalType": "uint256",
          "name": "",
          "type": "uint256"
        }
      ],
      "stateMutability": "view",
      "type": "function"
    },
    {
      "inputs": [
        {
          "internalType": "uint256",
          "name": "trancheId",
          "type": "uint256"
        },
        {
          "internalType": "address",
          "name": "yieldToken",
          "type": "address"
        },
        {
          "internalType": "address",
          "name": "recipient",
          "type": "address"
        }
      ],
      "name": "burnTranche",
      "outputs": [],
      "stateMutability": "nonpayable",
      "type": "function"
    },
    {
      "inputs": [],
      "name": "charactersPlayed",
      "outputs": [
        {
          "internalType": "uint256[]",
          "name": "",
          "type": "uint256[]"
        }
      ],
      "stateMutability": "view",
      "type": "function"
    },
    {
      "inputs": [
        {
          "internalType": "address",
          "name": "token",
          "type": "address"
        },
        {
          "internalType": "uint256",
          "name": "pid",
          "type": "uint256"
        }
      ],
      "name": "checkApprovedAndEncode",
      "outputs": [
        {
          "internalType": "bool",
          "name": "",
          "type": "bool"
        },
        {
          "internalType": "bytes",
          "name": "",
          "type": "bytes"
        }
      ],
      "stateMutability": "view",
      "type": "function"
    },
    {
      "inputs": [],
      "name": "chef",
      "outputs": [
        {
          "internalType": "contract IMasterChef",
          "name": "",
          "type": "address"
        }
      ],
      "stateMutability": "view",
      "type": "function"
    },
    {
      "inputs": [
        {
          "internalType": "uint256",
          "name": "trancheId",
          "type": "uint256"
        },
        {
          "internalType": "address",
          "name": "currency",
          "type": "address"
        },
        {
          "internalType": "address",
          "name": "recipient",
          "type": "address"
        }
      ],
      "name": "collectYield",
      "outputs": [
        {
          "internalType": "uint256",
          "name": "",
          "type": "uint256"
        }
      ],
      "stateMutability": "nonpayable",
      "type": "function"
    },
    {
      "inputs": [
        {
          "internalType": "uint256",
          "name": "trancheId",
          "type": "uint256"
        },
        {
          "internalType": "address",
          "name": "_yieldCurrency",
          "type": "address"
        },
        {
          "internalType": "address",
          "name": "valueCurrency",
          "type": "address"
        },
        {
          "internalType": "address",
          "name": "recipient",
          "type": "address"
        }
      ],
      "name": "collectYieldValueBorrowable",
      "outputs": [
        {
          "internalType": "uint256",
          "name": "yield",
          "type": "uint256"
        },
        {
          "internalType": "uint256",
          "name": "value",
          "type": "uint256"
        },
        {
          "internalType": "uint256",
          "name": "borrowablePer10k",
          "type": "uint256"
        }
      ],
      "stateMutability": "nonpayable",
      "type": "function"
    },
    {
      "inputs": [
        {
          "internalType": "uint256",
          "name": "conversionAmount",
          "type": "uint256"
        },
        {
          "internalType": "uint256",
          "name": "usdmBid",
          "type": "uint256"
        }
      ],
      "name": "convertReward2Stable",
      "outputs": [],
      "stateMutability": "nonpayable",
      "type": "function"
    },
    {
      "inputs": [],
      "name": "currentTalliedRewardReserve",
      "outputs": [
        {
          "internalType": "uint256",
          "name": "",
          "type": "uint256"
        }
      ],
      "stateMutability": "view",
      "type": "function"
    },
    {
      "inputs": [],
      "name": "dependsOnCharacters",
      "outputs": [
        {
          "internalType": "uint256[]",
          "name": "",
          "type": "uint256[]"
        }
      ],
      "stateMutability": "view",
      "type": "function"
    },
    {
      "inputs": [],
      "name": "dependsOnRoles",
      "outputs": [
        {
          "internalType": "uint256[]",
          "name": "",
          "type": "uint256[]"
        }
      ],
      "stateMutability": "view",
      "type": "function"
    },
    {
      "inputs": [
        {
          "internalType": "uint256",
          "name": "trancheId",
          "type": "uint256"
        },
        {
          "internalType": "uint256",
          "name": "amount",
          "type": "uint256"
        }
      ],
      "name": "deposit",
      "outputs": [],
      "stateMutability": "nonpayable",
      "type": "function"
    },
    {
      "inputs": [
        {
          "internalType": "address",
          "name": "token",
          "type": "address"
        },
        {
          "internalType": "bytes",
          "name": "",
          "type": "bytes"
        }
      ],
      "name": "disapproveToken",
      "outputs": [],
      "stateMutability": "nonpayable",
      "type": "function"
    },
    {
      "inputs": [],
      "name": "feePer10k",
      "outputs": [
        {
          "internalType": "uint256",
          "name": "",
          "type": "uint256"
        }
      ],
      "stateMutability": "view",
      "type": "function"
    },
    {
      "inputs": [],
      "name": "isActive",
      "outputs": [
        {
          "internalType": "bool",
          "name": "",
          "type": "bool"
        }
      ],
      "stateMutability": "view",
      "type": "function"
    },
    {
      "inputs": [
        {
          "internalType": "uint256",
          "name": "",
          "type": "uint256"
        }
      ],
      "name": "mainCharacterCache",
      "outputs": [
        {
          "internalType": "address",
          "name": "",
          "type": "address"
        }
      ],
      "stateMutability": "view",
      "type": "function"
    },
    {
      "inputs": [
        {
          "internalType": "address",
          "name": "destination",
          "type": "address"
        }
      ],
      "name": "migrateAllTo",
      "outputs": [],
      "stateMutability": "nonpayable",
      "type": "function"
    },
    {
      "inputs": [
        {
          "internalType": "uint256",
          "name": "trancheId",
          "type": "uint256"
        },
        {
          "internalType": "address",
          "name": "targetStrategy",
          "type": "address"
        },
        {
          "internalType": "address",
          "name": "yieldToken",
          "type": "address"
        },
        {
          "internalType": "address",
          "name": "yieldRecipient",
          "type": "address"
        }
      ],
      "name": "migrateStrategy",
      "outputs": [
        {
          "internalType": "address",
          "name": "",
          "type": "address"
        },
        {
          "internalType": "uint256",
          "name": "",
          "type": "uint256"
        },
        {
          "internalType": "uint256",
          "name": "",
          "type": "uint256"
        }
      ],
      "stateMutability": "nonpayable",
      "type": "function"
    },
    {
      "inputs": [],
      "name": "minimumBidPer10k",
      "outputs": [
        {
          "internalType": "uint256",
          "name": "",
          "type": "uint256"
        }
      ],
      "stateMutability": "view",
      "type": "function"
    },
    {
      "inputs": [
        {
          "internalType": "address",
          "name": "token",
          "type": "address"
        },
        {
          "internalType": "address",
          "name": "pegCurrency",
          "type": "address"
        }
      ],
      "name": "newCurrentOracle",
      "outputs": [],
      "stateMutability": "nonpayable",
      "type": "function"
    },
    {
      "inputs": [
        {
          "internalType": "address",
          "name": "",
          "type": "address"
        }
      ],
      "name": "pids",
      "outputs": [
        {
          "internalType": "uint256",
          "name": "",
          "type": "uint256"
        }
      ],
      "stateMutability": "view",
      "type": "function"
    },
    {
      "inputs": [
        {
          "internalType": "address",
          "name": "depositor",
          "type": "address"
        },
        {
          "internalType": "uint256",
          "name": "trancheId",
          "type": "uint256"
        },
        {
          "internalType": "uint256",
          "name": "amount",
          "type": "uint256"
        }
      ],
      "name": "registerDepositFor",
      "outputs": [],
      "stateMutability": "nonpayable",
      "type": "function"
    },
    {
      "inputs": [
        {
          "internalType": "address",
          "name": "minter",
          "type": "address"
        },
        {
          "internalType": "uint256",
          "name": "trancheId",
          "type": "uint256"
        },
        {
          "internalType": "address",
          "name": "assetToken",
          "type": "address"
        },
        {
          "internalType": "uint256",
          "name": "",
          "type": "uint256"
        },
        {
          "internalType": "uint256",
          "name": "assetAmount",
          "type": "uint256"
        }
      ],
      "name": "registerMintTranche",
      "outputs": [],
      "stateMutability": "nonpayable",
      "type": "function"
    },
    {
      "inputs": [],
      "name": "rewardToken",
      "outputs": [
        {
          "internalType": "contract IERC20",
          "name": "",
          "type": "address"
        }
      ],
      "stateMutability": "view",
      "type": "function"
    },
    {
      "inputs": [
        {
          "internalType": "address",
          "name": "",
          "type": "address"
        },
        {
          "internalType": "uint256",
          "name": "",
          "type": "uint256"
        }
      ],
      "name": "roleCache",
      "outputs": [
        {
          "internalType": "bool",
          "name": "",
          "type": "bool"
        }
      ],
      "stateMutability": "view",
      "type": "function"
    },
    {
      "inputs": [],
      "name": "roles",
      "outputs": [
        {
          "internalType": "contract Roles",
          "name": "",
          "type": "address"
        }
      ],
      "stateMutability": "view",
      "type": "function"
    },
    {
      "inputs": [],
      "name": "rolesPlayed",
      "outputs": [
        {
          "internalType": "uint256[]",
          "name": "",
          "type": "uint256[]"
        }
      ],
      "stateMutability": "view",
      "type": "function"
    },
    {
      "inputs": [
        {
          "internalType": "uint256",
          "name": "smoothing",
          "type": "uint256"
        }
      ],
      "name": "setApfSmoothingPer10k",
      "outputs": [],
      "stateMutability": "nonpayable",
      "type": "function"
    },
    {
      "inputs": [
        {
          "internalType": "uint256",
          "name": "fee",
          "type": "uint256"
        }
      ],
      "name": "setFeePer10k",
      "outputs": [],
      "stateMutability": "nonpayable",
      "type": "function"
    },
    {
      "inputs": [
        {
          "internalType": "uint256",
          "name": "bidmin",
          "type": "uint256"
        }
      ],
      "name": "setMinimumBidPer10k",
      "outputs": [],
      "stateMutability": "nonpayable",
      "type": "function"
    },
    {
      "inputs": [
        {
          "internalType": "address",
          "name": "",
          "type": "address"
        }
      ],
      "name": "stabilityFeePer10k",
      "outputs": [
        {
          "internalType": "uint256",
          "name": "",
          "type": "uint256"
        }
      ],
      "stateMutability": "view",
      "type": "function"
    },
    {
      "inputs": [],
      "name": "strategyName",
      "outputs": [
        {
          "internalType": "bytes32",
          "name": "",
          "type": "bytes32"
        }
      ],
      "stateMutability": "view",
      "type": "function"
    },
    {
      "inputs": [
        {
          "internalType": "address",
          "name": "token",
          "type": "address"
        }
      ],
      "name": "tallyHarvestBalance",
      "outputs": [
        {
          "internalType": "uint256",
          "name": "balance",
          "type": "uint256"
        }
      ],
      "stateMutability": "nonpayable",
      "type": "function"
    },
    {
      "inputs": [
        {
          "internalType": "address",
          "name": "token",
          "type": "address"
        }
      ],
      "name": "tallyReward",
      "outputs": [],
      "stateMutability": "nonpayable",
      "type": "function"
    },
    {
      "inputs": [
        {
          "internalType": "address",
          "name": "",
          "type": "address"
        }
      ],
      "name": "tokenMetadata",
      "outputs": [
        {
          "internalType": "uint256",
          "name": "cumulYieldPerCollateralFP",
          "type": "uint256"
        },
        {
          "internalType": "uint256",
          "name": "totalCollateralPast",
          "type": "uint256"
        },
        {
          "internalType": "uint256",
          "name": "totalCollateralNow",
          "type": "uint256"
        },
        {
          "internalType": "uint256",
          "name": "apfLastUpdated",
          "type": "uint256"
        },
        {
          "internalType": "uint256",
          "name": "apf",
          "type": "uint256"
        }
      ],
      "stateMutability": "view",
      "type": "function"
    },
    {
      "inputs": [],
      "name": "totalConvertedStable",
      "outputs": [
        {
          "internalType": "uint256",
          "name": "",
          "type": "uint256"
        }
      ],
      "stateMutability": "view",
      "type": "function"
    },
    {
      "inputs": [],
      "name": "totalRewardCumulative",
      "outputs": [
        {
          "internalType": "uint256",
          "name": "",
          "type": "uint256"
        }
      ],
      "stateMutability": "view",
      "type": "function"
    },
    {
      "inputs": [
        {
          "internalType": "address",
          "name": "",
          "type": "address"
        }
      ],
      "name": "totalRewardPerAsset",
      "outputs": [
        {
          "internalType": "uint256",
          "name": "",
          "type": "uint256"
        }
      ],
      "stateMutability": "view",
      "type": "function"
    },
    {
      "inputs": [
        {
          "internalType": "address",
          "name": "",
          "type": "address"
        }
      ],
      "name": "totalStableTallied",
      "outputs": [
        {
          "internalType": "uint256",
          "name": "",
          "type": "uint256"
        }
      ],
      "stateMutability": "view",
      "type": "function"
    },
    {
      "inputs": [
        {
          "internalType": "uint256",
          "name": "trancheId",
          "type": "uint256"
        }
      ],
      "name": "tranche",
      "outputs": [
        {
          "internalType": "address",
          "name": "",
          "type": "address"
        }
      ],
      "stateMutability": "view",
      "type": "function"
    },
    {
      "inputs": [
        {
          "internalType": "uint256",
          "name": "trancheId",
          "type": "uint256"
        }
      ],
      "name": "trancheToken",
      "outputs": [
        {
          "internalType": "address",
          "name": "token",
          "type": "address"
        }
      ],
      "stateMutability": "view",
      "type": "function"
    },
    {
      "inputs": [
        {
          "internalType": "uint256",
          "name": "",
          "type": "uint256"
        }
      ],
      "name": "trancheTokenID",
      "outputs": [
        {
          "internalType": "uint256",
          "name": "",
          "type": "uint256"
        }
      ],
      "stateMutability": "pure",
      "type": "function"
    },
    {
      "inputs": [
        {
          "internalType": "uint256",
          "name": "role",
          "type": "uint256"
        }
      ],
      "name": "updateMainCharacterCache",
      "outputs": [],
      "stateMutability": "nonpayable",
      "type": "function"
    },
    {
      "inputs": [
        {
          "internalType": "uint256",
          "name": "role",
          "type": "uint256"
        },
        {
          "internalType": "address",
          "name": "contr",
          "type": "address"
        }
      ],
      "name": "updateRoleCache",
      "outputs": [],
      "stateMutability": "nonpayable",
      "type": "function"
    },
    {
      "inputs": [
        {
          "internalType": "address",
          "name": "",
          "type": "address"
        }
      ],
      "name": "viewAPF",
      "outputs": [
        {
          "internalType": "uint256",
          "name": "",
          "type": "uint256"
        }
      ],
      "stateMutability": "view",
      "type": "function"
    },
    {
      "inputs": [],
      "name": "viewAllApprovedTokens",
      "outputs": [
        {
          "internalType": "address[]",
          "name": "",
          "type": "address[]"
        }
      ],
      "stateMutability": "view",
      "type": "function"
    },
    {
      "inputs": [],
      "name": "viewAllStrategyMetadata",
      "outputs": [
        {
          "components": [
            {
              "internalType": "address",
              "name": "strategy",
              "type": "address"
            },
            {
              "internalType": "address",
              "name": "token",
              "type": "address"
            },
            {
              "internalType": "uint256",
              "name": "APF",
              "type": "uint256"
            },
            {
              "internalType": "uint256",
              "name": "totalCollateral",
              "type": "uint256"
            },
            {
              "internalType": "uint256",
              "name": "borrowablePer10k",
              "type": "uint256"
            },
            {
              "internalType": "uint256",
              "name": "valuePer1e18",
              "type": "uint256"
            },
            {
              "internalType": "bytes32",
              "name": "strategyName",
              "type": "bytes32"
            },
            {
              "internalType": "uint256",
              "name": "tvl",
              "type": "uint256"
            },
            {
              "internalType": "uint256",
              "name": "harvestBalance2Tally",
              "type": "uint256"
            },
            {
              "internalType": "enum IStrategy.YieldType",
              "name": "yieldType",
              "type": "uint8"
            },
            {
              "internalType": "uint256",
              "name": "stabilityFee",
              "type": "uint256"
            }
          ],
          "internalType": "struct IStrategy.StrategyMetadata[]",
          "name": "",
          "type": "tuple[]"
        }
      ],
      "stateMutability": "view",
      "type": "function"
    },
    {
      "inputs": [],
      "name": "viewAllTokensEver",
      "outputs": [
        {
          "internalType": "address[]",
          "name": "",
          "type": "address[]"
        }
      ],
      "stateMutability": "view",
      "type": "function"
    },
    {
      "inputs": [
        {
          "internalType": "uint256",
          "name": "trancheId",
          "type": "uint256"
        }
      ],
      "name": "viewBorrowable",
      "outputs": [
        {
          "internalType": "uint256",
          "name": "borrowablePer10k",
          "type": "uint256"
        }
      ],
      "stateMutability": "view",
      "type": "function"
    },
    {
      "inputs": [
        {
          "internalType": "address",
          "name": "token",
          "type": "address"
        }
      ],
      "name": "viewHarvestBalance2Tally",
      "outputs": [
        {
          "internalType": "uint256",
          "name": "",
          "type": "uint256"
        }
      ],
      "stateMutability": "view",
      "type": "function"
    },
    {
      "inputs": [
        {
          "internalType": "address",
          "name": "token",
          "type": "address"
        }
      ],
      "name": "viewStrategyMetadata",
      "outputs": [
        {
          "components": [
            {
              "internalType": "address",
              "name": "strategy",
              "type": "address"
            },
            {
              "internalType": "address",
              "name": "token",
              "type": "address"
            },
            {
              "internalType": "uint256",
              "name": "APF",
              "type": "uint256"
            },
            {
              "internalType": "uint256",
              "name": "totalCollateral",
              "type": "uint256"
            },
            {
              "internalType": "uint256",
              "name": "borrowablePer10k",
              "type": "uint256"
            },
            {
              "internalType": "uint256",
              "name": "valuePer1e18",
              "type": "uint256"
            },
            {
              "internalType": "bytes32",
              "name": "strategyName",
              "type": "bytes32"
            },
            {
              "internalType": "uint256",
              "name": "tvl",
              "type": "uint256"
            },
            {
              "internalType": "uint256",
              "name": "harvestBalance2Tally",
              "type": "uint256"
            },
            {
              "internalType": "enum IStrategy.YieldType",
              "name": "yieldType",
              "type": "uint8"
            },
            {
              "internalType": "uint256",
              "name": "stabilityFee",
              "type": "uint256"
            }
          ],
          "internalType": "struct IStrategy.StrategyMetadata",
          "name": "",
          "type": "tuple"
        }
      ],
      "stateMutability": "view",
      "type": "function"
    },
    {
      "inputs": [
        {
          "internalType": "uint256",
          "name": "trancheId",
          "type": "uint256"
        }
      ],
      "name": "viewTargetCollateralAmount",
      "outputs": [
        {
          "internalType": "uint256",
          "name": "",
          "type": "uint256"
        }
      ],
      "stateMutability": "view",
      "type": "function"
    },
    {
      "inputs": [
        {
          "internalType": "uint256",
          "name": "trancheId",
          "type": "uint256"
        },
        {
          "internalType": "address",
          "name": "valueCurrency",
          "type": "address"
        }
      ],
      "name": "viewValue",
      "outputs": [
        {
          "internalType": "uint256",
          "name": "value",
          "type": "uint256"
        }
      ],
      "stateMutability": "view",
      "type": "function"
    },
    {
      "inputs": [
        {
          "internalType": "uint256",
          "name": "trancheId",
          "type": "uint256"
        },
        {
          "internalType": "address",
          "name": "valueCurrency",
          "type": "address"
        }
      ],
      "name": "viewValueBorrowable",
      "outputs": [
        {
          "internalType": "uint256",
          "name": "value",
          "type": "uint256"
        },
        {
          "internalType": "uint256",
          "name": "borrowable",
          "type": "uint256"
        }
      ],
      "stateMutability": "view",
      "type": "function"
    },
    {
      "inputs": [
        {
          "internalType": "uint256",
          "name": "trancheId",
          "type": "uint256"
        },
        {
          "internalType": "address",
          "name": "currency",
          "type": "address"
        }
      ],
      "name": "viewYield",
      "outputs": [
        {
          "internalType": "uint256",
          "name": "",
          "type": "uint256"
        }
      ],
      "stateMutability": "view",
      "type": "function"
    },
    {
      "inputs": [
        {
          "internalType": "uint256",
          "name": "trancheId",
          "type": "uint256"
        },
        {
          "internalType": "address",
          "name": "_yieldCurrency",
          "type": "address"
        },
        {
          "internalType": "address",
          "name": "valueCurrency",
          "type": "address"
        }
      ],
      "name": "viewYieldValueBorrowable",
      "outputs": [
        {
          "internalType": "uint256",
          "name": "yield",
          "type": "uint256"
        },
        {
          "internalType": "uint256",
          "name": "value",
          "type": "uint256"
        },
        {
          "internalType": "uint256",
          "name": "borrowablePer10k",
          "type": "uint256"
        }
      ],
      "stateMutability": "view",
      "type": "function"
    },
    {
      "inputs": [
        {
          "internalType": "uint256",
          "name": "trancheId",
          "type": "uint256"
        },
        {
          "internalType": "uint256",
          "name": "amount",
          "type": "uint256"
        },
        {
          "internalType": "address",
          "name": "recipient",
          "type": "address"
        }
      ],
      "name": "withdraw",
      "outputs": [],
      "stateMutability": "nonpayable",
      "type": "function"
    },
    {
      "inputs": [],
      "name": "yieldCurrency",
      "outputs": [
        {
          "internalType": "address",
          "name": "",
          "type": "address"
        }
      ],
      "stateMutability": "view",
      "type": "function"
    },
    {
      "inputs": [],
      "name": "yieldType",
      "outputs": [
        {
          "internalType": "enum IStrategy.YieldType",
          "name": "",
          "type": "uint8"
        }
      ],
      "stateMutability": "pure",
      "type": "function"
    }
  ],
  "transactionHash": "0x71bdd010e0e610fa2fe4bcba5ba251cd6b102e35a4fdb6cf0492b90a9860dfd3",
  "args": [
    "0x70429C9357D150E3a9088f94b8D91d944106137B"
  ],
  "solcInputHash": "28c9fd7028c7235019505a3b598cc36a",
  "bytecode": "0x6101206040526008805460ff19166001179055611388600e556125806015556103e86016553480156200003157600080fd5b50604051620046b1380380620046b1833981016040819052620000549162000326565b7f547261646572204a6f652073656c662d7265706179696e67000000000000000073d6a4f121ca35509af06a0be99093d08462f53052736e84a6216ea6dacc71ee8e6b0a5b7322eebc0fdd83818482806001600160a01b0381166200010a5760405162461bcd60e51b815260206004820152602260248201527f506c656173652070726f766964652076616c696420726f6c6573206164647265604482015261737360f01b606482015260840160405180910390fd5b60601b6001600160601b0319166080526002805460018082018355606a600080516020620046918339815191529283015560058054808301825560047f036b6384b5eca791c62761152d0c79bb0604c104a5fb6f4eb0703f3154bb3db09182018190558554808501875560669086015582548085019093559101849055835480830185556068908401556003805480840182557fc2575a0e9e593c00f959f8c92f12db2869c3395a3b0502d05e2516446f71f85b908101829055815480850190925501829055835491820184556000939093526069910181905560405163b4ed0b6d60e01b8152918201526001600160a01b0382169063b4ed0b6d9060240160206040518083038186803b1580156200022257600080fd5b505afa15801562000237573d6000803e3d6000fd5b505050506040513d601f19601f820116820180604052508101906200025d919062000326565b6001600160a01b031663fae794e66040518163ffffffff1660e01b815260040160206040518083038186803b1580156200029657600080fd5b505afa158015620002ab573d6000803e3d6000fd5b505050506040513d601f19601f82011682018060405250810190620002d1919062000356565b60a0525060c05260028054600181018255600091909152606760008051602062004691833981519152909101556001600160601b0319606091821b811660e05293901b90921661010052506200036f92505050565b60006020828403121562000338578081fd5b81516001600160a01b03811681146200034f578182fd5b9392505050565b60006020828403121562000368578081fd5b5051919050565b60805160601c60a05160c05160e05160601c6101005160601c6142726200041f600039600081816104e101528181612adb0152818161318a0152818161360001526136b6015260008181610a87015281816113300152818161154701526117570152600081816109810152610dc301526000611e7f0152600081816105a701528181610b5c0152818161116901528181612919015281816129ac01528181612a43015261323801526142726000f3fe608060405234801561001057600080fd5b506004361061041d5760003560e01c80639470505f1161022b578063d9cb512c11610130578063e9c3f77d116100b8578063fa98a4ba11610087578063fa98a4ba14610abc578063fabee7db14610acf578063fac82e8c14610ae2578063fd80d0c314610af5578063fe65a5b414610b085761041d565b8063e9c3f77d14610a46578063f12ba38114610a6f578063f7c618c114610a82578063f8903fb714610aa95761041d565b8063e173ad25116100ff578063e173ad251461097c578063e22d2845146109a3578063e2bbb158146109ff578063e2e730f614610a12578063e8ea4fae14610a3e5761041d565b8063d9cb512c14610939578063d9d4afe114610941578063dc94cb7d14610954578063df01df6f1461095c5761041d565b8063b23d66c2116101b3578063c5c72dc311610182578063c5c72dc3146108e1578063d0e1b89714610901578063d241c9c014610914578063d2d719d614610927578063d7fb7b31146109305761041d565b8063b23d66c214610863578063b83279931461089b578063bf184ea4146108ae578063c116923b146108c15761041d565b8063a51c8fab116101fa578063a51c8fab1461080c578063a9bad7b814610821578063abcbc4fc14610834578063aeb38d8b14610847578063b06ea8f01461085a5761041d565b80639470505f146107b95780639b0f09ae146107cc578063a0d8fed4146107db578063a4d77f90146107e45761041d565b80633ace96ec116103315780636caa9c11116102b95780637b2c9279116102885780637b2c9279146107555780637dad209b1461075d5780637dbf0b7c146107655780638496e891146107785780638a31b98f146107a65761041d565b80636caa9c11146106995780636fecdf24146106ac5780637268d1c0146107145780637a1a04df146107275761041d565b80634ccee478116103005780634ccee4781461062a5780634d9d01b21461064a5780634df87c0914610652578063525e8269146106655780635e8762f8146106785761041d565b80633ace96ec146105dc578063447d52ba146105ef578063459ba127146106025780634a7a7f41146106155761041d565b80631f7ea881116103b45780632642b606116103835780632642b6061461054d57806326473a8f1461058157806328f3fc731461058f578063392f5f64146105a25780633a3db435146105c95761041d565b80631f7ea881146104c95780631fc8bc5d146104dc57806321fa0f1f1461051b57806322f3e2d4146105305761041d565b80630ad58d2f116103f05780630ad58d2f14610479578063110acb231461048c5780631dc3a759146104ac5780631ef380eb146104c05761041d565b806301c7b9f81461042257806305fe2cc614610448578063071060a6146104515780630a3017d914610466575b600080fd5b610435610430366004613d4f565b610b1b565b6040519081526020015b60405180910390f35b61043560135481565b61046461045f366004613d1f565b610b46565b005b610435610474366004613ae5565b610c0c565b610464610487366004613e83565b610c15565b61049f61049a366004613ae5565b610d31565b60405161043f919061412f565b6104356104ba366004613d1f565b50600090565b61043560145481565b6104646104d7366004613b55565b610e16565b6105037f000000000000000000000000000000000000000000000000000000000000000081565b6040516001600160a01b03909116815260200161043f565b610523610ecf565b60405161043f9190614011565b60085461053d9060ff1681565b604051901515815260200161043f565b61050361055b366004613b1d565b60066020908152600092835260408084209091529082529020546001600160a01b031681565b6104356104ba366004613ae5565b61046461059d366004613b1d565b610fa2565b6105037f000000000000000000000000000000000000000000000000000000000000000081565b6104646105d7366004613d1f565b61109b565b6104646105ea366004613b55565b6110e9565b6104646105fd366004613d4f565b611143565b610464610610366004613e06565b61121b565b61061d61129c565b60405161043f9190614054565b610435610638366004613ae5565b60116020526000908152604090205481565b6104356112f4565b61053d610660366004613ae5565b611305565b610464610673366004613ae5565b611318565b61068b610686366004613bd5565b611400565b60405161043f92919061408c565b6104356106a7366004613d1f565b611433565b6106ec6106ba366004613ae5565b600f60205260009081526040902060018101546002820154600383015460048401546005909401549293919290919085565b604080519586526020860194909452928401919091526060830152608082015260a00161043f565b610435610722366004613d1f565b611454565b61053d610735366004613bd5565b600160209081526000928352604080842090915290825290205460ff1681565b610503611480565b61061d61148a565b610464610773366004613e3f565b6114e0565b61078b610786366004613db4565b61179c565b6040805193845260208401929092529082015260600161043f565b6104356107b4366004613ae5565b6118c0565b6104356107c7366004613ae5565b611995565b600060405161043f91906140a7565b61043560125481565b6107f76107f2366004613d4f565b6119f7565b6040805192835260208301919091520161043f565b610814611a26565b60405161043f9190613fc4565b61046461082f366004613d73565b611a32565b610435610842366004613d1f565b611b8f565b610435610855366004613d1f565b611b9f565b610435600e5481565b610876610871366004613db4565b611baf565b604080516001600160a01b03909416845260208401929092529082015260600161043f565b6104646108a9366004613c00565b611d3e565b6104356108bc366004613d1f565b611e19565b6104356108cf366004613ae5565b60106020526000908152604090205481565b6104356108ef366004613d1f565b6000908152600d602052604090205490565b61046461090f366004613d1f565b611e29565b610503610922366004613d1f565b611e77565b61043560165481565b61043560155481565b610814611f71565b61050361094f366004613b1d565b611f7d565b61061d6120e6565b61043561096a366004613ae5565b60176020526000908152604090205481565b6104357f000000000000000000000000000000000000000000000000000000000000000081565b6109db6109b1366004613d1f565b600d602052600090815260409020805460018201546002909201549091906001600160a01b031683565b6040805193845260208401929092526001600160a01b03169082015260600161043f565b610464610a0d366004613e3f565b61213c565b610435610a20366004613ae5565b6001600160a01b03166000908152600f602052604090206003015490565b61061d612147565b610503610a54366004613d1f565b6000602081905290815260409020546001600160a01b031681565b610464610a7d366004613c51565b61219d565b6105037f000000000000000000000000000000000000000000000000000000000000000081565b610435610ab7366004613d73565b612252565b61078b610aca366004613d73565b612340565b610503610add366004613d1f565b612381565b610464610af0366004613ae5565b61239f565b610435610b03366004613d4f565b6125ee565b610464610b16366004613d1f565b612632565b6000610b3e610b2984612381565b6000858152600d602052604090205484612680565b509392505050565b60405163b4ed0b6d60e01b8152600481018290527f00000000000000000000000000000000000000000000000000000000000000006001600160a01b03169063b4ed0b6d9060240160206040518083038186803b158015610ba657600080fd5b505afa158015610bba573d6000803e3d6000fd5b505050506040513d601f19601f82011682018060405250810190610bde9190613b01565b60009182526020829052604090912080546001600160a01b0319166001600160a01b03909216919091179055565b6127105b919050565b60085460ff16610c405760405162461bcd60e51b8152600401610c37906140c8565b60405180910390fd5b610c4933612821565b80610cd55750610c5883611e77565b6001600160a01b0316632972b0f033856040518363ffffffff1660e01b8152600401610c85929190613fab565b60206040518083038186803b158015610c9d57600080fd5b505afa158015610cb1573d6000803e3d6000fd5b505050506040513d601f19601f82011682018060405250810190610cd59190613c85565b610d215760405162461bcd60e51b815260206004820152601a60248201527f4e6f7420617574686f72697a656420746f2077697468647261770000000000006044820152606401610c37565b610d2c83838361284a565b505050565b610d39613a57565b600080610d5684670de0b6b3a7640000610d516128dd565b612680565b91509150604051806101600160405280306001600160a01b03168152602001856001600160a01b03168152602001610d8d86610c0c565b81526001600160a01b0386166000818152600f6020818152604080842060030154828701819052908601889052606086018990527f0000000000000000000000000000000000000000000000000000000000000000608087015293909252905260a082015260c001610dfe86611995565b81526020016000815260200160009052949350505050565b33610e1f612915565b6001600160a01b03161480610e43575033610e386129a8565b6001600160a01b0316145b80610e525750610e5233612a19565b610ec45760405162461bcd60e51b815260206004820152603960248201527f43616c6c6572206973206e6f7420746865206f776e65722c206578656375746f60448201527f72206f7220617574686f72697a656420616374697661746f72000000000000006064820152608401610c37565b610d2c838383612abf565b60606000610edd6009612c0b565b905060008167ffffffffffffffff811115610f0857634e487b7160e01b600052604160045260246000fd5b604051908082528060200260200182016040528015610f4157816020015b610f2e613a57565b815260200190600190039081610f265790505b50905060005b80831115610f9b57610f5d61049a600983612c15565b828281518110610f7d57634e487b7160e01b600052603260045260246000fd5b60200260200101819052508080610f93906141cc565b915050610f47565b5091505090565b6001600160a01b0382811660009081526006602090815260408083208585168452909152902054161561109757610fd7612c21565b60405163179ce80d60e21b81526001600160a01b03848116600483015283811660248301529190911690635e73a0349060440160206040518083038186803b15801561102257600080fd5b505afa158015611036573d6000803e3d6000fd5b505050506040513d601f19601f8201168201806040525081019061105a9190613b01565b6001600160a01b0383811660009081526006602090815260408083208685168452909152902080546001600160a01b031916929091169190911790555b5050565b336110a4612915565b6001600160a01b031614806110c85750336110bd6129a8565b6001600160a01b0316145b6110e45760405162461bcd60e51b8152600401610c37906140f8565b600e55565b336110f2612915565b6001600160a01b0316148061111657503361110b6129a8565b6001600160a01b0316145b6111325760405162461bcd60e51b8152600401610c37906140f8565b61113d600984612c59565b50505050565b6040516393552a3d60e01b8152600481018390526001600160a01b0382811660248301527f000000000000000000000000000000000000000000000000000000000000000016906393552a3d9060440160206040518083038186803b1580156111ab57600080fd5b505afa1580156111bf573d6000803e3d6000fd5b505050506040513d601f19601f820116820180604052508101906111e39190613c85565b6001600160a01b0391909116600090815260016020908152604080832094835293905291909120805460ff1916911515919091179055565b61122485611e77565b6001600160a01b0316336001600160a01b0316146112805760405162461bcd60e51b81526020600482015260196024820152784e6f7420617574686f72697a656420746f206d69677261746560381b6044820152606401610c37565b61128a8584612c6e565b611295848683612cee565b5050505050565b606060038054806020026020016040519081016040528092919081815260200182805480156112ea57602002820191906000526020600020905b8154815260200190600101908083116112d6575b5050505050905090565b60006113006009612c0b565b905090565b6000611312600983612d55565b92915050565b6040516370a0823160e01b81523060048201526000907f00000000000000000000000000000000000000000000000000000000000000006001600160a01b0316906370a082319060240160206040518083038186803b15801561137a57600080fd5b505afa15801561138e573d6000803e3d6000fd5b505050506040513d601f19601f820116820180604052508101906113b29190613d37565b90506000601454826113c49190614189565b90508015610d2c576001600160a01b038316600090815260106020526040812080548392906113f490849061413e565b90915550505060145550565b6000606061140d84611305565b604080516020810186905201604051602081830303815290604052915091509250929050565b6005818154811061144357600080fd5b600091825260209091200154905081565b600061147961146283612381565b6000848152600d6020526040902054610d51611480565b9392505050565b60006113006128dd565b606060048054806020026020016040519081016040528092919081815260200182805480156112ea57602002820191906000526020600020908154815260200190600101908083116112d6575050505050905090565b60006114ee83601454612d77565b9050600081116115405760405162461bcd60e51b815260206004820152601f60248201527f4e6f2063757272656e746c7920636f6e7665727469626c6520726577617264006044820152606401610c37565b60006115747f00000000000000000000000000000000000000000000000000000000000000008561156f6128dd565b612d8f565b905060155481611584919061416a565b6115908461271061416a565b10156115d15760405162461bcd60e51b815260206004820152601060248201526f125b9cdd59999a58da595b9d08189a5960821b6044820152606401610c37565b6000846115de858561416a565b6115e89190614156565b90506115f26128dd565b6001600160a01b0316639dc29fac33836040518363ffffffff1660e01b815260040161161f929190613fab565b600060405180830381600087803b15801561163957600080fd5b505af115801561164d573d6000803e3d6000fd5b505050506116596128dd565b6001600160a01b03166340c10f196116a2606760009081526020527f682158d08466d11c566d5712d4396197fdd67e65be71d83c97ef719ec468867b546001600160a01b031690565b612710846016546116b3919061416a565b6116bd9190614156565b6040518363ffffffff1660e01b81526004016116da929190613fab565b600060405180830381600087803b1580156116f457600080fd5b505af1158015611708573d6000803e3d6000fd5b5050505061271060165461271061171f9190614189565b611729908361416a565b6117339190614156565b60126000828254611744919061413e565b9091555061177e90506001600160a01b037f0000000000000000000000000000000000000000000000000000000000000000163385612e5e565b82601460008282546117909190614189565b90915550505050505050565b60008060006117aa33612821565b8061183657506117b987611e77565b6001600160a01b0316632972b0f033896040518363ffffffff1660e01b81526004016117e6929190613fab565b60206040518083038186803b1580156117fe57600080fd5b505afa158015611812573d6000803e3d6000fd5b505050506040513d601f19601f820116820180604052508101906118369190613c85565b6118825760405162461bcd60e51b815260206004820152601f60248201527f4e6f7420617574686f72697a656420746f20636f6c6c656374207969656c64006044820152606401610c37565b61188d878786612eb4565b92506118b061189b88612381565b6000898152600d602052604090205487612f75565b9398909750929550919350505050565b60006118cb82611995565b6001600160a01b0383166000908152600f60205260409020600381015491925090611907908490849061190290839061156f6128dd565b613018565b600281015461191a600160401b8461416a565b6119249190614156565b816001016000828254611937919061413e565b9091555050600180820154825491820183556000838152602080822090930191909155600383015460028401556001600160a01b0385168152601190915260408120805484929061198990849061413e565b90915550919392505050565b601354600090156119ef576001600160a01b03821660009081526011602090815260408083205460135460109093529220546012546119d4919061416a565b6119de9190614156565b6119e89190614189565b9050610c10565b506000610c10565b600080611a1b611a0685612381565b6000868152600d602052604090205485612680565b915091509250929050565b60606113006009613152565b60085460ff16611a545760405162461bcd60e51b8152600401610c37906140c8565b611a5d33612821565b80611ae95750611a6c83611e77565b6001600160a01b0316632972b0f033856040518363ffffffff1660e01b8152600401611a99929190613fab565b60206040518083038186803b158015611ab157600080fd5b505afa158015611ac5573d6000803e3d6000fd5b505050506040513d601f19601f82011682018060405250810190611ae99190613c85565b611b355760405162461bcd60e51b815260206004820152601e60248201527f4e6f7420617574686f72697a656420746f206275726e207472616e63686500006044820152606401610c37565b611b40838383612eb4565b50611b6183611b5b856000908152600d602052604090205490565b8361284a565b50506000908152600d60205260408120818155600181019190915560020180546001600160a01b0319169055565b6002818154811061144357600080fd5b6004818154811061144357600080fd5b6008546000908190819060ff16611bd85760405162461bcd60e51b8152600401610c37906140c8565b611be187611e77565b6001600160a01b0316336001600160a01b031614611c3d5760405162461bcd60e51b81526020600482015260196024820152784e6f7420617574686f72697a656420746f206d69677261746560381b6044820152606401610c37565b6000611c4888612381565b6000898152600d60205260409081902054905163095ea7b360e01b8152919250906001600160a01b0383169063095ea7b390611c8a908b908590600401613fab565b602060405180830381600087803b158015611ca457600080fd5b505af1158015611cb8573d6000803e3d6000fd5b505050506040513d601f19601f82011682018060405250810190611cdc9190613c85565b50611ce8898888612eb4565b506000611cf630848461315f565b6001600160a01b0384166000908152600f6020526040812060030180549293508392909190611d26908490614189565b90915550929a60009a50919850909650505050505050565b60085460ff16611d605760405162461bcd60e51b8152600401610c37906140c8565b3360009081526001602090815260408083206003845290915290205460ff168015611d9b575033611d9085611e77565b6001600160a01b0316145b611dd95760405162461bcd60e51b815260206004820152600f60248201526e496e76616c6964207472616e63686560881b6044820152606401610c37565b6001600160a01b0383166000908152600f6020908152604080832054878452600d90925290912060010155611e0e8484612c6e565b611295858583612cee565b6003818154811061144357600080fd5b33611e32612915565b6001600160a01b03161480611e56575033611e4b6129a8565b6001600160a01b0316145b611e725760405162461bcd60e51b8152600401610c37906140f8565b601555565b600080611ea47f0000000000000000000000000000000000000000000000000000000000000000846141e7565b6000818152600760205260409020549091506001600160a01b03168061147957606960009081526020527f366a7b92acda364086cc991f618bf9f10b629ec0f7ae94543f96b691b69ec9925460405163043b4d2f60e51b8152600481018490526001600160a01b0390911690638769a5e09060240160206040518083038186803b158015611f3157600080fd5b505afa158015611f45573d6000803e3d6000fd5b505050506040513d601f19601f82011682018060405250810190611f699190613b01565b949350505050565b6060611300600b613152565b6001600160a01b038281166000908152600660209081526040808320858516845290915281205490911661131257611fb3612c21565b6040516302eaec2d60e31b81526001600160a01b03858116600483015284811660248301529190911690631757616890604401600060405180830381600087803b15801561200057600080fd5b505af1158015612014573d6000803e3d6000fd5b50505050612020612c21565b60405163179ce80d60e21b81526001600160a01b03858116600483015284811660248301529190911690635e73a0349060440160206040518083038186803b15801561206b57600080fd5b505afa15801561207f573d6000803e3d6000fd5b505050506040513d601f19601f820116820180604052508101906120a39190613b01565b6001600160a01b0384811660009081526006602090815260408083208785168452909152902080546001600160a01b031916918316919091179055905092915050565b606060028054806020026020016040519081016040528092919081815260200182805480156112ea57602002820191906000526020600020908154815260200190600101908083116112d6575050505050905090565b611097338383612cee565b606060058054806020026020016040519081016040528092919081815260200182805480156112ea57602002820191906000526020600020908154815260200190600101908083116112d6575050505050905090565b60085460ff166121bf5760405162461bcd60e51b8152600401610c37906140c8565b3360009081526001602090815260408083206003845290915290205460ff16806121ed57506121ed33612821565b6122475760405162461bcd60e51b815260206004820152602560248201527f4e6f7420617574686f72697a656420746f207472616e7366657220757365722060448201526466756e647360d81b6064820152608401610c37565b610d2c838383612cee565b600061225d33612821565b806122e9575061226c84611e77565b6001600160a01b0316632972b0f033866040518363ffffffff1660e01b8152600401612299929190613fab565b60206040518083038186803b1580156122b157600080fd5b505afa1580156122c5573d6000803e3d6000fd5b505050506040513d601f19601f820116820180604052508101906122e99190613c85565b6123355760405162461bcd60e51b815260206004820152601f60248201527f4e6f7420617574686f72697a656420746f20636f6c6c656374207969656c64006044820152606401610c37565b611f69848484612eb4565b600080600061234f86866125ee565b925061237261235d87612381565b6000888152600d602052604090205486612680565b93979096509294509192505050565b6000908152600d60205260409020600201546001600160a01b031690565b60085460ff166123c15760405162461bcd60e51b8152600401610c37906140c8565b336123ca612915565b6001600160a01b031614806123ee5750336123e36129a8565b6001600160a01b0316145b806124085750336123fd61321e565b6001600160a01b0316145b61247a5760405162461bcd60e51b815260206004820152603860248201527f43616c6c6572206973206e6f7420746865206f776e65722c206578656375746f60448201527f72206f7220617574686f72697a65642064697361626c657200000000000000006064820152608401610c37565b612482613282565b5060005b80612491600b612c0b565b11156125e05760006124a4600b83612c15565b905060006124ca826001600160a01b03166000908152600f602052604090206003015490565b905060006124d66132d3565b90506124e381848461315f565b5060405163095ea7b360e01b81526001600160a01b0384169063095ea7b39061251490849060001990600401613fab565b602060405180830381600087803b15801561252e57600080fd5b505af1158015612542573d6000803e3d6000fd5b505050506040513d601f19601f820116820180604052508101906125669190613c85565b506040516374f1c09760e11b81526001600160a01b038681166004830152848116602483015282169063e9e3812e90604401600060405180830381600087803b1580156125b257600080fd5b505af11580156125c6573d6000803e3d6000fd5b5050505050505080806125d8906141cc565b915050612486565b50506008805460ff19169055565b6000828152600d60205260408120611f6981600f8461260c88612381565b6001600160a01b03166001600160a01b031681526020019081526020016000208561330b565b3361263b612915565b6001600160a01b0316148061265f5750336126546129a8565b6001600160a01b0316145b61267b5760405162461bcd60e51b8152600401610c37906140f8565b601655565b6001600160a01b038084166000908152600660209081526040808320858516845290915281205490918291168061273f576126b9612c21565b60405163179ce80d60e21b81526001600160a01b03888116600483015286811660248301529190911690635e73a0349060440160206040518083038186803b15801561270457600080fd5b505afa158015612718573d6000803e3d6000fd5b505050506040513d601f19601f8201168201806040525081019061273c9190613b01565b90505b6040516313f3552960e21b81526001600160a01b038781166004830152602482018790528581166044830152821690634fcd54a490606401604080518083038186803b15801561278e57600080fd5b505afa1580156127a2573d6000803e3d6000fd5b505050506040513d601f19601f820116820180604052508101906127c69190613e60565b9093509150816128185760405162461bcd60e51b815260206004820181905260248201527f556e696e697469616c697a656420626f72726f7761626c65207065722031306b6044820152606401610c37565b50935093915050565b6001600160a01b0316600090815260016020818152604080842092845291905290205460ff1690565b600061285584612381565b905061287683612871866000908152600d602052604090205490565b612d77565b925061288382828561315f565b506000848152600d6020526040812080548592906128a2908490614189565b90915550506001600160a01b0381166000908152600f6020526040812060030180548592906128d2908490614189565b909155505050505050565b606660009081526020527f422cccb7cea5c0e46f340bb7b21b81debac329f72e31669c20ff0f3a05cc2b5b546001600160a01b031690565b60007f00000000000000000000000000000000000000000000000000000000000000006001600160a01b0316638da5cb5b6040518163ffffffff1660e01b815260040160206040518083038186803b15801561297057600080fd5b505afa158015612984573d6000803e3d6000fd5b505050506040513d601f19601f820116820180604052508101906113009190613b01565b60007f00000000000000000000000000000000000000000000000000000000000000006001600160a01b031663c34c08e56040518163ffffffff1660e01b8152600401602060405180830381600087803b158015612a0557600080fd5b505af1158015612984573d6000803e3d6000fd5b6040516393552a3d60e01b81526103eb60048201526001600160a01b0382811660248301526000917f0000000000000000000000000000000000000000000000000000000000000000909116906393552a3d9060440160206040518083038186803b158015612a8757600080fd5b505afa158015612a9b573d6000803e3d6000fd5b505050506040513d601f19601f820116820180604052508101906113129190613c85565b6000612acd82840184613d1f565b9050836001600160a01b03167f00000000000000000000000000000000000000000000000000000000000000006001600160a01b0316631526fe27836040518263ffffffff1660e01b8152600401612b2791815260200190565b60806040518083038186803b158015612b3f57600080fd5b505afa158015612b53573d6000803e3d6000fd5b505050506040513d601f19601f82011682018060405250810190612b779190613ca5565b516001600160a01b031614612be55760405162461bcd60e51b815260206004820152602e60248201527f50726f76696465642050494420646f6573206e6f7420636f72726573706f6e6460448201526d103a379026b0b9ba32b921b432b360911b6064820152608401610c37565b6001600160a01b038416600090815260176020526040902081905561113d8484846133f0565b6000611312825490565b60006114798383613470565b606a60009081526020527ff3261457f4fd0b7c00a1511877ab27b74183ac470be8db3a7ecdc64335f6f979546001600160a01b031690565b6000611479836001600160a01b0384166134a8565b612c79600982612d55565b612cbd5760405162461bcd60e51b81526020600482015260156024820152742737ba1030b71030b8383937bb32b2103a37b5b2b760591b6044820152606401610c37565b6000918252600d602052604090912060020180546001600160a01b0319166001600160a01b03909216919091179055565b6000612cf983612381565b9050612d068482846135c5565b506000838152600d602052604081208054849290612d2590849061413e565b90915550506001600160a01b0381166000908152600f6020526040812060030180548492906128d290849061413e565b6001600160a01b03811660009081526001830160205260408120541515611479565b600081831115612d88575080611312565b5081611312565b6001600160a01b038084166000908152600660209081526040808320858516845290915281205490911680612dcb57612dc88584611f7d565b90505b604051630576cbc360e41b81526001600160a01b03868116600483015260248201869052848116604483015282169063576cbc3090606401602060405180830381600087803b158015612e1d57600080fd5b505af1158015612e31573d6000803e3d6000fd5b505050506040513d601f19601f82011682018060405250810190612e559190613d37565b95945050505050565b610d2c8363a9059cbb60e01b8484604051602401612e7d929190613fab565b60408051601f198184030181529190526020810180516001600160e01b03166001600160e01b03199093169290921790915261371d565b6000838152600d6020526040812081600f81612ecf88612381565b6001600160a01b031681526020810191909152604001600020825490915015612f6757612efd82828761330b565b9250612f07611480565b6001600160a01b03166340c10f1985856040518363ffffffff1660e01b8152600401612f34929190613fab565b600060405180830381600087803b158015612f4e57600080fd5b505af1158015612f62573d6000803e3d6000fd5b505050505b546001909101559392505050565b6001600160a01b0380841660009081526006602090815260408083208585168452909152812054909182911680612fb357612fb08685611f7d565b90505b60405163442fd02b60e11b81526001600160a01b03878116600483015260248201879052858116604483015282169063885fa056906064016040805180830381600087803b15801561300457600080fd5b505af11580156127a2573d6000803e3d6000fd5b6001600160a01b0383166000908152600f602052604090208261307d5760405162461bcd60e51b815260206004820152601860248201527f4e6f2062616c616e636520746f207570646174652041504600000000000000006044820152606401610c37565b60048101546000816130925762093a8061309c565b61309c8242614189565b9050600081856130ac818961413e565b6130b89061271061416a565b6130c6906301e1338061416a565b6130d09190614156565b6130da9190614156565b905060008084116130ec5760006130f0565b600e545b90506127106130ff8282614189565b613109908461416a565b6131139190614156565b612710828760050154613126919061416a565b6131309190614156565b61313a919061413e565b60058601555050426004909301929092555050505050565b60606000611479836137ef565b6001600160a01b03828116600090815260176020526040808220549051630441a3e760e41b815291927f0000000000000000000000000000000000000000000000000000000000000000169163441a3e70916131c8918690600401918252602082015260400190565b600060405180830381600087803b1580156131e257600080fd5b505af11580156131f6573d6000803e3d6000fd5b5050505061320383611318565b6132176001600160a01b0384168584612e5e565b5092915050565b60405163b4ed0b6d60e01b81526103e960048201526000907f00000000000000000000000000000000000000000000000000000000000000006001600160a01b03169063b4ed0b6d9060240160206040518083038186803b15801561297057600080fd5b6000805b80613291600b612c0b565b11156132cf5760006132a4600b83612c15565b90506132af816118c0565b6132b9908461413e565b92505080806132c7906141cc565b915050613286565b5090565b606860009081526020527faa071f48f62aaaa1f6320aaa7bd2ad2d552d05160892c14d699d38c9920d5f99546001600160a01b031690565b6000613315611480565b6001600160a01b0316826001600160a01b03161461336c5760405162461bcd60e51b815260206004820152601460248201527357726f6e67207969656c642063757272656e637960601b6044820152606401610c37565b6001840154835411156133e5576000836000018560010154815481106133a257634e487b7160e01b600052603260045260246000fd5b906000526020600020015484600101546133bc9190614189565b9050600160401b8186600001546133d3919061416a565b6133dd9190614156565b915050611479565b506000611479565b50565b6133fb60098461384b565b50613407600b8461384b565b506134106132d3565b6040516311848c4560e01b81523060048201526001600160a01b0391909116906311848c4590602401600060405180830381600087803b15801561345357600080fd5b505af1158015613467573d6000803e3d6000fd5b50505050505050565b600082600001828154811061349557634e487b7160e01b600052603260045260246000fd5b9060005260206000200154905092915050565b600081815260018301602052604081205480156135bb5760006134cc600183614189565b85549091506000906134e090600190614189565b905081811461356157600086600001828154811061350e57634e487b7160e01b600052603260045260246000fd5b906000526020600020015490508087600001848154811061353f57634e487b7160e01b600052603260045260246000fd5b6000918252602080832090910192909255918252600188019052604090208390555b855486908061358057634e487b7160e01b600052603160045260246000fd5b600190038181906000526020600020016000905590558560010160008681526020019081526020016000206000905560019350505050611312565b6000915050611312565b60006135dc6001600160a01b038416853085613860565b60405163095ea7b360e01b81526001600160a01b0384169063095ea7b39061362a907f0000000000000000000000000000000000000000000000000000000000000000908690600401613fab565b602060405180830381600087803b15801561364457600080fd5b505af1158015613658573d6000803e3d6000fd5b505050506040513d601f19601f8201168201806040525081019061367c9190613c85565b506001600160a01b0383811660009081526017602052604090819020549051631c57762b60e31b81526004810191909152602481018490527f00000000000000000000000000000000000000000000000000000000000000009091169063e2bbb15890604401600060405180830381600087803b1580156136fc57600080fd5b505af1158015613710573d6000803e3d6000fd5b5050505061321783611318565b6000613772826040518060400160405280602081526020017f5361666545524332303a206c6f772d6c6576656c2063616c6c206661696c6564815250856001600160a01b03166138989092919063ffffffff16565b805190915015610d2c57808060200190518101906137909190613c85565b610d2c5760405162461bcd60e51b815260206004820152602a60248201527f5361666545524332303a204552433230206f7065726174696f6e20646964206e6044820152691bdd081cdd58d8d9595960b21b6064820152608401610c37565b60608160000180548060200260200160405190810160405280929190818152602001828054801561383f57602002820191906000526020600020905b81548152602001906001019080831161382b575b50505050509050919050565b6000611479836001600160a01b0384166138a7565b6040516001600160a01b038085166024830152831660448201526064810182905261113d9085906323b872dd60e01b90608401612e7d565b6060611f6984846000856138f6565b60008181526001830160205260408120546138ee57508154600181810184556000848152602080822090930184905584548482528286019093526040902091909155611312565b506000611312565b6060824710156139575760405162461bcd60e51b815260206004820152602660248201527f416464726573733a20696e73756666696369656e742062616c616e636520666f6044820152651c8818d85b1b60d21b6064820152608401610c37565b843b6139a55760405162461bcd60e51b815260206004820152601d60248201527f416464726573733a2063616c6c20746f206e6f6e2d636f6e74726163740000006044820152606401610c37565b600080866001600160a01b031685876040516139c19190613f8f565b60006040518083038185875af1925050503d80600081146139fe576040519150601f19603f3d011682016040523d82523d6000602084013e613a03565b606091505b5091509150613a13828286613a1e565b979650505050505050565b60608315613a2d575081611479565b825115613a3d5782518084602001fd5b8160405162461bcd60e51b8152600401610c3791906140b5565b60405180610160016040528060006001600160a01b0316815260200160006001600160a01b031681526020016000815260200160008152602001600081526020016000815260200160008019168152602001600081526020016000815260200160006002811115613ad857634e487b7160e01b600052602160045260246000fd5b8152602001600081525090565b600060208284031215613af6578081fd5b813561147981614227565b600060208284031215613b12578081fd5b815161147981614227565b60008060408385031215613b2f578081fd5b8235613b3a81614227565b91506020830135613b4a81614227565b809150509250929050565b600080600060408486031215613b69578081fd5b8335613b7481614227565b9250602084013567ffffffffffffffff80821115613b90578283fd5b818601915086601f830112613ba3578283fd5b813581811115613bb1578384fd5b876020828501011115613bc2578384fd5b6020830194508093505050509250925092565b60008060408385031215613be7578182fd5b8235613bf281614227565b946020939093013593505050565b600080600080600060a08688031215613c17578081fd5b8535613c2281614227565b9450602086013593506040860135613c3981614227565b94979396509394606081013594506080013592915050565b600080600060608486031215613c65578283fd5b8335613c7081614227565b95602085013595506040909401359392505050565b600060208284031215613c96578081fd5b81518015158114611479578182fd5b600060808284031215613cb6578081fd5b6040516080810181811067ffffffffffffffff82111715613ce557634e487b7160e01b83526041600452602483fd5b6040528251613cf381614227565b808252506020830151602082015260408301516040820152606083015160608201528091505092915050565b600060208284031215613d30578081fd5b5035919050565b600060208284031215613d48578081fd5b5051919050565b60008060408385031215613d61578182fd5b823591506020830135613b4a81614227565b600080600060608486031215613d87578283fd5b833592506020840135613d9981614227565b91506040840135613da981614227565b809150509250925092565b60008060008060808587031215613dc9578081fd5b843593506020850135613ddb81614227565b92506040850135613deb81614227565b91506060850135613dfb81614227565b939692955090935050565b600080600080600060a08688031215613e1d578283fd5b853594506020860135613e2f81614227565b93506040860135613c3981614227565b60008060408385031215613e51578182fd5b50508035926020909101359150565b60008060408385031215613e72578182fd5b505080516020909101519092909150565b600080600060608486031215613e97578081fd5b83359250602084013591506040840135613da981614227565b60008151808452613ec88160208601602086016141a0565b601f01601f19169290920160200192915050565b60038110613efa57634e487b7160e01b600052602160045260246000fd5b9052565b80516001600160a01b031682526020810151613f2560208401826001600160a01b03169052565b5060408101516040830152606081015160608301526080810151608083015260a081015160a083015260c081015160c083015260e081015160e083015261010080820151818401525061012080820151613f8182850182613edc565b505061014090810151910152565b60008251613fa18184602087016141a0565b9190910192915050565b6001600160a01b03929092168252602082015260400190565b6020808252825182820181905260009190848201906040850190845b818110156140055783516001600160a01b031683529284019291840191600101613fe0565b50909695505050505050565b6020808252825182820181905260009190848201906040850190845b8181101561400557614040838551613efe565b92840192610160929092019160010161402d565b6020808252825182820181905260009190848201906040850190845b8181101561400557835183529284019291840191600101614070565b6000831515825260406020830152611f696040830184613eb0565b602081016113128284613edc565b6000602082526114796020830184613eb0565b6020808252601690820152755374726174656779206973206e6f742061637469766560501b604082015260600190565b6020808252601e908201527f526f6c65733a2063616c6c6572206973206e6f7420746865206f776e65720000604082015260600190565b61016081016113128284613efe565b60008219821115614151576141516141fb565b500190565b60008261416557614165614211565b500490565b6000816000190483118215151615614184576141846141fb565b500290565b60008282101561419b5761419b6141fb565b500390565b60005b838110156141bb5781810151838201526020016141a3565b8381111561113d5750506000910152565b60006000198214156141e0576141e06141fb565b5060010190565b6000826141f6576141f6614211565b500690565b634e487b7160e01b600052601160045260246000fd5b634e487b7160e01b600052601260045260246000fd5b6001600160a01b03811681146133ed57600080fdfea26469706673582212203574bfdc5528164d79910be66f4e01b294233408f5b729b09ed6f612ea1edc9364736f6c63430008030033405787fa12a823e0f2b7631cc41b3ba8828b3321ca811111fa75cd3aa3bb5ace",
  "devdoc": {
    "kind": "dev",
    "methods": {},
    "version": 1
  },
  "userdoc": {
    "kind": "user",
    "methods": {},
    "version": 1
  },
  "storageLayout": {
    "storage": [
      {
        "astId": 14106,
        "contract": "contracts/strategies/TraderJoeMasterChefStrategy.sol:TraderJoeMasterChefStrategy",
        "label": "mainCharacterCache",
        "offset": 0,
        "slot": "0",
        "type": "t_mapping(t_uint256,t_address)"
      },
      {
        "astId": 14112,
        "contract": "contracts/strategies/TraderJoeMasterChefStrategy.sol:TraderJoeMasterChefStrategy",
        "label": "roleCache",
        "offset": 0,
        "slot": "1",
        "type": "t_mapping(t_address,t_mapping(t_uint256,t_bool))"
      },
      {
        "astId": 14115,
        "contract": "contracts/strategies/TraderJoeMasterChefStrategy.sol:TraderJoeMasterChefStrategy",
        "label": "_dependsOnCharacters",
        "offset": 0,
        "slot": "2",
        "type": "t_array(t_uint256)dyn_storage"
      },
      {
        "astId": 14118,
        "contract": "contracts/strategies/TraderJoeMasterChefStrategy.sol:TraderJoeMasterChefStrategy",
        "label": "_dependsOnRoles",
        "offset": 0,
        "slot": "3",
        "type": "t_array(t_uint256)dyn_storage"
      },
      {
        "astId": 14121,
        "contract": "contracts/strategies/TraderJoeMasterChefStrategy.sol:TraderJoeMasterChefStrategy",
        "label": "_charactersPlayed",
        "offset": 0,
        "slot": "4",
        "type": "t_array(t_uint256)dyn_storage"
      },
      {
        "astId": 14124,
        "contract": "contracts/strategies/TraderJoeMasterChefStrategy.sol:TraderJoeMasterChefStrategy",
        "label": "_rolesPlayed",
        "offset": 0,
        "slot": "5",
        "type": "t_array(t_uint256)dyn_storage"
      },
      {
        "astId": 12200,
        "contract": "contracts/strategies/TraderJoeMasterChefStrategy.sol:TraderJoeMasterChefStrategy",
        "label": "_oracleCache",
        "offset": 0,
        "slot": "6",
        "type": "t_mapping(t_address,t_mapping(t_address,t_address))"
      },
      {
        "astId": 9719,
        "contract": "contracts/strategies/TraderJoeMasterChefStrategy.sol:TraderJoeMasterChefStrategy",
        "label": "_slotTranches",
        "offset": 0,
        "slot": "7",
        "type": "t_mapping(t_uint256,t_address)"
      },
      {
        "astId": 6717,
        "contract": "contracts/strategies/TraderJoeMasterChefStrategy.sol:TraderJoeMasterChefStrategy",
        "label": "isActive",
        "offset": 0,
        "slot": "8",
        "type": "t_bool"
      },
      {
        "astId": 6723,
        "contract": "contracts/strategies/TraderJoeMasterChefStrategy.sol:TraderJoeMasterChefStrategy",
        "label": "_approvedTokens",
        "offset": 0,
        "slot": "9",
        "type": "t_struct(AddressSet)3278_storage"
      },
      {
        "astId": 6726,
        "contract": "contracts/strategies/TraderJoeMasterChefStrategy.sol:TraderJoeMasterChefStrategy",
        "label": "_allTokensEver",
        "offset": 0,
        "slot": "11",
        "type": "t_struct(AddressSet)3278_storage"
      },
      {
        "astId": 6738,
        "contract": "contracts/strategies/TraderJoeMasterChefStrategy.sol:TraderJoeMasterChefStrategy",
        "label": "_accounts",
        "offset": 0,
        "slot": "13",
        "type": "t_mapping(t_uint256,t_struct(CollateralAccount)6733_storage)"
      },
      {
        "astId": 6755,
        "contract": "contracts/strategies/TraderJoeMasterChefStrategy.sol:TraderJoeMasterChefStrategy",
        "label": "apfSmoothingPer10k",
        "offset": 0,
        "slot": "14",
        "type": "t_uint256"
      },
      {
        "astId": 6760,
        "contract": "contracts/strategies/TraderJoeMasterChefStrategy.sol:TraderJoeMasterChefStrategy",
        "label": "tokenMetadata",
        "offset": 0,
        "slot": "15",
        "type": "t_mapping(t_address,t_struct(TokenMetadata)6752_storage)"
      },
      {
        "astId": 15762,
        "contract": "contracts/strategies/TraderJoeMasterChefStrategy.sol:TraderJoeMasterChefStrategy",
        "label": "totalRewardPerAsset",
        "offset": 0,
        "slot": "16",
        "type": "t_mapping(t_address,t_uint256)"
      },
      {
        "astId": 15766,
        "contract": "contracts/strategies/TraderJoeMasterChefStrategy.sol:TraderJoeMasterChefStrategy",
        "label": "totalStableTallied",
        "offset": 0,
        "slot": "17",
        "type": "t_mapping(t_address,t_uint256)"
      },
      {
        "astId": 15768,
        "contract": "contracts/strategies/TraderJoeMasterChefStrategy.sol:TraderJoeMasterChefStrategy",
        "label": "totalConvertedStable",
        "offset": 0,
        "slot": "18",
        "type": "t_uint256"
      },
      {
        "astId": 15770,
        "contract": "contracts/strategies/TraderJoeMasterChefStrategy.sol:TraderJoeMasterChefStrategy",
        "label": "totalRewardCumulative",
        "offset": 0,
        "slot": "19",
        "type": "t_uint256"
      },
      {
        "astId": 15772,
        "contract": "contracts/strategies/TraderJoeMasterChefStrategy.sol:TraderJoeMasterChefStrategy",
        "label": "currentTalliedRewardReserve",
        "offset": 0,
        "slot": "20",
        "type": "t_uint256"
      },
      {
        "astId": 15775,
        "contract": "contracts/strategies/TraderJoeMasterChefStrategy.sol:TraderJoeMasterChefStrategy",
        "label": "minimumBidPer10k",
        "offset": 0,
        "slot": "21",
        "type": "t_uint256"
      },
      {
        "astId": 15778,
        "contract": "contracts/strategies/TraderJoeMasterChefStrategy.sol:TraderJoeMasterChefStrategy",
        "label": "feePer10k",
        "offset": 0,
        "slot": "22",
        "type": "t_uint256"
      },
      {
        "astId": 14970,
        "contract": "contracts/strategies/TraderJoeMasterChefStrategy.sol:TraderJoeMasterChefStrategy",
        "label": "pids",
        "offset": 0,
        "slot": "23",
        "type": "t_mapping(t_address,t_uint256)"
      }
    ],
    "types": {
      "t_address": {
        "encoding": "inplace",
        "label": "address",
        "numberOfBytes": "20"
      },
      "t_array(t_bytes32)dyn_storage": {
        "base": "t_bytes32",
        "encoding": "dynamic_array",
        "label": "bytes32[]",
        "numberOfBytes": "32"
      },
      "t_array(t_uint256)dyn_storage": {
        "base": "t_uint256",
        "encoding": "dynamic_array",
        "label": "uint256[]",
        "numberOfBytes": "32"
      },
      "t_bool": {
        "encoding": "inplace",
        "label": "bool",
        "numberOfBytes": "1"
      },
      "t_bytes32": {
        "encoding": "inplace",
        "label": "bytes32",
        "numberOfBytes": "32"
      },
      "t_mapping(t_address,t_address)": {
        "encoding": "mapping",
        "key": "t_address",
        "label": "mapping(address => address)",
        "numberOfBytes": "32",
        "value": "t_address"
      },
      "t_mapping(t_address,t_mapping(t_address,t_address))": {
        "encoding": "mapping",
        "key": "t_address",
        "label": "mapping(address => mapping(address => address))",
        "numberOfBytes": "32",
        "value": "t_mapping(t_address,t_address)"
      },
      "t_mapping(t_address,t_mapping(t_uint256,t_bool))": {
        "encoding": "mapping",
        "key": "t_address",
        "label": "mapping(address => mapping(uint256 => bool))",
        "numberOfBytes": "32",
        "value": "t_mapping(t_uint256,t_bool)"
      },
      "t_mapping(t_address,t_struct(TokenMetadata)6752_storage)": {
        "encoding": "mapping",
        "key": "t_address",
        "label": "mapping(address => struct Strategy.TokenMetadata)",
        "numberOfBytes": "32",
        "value": "t_struct(TokenMetadata)6752_storage"
      },
      "t_mapping(t_address,t_uint256)": {
        "encoding": "mapping",
        "key": "t_address",
        "label": "mapping(address => uint256)",
        "numberOfBytes": "32",
        "value": "t_uint256"
      },
      "t_mapping(t_bytes32,t_uint256)": {
        "encoding": "mapping",
        "key": "t_bytes32",
        "label": "mapping(bytes32 => uint256)",
        "numberOfBytes": "32",
        "value": "t_uint256"
      },
      "t_mapping(t_uint256,t_address)": {
        "encoding": "mapping",
        "key": "t_uint256",
        "label": "mapping(uint256 => address)",
        "numberOfBytes": "32",
        "value": "t_address"
      },
      "t_mapping(t_uint256,t_bool)": {
        "encoding": "mapping",
        "key": "t_uint256",
        "label": "mapping(uint256 => bool)",
        "numberOfBytes": "32",
        "value": "t_bool"
      },
      "t_mapping(t_uint256,t_struct(CollateralAccount)6733_storage)": {
        "encoding": "mapping",
        "key": "t_uint256",
        "label": "mapping(uint256 => struct Strategy.CollateralAccount)",
        "numberOfBytes": "32",
        "value": "t_struct(CollateralAccount)6733_storage"
      },
      "t_struct(AddressSet)3278_storage": {
        "encoding": "inplace",
        "label": "struct EnumerableSet.AddressSet",
        "members": [
          {
            "astId": 3277,
            "contract": "contracts/strategies/TraderJoeMasterChefStrategy.sol:TraderJoeMasterChefStrategy",
            "label": "_inner",
            "offset": 0,
            "slot": "0",
            "type": "t_struct(Set)2977_storage"
          }
        ],
        "numberOfBytes": "64"
      },
      "t_struct(CollateralAccount)6733_storage": {
        "encoding": "inplace",
        "label": "struct Strategy.CollateralAccount",
        "members": [
          {
            "astId": 6728,
            "contract": "contracts/strategies/TraderJoeMasterChefStrategy.sol:TraderJoeMasterChefStrategy",
            "label": "collateral",
            "offset": 0,
            "slot": "0",
            "type": "t_uint256"
          },
          {
            "astId": 6730,
            "contract": "contracts/strategies/TraderJoeMasterChefStrategy.sol:TraderJoeMasterChefStrategy",
            "label": "yieldCheckptIdx",
            "offset": 0,
            "slot": "1",
            "type": "t_uint256"
          },
          {
            "astId": 6732,
            "contract": "contracts/strategies/TraderJoeMasterChefStrategy.sol:TraderJoeMasterChefStrategy",
            "label": "trancheToken",
            "offset": 0,
            "slot": "2",
            "type": "t_address"
          }
        ],
        "numberOfBytes": "96"
      },
      "t_struct(Set)2977_storage": {
        "encoding": "inplace",
        "label": "struct EnumerableSet.Set",
        "members": [
          {
            "astId": 2972,
            "contract": "contracts/strategies/TraderJoeMasterChefStrategy.sol:TraderJoeMasterChefStrategy",
            "label": "_values",
            "offset": 0,
            "slot": "0",
            "type": "t_array(t_bytes32)dyn_storage"
          },
          {
            "astId": 2976,
            "contract": "contracts/strategies/TraderJoeMasterChefStrategy.sol:TraderJoeMasterChefStrategy",
            "label": "_indexes",
            "offset": 0,
            "slot": "1",
            "type": "t_mapping(t_bytes32,t_uint256)"
          }
        ],
        "numberOfBytes": "64"
      },
      "t_struct(TokenMetadata)6752_storage": {
        "encoding": "inplace",
        "label": "struct Strategy.TokenMetadata",
        "members": [
          {
            "astId": 6741,
            "contract": "contracts/strategies/TraderJoeMasterChefStrategy.sol:TraderJoeMasterChefStrategy",
            "label": "yieldCheckpoints",
            "offset": 0,
            "slot": "0",
            "type": "t_array(t_uint256)dyn_storage"
          },
          {
            "astId": 6743,
            "contract": "contracts/strategies/TraderJoeMasterChefStrategy.sol:TraderJoeMasterChefStrategy",
            "label": "cumulYieldPerCollateralFP",
            "offset": 0,
            "slot": "1",
            "type": "t_uint256"
          },
          {
            "astId": 6745,
            "contract": "contracts/strategies/TraderJoeMasterChefStrategy.sol:TraderJoeMasterChefStrategy",
            "label": "totalCollateralPast",
            "offset": 0,
            "slot": "2",
            "type": "t_uint256"
          },
          {
            "astId": 6747,
            "contract": "contracts/strategies/TraderJoeMasterChefStrategy.sol:TraderJoeMasterChefStrategy",
            "label": "totalCollateralNow",
            "offset": 0,
            "slot": "3",
            "type": "t_uint256"
          },
          {
            "astId": 6749,
            "contract": "contracts/strategies/TraderJoeMasterChefStrategy.sol:TraderJoeMasterChefStrategy",
            "label": "apfLastUpdated",
            "offset": 0,
            "slot": "4",
            "type": "t_uint256"
          },
          {
            "astId": 6751,
            "contract": "contracts/strategies/TraderJoeMasterChefStrategy.sol:TraderJoeMasterChefStrategy",
            "label": "apf",
            "offset": 0,
            "slot": "5",
            "type": "t_uint256"
          }
        ],
        "numberOfBytes": "192"
      },
      "t_uint256": {
        "encoding": "inplace",
        "label": "uint256",
        "numberOfBytes": "32"
      }
    }
  }
}