{
  "address": "0x4839A360D370117ef3558D56f2c76f479a47457c",
  "abi": [
    {
      "inputs": [
        {
          "internalType": "address",
          "name": "_roles",
          "type": "address"
        }
      ],
      "stateMutability": "nonpayable",
      "type": "constructor"
    },
    {
      "inputs": [
        {
          "internalType": "uint256",
          "name": "",
          "type": "uint256"
        }
      ],
      "name": "_charactersPlayed",
      "outputs": [
        {
          "internalType": "uint256",
          "name": "",
          "type": "uint256"
        }
      ],
      "stateMutability": "view",
      "type": "function"
    },
    {
      "inputs": [
        {
          "internalType": "uint256",
          "name": "",
          "type": "uint256"
        }
      ],
      "name": "_dependsOnCharacters",
      "outputs": [
        {
          "internalType": "uint256",
          "name": "",
          "type": "uint256"
        }
      ],
      "stateMutability": "view",
      "type": "function"
    },
    {
      "inputs": [
        {
          "internalType": "uint256",
          "name": "",
          "type": "uint256"
        }
      ],
      "name": "_dependsOnRoles",
      "outputs": [
        {
          "internalType": "uint256",
          "name": "",
          "type": "uint256"
        }
      ],
      "stateMutability": "view",
      "type": "function"
    },
    {
      "inputs": [
        {
          "internalType": "address",
          "name": "",
          "type": "address"
        },
        {
          "internalType": "address",
          "name": "",
          "type": "address"
        }
      ],
      "name": "_oracleCache",
      "outputs": [
        {
          "internalType": "address",
          "name": "",
          "type": "address"
        }
      ],
      "stateMutability": "view",
      "type": "function"
    },
    {
      "inputs": [
        {
          "internalType": "uint256",
          "name": "",
          "type": "uint256"
        }
      ],
      "name": "_rolesPlayed",
      "outputs": [
        {
          "internalType": "uint256",
          "name": "",
          "type": "uint256"
        }
      ],
      "stateMutability": "view",
      "type": "function"
    },
    {
      "inputs": [
        {
          "internalType": "address",
          "name": "",
          "type": "address"
        }
      ],
      "name": "borrowablePer10ks",
      "outputs": [
        {
          "internalType": "uint256",
          "name": "",
          "type": "uint256"
        }
      ],
      "stateMutability": "view",
      "type": "function"
    },
    {
      "inputs": [],
      "name": "charactersPlayed",
      "outputs": [
        {
          "internalType": "uint256[]",
          "name": "",
          "type": "uint256[]"
        }
      ],
      "stateMutability": "view",
      "type": "function"
    },
    {
      "inputs": [],
      "name": "dependsOnCharacters",
      "outputs": [
        {
          "internalType": "uint256[]",
          "name": "",
          "type": "uint256[]"
        }
      ],
      "stateMutability": "view",
      "type": "function"
    },
    {
      "inputs": [],
      "name": "dependsOnRoles",
      "outputs": [
        {
          "internalType": "uint256[]",
          "name": "",
          "type": "uint256[]"
        }
      ],
      "stateMutability": "view",
      "type": "function"
    },
    {
      "inputs": [
        {
          "internalType": "address",
          "name": "token",
          "type": "address"
        },
        {
          "internalType": "address",
          "name": "",
          "type": "address"
        },
        {
          "internalType": "address",
          "name": "singleSideToken",
          "type": "address"
        }
      ],
      "name": "encodeAndCheckOracleParams",
      "outputs": [
        {
          "internalType": "bool",
          "name": "",
          "type": "bool"
        },
        {
          "internalType": "bytes",
          "name": "",
          "type": "bytes"
        }
      ],
      "stateMutability": "view",
      "type": "function"
    },
    {
      "inputs": [
        {
          "internalType": "address",
          "name": "token",
          "type": "address"
        },
        {
          "internalType": "uint256",
          "name": "inAmount",
          "type": "uint256"
        },
        {
          "internalType": "address",
          "name": "pegCurrency",
          "type": "address"
        }
      ],
      "name": "getAmountInPeg",
      "outputs": [
        {
          "internalType": "uint256",
          "name": "",
          "type": "uint256"
        }
      ],
      "stateMutability": "nonpayable",
      "type": "function"
    },
    {
      "inputs": [
        {
          "internalType": "address",
          "name": "token",
          "type": "address"
        },
        {
          "internalType": "uint256",
          "name": "inAmount",
          "type": "uint256"
        },
        {
          "internalType": "address",
          "name": "pegCurrency",
          "type": "address"
        }
      ],
      "name": "getPegAmountAndBorrowable",
      "outputs": [
        {
          "internalType": "uint256",
          "name": "",
          "type": "uint256"
        },
        {
          "internalType": "uint256",
          "name": "",
          "type": "uint256"
        }
      ],
      "stateMutability": "nonpayable",
      "type": "function"
    },
    {
      "inputs": [
        {
          "internalType": "uint256",
          "name": "",
          "type": "uint256"
        }
      ],
      "name": "mainCharacterCache",
      "outputs": [
        {
          "internalType": "address",
          "name": "",
          "type": "address"
        }
      ],
      "stateMutability": "view",
      "type": "function"
    },
    {
      "inputs": [
        {
          "internalType": "address",
          "name": "token",
          "type": "address"
        },
        {
          "internalType": "address",
          "name": "pegCurrency",
          "type": "address"
        }
      ],
      "name": "newCurrentOracle",
      "outputs": [],
      "stateMutability": "nonpayable",
      "type": "function"
    },
    {
      "inputs": [
        {
          "internalType": "address",
          "name": "",
          "type": "address"
        },
        {
          "internalType": "uint256",
          "name": "",
          "type": "uint256"
        }
      ],
      "name": "roleCache",
      "outputs": [
        {
          "internalType": "bool",
          "name": "",
          "type": "bool"
        }
      ],
      "stateMutability": "view",
      "type": "function"
    },
    {
      "inputs": [],
      "name": "roles",
      "outputs": [
        {
          "internalType": "contract Roles",
          "name": "",
          "type": "address"
        }
      ],
      "stateMutability": "view",
      "type": "function"
    },
    {
      "inputs": [],
      "name": "rolesPlayed",
      "outputs": [
        {
          "internalType": "uint256[]",
          "name": "",
          "type": "uint256[]"
        }
      ],
      "stateMutability": "view",
      "type": "function"
    },
    {
      "inputs": [
        {
          "internalType": "address",
          "name": "lpt",
          "type": "address"
        },
        {
          "internalType": "uint256",
          "name": "borrowablePer10k",
          "type": "uint256"
        }
      ],
      "name": "setBorrowable",
      "outputs": [],
      "stateMutability": "nonpayable",
      "type": "function"
    },
    {
      "inputs": [
        {
          "internalType": "address",
          "name": "token",
          "type": "address"
        },
        {
          "internalType": "address",
          "name": "pegCurrency",
          "type": "address"
        },
        {
          "internalType": "uint256",
          "name": "borrowablePer10k",
          "type": "uint256"
        },
        {
          "internalType": "bytes",
          "name": "data",
          "type": "bytes"
        }
      ],
      "name": "setOracleParams",
      "outputs": [],
      "stateMutability": "nonpayable",
      "type": "function"
    },
    {
      "inputs": [
        {
          "internalType": "address",
          "name": "token",
          "type": "address"
        },
        {
          "internalType": "address",
          "name": "pegCurrency",
          "type": "address"
        },
        {
          "internalType": "address",
          "name": "singleSideToken",
          "type": "address"
        }
      ],
      "name": "setOracleSpecificParams",
      "outputs": [],
      "stateMutability": "nonpayable",
      "type": "function"
    },
    {
      "inputs": [
        {
          "internalType": "address",
          "name": "",
          "type": "address"
        }
      ],
      "name": "singleSideValuation",
      "outputs": [
        {
          "internalType": "address",
          "name": "",
          "type": "address"
        }
      ],
      "stateMutability": "view",
      "type": "function"
    },
    {
      "inputs": [
        {
          "internalType": "uint256",
          "name": "role",
          "type": "uint256"
        }
      ],
      "name": "updateMainCharacterCache",
      "outputs": [],
      "stateMutability": "nonpayable",
      "type": "function"
    },
    {
      "inputs": [
        {
          "internalType": "uint256",
          "name": "role",
          "type": "uint256"
        },
        {
          "internalType": "address",
          "name": "contr",
          "type": "address"
        }
      ],
      "name": "updateRoleCache",
      "outputs": [],
      "stateMutability": "nonpayable",
      "type": "function"
    },
    {
      "inputs": [
        {
          "internalType": "address",
          "name": "token",
          "type": "address"
        },
        {
          "internalType": "uint256",
          "name": "inAmount",
          "type": "uint256"
        },
        {
          "internalType": "address",
          "name": "pegCurrency",
          "type": "address"
        }
      ],
      "name": "viewAmountInPeg",
      "outputs": [
        {
          "internalType": "uint256",
          "name": "",
          "type": "uint256"
        }
      ],
      "stateMutability": "view",
      "type": "function"
    },
    {
      "inputs": [
        {
          "internalType": "address",
          "name": "token",
          "type": "address"
        },
        {
          "internalType": "uint256",
          "name": "inAmount",
          "type": "uint256"
        },
        {
          "internalType": "address",
          "name": "pegCurrency",
          "type": "address"
        }
      ],
      "name": "viewPegAmountAndBorrowable",
      "outputs": [
        {
          "internalType": "uint256",
          "name": "",
          "type": "uint256"
        },
        {
          "internalType": "uint256",
          "name": "",
          "type": "uint256"
        }
      ],
      "stateMutability": "view",
      "type": "function"
    }
  ],
  "transactionHash": "0xe1384e45a9992fee49cf9a99b419b1848c9626b3337598efe44eba92ca1673fd",
  "args": [
    "0x218861760D5560bF7dd41488642cf857C4F27388"
  ],
  "solcInputHash": "db0fa14b887431f79499ee725feab18f",
  "bytecode": "0x60a060405234801561001057600080fd5b50604051611b02380380611b0283398101604081905261002f91610120565b806001600160a01b0381166100955760405162461bcd60e51b815260206004820152602260248201527f506c656173652070726f766964652076616c696420726f6c6573206164647265604482015261737360f01b606482015260840160405180910390fd5b60601b6001600160601b031916608052506002805460018082018355606a7f405787fa12a823e0f2b7631cc41b3ba8828b3321ca811111fa75cd3aa3bb5ace928301556005805480830190915560047f036b6384b5eca791c62761152d0c79bb0604c104a5fb6f4eb0703f3154bb3db09091015582549081018355600092909252606c91015561014e565b600060208284031215610131578081fd5b81516001600160a01b0381168114610147578182fd5b9392505050565b60805160601c61197a61018860003960008181610224015281816104330152818161067001528181610df40152610e8c015261197a6000f3fe608060405234801561001057600080fd5b50600436106101735760003560e01c80637dad209b116100de578063abcbc4fc11610097578063cb9aa42511610071578063cb9aa425146103d1578063dc94cb7d146103e4578063e8ea4fae146103ec578063e9c3f77d146103f457610173565b8063abcbc4fc14610398578063aeb38d8b146103ab578063bf184ea4146103be57610173565b80637dad209b1461030d578063885fa05614610315578063891ea1aa146103285780638b0b2b921461033b5780638eaab58c14610364578063a4870df21461037757610173565b8063447d52ba11610130578063447d52ba146102595780634a7a7f411461026c5780634fcd54a414610281578063576cbc30146102a95780636caa9c11146102bc5780637a1a04df146102cf57610173565b8063071060a61461017857806315c2ba501461018d5780632642b606146101c057806328f3fc731461020c578063392f5f641461021f5780633cf685d614610246575b600080fd5b61018b610186366004611741565b61041d565b005b6101ad61019b36600461147c565b60066020526000908152604090205481565b6040519081526020015b60405180910390f35b6101f46101ce3660046114bb565b60076020908152600092835260408084209091529082529020546001600160a01b031681565b6040516001600160a01b0390911681526020016101b7565b61018b61021a3660046114bb565b6104e3565b6101f47f000000000000000000000000000000000000000000000000000000000000000081565b61018b610254366004611634565b6105dc565b61018b610267366004611771565b61064a565b610274610722565b6040516101b79190611795565b61029461028f36600461165f565b61077a565b604080519283526020830191909152016101b7565b6101ad6102b736600461165f565b6107ac565b6101ad6102ca366004611741565b610938565b6102fd6102dd366004611634565b600160209081526000928352604080842090915290825290205460ff1681565b60405190151581526020016101b7565b610274610959565b61029461032336600461165f565b6109af565b61018b61033636600461153d565b6109bd565b6101f461034936600461147c565b6008602052600090815260409020546001600160a01b031681565b6101ad61037236600461165f565b610a4a565b61038a6103853660046114f3565b610b8a565b6040516101b79291906117d9565b6101ad6103a6366004611741565b610c83565b6101ad6103b9366004611741565b610c93565b6101ad6103cc366004611741565b610ca3565b61018b6103df3660046114f3565b610cb3565b610274610d0c565b610274610d62565b6101f4610402366004611741565b6000602081905290815260409020546001600160a01b031681565b60405163b4ed0b6d60e01b8152600481018290527f00000000000000000000000000000000000000000000000000000000000000006001600160a01b03169063b4ed0b6d9060240160206040518083038186803b15801561047d57600080fd5b505afa158015610491573d6000803e3d6000fd5b505050506040513d601f19601f820116820180604052508101906104b5919061149f565b60009182526020829052604090912080546001600160a01b0319166001600160a01b03909216919091179055565b6001600160a01b038281166000908152600760209081526040808320858516845290915290205416156105d857610518610db8565b60405163179ce80d60e21b81526001600160a01b03848116600483015283811660248301529190911690635e73a0349060440160206040518083038186803b15801561056357600080fd5b505afa158015610577573d6000803e3d6000fd5b505050506040513d601f19601f8201168201806040525081019061059b919061149f565b6001600160a01b0383811660009081526007602090815260408083208685168452909152902080546001600160a01b031916929091169190911790555b5050565b336105e5610df0565b6001600160a01b031614806106095750336105fe610e88565b6001600160a01b0316145b61062e5760405162461bcd60e51b815260040161062590611836565b60405180910390fd5b6001600160a01b03909116600090815260066020526040902055565b60405163f0723d9760e01b81526001600160a01b038281166004830152602482018490527f0000000000000000000000000000000000000000000000000000000000000000169063f0723d979060440160206040518083038186803b1580156106b257600080fd5b505afa1580156106c6573d6000803e3d6000fd5b505050506040513d601f19601f820116820180604052508101906106ea9190611695565b6001600160a01b0391909116600090815260016020908152604080832094835293905291909120805460ff1916911515919091179055565b6060600380548060200260200160405190810160405280929190818152602001828054801561077057602002820191906000526020600020905b81548152602001906001019080831161075c575b5050505050905090565b600080610788858585610a4a565b6001600160a01b039590951660009081526006602052604090205494959350505050565b6000806000806000806107bd610ef9565b60405163727a86f160e11b81526001600160a01b038b81166004830152919091169063e4f50de29060240160c060405180830381600087803b15801561080257600080fd5b505af1158015610816573d6000803e3d6000fd5b505050506040513d601f19601f8201168201806040525081019061083a91906115d7565b95505094509450945094506000600860008b6001600160a01b03166001600160a01b0316815260200190815260200160002060009054906101000a90046001600160a01b031690506000866001600160a01b0316826001600160a01b031614156108c05760006108ab88878c610f31565b90506108b88160026118f7565b915050610914565b856001600160a01b0316826001600160a01b031614156108e75760006108ab87868c610f31565b60006108f488878c610f31565b9050600061090388878d610f31565b905061090f81836118bf565b925050505b8261091f828c6118f7565b61092991906118d7565b9b9a5050505050505050505050565b6005818154811061094857600080fd5b600091825260209091200154905081565b60606004805480602002602001604051908101604052809291908181526020018280548015610770576020028201919060005260206000209081548152602001906001019080831161075c575050505050905090565b6000806107888585856107ac565b336109c6610db8565b6001600160a01b031614610a1c5760405162461bcd60e51b815260206004820152601d60248201527f4e6f7420617574686f72697a656420746f20696e6974206f7261636c650000006044820152606401610625565b6001600160a01b0385166000908152600660205260409020839055610a4385858484610ffc565b5050505050565b600080600080600080610a5b610ef9565b60405163423437fb60e11b81526001600160a01b038b8116600483015291909116906384686ff69060240160c06040518083038186803b158015610a9e57600080fd5b505afa158015610ab2573d6000803e3d6000fd5b505050506040513d601f19601f82011682018060405250810190610ad691906115d7565b95505094509450945094506000600860008b6001600160a01b03166001600160a01b0316815260200190815260200160002060009054906101000a90046001600160a01b031690506000866001600160a01b0316826001600160a01b03161415610b475760006108ab88878c611017565b856001600160a01b0316826001600160a01b03161415610b6e5760006108ab87868c611017565b6000610b7b88878c611017565b9050600061090388878d611017565b600060606000610b98610ef9565b604051620b57c760e21b81526001600160a01b0388811660048301529190911690622d5f1c906024016101206040518083038186803b158015610bda57600080fd5b505afa158015610bee573d6000803e3d6000fd5b505050506040513d601f19601f82011682018060405250810190610c1291906116b5565b80519091506000906001600160a01b031615801590610c4d57506001600160a01b038781166000908152600860205260409020548116908616145b604080516001600160a01b0388166020820152919250829101604051602081830303815290604052935093505050935093915050565b6002818154811061094857600080fd5b6004818154811061094857600080fd5b6003818154811061094857600080fd5b33610cbc610df0565b6001600160a01b03161480610ce0575033610cd5610e88565b6001600160a01b0316145b610cfc5760405162461bcd60e51b815260040161062590611836565b610d07838383611138565b505050565b60606002805480602002602001604051908101604052809291908181526020018280548015610770576020028201919060005260206000209081548152602001906001019080831161075c575050505050905090565b60606005805480602002602001604051908101604052809291908181526020018280548015610770576020028201919060005260206000209081548152602001906001019080831161075c575050505050905090565b606a60009081526020527ff3261457f4fd0b7c00a1511877ab27b74183ac470be8db3a7ecdc64335f6f979546001600160a01b031690565b60007f00000000000000000000000000000000000000000000000000000000000000006001600160a01b0316638da5cb5b6040518163ffffffff1660e01b815260040160206040518083038186803b158015610e4b57600080fd5b505afa158015610e5f573d6000803e3d6000fd5b505050506040513d601f19601f82011682018060405250810190610e83919061149f565b905090565b60007f00000000000000000000000000000000000000000000000000000000000000006001600160a01b031663c34c08e56040518163ffffffff1660e01b8152600401602060405180830381600087803b158015610ee557600080fd5b505af1158015610e5f573d6000803e3d6000fd5b606c60009081526020527f3c1fcba39712202dbd455253568bf32dd0a3bedb5c3ff0de4b22d4e45e50dc92546001600160a01b031690565b6001600160a01b0380841660009081526007602090815260408083208585168452909152812054909116610f6585846113a9565b604051630576cbc360e41b81526001600160a01b0387811660048301526024820187905285811660448301529192509082169063576cbc3090606401602060405180830381600087803b158015610fbb57600080fd5b505af1158015610fcf573d6000803e3d6000fd5b505050506040513d601f19601f82011682018060405250810190610ff39190611759565b95945050505050565b600061100a8284018461147c565b9050610a43858583611138565b6001600160a01b0380841660009081526007602090815260408083208585168452909152812054909116806110d45761104e610db8565b60405163179ce80d60e21b81526001600160a01b03878116600483015285811660248301529190911690635e73a0349060440160206040518083038186803b15801561109957600080fd5b505afa1580156110ad573d6000803e3d6000fd5b505050506040513d601f19601f820116820180604052508101906110d1919061149f565b90505b6040516323aaad6360e21b81526001600160a01b038681166004830152602482018690528481166044830152821690638eaab58c9060640160206040518083038186803b15801561112457600080fd5b505afa158015610fcf573d6000803e3d6000fd5b6000611142610ef9565b60405163ef6eeded60e01b81526001600160a01b038681166004830152919091169063ef6eeded9060240161012060405180830381600087803b15801561118857600080fd5b505af115801561119c573d6000803e3d6000fd5b505050506040513d601f19601f820116820180604052508101906111c091906116b5565b905080600001516001600160a01b0316826001600160a01b031614806111fb575080602001516001600160a01b0316826001600160a01b0316145b8061120d57506001600160a01b038216155b6112595760405162461bcd60e51b815260206004820152601d60248201527f4e6f7420612076616c69642073696e676c65207369646520746f6b656e0000006044820152606401610625565b80516001600160a01b038381169116146112e45760006112868260200151670de0b6b3a764000086610f31565b116112e45760405162461bcd60e51b815260206004820152602860248201527f436f6e7374697475656e74206f7261636c6520666f7220746f6b656e31206e6f604482015267074207365742075760c41b6064820152608401610625565b80602001516001600160a01b0316826001600160a01b03161461137857600061131a8260000151670de0b6b3a764000086610f31565b116113785760405162461bcd60e51b815260206004820152602860248201527f436f6e7374697475656e74206f7261636c6520666f7220746f6b656e30206e6f604482015267074207365742075760c41b6064820152608401610625565b506001600160a01b03928316600090815260086020526040902080546001600160a01b031916919093161790915550565b6001600160a01b03808316600090815260076020908152604080832085851684529091529020541680611466576113de610db8565b6040516302eaec2d60e31b81526001600160a01b03858116600483015284811660248301529190911690631757616890604401602060405180830381600087803b15801561142b57600080fd5b505af115801561143f573d6000803e3d6000fd5b505050506040513d601f19601f82011682018060405250810190611463919061149f565b90505b92915050565b80516114778161192c565b919050565b60006020828403121561148d578081fd5b81356114988161192c565b9392505050565b6000602082840312156114b0578081fd5b81516114988161192c565b600080604083850312156114cd578081fd5b82356114d88161192c565b915060208301356114e88161192c565b809150509250929050565b600080600060608486031215611507578081fd5b83356115128161192c565b925060208401356115228161192c565b915060408401356115328161192c565b809150509250925092565b600080600080600060808688031215611554578081fd5b853561155f8161192c565b9450602086013561156f8161192c565b935060408601359250606086013567ffffffffffffffff80821115611592578283fd5b818801915088601f8301126115a5578283fd5b8135818111156115b3578384fd5b8960208285010111156115c4578384fd5b9699959850939650602001949392505050565b60008060008060008060c087890312156115ef578081fd5b86516115fa8161192c565b602088015190965061160b8161192c565b6040880151606089015160808a015160a0909a0151989b929a5090989097909650945092505050565b60008060408385031215611646578182fd5b82356116518161192c565b946020939093013593505050565b600080600060608486031215611673578283fd5b833561167e8161192c565b92506020840135915060408401356115328161192c565b6000602082840312156116a6578081fd5b81518015158114611498578182fd5b60006101208083850312156116c8578182fd5b6116d181611880565b90506116dc8361146c565b81526116ea6020840161146c565b602082015260408301516040820152606083015160608201526080830151608082015260a083015160a082015260c083015160c082015260e083015160e08201526101008084015181830152508091505092915050565b600060208284031215611752578081fd5b5035919050565b60006020828403121561176a578081fd5b5051919050565b60008060408385031215611783578182fd5b8235915060208301356114e88161192c565b6020808252825182820181905260009190848201906040850190845b818110156117cd578351835292840192918401916001016117b1565b50909695505050505050565b6000831515825260206040818401528351806040850152825b8181101561180e578581018301518582016060015282016117f2565b8181111561181f5783606083870101525b50601f01601f191692909201606001949350505050565b6020808252602a908201527f526f6c65733a2063616c6c6572206973206e6f7420746865206f776e6572206f604082015269391032bc32b1baba37b960b11b606082015260800190565b604051601f8201601f1916810167ffffffffffffffff811182821017156118b757634e487b7160e01b600052604160045260246000fd5b604052919050565b600082198211156118d2576118d2611916565b500190565b6000826118f257634e487b7160e01b81526012600452602481fd5b500490565b600081600019048311821515161561191157611911611916565b500290565b634e487b7160e01b600052601160045260246000fd5b6001600160a01b038116811461194157600080fd5b5056fea2646970667358221220bd7168d8a041cc34a280a5c14fe623c1e67580f7590ae63f4cfafddae704483564736f6c63430008030033",
  "devdoc": {
    "kind": "dev",
    "methods": {
      "charactersPlayed()": {
        "details": "returns all characters played by this contract (e.g. stable coin, oracle registry)"
      },
      "dependsOnCharacters()": {
        "details": "returns all the character dependencies like FEE_RECIPIENT"
      },
      "dependsOnRoles()": {
        "details": "returns all the roles dependencies of this contract like FUND_TRANSFERER"
      },
      "rolesPlayed()": {
        "details": "returns all roles played by this contract"
      },
      "updateMainCharacterCache(uint256)": {
        "details": "Updates the main character cache for a speciic character"
      },
      "updateRoleCache(uint256,address)": {
        "details": "Updates the role cache for a specific role and address"
      }
    },
    "version": 1
  },
  "userdoc": {
    "kind": "user",
    "methods": {
      "encodeAndCheckOracleParams(address,address,address)": {
        "notice": "Encode params for initialization"
      },
      "getAmountInPeg(address,uint256,address)": {
        "notice": "Get value of LPT via its reserves"
      },
      "newCurrentOracle(address,address)": {
        "notice": "Notify contract to update oracle cache"
      },
      "setOracleSpecificParams(address,address,address)": {
        "notice": "Set single side token (if any)"
      },
      "viewAmountInPeg(address,uint256,address)": {
        "notice": "View value of LPT via its reserves"
      }
    },
    "notice": "Calculates value of LPT based on the reserves they represent, via the Value of their twap-tracked reserves",
    "version": 1
  },
  "storageLayout": {
    "storage": [
      {
        "astId": 16748,
        "contract": "contracts/oracles/UniswapV2LPTOracle.sol:UniswapV2LPTOracle",
        "label": "mainCharacterCache",
        "offset": 0,
        "slot": "0",
        "type": "t_mapping(t_uint256,t_address)"
      },
      {
        "astId": 16754,
        "contract": "contracts/oracles/UniswapV2LPTOracle.sol:UniswapV2LPTOracle",
        "label": "roleCache",
        "offset": 0,
        "slot": "1",
        "type": "t_mapping(t_address,t_mapping(t_uint256,t_bool))"
      },
      {
        "astId": 16757,
        "contract": "contracts/oracles/UniswapV2LPTOracle.sol:UniswapV2LPTOracle",
        "label": "_dependsOnCharacters",
        "offset": 0,
        "slot": "2",
        "type": "t_array(t_uint256)dyn_storage"
      },
      {
        "astId": 16760,
        "contract": "contracts/oracles/UniswapV2LPTOracle.sol:UniswapV2LPTOracle",
        "label": "_dependsOnRoles",
        "offset": 0,
        "slot": "3",
        "type": "t_array(t_uint256)dyn_storage"
      },
      {
        "astId": 16763,
        "contract": "contracts/oracles/UniswapV2LPTOracle.sol:UniswapV2LPTOracle",
        "label": "_charactersPlayed",
        "offset": 0,
        "slot": "4",
        "type": "t_array(t_uint256)dyn_storage"
      },
      {
        "astId": 16766,
        "contract": "contracts/oracles/UniswapV2LPTOracle.sol:UniswapV2LPTOracle",
        "label": "_rolesPlayed",
        "offset": 0,
        "slot": "5",
        "type": "t_array(t_uint256)dyn_storage"
      },
      {
        "astId": 14564,
        "contract": "contracts/oracles/UniswapV2LPTOracle.sol:UniswapV2LPTOracle",
        "label": "borrowablePer10ks",
        "offset": 0,
        "slot": "6",
        "type": "t_mapping(t_address,t_uint256)"
      },
      {
        "astId": 14718,
        "contract": "contracts/oracles/UniswapV2LPTOracle.sol:UniswapV2LPTOracle",
        "label": "_oracleCache",
        "offset": 0,
        "slot": "7",
        "type": "t_mapping(t_address,t_mapping(t_address,t_address))"
      },
      {
        "astId": 16290,
        "contract": "contracts/oracles/UniswapV2LPTOracle.sol:UniswapV2LPTOracle",
        "label": "singleSideValuation",
        "offset": 0,
        "slot": "8",
        "type": "t_mapping(t_address,t_address)"
      }
    ],
    "types": {
      "t_address": {
        "encoding": "inplace",
        "label": "address",
        "numberOfBytes": "20"
      },
      "t_array(t_uint256)dyn_storage": {
        "base": "t_uint256",
        "encoding": "dynamic_array",
        "label": "uint256[]",
        "numberOfBytes": "32"
      },
      "t_bool": {
        "encoding": "inplace",
        "label": "bool",
        "numberOfBytes": "1"
      },
      "t_mapping(t_address,t_address)": {
        "encoding": "mapping",
        "key": "t_address",
        "label": "mapping(address => address)",
        "numberOfBytes": "32",
        "value": "t_address"
      },
      "t_mapping(t_address,t_mapping(t_address,t_address))": {
        "encoding": "mapping",
        "key": "t_address",
        "label": "mapping(address => mapping(address => address))",
        "numberOfBytes": "32",
        "value": "t_mapping(t_address,t_address)"
      },
      "t_mapping(t_address,t_mapping(t_uint256,t_bool))": {
        "encoding": "mapping",
        "key": "t_address",
        "label": "mapping(address => mapping(uint256 => bool))",
        "numberOfBytes": "32",
        "value": "t_mapping(t_uint256,t_bool)"
      },
      "t_mapping(t_address,t_uint256)": {
        "encoding": "mapping",
        "key": "t_address",
        "label": "mapping(address => uint256)",
        "numberOfBytes": "32",
        "value": "t_uint256"
      },
      "t_mapping(t_uint256,t_address)": {
        "encoding": "mapping",
        "key": "t_uint256",
        "label": "mapping(uint256 => address)",
        "numberOfBytes": "32",
        "value": "t_address"
      },
      "t_mapping(t_uint256,t_bool)": {
        "encoding": "mapping",
        "key": "t_uint256",
        "label": "mapping(uint256 => bool)",
        "numberOfBytes": "32",
        "value": "t_bool"
      },
      "t_uint256": {
        "encoding": "inplace",
        "label": "uint256",
        "numberOfBytes": "32"
      }
    }
  }
}