{
  "address": "0xCD89D32Fd82b01E0A11d8c9835Da521c24781D29",
  "abi": [
    {
      "inputs": [
        {
          "internalType": "address",
          "name": "_more",
          "type": "address"
        },
        {
          "internalType": "address",
          "name": "_vemore",
          "type": "address"
        },
        {
          "internalType": "address",
          "name": "roles",
          "type": "address"
        }
      ],
      "stateMutability": "nonpayable",
      "type": "constructor"
    },
    {
      "anonymous": false,
      "inputs": [
        {
          "indexed": true,
          "internalType": "address",
          "name": "user",
          "type": "address"
        },
        {
          "indexed": true,
          "internalType": "uint256",
          "name": "amount",
          "type": "uint256"
        }
      ],
      "name": "Claimed",
      "type": "event"
    },
    {
      "anonymous": false,
      "inputs": [
        {
          "indexed": false,
          "internalType": "string",
          "name": "param",
          "type": "string"
        },
        {
          "indexed": false,
          "internalType": "uint256",
          "name": "value",
          "type": "uint256"
        }
      ],
      "name": "ParameterUpdated",
      "type": "event"
    },
    {
      "anonymous": false,
      "inputs": [
        {
          "indexed": true,
          "internalType": "address",
          "name": "user",
          "type": "address"
        },
        {
          "indexed": true,
          "internalType": "uint256",
          "name": "amount",
          "type": "uint256"
        }
      ],
      "name": "Staked",
      "type": "event"
    },
    {
      "anonymous": false,
      "inputs": [
        {
          "indexed": false,
          "internalType": "string",
          "name": "param",
          "type": "string"
        },
        {
          "indexed": false,
          "internalType": "address",
          "name": "subject",
          "type": "address"
        },
        {
          "indexed": false,
          "internalType": "uint256",
          "name": "value",
          "type": "uint256"
        }
      ],
      "name": "SubjectParameterUpdated",
      "type": "event"
    },
    {
      "anonymous": false,
      "inputs": [
        {
          "indexed": false,
          "internalType": "string",
          "name": "param",
          "type": "string"
        },
        {
          "indexed": false,
          "internalType": "address",
          "name": "subject",
          "type": "address"
        }
      ],
      "name": "SubjectUpdated",
      "type": "event"
    },
    {
      "anonymous": false,
      "inputs": [
        {
          "indexed": true,
          "internalType": "address",
          "name": "user",
          "type": "address"
        },
        {
          "indexed": true,
          "internalType": "uint256",
          "name": "amount",
          "type": "uint256"
        }
      ],
      "name": "Unstaked",
      "type": "event"
    },
    {
      "inputs": [
        {
          "internalType": "uint256",
          "name": "",
          "type": "uint256"
        }
      ],
      "name": "_charactersPlayed",
      "outputs": [
        {
          "internalType": "uint256",
          "name": "",
          "type": "uint256"
        }
      ],
      "stateMutability": "view",
      "type": "function"
    },
    {
      "inputs": [
        {
          "internalType": "uint256",
          "name": "",
          "type": "uint256"
        }
      ],
      "name": "_dependsOnCharacters",
      "outputs": [
        {
          "internalType": "uint256",
          "name": "",
          "type": "uint256"
        }
      ],
      "stateMutability": "view",
      "type": "function"
    },
    {
      "inputs": [
        {
          "internalType": "uint256",
          "name": "",
          "type": "uint256"
        }
      ],
      "name": "_dependsOnRoles",
      "outputs": [
        {
          "internalType": "uint256",
          "name": "",
          "type": "uint256"
        }
      ],
      "stateMutability": "view",
      "type": "function"
    },
    {
      "inputs": [
        {
          "internalType": "uint256",
          "name": "",
          "type": "uint256"
        }
      ],
      "name": "_rolesPlayed",
      "outputs": [
        {
          "internalType": "uint256",
          "name": "",
          "type": "uint256"
        }
      ],
      "stateMutability": "view",
      "type": "function"
    },
    {
      "inputs": [],
      "name": "charactersPlayed",
      "outputs": [
        {
          "internalType": "uint256[]",
          "name": "",
          "type": "uint256[]"
        }
      ],
      "stateMutability": "view",
      "type": "function"
    },
    {
      "inputs": [],
      "name": "claim",
      "outputs": [],
      "stateMutability": "nonpayable",
      "type": "function"
    },
    {
      "inputs": [
        {
          "internalType": "address",
          "name": "_addr",
          "type": "address"
        }
      ],
      "name": "claimable",
      "outputs": [
        {
          "internalType": "uint256",
          "name": "",
          "type": "uint256"
        }
      ],
      "stateMutability": "view",
      "type": "function"
    },
    {
      "inputs": [],
      "name": "dependsOnCharacters",
      "outputs": [
        {
          "internalType": "uint256[]",
          "name": "",
          "type": "uint256[]"
        }
      ],
      "stateMutability": "view",
      "type": "function"
    },
    {
      "inputs": [],
      "name": "dependsOnRoles",
      "outputs": [
        {
          "internalType": "uint256[]",
          "name": "",
          "type": "uint256[]"
        }
      ],
      "stateMutability": "view",
      "type": "function"
    },
    {
      "inputs": [
        {
          "internalType": "uint256",
          "name": "_amount",
          "type": "uint256"
        }
      ],
      "name": "deposit",
      "outputs": [],
      "stateMutability": "nonpayable",
      "type": "function"
    },
    {
      "inputs": [],
      "name": "generationRate",
      "outputs": [
        {
          "internalType": "uint256",
          "name": "",
          "type": "uint256"
        }
      ],
      "stateMutability": "view",
      "type": "function"
    },
    {
      "inputs": [
        {
          "internalType": "address",
          "name": "_addr",
          "type": "address"
        }
      ],
      "name": "getStakedMore",
      "outputs": [
        {
          "internalType": "uint256",
          "name": "",
          "type": "uint256"
        }
      ],
      "stateMutability": "view",
      "type": "function"
    },
    {
      "inputs": [
        {
          "internalType": "address",
          "name": "_addr",
          "type": "address"
        }
      ],
      "name": "isUser",
      "outputs": [
        {
          "internalType": "bool",
          "name": "",
          "type": "bool"
        }
      ],
      "stateMutability": "view",
      "type": "function"
    },
    {
      "inputs": [
        {
          "internalType": "uint256",
          "name": "",
          "type": "uint256"
        }
      ],
      "name": "mainCharacterCache",
      "outputs": [
        {
          "internalType": "address",
          "name": "",
          "type": "address"
        }
      ],
      "stateMutability": "view",
      "type": "function"
    },
    {
      "inputs": [],
      "name": "maxCap",
      "outputs": [
        {
          "internalType": "uint256",
          "name": "",
          "type": "uint256"
        }
      ],
      "stateMutability": "view",
      "type": "function"
    },
    {
      "inputs": [],
      "name": "more",
      "outputs": [
        {
          "internalType": "contract IERC20",
          "name": "",
          "type": "address"
        }
      ],
      "stateMutability": "view",
      "type": "function"
    },
    {
      "inputs": [
        {
          "internalType": "address",
          "name": "",
          "type": "address"
        },
        {
          "internalType": "uint256",
          "name": "",
          "type": "uint256"
        }
      ],
      "name": "roleCache",
      "outputs": [
        {
          "internalType": "bool",
          "name": "",
          "type": "bool"
        }
      ],
      "stateMutability": "view",
      "type": "function"
    },
    {
      "inputs": [],
      "name": "roles",
      "outputs": [
        {
          "internalType": "contract Roles",
          "name": "",
          "type": "address"
        }
      ],
      "stateMutability": "view",
      "type": "function"
    },
    {
      "inputs": [],
      "name": "rolesPlayed",
      "outputs": [
        {
          "internalType": "uint256[]",
          "name": "",
          "type": "uint256[]"
        }
      ],
      "stateMutability": "view",
      "type": "function"
    },
    {
      "inputs": [
        {
          "internalType": "uint256",
          "name": "_generationRate",
          "type": "uint256"
        }
      ],
      "name": "setGenerationRate",
      "outputs": [],
      "stateMutability": "nonpayable",
      "type": "function"
    },
    {
      "inputs": [
        {
          "internalType": "uint256",
          "name": "_maxCap",
          "type": "uint256"
        }
      ],
      "name": "setMaxCap",
      "outputs": [],
      "stateMutability": "nonpayable",
      "type": "function"
    },
    {
      "inputs": [
        {
          "internalType": "uint256",
          "name": "role",
          "type": "uint256"
        }
      ],
      "name": "updateMainCharacterCache",
      "outputs": [],
      "stateMutability": "nonpayable",
      "type": "function"
    },
    {
      "inputs": [
        {
          "internalType": "uint256",
          "name": "role",
          "type": "uint256"
        },
        {
          "internalType": "address",
          "name": "contr",
          "type": "address"
        }
      ],
      "name": "updateRoleCache",
      "outputs": [],
      "stateMutability": "nonpayable",
      "type": "function"
    },
    {
      "inputs": [
        {
          "internalType": "address",
          "name": "",
          "type": "address"
        }
      ],
      "name": "users",
      "outputs": [
        {
          "internalType": "uint256",
          "name": "amount",
          "type": "uint256"
        },
        {
          "internalType": "uint256",
          "name": "lastRelease",
          "type": "uint256"
        }
      ],
      "stateMutability": "view",
      "type": "function"
    },
    {
      "inputs": [],
      "name": "veMore",
      "outputs": [
        {
          "internalType": "contract VeMoreToken",
          "name": "",
          "type": "address"
        }
      ],
      "stateMutability": "view",
      "type": "function"
    },
    {
      "inputs": [],
      "name": "viewWhitelist",
      "outputs": [
        {
          "internalType": "address[]",
          "name": "",
          "type": "address[]"
        }
      ],
      "stateMutability": "view",
      "type": "function"
    },
    {
      "inputs": [
        {
          "internalType": "uint256",
          "name": "_amount",
          "type": "uint256"
        }
      ],
      "name": "withdraw",
      "outputs": [],
      "stateMutability": "nonpayable",
      "type": "function"
    }
  ],
  "transactionHash": "0xdb5f7c60d6489d9b72596bb4da234a04bfa4e0416230f619b3dc8d001b863ae4",
  "args": [
    "0xd9D90f882CDdD6063959A9d837B05Cb748718A05",
    "0x7AEa97bA3d91117EA53BE2599C6C6c60e1c7ccBC",
    "0x9e1EE00d45252aA58623F7d771FB414aA38f0878"
  ],
  "numDeployments": 1,
  "solcInputHash": "38668bd0e9c194f71113ca253fd9c0f2",
  "bytecode": "0x60e06040526064600a5565038973d73e38600b553480156200002057600080fd5b506040516200199c3803806200199c83398101604081905262000043916200012f565b6001600055806001600160a01b038116620000af5760405162461bcd60e51b815260206004820152602260248201527f506c656173652070726f766964652076616c696420726f6c6573206164647265604482015261737360f01b606482015260840160405180910390fd5b6001600160601b0319606091821b811660805260068054600181018255600091909152600a7ff652222313e28459528d920b65115c16c04f3efc82aaedc97be59f3f377c0d3f9091015593811b841660a0529190911b90911660c0525062000178565b80516001600160a01b03811681146200012a57600080fd5b919050565b60008060006060848603121562000144578283fd5b6200014f8462000112565b92506200015f6020850162000112565b91506200016f6040850162000112565b90509250925092565b60805160601c60a05160601c60c05160601c6117a5620001f7600039600081816102e9015281816106870152818161072601528181610eaf01526110290152600081816101860152818161079c0152610c020152600081816101f70152818161040b0152818161085a01528181610d060152610d9901526117a56000f3fe608060405234801561001057600080fd5b50600436106101495760003560e01c8063071060a61461014e5780630e1a1ea81461016357806315e722701461018157806323548b8b146101b5578063282a1129146101cc5780632e1a7d4d146101df578063392f5f64146101f2578063402914f5146102195780634209fff11461022c578063447d52ba1461024f5780634a7a7f41146102625780634e71d92d146102775780636caa9c111461027f578063763265de146102925780637a1a04df146102a55780637b1ba250146102d35780637dad209b146102dc5780639ef3c2d7146102e4578063a87430ba1461030b578063abcbc4fc14610347578063aeb38d8b1461035a578063b6b55f251461036d578063bf184ea414610380578063dc94cb7d14610393578063e8ea4fae1461039b578063e95ab5af146103a3578063e9c3f77d146103cc575b600080fd5b61016161015c3660046114c9565b6103f5565b005b61016b6104bb565b6040516101789190611571565b60405180910390f35b6101a87f000000000000000000000000000000000000000000000000000000000000000081565b6040516101789190611544565b6101be600a5481565b604051908152602001610178565b6101616101da3660046114c9565b6104cc565b6101616101ed3660046114c9565b610570565b6101a87f000000000000000000000000000000000000000000000000000000000000000081565b6101be610227366004611446565b6107ce565b61023f61023a366004611446565b610826565b6040519015158152602001610178565b61016161025d3660046114f9565b610843565b61026a610919565b60405161017891906115be565b610161610971565b6101be61028d3660046114c9565b6109f2565b6101616102a03660046114c9565b610a13565b61023f6102b336600461147e565b600260209081526000928352604080842090915290825290205460ff1681565b6101be600b5481565b61026a610aa7565b6101a87f000000000000000000000000000000000000000000000000000000000000000081565b610332610319366004611446565b6007602052600090815260409020805460019091015482565b60408051928352602083019190915201610178565b6101be6103553660046114c9565b610afd565b6101be6103683660046114c9565b610b0d565b61016161037b3660046114c9565b610b1d565b6101be61038e3660046114c9565b610c32565b61026a610c42565b61026a610c98565b6101be6103b1366004611446565b6001600160a01b031660009081526007602052604090205490565b6101a86103da3660046114c9565b6001602052600090815260409020546001600160a01b031681565b60405163b4ed0b6d60e01b8152600481018290527f00000000000000000000000000000000000000000000000000000000000000006001600160a01b03169063b4ed0b6d9060240160206040518083038186803b15801561045557600080fd5b505afa158015610469573d6000803e3d6000fd5b505050506040513d601f19601f8201168201806040525081019061048d9190611462565b60009182526001602052604090912080546001600160a01b0319166001600160a01b03909216919091179055565b60606104c76008610cee565b905090565b336104d5610d02565b6001600160a01b031614806104f95750336104ee610d95565b6001600160a01b0316145b61051e5760405162461bcd60e51b815260040161051590611629565b60405180910390fd5b8061056b5760405162461bcd60e51b815260206004820152601e60248201527f67656e65726174696f6e20726174652063616e6e6f74206265207a65726f00006044820152606401610515565b600b55565b600260005414156105935760405162461bcd60e51b815260040161051590611673565b6002600055806105ef5760405162461bcd60e51b815260206004820152602160248201527f616d6f756e7420746f2077697468647261772063616e6e6f74206265207a65726044820152606f60f81b6064820152608401610515565b336000908152600760205260409020548111156106435760405162461bcd60e51b81526020600482015260126024820152716e6f7420656e6f7567682062616c616e636560701b6044820152606401610515565b3360009081526007602052604081204260018201558054839290610668908490611701565b90915550506040516370a0823160e01b81526000906001600160a01b037f000000000000000000000000000000000000000000000000000000000000000016906370a08231906106bc903390600401611544565b60206040518083038186803b1580156106d457600080fd5b505afa1580156106e8573d6000803e3d6000fd5b505050506040513d601f19601f8201168201806040525081019061070c91906114e1565b60405163079cc67960e41b81529091506001600160a01b037f000000000000000000000000000000000000000000000000000000000000000016906379cc67909061075d9033908590600401611558565b600060405180830381600087803b15801561077757600080fd5b505af115801561078b573d6000803e3d6000fd5b506107c59250506001600160a01b037f00000000000000000000000000000000000000000000000000000000000000001690503384610e06565b50506001600055565b60006001600160a01b0382166108155760405162461bcd60e51b815260206004820152600c60248201526b7a65726f206164647265737360a01b6044820152606401610515565b61081e82610e61565b90505b919050565b6001600160a01b0316600090815260076020526040902054151590565b60405163f0723d9760e01b81526001600160a01b037f0000000000000000000000000000000000000000000000000000000000000000169063f0723d97906108919084908690600401611558565b60206040518083038186803b1580156108a957600080fd5b505afa1580156108bd573d6000803e3d6000fd5b505050506040513d601f19601f820116820180604052508101906108e191906114a9565b6001600160a01b0391909116600090815260026020908152604080832094835293905291909120805460ff1916911515919091179055565b6060600480548060200260200160405190810160405280929190818152602001828054801561096757602002820191906000526020600020905b815481526020019060010190808311610953575b5050505050905090565b600260005414156109945760405162461bcd60e51b815260040161051590611673565b60026000556109a233610826565b6109e25760405162461bcd60e51b81526020600482015260116024820152707573657220686173206e6f207374616b6560781b6044820152606401610515565b6109eb33610faa565b6001600055565b60068181548110610a0257600080fd5b600091825260209091200154905081565b33610a1c610d02565b6001600160a01b03161480610a40575033610a35610d95565b6001600160a01b0316145b610a5c5760405162461bcd60e51b815260040161051590611629565b80610aa25760405162461bcd60e51b81526020600482015260166024820152756d6178206361702063616e6e6f74206265207a65726f60501b6044820152606401610515565b600a55565b606060058054806020026020016040519081016040528092919081815260200182805480156109675760200282019190600052602060002090815481526020019060010190808311610953575050505050905090565b60038181548110610a0257600080fd5b60058181548110610a0257600080fd5b60026000541415610b405760405162461bcd60e51b815260040161051590611673565b600260005580610b925760405162461bcd60e51b815260206004820181905260248201527f616d6f756e7420746f206465706f7369742063616e6e6f74206265207a65726f6044820152606401610515565b610b9b33611097565b610ba433610826565b15610bdc57610bb233610faa565b3360009081526007602052604081208054839290610bd19084906116aa565b90915550610bf59050565b3360009081526007602052604090204260018201558190555b610c2a6001600160a01b037f00000000000000000000000000000000000000000000000000000000000000001633308461110f565b506001600055565b60048181548110610a0257600080fd5b606060038054806020026020016040519081016040528092919081815260200182805480156109675760200282019190600052602060002090815481526020019060010190808311610953575050505050905090565b606060068054806020026020016040519081016040528092919081815260200182805480156109675760200282019190600052602060002090815481526020019060010190808311610953575050505050905090565b60606000610cfb8361114d565b9392505050565b60007f00000000000000000000000000000000000000000000000000000000000000006001600160a01b0316638da5cb5b6040518163ffffffff1660e01b815260040160206040518083038186803b158015610d5d57600080fd5b505afa158015610d71573d6000803e3d6000fd5b505050506040513d601f19601f820116820180604052508101906104c79190611462565b60007f00000000000000000000000000000000000000000000000000000000000000006001600160a01b031663c34c08e56040518163ffffffff1660e01b8152600401602060405180830381600087803b158015610df257600080fd5b505af1158015610d71573d6000803e3d6000fd5b610e5c8363a9059cbb60e01b8484604051602401610e25929190611558565b60408051601f198184030181529190526020810180516001600160e01b03166001600160e01b0319909316929092179091526111a9565b505050565b6001600160a01b038116600090815260076020526040812060018101548290610e8a9042611701565b90506000610ea98360000154600b5484610ea491906116e2565b61127b565b905060007f00000000000000000000000000000000000000000000000000000000000000006001600160a01b03166370a08231876040518263ffffffff1660e01b8152600401610ef99190611544565b60206040518083038186803b158015610f1157600080fd5b505afa158015610f25573d6000803e3d6000fd5b505050506040513d601f19601f82011682018060405250810190610f4991906114e1565b90506000600a548560000154610f5f91906116e2565b905080821015610f9d5780610f7484846116aa565b1115610f9057610f848282611701565b95505050505050610821565b8295505050505050610821565b5060009695505050505050565b6000610fb582610e61565b6001600160a01b038316600090815260076020526040902042600190910155905080156110935760405181906001600160a01b038416907fd8138f8a3f377c5259ca548e70e4c2de94f129f5a11036a15b69513cba2b426a90600090a36040516340c10f1960e01b81526001600160a01b037f000000000000000000000000000000000000000000000000000000000000000016906340c10f19906110609085908590600401611558565b600060405180830381600087803b15801561107a57600080fd5b505af115801561108e573d6000803e3d6000fd5b505050505b5050565b6001600160a01b038116321461110c576110b26008826112ac565b61110c5760405162461bcd60e51b815260206004820152602560248201527f536d61727420636f6e7472616374206465706f7369746f7273206e6f7420616c6044820152641b1bddd95960da1b6064820152608401610515565b50565b6040516001600160a01b03808516602483015283166044820152606481018290526111479085906323b872dd60e01b90608401610e25565b50505050565b60608160000180548060200260200160405190810160405280929190818152602001828054801561119d57602002820191906000526020600020905b815481526020019060010190808311611189575b50505050509050919050565b60006111fe826040518060400160405280602081526020017f5361666545524332303a206c6f772d6c6576656c2063616c6c206661696c6564815250856001600160a01b03166112ce9092919063ffffffff16565b805190915015610e5c578080602001905181019061121c91906114a9565b610e5c5760405162461bcd60e51b815260206004820152602a60248201527f5361666545524332303a204552433230206f7065726174696f6e20646964206e6044820152691bdd081cdd58d8d9595960b21b6064820152608401610515565b6000670de0b6b3a764000061129083856116e2565b6112a2906706f05b59d3b200006116aa565b610cfb91906116c2565b6001600160a01b03811660009081526001830160205260408120541515610cfb565b60606112dd84846000856112e5565b949350505050565b6060824710156113465760405162461bcd60e51b815260206004820152602660248201527f416464726573733a20696e73756666696369656e742062616c616e636520666f6044820152651c8818d85b1b60d21b6064820152608401610515565b843b6113945760405162461bcd60e51b815260206004820152601d60248201527f416464726573733a2063616c6c20746f206e6f6e2d636f6e74726163740000006044820152606401610515565b600080866001600160a01b031685876040516113b09190611528565b60006040518083038185875af1925050503d80600081146113ed576040519150601f19603f3d011682016040523d82523d6000602084013e6113f2565b606091505b509150915061140282828661140d565b979650505050505050565b6060831561141c575081610cfb565b82511561142c5782518084602001fd5b8160405162461bcd60e51b815260040161051591906115f6565b600060208284031215611457578081fd5b8135610cfb8161175a565b600060208284031215611473578081fd5b8151610cfb8161175a565b60008060408385031215611490578081fd5b823561149b8161175a565b946020939093013593505050565b6000602082840312156114ba578081fd5b81518015158114610cfb578182fd5b6000602082840312156114da578081fd5b5035919050565b6000602082840312156114f2578081fd5b5051919050565b6000806040838503121561150b578182fd5b82359150602083013561151d8161175a565b809150509250929050565b6000825161153a818460208701611718565b9190910192915050565b6001600160a01b0391909116815260200190565b6001600160a01b03929092168252602082015260400190565b6020808252825182820181905260009190848201906040850190845b818110156115b25783516001600160a01b03168352928401929184019160010161158d565b50909695505050505050565b6020808252825182820181905260009190848201906040850190845b818110156115b2578351835292840192918401916001016115da565b6000602082528251806020840152611615816040850160208701611718565b601f01601f19169190910160400192915050565b6020808252602a908201527f526f6c65733a2063616c6c6572206973206e6f7420746865206f776e6572206f604082015269391032bc32b1baba37b960b11b606082015260800190565b6020808252601f908201527f5265656e7472616e637947756172643a207265656e7472616e742063616c6c00604082015260600190565b600082198211156116bd576116bd611744565b500190565b6000826116dd57634e487b7160e01b81526012600452602481fd5b500490565b60008160001904831182151516156116fc576116fc611744565b500290565b60008282101561171357611713611744565b500390565b60005b8381101561173357818101518382015260200161171b565b838111156111475750506000910152565b634e487b7160e01b600052601160045260246000fd5b6001600160a01b038116811461110c57600080fdfea26469706673582212207634d5379afa086c0b72d61ff84b1e937088456dae125a9e2360d63684a9d75664736f6c63430008030033",
  "devdoc": {
    "kind": "dev",
    "methods": {
      "charactersPlayed()": {
        "details": "returns all characters played by this contract (e.g. stable coin, oracle registry)"
      },
      "claimable(address)": {
        "params": {
          "_addr": "the address to check"
        },
        "returns": {
          "_0": "amount of VeMore that can be claimed by user"
        }
      },
      "dependsOnCharacters()": {
        "details": "returns all the character dependencies like FEE_RECIPIENT"
      },
      "dependsOnRoles()": {
        "details": "returns all the roles dependencies of this contract like FUND_TRANSFERER"
      },
      "deposit(uint256)": {
        "params": {
          "_amount": "the amount of more to deposit"
        }
      },
      "getStakedMore(address)": {
        "params": {
          "_addr": "the user address to check"
        },
        "returns": {
          "_0": "staked amount ofmore"
        }
      },
      "isUser(address)": {
        "params": {
          "_addr": "the user address to check"
        },
        "returns": {
          "_0": "true if the user has more in stake, false otherwise"
        }
      },
      "rolesPlayed()": {
        "details": "returns all roles played by this contract"
      },
      "setGenerationRate(uint256)": {
        "params": {
          "_generationRate": "the new max ratio"
        }
      },
      "setMaxCap(uint256)": {
        "params": {
          "_maxCap": "the new max ratio"
        }
      },
      "updateMainCharacterCache(uint256)": {
        "details": "Updates the main character cache for a speciic character"
      },
      "updateRoleCache(uint256,address)": {
        "details": "Updates the role cache for a specific role and address"
      },
      "withdraw(uint256)": {
        "params": {
          "_amount": "the amount of more to unstake Note Beware! you will loose all of your VeMore if you unstake any amount of more!"
        }
      }
    },
    "version": 1
  },
  "userdoc": {
    "events": {
      "Staked(address,uint256)": {
        "notice": "events describing staking, unstaking and claiming"
      }
    },
    "kind": "user",
    "methods": {
      "claim()": {
        "notice": "claims accumulatedVeMore"
      },
      "claimable(address)": {
        "notice": "Calculate the amount of VeMore that can be claimed by user"
      },
      "deposit(uint256)": {
        "notice": "deposits more into contract"
      },
      "generationRate()": {
        "notice": "the rate of VeMore generated per second, per more staked"
      },
      "getStakedMore(address)": {
        "notice": "returns staked amount of more for user"
      },
      "isUser(address)": {
        "notice": "checks wether user _addr has more staked"
      },
      "maxCap()": {
        "notice": "max VeMore to staked more ratio Note if user has 10 more staked, they can only have a max of 10 * maxCap VeMore in balance"
      },
      "setGenerationRate(uint256)": {
        "notice": "sets generation rate"
      },
      "setMaxCap(uint256)": {
        "notice": "sets maxCap"
      },
      "users(address)": {
        "notice": "user info mapping"
      },
      "withdraw(uint256)": {
        "notice": "withdraws stakedmore"
      }
    },
    "version": 1
  },
  "storageLayout": {
    "storage": [
      {
        "astId": 223,
        "contract": "contracts/governance/VeMoreStaking.sol:VeMoreStaking",
        "label": "_status",
        "offset": 0,
        "slot": "0",
        "type": "t_uint256"
      },
      {
        "astId": 35269,
        "contract": "contracts/governance/VeMoreStaking.sol:VeMoreStaking",
        "label": "mainCharacterCache",
        "offset": 0,
        "slot": "1",
        "type": "t_mapping(t_uint256,t_address)"
      },
      {
        "astId": 35275,
        "contract": "contracts/governance/VeMoreStaking.sol:VeMoreStaking",
        "label": "roleCache",
        "offset": 0,
        "slot": "2",
        "type": "t_mapping(t_address,t_mapping(t_uint256,t_bool))"
      },
      {
        "astId": 35278,
        "contract": "contracts/governance/VeMoreStaking.sol:VeMoreStaking",
        "label": "_dependsOnCharacters",
        "offset": 0,
        "slot": "3",
        "type": "t_array(t_uint256)dyn_storage"
      },
      {
        "astId": 35281,
        "contract": "contracts/governance/VeMoreStaking.sol:VeMoreStaking",
        "label": "_dependsOnRoles",
        "offset": 0,
        "slot": "4",
        "type": "t_array(t_uint256)dyn_storage"
      },
      {
        "astId": 35284,
        "contract": "contracts/governance/VeMoreStaking.sol:VeMoreStaking",
        "label": "_charactersPlayed",
        "offset": 0,
        "slot": "5",
        "type": "t_array(t_uint256)dyn_storage"
      },
      {
        "astId": 35287,
        "contract": "contracts/governance/VeMoreStaking.sol:VeMoreStaking",
        "label": "_rolesPlayed",
        "offset": 0,
        "slot": "6",
        "type": "t_array(t_uint256)dyn_storage"
      },
      {
        "astId": 20739,
        "contract": "contracts/governance/VeMoreStaking.sol:VeMoreStaking",
        "label": "users",
        "offset": 0,
        "slot": "7",
        "type": "t_mapping(t_address,t_struct(UserInfo)20733_storage)"
      },
      {
        "astId": 20742,
        "contract": "contracts/governance/VeMoreStaking.sol:VeMoreStaking",
        "label": "whitelist",
        "offset": 0,
        "slot": "8",
        "type": "t_struct(AddressSet)5499_storage"
      },
      {
        "astId": 20746,
        "contract": "contracts/governance/VeMoreStaking.sol:VeMoreStaking",
        "label": "maxCap",
        "offset": 0,
        "slot": "10",
        "type": "t_uint256"
      },
      {
        "astId": 20750,
        "contract": "contracts/governance/VeMoreStaking.sol:VeMoreStaking",
        "label": "generationRate",
        "offset": 0,
        "slot": "11",
        "type": "t_uint256"
      }
    ],
    "types": {
      "t_address": {
        "encoding": "inplace",
        "label": "address",
        "numberOfBytes": "20"
      },
      "t_array(t_bytes32)dyn_storage": {
        "base": "t_bytes32",
        "encoding": "dynamic_array",
        "label": "bytes32[]",
        "numberOfBytes": "32"
      },
      "t_array(t_uint256)dyn_storage": {
        "base": "t_uint256",
        "encoding": "dynamic_array",
        "label": "uint256[]",
        "numberOfBytes": "32"
      },
      "t_bool": {
        "encoding": "inplace",
        "label": "bool",
        "numberOfBytes": "1"
      },
      "t_bytes32": {
        "encoding": "inplace",
        "label": "bytes32",
        "numberOfBytes": "32"
      },
      "t_mapping(t_address,t_mapping(t_uint256,t_bool))": {
        "encoding": "mapping",
        "key": "t_address",
        "label": "mapping(address => mapping(uint256 => bool))",
        "numberOfBytes": "32",
        "value": "t_mapping(t_uint256,t_bool)"
      },
      "t_mapping(t_address,t_struct(UserInfo)20733_storage)": {
        "encoding": "mapping",
        "key": "t_address",
        "label": "mapping(address => struct VeMoreStaking.UserInfo)",
        "numberOfBytes": "32",
        "value": "t_struct(UserInfo)20733_storage"
      },
      "t_mapping(t_bytes32,t_uint256)": {
        "encoding": "mapping",
        "key": "t_bytes32",
        "label": "mapping(bytes32 => uint256)",
        "numberOfBytes": "32",
        "value": "t_uint256"
      },
      "t_mapping(t_uint256,t_address)": {
        "encoding": "mapping",
        "key": "t_uint256",
        "label": "mapping(uint256 => address)",
        "numberOfBytes": "32",
        "value": "t_address"
      },
      "t_mapping(t_uint256,t_bool)": {
        "encoding": "mapping",
        "key": "t_uint256",
        "label": "mapping(uint256 => bool)",
        "numberOfBytes": "32",
        "value": "t_bool"
      },
      "t_struct(AddressSet)5499_storage": {
        "encoding": "inplace",
        "label": "struct EnumerableSet.AddressSet",
        "members": [
          {
            "astId": 5498,
            "contract": "contracts/governance/VeMoreStaking.sol:VeMoreStaking",
            "label": "_inner",
            "offset": 0,
            "slot": "0",
            "type": "t_struct(Set)5198_storage"
          }
        ],
        "numberOfBytes": "64"
      },
      "t_struct(Set)5198_storage": {
        "encoding": "inplace",
        "label": "struct EnumerableSet.Set",
        "members": [
          {
            "astId": 5193,
            "contract": "contracts/governance/VeMoreStaking.sol:VeMoreStaking",
            "label": "_values",
            "offset": 0,
            "slot": "0",
            "type": "t_array(t_bytes32)dyn_storage"
          },
          {
            "astId": 5197,
            "contract": "contracts/governance/VeMoreStaking.sol:VeMoreStaking",
            "label": "_indexes",
            "offset": 0,
            "slot": "1",
            "type": "t_mapping(t_bytes32,t_uint256)"
          }
        ],
        "numberOfBytes": "64"
      },
      "t_struct(UserInfo)20733_storage": {
        "encoding": "inplace",
        "label": "struct VeMoreStaking.UserInfo",
        "members": [
          {
            "astId": 20730,
            "contract": "contracts/governance/VeMoreStaking.sol:VeMoreStaking",
            "label": "amount",
            "offset": 0,
            "slot": "0",
            "type": "t_uint256"
          },
          {
            "astId": 20732,
            "contract": "contracts/governance/VeMoreStaking.sol:VeMoreStaking",
            "label": "lastRelease",
            "offset": 0,
            "slot": "1",
            "type": "t_uint256"
          }
        ],
        "numberOfBytes": "64"
      },
      "t_uint256": {
        "encoding": "inplace",
        "label": "uint256",
        "numberOfBytes": "32"
      }
    }
  }
}