{
  "address": "0x7EBbd35B4534b28abB3F78CFa494fbF1B8FFb1bf",
  "abi": [
    {
      "inputs": [
        {
          "internalType": "address",
          "name": "vestingToken",
          "type": "address"
        }
      ],
      "stateMutability": "nonpayable",
      "type": "constructor"
    },
    {
      "anonymous": false,
      "inputs": [
        {
          "indexed": true,
          "internalType": "address",
          "name": "owner",
          "type": "address"
        },
        {
          "indexed": true,
          "internalType": "address",
          "name": "spender",
          "type": "address"
        },
        {
          "indexed": false,
          "internalType": "uint256",
          "name": "value",
          "type": "uint256"
        }
      ],
      "name": "Approval",
      "type": "event"
    },
    {
      "anonymous": false,
      "inputs": [
        {
          "indexed": true,
          "internalType": "address",
          "name": "previousOwner",
          "type": "address"
        },
        {
          "indexed": true,
          "internalType": "address",
          "name": "newOwner",
          "type": "address"
        }
      ],
      "name": "OwnershipTransferred",
      "type": "event"
    },
    {
      "anonymous": false,
      "inputs": [
        {
          "indexed": true,
          "internalType": "address",
          "name": "from",
          "type": "address"
        },
        {
          "indexed": true,
          "internalType": "address",
          "name": "to",
          "type": "address"
        },
        {
          "indexed": false,
          "internalType": "uint256",
          "name": "value",
          "type": "uint256"
        }
      ],
      "name": "Transfer",
      "type": "event"
    },
    {
      "inputs": [],
      "name": "DOMAIN_SEPARATOR",
      "outputs": [
        {
          "internalType": "bytes32",
          "name": "",
          "type": "bytes32"
        }
      ],
      "stateMutability": "view",
      "type": "function"
    },
    {
      "inputs": [],
      "name": "allVestingEver",
      "outputs": [
        {
          "internalType": "uint256",
          "name": "",
          "type": "uint256"
        }
      ],
      "stateMutability": "view",
      "type": "function"
    },
    {
      "inputs": [
        {
          "internalType": "address",
          "name": "owner",
          "type": "address"
        },
        {
          "internalType": "address",
          "name": "spender",
          "type": "address"
        }
      ],
      "name": "allowance",
      "outputs": [
        {
          "internalType": "uint256",
          "name": "",
          "type": "uint256"
        }
      ],
      "stateMutability": "view",
      "type": "function"
    },
    {
      "inputs": [
        {
          "internalType": "address",
          "name": "spender",
          "type": "address"
        },
        {
          "internalType": "uint256",
          "name": "amount",
          "type": "uint256"
        }
      ],
      "name": "approve",
      "outputs": [
        {
          "internalType": "bool",
          "name": "",
          "type": "bool"
        }
      ],
      "stateMutability": "nonpayable",
      "type": "function"
    },
    {
      "inputs": [
        {
          "internalType": "address",
          "name": "account",
          "type": "address"
        }
      ],
      "name": "balanceOf",
      "outputs": [
        {
          "internalType": "uint256",
          "name": "",
          "type": "uint256"
        }
      ],
      "stateMutability": "view",
      "type": "function"
    },
    {
      "inputs": [
        {
          "internalType": "uint256",
          "name": "wrapperAmount",
          "type": "uint256"
        }
      ],
      "name": "burn",
      "outputs": [],
      "stateMutability": "nonpayable",
      "type": "function"
    },
    {
      "inputs": [
        {
          "internalType": "address",
          "name": "account",
          "type": "address"
        }
      ],
      "name": "burnableByAccount",
      "outputs": [
        {
          "internalType": "uint256",
          "name": "",
          "type": "uint256"
        }
      ],
      "stateMutability": "view",
      "type": "function"
    },
    {
      "inputs": [],
      "name": "decimals",
      "outputs": [
        {
          "internalType": "uint8",
          "name": "",
          "type": "uint8"
        }
      ],
      "stateMutability": "view",
      "type": "function"
    },
    {
      "inputs": [
        {
          "internalType": "address",
          "name": "spender",
          "type": "address"
        },
        {
          "internalType": "uint256",
          "name": "subtractedValue",
          "type": "uint256"
        }
      ],
      "name": "decreaseAllowance",
      "outputs": [
        {
          "internalType": "bool",
          "name": "",
          "type": "bool"
        }
      ],
      "stateMutability": "nonpayable",
      "type": "function"
    },
    {
      "inputs": [
        {
          "internalType": "address",
          "name": "spender",
          "type": "address"
        },
        {
          "internalType": "uint256",
          "name": "addedValue",
          "type": "uint256"
        }
      ],
      "name": "increaseAllowance",
      "outputs": [
        {
          "internalType": "bool",
          "name": "",
          "type": "bool"
        }
      ],
      "stateMutability": "nonpayable",
      "type": "function"
    },
    {
      "inputs": [
        {
          "internalType": "address[]",
          "name": "recipients",
          "type": "address[]"
        },
        {
          "internalType": "uint256[]",
          "name": "amounts",
          "type": "uint256[]"
        }
      ],
      "name": "mint",
      "outputs": [],
      "stateMutability": "nonpayable",
      "type": "function"
    },
    {
      "inputs": [],
      "name": "name",
      "outputs": [
        {
          "internalType": "string",
          "name": "",
          "type": "string"
        }
      ],
      "stateMutability": "view",
      "type": "function"
    },
    {
      "inputs": [
        {
          "internalType": "address",
          "name": "owner",
          "type": "address"
        }
      ],
      "name": "nonces",
      "outputs": [
        {
          "internalType": "uint256",
          "name": "",
          "type": "uint256"
        }
      ],
      "stateMutability": "view",
      "type": "function"
    },
    {
      "inputs": [],
      "name": "owner",
      "outputs": [
        {
          "internalType": "address",
          "name": "",
          "type": "address"
        }
      ],
      "stateMutability": "view",
      "type": "function"
    },
    {
      "inputs": [
        {
          "internalType": "address",
          "name": "owner",
          "type": "address"
        },
        {
          "internalType": "address",
          "name": "spender",
          "type": "address"
        },
        {
          "internalType": "uint256",
          "name": "value",
          "type": "uint256"
        },
        {
          "internalType": "uint256",
          "name": "deadline",
          "type": "uint256"
        },
        {
          "internalType": "uint8",
          "name": "v",
          "type": "uint8"
        },
        {
          "internalType": "bytes32",
          "name": "r",
          "type": "bytes32"
        },
        {
          "internalType": "bytes32",
          "name": "s",
          "type": "bytes32"
        }
      ],
      "name": "permit",
      "outputs": [],
      "stateMutability": "nonpayable",
      "type": "function"
    },
    {
      "inputs": [],
      "name": "renounceOwnership",
      "outputs": [],
      "stateMutability": "nonpayable",
      "type": "function"
    },
    {
      "inputs": [
        {
          "internalType": "address",
          "name": "token",
          "type": "address"
        },
        {
          "internalType": "address",
          "name": "recipient",
          "type": "address"
        },
        {
          "internalType": "uint256",
          "name": "amount",
          "type": "uint256"
        }
      ],
      "name": "rescueFunds",
      "outputs": [],
      "stateMutability": "nonpayable",
      "type": "function"
    },
    {
      "inputs": [
        {
          "internalType": "uint256",
          "name": "instantVestingTotal",
          "type": "uint256"
        },
        {
          "internalType": "uint256",
          "name": "vestingTime",
          "type": "uint256"
        }
      ],
      "name": "setVestingSchedule",
      "outputs": [],
      "stateMutability": "nonpayable",
      "type": "function"
    },
    {
      "inputs": [],
      "name": "symbol",
      "outputs": [
        {
          "internalType": "string",
          "name": "",
          "type": "string"
        }
      ],
      "stateMutability": "view",
      "type": "function"
    },
    {
      "inputs": [],
      "name": "totalSupply",
      "outputs": [
        {
          "internalType": "uint256",
          "name": "",
          "type": "uint256"
        }
      ],
      "stateMutability": "view",
      "type": "function"
    },
    {
      "inputs": [],
      "name": "totalVested",
      "outputs": [
        {
          "internalType": "uint256",
          "name": "",
          "type": "uint256"
        }
      ],
      "stateMutability": "view",
      "type": "function"
    },
    {
      "inputs": [],
      "name": "totalVestedLastUpdated",
      "outputs": [
        {
          "internalType": "uint256",
          "name": "",
          "type": "uint256"
        }
      ],
      "stateMutability": "view",
      "type": "function"
    },
    {
      "inputs": [],
      "name": "totalWithdrawn",
      "outputs": [
        {
          "internalType": "uint256",
          "name": "",
          "type": "uint256"
        }
      ],
      "stateMutability": "view",
      "type": "function"
    },
    {
      "inputs": [
        {
          "internalType": "address",
          "name": "recipient",
          "type": "address"
        },
        {
          "internalType": "uint256",
          "name": "amount",
          "type": "uint256"
        }
      ],
      "name": "transfer",
      "outputs": [
        {
          "internalType": "bool",
          "name": "",
          "type": "bool"
        }
      ],
      "stateMutability": "nonpayable",
      "type": "function"
    },
    {
      "inputs": [
        {
          "internalType": "address",
          "name": "sender",
          "type": "address"
        },
        {
          "internalType": "address",
          "name": "recipient",
          "type": "address"
        },
        {
          "internalType": "uint256",
          "name": "amount",
          "type": "uint256"
        }
      ],
      "name": "transferFrom",
      "outputs": [
        {
          "internalType": "bool",
          "name": "",
          "type": "bool"
        }
      ],
      "stateMutability": "nonpayable",
      "type": "function"
    },
    {
      "inputs": [
        {
          "internalType": "address",
          "name": "newOwner",
          "type": "address"
        }
      ],
      "name": "transferOwnership",
      "outputs": [],
      "stateMutability": "nonpayable",
      "type": "function"
    },
    {
      "inputs": [],
      "name": "updateTotalVested",
      "outputs": [],
      "stateMutability": "nonpayable",
      "type": "function"
    },
    {
      "inputs": [],
      "name": "updatedTotalVested",
      "outputs": [
        {
          "internalType": "uint256",
          "name": "",
          "type": "uint256"
        }
      ],
      "stateMutability": "view",
      "type": "function"
    },
    {
      "inputs": [
        {
          "internalType": "address",
          "name": "account",
          "type": "address"
        }
      ],
      "name": "vestedByAccount",
      "outputs": [
        {
          "internalType": "uint256",
          "name": "",
          "type": "uint256"
        }
      ],
      "stateMutability": "view",
      "type": "function"
    },
    {
      "inputs": [
        {
          "internalType": "uint256",
          "name": "vestingAmount",
          "type": "uint256"
        }
      ],
      "name": "vesting2wrapper",
      "outputs": [
        {
          "internalType": "uint256",
          "name": "",
          "type": "uint256"
        }
      ],
      "stateMutability": "view",
      "type": "function"
    },
    {
      "inputs": [],
      "name": "vestingRate",
      "outputs": [
        {
          "internalType": "uint256",
          "name": "",
          "type": "uint256"
        }
      ],
      "stateMutability": "view",
      "type": "function"
    },
    {
      "inputs": [],
      "name": "vestingToken",
      "outputs": [
        {
          "internalType": "contract IERC20",
          "name": "",
          "type": "address"
        }
      ],
      "stateMutability": "view",
      "type": "function"
    },
    {
      "inputs": [
        {
          "internalType": "address",
          "name": "",
          "type": "address"
        }
      ],
      "name": "withdrawn",
      "outputs": [
        {
          "internalType": "uint256",
          "name": "",
          "type": "uint256"
        }
      ],
      "stateMutability": "view",
      "type": "function"
    },
    {
      "inputs": [
        {
          "internalType": "address",
          "name": "account",
          "type": "address"
        }
      ],
      "name": "wrappedByAccount",
      "outputs": [
        {
          "internalType": "uint256",
          "name": "",
          "type": "uint256"
        }
      ],
      "stateMutability": "view",
      "type": "function"
    },
    {
      "inputs": [
        {
          "internalType": "uint256",
          "name": "wrapperAmount",
          "type": "uint256"
        }
      ],
      "name": "wrapper2vesting",
      "outputs": [
        {
          "internalType": "uint256",
          "name": "",
          "type": "uint256"
        }
      ],
      "stateMutability": "view",
      "type": "function"
    }
  ],
  "transactionHash": "0x311579dfcf8d7fe4e7b8acd70da3eab58fe5f57950705508a739e0ffc01e2531",
  "args": [
    "0xd9D90f882CDdD6063959A9d837B05Cb748718A05"
  ],
  "solcInputHash": "3199a2f84462fb67e9b4b84734c1e6ed",
  "bytecode": "0x6101806040527f6e71edae12b1b97f4d1f60370fef10105fa2faae0126114a169c64845d6126c9610140526000600a553480156200003c57600080fd5b506040516200251b3803806200251b8339810160408190526200005f91620002c8565b6040518060400160405280601781526020017f4d6f72656d6f6e6579204c61756e6368205265776172640000000000000000008152506040518060400160405280600481526020016326a6a62960e11b815250828180604051806040016040528060018152602001603160f81b81525085858160039080519060200190620000e992919062000222565b508051620000ff90600490602084019062000222565b5050825160208085019190912083518483012060e08290526101008190524660a0818152604080517f8b73c3c69bb8fe3d512ecc4cf759cc79239f7b179b0ffacaa9a75d522b39400f81880181905281830187905260608201869052608082019490945230818401528151808203909301835260c0019052805194019390932091935091906080523060601b60c0526101205250620001ae9350620001a8925050620001cc9050565b620001d0565b60601b6001600160601b031916610160525050426009555062000335565b3390565b600680546001600160a01b038381166001600160a01b0319831681179093556040519116919082907f8be0079c531659141344cd1fd0a4f28419497f9722a3daafe3b4186f6b6457e090600090a35050565b8280546200023090620002f8565b90600052602060002090601f0160209004810192826200025457600085556200029f565b82601f106200026f57805160ff19168380011785556200029f565b828001600101855582156200029f579182015b828111156200029f57825182559160200191906001019062000282565b50620002ad929150620002b1565b5090565b5b80821115620002ad5760008155600101620002b2565b600060208284031215620002da578081fd5b81516001600160a01b0381168114620002f1578182fd5b9392505050565b600181811c908216806200030d57607f821691505b602082108114156200032f57634e487b7160e01b600052602260045260246000fd5b50919050565b60805160a05160c05160601c60e0516101005161012051610140516101605160601c61215e620003bd600039600081816102110152818161050b015281816107da015281816108c60152610a9001526000610b730152600061132a0152600061137901526000611354015260006112ab015260006112d5015260006112ff015261215e6000f3fe608060405234801561001057600080fd5b50600436106101a15760003560e01c806306fdde03146101a6578063095ea7b3146101c45780631645b8dd146101e757806318160ddd146101f1578063199cbc541461020357806319d152fa1461020c5780631a44cb9114610240578063230951ae1461024857806323b872dd146102505780632912a933146102635780632c6424c914610276578063313ce567146102895780633644e5151461029857806339509351146102a057806342966c68146102b35780634b319713146102c65780636ccae054146102cf5780636ef61092146102e257806370a0823114610302578063715018a6146103155780637ecebe001461031d5780638bf181c5146103305780638da5cb5b1461034357806395d89b411461034b578063a457c2d714610353578063a9059cbb14610366578063c7871ba914610379578063cc04823a14610382578063d505accf14610395578063d9a80dbc146103a8578063dd62ed3e146103bb578063e467f7e0146103f4578063f1a16b1f14610407578063f2fde38b14610410578063f432228f14610423575b600080fd5b6101ae610436565b6040516101bb9190611fa0565b60405180910390f35b6101d76101d2366004611e6e565b6104c9565b60405190151581526020016101bb565b6101ef6104e0565b005b6002545b6040519081526020016101bb565b6101f560085481565b6102337f000000000000000000000000000000000000000000000000000000000000000081565b6040516101bb9190611f8c565b6101f56104f1565b6101f56105a2565b6101d761025e366004611dc2565b6105e6565b6101f5610271366004611d76565b610697565b6101f5610284366004611d76565b6106b2565b604051601281526020016101bb565b6101f56106c0565b6101d76102ae366004611e6e565b6106ca565b6101ef6102c1366004611f1f565b610706565b6101f5600a5481565b6101ef6102dd366004611dc2565b610805565b6101f56102f0366004611d76565b600b6020526000908152604090205481565b6101f5610310366004611d76565b61084d565b6101ef610868565b6101f561032b366004611d76565b6108a3565b6101f561033e366004611f1f565b6108c1565b61023361099f565b6101ae6109ae565b6101d7610361366004611e6e565b6109bd565b6101d7610374366004611e6e565b610a56565b6101f560075481565b6101f5610390366004611f1f565b610a63565b6101ef6103a3366004611dfd565b610b1f565b6101f56103b6366004611d76565b610c83565b6101f56103c9366004611d90565b6001600160a01b03918216600090815260016020908152604080832093909416825291909152205490565b6101ef610402366004611e97565b610c91565b6101f560095481565b6101ef61041e366004611d76565b610d94565b6101ef610431366004611f4f565b610e34565b606060038054610445906120a2565b80601f0160208091040260200160405190810160405280929190818152602001828054610471906120a2565b80156104be5780601f10610493576101008083540402835291602001916104be565b820191906000526020600020905b8154815290600101906020018083116104a157829003601f168201915b505050505090505b90565b60006104d6338484610f09565b5060015b92915050565b6104e86105a2565b60085542600955565b6040516370a0823160e01b81526000906001600160a01b037f000000000000000000000000000000000000000000000000000000000000000016906370a0823190610540903090600401611f8c565b60206040518083038186803b15801561055857600080fd5b505afa15801561056c573d6000803e3d6000fd5b505050506040513d601f19601f820116820180604052508101906105909190611f37565b600a5461059d9190612008565b905090565b600080600754600954426105b6919061205f565b6105c09190612040565b90506105e0816008546105d39190612008565b6105db6104f1565b61102d565b91505090565b60006105f3848484611044565b6001600160a01b03841660009081526001602090815260408083203384529091529020548281101561067d5760405162461bcd60e51b815260206004820152602860248201527f45524332303a207472616e7366657220616d6f756e74206578636565647320616044820152676c6c6f77616e636560c01b60648201526084015b60405180910390fd5b61068a8533858403610f09565b60019150505b9392505050565b60006106aa826106a56105a2565b61120d565b90505b919050565b60006106aa6103908361084d565b600061059d61129e565b3360008181526001602090815260408083206001600160a01b038716845290915281205490916104d6918590610701908690612008565b610f09565b61070e6104e0565b600061071982610a63565b9050806107283360085461120d565b10156107855760405162461bcd60e51b815260206004820152602660248201527f5769746864726177696e67206d6f7265207468616e20766573746564206279206044820152651858dbdd5b9d60d21b6064820152608401610674565b61078f33836113c9565b336000908152600b6020526040812080548392906107ae908490612008565b9250508190555080600a60008282546107c79190612008565b9091555061080190506001600160a01b037f0000000000000000000000000000000000000000000000000000000000000000163383611511565b5050565b3361080e61099f565b6001600160a01b0316146108345760405162461bcd60e51b815260040161067490611fd3565b6108486001600160a01b0384168383611511565b505050565b6001600160a01b031660009081526020819052604090205490565b3361087161099f565b6001600160a01b0316146108975760405162461bcd60e51b815260040161067490611fd3565b6108a16000611563565b565b6001600160a01b0381166000908152600560205260408120546106aa565b6000807f00000000000000000000000000000000000000000000000000000000000000006001600160a01b03166370a08231306040518263ffffffff1660e01b81526004016109109190611f8c565b60206040518083038186803b15801561092857600080fd5b505afa15801561093c573d6000803e3d6000fd5b505050506040513d601f19601f820116820180604052508101906109609190611f37565b9050801561098f57808361097360025490565b61097d9190612040565b6109879190612020565b9150506106ad565b60009150506106ad565b50919050565b6006546001600160a01b031690565b606060048054610445906120a2565b3360009081526001602090815260408083206001600160a01b038616845290915281205482811015610a3f5760405162461bcd60e51b815260206004820152602560248201527f45524332303a2064656372656173656420616c6c6f77616e63652062656c6f77604482015264207a65726f60d81b6064820152608401610674565b610a4c3385858403610f09565b5060019392505050565b60006104d6338484611044565b600080610a6f60025490565b9050801561098f576040516370a0823160e01b815281906001600160a01b037f000000000000000000000000000000000000000000000000000000000000000016906370a0823190610ac5903090600401611f8c565b60206040518083038186803b158015610add57600080fd5b505afa158015610af1573d6000803e3d6000fd5b505050506040513d601f19601f82011682018060405250810190610b159190611f37565b61097d9085612040565b83421115610b6f5760405162461bcd60e51b815260206004820152601d60248201527f45524332305065726d69743a206578706972656420646561646c696e650000006044820152606401610674565b60007f0000000000000000000000000000000000000000000000000000000000000000888888610b9e8c6115b5565b6040805160208101969096526001600160a01b0394851690860152929091166060840152608083015260a082015260c0810186905260e0016040516020818303038152906040528051906020012090506000610bf9826115db565b90506000610c0982878787611629565b9050896001600160a01b0316816001600160a01b031614610c6c5760405162461bcd60e51b815260206004820152601e60248201527f45524332305065726d69743a20696e76616c6964207369676e617475726500006044820152606401610674565b610c778a8a8a610f09565b50505050505050505050565b60006106aa61033e83610697565b33610c9a61099f565b6001600160a01b031614610cc05760405162461bcd60e51b815260040161067490611fd3565b610cc86105a2565b50828114610d0c5760405162461bcd60e51b81526020600482015260116024820152704d69736d6174636865642061727261797360781b6044820152606401610674565b60005b80841115610d8d57610d7b858583818110610d3a57634e487b7160e01b600052603260045260246000fd5b9050602002016020810190610d4f9190611d76565b848484818110610d6f57634e487b7160e01b600052603260045260246000fd5b90506020020135611651565b80610d85816120d7565b915050610d0f565b5050505050565b33610d9d61099f565b6001600160a01b031614610dc35760405162461bcd60e51b815260040161067490611fd3565b6001600160a01b038116610e285760405162461bcd60e51b815260206004820152602660248201527f4f776e61626c653a206e6577206f776e657220697320746865207a65726f206160448201526564647265737360d01b6064820152608401610674565b610e3181611563565b50565b33610e3d61099f565b6001600160a01b031614610e635760405162461bcd60e51b815260040161067490611fd3565b610e6b6105a2565b506000610e766104f1565b905082600854610e869190612008565b811015610ed15760405162461bcd60e51b81526020600482015260196024820152780e6e8c2e4e8d2dcce40eccae6e8d2dcce40e8dede40d0d2ced603b1b6044820152606401610674565b8260086000828254610ee39190612008565b90915550506008548290610ef7908361205f565b610f019190612020565b600755505050565b6001600160a01b038316610f6b5760405162461bcd60e51b8152602060048201526024808201527f45524332303a20617070726f76652066726f6d20746865207a65726f206164646044820152637265737360e01b6064820152608401610674565b6001600160a01b038216610fcc5760405162461bcd60e51b815260206004820152602260248201527f45524332303a20617070726f766520746f20746865207a65726f206164647265604482015261737360f01b6064820152608401610674565b6001600160a01b0383811660008181526001602090815260408083209487168084529482529182902085905590518481527f8c5be1e5ebec7d5bd14f71427d1e84f3dd0314c0f7b2291e5b200ac8c7c3b925910160405180910390a3505050565b600081831061103d5750806104da565b50816104da565b6001600160a01b0383166110a85760405162461bcd60e51b815260206004820152602560248201527f45524332303a207472616e736665722066726f6d20746865207a65726f206164604482015264647265737360d81b6064820152608401610674565b6001600160a01b03821661110a5760405162461bcd60e51b815260206004820152602360248201527f45524332303a207472616e7366657220746f20746865207a65726f206164647260448201526265737360e81b6064820152608401610674565b61111583838361172b565b6001600160a01b0383166000908152602081905260409020548181101561118d5760405162461bcd60e51b815260206004820152602660248201527f45524332303a207472616e7366657220616d6f756e7420657863656564732062604482015265616c616e636560d01b6064820152608401610674565b6001600160a01b038085166000908152602081905260408082208585039055918516815290812080548492906111c4908490612008565b92505081905550826001600160a01b0316846001600160a01b0316600080516020612109833981519152846040516111fe91815260200190565b60405180910390a35b50505050565b6001600160a01b0382166000908152600b602052604081205481611230856106b2565b9050600061123c6104f1565b9050801561129257600081866112528686612008565b61125c9190612040565b6112669190612020565b9050838111156112855761127a848261205f565b9450505050506104da565b60009450505050506104da565b600093505050506104da565b6000306001600160a01b037f0000000000000000000000000000000000000000000000000000000000000000161480156112f757507f000000000000000000000000000000000000000000000000000000000000000046145b1561132357507f00000000000000000000000000000000000000000000000000000000000000006104c6565b50604080517f00000000000000000000000000000000000000000000000000000000000000006020808301919091527f0000000000000000000000000000000000000000000000000000000000000000828401527f000000000000000000000000000000000000000000000000000000000000000060608301524660808301523060a0808401919091528351808403909101815260c090920190925280519101206104c6565b6001600160a01b0382166114295760405162461bcd60e51b815260206004820152602160248201527f45524332303a206275726e2066726f6d20746865207a65726f206164647265736044820152607360f81b6064820152608401610674565b6114358260008361172b565b6001600160a01b038216600090815260208190526040902054818110156114a95760405162461bcd60e51b815260206004820152602260248201527f45524332303a206275726e20616d6f756e7420657863656564732062616c616e604482015261636560f01b6064820152608401610674565b6001600160a01b03831660009081526020819052604081208383039055600280548492906114d890849061205f565b90915550506040518281526000906001600160a01b038516906000805160206121098339815191529060200160405180910390a3610848565b604080516001600160a01b038416602482015260448082018490528251808303909101815260649091019091526020810180516001600160e01b031663a9059cbb60e01b1790526108489084906117eb565b600680546001600160a01b038381166001600160a01b0319831681179093556040519116919082907f8be0079c531659141344cd1fd0a4f28419497f9722a3daafe3b4186f6b6457e090600090a35050565b6001600160a01b0381166000908152600560205260409020805460018101825590610999565b60006106aa6115e861129e565b8360405161190160f01b6020820152602281018390526042810182905260009060620160405160208183030381529060405280519060200120905092915050565b600080600061163a878787876118bd565b91509150611647816119a0565b5095945050505050565b6001600160a01b0382166116a75760405162461bcd60e51b815260206004820152601f60248201527f45524332303a206d696e7420746f20746865207a65726f2061646472657373006044820152606401610674565b6116b36000838361172b565b80600260008282546116c59190612008565b90915550506001600160a01b038216600090815260208190526040812080548392906116f2908490612008565b90915550506040518181526001600160a01b038316906000906000805160206121098339815191529060200160405180910390a3610801565b60008111801561174357506001600160a01b03831615155b15610848576001600160a01b0383166000908152600b60205260408120549061176b8561084d565b905060008161177a8585612040565b6117849190612020565b6001600160a01b0387166000908152600b60205260408120805492935083929091906117b190849061205f565b90915550506001600160a01b0385166000908152600b6020526040812080548392906117de908490612008565b9091555050505050505050565b6000611840826040518060400160405280602081526020017f5361666545524332303a206c6f772d6c6576656c2063616c6c206661696c6564815250856001600160a01b0316611b9e9092919063ffffffff16565b805190915015610848578080602001905181019061185e9190611eff565b6108485760405162461bcd60e51b815260206004820152602a60248201527f5361666545524332303a204552433230206f7065726174696f6e20646964206e6044820152691bdd081cdd58d8d9595960b21b6064820152608401610674565b6000806fa2a8918ca85bafe22016d0b997e4df60600160ff1b038311156118ea5750600090506003611997565b8460ff16601b1415801561190257508460ff16601c14155b156119135750600090506004611997565b6040805160008082526020820180845289905260ff881692820192909252606081018690526080810185905260019060a0016020604051602081039080840390855afa158015611967573d6000803e3d6000fd5b5050604051601f1901519150506001600160a01b03811661199057600060019250925050611997565b9150600090505b94509492505050565b60008160048111156119c257634e487b7160e01b600052602160045260246000fd5b14156119cd57610e31565b60018160048111156119ef57634e487b7160e01b600052602160045260246000fd5b1415611a385760405162461bcd60e51b815260206004820152601860248201527745434453413a20696e76616c6964207369676e617475726560401b6044820152606401610674565b6002816004811115611a5a57634e487b7160e01b600052602160045260246000fd5b1415611aa85760405162461bcd60e51b815260206004820152601f60248201527f45434453413a20696e76616c6964207369676e6174757265206c656e677468006044820152606401610674565b6003816004811115611aca57634e487b7160e01b600052602160045260246000fd5b1415611b235760405162461bcd60e51b815260206004820152602260248201527f45434453413a20696e76616c6964207369676e6174757265202773272076616c604482015261756560f01b6064820152608401610674565b6004816004811115611b4557634e487b7160e01b600052602160045260246000fd5b1415610e315760405162461bcd60e51b815260206004820152602260248201527f45434453413a20696e76616c6964207369676e6174757265202776272076616c604482015261756560f01b6064820152608401610674565b6060611bad8484600085611bb5565b949350505050565b606082471015611c165760405162461bcd60e51b815260206004820152602660248201527f416464726573733a20696e73756666696369656e742062616c616e636520666f6044820152651c8818d85b1b60d21b6064820152608401610674565b843b611c645760405162461bcd60e51b815260206004820152601d60248201527f416464726573733a2063616c6c20746f206e6f6e2d636f6e74726163740000006044820152606401610674565b600080866001600160a01b03168587604051611c809190611f70565b60006040518083038185875af1925050503d8060008114611cbd576040519150601f19603f3d011682016040523d82523d6000602084013e611cc2565b606091505b5091509150611cd2828286611cdd565b979650505050505050565b60608315611cec575081610690565b825115611cfc5782518084602001fd5b8160405162461bcd60e51b81526004016106749190611fa0565b80356001600160a01b03811681146106ad57600080fd5b60008083601f840112611d3e578182fd5b5081356001600160401b03811115611d54578182fd5b6020830191508360208260051b8501011115611d6f57600080fd5b9250929050565b600060208284031215611d87578081fd5b61069082611d16565b60008060408385031215611da2578081fd5b611dab83611d16565b9150611db960208401611d16565b90509250929050565b600080600060608486031215611dd6578081fd5b611ddf84611d16565b9250611ded60208501611d16565b9150604084013590509250925092565b600080600080600080600060e0888a031215611e17578283fd5b611e2088611d16565b9650611e2e60208901611d16565b95506040880135945060608801359350608088013560ff81168114611e51578384fd5b9699959850939692959460a0840135945060c09093013592915050565b60008060408385031215611e80578182fd5b611e8983611d16565b946020939093013593505050565b60008060008060408587031215611eac578384fd5b84356001600160401b0380821115611ec2578586fd5b611ece88838901611d2d565b90965094506020870135915080821115611ee6578384fd5b50611ef387828801611d2d565b95989497509550505050565b600060208284031215611f10578081fd5b81518015158114610690578182fd5b600060208284031215611f30578081fd5b5035919050565b600060208284031215611f48578081fd5b5051919050565b60008060408385031215611f61578182fd5b50508035926020909101359150565b60008251611f82818460208701612076565b9190910192915050565b6001600160a01b0391909116815260200190565b6000602082528251806020840152611fbf816040850160208701612076565b601f01601f19169190910160400192915050565b6020808252818101527f4f776e61626c653a2063616c6c6572206973206e6f7420746865206f776e6572604082015260600190565b6000821982111561201b5761201b6120f2565b500190565b60008261203b57634e487b7160e01b81526012600452602481fd5b500490565b600081600019048311821515161561205a5761205a6120f2565b500290565b600082821015612071576120716120f2565b500390565b60005b83811015612091578181015183820152602001612079565b838111156112075750506000910152565b600181811c908216806120b657607f821691505b6020821081141561099957634e487b7160e01b600052602260045260246000fd5b60006000198214156120eb576120eb6120f2565b5060010190565b634e487b7160e01b600052601160045260246000fdfeddf252ad1be2c89b69c2b068fc378daa952ba7f163c4a11628f55a4df523b3efa264697066735822122004512e0adac7f0048e7d9ebba1902abd93742060c1882911e4d35c071ac3ea4964736f6c63430008030033",
  "devdoc": {
    "kind": "dev",
    "methods": {
      "DOMAIN_SEPARATOR()": {
        "details": "See {IERC20Permit-DOMAIN_SEPARATOR}."
      },
      "allowance(address,address)": {
        "details": "See {IERC20-allowance}."
      },
      "approve(address,uint256)": {
        "details": "See {IERC20-approve}. Requirements: - `spender` cannot be the zero address."
      },
      "balanceOf(address)": {
        "details": "See {IERC20-balanceOf}."
      },
      "decimals()": {
        "details": "Returns the number of decimals used to get its user representation. For example, if `decimals` equals `2`, a balance of `505` tokens should be displayed to a user as `5.05` (`505 / 10 ** 2`). Tokens usually opt for a value of 18, imitating the relationship between Ether and Wei. This is the value {ERC20} uses, unless this function is overridden; NOTE: This information is only used for _display_ purposes: it in no way affects any of the arithmetic of the contract, including {IERC20-balanceOf} and {IERC20-transfer}."
      },
      "decreaseAllowance(address,uint256)": {
        "details": "Atomically decreases the allowance granted to `spender` by the caller. This is an alternative to {approve} that can be used as a mitigation for problems described in {IERC20-approve}. Emits an {Approval} event indicating the updated allowance. Requirements: - `spender` cannot be the zero address. - `spender` must have allowance for the caller of at least `subtractedValue`."
      },
      "increaseAllowance(address,uint256)": {
        "details": "Atomically increases the allowance granted to `spender` by the caller. This is an alternative to {approve} that can be used as a mitigation for problems described in {IERC20-approve}. Emits an {Approval} event indicating the updated allowance. Requirements: - `spender` cannot be the zero address."
      },
      "name()": {
        "details": "Returns the name of the token."
      },
      "nonces(address)": {
        "details": "See {IERC20Permit-nonces}."
      },
      "owner()": {
        "details": "Returns the address of the current owner."
      },
      "permit(address,address,uint256,uint256,uint8,bytes32,bytes32)": {
        "details": "See {IERC20Permit-permit}."
      },
      "renounceOwnership()": {
        "details": "Leaves the contract without owner. It will not be possible to call `onlyOwner` functions anymore. Can only be called by the current owner. NOTE: Renouncing ownership will leave the contract without an owner, thereby removing any functionality that is only available to the owner."
      },
      "symbol()": {
        "details": "Returns the symbol of the token, usually a shorter version of the name."
      },
      "totalSupply()": {
        "details": "See {IERC20-totalSupply}."
      },
      "transfer(address,uint256)": {
        "details": "See {IERC20-transfer}. Requirements: - `recipient` cannot be the zero address. - the caller must have a balance of at least `amount`."
      },
      "transferFrom(address,address,uint256)": {
        "details": "See {IERC20-transferFrom}. Emits an {Approval} event indicating the updated allowance. This is not required by the EIP. See the note at the beginning of {ERC20}. Requirements: - `sender` and `recipient` cannot be the zero address. - `sender` must have a balance of at least `amount`. - the caller must have allowance for ``sender``'s tokens of at least `amount`."
      },
      "transferOwnership(address)": {
        "details": "Transfers ownership of the contract to a new account (`newOwner`). Can only be called by the current owner."
      }
    },
    "version": 1
  },
  "userdoc": {
    "kind": "user",
    "methods": {
      "allVestingEver()": {
        "notice": "All vesting tokens (including those already withdrawn)"
      },
      "burn(uint256)": {
        "notice": "Burn wrapper token, withdrawing underlying wrapped tokens"
      },
      "burnableByAccount(address)": {
        "notice": "Burnable amount"
      },
      "mint(address[],uint256[])": {
        "notice": "Mint wrapper tokens to an array of recipients"
      },
      "rescueFunds(address,address,uint256)": {
        "notice": "Rescue stranded funds"
      },
      "setVestingSchedule(uint256,uint256)": {
        "notice": "Set the vesting rate per second, based on an instant vesting amount, the desired vesting time and current vesting token balance"
      },
      "updateTotalVested()": {
        "notice": "Update the total vested amount"
      },
      "updatedTotalVested()": {
        "notice": "Calculate updated total vested amount"
      },
      "vestedByAccount(address)": {
        "notice": "How many vesting tokens an account is able to withdraw"
      },
      "vesting2wrapper(uint256)": {
        "notice": "Convert vesting token amount to wrapper"
      },
      "wrappedByAccount(address)": {
        "notice": "How many vesting tokens are wrapped by an account"
      },
      "wrapper2vesting(uint256)": {
        "notice": "Convert wrapper token amount to vesting tokens"
      }
    },
    "version": 1
  },
  "storageLayout": {
    "storage": [
      {
        "astId": 268,
        "contract": "contracts/rewards/VestingLaunchReward.sol:VestingLaunchReward",
        "label": "_balances",
        "offset": 0,
        "slot": "0",
        "type": "t_mapping(t_address,t_uint256)"
      },
      {
        "astId": 274,
        "contract": "contracts/rewards/VestingLaunchReward.sol:VestingLaunchReward",
        "label": "_allowances",
        "offset": 0,
        "slot": "1",
        "type": "t_mapping(t_address,t_mapping(t_address,t_uint256))"
      },
      {
        "astId": 276,
        "contract": "contracts/rewards/VestingLaunchReward.sol:VestingLaunchReward",
        "label": "_totalSupply",
        "offset": 0,
        "slot": "2",
        "type": "t_uint256"
      },
      {
        "astId": 278,
        "contract": "contracts/rewards/VestingLaunchReward.sol:VestingLaunchReward",
        "label": "_name",
        "offset": 0,
        "slot": "3",
        "type": "t_string_storage"
      },
      {
        "astId": 280,
        "contract": "contracts/rewards/VestingLaunchReward.sol:VestingLaunchReward",
        "label": "_symbol",
        "offset": 0,
        "slot": "4",
        "type": "t_string_storage"
      },
      {
        "astId": 1090,
        "contract": "contracts/rewards/VestingLaunchReward.sol:VestingLaunchReward",
        "label": "_nonces",
        "offset": 0,
        "slot": "5",
        "type": "t_mapping(t_address,t_struct(Counter)3209_storage)"
      },
      {
        "astId": 53,
        "contract": "contracts/rewards/VestingLaunchReward.sol:VestingLaunchReward",
        "label": "_owner",
        "offset": 0,
        "slot": "6",
        "type": "t_address"
      },
      {
        "astId": 23821,
        "contract": "contracts/rewards/VestingLaunchReward.sol:VestingLaunchReward",
        "label": "vestingRate",
        "offset": 0,
        "slot": "7",
        "type": "t_uint256"
      },
      {
        "astId": 23823,
        "contract": "contracts/rewards/VestingLaunchReward.sol:VestingLaunchReward",
        "label": "totalVested",
        "offset": 0,
        "slot": "8",
        "type": "t_uint256"
      },
      {
        "astId": 23825,
        "contract": "contracts/rewards/VestingLaunchReward.sol:VestingLaunchReward",
        "label": "totalVestedLastUpdated",
        "offset": 0,
        "slot": "9",
        "type": "t_uint256"
      },
      {
        "astId": 23828,
        "contract": "contracts/rewards/VestingLaunchReward.sol:VestingLaunchReward",
        "label": "totalWithdrawn",
        "offset": 0,
        "slot": "10",
        "type": "t_uint256"
      },
      {
        "astId": 23832,
        "contract": "contracts/rewards/VestingLaunchReward.sol:VestingLaunchReward",
        "label": "withdrawn",
        "offset": 0,
        "slot": "11",
        "type": "t_mapping(t_address,t_uint256)"
      }
    ],
    "types": {
      "t_address": {
        "encoding": "inplace",
        "label": "address",
        "numberOfBytes": "20"
      },
      "t_mapping(t_address,t_mapping(t_address,t_uint256))": {
        "encoding": "mapping",
        "key": "t_address",
        "label": "mapping(address => mapping(address => uint256))",
        "numberOfBytes": "32",
        "value": "t_mapping(t_address,t_uint256)"
      },
      "t_mapping(t_address,t_struct(Counter)3209_storage)": {
        "encoding": "mapping",
        "key": "t_address",
        "label": "mapping(address => struct Counters.Counter)",
        "numberOfBytes": "32",
        "value": "t_struct(Counter)3209_storage"
      },
      "t_mapping(t_address,t_uint256)": {
        "encoding": "mapping",
        "key": "t_address",
        "label": "mapping(address => uint256)",
        "numberOfBytes": "32",
        "value": "t_uint256"
      },
      "t_string_storage": {
        "encoding": "bytes",
        "label": "string",
        "numberOfBytes": "32"
      },
      "t_struct(Counter)3209_storage": {
        "encoding": "inplace",
        "label": "struct Counters.Counter",
        "members": [
          {
            "astId": 3208,
            "contract": "contracts/rewards/VestingLaunchReward.sol:VestingLaunchReward",
            "label": "_value",
            "offset": 0,
            "slot": "0",
            "type": "t_uint256"
          }
        ],
        "numberOfBytes": "32"
      },
      "t_uint256": {
        "encoding": "inplace",
        "label": "uint256",
        "numberOfBytes": "32"
      }
    }
  }
}