{
  "address": "0x575a21B34DFE94e46734252fEE17b5803538e905",
  "abi": [
    {
      "inputs": [
        {
          "internalType": "address",
          "name": "_roles",
          "type": "address"
        }
      ],
      "stateMutability": "nonpayable",
      "type": "constructor"
    },
    {
      "anonymous": false,
      "inputs": [
        {
          "indexed": false,
          "internalType": "string",
          "name": "param",
          "type": "string"
        },
        {
          "indexed": false,
          "internalType": "uint256",
          "name": "value",
          "type": "uint256"
        }
      ],
      "name": "ParameterUpdated",
      "type": "event"
    },
    {
      "anonymous": false,
      "inputs": [
        {
          "indexed": false,
          "internalType": "string",
          "name": "param",
          "type": "string"
        },
        {
          "indexed": false,
          "internalType": "address",
          "name": "subject",
          "type": "address"
        },
        {
          "indexed": false,
          "internalType": "uint256",
          "name": "value",
          "type": "uint256"
        }
      ],
      "name": "SubjectParameterUpdated",
      "type": "event"
    },
    {
      "anonymous": false,
      "inputs": [
        {
          "indexed": false,
          "internalType": "string",
          "name": "param",
          "type": "string"
        },
        {
          "indexed": false,
          "internalType": "address",
          "name": "subject",
          "type": "address"
        }
      ],
      "name": "SubjectUpdated",
      "type": "event"
    },
    {
      "inputs": [
        {
          "internalType": "uint256",
          "name": "",
          "type": "uint256"
        }
      ],
      "name": "_charactersPlayed",
      "outputs": [
        {
          "internalType": "uint256",
          "name": "",
          "type": "uint256"
        }
      ],
      "stateMutability": "view",
      "type": "function"
    },
    {
      "inputs": [
        {
          "internalType": "uint256",
          "name": "",
          "type": "uint256"
        }
      ],
      "name": "_dependsOnCharacters",
      "outputs": [
        {
          "internalType": "uint256",
          "name": "",
          "type": "uint256"
        }
      ],
      "stateMutability": "view",
      "type": "function"
    },
    {
      "inputs": [
        {
          "internalType": "uint256",
          "name": "",
          "type": "uint256"
        }
      ],
      "name": "_dependsOnRoles",
      "outputs": [
        {
          "internalType": "uint256",
          "name": "",
          "type": "uint256"
        }
      ],
      "stateMutability": "view",
      "type": "function"
    },
    {
      "inputs": [
        {
          "internalType": "uint256",
          "name": "",
          "type": "uint256"
        }
      ],
      "name": "_rolesPlayed",
      "outputs": [
        {
          "internalType": "uint256",
          "name": "",
          "type": "uint256"
        }
      ],
      "stateMutability": "view",
      "type": "function"
    },
    {
      "inputs": [],
      "name": "charactersPlayed",
      "outputs": [
        {
          "internalType": "uint256[]",
          "name": "",
          "type": "uint256[]"
        }
      ],
      "stateMutability": "view",
      "type": "function"
    },
    {
      "inputs": [],
      "name": "dependsOnCharacters",
      "outputs": [
        {
          "internalType": "uint256[]",
          "name": "",
          "type": "uint256[]"
        }
      ],
      "stateMutability": "view",
      "type": "function"
    },
    {
      "inputs": [],
      "name": "dependsOnRoles",
      "outputs": [
        {
          "internalType": "uint256[]",
          "name": "",
          "type": "uint256[]"
        }
      ],
      "stateMutability": "view",
      "type": "function"
    },
    {
      "inputs": [
        {
          "internalType": "address",
          "name": "tokenFrom",
          "type": "address"
        },
        {
          "internalType": "address",
          "name": "tokenTo",
          "type": "address"
        }
      ],
      "name": "encodeAndCheckOracleParams",
      "outputs": [
        {
          "internalType": "bool",
          "name": "",
          "type": "bool"
        },
        {
          "internalType": "bytes",
          "name": "",
          "type": "bytes"
        }
      ],
      "stateMutability": "view",
      "type": "function"
    },
    {
      "inputs": [
        {
          "internalType": "address",
          "name": "token",
          "type": "address"
        },
        {
          "internalType": "uint256",
          "name": "inAmount",
          "type": "uint256"
        },
        {
          "internalType": "address",
          "name": "wrappedCurrency",
          "type": "address"
        }
      ],
      "name": "getAmountInPeg",
      "outputs": [
        {
          "internalType": "uint256",
          "name": "",
          "type": "uint256"
        }
      ],
      "stateMutability": "nonpayable",
      "type": "function"
    },
    {
      "inputs": [
        {
          "internalType": "address",
          "name": "token",
          "type": "address"
        },
        {
          "internalType": "uint256",
          "name": "inAmount",
          "type": "uint256"
        },
        {
          "internalType": "address",
          "name": "pegCurrency",
          "type": "address"
        }
      ],
      "name": "getPegAmountAndBorrowable",
      "outputs": [
        {
          "internalType": "uint256",
          "name": "",
          "type": "uint256"
        },
        {
          "internalType": "uint256",
          "name": "",
          "type": "uint256"
        }
      ],
      "stateMutability": "nonpayable",
      "type": "function"
    },
    {
      "inputs": [
        {
          "internalType": "uint256",
          "name": "",
          "type": "uint256"
        }
      ],
      "name": "mainCharacterCache",
      "outputs": [
        {
          "internalType": "address",
          "name": "",
          "type": "address"
        }
      ],
      "stateMutability": "view",
      "type": "function"
    },
    {
      "inputs": [
        {
          "internalType": "address",
          "name": "",
          "type": "address"
        }
      ],
      "name": "oracleState",
      "outputs": [
        {
          "internalType": "uint256",
          "name": "lastValuePer1e18",
          "type": "uint256"
        },
        {
          "internalType": "uint256",
          "name": "valuePer1e18",
          "type": "uint256"
        },
        {
          "internalType": "uint256",
          "name": "lastUpdated",
          "type": "uint256"
        },
        {
          "internalType": "address",
          "name": "wrappedToken",
          "type": "address"
        }
      ],
      "stateMutability": "view",
      "type": "function"
    },
    {
      "inputs": [
        {
          "internalType": "address",
          "name": "",
          "type": "address"
        },
        {
          "internalType": "uint256",
          "name": "",
          "type": "uint256"
        }
      ],
      "name": "roleCache",
      "outputs": [
        {
          "internalType": "bool",
          "name": "",
          "type": "bool"
        }
      ],
      "stateMutability": "view",
      "type": "function"
    },
    {
      "inputs": [],
      "name": "roles",
      "outputs": [
        {
          "internalType": "contract Roles",
          "name": "",
          "type": "address"
        }
      ],
      "stateMutability": "view",
      "type": "function"
    },
    {
      "inputs": [],
      "name": "rolesPlayed",
      "outputs": [
        {
          "internalType": "uint256[]",
          "name": "",
          "type": "uint256[]"
        }
      ],
      "stateMutability": "view",
      "type": "function"
    },
    {
      "inputs": [
        {
          "internalType": "address",
          "name": "token",
          "type": "address"
        },
        {
          "internalType": "address",
          "name": "pegCurrency",
          "type": "address"
        },
        {
          "internalType": "bytes",
          "name": "data",
          "type": "bytes"
        }
      ],
      "name": "setOracleParams",
      "outputs": [],
      "stateMutability": "nonpayable",
      "type": "function"
    },
    {
      "inputs": [
        {
          "internalType": "address",
          "name": "fromToken",
          "type": "address"
        },
        {
          "internalType": "address",
          "name": "toToken",
          "type": "address"
        }
      ],
      "name": "setOracleSpecificParams",
      "outputs": [],
      "stateMutability": "nonpayable",
      "type": "function"
    },
    {
      "inputs": [
        {
          "internalType": "uint256",
          "name": "window",
          "type": "uint256"
        }
      ],
      "name": "setUpdateWindow",
      "outputs": [],
      "stateMutability": "nonpayable",
      "type": "function"
    },
    {
      "inputs": [
        {
          "internalType": "uint256",
          "name": "smoothingPer10k",
          "type": "uint256"
        }
      ],
      "name": "setValueSmoothingPer10k",
      "outputs": [],
      "stateMutability": "nonpayable",
      "type": "function"
    },
    {
      "inputs": [
        {
          "internalType": "uint256",
          "name": "role",
          "type": "uint256"
        }
      ],
      "name": "updateMainCharacterCache",
      "outputs": [],
      "stateMutability": "nonpayable",
      "type": "function"
    },
    {
      "inputs": [
        {
          "internalType": "uint256",
          "name": "role",
          "type": "uint256"
        },
        {
          "internalType": "address",
          "name": "contr",
          "type": "address"
        }
      ],
      "name": "updateRoleCache",
      "outputs": [],
      "stateMutability": "nonpayable",
      "type": "function"
    },
    {
      "inputs": [],
      "name": "valueSmoothingPer10k",
      "outputs": [
        {
          "internalType": "uint256",
          "name": "",
          "type": "uint256"
        }
      ],
      "stateMutability": "view",
      "type": "function"
    },
    {
      "inputs": [
        {
          "internalType": "address",
          "name": "token",
          "type": "address"
        },
        {
          "internalType": "uint256",
          "name": "inAmount",
          "type": "uint256"
        },
        {
          "internalType": "address",
          "name": "wrappedCurrency",
          "type": "address"
        }
      ],
      "name": "viewAmountInPeg",
      "outputs": [
        {
          "internalType": "uint256",
          "name": "",
          "type": "uint256"
        }
      ],
      "stateMutability": "view",
      "type": "function"
    },
    {
      "inputs": [
        {
          "internalType": "address",
          "name": "token",
          "type": "address"
        },
        {
          "internalType": "uint256",
          "name": "inAmount",
          "type": "uint256"
        },
        {
          "internalType": "address",
          "name": "pegCurrency",
          "type": "address"
        }
      ],
      "name": "viewPegAmountAndBorrowable",
      "outputs": [
        {
          "internalType": "uint256",
          "name": "",
          "type": "uint256"
        },
        {
          "internalType": "uint256",
          "name": "",
          "type": "uint256"
        }
      ],
      "stateMutability": "view",
      "type": "function"
    }
  ],
  "transactionHash": "0xe14fa80b1a2c0166857e1b64940433db86c055d9222ffd43727908c3f8619e73",
  "args": [
    "0x9e1EE00d45252aA58623F7d771FB414aA38f0878"
  ],
  "solcInputHash": "a3f5a7ec280504760474f1ac740ef4b2",
  "bytecode": "0x60a060405261138860065561012c60075534801561001c57600080fd5b506040516115a13803806115a183398101604081905261003b916100ee565b806001600160a01b0381166100a15760405162461bcd60e51b815260206004820152602260248201527f506c656173652070726f766964652076616c696420726f6c6573206164647265604482015261737360f01b606482015260840160405180910390fd5b60601b6001600160601b0319166080525060028054600181018255600091909152606a7f405787fa12a823e0f2b7631cc41b3ba8828b3321ca811111fa75cd3aa3bb5ace9091015561011c565b6000602082840312156100ff578081fd5b81516001600160a01b0381168114610115578182fd5b9392505050565b60805160601c61144b610156600039600081816101ec015281816104010152818161072001528181610cd60152610d6e015261144b6000f3fe608060405234801561001057600080fd5b50600436106101285760003560e01c8063071060a61461012d5780630db8fd421461014257806321456ff5146101555780632eb1504b146101c157806332f42fe6146101d4578063392f5f64146101e7578063447d52ba1461021b5780634a7a7f411461022e5780634fcd54a414610243578063576cbc301461026b57806369aa57d11461028c5780636caa9c111461029f5780637a1a04df146102b25780637dad209b146102f0578063885fa056146102f85780638eaab58c1461030b578063abcbc4fc1461031e578063aeb38d8b14610331578063b5317c5d14610344578063bf184ea41461034d578063d239f46914610360578063dc94cb7d146103b2578063e8ea4fae146103ba578063e9c3f77d146103c2575b600080fd5b61014061013b366004611206565b6103eb565b005b6101406101503660046110b6565b6104b1565b610193610163366004611077565b6008602052600090815260409020805460018201546002830154600390930154919290916001600160a01b031684565b604080519485526020850193909352918301526001600160a01b031660608201526080015b60405180910390f35b6101406101cf366004611206565b610511565b6101406101e23660046110ee565b610608565b61020e7f000000000000000000000000000000000000000000000000000000000000000081565b6040516101b8919061125a565b610140610229366004611236565b6106fa565b6102366107d2565b6040516101b8919061126e565b6102566102513660046111a5565b61082a565b604080519283526020830191909152016101b8565b61027e6102793660046111a5565b6108c7565b6040519081526020016101b8565b61014061029a366004611206565b610a86565b61027e6102ad366004611206565b610ad4565b6102e06102c036600461117a565b600160209081526000928352604080842090915290825290205460ff1681565b60405190151581526020016101b8565b610236610af5565b6102566103063660046111a5565b610b4b565b61027e6103193660046111a5565b610b59565b61027e61032c366004611206565b610bf6565b61027e61033f366004611206565b610c06565b61027e60065481565b61027e61035b366004611206565b610c16565b6103a461036e3660046110b6565b6001600160a01b039182166000908152600860209081526040808320600301548151928301909152918152908316919092161491565b6040516101b89291906112b2565b610236610c26565b610236610c7c565b61020e6103d0366004611206565b6000602081905290815260409020546001600160a01b031681565b60405163b4ed0b6d60e01b8152600481018290527f00000000000000000000000000000000000000000000000000000000000000006001600160a01b03169063b4ed0b6d9060240160206040518083038186803b15801561044b57600080fd5b505afa15801561045f573d6000803e3d6000fd5b505050506040513d601f19601f82011682018060405250810190610483919061109a565b60009182526020829052604090912080546001600160a01b0319166001600160a01b03909216919091179055565b336104ba610cd2565b6001600160a01b031614806104de5750336104d3610d6a565b6001600160a01b0316145b6105035760405162461bcd60e51b81526004016104fa9061130f565b60405180910390fd5b61050d8282610ddb565b5050565b3361051a610cd2565b6001600160a01b0316148061053e575033610533610d6a565b6001600160a01b0316145b61055a5760405162461bcd60e51b81526004016104fa9061130f565b8061271010156105a85760405162461bcd60e51b81526020600482015260196024820152784e6565647320746f206265206c657373207468616e2031306b60381b60448201526064016104fa565b600681905560408051818152600f818301526e76616c756520736d6f6f7468696e6760881b60608201526020810183905290517f3a64504f0bc0c335e2aecb78638a257e0351a3fe0370861fd54ee4190b9209339181900360800190a150565b33610611611030565b6001600160a01b0316146106675760405162461bcd60e51b815260206004820152601d60248201527f4e6f7420617574686f72697a656420746f20696e6974206f7261636c6500000060448201526064016104fa565b6106a8848484848080601f01602080910402602001604051908101604052809392919081815260200183838082843760009201919091525061106892505050565b60408051818152600d818301526c6f7261636c6520706172616d7360981b60608201526001600160a01b038616602082015290516000805160206113f68339815191529181900360800190a150505050565b60405163f0723d9760e01b81526001600160a01b038281166004830152602482018490527f0000000000000000000000000000000000000000000000000000000000000000169063f0723d979060440160206040518083038186803b15801561076257600080fd5b505afa158015610776573d6000803e3d6000fd5b505050506040513d601f19601f8201168201806040525081019061079a91906111e6565b6001600160a01b0391909116600090815260016020908152604080832094835293905291909120805460ff1916911515919091179055565b6060600380548060200260200160405190810160405280929190818152602001828054801561082057602002820191906000526020600020905b81548152602001906001019080831161080c575b5050505050905090565b600080610838858585610b59565b610840611030565b6001600160a01b03166315c2ba50876040518263ffffffff1660e01b815260040161086b919061125a565b60206040518083038186803b15801561088357600080fd5b505afa158015610897573d6000803e3d6000fd5b505050506040513d601f19601f820116820180604052508101906108bb919061121e565b91509150935093915050565b6000806108d5858585610b59565b6001600160a01b03861660009081526008602052604090206007546002820154929350909161090490426113b0565b1115610a7d574281600201819055506000866001600160a01b03166318160ddd6040518163ffffffff1660e01b815260040160206040518083038186803b15801561094e57600080fd5b505afa158015610962573d6000803e3d6000fd5b505050506040513d601f19601f82011682018060405250810190610986919061121e565b90506000856001600160a01b03166370a08231896040518263ffffffff1660e01b81526004016109b6919061125a565b60206040518083038186803b1580156109ce57600080fd5b505afa1580156109e2573d6000803e3d6000fd5b505050506040513d601f19601f82011682018060405250810190610a06919061121e565b9050600082610a1d83670de0b6b3a7640000611391565b610a279190611371565b60018501548555600654909150612710908290610a4490836113b0565b610a4e9190611391565b8560010154600654610a609190611391565b610a6a9190611359565b610a749190611371565b60018501555050505b50949350505050565b33610a8f610cd2565b6001600160a01b03161480610ab3575033610aa8610d6a565b6001600160a01b0316145b610acf5760405162461bcd60e51b81526004016104fa9061130f565b600755565b60058181548110610ae457600080fd5b600091825260209091200154905081565b60606004805480602002602001604051908101604052809291908181526020018280548015610820576020028201919060005260206000209081548152602001906001019080831161080c575050505050905090565b6000806108388585856108c7565b6001600160a01b038084166000908152600860205260408120600381015491929091848216911614610bcd5760405162461bcd60e51b815260206004820181905260248201527f5175657279696e6720666f722077726f6e67207772617070656420746f6b656e60448201526064016104fa565b8054670de0b6b3a764000090610be39086611391565b610bed9190611371565b95945050505050565b60028181548110610ae457600080fd5b60048181548110610ae457600080fd5b60038181548110610ae457600080fd5b60606002805480602002602001604051908101604052809291908181526020018280548015610820576020028201919060005260206000209081548152602001906001019080831161080c575050505050905090565b60606005805480602002602001604051908101604052809291908181526020018280548015610820576020028201919060005260206000209081548152602001906001019080831161080c575050505050905090565b60007f00000000000000000000000000000000000000000000000000000000000000006001600160a01b0316638da5cb5b6040518163ffffffff1660e01b815260040160206040518083038186803b158015610d2d57600080fd5b505afa158015610d41573d6000803e3d6000fd5b505050506040513d601f19601f82011682018060405250810190610d65919061109a565b905090565b60007f00000000000000000000000000000000000000000000000000000000000000006001600160a01b031663c34c08e56040518163ffffffff1660e01b8152600401602060405180830381600087803b158015610dc757600080fd5b505af1158015610d41573d6000803e3d6000fd5b6001600160a01b03808316600090815260086020526040902060038101549091161580610e17575060038101546001600160a01b038381169116145b610e6f5760405162461bcd60e51b8152602060048201526024808201527f547279696e6720746f206f7665727772697465206578697374696e6720777261604482015263383832b960e11b60648201526084016104fa565b818160030160006101000a8154816001600160a01b0302191690836001600160a01b031602179055506000836001600160a01b03166318160ddd6040518163ffffffff1660e01b815260040160206040518083038186803b158015610ed357600080fd5b505afa158015610ee7573d6000803e3d6000fd5b505050506040513d601f19601f82011682018060405250810190610f0b919061121e565b90506000836001600160a01b03166370a08231866040518263ffffffff1660e01b8152600401610f3b919061125a565b60206040518083038186803b158015610f5357600080fd5b505afa158015610f67573d6000803e3d6000fd5b505050506040513d601f19601f82011682018060405250810190610f8b919061121e565b905081610fa082670de0b6b3a7640000611391565b610faa9190611371565b600184015581610fc282670de0b6b3a7640000611391565b610fcc9190611371565b835542600284015560408051818152601681830152756f7261636c6520737065636966696320706172616d7360501b60608201526001600160a01b038716602082015290516000805160206113f68339815191529181900360800190a15050505050565b606a60009081526020527ff3261457f4fd0b7c00a1511877ab27b74183ac470be8db3a7ecdc64335f6f979546001600160a01b031690565b6110728383610ddb565b505050565b600060208284031215611088578081fd5b8135611093816113dd565b9392505050565b6000602082840312156110ab578081fd5b8151611093816113dd565b600080604083850312156110c8578081fd5b82356110d3816113dd565b915060208301356110e3816113dd565b809150509250929050565b60008060008060608587031215611103578182fd5b843561110e816113dd565b9350602085013561111e816113dd565b925060408501356001600160401b0380821115611139578384fd5b818701915087601f83011261114c578384fd5b81358181111561115a578485fd5b88602082850101111561116b578485fd5b95989497505060200194505050565b6000806040838503121561118c578182fd5b8235611197816113dd565b946020939093013593505050565b6000806000606084860312156111b9578283fd5b83356111c4816113dd565b92506020840135915060408401356111db816113dd565b809150509250925092565b6000602082840312156111f7578081fd5b81518015158114611093578182fd5b600060208284031215611217578081fd5b5035919050565b60006020828403121561122f578081fd5b5051919050565b60008060408385031215611248578182fd5b8235915060208301356110e3816113dd565b6001600160a01b0391909116815260200190565b6020808252825182820181905260009190848201906040850190845b818110156112a65783518352928401929184019160010161128a565b50909695505050505050565b6000831515825260206040818401528351806040850152825b818110156112e7578581018301518582016060015282016112cb565b818111156112f85783606083870101525b50601f01601f191692909201606001949350505050565b6020808252602a908201527f526f6c65733a2063616c6c6572206973206e6f7420746865206f776e6572206f604082015269391032bc32b1baba37b960b11b606082015260800190565b6000821982111561136c5761136c6113c7565b500190565b60008261138c57634e487b7160e01b81526012600452602481fd5b500490565b60008160001904831182151516156113ab576113ab6113c7565b500290565b6000828210156113c2576113c26113c7565b500390565b634e487b7160e01b600052601160045260246000fd5b6001600160a01b03811681146113f257600080fd5b5056febd64fae90eab1019a6c354538cfa598ad3d642c5b1bc8a8613bcb716723fa2d7a2646970667358221220bcc02244c4fc3d8ae3ade0872b0cab0d15f7686bc5033a2c6a88adc373670e5164736f6c63430008030033",
  "devdoc": {
    "kind": "dev",
    "methods": {
      "charactersPlayed()": {
        "details": "returns all characters played by this contract (e.g. stable coin, oracle registry)"
      },
      "dependsOnCharacters()": {
        "details": "returns all the character dependencies like FEE_RECIPIENT"
      },
      "dependsOnRoles()": {
        "details": "returns all the roles dependencies of this contract like FUND_TRANSFERER"
      },
      "rolesPlayed()": {
        "details": "returns all roles played by this contract"
      },
      "updateMainCharacterCache(uint256)": {
        "details": "Updates the main character cache for a speciic character"
      },
      "updateRoleCache(uint256,address)": {
        "details": "Updates the role cache for a specific role and address"
      }
    },
    "version": 1
  },
  "userdoc": {
    "kind": "user",
    "methods": {
      "encodeAndCheckOracleParams(address,address)": {
        "notice": "Encode params for initialization"
      },
      "getAmountInPeg(address,uint256,address)": {
        "notice": "Convert inAmount to peg (updating)"
      },
      "setOracleSpecificParams(address,address)": {
        "notice": "Set the wrapped currency"
      },
      "viewAmountInPeg(address,uint256,address)": {
        "notice": "Convert inAmount to peg (view)"
      }
    },
    "version": 1
  },
  "storageLayout": {
    "storage": [
      {
        "astId": 23807,
        "contract": "contracts/oracles/WrapperTokenOracle.sol:WrapperTokenOracle",
        "label": "mainCharacterCache",
        "offset": 0,
        "slot": "0",
        "type": "t_mapping(t_uint256,t_address)"
      },
      {
        "astId": 23813,
        "contract": "contracts/oracles/WrapperTokenOracle.sol:WrapperTokenOracle",
        "label": "roleCache",
        "offset": 0,
        "slot": "1",
        "type": "t_mapping(t_address,t_mapping(t_uint256,t_bool))"
      },
      {
        "astId": 23816,
        "contract": "contracts/oracles/WrapperTokenOracle.sol:WrapperTokenOracle",
        "label": "_dependsOnCharacters",
        "offset": 0,
        "slot": "2",
        "type": "t_array(t_uint256)dyn_storage"
      },
      {
        "astId": 23819,
        "contract": "contracts/oracles/WrapperTokenOracle.sol:WrapperTokenOracle",
        "label": "_dependsOnRoles",
        "offset": 0,
        "slot": "3",
        "type": "t_array(t_uint256)dyn_storage"
      },
      {
        "astId": 23822,
        "contract": "contracts/oracles/WrapperTokenOracle.sol:WrapperTokenOracle",
        "label": "_charactersPlayed",
        "offset": 0,
        "slot": "4",
        "type": "t_array(t_uint256)dyn_storage"
      },
      {
        "astId": 23825,
        "contract": "contracts/oracles/WrapperTokenOracle.sol:WrapperTokenOracle",
        "label": "_rolesPlayed",
        "offset": 0,
        "slot": "5",
        "type": "t_array(t_uint256)dyn_storage"
      },
      {
        "astId": 22074,
        "contract": "contracts/oracles/WrapperTokenOracle.sol:WrapperTokenOracle",
        "label": "valueSmoothingPer10k",
        "offset": 0,
        "slot": "6",
        "type": "t_uint256"
      },
      {
        "astId": 22077,
        "contract": "contracts/oracles/WrapperTokenOracle.sol:WrapperTokenOracle",
        "label": "updateWindow",
        "offset": 0,
        "slot": "7",
        "type": "t_uint256"
      },
      {
        "astId": 22091,
        "contract": "contracts/oracles/WrapperTokenOracle.sol:WrapperTokenOracle",
        "label": "oracleState",
        "offset": 0,
        "slot": "8",
        "type": "t_mapping(t_address,t_struct(OracleState)22086_storage)"
      }
    ],
    "types": {
      "t_address": {
        "encoding": "inplace",
        "label": "address",
        "numberOfBytes": "20"
      },
      "t_array(t_uint256)dyn_storage": {
        "base": "t_uint256",
        "encoding": "dynamic_array",
        "label": "uint256[]",
        "numberOfBytes": "32"
      },
      "t_bool": {
        "encoding": "inplace",
        "label": "bool",
        "numberOfBytes": "1"
      },
      "t_mapping(t_address,t_mapping(t_uint256,t_bool))": {
        "encoding": "mapping",
        "key": "t_address",
        "label": "mapping(address => mapping(uint256 => bool))",
        "numberOfBytes": "32",
        "value": "t_mapping(t_uint256,t_bool)"
      },
      "t_mapping(t_address,t_struct(OracleState)22086_storage)": {
        "encoding": "mapping",
        "key": "t_address",
        "label": "mapping(address => struct WrapperTokenOracle.OracleState)",
        "numberOfBytes": "32",
        "value": "t_struct(OracleState)22086_storage"
      },
      "t_mapping(t_uint256,t_address)": {
        "encoding": "mapping",
        "key": "t_uint256",
        "label": "mapping(uint256 => address)",
        "numberOfBytes": "32",
        "value": "t_address"
      },
      "t_mapping(t_uint256,t_bool)": {
        "encoding": "mapping",
        "key": "t_uint256",
        "label": "mapping(uint256 => bool)",
        "numberOfBytes": "32",
        "value": "t_bool"
      },
      "t_struct(OracleState)22086_storage": {
        "encoding": "inplace",
        "label": "struct WrapperTokenOracle.OracleState",
        "members": [
          {
            "astId": 22079,
            "contract": "contracts/oracles/WrapperTokenOracle.sol:WrapperTokenOracle",
            "label": "lastValuePer1e18",
            "offset": 0,
            "slot": "0",
            "type": "t_uint256"
          },
          {
            "astId": 22081,
            "contract": "contracts/oracles/WrapperTokenOracle.sol:WrapperTokenOracle",
            "label": "valuePer1e18",
            "offset": 0,
            "slot": "1",
            "type": "t_uint256"
          },
          {
            "astId": 22083,
            "contract": "contracts/oracles/WrapperTokenOracle.sol:WrapperTokenOracle",
            "label": "lastUpdated",
            "offset": 0,
            "slot": "2",
            "type": "t_uint256"
          },
          {
            "astId": 22085,
            "contract": "contracts/oracles/WrapperTokenOracle.sol:WrapperTokenOracle",
            "label": "wrappedToken",
            "offset": 0,
            "slot": "3",
            "type": "t_address"
          }
        ],
        "numberOfBytes": "128"
      },
      "t_uint256": {
        "encoding": "inplace",
        "label": "uint256",
        "numberOfBytes": "32"
      }
    }
  }
}