{
  "address": "0xF5D5F849d057Bad242BabB034794889F3de7301c",
  "abi": [
    {
      "inputs": [
        {
          "internalType": "address",
          "name": "_intermediaryToken",
          "type": "address"
        },
        {
          "internalType": "address",
          "name": "_defaultStable",
          "type": "address"
        },
        {
          "internalType": "address",
          "name": "_curveZap",
          "type": "address"
        },
        {
          "internalType": "address[]",
          "name": "stables",
          "type": "address[]"
        },
        {
          "internalType": "address",
          "name": "_roles",
          "type": "address"
        }
      ],
      "stateMutability": "nonpayable",
      "type": "constructor"
    },
    {
      "anonymous": false,
      "inputs": [
        {
          "indexed": false,
          "internalType": "string",
          "name": "param",
          "type": "string"
        },
        {
          "indexed": false,
          "internalType": "uint256",
          "name": "value",
          "type": "uint256"
        }
      ],
      "name": "ParameterUpdated",
      "type": "event"
    },
    {
      "anonymous": false,
      "inputs": [
        {
          "indexed": false,
          "internalType": "string",
          "name": "param",
          "type": "string"
        },
        {
          "indexed": false,
          "internalType": "address",
          "name": "subject",
          "type": "address"
        },
        {
          "indexed": false,
          "internalType": "uint256",
          "name": "value",
          "type": "uint256"
        }
      ],
      "name": "SubjectParameterUpdated",
      "type": "event"
    },
    {
      "anonymous": false,
      "inputs": [
        {
          "indexed": false,
          "internalType": "string",
          "name": "param",
          "type": "string"
        },
        {
          "indexed": false,
          "internalType": "address",
          "name": "subject",
          "type": "address"
        }
      ],
      "name": "SubjectUpdated",
      "type": "event"
    },
    {
      "inputs": [
        {
          "internalType": "uint256",
          "name": "",
          "type": "uint256"
        }
      ],
      "name": "_charactersPlayed",
      "outputs": [
        {
          "internalType": "uint256",
          "name": "",
          "type": "uint256"
        }
      ],
      "stateMutability": "view",
      "type": "function"
    },
    {
      "inputs": [
        {
          "internalType": "uint256",
          "name": "",
          "type": "uint256"
        }
      ],
      "name": "_dependsOnCharacters",
      "outputs": [
        {
          "internalType": "uint256",
          "name": "",
          "type": "uint256"
        }
      ],
      "stateMutability": "view",
      "type": "function"
    },
    {
      "inputs": [
        {
          "internalType": "uint256",
          "name": "",
          "type": "uint256"
        }
      ],
      "name": "_dependsOnRoles",
      "outputs": [
        {
          "internalType": "uint256",
          "name": "",
          "type": "uint256"
        }
      ],
      "stateMutability": "view",
      "type": "function"
    },
    {
      "inputs": [
        {
          "internalType": "address",
          "name": "",
          "type": "address"
        },
        {
          "internalType": "address",
          "name": "",
          "type": "address"
        }
      ],
      "name": "_oracleCache",
      "outputs": [
        {
          "internalType": "address",
          "name": "",
          "type": "address"
        }
      ],
      "stateMutability": "view",
      "type": "function"
    },
    {
      "inputs": [
        {
          "internalType": "uint256",
          "name": "",
          "type": "uint256"
        }
      ],
      "name": "_rolesPlayed",
      "outputs": [
        {
          "internalType": "uint256",
          "name": "",
          "type": "uint256"
        }
      ],
      "stateMutability": "view",
      "type": "function"
    },
    {
      "inputs": [],
      "name": "charactersPlayed",
      "outputs": [
        {
          "internalType": "uint256[]",
          "name": "",
          "type": "uint256[]"
        }
      ],
      "stateMutability": "view",
      "type": "function"
    },
    {
      "inputs": [],
      "name": "dependsOnCharacters",
      "outputs": [
        {
          "internalType": "uint256[]",
          "name": "",
          "type": "uint256[]"
        }
      ],
      "stateMutability": "view",
      "type": "function"
    },
    {
      "inputs": [],
      "name": "dependsOnRoles",
      "outputs": [
        {
          "internalType": "uint256[]",
          "name": "",
          "type": "uint256[]"
        }
      ],
      "stateMutability": "view",
      "type": "function"
    },
    {
      "inputs": [
        {
          "internalType": "uint256",
          "name": "trancheId",
          "type": "uint256"
        },
        {
          "internalType": "address",
          "name": "router",
          "type": "address"
        },
        {
          "internalType": "address",
          "name": "recipient",
          "type": "address"
        }
      ],
      "name": "liquidate",
      "outputs": [],
      "stateMutability": "nonpayable",
      "type": "function"
    },
    {
      "inputs": [
        {
          "internalType": "uint256",
          "name": "",
          "type": "uint256"
        }
      ],
      "name": "mainCharacterCache",
      "outputs": [
        {
          "internalType": "address",
          "name": "",
          "type": "address"
        }
      ],
      "stateMutability": "view",
      "type": "function"
    },
    {
      "inputs": [
        {
          "internalType": "address",
          "name": "token",
          "type": "address"
        },
        {
          "internalType": "address",
          "name": "pegCurrency",
          "type": "address"
        }
      ],
      "name": "newCurrentOracle",
      "outputs": [],
      "stateMutability": "nonpayable",
      "type": "function"
    },
    {
      "inputs": [
        {
          "internalType": "address",
          "name": "",
          "type": "address"
        },
        {
          "internalType": "address",
          "name": "",
          "type": "address"
        },
        {
          "internalType": "uint256",
          "name": "amount",
          "type": "uint256"
        },
        {
          "internalType": "uint256",
          "name": "",
          "type": "uint256"
        },
        {
          "internalType": "bytes",
          "name": "data",
          "type": "bytes"
        }
      ],
      "name": "onFlashLoan",
      "outputs": [
        {
          "internalType": "bytes32",
          "name": "",
          "type": "bytes32"
        }
      ],
      "stateMutability": "nonpayable",
      "type": "function"
    },
    {
      "inputs": [],
      "name": "resetApproval",
      "outputs": [],
      "stateMutability": "nonpayable",
      "type": "function"
    },
    {
      "inputs": [
        {
          "internalType": "address",
          "name": "",
          "type": "address"
        },
        {
          "internalType": "uint256",
          "name": "",
          "type": "uint256"
        }
      ],
      "name": "roleCache",
      "outputs": [
        {
          "internalType": "bool",
          "name": "",
          "type": "bool"
        }
      ],
      "stateMutability": "view",
      "type": "function"
    },
    {
      "inputs": [],
      "name": "roles",
      "outputs": [
        {
          "internalType": "contract Roles",
          "name": "",
          "type": "address"
        }
      ],
      "stateMutability": "view",
      "type": "function"
    },
    {
      "inputs": [],
      "name": "rolesPlayed",
      "outputs": [
        {
          "internalType": "uint256[]",
          "name": "",
          "type": "uint256[]"
        }
      ],
      "stateMutability": "view",
      "type": "function"
    },
    {
      "inputs": [
        {
          "internalType": "address",
          "name": "",
          "type": "address"
        }
      ],
      "name": "stableIndices",
      "outputs": [
        {
          "internalType": "int128",
          "name": "",
          "type": "int128"
        }
      ],
      "stateMutability": "view",
      "type": "function"
    },
    {
      "inputs": [
        {
          "internalType": "uint256",
          "name": "role",
          "type": "uint256"
        }
      ],
      "name": "updateMainCharacterCache",
      "outputs": [],
      "stateMutability": "nonpayable",
      "type": "function"
    },
    {
      "inputs": [
        {
          "internalType": "uint256",
          "name": "role",
          "type": "uint256"
        },
        {
          "internalType": "address",
          "name": "contr",
          "type": "address"
        }
      ],
      "name": "updateRoleCache",
      "outputs": [],
      "stateMutability": "nonpayable",
      "type": "function"
    }
  ],
  "transactionHash": "0x782362074cad3bb6c7e17459d4898b39eacf87593e8b32b199c1ece5061b129f",
  "args": [
    "0xd586e7f844cea2f87f50152665bcbc2c279d8d70",
    "0xc7198437980c041c805A1EDcbA50c1Ce5db95118",
    "0x001E3BA199B4FF4B5B6e97aCD96daFC0E2e4156e",
    [
      "0xd586e7f844cea2f87f50152665bcbc2c279d8d70",
      "0xA7D7079b0FEaD91F3e65f86E8915Cb59c1a4C664",
      "0xc7198437980c041c805A1EDcbA50c1Ce5db95118"
    ],
    "0x9e1EE00d45252aA58623F7d771FB414aA38f0878"
  ],
  "numDeployments": 1,
  "solcInputHash": "73b3918df66119cc3553d4766602e480",
  "bytecode": "0x6101006040523480156200001257600080fd5b506040516200276b3803806200276b8339810160408190526200003591620003fa565b84848484848484848484806001600160a01b038116620000a65760405162461bcd60e51b815260206004820152602260248201527f506c656173652070726f766964652076616c696420726f6c6573206164647265604482015261737360f01b606482015260840160405180910390fd5b60601b6001600160601b031916608052600280546001808201835560667f405787fa12a823e0f2b7631cc41b3ba8828b3321ca811111fa75cd3aa3bb5ace92830181905583548083018555606d9084015583548083018555606f90840155835480830185556070908401558354808301909455606a9390920192909255600580549283018155600090815260047f036b6384b5eca791c62761152d0c79bb0604c104a5fb6f4eb0703f3154bb3db090930183905560405163b4ed0b6d60e01b815292830191909152906001600160a01b0383169063b4ed0b6d9060240160206040518083038186803b1580156200019c57600080fd5b505afa158015620001b1573d6000803e3d6000fd5b505050506040513d601f19601f82011682018060405250810190620001d79190620003d6565b60405163095ea7b360e01b81526001600160a01b03821660048201819052600019602483015291925063095ea7b390604401602060405180830381600087803b1580156200022457600080fd5b505af115801562000239573d6000803e3d6000fd5b505050506040513d601f19601f820116820180604052508101906200025f91906200051c565b5060025b80845160026200027491906200053e565b111562000312578060076000866200028e60028562000559565b81518110620002ad57634e487b7160e01b600052603260045260246000fd5b60200260200101516001600160a01b03166001600160a01b0316815260200190815260200160002060006101000a8154816001600160801b030219169083600f0b6001600160801b031602179055508080620003099062000573565b91505062000263565b506001600160a01b0316600090815260076020526040812080546001600160801b03191660019081179091556001600160601b0319606097881b811660a05295871b861660c0529390951b90931660e052506004805480830182559381905260ca7f8a35acfbc15ff81a39ae7d344fd709f28e8600b4aa8c65c6b64bfe7fe36bd19b948501558054918201905560c992019190915550620005bd9950505050505050505050565b80516001600160a01b0381168114620003d157600080fd5b919050565b600060208284031215620003e8578081fd5b620003f382620003b9565b9392505050565b600080600080600060a0868803121562000412578081fd5b6200041d86620003b9565b945060206200042e818801620003b9565b94506200043e60408801620003b9565b60608801519094506001600160401b03808211156200045b578384fd5b818901915089601f8301126200046f578384fd5b815181811115620004845762000484620005a7565b8060051b604051601f19603f83011681018181108582111715620004ac57620004ac620005a7565b604052828152858101935084860182860187018e1015620004cb578788fd5b8795505b83861015620004f857620004e381620003b9565b855260019590950194938601938601620004cf565b508097505050505050506200051060808701620003b9565b90509295509295909350565b6000602082840312156200052e578081fd5b81518015158114620003f3578182fd5b6000821982111562000554576200055462000591565b500190565b6000828210156200056e576200056e62000591565b500390565b60006000198214156200058a576200058a62000591565b5060010190565b634e487b7160e01b600052601160045260246000fd5b634e487b7160e01b600052604160045260246000fd5b60805160601c60a05160601c60c05160601c60e05160601c61214c6200061f6000396000818161189d01526118c40152600061159c0152600081816115bf01526117050152600081816101a50152818161048c01526107a1015261214c6000f3fe608060405234801561001057600080fd5b50600436106100f15760003560e01c8063060336ec146100f6578063071060a61461010b57806323e30c8b1461011e5780632642b6061461014457806328f3fc7314610185578063330b8b7114610198578063392f5f64146101a0578063447d52ba146101c75780634a7a7f41146101da5780636caa9c11146101ef5780637a1a04df146102025780637dad209b14610240578063abcbc4fc14610248578063aeb38d8b1461025b578063bf184ea41461026e578063dc94cb7d14610281578063e8ea4fae14610289578063e9c3f77d14610291578063f389299e146102ba575b600080fd5b610109610104366004611dcb565b6102f0565b005b610109610119366004611d77565b610476565b61013161012c366004611bc9565b61053c565b6040519081526020015b60405180910390f35b610178610152366004611b91565b60066020908152600092835260408084209091529082529020546001600160a01b031681565b60405161013b9190611e9d565b610109610193366004611b91565b610608565b6101096106fb565b6101787f000000000000000000000000000000000000000000000000000000000000000081565b6101096101d5366004611da7565b61078a565b6101e2610860565b60405161013b9190611ee4565b6101316101fd366004611d77565b6108b8565b610230610210366004611c6d565b600160209081526000928352604080842090915290825290205460ff1681565b604051901515815260200161013b565b6101e26108d9565b610131610256366004611d77565b61092f565b610131610269366004611d77565b61093f565b61013161027c366004611d77565b61094f565b6101e261095f565b6101e26109b5565b61017861029f366004611d77565b6000602081905290815260409020546001600160a01b031681565b6102dd6102c8366004611b59565b600760205260009081526040902054600f0b81565b604051600f9190910b815260200161013b565b60006102fa610a0b565b9050600080600061030a87610a43565b925092509250836001600160a01b0316635cffe9de3086868b87878d60405160200161035b949392919093845260208401929092526001600160a01b03908116604084015216606082015260800190565b6040516020818303038152906040526040518563ffffffff1660e01b81526004016103899493929190611f28565b602060405180830381600087803b1580156103a357600080fd5b505af11580156103b7573d6000803e3d6000fd5b505050506040513d601f19601f820116820180604052508101906103db9190611d57565b5061046d85856001600160a01b03166370a08231306040518263ffffffff1660e01b815260040161040c9190611e9d565b60206040518083038186803b15801561042457600080fd5b505afa158015610438573d6000803e3d6000fd5b505050506040513d601f19601f8201168201806040525081019061045c9190611d8f565b6001600160a01b0387169190610e53565b50505050505050565b60405163b4ed0b6d60e01b8152600481018290527f00000000000000000000000000000000000000000000000000000000000000006001600160a01b03169063b4ed0b6d9060240160206040518083038186803b1580156104d657600080fd5b505afa1580156104ea573d6000803e3d6000fd5b505050506040513d601f19601f8201168201806040525081019061050e9190611b75565b60009182526020829052604090912080546001600160a01b0319166001600160a01b03909216919091179055565b60008080808061054e86880188611e0c565b935093509350935061055e610eae565b60405163032c65d760e21b81526004810186905260248101859052604481018b90523060648201526001600160a01b039190911690630cb1975c90608401600060405180830381600087803b1580156105b657600080fd5b505af11580156105ca573d6000803e3d6000fd5b505050506105d88282610ee6565b507f439148f0bbc682ca079e46d6e2c2f0c1e3b820f1a291b069d8882abf8cf18dd99a9950505050505050505050565b6001600160a01b038281166000908152600660209081526040808320858516845290915290205416156106f75761063d611192565b6001600160a01b0316635e73a03483836040518363ffffffff1660e01b815260040161066a929190611eb1565b60206040518083038186803b15801561068257600080fd5b505afa158015610696573d6000803e3d6000fd5b505050506040513d601f19601f820116820180604052508101906106ba9190611b75565b6001600160a01b0383811660009081526006602090815260408083208685168452909152902080546001600160a01b031916929091169190911790555b5050565b6000610705610a0b565b60405163095ea7b360e01b81529091506001600160a01b0382169063095ea7b39061073890849060001990600401611ecb565b602060405180830381600087803b15801561075257600080fd5b505af1158015610766573d6000803e3d6000fd5b505050506040513d601f19601f820116820180604052508101906106f79190611d57565b60405163f0723d9760e01b81526001600160a01b037f0000000000000000000000000000000000000000000000000000000000000000169063f0723d97906107d89084908690600401611ecb565b60206040518083038186803b1580156107f057600080fd5b505afa158015610804573d6000803e3d6000fd5b505050506040513d601f19601f820116820180604052508101906108289190611d57565b6001600160a01b0391909116600090815260016020908152604080832094835293905291909120805460ff1916911515919091179055565b606060038054806020026020016040519081016040528092919081815260200182805480156108ae57602002820191906000526020600020905b81548152602001906001019080831161089a575b5050505050905090565b600581815481106108c857600080fd5b600091825260209091200154905081565b606060048054806020026020016040519081016040528092919081815260200182805480156108ae576020028201919060005260206000209081548152602001906001019080831161089a575050505050905090565b600281815481106108c857600080fd5b600481815481106108c857600080fd5b600381815481106108c857600080fd5b606060028054806020026020016040519081016040528092919081815260200182805480156108ae576020028201919060005260206000209081548152602001906001019080831161089a575050505050905090565b606060058054806020026020016040519081016040528092919081815260200182805480156108ae576020028201919060005260206000209081548152602001906001019080831161089a575050505050905090565b606660009081526020527f422cccb7cea5c0e46f340bb7b21b81debac329f72e31669c20ff0f3a05cc2b5b546001600160a01b031690565b600080600080610a84606f60009081526020527fd4a194d790fcc0f5af64ad0623a90db8616ce232c92824f4b3df27138fd65b44546001600160a01b031690565b60405163fabee7db60e01b8152600481018790529091506000906001600160a01b0383169063fabee7db9060240160206040518083038186803b158015610aca57600080fd5b505afa158015610ade573d6000803e3d6000fd5b505050506040513d601f19601f82011682018060405250810190610b029190611b75565b60405163c5c72dc360e01b8152600481018890529091506000906001600160a01b0384169063c5c72dc39060240160206040518083038186803b158015610b4857600080fd5b505afa158015610b5c573d6000803e3d6000fd5b505050506040513d601f19601f82011682018060405250810190610b809190611d8f565b90506000610b968383610b91610a0b565b6111ca565b9050600080610ba3611192565b6001600160a01b03166315c2ba50866040518263ffffffff1660e01b8152600401610bce9190611e9d565b60206040518083038186803b158015610be657600080fd5b505afa158015610bfa573d6000803e3d6000fd5b505050506040513d601f19601f82011682018060405250810190610c1e9190611d8f565b604051630358e41160e21b8152600481018c90529091506000906001600160a01b03881690630d6390449060240160206040518083038186803b158015610c6457600080fd5b505afa158015610c78573d6000803e3d6000fd5b505050506040513d601f19601f82011682018060405250810190610c9c9190611d8f565b90506002610cac8361271061208f565b610cb68685612020565b610cc284612710612020565b610ccc919061208f565b610cd69190612000565b610ce09083611fe8565b610cea9190612000565b925060006103d8610cf9610eae565b6040516324a5183d60e21b8152600481018f9052602481018790526001600160a01b03919091169063929460f49060440160206040518083038186803b158015610d4257600080fd5b505afa158015610d56573d6000803e3d6000fd5b505050506040513d601f19601f82011682018060405250810190610d7a9190611d8f565b610d86906103e8612020565b610d909190612000565b905061271083610da0868861208f565b610daa9190612020565b610db49190612000565b610dbe828461208f565b1115610dfd57600085610dd18689612020565b610ddb9190612000565b905081610de88883611270565b899b509b509b50505050505050505050610e4c565b600085610e0a8489612020565b610e149190612000565b9050600082610e238784612020565b610e2d9190612000565b905083610e3a8983611270565b8a9c509c509c50505050505050505050505b9193909250565b610ea98363a9059cbb60e01b8484604051602401610e72929190611ecb565b60408051601f198184030181529190526020810180516001600160e01b03166001600160e01b031990931692909217909152611289565b505050565b607060009081526020527faa8101e6bcc25d8e6c1c04375f2c0e9336e0b38a69ca3c5c1594014f9e6556ff546001600160a01b031690565b6001600160a01b038216732148d1b21faa7eb251789a51b404fc063ca6aad614610f495760405162461bcd60e51b815260206004820152600f60248201526e4f6e6c7920666f722077734d41584960881b60448201526064015b60405180910390fd5b6040516370a0823160e01b8152732148d1b21faa7eb251789a51b404fc063ca6aad69063de0e9a3e9082906370a0823190610f88903090600401611e9d565b60206040518083038186803b158015610fa057600080fd5b505afa158015610fb4573d6000803e3d6000fd5b505050506040513d601f19601f82011682018060405250810190610fd89190611d8f565b6040518263ffffffff1660e01b8152600401610ff691815260200190565b602060405180830381600087803b15801561101057600080fd5b505af1158015611024573d6000803e3d6000fd5b505050506040513d601f19601f820116820180604052508101906110489190611d8f565b506040516370a0823160e01b815260009073ece4d1b3c2020a312ec41a7271608326894076b4906370a0823190611083903090600401611e9d565b60206040518083038186803b15801561109b57600080fd5b505afa1580156110af573d6000803e3d6000fd5b505050506040513d601f19601f820116820180604052508101906110d39190611d8f565b905061110873ece4d1b3c2020a312ec41a7271608326894076b4736d7ad602ec2efdf4b7d34a9a53f92f06d27b82b18361135b565b6040516327afaa2360e21b81526004810182905260006024820152736d7ad602ec2efdf4b7d34a9a53f92f06d27b82b190639ebea88c90604401600060405180830381600087803b15801561115c57600080fd5b505af1158015611170573d6000803e3d6000fd5b50505050610ea9737c08413cbf02202a1c13643db173f2694e0f73f08361140d565b606a60009081526020527ff3261457f4fd0b7c00a1511877ab27b74183ac470be8db3a7ecdc64335f6f979546001600160a01b031690565b6000806111d78584611417565b604051630576cbc360e41b81526001600160a01b0387811660048301526024820187905285811660448301529192509082169063576cbc3090606401602060405180830381600087803b15801561122d57600080fd5b505af1158015611241573d6000803e3d6000fd5b505050506040513d601f19601f820116820180604052508101906112659190611d8f565b9150505b9392505050565b6000818310611280575080611283565b50815b92915050565b60006112de826040518060400160405280602081526020017f5361666545524332303a206c6f772d6c6576656c2063616c6c206661696c6564815250856001600160a01b03166114cb9092919063ffffffff16565b805190915015610ea957808060200190518101906112fc9190611d57565b610ea95760405162461bcd60e51b815260206004820152602a60248201527f5361666545524332303a204552433230206f7065726174696f6e20646964206e6044820152691bdd081cdd58d8d9595960b21b6064820152608401610f40565b600081846001600160a01b031663dd62ed3e30866040518363ffffffff1660e01b815260040161138c929190611eb1565b60206040518083038186803b1580156113a457600080fd5b505afa1580156113b8573d6000803e3d6000fd5b505050506040513d601f19601f820116820180604052508101906113dc9190611d8f565b6113e69190611fe8565b90506114078463095ea7b360e01b8584604051602401610e72929190611ecb565b50505050565b6106f782826114e2565b6001600160a01b038083166000908152600660209081526040808320858516845290915290205416806112835761144c611192565b6001600160a01b0316631757616884846040518363ffffffff1660e01b8152600401611479929190611eb1565b602060405180830381600087803b15801561149357600080fd5b505af11580156114a7573d6000803e3d6000fd5b505050506040513d601f19601f820116820180604052508101906112699190611b75565b60606114da84846000856119f8565b949350505050565b6040516370a0823160e01b81526000906001600160a01b038416906370a0823190611511903090600401611e9d565b60206040518083038186803b15801561152957600080fd5b505afa15801561153d573d6000803e3d6000fd5b505050506040513d601f19601f820116820180604052508101906115619190611d8f565b6001600160a01b038416600090815260076020526040812054919250908190600f90810b900b81121561159857508390508161188e565b60607f000000000000000000000000000000000000000000000000000000000000000092507f00000000000000000000000000000000000000000000000000000000000000006001600160a01b0316866001600160a01b031614156116a0576040805160028082526060820183529091602083019080368337019050509050858160008151811061163957634e487b7160e01b600052603260045260246000fd5b60200260200101906001600160a01b031690816001600160a01b031681525050828160018151811061167b57634e487b7160e01b600052603260045260246000fd5b60200260200101906001600160a01b031690816001600160a01b0316815250506117a8565b60408051600380825260808201909252906020820160608036833701905050905085816000815181106116e357634e487b7160e01b600052603260045260246000fd5b60200260200101906001600160a01b031690816001600160a01b0316815250507f00000000000000000000000000000000000000000000000000000000000000008160018151811061174557634e487b7160e01b600052603260045260246000fd5b60200260200101906001600160a01b031690816001600160a01b031681525050828160028151811061178757634e487b7160e01b600052603260045260246000fd5b60200260200101906001600160a01b031690816001600160a01b0316815250505b6117bc6001600160a01b038716868661135b565b60006001600160a01b0386166338ed1739868385306117dc426001611fe8565b6040518663ffffffff1660e01b81526004016117fc959493929190611f78565b600060405180830381600087803b15801561181657600080fd5b505af115801561182a573d6000803e3d6000fd5b505050506040513d6000823e601f3d908101601f191682016040526118529190810190611c98565b90508060018251611863919061208f565b8151811061188157634e487b7160e01b600052603260045260246000fd5b6020026020010151925050505b6118c26001600160a01b0383167f00000000000000000000000000000000000000000000000000000000000000008361135b565b7f00000000000000000000000000000000000000000000000000000000000000006001600160a01b031663a3220db861192c606d60009081526020527faa31d2a33b224bee3888830916f2f56f41bb5a40ed8a3273c6e72e6992d6223a546001600160a01b031690565b6001600160a01b03851660009081526007602052604090205461195490600190600f0b61203f565b6040516001600160e01b031960e085901b1681526001600160a01b039092166004830152600f0b60248201526000604482018190526064820185905260848201523060a482015260c401602060405180830381600087803b1580156119b857600080fd5b505af11580156119cc573d6000803e3d6000fd5b505050506040513d601f19601f820116820180604052508101906119f09190611d8f565b505050505050565b606082471015611a595760405162461bcd60e51b815260206004820152602660248201527f416464726573733a20696e73756666696369656e742062616c616e636520666f6044820152651c8818d85b1b60d21b6064820152608401610f40565b843b611aa75760405162461bcd60e51b815260206004820152601d60248201527f416464726573733a2063616c6c20746f206e6f6e2d636f6e74726163740000006044820152606401610f40565b600080866001600160a01b03168587604051611ac39190611e81565b60006040518083038185875af1925050503d8060008114611b00576040519150601f19603f3d011682016040523d82523d6000602084013e611b05565b606091505b5091509150611b15828286611b20565b979650505050505050565b60608315611b2f575081611269565b825115611b3f5782518084602001fd5b8160405162461bcd60e51b8152600401610f409190611f65565b600060208284031215611b6a578081fd5b8135611269816120fe565b600060208284031215611b86578081fd5b8151611269816120fe565b60008060408385031215611ba3578081fd5b8235611bae816120fe565b91506020830135611bbe816120fe565b809150509250929050565b60008060008060008060a08789031215611be1578182fd5b8635611bec816120fe565b95506020870135611bfc816120fe565b9450604087013593506060870135925060808701356001600160401b0380821115611c25578384fd5b818901915089601f830112611c38578384fd5b813581811115611c46578485fd5b8a6020828501011115611c57578485fd5b6020830194508093505050509295509295509295565b60008060408385031215611c7f578182fd5b8235611c8a816120fe565b946020939093013593505050565b60006020808385031215611caa578182fd5b82516001600160401b0380821115611cc0578384fd5b818501915085601f830112611cd3578384fd5b815181811115611ce557611ce56120e8565b8060051b604051601f19603f83011681018181108582111715611d0a57611d0a6120e8565b604052828152858101935084860182860187018a1015611d28578788fd5b8795505b83861015611d4a578051855260019590950194938601938601611d2c565b5098975050505050505050565b600060208284031215611d68578081fd5b81518015158114611269578182fd5b600060208284031215611d88578081fd5b5035919050565b600060208284031215611da0578081fd5b5051919050565b60008060408385031215611db9578182fd5b823591506020830135611bbe816120fe565b600080600060608486031215611ddf578283fd5b833592506020840135611df1816120fe565b91506040840135611e01816120fe565b809150509250925092565b60008060008060808587031215611e21578384fd5b84359350602085013592506040850135611e3a816120fe565b91506060850135611e4a816120fe565b939692955090935050565b60008151808452611e6d8160208601602086016120a6565b601f01601f19169290920160200192915050565b60008251611e938184602087016120a6565b9190910192915050565b6001600160a01b0391909116815260200190565b6001600160a01b0392831681529116602082015260400190565b6001600160a01b03929092168252602082015260400190565b6020808252825182820181905260009190848201906040850190845b81811015611f1c57835183529284019291840191600101611f00565b50909695505050505050565b6001600160a01b0385811682528416602082015260408101839052608060608201819052600090611f5b90830184611e55565b9695505050505050565b6000602082526112696020830184611e55565b600060a082018783526020878185015260a0604085015281875180845260c0860191508289019350845b81811015611fc75784516001600160a01b031683529383019391830191600101611fa2565b50506001600160a01b03969096166060850152505050608001529392505050565b60008219821115611ffb57611ffb6120d2565b500190565b60008261201b57634e487b7160e01b81526012600452602481fd5b500490565b600081600019048311821515161561203a5761203a6120d2565b500290565b6000600f82810b9084900b828112801560016001607f1b031983018412161561206a5761206a6120d2565b60016001607f1b0382018313811615612085576120856120d2565b5090039392505050565b6000828210156120a1576120a16120d2565b500390565b60005b838110156120c15781810151838201526020016120a9565b838111156114075750506000910152565b634e487b7160e01b600052601160045260246000fd5b634e487b7160e01b600052604160045260246000fd5b6001600160a01b038116811461211357600080fd5b5056fea26469706673582212206174c291861492a333b207cf744dbbdc6c33269e9435457c8b5290af4fa734dd64736f6c63430008030033",
  "devdoc": {
    "kind": "dev",
    "methods": {
      "charactersPlayed()": {
        "details": "returns all characters played by this contract (e.g. stable coin, oracle registry)"
      },
      "dependsOnCharacters()": {
        "details": "returns all the character dependencies like FEE_RECIPIENT"
      },
      "dependsOnRoles()": {
        "details": "returns all the roles dependencies of this contract like FUND_TRANSFERER"
      },
      "rolesPlayed()": {
        "details": "returns all roles played by this contract"
      },
      "updateMainCharacterCache(uint256)": {
        "details": "Updates the main character cache for a speciic character"
      },
      "updateRoleCache(uint256,address)": {
        "details": "Updates the role cache for a specific role and address"
      }
    },
    "version": 1
  },
  "userdoc": {
    "kind": "user",
    "methods": {
      "newCurrentOracle(address,address)": {
        "notice": "Notify contract to update oracle cache"
      }
    },
    "version": 1
  },
  "storageLayout": {
    "storage": [
      {
        "astId": 26307,
        "contract": "contracts/liquidation/wsMAXIStableLiquidation.sol:wsMAXIStableLiquidation",
        "label": "mainCharacterCache",
        "offset": 0,
        "slot": "0",
        "type": "t_mapping(t_uint256,t_address)"
      },
      {
        "astId": 26313,
        "contract": "contracts/liquidation/wsMAXIStableLiquidation.sol:wsMAXIStableLiquidation",
        "label": "roleCache",
        "offset": 0,
        "slot": "1",
        "type": "t_mapping(t_address,t_mapping(t_uint256,t_bool))"
      },
      {
        "astId": 26316,
        "contract": "contracts/liquidation/wsMAXIStableLiquidation.sol:wsMAXIStableLiquidation",
        "label": "_dependsOnCharacters",
        "offset": 0,
        "slot": "2",
        "type": "t_array(t_uint256)dyn_storage"
      },
      {
        "astId": 26319,
        "contract": "contracts/liquidation/wsMAXIStableLiquidation.sol:wsMAXIStableLiquidation",
        "label": "_dependsOnRoles",
        "offset": 0,
        "slot": "3",
        "type": "t_array(t_uint256)dyn_storage"
      },
      {
        "astId": 26322,
        "contract": "contracts/liquidation/wsMAXIStableLiquidation.sol:wsMAXIStableLiquidation",
        "label": "_charactersPlayed",
        "offset": 0,
        "slot": "4",
        "type": "t_array(t_uint256)dyn_storage"
      },
      {
        "astId": 26325,
        "contract": "contracts/liquidation/wsMAXIStableLiquidation.sol:wsMAXIStableLiquidation",
        "label": "_rolesPlayed",
        "offset": 0,
        "slot": "5",
        "type": "t_array(t_uint256)dyn_storage"
      },
      {
        "astId": 22328,
        "contract": "contracts/liquidation/wsMAXIStableLiquidation.sol:wsMAXIStableLiquidation",
        "label": "_oracleCache",
        "offset": 0,
        "slot": "6",
        "type": "t_mapping(t_address,t_mapping(t_address,t_address))"
      },
      {
        "astId": 18767,
        "contract": "contracts/liquidation/wsMAXIStableLiquidation.sol:wsMAXIStableLiquidation",
        "label": "stableIndices",
        "offset": 0,
        "slot": "7",
        "type": "t_mapping(t_address,t_int128)"
      }
    ],
    "types": {
      "t_address": {
        "encoding": "inplace",
        "label": "address",
        "numberOfBytes": "20"
      },
      "t_array(t_uint256)dyn_storage": {
        "base": "t_uint256",
        "encoding": "dynamic_array",
        "label": "uint256[]",
        "numberOfBytes": "32"
      },
      "t_bool": {
        "encoding": "inplace",
        "label": "bool",
        "numberOfBytes": "1"
      },
      "t_int128": {
        "encoding": "inplace",
        "label": "int128",
        "numberOfBytes": "16"
      },
      "t_mapping(t_address,t_address)": {
        "encoding": "mapping",
        "key": "t_address",
        "label": "mapping(address => address)",
        "numberOfBytes": "32",
        "value": "t_address"
      },
      "t_mapping(t_address,t_int128)": {
        "encoding": "mapping",
        "key": "t_address",
        "label": "mapping(address => int128)",
        "numberOfBytes": "32",
        "value": "t_int128"
      },
      "t_mapping(t_address,t_mapping(t_address,t_address))": {
        "encoding": "mapping",
        "key": "t_address",
        "label": "mapping(address => mapping(address => address))",
        "numberOfBytes": "32",
        "value": "t_mapping(t_address,t_address)"
      },
      "t_mapping(t_address,t_mapping(t_uint256,t_bool))": {
        "encoding": "mapping",
        "key": "t_address",
        "label": "mapping(address => mapping(uint256 => bool))",
        "numberOfBytes": "32",
        "value": "t_mapping(t_uint256,t_bool)"
      },
      "t_mapping(t_uint256,t_address)": {
        "encoding": "mapping",
        "key": "t_uint256",
        "label": "mapping(uint256 => address)",
        "numberOfBytes": "32",
        "value": "t_address"
      },
      "t_mapping(t_uint256,t_bool)": {
        "encoding": "mapping",
        "key": "t_uint256",
        "label": "mapping(uint256 => bool)",
        "numberOfBytes": "32",
        "value": "t_bool"
      },
      "t_uint256": {
        "encoding": "inplace",
        "label": "uint256",
        "numberOfBytes": "32"
      }
    }
  }
}