{
  "address": "0x16565e37926e9a0Ad8222D8B0624d696f77DdE66",
  "abi": [
    {
      "inputs": [
        {
          "internalType": "address",
          "name": "_roles",
          "type": "address"
        }
      ],
      "stateMutability": "nonpayable",
      "type": "constructor"
    },
    {
      "stateMutability": "payable",
      "type": "fallback"
    },
    {
      "inputs": [
        {
          "internalType": "uint256",
          "name": "",
          "type": "uint256"
        }
      ],
      "name": "_accounts",
      "outputs": [
        {
          "internalType": "uint256",
          "name": "collateral",
          "type": "uint256"
        },
        {
          "internalType": "uint256",
          "name": "yieldCheckptIdx",
          "type": "uint256"
        },
        {
          "internalType": "address",
          "name": "trancheToken",
          "type": "address"
        }
      ],
      "stateMutability": "view",
      "type": "function"
    },
    {
      "inputs": [
        {
          "internalType": "uint256",
          "name": "",
          "type": "uint256"
        }
      ],
      "name": "_charactersPlayed",
      "outputs": [
        {
          "internalType": "uint256",
          "name": "",
          "type": "uint256"
        }
      ],
      "stateMutability": "view",
      "type": "function"
    },
    {
      "inputs": [
        {
          "internalType": "uint256",
          "name": "",
          "type": "uint256"
        }
      ],
      "name": "_dependsOnCharacters",
      "outputs": [
        {
          "internalType": "uint256",
          "name": "",
          "type": "uint256"
        }
      ],
      "stateMutability": "view",
      "type": "function"
    },
    {
      "inputs": [
        {
          "internalType": "uint256",
          "name": "",
          "type": "uint256"
        }
      ],
      "name": "_dependsOnRoles",
      "outputs": [
        {
          "internalType": "uint256",
          "name": "",
          "type": "uint256"
        }
      ],
      "stateMutability": "view",
      "type": "function"
    },
    {
      "inputs": [
        {
          "internalType": "address",
          "name": "",
          "type": "address"
        },
        {
          "internalType": "address",
          "name": "",
          "type": "address"
        }
      ],
      "name": "_oracleCache",
      "outputs": [
        {
          "internalType": "address",
          "name": "",
          "type": "address"
        }
      ],
      "stateMutability": "view",
      "type": "function"
    },
    {
      "inputs": [
        {
          "internalType": "uint256",
          "name": "",
          "type": "uint256"
        }
      ],
      "name": "_rolesPlayed",
      "outputs": [
        {
          "internalType": "uint256",
          "name": "",
          "type": "uint256"
        }
      ],
      "stateMutability": "view",
      "type": "function"
    },
    {
      "inputs": [
        {
          "internalType": "address",
          "name": "token",
          "type": "address"
        }
      ],
      "name": "_viewTVL",
      "outputs": [
        {
          "internalType": "uint256",
          "name": "",
          "type": "uint256"
        }
      ],
      "stateMutability": "view",
      "type": "function"
    },
    {
      "inputs": [
        {
          "internalType": "uint256",
          "name": "trancheId",
          "type": "uint256"
        },
        {
          "internalType": "address",
          "name": "sourceStrategy",
          "type": "address"
        },
        {
          "internalType": "address",
          "name": "tokenContract",
          "type": "address"
        },
        {
          "internalType": "uint256",
          "name": "",
          "type": "uint256"
        },
        {
          "internalType": "uint256",
          "name": "amount",
          "type": "uint256"
        }
      ],
      "name": "acceptMigration",
      "outputs": [],
      "stateMutability": "nonpayable",
      "type": "function"
    },
    {
      "inputs": [
        {
          "internalType": "address",
          "name": "",
          "type": "address"
        }
      ],
      "name": "apfDeposit4Share",
      "outputs": [
        {
          "internalType": "uint256",
          "name": "",
          "type": "uint256"
        }
      ],
      "stateMutability": "view",
      "type": "function"
    },
    {
      "inputs": [],
      "name": "apfSmoothingPer10k",
      "outputs": [
        {
          "internalType": "uint256",
          "name": "",
          "type": "uint256"
        }
      ],
      "stateMutability": "view",
      "type": "function"
    },
    {
      "inputs": [
        {
          "internalType": "address",
          "name": "token",
          "type": "address"
        },
        {
          "internalType": "uint256",
          "name": "depositLimit",
          "type": "uint256"
        },
        {
          "internalType": "bytes",
          "name": "data",
          "type": "bytes"
        }
      ],
      "name": "approveToken",
      "outputs": [],
      "stateMutability": "nonpayable",
      "type": "function"
    },
    {
      "inputs": [
        {
          "internalType": "address",
          "name": "token",
          "type": "address"
        }
      ],
      "name": "approvedToken",
      "outputs": [
        {
          "internalType": "bool",
          "name": "",
          "type": "bool"
        }
      ],
      "stateMutability": "view",
      "type": "function"
    },
    {
      "inputs": [],
      "name": "approvedTokensCount",
      "outputs": [
        {
          "internalType": "uint256",
          "name": "",
          "type": "uint256"
        }
      ],
      "stateMutability": "view",
      "type": "function"
    },
    {
      "inputs": [],
      "name": "charactersPlayed",
      "outputs": [
        {
          "internalType": "uint256[]",
          "name": "",
          "type": "uint256[]"
        }
      ],
      "stateMutability": "view",
      "type": "function"
    },
    {
      "inputs": [
        {
          "internalType": "address",
          "name": "token",
          "type": "address"
        },
        {
          "internalType": "address",
          "name": "strategy",
          "type": "address"
        }
      ],
      "name": "checkApprovedAndEncode",
      "outputs": [
        {
          "internalType": "bool",
          "name": "",
          "type": "bool"
        },
        {
          "internalType": "bytes",
          "name": "",
          "type": "bytes"
        }
      ],
      "stateMutability": "view",
      "type": "function"
    },
    {
      "inputs": [
        {
          "internalType": "uint256",
          "name": "trancheId",
          "type": "uint256"
        },
        {
          "internalType": "address",
          "name": "currency",
          "type": "address"
        },
        {
          "internalType": "address",
          "name": "recipient",
          "type": "address"
        }
      ],
      "name": "collectYield",
      "outputs": [
        {
          "internalType": "uint256",
          "name": "",
          "type": "uint256"
        }
      ],
      "stateMutability": "nonpayable",
      "type": "function"
    },
    {
      "inputs": [
        {
          "internalType": "uint256",
          "name": "trancheId",
          "type": "uint256"
        },
        {
          "internalType": "address",
          "name": "_yieldCurrency",
          "type": "address"
        },
        {
          "internalType": "address",
          "name": "valueCurrency",
          "type": "address"
        },
        {
          "internalType": "address",
          "name": "recipient",
          "type": "address"
        }
      ],
      "name": "collectYieldValueBorrowable",
      "outputs": [
        {
          "internalType": "uint256",
          "name": "yield",
          "type": "uint256"
        },
        {
          "internalType": "uint256",
          "name": "value",
          "type": "uint256"
        },
        {
          "internalType": "uint256",
          "name": "borrowablePer10k",
          "type": "uint256"
        }
      ],
      "stateMutability": "nonpayable",
      "type": "function"
    },
    {
      "inputs": [],
      "name": "dependsOnCharacters",
      "outputs": [
        {
          "internalType": "uint256[]",
          "name": "",
          "type": "uint256[]"
        }
      ],
      "stateMutability": "view",
      "type": "function"
    },
    {
      "inputs": [],
      "name": "dependsOnRoles",
      "outputs": [
        {
          "internalType": "uint256[]",
          "name": "",
          "type": "uint256[]"
        }
      ],
      "stateMutability": "view",
      "type": "function"
    },
    {
      "inputs": [
        {
          "internalType": "uint256",
          "name": "",
          "type": "uint256"
        }
      ],
      "name": "depositedShares",
      "outputs": [
        {
          "internalType": "uint256",
          "name": "",
          "type": "uint256"
        }
      ],
      "stateMutability": "view",
      "type": "function"
    },
    {
      "inputs": [
        {
          "internalType": "address",
          "name": "token",
          "type": "address"
        },
        {
          "internalType": "bytes",
          "name": "",
          "type": "bytes"
        }
      ],
      "name": "disapproveToken",
      "outputs": [],
      "stateMutability": "nonpayable",
      "type": "function"
    },
    {
      "inputs": [
        {
          "internalType": "address",
          "name": "token",
          "type": "address"
        }
      ],
      "name": "harvestPartially",
      "outputs": [],
      "stateMutability": "nonpayable",
      "type": "function"
    },
    {
      "inputs": [],
      "name": "isActive",
      "outputs": [
        {
          "internalType": "bool",
          "name": "",
          "type": "bool"
        }
      ],
      "stateMutability": "view",
      "type": "function"
    },
    {
      "inputs": [
        {
          "internalType": "uint256",
          "name": "",
          "type": "uint256"
        }
      ],
      "name": "mainCharacterCache",
      "outputs": [
        {
          "internalType": "address",
          "name": "",
          "type": "address"
        }
      ],
      "stateMutability": "view",
      "type": "function"
    },
    {
      "inputs": [
        {
          "internalType": "address",
          "name": "destination",
          "type": "address"
        }
      ],
      "name": "migrateAllTo",
      "outputs": [],
      "stateMutability": "nonpayable",
      "type": "function"
    },
    {
      "inputs": [
        {
          "internalType": "uint256",
          "name": "trancheId",
          "type": "uint256"
        },
        {
          "internalType": "address",
          "name": "targetStrategy",
          "type": "address"
        },
        {
          "internalType": "address",
          "name": "yieldToken",
          "type": "address"
        },
        {
          "internalType": "address",
          "name": "yieldRecipient",
          "type": "address"
        }
      ],
      "name": "migrateStrategy",
      "outputs": [
        {
          "internalType": "address",
          "name": "",
          "type": "address"
        },
        {
          "internalType": "uint256",
          "name": "",
          "type": "uint256"
        },
        {
          "internalType": "uint256",
          "name": "",
          "type": "uint256"
        }
      ],
      "stateMutability": "nonpayable",
      "type": "function"
    },
    {
      "inputs": [
        {
          "internalType": "address",
          "name": "token",
          "type": "address"
        },
        {
          "internalType": "address",
          "name": "pegCurrency",
          "type": "address"
        }
      ],
      "name": "newCurrentOracle",
      "outputs": [],
      "stateMutability": "nonpayable",
      "type": "function"
    },
    {
      "inputs": [
        {
          "internalType": "address",
          "name": "depositor",
          "type": "address"
        },
        {
          "internalType": "uint256",
          "name": "trancheId",
          "type": "uint256"
        },
        {
          "internalType": "uint256",
          "name": "amount",
          "type": "uint256"
        },
        {
          "internalType": "address",
          "name": "yieldRecipient",
          "type": "address"
        }
      ],
      "name": "registerDepositFor",
      "outputs": [],
      "stateMutability": "nonpayable",
      "type": "function"
    },
    {
      "inputs": [
        {
          "internalType": "address",
          "name": "minter",
          "type": "address"
        },
        {
          "internalType": "uint256",
          "name": "trancheId",
          "type": "uint256"
        },
        {
          "internalType": "address",
          "name": "assetToken",
          "type": "address"
        },
        {
          "internalType": "uint256",
          "name": "",
          "type": "uint256"
        },
        {
          "internalType": "uint256",
          "name": "assetAmount",
          "type": "uint256"
        }
      ],
      "name": "registerMintTranche",
      "outputs": [],
      "stateMutability": "nonpayable",
      "type": "function"
    },
    {
      "inputs": [
        {
          "internalType": "address",
          "name": "token",
          "type": "address"
        },
        {
          "internalType": "uint256",
          "name": "amount",
          "type": "uint256"
        },
        {
          "internalType": "address",
          "name": "recipient",
          "type": "address"
        }
      ],
      "name": "rescueCollateral",
      "outputs": [],
      "stateMutability": "nonpayable",
      "type": "function"
    },
    {
      "inputs": [
        {
          "internalType": "uint256",
          "name": "amount",
          "type": "uint256"
        },
        {
          "internalType": "address",
          "name": "recipient",
          "type": "address"
        }
      ],
      "name": "rescueNative",
      "outputs": [],
      "stateMutability": "nonpayable",
      "type": "function"
    },
    {
      "inputs": [
        {
          "internalType": "address",
          "name": "token",
          "type": "address"
        },
        {
          "internalType": "uint256",
          "name": "amount",
          "type": "uint256"
        },
        {
          "internalType": "address",
          "name": "recipient",
          "type": "address"
        }
      ],
      "name": "rescueStrandedTokens",
      "outputs": [],
      "stateMutability": "nonpayable",
      "type": "function"
    },
    {
      "inputs": [
        {
          "internalType": "address",
          "name": "",
          "type": "address"
        },
        {
          "internalType": "uint256",
          "name": "",
          "type": "uint256"
        }
      ],
      "name": "roleCache",
      "outputs": [
        {
          "internalType": "bool",
          "name": "",
          "type": "bool"
        }
      ],
      "stateMutability": "view",
      "type": "function"
    },
    {
      "inputs": [],
      "name": "roles",
      "outputs": [
        {
          "internalType": "contract Roles",
          "name": "",
          "type": "address"
        }
      ],
      "stateMutability": "view",
      "type": "function"
    },
    {
      "inputs": [],
      "name": "rolesPlayed",
      "outputs": [
        {
          "internalType": "uint256[]",
          "name": "",
          "type": "uint256[]"
        }
      ],
      "stateMutability": "view",
      "type": "function"
    },
    {
      "inputs": [
        {
          "internalType": "uint256",
          "name": "smoothing",
          "type": "uint256"
        }
      ],
      "name": "setApfSmoothingPer10k",
      "outputs": [],
      "stateMutability": "nonpayable",
      "type": "function"
    },
    {
      "inputs": [
        {
          "internalType": "address",
          "name": "token",
          "type": "address"
        },
        {
          "internalType": "uint256",
          "name": "limit",
          "type": "uint256"
        }
      ],
      "name": "setDepositLimit",
      "outputs": [],
      "stateMutability": "nonpayable",
      "type": "function"
    },
    {
      "inputs": [
        {
          "internalType": "address",
          "name": "token",
          "type": "address"
        },
        {
          "internalType": "address",
          "name": "strategy",
          "type": "address"
        }
      ],
      "name": "setYakStrategy",
      "outputs": [],
      "stateMutability": "nonpayable",
      "type": "function"
    },
    {
      "inputs": [
        {
          "internalType": "address",
          "name": "",
          "type": "address"
        }
      ],
      "name": "stabilityFeePer10k",
      "outputs": [
        {
          "internalType": "uint256",
          "name": "",
          "type": "uint256"
        }
      ],
      "stateMutability": "view",
      "type": "function"
    },
    {
      "inputs": [],
      "name": "strategyName",
      "outputs": [
        {
          "internalType": "bytes32",
          "name": "",
          "type": "bytes32"
        }
      ],
      "stateMutability": "view",
      "type": "function"
    },
    {
      "inputs": [
        {
          "internalType": "address",
          "name": "",
          "type": "address"
        }
      ],
      "name": "tokenMetadata",
      "outputs": [
        {
          "internalType": "uint256",
          "name": "totalCollateralThisPhase",
          "type": "uint256"
        },
        {
          "internalType": "uint256",
          "name": "totalCollateralNow",
          "type": "uint256"
        },
        {
          "internalType": "uint256",
          "name": "apfLastUpdated",
          "type": "uint256"
        },
        {
          "internalType": "uint256",
          "name": "apf",
          "type": "uint256"
        },
        {
          "internalType": "uint256",
          "name": "depositLimit",
          "type": "uint256"
        }
      ],
      "stateMutability": "view",
      "type": "function"
    },
    {
      "inputs": [
        {
          "internalType": "uint256",
          "name": "trancheId",
          "type": "uint256"
        }
      ],
      "name": "tranche",
      "outputs": [
        {
          "internalType": "address",
          "name": "",
          "type": "address"
        }
      ],
      "stateMutability": "view",
      "type": "function"
    },
    {
      "inputs": [
        {
          "internalType": "uint256",
          "name": "trancheId",
          "type": "uint256"
        }
      ],
      "name": "trancheToken",
      "outputs": [
        {
          "internalType": "address",
          "name": "token",
          "type": "address"
        }
      ],
      "stateMutability": "view",
      "type": "function"
    },
    {
      "inputs": [
        {
          "internalType": "uint256",
          "name": "",
          "type": "uint256"
        }
      ],
      "name": "trancheTokenID",
      "outputs": [
        {
          "internalType": "uint256",
          "name": "",
          "type": "uint256"
        }
      ],
      "stateMutability": "pure",
      "type": "function"
    },
    {
      "inputs": [
        {
          "internalType": "uint256",
          "name": "role",
          "type": "uint256"
        }
      ],
      "name": "updateMainCharacterCache",
      "outputs": [],
      "stateMutability": "nonpayable",
      "type": "function"
    },
    {
      "inputs": [
        {
          "internalType": "uint256",
          "name": "role",
          "type": "uint256"
        },
        {
          "internalType": "address",
          "name": "contr",
          "type": "address"
        }
      ],
      "name": "updateRoleCache",
      "outputs": [],
      "stateMutability": "nonpayable",
      "type": "function"
    },
    {
      "inputs": [
        {
          "internalType": "address",
          "name": "token",
          "type": "address"
        }
      ],
      "name": "viewAPF",
      "outputs": [
        {
          "internalType": "uint256",
          "name": "",
          "type": "uint256"
        }
      ],
      "stateMutability": "view",
      "type": "function"
    },
    {
      "inputs": [],
      "name": "viewAllApprovedTokens",
      "outputs": [
        {
          "internalType": "address[]",
          "name": "",
          "type": "address[]"
        }
      ],
      "stateMutability": "view",
      "type": "function"
    },
    {
      "inputs": [],
      "name": "viewAllStrategyMetadata",
      "outputs": [
        {
          "components": [
            {
              "internalType": "address",
              "name": "strategy",
              "type": "address"
            },
            {
              "internalType": "address",
              "name": "token",
              "type": "address"
            },
            {
              "internalType": "uint256",
              "name": "APF",
              "type": "uint256"
            },
            {
              "internalType": "uint256",
              "name": "totalCollateral",
              "type": "uint256"
            },
            {
              "internalType": "uint256",
              "name": "borrowablePer10k",
              "type": "uint256"
            },
            {
              "internalType": "uint256",
              "name": "valuePer1e18",
              "type": "uint256"
            },
            {
              "internalType": "bytes32",
              "name": "strategyName",
              "type": "bytes32"
            },
            {
              "internalType": "uint256",
              "name": "tvl",
              "type": "uint256"
            },
            {
              "internalType": "uint256",
              "name": "harvestBalance2Tally",
              "type": "uint256"
            },
            {
              "internalType": "enum IStrategy.YieldType",
              "name": "yieldType",
              "type": "uint8"
            },
            {
              "internalType": "uint256",
              "name": "stabilityFee",
              "type": "uint256"
            }
          ],
          "internalType": "struct IStrategy.StrategyMetadata[]",
          "name": "",
          "type": "tuple[]"
        }
      ],
      "stateMutability": "view",
      "type": "function"
    },
    {
      "inputs": [],
      "name": "viewAllTokensEver",
      "outputs": [
        {
          "internalType": "address[]",
          "name": "",
          "type": "address[]"
        }
      ],
      "stateMutability": "view",
      "type": "function"
    },
    {
      "inputs": [
        {
          "internalType": "uint256",
          "name": "trancheId",
          "type": "uint256"
        }
      ],
      "name": "viewBorrowable",
      "outputs": [
        {
          "internalType": "uint256",
          "name": "borrowablePer10k",
          "type": "uint256"
        }
      ],
      "stateMutability": "view",
      "type": "function"
    },
    {
      "inputs": [
        {
          "internalType": "address",
          "name": "",
          "type": "address"
        }
      ],
      "name": "viewHarvestBalance2Tally",
      "outputs": [
        {
          "internalType": "uint256",
          "name": "",
          "type": "uint256"
        }
      ],
      "stateMutability": "view",
      "type": "function"
    },
    {
      "inputs": [
        {
          "internalType": "address",
          "name": "token",
          "type": "address"
        }
      ],
      "name": "viewStrategyMetadata",
      "outputs": [
        {
          "components": [
            {
              "internalType": "address",
              "name": "strategy",
              "type": "address"
            },
            {
              "internalType": "address",
              "name": "token",
              "type": "address"
            },
            {
              "internalType": "uint256",
              "name": "APF",
              "type": "uint256"
            },
            {
              "internalType": "uint256",
              "name": "totalCollateral",
              "type": "uint256"
            },
            {
              "internalType": "uint256",
              "name": "borrowablePer10k",
              "type": "uint256"
            },
            {
              "internalType": "uint256",
              "name": "valuePer1e18",
              "type": "uint256"
            },
            {
              "internalType": "bytes32",
              "name": "strategyName",
              "type": "bytes32"
            },
            {
              "internalType": "uint256",
              "name": "tvl",
              "type": "uint256"
            },
            {
              "internalType": "uint256",
              "name": "harvestBalance2Tally",
              "type": "uint256"
            },
            {
              "internalType": "enum IStrategy.YieldType",
              "name": "yieldType",
              "type": "uint8"
            },
            {
              "internalType": "uint256",
              "name": "stabilityFee",
              "type": "uint256"
            }
          ],
          "internalType": "struct IStrategy.StrategyMetadata",
          "name": "",
          "type": "tuple"
        }
      ],
      "stateMutability": "view",
      "type": "function"
    },
    {
      "inputs": [
        {
          "internalType": "uint256",
          "name": "trancheId",
          "type": "uint256"
        }
      ],
      "name": "viewTargetCollateralAmount",
      "outputs": [
        {
          "internalType": "uint256",
          "name": "",
          "type": "uint256"
        }
      ],
      "stateMutability": "view",
      "type": "function"
    },
    {
      "inputs": [
        {
          "internalType": "uint256",
          "name": "trancheId",
          "type": "uint256"
        },
        {
          "internalType": "address",
          "name": "valueCurrency",
          "type": "address"
        }
      ],
      "name": "viewValue",
      "outputs": [
        {
          "internalType": "uint256",
          "name": "value",
          "type": "uint256"
        }
      ],
      "stateMutability": "view",
      "type": "function"
    },
    {
      "inputs": [
        {
          "internalType": "uint256",
          "name": "trancheId",
          "type": "uint256"
        },
        {
          "internalType": "address",
          "name": "valueCurrency",
          "type": "address"
        }
      ],
      "name": "viewValueBorrowable",
      "outputs": [
        {
          "internalType": "uint256",
          "name": "value",
          "type": "uint256"
        },
        {
          "internalType": "uint256",
          "name": "borrowable",
          "type": "uint256"
        }
      ],
      "stateMutability": "view",
      "type": "function"
    },
    {
      "inputs": [
        {
          "internalType": "uint256",
          "name": "trancheId",
          "type": "uint256"
        },
        {
          "internalType": "address",
          "name": "currency",
          "type": "address"
        }
      ],
      "name": "viewYield",
      "outputs": [
        {
          "internalType": "uint256",
          "name": "",
          "type": "uint256"
        }
      ],
      "stateMutability": "view",
      "type": "function"
    },
    {
      "inputs": [
        {
          "internalType": "uint256",
          "name": "trancheId",
          "type": "uint256"
        },
        {
          "internalType": "address",
          "name": "_yieldCurrency",
          "type": "address"
        },
        {
          "internalType": "address",
          "name": "valueCurrency",
          "type": "address"
        }
      ],
      "name": "viewYieldValueBorrowable",
      "outputs": [
        {
          "internalType": "uint256",
          "name": "yield",
          "type": "uint256"
        },
        {
          "internalType": "uint256",
          "name": "value",
          "type": "uint256"
        },
        {
          "internalType": "uint256",
          "name": "borrowablePer10k",
          "type": "uint256"
        }
      ],
      "stateMutability": "view",
      "type": "function"
    },
    {
      "inputs": [
        {
          "internalType": "uint256",
          "name": "trancheId",
          "type": "uint256"
        },
        {
          "internalType": "uint256",
          "name": "amount",
          "type": "uint256"
        },
        {
          "internalType": "address",
          "name": "yieldToken",
          "type": "address"
        },
        {
          "internalType": "address",
          "name": "recipient",
          "type": "address"
        }
      ],
      "name": "withdraw",
      "outputs": [],
      "stateMutability": "nonpayable",
      "type": "function"
    },
    {
      "inputs": [
        {
          "internalType": "address",
          "name": "",
          "type": "address"
        }
      ],
      "name": "withdrawnFees",
      "outputs": [
        {
          "internalType": "uint256",
          "name": "",
          "type": "uint256"
        }
      ],
      "stateMutability": "view",
      "type": "function"
    },
    {
      "inputs": [
        {
          "internalType": "address",
          "name": "",
          "type": "address"
        }
      ],
      "name": "yakStrategy",
      "outputs": [
        {
          "internalType": "address",
          "name": "",
          "type": "address"
        }
      ],
      "stateMutability": "view",
      "type": "function"
    },
    {
      "inputs": [],
      "name": "yieldCurrency",
      "outputs": [
        {
          "internalType": "address",
          "name": "",
          "type": "address"
        }
      ],
      "stateMutability": "view",
      "type": "function"
    },
    {
      "inputs": [],
      "name": "yieldType",
      "outputs": [
        {
          "internalType": "enum IStrategy.YieldType",
          "name": "",
          "type": "uint8"
        }
      ],
      "stateMutability": "pure",
      "type": "function"
    },
    {
      "stateMutability": "payable",
      "type": "receive"
    }
  ],
  "transactionHash": "0x8a60e41ccb8253f2346c888d7d35d58c6c6ffb9e6755a2ab2f2741d8eb20b631",
  "args": [
    "0x8f1ca3288764F0BC18eefeCA6D821D8bC93c99bf"
  ],
  "solcInputHash": "d661444e9ab44536e22176239a595dea",
  "bytecode": "0x60e06040526009805460ff19166001179055611388600f556103e86015553480156200002a57600080fd5b5060405162004d3938038062004d398339810160408190526200004d91620002dd565b7f5969656c6459616b20636f6d706f756e64696e6700000000000000000000000081806001600160a01b038116620000d65760405162461bcd60e51b815260206004820152602260248201527f506c656173652070726f766964652076616c696420726f6c6573206164647265604482015261737360f01b606482015260840160405180910390fd5b60601b6001600160601b0319166080526002805460018082018355606a60008051602062004d198339815191529283015560058054808301825560047f036b6384b5eca791c62761152d0c79bb0604c104a5fb6f4eb0703f3154bb3db09182018190558554808501875560669086015582548085019093559101849055835480830185556068908401556003805480840182557fc2575a0e9e593c00f959f8c92f12db2869c3395a3b0502d05e2516446f71f85b908101829055815480850190925501829055835491820184556000939093526069910181905560405163b4ed0b6d60e01b8152918201526001600160a01b0382169063b4ed0b6d9060240160206040518083038186803b158015620001ee57600080fd5b505afa15801562000203573d6000803e3d6000fd5b505050506040513d601f19601f82011682018060405250810190620002299190620002dd565b6001600160a01b031663fae794e66040518163ffffffff1660e01b815260040160206040518083038186803b1580156200026257600080fd5b505afa15801562000277573d6000803e3d6000fd5b505050506040513d601f19601f820116820180604052508101906200029d91906200030d565b60a052506001600881905560c091909152600280549182018155600052606760008051602062004d1983398151915290910155506101f4600f5562000326565b600060208284031215620002ef578081fd5b81516001600160a01b038116811462000306578182fd5b9392505050565b6000602082840312156200031f578081fd5b5051919050565b60805160601c60a05160c05161498f6200038a60003960008181610bb40152610f740152600061202201526000818161062701528181610d85015281816113cf01528181612816015281816128a9015281816130960152613525015261498f6000f3fe6080604052600436106103bc5760003560e01c80637b2c9279116101f2578063b83279931161010d578063e2e730f6116100a0578063fa98a4ba1161006f578063fa98a4ba14610cca578063fabee7db14610cea578063fac82e8c14610d0a578063fd80d0c314610d2a576103c3565b8063e2e730f614610c3f578063e8ea4fae14610c5f578063e9c3f77d14610c74578063f8903fb714610caa576103c3565b8063d9cb512c116100dc578063d9cb512c14610b78578063dc94cb7d14610b8d578063e173ad2514610ba2578063e22d284514610bd6576103c3565b8063b832799314610af8578063bf184ea414610b18578063c5c72dc314610b38578063d241c9c014610b58576103c3565b80639fffe06411610185578063abcbc4fc11610154578063abcbc4fc14610a5d578063aeb38d8b14610a7d578063b06ea8f014610a9d578063b23d66c214610ab3576103c3565b80639fffe064146109c6578063a4d77f90146109e6578063a50233c914610a1b578063a51c8fab14610a3b576103c3565b8063942d5218116101c1578063942d52181461095d5780639470505f1461058457806395494bf51461097d5780639b0f09ae146109aa576103c3565b80637b2c9279146108d85780637dad209b146108ed5780638496e8911461090257806389f117b31461093d576103c3565b80633a3db435116102e25780634df87c09116102755780636fecdf24116102445780636fecdf24146107e857806371b3177a1461085d5780637268d1c01461087d5780637a1a04df1461089d576103c3565b80634df87c091461074e5780635b3e5f501461076e5780636caa9c111461079b5780636e1da41d146107bb576103c3565b806349d4f22e116102b157806349d4f22e146106c95780634a7a7f41146106e95780634d5783591461070b5780634d9d01b214610739576103c3565b80633a3db435146106495780633ace96ec14610669578063447d52ba14610689578063459ba127146106a9576103c3565b806321fa0f1f1161035a578063272d177d11610329578063272d177d1461059f57806328f3fc73146105bf578063296b1228146105df578063392f5f6414610615576103c3565b806321fa0f1f146104df57806322f3e2d4146105015780632642b6061461052b57806326473a8f14610584576103c3565b80630ccc5bd6116103965780630ccc5bd614610451578063110acb231461047157806318af4c9e1461049e5780631dc3a759146104be576103c3565b806301c7b9f8146103c5578063071060a6146103f85780630a3017d914610418576103c3565b366103c357005b005b3480156103d157600080fd5b506103e56103e0366004614437565b610d4a565b6040519081526020015b60405180910390f35b34801561040457600080fd5b506103c3610413366004614407565b610d6f565b34801561042457600080fd5b506103e56104333660046141c4565b6001600160a01b031660009081526010602052604090206004015490565b34801561045d57600080fd5b506103c361046c3660046142b2565b610e35565b34801561047d57600080fd5b5061049161048c3660046141c4565b610ebe565b6040516103ef9190614849565b3480156104aa57600080fd5b506103c36104b9366004614437565b610fc0565b3480156104ca57600080fd5b506103e56104d9366004614407565b50600090565b3480156104eb57600080fd5b506104f461106a565b6040516103ef91906146aa565b34801561050d57600080fd5b5060095461051b9060ff1681565b60405190151581526020016103ef565b34801561053757600080fd5b5061056c6105463660046141fc565b60066020908152600092835260408084209091529082529020546001600160a01b031681565b6040516001600160a01b0390911681526020016103ef565b34801561059057600080fd5b506103e56104d93660046141c4565b3480156105ab57600080fd5b506103c36105ba366004614287565b61113d565b3480156105cb57600080fd5b506103c36105da3660046141fc565b6111a5565b3480156105eb57600080fd5b5061056c6105fa3660046141c4565b6011602052600090815260409020546001600160a01b031681565b34801561062157600080fd5b5061056c7f000000000000000000000000000000000000000000000000000000000000000081565b34801561065557600080fd5b506103c3610664366004614407565b61129e565b34801561067557600080fd5b506103c3610684366004614234565b6112ec565b34801561069557600080fd5b506103c36106a4366004614437565b6113a9565b3480156106b557600080fd5b506103c36106c43660046144d8565b611481565b3480156106d557600080fd5b506103c36106e43660046142b2565b611526565b3480156106f557600080fd5b506106fe6115a9565b6040516103ef91906146ed565b34801561071757600080fd5b5061072b6107263660046141fc565b611601565b6040516103ef929190614725565b34801561074557600080fd5b506103e561163d565b34801561075a57600080fd5b5061051b6107693660046141c4565b61164e565b34801561077a57600080fd5b506103e56107893660046141c4565b60136020526000908152604090205481565b3480156107a757600080fd5b506103e56107b6366004614407565b611661565b3480156107c757600080fd5b506103e56107d63660046141c4565b60146020526000908152604090205481565b3480156107f457600080fd5b506108356108033660046141c4565b601060205260009081526040902060018101546002820154600383015460048401546005909401549293919290919085565b604080519586526020860194909452928401919091526060830152608082015260a0016103ef565b34801561086957600080fd5b506103c3610878366004614534565b611682565b34801561088957600080fd5b506103e5610898366004614407565b61175e565b3480156108a957600080fd5b5061051b6108b8366004614287565b600160209081526000928352604080842090915290825290205460ff1681565b3480156108e457600080fd5b5061056c611784565b3480156108f957600080fd5b506106fe61178e565b34801561090e57600080fd5b5061092261091d366004614491565b6117e4565b604080519384526020840192909252908201526060016103ef565b34801561094957600080fd5b506103c36109583660046141c4565b611932565b34801561096957600080fd5b506103c3610978366004614344565b6119be565b34801561098957600080fd5b506103e5610998366004614407565b60126020526000908152604090205481565b3480156109b657600080fd5b5060016040516103ef9190614740565b3480156109d257600080fd5b506103c36109e13660046141fc565b611ab6565b3480156109f257600080fd5b50610a06610a01366004614437565b611b95565b604080519283526020830191909152016103ef565b348015610a2757600080fd5b506103c3610a3636600461439e565b611bbe565b348015610a4757600080fd5b50610a50611c7f565b6040516103ef919061465d565b348015610a6957600080fd5b506103e5610a78366004614407565b611c8b565b348015610a8957600080fd5b506103e5610a98366004614407565b611c9b565b348015610aa957600080fd5b506103e5600f5481565b348015610abf57600080fd5b50610ad3610ace366004614491565b611cab565b604080516001600160a01b0390941684526020840192909252908201526060016103ef565b348015610b0457600080fd5b506103c3610b133660046142f3565b611e39565b348015610b2457600080fd5b506103e5610b33366004614407565b611ef2565b348015610b4457600080fd5b506103e5610b53366004614407565b611f02565b348015610b6457600080fd5b5061056c610b73366004614407565b61201a565b348015610b8457600080fd5b50610a50612114565b348015610b9957600080fd5b506106fe612120565b348015610bae57600080fd5b506103e57f000000000000000000000000000000000000000000000000000000000000000081565b348015610be257600080fd5b50610c1b610bf1366004614407565b600e602052600090815260409020805460018201546002909201549091906001600160a01b031683565b6040805193845260208401929092526001600160a01b0316908201526060016103ef565b348015610c4b57600080fd5b506103e5610c5a3660046141c4565b612176565b348015610c6b57600080fd5b506106fe612278565b348015610c8057600080fd5b5061056c610c8f366004614407565b6000602081905290815260409020546001600160a01b031681565b348015610cb657600080fd5b506103e5610cc536600461445b565b6122ce565b348015610cd657600080fd5b50610922610ce536600461445b565b6123f4565b348015610cf657600080fd5b5061056c610d05366004614407565b61242f565b348015610d1657600080fd5b506103c3610d253660046141c4565b61244d565b348015610d3657600080fd5b506103e5610d45366004614437565b61267b565b6000610d67610d588461242f565b610d6185611f02565b846126bf565b509392505050565b60405163b4ed0b6d60e01b8152600481018290527f00000000000000000000000000000000000000000000000000000000000000006001600160a01b03169063b4ed0b6d9060240160206040518083038186803b158015610dcf57600080fd5b505afa158015610de3573d6000803e3d6000fd5b505050506040513d601f19601f82011682018060405250810190610e0791906141e0565b60009182526020829052604090912080546001600160a01b0319166001600160a01b03909216919091179055565b33610e3e612812565b6001600160a01b03161480610e62575033610e576128a5565b6001600160a01b0316145b610e875760405162461bcd60e51b8152600401610e7e90614761565b60405180910390fd5b6001600160a01b038116610ead5760405162461bcd60e51b8152600401610e7e906147db565b610eb8818484612916565b50505050565b610ec66140f6565b600080610ee384670de0b6b3a7640000610ede612b4b565b6126bf565b91509150604051806101600160405280306001600160a01b03168152602001856001600160a01b03168152602001610f33866001600160a01b031660009081526010602052604090206004015490565b815260200160106000876001600160a01b03166001600160a01b031681526020019081526020016000206002015481526020018281526020018381526020017f00000000000000000000000000000000000000000000000000000000000000008152602001610fa186612176565b8152600060208201526040016001815260200160009052949350505050565b33610fc9612812565b6001600160a01b03161480610fed575033610fe26128a5565b6001600160a01b0316145b6110095760405162461bcd60e51b8152600401610e7e90614761565b6001600160a01b03811661102f5760405162461bcd60e51b8152600401610e7e906147db565b6040516001600160a01b0382169083156108fc029084906000818181858888f19350505050158015611065573d6000803e3d6000fd5b505050565b60606000611078600a612b83565b905060008167ffffffffffffffff8111156110a357634e487b7160e01b600052604160045260246000fd5b6040519080825280602002602001820160405280156110dc57816020015b6110c96140f6565b8152602001906001900390816110c15790505b50905060005b80831115611136576110f861048c600a83612b8d565b82828151811061111857634e487b7160e01b600052603260045260246000fd5b6020026020010181905250808061112e906148e6565b9150506110e2565b5091505090565b33611146612812565b6001600160a01b0316148061116a57503361115f6128a5565b6001600160a01b0316145b6111865760405162461bcd60e51b8152600401610e7e90614761565b6001600160a01b03909116600090815260106020526040902060050155565b6001600160a01b0382811660009081526006602090815260408083208585168452909152902054161561129a576111da612b99565b60405163179ce80d60e21b81526001600160a01b03848116600483015283811660248301529190911690635e73a0349060440160206040518083038186803b15801561122557600080fd5b505afa158015611239573d6000803e3d6000fd5b505050506040513d601f19601f8201168201806040525081019061125d91906141e0565b6001600160a01b0383811660009081526006602090815260408083208685168452909152902080546001600160a01b031916929091169190911790555b5050565b336112a7612812565b6001600160a01b031614806112cb5750336112c06128a5565b6001600160a01b0316145b6112e75760405162461bcd60e51b8152600401610e7e90614761565b600f55565b336112f5612812565b6001600160a01b0316148061131957503361130e6128a5565b6001600160a01b0316145b6113355760405162461bcd60e51b8152600401610e7e90614761565b611340600a84612bd1565b50611349612be6565b6040516311848c4560e01b81523060048201526001600160a01b0391909116906311848c4590602401600060405180830381600087803b15801561138c57600080fd5b505af11580156113a0573d6000803e3d6000fd5b50505050505050565b6040516393552a3d60e01b8152600481018390526001600160a01b0382811660248301527f000000000000000000000000000000000000000000000000000000000000000016906393552a3d9060440160206040518083038186803b15801561141157600080fd5b505afa158015611425573d6000803e3d6000fd5b505050506040513d601f19601f8201168201806040525081019061144991906143e7565b6001600160a01b0391909116600090815260016020908152604080832094835293905291909120805460ff1916911515919091179055565b600260085414156114a45760405162461bcd60e51b8152600401610e7e90614812565b60026008556114b28561201a565b6001600160a01b0316336001600160a01b03161461150e5760405162461bcd60e51b81526020600482015260196024820152784e6f7420617574686f72697a656420746f206d69677261746560381b6044820152606401610e7e565b61151a84868584612c1e565b50506001600855505050565b3361152f612812565b6001600160a01b031614806115535750336115486128a5565b6001600160a01b0316145b61156f5760405162461bcd60e51b8152600401610e7e90614761565b6001600160a01b0381166115955760405162461bcd60e51b8152600401610e7e906147db565b6110656001600160a01b0384168284612c67565b606060038054806020026020016040519081016040528092919081815260200182805480156115f757602002820191906000526020600020905b8154815260200190600101908083116115e3575b5050505050905090565b6000606061160e8461164e565b604080516001600160a01b038616602082015201604051602081830303815290604052915091505b9250929050565b6000611649600a612b83565b905090565b600061165b600a83612cca565b92915050565b6005818154811061167157600080fd5b600091825260209091200154905081565b60095460ff166116a45760405162461bcd60e51b8152600401610e7e906147ab565b600260085414156116c75760405162461bcd60e51b8152600401610e7e90614812565b60026008556116d533612cec565b6117215760405162461bcd60e51b815260206004820152601a60248201527f4e6f7420617574686f72697a656420746f2077697468647261770000000000006044820152606401610e7e565b6001600160a01b0381166117475760405162461bcd60e51b8152600401610e7e906147db565b61175384848484612d15565b505060016008555050565b600061177d61176c8361242f565b61177584611f02565b610ede611784565b9392505050565b6000611649612b4b565b606060048054806020026020016040519081016040528092919081815260200182805480156115f757602002820191906000526020600020908154815260200190600101908083116115e3575050505050905090565b60008060006002600854141561180c5760405162461bcd60e51b8152600401610e7e90614812565b600260085561181a33612cec565b806118a957506118298761201a565b6040516302972b0f60e41b8152336004820152602481018990526001600160a01b039190911690632972b0f09060440160206040518083038186803b15801561187157600080fd5b505afa158015611885573d6000803e3d6000fd5b505050506040513d601f19601f820116820180604052508101906118a991906143e7565b6118f55760405162461bcd60e51b815260206004820152601f60248201527f4e6f7420617574686f72697a656420746f20636f6c6c656374207969656c64006044820152606401610e7e565b611900878786612ddf565b925061191d61190e8861242f565b61191789611f02565b87612fcd565b60016008559398909750929550919350505050565b600260085414156119555760405162461bcd60e51b8152600401610e7e90614812565b60026008556001600160a01b03808216600090815260116020526040808220548151637edad01f60e11b8152915193169263fdb5a03e9260048084019391929182900301818387803b1580156119aa57600080fd5b505af115801561151a573d6000803e3d6000fd5b336119c7612812565b6001600160a01b031614806119eb5750336119e06128a5565b6001600160a01b0316145b806119fa57506119fa3361306c565b611a6c5760405162461bcd60e51b815260206004820152603960248201527f43616c6c6572206973206e6f7420746865206f776e65722c206578656375746f60448201527f72206f7220617574686f72697a656420616374697661746f72000000000000006064820152608401610e7e565b6001600160a01b0384166000908152601060205260409020600501839055611a95848383613112565b611aaf84670de0b6b3a7640000611aaa612b4b565b613364565b5050505050565b33611abf612812565b6001600160a01b03161480611ae3575033611ad86128a5565b6001600160a01b0316145b611aff5760405162461bcd60e51b8152600401610e7e90614761565b6001600160a01b038281166000908152601160205260409020541615611b675760405162461bcd60e51b815260206004820152601d60248201527f53747261746567792068617320616c7265616479206265656e207365740000006044820152606401610e7e565b6001600160a01b03918216600090815260116020526040902080546001600160a01b03191691909216179055565b600080611bb3611ba48561242f565b611bad86611f02565b856126bf565b915091509250929050565b60095460ff16611be05760405162461bcd60e51b8152600401610e7e906147ab565b60026008541415611c035760405162461bcd60e51b8152600401610e7e90614812565b6002600855611c1133612cec565b611c6b5760405162461bcd60e51b815260206004820152602560248201527f4e6f7420617574686f72697a656420746f207472616e7366657220757365722060448201526466756e647360d81b6064820152608401610e7e565b611753848484611c79611784565b8561342f565b6060611649600a6134fe565b6002818154811061167157600080fd5b6004818154811061167157600080fd5b6009546000908190819060ff16611cd45760405162461bcd60e51b8152600401610e7e906147ab565b611cdd8761201a565b6001600160a01b0316336001600160a01b031614611d395760405162461bcd60e51b81526020600482015260196024820152784e6f7420617574686f72697a656420746f206d69677261746560381b6044820152606401610e7e565b6000611d448861242f565b90506000611d5189611f02565b60405163095ea7b360e01b81526001600160a01b038a81166004830152602482018390529192509083169063095ea7b390604401602060405180830381600087803b158015611d9f57600080fd5b505af1158015611db3573d6000803e3d6000fd5b505050506040513d601f19601f82011682018060405250810190611dd791906143e7565b50611de3898888612ddf565b506000611df1308484612916565b6001600160a01b038416600090815260106020526040812060020180549293508392909190611e219084906148a3565b90915550929a60009a50919850909650505050505050565b60095460ff16611e5b5760405162461bcd60e51b8152600401610e7e906147ab565b60026008541415611e7e5760405162461bcd60e51b8152600401610e7e90614812565b6002600855611e8c33612cec565b8015611ea8575033611e9d8561201a565b6001600160a01b0316145b611ee65760405162461bcd60e51b815260206004820152600f60248201526e496e76616c6964207472616e63686560881b6044820152606401610e7e565b61151a85858584612c1e565b6003818154811061167157600080fd5b6000818152600e60209081526040808320805460028201546001600160a01b0390811686526011855283862054878752601290955283862054935163755c4d2d60e11b8152929491938693929091169163eab89a5a91611f689160040190815260200190565b60206040518083038186803b158015611f8057600080fd5b505afa158015611f94573d6000803e3d6000fd5b505050506040513d601f19601f82011682018060405250810190611fb8919061441f565b90506000601554612710611fcc91906148a3565b9050612710611fdb8285614884565b611fe59190614870565b612710611ff28385614884565b611ffc9190614870565b6120069085614858565b61201091906148a3565b9695505050505050565b6000806120477f000000000000000000000000000000000000000000000000000000000000000084614901565b6000818152600760205260409020549091506001600160a01b03168061177d57606960009081526020527f366a7b92acda364086cc991f618bf9f10b629ec0f7ae94543f96b691b69ec9925460405163043b4d2f60e51b8152600481018490526001600160a01b0390911690638769a5e09060240160206040518083038186803b1580156120d457600080fd5b505afa1580156120e8573d6000803e3d6000fd5b505050506040513d601f19601f8201168201806040525081019061210c91906141e0565b949350505050565b6060611649600c6134fe565b606060028054806020026020016040519081016040528092919081815260200182805480156115f757602002820191906000526020600020908154815260200190600101908083116115e3575050505050905090565b6001600160a01b038181166000908152601160205260408082205490516370a0823160e01b815230600482015291921690819063eab89a5a9082906370a082319060240160206040518083038186803b1580156121d257600080fd5b505afa1580156121e6573d6000803e3d6000fd5b505050506040513d601f19601f8201168201806040525081019061220a919061441f565b6040518263ffffffff1660e01b815260040161222891815260200190565b60206040518083038186803b15801561224057600080fd5b505afa158015612254573d6000803e3d6000fd5b505050506040513d601f19601f8201168201806040525081019061177d919061441f565b606060058054806020026020016040519081016040528092919081815260200182805480156115f757602002820191906000526020600020908154815260200190600101908083116115e3575050505050905090565b6000600260085414156122f35760405162461bcd60e51b8152600401610e7e90614812565b600260085561230133612cec565b8061239057506123108461201a565b6040516302972b0f60e41b8152336004820152602481018690526001600160a01b039190911690632972b0f09060440160206040518083038186803b15801561235857600080fd5b505afa15801561236c573d6000803e3d6000fd5b505050506040513d601f19601f8201168201806040525081019061239091906143e7565b6123dc5760405162461bcd60e51b815260206004820152601f60248201527f4e6f7420617574686f72697a656420746f20636f6c6c656374207969656c64006044820152606401610e7e565b6123e7848484612ddf565b6001600855949350505050565b6000806000612403868661267b565b92506124206124118761242f565b61241a88611f02565b866126bf565b93979096509294509192505050565b6000908152600e60205260409020600201546001600160a01b031690565b60095460ff1661246f5760405162461bcd60e51b8152600401610e7e906147ab565b33612478612812565b6001600160a01b0316148061249c5750336124916128a5565b6001600160a01b0316145b806124b65750336124ab61350b565b6001600160a01b0316145b6125285760405162461bcd60e51b815260206004820152603860248201527f43616c6c6572206973206e6f7420746865206f776e65722c206578656375746f60448201527f72206f7220617574686f72697a65642064697361626c657200000000000000006064820152608401610e7e565b60005b80612536600c612b83565b111561266d576000612549600c83612b8d565b9050600061255682612176565b90506000612562612be6565b905061256f818484612916565b5060405163095ea7b360e01b81526001600160a01b038281166004830152600019602483015284169063095ea7b390604401602060405180830381600087803b1580156125bb57600080fd5b505af11580156125cf573d6000803e3d6000fd5b505050506040513d601f19601f820116820180604052508101906125f391906143e7565b5060405163269974d160e21b81526001600160a01b0386811660048301528481166024830152821690639a65d34490604401600060405180830381600087803b15801561263f57600080fd5b505af1158015612653573d6000803e3d6000fd5b505050505050508080612665906148e6565b91505061252b565b50506009805460ff19169055565b6000828152600e6020526040812061210c816010846126998861242f565b6001600160a01b03166001600160a01b031681526020019081526020016000208561356f565b6001600160a01b038084166000908152600660209081526040808320858516845290915281205490918291168061277e576126f8612b99565b60405163179ce80d60e21b81526001600160a01b03888116600483015286811660248301529190911690635e73a0349060440160206040518083038186803b15801561274357600080fd5b505afa158015612757573d6000803e3d6000fd5b505050506040513d601f19601f8201168201806040525081019061277b91906141e0565b90505b6040516313f3552960e21b81526001600160a01b038781166004830152602482018790528581166044830152821690634fcd54a490606401604080518083038186803b1580156127cd57600080fd5b505afa1580156127e1573d6000803e3d6000fd5b505050506040513d601f19601f820116820180604052508101906128059190614511565b9097909650945050505050565b60007f00000000000000000000000000000000000000000000000000000000000000006001600160a01b0316638da5cb5b6040518163ffffffff1660e01b815260040160206040518083038186803b15801561286d57600080fd5b505afa158015612881573d6000803e3d6000fd5b505050506040513d601f19601f8201168201806040525081019061164991906141e0565b60007f00000000000000000000000000000000000000000000000000000000000000006001600160a01b031663c34c08e56040518163ffffffff1660e01b8152600401602060405180830381600087803b15801561290257600080fd5b505af1158015612881573d6000803e3d6000fd5b60006001600160a01b03841661293e5760405162461bcd60e51b8152600401610e7e906147db565b6001600160a01b03838116600090815260116020526040808220549051636ec6726b60e11b815260048101869052921691829063dd8ce4d69060240160206040518083038186803b15801561299257600080fd5b505afa1580156129a6573d6000803e3d6000fd5b505050506040513d601f19601f820116820180604052508101906129ca919061441f565b6040516370a0823160e01b81523060048201529091506000906001600160a01b038716906370a082319060240160206040518083038186803b158015612a0f57600080fd5b505afa158015612a23573d6000803e3d6000fd5b505050506040513d601f19601f82011682018060405250810190612a47919061441f565b604051632e1a7d4d60e01b8152600481018490529091506001600160a01b03841690632e1a7d4d90602401600060405180830381600087803b158015612a8c57600080fd5b505af1158015612aa0573d6000803e3d6000fd5b50506040516370a0823160e01b8152306004820152600092508391506001600160a01b038916906370a082319060240160206040518083038186803b158015612ae857600080fd5b505afa158015612afc573d6000803e3d6000fd5b505050506040513d601f19601f82011682018060405250810190612b20919061441f565b612b2a91906148a3565b9050612b406001600160a01b0388168983612c67565b979650505050505050565b606660009081526020527f422cccb7cea5c0e46f340bb7b21b81debac329f72e31669c20ff0f3a05cc2b5b546001600160a01b031690565b600061165b825490565b600061177d838361368e565b606a60009081526020527ff3261457f4fd0b7c00a1511877ab27b74183ac470be8db3a7ecdc64335f6f979546001600160a01b031690565b600061177d836001600160a01b0384166136c6565b606860009081526020527faa071f48f62aaaa1f6320aaa7bd2ad2d552d05160892c14d699d38c9920d5f99546001600160a01b031690565b6001600160a01b03821660009081526010602090815260408083208054878552600e909352922060010155612c5384846137e3565b611aaf858584612c61611784565b8961342f565b6040516001600160a01b03831660248201526044810182905261106590849063a9059cbb60e01b906064015b60408051601f198184030181529190526020810180516001600160e01b03166001600160e01b031990931692909217909152613863565b6001600160a01b0381166000908152600183016020526040812054151561177d565b6001600160a01b0316600090815260016020818152604080842092845291905290205460ff1690565b612d2184848484613935565b6000848152600e6020526040902080548015612dd75760028201546001600160a01b0390811660009081526011602052604090819020549051636ec6726b60e11b81526004810184905291169063dd8ce4d69060240160206040518083038186803b158015612d8f57600080fd5b505afa158015612da3573d6000803e3d6000fd5b505050506040513d601f19601f82011682018060405250810190612dc7919061441f565b6000878152601260205260409020555b505050505050565b6000838152600e60205260408120805415612fc25760028101546001600160a01b0316600081815260106020526040812090612e1a88611f02565b84546001600160a01b03858116600090815260116020526040808220549051636ec6726b60e11b815260048101869052949550929390929091169063dd8ce4d69060240160206040518083038186803b158015612e7657600080fd5b505afa158015612e8a573d6000803e3d6000fd5b505050506040513d601f19601f82011682018060405250810190612eae919061441f565b905081831115612f9857612f2d612ef6606760009081526020527f682158d08466d11c566d5712d4396197fdd67e65be71d83c97ef719ec468867b546001600160a01b031690565b86601554612710612f0791906148a3565b612f1186886148a3565b601554612f1e9190614884565b612f289190614870565b612916565b50600081612f4385670de0b6b3a7640000614884565b612f4d9190614870565b6001600160a01b038716600090815260146020526040902054909150612f7d87612f7783856148a3565b836139f5565b506001600160a01b0386166000908152601460205260409020555b81838560020154612fa99190614858565b612fb391906148a3565b60029094019390935550835550505b506000949350505050565b6001600160a01b038084166000908152600660209081526040808320858516845290915281205490918291166130038685613ae5565b60405163442fd02b60e11b81526001600160a01b0388811660048301526024820188905286811660448301529192509082169063885fa056906064016040805180830381600087803b15801561305857600080fd5b505af11580156127e1573d6000803e3d6000fd5b6040516393552a3d60e01b81526103eb60048201526001600160a01b0382811660248301526000917f0000000000000000000000000000000000000000000000000000000000000000909116906393552a3d9060440160206040518083038186803b1580156130da57600080fd5b505afa1580156130ee573d6000803e3d6000fd5b505050506040513d601f19601f8201168201806040525081019061165b91906143e7565b6000613120828401846141c4565b9050836001600160a01b0316816001600160a01b031663c89039c56040518163ffffffff1660e01b815260040160206040518083038186803b15801561316557600080fd5b505afa158015613179573d6000803e3d6000fd5b505050506040513d601f19601f8201168201806040525081019061319d91906141e0565b6001600160a01b0316146132105760405162461bcd60e51b815260206004820152603460248201527f50726f76696465642079616b20737472617465677920646f6573206e6f742074604482015273185ad9481d1bdad95b88185cc819195c1bdcda5d60621b6064820152608401610e7e565b6001600160a01b0384811660009081526011602052604090205416158061325357506001600160a01b038481166000908152601160205260409020548116908216145b61329f5760405162461bcd60e51b815260206004820152601d60248201527f53747261746567792068617320616c7265616479206265656e207365740000006044820152606401610e7e565b6001600160a01b038481166000908152601160205260409081902080546001600160a01b03191692841692831790555163755c4d2d60e11b8152670de0b6b3a7640000600482015263eab89a5a9060240160206040518083038186803b15801561330857600080fd5b505afa15801561331c573d6000803e3d6000fd5b505050506040513d601f19601f82011682018060405250810190613340919061441f565b6001600160a01b038516600090815260146020526040902055610eb8848484613b9f565b6001600160a01b03808416600090815260066020908152604080832085851684529091528120549091166133988584613ae5565b604051630576cbc360e41b81526001600160a01b0387811660048301526024820187905285811660448301529192509082169063576cbc3090606401602060405180830381600087803b1580156133ee57600080fd5b505af1158015613402573d6000803e3d6000fd5b505050506040513d601f19601f82011682018060405250810190613426919061441f565b95945050505050565b61343c8585858585613be6565b6000848152600e6020818152604080842060028101546001600160a01b0390811686526011845282862054958a90529390925281549051636ec6726b60e11b8152600481019190915290929091169063dd8ce4d69060240160206040518083038186803b1580156134ac57600080fd5b505afa1580156134c0573d6000803e3d6000fd5b505050506040513d601f19601f820116820180604052508101906134e4919061441f565b600095865260126020526040909520949094555050505050565b6060600061177d83613cdf565b60405163b4ed0b6d60e01b81526103e960048201526000907f00000000000000000000000000000000000000000000000000000000000000006001600160a01b03169063b4ed0b6d9060240160206040518083038186803b15801561286d57600080fd5b6000613579611784565b6001600160a01b0316826001600160a01b0316146135d05760405162461bcd60e51b815260206004820152601460248201527357726f6e67207969656c642063757272656e637960601b6044820152606401610e7e565b60018401548354849110156136845760008186600101548154811061360557634e487b7160e01b600052603260045260246000fd5b9060005260206000200154826001848054905061362291906148a3565b8154811061364057634e487b7160e01b600052603260045260246000fd5b906000526020600020015461365591906148a3565b9050680100000000000000008187600001546136719190614884565b61367b9190614870565b9250505061177d565b600091505061177d565b60008260000182815481106136b357634e487b7160e01b600052603260045260246000fd5b9060005260206000200154905092915050565b600081815260018301602052604081205480156137d95760006136ea6001836148a3565b85549091506000906136fe906001906148a3565b905081811461377f57600086600001828154811061372c57634e487b7160e01b600052603260045260246000fd5b906000526020600020015490508087600001848154811061375d57634e487b7160e01b600052603260045260246000fd5b6000918252602080832090910192909255918252600188019052604090208390555b855486908061379e57634e487b7160e01b600052603160045260246000fd5b60019003818190600052602060002001600090559055856001016000868152602001908152602001600020600090556001935050505061165b565b600091505061165b565b6137ee600a82612cca565b6138325760405162461bcd60e51b81526020600482015260156024820152742737ba1030b71030b8383937bb32b2103a37b5b2b760591b6044820152606401610e7e565b6000918252600e602052604090912060020180546001600160a01b0319166001600160a01b03909216919091179055565b60006138b8826040518060400160405280602081526020017f5361666545524332303a206c6f772d6c6576656c2063616c6c206661696c6564815250856001600160a01b0316613d3b9092919063ffffffff16565b80519091501561106557808060200190518101906138d691906143e7565b6110655760405162461bcd60e51b815260206004820152602a60248201527f5361666545524332303a204552433230206f7065726174696f6e20646964206e6044820152691bdd081cdd58d8d9595960b21b6064820152608401610e7e565b6000848152600e602052604081209061394d8661242f565b905061395a868585612ddf565b5061396d8561396888611f02565b613d4a565b945061397a838287612916565b508482600001600082825461398f91906148a3565b90915550506001600160a01b0381166000908152601060205260408120600281018054919288926139c19084906148a3565b90915550506001830154815411156113a057858160010160008282546139e791906148a3565b909155505050505050505050565b6001600160a01b03831660009081526010602052604090208215610eb8576003810154600081613a285762093a80613a32565b613a3282426148a3565b905060008185613a428189614858565b613a4e90612710614884565b613a5c906301e13380614884565b613a669190614870565b613a709190614870565b90506000808411613a82576000613a86565b600f545b9050612710613a9582826148a3565b613a9f9084614884565b613aa99190614870565b612710828760040154613abc9190614884565b613ac69190614870565b613ad09190614858565b60048601555050426003840155505050505050565b6001600160a01b0380831660009081526006602090815260408083208585168452909152902054168061165b57613b1a612b99565b6040516302eaec2d60e31b81526001600160a01b03858116600483015284811660248301529190911690631757616890604401602060405180830381600087803b158015613b6757600080fd5b505af1158015613b7b573d6000803e3d6000fd5b505050506040513d601f19601f8201168201806040525081019061177d91906141e0565b613baa600a84613d62565b50613bb6600c84613d62565b506001600160a01b0383166000908152601060205260409020612710600482015542600390910155611349612be6565b6000613bf18561242f565b9050613bfe858484612ddf565b50613c0a868286613d77565b6000858152600e6020526040902054613c238582614858565b6000878152600e60209081526040808320939093556001600160a01b03851682526010905290812060028101805491928892613c60908490614858565b90915550613c7a90508784613c758986614858565b613e77565b613c8383612176565b816005015411613cd55760405162461bcd60e51b815260206004820152601760248201527f457863656564696e67206465706f736974206c696d69740000000000000000006044820152606401610e7e565b5050505050505050565b606081600001805480602002602001604051908101604052809291908181526020018280548015613d2f57602002820191906000526020600020905b815481526020019060010190808311613d1b575b50505050509050919050565b606061210c8484600085613f19565b600081831115613d5b57508061165b565b508161165b565b600061177d836001600160a01b038416614036565b613d8c6001600160a01b038316843084614085565b6001600160a01b038281166000818152601160205260409081902054905163095ea7b360e01b8152921660048301819052602483018490529163095ea7b390604401602060405180830381600087803b158015613de857600080fd5b505af1158015613dfc573d6000803e3d6000fd5b505050506040513d601f19601f82011682018060405250810190613e2091906143e7565b5060405163b6b55f2560e01b8152600481018390526001600160a01b0382169063b6b55f2590602401600060405180830381600087803b158015613e6357600080fd5b505af1158015613cd5573d6000803e3d6000fd5b6001600160a01b0382811660009081526011602052604090819020549051636ec6726b60e11b81526004810184905291169063dd8ce4d69060240160206040518083038186803b158015613eca57600080fd5b505afa158015613ede573d6000803e3d6000fd5b505050506040513d601f19601f82011682018060405250810190613f02919061441f565b600093845260126020526040909320929092555050565b606082471015613f7a5760405162461bcd60e51b815260206004820152602660248201527f416464726573733a20696e73756666696369656e742062616c616e636520666f6044820152651c8818d85b1b60d21b6064820152608401610e7e565b843b613fc85760405162461bcd60e51b815260206004820152601d60248201527f416464726573733a2063616c6c20746f206e6f6e2d636f6e74726163740000006044820152606401610e7e565b600080866001600160a01b03168587604051613fe49190614641565b60006040518083038185875af1925050503d8060008114614021576040519150601f19603f3d011682016040523d82523d6000602084013e614026565b606091505b5091509150612b408282866140bd565b600081815260018301602052604081205461407d5750815460018181018455600084815260208082209093018490558454848252828601909352604090209190915561165b565b50600061165b565b6040516001600160a01b0380851660248301528316604482015260648101829052610eb89085906323b872dd60e01b90608401612c93565b606083156140cc57508161177d565b8251156140dc5782518084602001fd5b8160405162461bcd60e51b8152600401610e7e919061474e565b60405180610160016040528060006001600160a01b0316815260200160006001600160a01b03168152602001600081526020016000815260200160008152602001600081526020016000801916815260200160008152602001600081526020016000600281111561417757634e487b7160e01b600052602160045260246000fd5b8152602001600081525090565b60008083601f840112614195578182fd5b50813567ffffffffffffffff8111156141ac578182fd5b60208301915083602082850101111561163657600080fd5b6000602082840312156141d5578081fd5b813561177d81614941565b6000602082840312156141f1578081fd5b815161177d81614941565b6000806040838503121561420e578081fd5b823561421981614941565b9150602083013561422981614941565b809150509250929050565b600080600060408486031215614248578081fd5b833561425381614941565b9250602084013567ffffffffffffffff81111561426e578182fd5b61427a86828701614184565b9497909650939450505050565b60008060408385031215614299578182fd5b82356142a481614941565b946020939093013593505050565b6000806000606084860312156142c6578283fd5b83356142d181614941565b92506020840135915060408401356142e881614941565b809150509250925092565b600080600080600060a0868803121561430a578081fd5b853561431581614941565b945060208601359350604086013561432c81614941565b94979396509394606081013594506080013592915050565b60008060008060608587031215614359578384fd5b843561436481614941565b935060208501359250604085013567ffffffffffffffff811115614386578283fd5b61439287828801614184565b95989497509550505050565b600080600080608085870312156143b3578384fd5b84356143be81614941565b9350602085013592506040850135915060608501356143dc81614941565b939692955090935050565b6000602082840312156143f8578081fd5b8151801515811461177d578182fd5b600060208284031215614418578081fd5b5035919050565b600060208284031215614430578081fd5b5051919050565b60008060408385031215614449578182fd5b82359150602083013561422981614941565b60008060006060848603121561446f578081fd5b83359250602084013561448181614941565b915060408401356142e881614941565b600080600080608085870312156144a6578182fd5b8435935060208501356144b881614941565b925060408501356144c881614941565b915060608501356143dc81614941565b600080600080600060a086880312156144ef578283fd5b85359450602086013561450181614941565b9350604086013561432c81614941565b60008060408385031215614523578182fd5b505080516020909101519092909150565b60008060008060808587031215614549578182fd5b843593506020850135925060408501356144c881614941565b6000815180845261457a8160208601602086016148ba565b601f01601f19169290920160200192915050565b600381106145ac57634e487b7160e01b600052602160045260246000fd5b9052565b80516001600160a01b0316825260208101516145d760208401826001600160a01b03169052565b5060408101516040830152606081015160608301526080810151608083015260a081015160a083015260c081015160c083015260e081015160e0830152610100808201518184015250610120808201516146338285018261458e565b505061014090810151910152565b600082516146538184602087016148ba565b9190910192915050565b6020808252825182820181905260009190848201906040850190845b8181101561469e5783516001600160a01b031683529284019291840191600101614679565b50909695505050505050565b6020808252825182820181905260009190848201906040850190845b8181101561469e576146d98385516145b0565b9284019261016092909201916001016146c6565b6020808252825182820181905260009190848201906040850190845b8181101561469e57835183529284019291840191600101614709565b600083151582526040602083015261210c6040830184614562565b6020810161165b828461458e565b60006020825261177d6020830184614562565b6020808252602a908201527f526f6c65733a2063616c6c6572206973206e6f7420746865206f776e6572206f604082015269391032bc32b1baba37b960b11b606082015260800190565b6020808252601690820152755374726174656779206973206e6f742061637469766560501b604082015260600190565b6020808252601a908201527f446f6e27742073656e6420746f207a65726f2061646472657373000000000000604082015260600190565b6020808252601f908201527f5265656e7472616e637947756172643a207265656e7472616e742063616c6c00604082015260600190565b610160810161165b82846145b0565b6000821982111561486b5761486b614915565b500190565b60008261487f5761487f61492b565b500490565b600081600019048311821515161561489e5761489e614915565b500290565b6000828210156148b5576148b5614915565b500390565b60005b838110156148d55781810151838201526020016148bd565b83811115610eb85750506000910152565b60006000198214156148fa576148fa614915565b5060010190565b6000826149105761491061492b565b500690565b634e487b7160e01b600052601160045260246000fd5b634e487b7160e01b600052601260045260246000fd5b6001600160a01b038116811461495657600080fd5b5056fea2646970667358221220d381d4514e13191c1d73b2a2b5eb4ac39313d22fbc8d80c55c92bd5b5d0931ea64736f6c63430008030033405787fa12a823e0f2b7631cc41b3ba8828b3321ca811111fa75cd3aa3bb5ace",
  "devdoc": {
    "kind": "dev",
    "methods": {
      "charactersPlayed()": {
        "details": "returns all characters played by this contract (e.g. stable coin, oracle registry)"
      },
      "dependsOnCharacters()": {
        "details": "returns all the character dependencies like FEE_RECIPIENT"
      },
      "dependsOnRoles()": {
        "details": "returns all the roles dependencies of this contract like FUND_TRANSFERER"
      },
      "rolesPlayed()": {
        "details": "returns all roles played by this contract"
      },
      "updateMainCharacterCache(uint256)": {
        "details": "Updates the main character cache for a speciic character"
      },
      "updateRoleCache(uint256,address)": {
        "details": "Updates the role cache for a specific role and address"
      }
    },
    "version": 1
  },
  "userdoc": {
    "kind": "user",
    "methods": {
      "_viewTVL(address)": {
        "notice": "TVL per token"
      },
      "acceptMigration(uint256,address,address,uint256,uint256)": {
        "notice": "Accept migrated assets from another tranche"
      },
      "approveToken(address,uint256,bytes)": {
        "notice": "set up a token to be supported by this strategy"
      },
      "approvedToken(address)": {
        "notice": "Is a token supported by this strategy?"
      },
      "approvedTokensCount()": {
        "notice": "count the number of tokens this strategy currently supports"
      },
      "checkApprovedAndEncode(address,address)": {
        "notice": "Check whether a token is approved and encode params"
      },
      "collectYieldValueBorrowable(uint256,address,address,address)": {
        "notice": "For a specific tranche, collect yield and view value and borrowable per 10k"
      },
      "disapproveToken(address,bytes)": {
        "notice": "Give some token the stink-eye and tell it to never show its face again"
      },
      "harvestPartially(address)": {
        "notice": "Call reinvest"
      },
      "migrateAllTo(address)": {
        "notice": "Migrate all tranches managed to a new strategy, using strategy registry as go-between"
      },
      "migrateStrategy(uint256,address,address,address)": {
        "notice": "Migrate contents of tranche to new strategy"
      },
      "newCurrentOracle(address,address)": {
        "notice": "Notify contract to update oracle cache"
      },
      "registerDepositFor(address,uint256,uint256,address)": {
        "notice": "Register deposit to tranche on behalf of user (to be called by other contract)"
      },
      "registerMintTranche(address,uint256,address,uint256,uint256)": {
        "notice": "Allows tranche contracts to register new tranches"
      },
      "rescueCollateral(address,uint256,address)": {
        "notice": "In an emergency, withdraw tokens from yield generator"
      },
      "rescueNative(uint256,address)": {
        "notice": "Rescue any stranded native currency"
      },
      "rescueStrandedTokens(address,uint256,address)": {
        "notice": "In an emergency, withdraw any tokens stranded in this contract's balance"
      },
      "setApfSmoothingPer10k(uint256)": {
        "notice": "Since return rates vary, we smooth"
      },
      "setDepositLimit(address,uint256)": {
        "notice": "Set the deposit limit for a token"
      },
      "setYakStrategy(address,address)": {
        "notice": "Set the yy strategy for a token"
      },
      "stabilityFeePer10k(address)": {
        "notice": "View Stability fee if any"
      },
      "trancheToken(uint256)": {
        "notice": "Returns the token associated with a tranche"
      },
      "trancheTokenID(uint256)": {
        "notice": "The ID of the tranche token (relevant if not handling ERC20)"
      },
      "viewAPF(address)": {
        "notice": "Annual percentage factor, APR = APF - 100%"
      },
      "viewAllApprovedTokens()": {
        "notice": "View all tokens currently supported by this strategy"
      },
      "viewAllStrategyMetadata()": {
        "notice": "view metadata for all tokens in an array"
      },
      "viewAllTokensEver()": {
        "notice": "All the tokens this strategy has ever touched"
      },
      "viewBorrowable(uint256)": {
        "notice": "View borrowable per10k of tranche"
      },
      "viewHarvestBalance2Tally(address)": {
        "notice": "View outstanding yield that needs to be distributed to accounts of an asset if any"
      },
      "viewStrategyMetadata(address)": {
        "notice": "View metadata for a token"
      },
      "viewTargetCollateralAmount(uint256)": {
        "notice": "View collateral owned by tranche, taking into account compounding and fee"
      },
      "viewValue(uint256,address)": {
        "notice": "View the value of a tranche"
      },
      "viewValueBorrowable(uint256,address)": {
        "notice": "View value and borrowable per10k of tranche"
      },
      "viewYield(uint256,address)": {
        "notice": "View accrued yield for a tranche"
      },
      "viewYieldValueBorrowable(uint256,address,address)": {
        "notice": "For a specific tranche, view its accrued yield, value and borrowable per 10k"
      },
      "withdraw(uint256,uint256,address,address)": {
        "notice": "Withdraw tokens from tranche (only callable by fund transferer)"
      },
      "yieldCurrency()": {
        "notice": "The currency used to aggregate yield in this strategy (mintable)"
      },
      "yieldType()": {
        "notice": "compounding"
      }
    },
    "notice": "Compounding strategy using yieldyak",
    "version": 1
  },
  "storageLayout": {
    "storage": [
      {
        "astId": 16299,
        "contract": "contracts/strategies/YieldYakStrategy.sol:YieldYakStrategy",
        "label": "mainCharacterCache",
        "offset": 0,
        "slot": "0",
        "type": "t_mapping(t_uint256,t_address)"
      },
      {
        "astId": 16305,
        "contract": "contracts/strategies/YieldYakStrategy.sol:YieldYakStrategy",
        "label": "roleCache",
        "offset": 0,
        "slot": "1",
        "type": "t_mapping(t_address,t_mapping(t_uint256,t_bool))"
      },
      {
        "astId": 16308,
        "contract": "contracts/strategies/YieldYakStrategy.sol:YieldYakStrategy",
        "label": "_dependsOnCharacters",
        "offset": 0,
        "slot": "2",
        "type": "t_array(t_uint256)dyn_storage"
      },
      {
        "astId": 16311,
        "contract": "contracts/strategies/YieldYakStrategy.sol:YieldYakStrategy",
        "label": "_dependsOnRoles",
        "offset": 0,
        "slot": "3",
        "type": "t_array(t_uint256)dyn_storage"
      },
      {
        "astId": 16314,
        "contract": "contracts/strategies/YieldYakStrategy.sol:YieldYakStrategy",
        "label": "_charactersPlayed",
        "offset": 0,
        "slot": "4",
        "type": "t_array(t_uint256)dyn_storage"
      },
      {
        "astId": 16317,
        "contract": "contracts/strategies/YieldYakStrategy.sol:YieldYakStrategy",
        "label": "_rolesPlayed",
        "offset": 0,
        "slot": "5",
        "type": "t_array(t_uint256)dyn_storage"
      },
      {
        "astId": 14269,
        "contract": "contracts/strategies/YieldYakStrategy.sol:YieldYakStrategy",
        "label": "_oracleCache",
        "offset": 0,
        "slot": "6",
        "type": "t_mapping(t_address,t_mapping(t_address,t_address))"
      },
      {
        "astId": 11836,
        "contract": "contracts/strategies/YieldYakStrategy.sol:YieldYakStrategy",
        "label": "_slotTranches",
        "offset": 0,
        "slot": "7",
        "type": "t_mapping(t_uint256,t_address)"
      },
      {
        "astId": 222,
        "contract": "contracts/strategies/YieldYakStrategy.sol:YieldYakStrategy",
        "label": "_status",
        "offset": 0,
        "slot": "8",
        "type": "t_uint256"
      },
      {
        "astId": 8722,
        "contract": "contracts/strategies/YieldYakStrategy.sol:YieldYakStrategy",
        "label": "isActive",
        "offset": 0,
        "slot": "9",
        "type": "t_bool"
      },
      {
        "astId": 8728,
        "contract": "contracts/strategies/YieldYakStrategy.sol:YieldYakStrategy",
        "label": "_approvedTokens",
        "offset": 0,
        "slot": "10",
        "type": "t_struct(AddressSet)4290_storage"
      },
      {
        "astId": 8731,
        "contract": "contracts/strategies/YieldYakStrategy.sol:YieldYakStrategy",
        "label": "_allTokensEver",
        "offset": 0,
        "slot": "12",
        "type": "t_struct(AddressSet)4290_storage"
      },
      {
        "astId": 8743,
        "contract": "contracts/strategies/YieldYakStrategy.sol:YieldYakStrategy",
        "label": "_accounts",
        "offset": 0,
        "slot": "14",
        "type": "t_mapping(t_uint256,t_struct(CollateralAccount)8738_storage)"
      },
      {
        "astId": 8760,
        "contract": "contracts/strategies/YieldYakStrategy.sol:YieldYakStrategy",
        "label": "apfSmoothingPer10k",
        "offset": 0,
        "slot": "15",
        "type": "t_uint256"
      },
      {
        "astId": 8765,
        "contract": "contracts/strategies/YieldYakStrategy.sol:YieldYakStrategy",
        "label": "tokenMetadata",
        "offset": 0,
        "slot": "16",
        "type": "t_mapping(t_address,t_struct(TokenMetadata)8757_storage)"
      },
      {
        "astId": 18992,
        "contract": "contracts/strategies/YieldYakStrategy.sol:YieldYakStrategy",
        "label": "yakStrategy",
        "offset": 0,
        "slot": "17",
        "type": "t_mapping(t_address,t_address)"
      },
      {
        "astId": 18996,
        "contract": "contracts/strategies/YieldYakStrategy.sol:YieldYakStrategy",
        "label": "depositedShares",
        "offset": 0,
        "slot": "18",
        "type": "t_mapping(t_uint256,t_uint256)"
      },
      {
        "astId": 19000,
        "contract": "contracts/strategies/YieldYakStrategy.sol:YieldYakStrategy",
        "label": "withdrawnFees",
        "offset": 0,
        "slot": "19",
        "type": "t_mapping(t_address,t_uint256)"
      },
      {
        "astId": 19004,
        "contract": "contracts/strategies/YieldYakStrategy.sol:YieldYakStrategy",
        "label": "apfDeposit4Share",
        "offset": 0,
        "slot": "20",
        "type": "t_mapping(t_address,t_uint256)"
      },
      {
        "astId": 19007,
        "contract": "contracts/strategies/YieldYakStrategy.sol:YieldYakStrategy",
        "label": "feePer10k",
        "offset": 0,
        "slot": "21",
        "type": "t_uint256"
      }
    ],
    "types": {
      "t_address": {
        "encoding": "inplace",
        "label": "address",
        "numberOfBytes": "20"
      },
      "t_array(t_bytes32)dyn_storage": {
        "base": "t_bytes32",
        "encoding": "dynamic_array",
        "label": "bytes32[]",
        "numberOfBytes": "32"
      },
      "t_array(t_uint256)dyn_storage": {
        "base": "t_uint256",
        "encoding": "dynamic_array",
        "label": "uint256[]",
        "numberOfBytes": "32"
      },
      "t_bool": {
        "encoding": "inplace",
        "label": "bool",
        "numberOfBytes": "1"
      },
      "t_bytes32": {
        "encoding": "inplace",
        "label": "bytes32",
        "numberOfBytes": "32"
      },
      "t_mapping(t_address,t_address)": {
        "encoding": "mapping",
        "key": "t_address",
        "label": "mapping(address => address)",
        "numberOfBytes": "32",
        "value": "t_address"
      },
      "t_mapping(t_address,t_mapping(t_address,t_address))": {
        "encoding": "mapping",
        "key": "t_address",
        "label": "mapping(address => mapping(address => address))",
        "numberOfBytes": "32",
        "value": "t_mapping(t_address,t_address)"
      },
      "t_mapping(t_address,t_mapping(t_uint256,t_bool))": {
        "encoding": "mapping",
        "key": "t_address",
        "label": "mapping(address => mapping(uint256 => bool))",
        "numberOfBytes": "32",
        "value": "t_mapping(t_uint256,t_bool)"
      },
      "t_mapping(t_address,t_struct(TokenMetadata)8757_storage)": {
        "encoding": "mapping",
        "key": "t_address",
        "label": "mapping(address => struct Strategy.TokenMetadata)",
        "numberOfBytes": "32",
        "value": "t_struct(TokenMetadata)8757_storage"
      },
      "t_mapping(t_address,t_uint256)": {
        "encoding": "mapping",
        "key": "t_address",
        "label": "mapping(address => uint256)",
        "numberOfBytes": "32",
        "value": "t_uint256"
      },
      "t_mapping(t_bytes32,t_uint256)": {
        "encoding": "mapping",
        "key": "t_bytes32",
        "label": "mapping(bytes32 => uint256)",
        "numberOfBytes": "32",
        "value": "t_uint256"
      },
      "t_mapping(t_uint256,t_address)": {
        "encoding": "mapping",
        "key": "t_uint256",
        "label": "mapping(uint256 => address)",
        "numberOfBytes": "32",
        "value": "t_address"
      },
      "t_mapping(t_uint256,t_bool)": {
        "encoding": "mapping",
        "key": "t_uint256",
        "label": "mapping(uint256 => bool)",
        "numberOfBytes": "32",
        "value": "t_bool"
      },
      "t_mapping(t_uint256,t_struct(CollateralAccount)8738_storage)": {
        "encoding": "mapping",
        "key": "t_uint256",
        "label": "mapping(uint256 => struct Strategy.CollateralAccount)",
        "numberOfBytes": "32",
        "value": "t_struct(CollateralAccount)8738_storage"
      },
      "t_mapping(t_uint256,t_uint256)": {
        "encoding": "mapping",
        "key": "t_uint256",
        "label": "mapping(uint256 => uint256)",
        "numberOfBytes": "32",
        "value": "t_uint256"
      },
      "t_struct(AddressSet)4290_storage": {
        "encoding": "inplace",
        "label": "struct EnumerableSet.AddressSet",
        "members": [
          {
            "astId": 4289,
            "contract": "contracts/strategies/YieldYakStrategy.sol:YieldYakStrategy",
            "label": "_inner",
            "offset": 0,
            "slot": "0",
            "type": "t_struct(Set)3989_storage"
          }
        ],
        "numberOfBytes": "64"
      },
      "t_struct(CollateralAccount)8738_storage": {
        "encoding": "inplace",
        "label": "struct Strategy.CollateralAccount",
        "members": [
          {
            "astId": 8733,
            "contract": "contracts/strategies/YieldYakStrategy.sol:YieldYakStrategy",
            "label": "collateral",
            "offset": 0,
            "slot": "0",
            "type": "t_uint256"
          },
          {
            "astId": 8735,
            "contract": "contracts/strategies/YieldYakStrategy.sol:YieldYakStrategy",
            "label": "yieldCheckptIdx",
            "offset": 0,
            "slot": "1",
            "type": "t_uint256"
          },
          {
            "astId": 8737,
            "contract": "contracts/strategies/YieldYakStrategy.sol:YieldYakStrategy",
            "label": "trancheToken",
            "offset": 0,
            "slot": "2",
            "type": "t_address"
          }
        ],
        "numberOfBytes": "96"
      },
      "t_struct(Set)3989_storage": {
        "encoding": "inplace",
        "label": "struct EnumerableSet.Set",
        "members": [
          {
            "astId": 3984,
            "contract": "contracts/strategies/YieldYakStrategy.sol:YieldYakStrategy",
            "label": "_values",
            "offset": 0,
            "slot": "0",
            "type": "t_array(t_bytes32)dyn_storage"
          },
          {
            "astId": 3988,
            "contract": "contracts/strategies/YieldYakStrategy.sol:YieldYakStrategy",
            "label": "_indexes",
            "offset": 0,
            "slot": "1",
            "type": "t_mapping(t_bytes32,t_uint256)"
          }
        ],
        "numberOfBytes": "64"
      },
      "t_struct(TokenMetadata)8757_storage": {
        "encoding": "inplace",
        "label": "struct Strategy.TokenMetadata",
        "members": [
          {
            "astId": 8746,
            "contract": "contracts/strategies/YieldYakStrategy.sol:YieldYakStrategy",
            "label": "yieldCheckpoints",
            "offset": 0,
            "slot": "0",
            "type": "t_array(t_uint256)dyn_storage"
          },
          {
            "astId": 8748,
            "contract": "contracts/strategies/YieldYakStrategy.sol:YieldYakStrategy",
            "label": "totalCollateralThisPhase",
            "offset": 0,
            "slot": "1",
            "type": "t_uint256"
          },
          {
            "astId": 8750,
            "contract": "contracts/strategies/YieldYakStrategy.sol:YieldYakStrategy",
            "label": "totalCollateralNow",
            "offset": 0,
            "slot": "2",
            "type": "t_uint256"
          },
          {
            "astId": 8752,
            "contract": "contracts/strategies/YieldYakStrategy.sol:YieldYakStrategy",
            "label": "apfLastUpdated",
            "offset": 0,
            "slot": "3",
            "type": "t_uint256"
          },
          {
            "astId": 8754,
            "contract": "contracts/strategies/YieldYakStrategy.sol:YieldYakStrategy",
            "label": "apf",
            "offset": 0,
            "slot": "4",
            "type": "t_uint256"
          },
          {
            "astId": 8756,
            "contract": "contracts/strategies/YieldYakStrategy.sol:YieldYakStrategy",
            "label": "depositLimit",
            "offset": 0,
            "slot": "5",
            "type": "t_uint256"
          }
        ],
        "numberOfBytes": "192"
      },
      "t_uint256": {
        "encoding": "inplace",
        "label": "uint256",
        "numberOfBytes": "32"
      }
    }
  }
}